:100000000C94CB010C9446100C9477100C94A8100F
:100010000C94D9100C940A110C943B110C946C1193
:100020000C949D110C94FA010C94FA010C94FA01B1
:100030000C94CE110C94FA010C94FA010C942A122F
:100040000C94FA010C94FA010C94FA010C94FA0144
:100050000C94FA010C94FA010C94FA010C94051218
:100060000C94FA010C94AB140C94FA010C94FA0160
:100070000C94FA010C94FA010C94FA010C94FA0114
:100080000C94FA010C94FA010C94FA010C94FA0104
:100090000C94E6140C94FA010C94FA010C94160FCB
:1000A0000C94FA010C94FA010C94FA010C94FA01E4
:1000B0000C94FA010C94FA010C94FA010C94FA01D4
:1000C0000C94FA010C94FA010C94FA0141646472E4
:1000D00065737320454550524F4D3A202000202D26
:1000E0002D2056616C75653A2000120126014C01E5
:1000F00073019301AB01B901C901DE01F4010502ED
:100100001102180235025302690277028702AA021D
:10011000B002416C61726D204D6F6465206D617439
:100120006368657320005B446179203A20686F75CD
:100130007273203A206D696E75746573203A20736E
:1001400065636F6E64735D202D3E20005B446174B7
:1001500065203A20686F757273203A206D696E755C
:10016000746573203A207365636F6E64735D202D30
:100170003E20005B486F757273203A206D696E7582
:10018000746573203A207365636F6E64735D202D10
:100190003E20005B4D696E75746573203A2073656F
:1001A000636F6E64735D202D3E20005B5365636F4B
:1001B0006E64735D202D3E20004F6E636520706578
:1001C00072207365636F6E6400496E636F7272654F
:1001D000637420616C61726D206D6F6465005B25D6
:1001E0003032753A253032753A253032753A25303D
:1001F00032755D005B253032753A253032753A250F
:100200003032755D005B253032753A253032755DD0
:10021000005B253032755D005B446179203A2068CF
:100220006F757273203A206D696E75746573205D09
:10023000202D3E20005B44617465203A20686F7574
:100240007273203A206D696E75746573205D202D80
:100250003E20005B486F757273203A206D696E75A1
:100260007465735D202D3E20005B4D696E7574656D
:10027000735D202D3E20004F6E63652070657220F7
:100280006D696E7574650025732C20253032752FCD
:10029000253032752F253032752C20253032753AB5
:1002A000253032753A25303275006572726F7200F2
:1002B000253032752563253032752563253032753A
:1002C0002563253032752563253032752563253049
:1002D00032752563253032750000000809000000E2
:1002E000000000000000000000000000000000000E
:1002F00000000000000000000000000000000000FE
:1003000000000000000000000000000001020810D2
:1003100010204080040810204002020408102040F1
:100320008001028020400420010102040810200105
:100330004080408001020804088004100402010586
:100340000505050303030301010104040306060672
:100350000606060606010405010501030202020263
:100360000202010202050504040304040103040758
:10037000070700202326292C2F32002225282B2E88
:100380003134002124272A2D3033270838095B0A0D
:10039000620DDD15B11711241FBECFEFD1E2DEBF14
:1003A000CDBF12E0A0E0B2E0E6EAFAE300E00BBF66
:1003B00002C007900D92A434B107D9F719E0A4E464
:1003C000B2E001C01D92A13AB107E1F713E0C6E91E
:1003D000D3E000E006C022970109FE010BBF0E9496
:1003E000CE19CA38D10780E00807A9F70E943F025A
:1003F0000C94511D0C94000083EE92E00E9445097C
:1004000060910C0270910D0240910A0288EE92E018
:100410000E94990A60910C0270910D0288EE92E0A0
:100420000E94960A80934402109245026CEC70E0A0
:1004300083EE92E00E94BC0940910C0250910D02A3
:10044000662757FD6095762F2AE030E083EE92E034
:100450000E94210A6EED70E083EE92E00E94BC09DA
:100460004091440250914502662757FD6095762FD2
:100470002AE030E083EE92E00C94E40908950E94B3
:10048000ED1288EE92E00E94C30B853440F061E0EB
:1004900081E30E94821361E081E30E949B1361E08B
:1004A00070E088EE92E00E94960A8130B1F480916B
:1004B000870590918805A0918905B0918A0590687B
:1004C0008093870590938805A0938905B0938A054A
:1004D00060E081E090E00E94931C87E20E94E113BB
:1004E000892B59F160E070E088EE92E00E94960A54
:1004F0008A3019F5C1C06CE3629FA001639F500D63
:100500001124840F951F0EC02115310559F06CE39D
:10051000629FA001639F500D11249A01205F314F0B
:10052000820F931F039748F4809196059091970549
:10053000806290939705809396058AE492E00E94EA
:100540000C088AE492E00E94CD078AE492E00E94BF
:10055000DC078AE492E00E94940363E070E080E0AC
:1005600090E00E94A1128091870590918805A0914A
:100570008905B0918A05A1FF5EC063E070E080E06C
:1005800090E00E94A11261E086E10E94821363E084
:1005900070E080E090E00E94A11261E086E10E949C
:1005A0009B1363E070E080E090E00E94A1120E9443
:1005B0002C0863E070E080E090E00E94A11281E0EE
:1005C0000E944F0863E070E080E090E00E94A1127A
:1005D00084E00E945D0863E070E080E090E00E94AB
:1005E000A11280E00E94580863E070E080E090E093
:1005F0000E94A1120E944B0863E070E080E090E04E
:100600000E94A11266E08DED92E00E94680863E00E
:1006100070E080E090E00E94A11261E086E10E941B
:10062000821360E086E10E949B1363E070E080E04B
:1006300090E00E94A11263E070E080E090E00E94F0
:10064000A11288EE92E00E949D0B60934602709387
:10065000470280934802909349028091460290910C
:100660004702A0914802B09149020E94261A0E94B6
:10067000FC010E943E02FDCF8AE492E00E940C0839
:100680008AE492E00E945E068AE492E00E945306A9
:100690008091630290E020916502821B9109209174
:1006A000620230E040916602241B310912161306E3
:1006B0000CF421CF29CF8091EF02882341F0809163
:1006C000C403811104C089EC93E00C948D17089544
:1006D0000F931F93CF93DF93EC01042F68A761E082
:1006E00080E30E94821318A5112379F0113091F450
:1006F00061E080E30E949B13013019F482E08B8B50
:1007000009C0011107C01B8B05C060E080E30E9497
:100710009B131B8A6AE070E080E090E0DF91CF914C
:100720001F910F910C94A112CF93DF93EC010E94C3
:100730005B0340E060E0CE01DF91CF910C94680351
:10074000FC01148A158A168A178A108E118E128E51
:10075000138E148E158E168E178E10A211A212A251
:1007600013A214A215A216A217A20895EF92FF9247
:100770000F931F93CF93DF93CDB7DEB7EC970FB6F0
:10078000F894DEBF0FBECDBF8C01ECE0F1E08591A7
:100790009491BC01EE24E394F12CEC0EFD1EC701F4
:1007A0000E94311AEEE0F1E085919491BC01CE01F6
:1007B00089960E94311AF8018689843009F466C04E
:1007C00040F4823029F108F04BC0813009F0B6C006
:1007D00009C0863009F486C008F46EC0873009F07D
:1007E000ADC096C0F801818D1F928F93808D1F92AE
:1007F0008F9387891F928F93828D1F928F93858904
:100800001F928F9384891F928F938FE092E015C07F
:10081000F801818D1F928F93808D1F928F9387890E
:100820001F928F93828D1F928F9385891F928F9332
:1008300084891F928F9383E192E09F938F93FF921D
:10084000EF921F9284E68F93C80189969F938F93AE
:100850000E94431A0FB6F894DEBF0FBECDBF81C011
:10086000F801818D1F928F93808D1F928F938789BE
:100870001F928F93828D1F928F9385891F928F93E2
:1008800084891F928F9387E192E0D7CFF801818D01
:100890001F928F93808D1F928F9387891F928F93C2
:1008A000828D1F928F9385891F928F9384891F92C7
:1008B0008F938BE192E0C1CFF801818D1F928F93CE
:1008C000808D1F928F9387891F928F93828D1F92A5
:1008D0008F9385891F928F9384891F928F938FE1C5
:1008E00092E0ABCFF801818D1F928F93808D1F9284
:1008F0008F9387891F928F93828D1F928F93858903
:100900001F928F9384891F928F9383E292E095CFF9
:10091000F801818D1F928F93808D1F928F9387890D
:100920001F928F93828D1F928F9385891F928F9331
:1009300084891F928F9387E292E07FCFCE018996C0
:100940009F938F931F9284E68F93C80189969F93FC
:100950008F930E94431A0F900F900F900F900F905B
:100960000F90075D1F4FC801EC960FB6F894DEBFDD
:100970000FBECDBFDF91CF911F910F91FF90EF90F0
:100980000895CF92DF92EF92FF920F931F93CF9330
:10099000DF938C01C62E8091EF02811104C089EE95
:1009A00092E00E94CB0B68E670E089EE92E00E9434
:1009B000F80B60E070E089EE92E00E94240D89EE71
:1009C00092E00E94260D43E150E068E670E089EE77
:1009D00092E00E94600DE12CF12CC0E0D0E0D12C1F
:1009E000E4C089EE92E00E94000CF801EC0FFD1FBC
:1009F0008083C630D10509F467C098F4C230D105B0
:100A000009F43EC038F4209729F1C130D10509F02E
:100A1000C7C02BC0C430D10509F440C008F049C09C
:100A20003AC0CA30D10509F484C048F4282F30E018
:100A3000C830D10509F461C008F06DC050C0CC3099
:100A4000D10509F492C008F482C0CD30D10509F077
:100A5000A7C099C0982F92959F708F702AE0929F9F
:100A6000800D1124F801818F9BC0982F92959F7063
:100A70008F70FAE09F9F800D1124F801808F90C045
:100A8000982F92959F708F70FAE09F9F800D112490
:100A9000F801878B85C0F801868B82C0982F9295CC
:100AA0009F708F70FAE09F9F800D1124F801828F54
:100AB00077C0982F92959F708F70FAE09F9F800D5E
:100AC0001124F801858B6CC0982F92959F708F70C0
:100AD000FAE09F9F800D1124F801848B61C054E0DF
:100AE000359527955A95E1F727708F70FAE02F9F7B
:100AF000800D1124F801838F53C044E0359527956C
:100B00004A95E1F727708F70FAE02F9F800D11242E
:100B1000F801848F45C094E0359527959A95E1F7C3
:100B200023708F70FAE02F9F800D1124F801858FBC
:100B300037C0282F2695269526952670922F990F37
:100B4000990F920F8F70980FF801968F29C0282F58
:100B50002695269526952E70922F990F990F920F14
:100B60008F70980FF801978F1BC0282F2695269518
:100B700026952670922F990F990F920F8F70980FCC
:100B8000F80190A30DC0282F26952695269526704E
:100B9000922F990F990F920F8F70980FF80191A3D0
:100BA000219603C0FFEFEF1AFF0ACC16DD0658F0BE
:100BB0002AE0E216F10438F489EE92E00E94FA0B82
:100BC000882381F30ECFDF91CF911F910F91FF907A
:100BD000EF90DF90CF9008951F93CF93DF93EC01B8
:100BE000162F8091EF02811104C089EE92E00E94DD
:100BF000CB0B68E670E089EE92E00E94F80B612F63
:100C000089EE92E00E94F80CC10FD11D688189EE37
:100C100092E00E94F80C89EE92E0DF91CF911F9153
:100C20000C94260DFF920F931F93CF93DF938C01AB
:100C3000F62E8091EF02811104C089EE92E00E94AD
:100C4000CB0B68E670E089EE92E00E94F80B6F2D06
:100C500089EE92E00E94F80C89EE92E00E94260D47
:100C600041E050E068E670E089EE92E00E94600D9D
:100C7000CBE0D0E089EE92E00E94FA0B811102C035
:100C80002197C1F789EE92E00E94000CF801EF0D68
:100C9000F11D808389EE92E0DF91CF911F910F913A
:100CA000FF900C94260DCF93DF93EC0166E00E9439
:100CB000C104CE01DF91CF910C94B603CF92DF92A5
:100CC000EF92FF920F931F93CF93DF93CDB7DEB7D1
:100CD000C857D1090FB6F894DEBF0FBECDBF7C0157
:100CE0006AE00E94C1048701075D1F4F84E6F80196
:100CF00011928A95E9F7EAEEF0E085919491BC01B2
:100D0000CE018F5A9F4F0E94311ABE016F5A7F4FFA
:100D1000C8010E94381AF70182A1823009F46AC022
:100D200030F4882369F0813009F00BC122C084308F
:100D300009F4C7C008F493C0853009F002C1F0C0BF
:100D4000ECEEF0E085919491BC01CE018F5A9F4F5B
:100D50000E94311ABE016F5A7F4FC8010E94381A93
:100D6000EAEFF0E0859194916E01F9E2CF0ED11C8B
:100D700018C0EEEEF0E085919491BC01CE018F5A3F
:100D80009F4F0E94311ABE016F5A7F4FC8010E94C7
:100D9000381AEAEFF0E0859194916E01E9E2CE0E07
:100DA000D11CBC01C6010E94311AF701838D1F922C
:100DB0008F93848D1F928F93858D1F928F93868D35
:100DC0001F928F93DF92CF921F9288E28F93EE242F
:100DD000E394F12CEC0EFD1EFF92EF920E94431A59
:100DE000B701C8010E94381A0FB6F894DEBF0FBED3
:100DF000CDBFC2C0E0EFF0E085919491BC01CE017F
:100E00008F5A9F4F0E94311ABE016F5A7F4FC801FF
:100E10000E94381AECEFF0E0859194916E01E9E2BE
:100E2000CE0ED11CBC01C6010E94311AF701838D80
:100E30001F928F93848D1F928F93858D1F928F9316
:100E4000DF92CF921F9288E28F93EE24E394F12CED
:100E5000EC0EFD1EFF92EF920E94431AC1CFE2EF0B
:100E6000F0E085919491BC01CE018F5A9F4F0E9472
:100E7000311ABE016F5A7F4FC8010E94381AEEEF37
:100E8000F0E0859194916E01E9E2CE0ED11CBC0197
:100E9000C6010E94311AF701838D1F928F93848DB2
:100EA0001F928F93DF92CF921F9288E28F93EE244E
:100EB000E394F12CEC0EFD1EFF92EF920E94431A78
:100EC0008FCFE4EFF0E085919491BC01CE018F5A71
:100ED0009F4F0E94311ABE016F5A7F4FC8010E9476
:100EE000381AE0E0F1E0859194916E01E9E2CE0ECE
:100EF000D11CBC01C6010E94311AF701838D1F92DB
:100F00008F93DF92CF921F9288E28F93EE24E39427
:100F1000F12CEC0EFD1EFF92EF920E94431A60CF5F
:100F2000E6EFF0E085919491BC01CE018F5A9F4F7E
:100F30000E94311ABE016F5A7F4FC8010E94381AB1
:100F40001BC0E8EFF0E0859194917E01E1E5EE0EA3
:100F5000F11CBC01C7010E94311AFF92EF921F924F
:100F600084E68F931F930F930E94431A0F900F9064
:100F70000F900F900F900F90C801C858DF4F0FB619
:100F8000F894DEBF0FBECDBFDF91CF911F910F91BF
:100F9000FF90EF90DF90CF900895CF93DF93EC0117
:100FA0006EE00E9412068E858E7F8E876EE0CE01E7
:100FB000DF91CF910C94EC05CF93DF93EC016EE0C1
:100FC0000E9412068E858D7F8E876EE0CE01DF91A6
:100FD000CF910C94EC05CF93DF93EC016FE00E946E
:100FE00012068F858370DF91CF910895CF93DF93A1
:100FF000EC010E94EB07882319F0CE56DF4F88835F
:10100000809159028C7F809359026FE08AE492E0CC
:10101000DF91CF910C94EC05CF93DF93EC0140E08E
:1010200061E00E946803CE010E94F607CE010E9493
:10103000A0036DE0CE010E94C10461E08BE20E943A
:10104000821360E08BE2DF91CF910C949B1310929E
:10105000DB0210925D02089561E08EE10E9482132E
:1010600061E08FE10E94821361E08DE10E948213B2
:1010700060E08EE10E949B1360E08FE10E949B1371
:1010800061E08DE10E949B138CB580618CBD8CB5B5
:1010900080648CBD08958CB58F7B8CBD08958111C3
:1010A00003C08CB5806202C08CB58F7D8CBD089565
:1010B0009CB5937F982B9CBD08952CB5982F937069
:1010C0002C7F922B9CBD9DB580FB90F99DBD089512
:1010D000CF93C62F61E08DE10E94821361E082E22E
:1010E0000E94821361E08DE10E949B1361E082E225
:1010F0000E949B138091870590918805A091890596
:10110000B0918A05A2FF08C061E088E00E948213C6
:1011100061E088E00E949B1380918705909188058B
:10112000A0918905B0918A0596FF08C061E089E029
:101130000E94821361E089E00E949B1380918705E1
:1011400090918805A0918905B0918A05A3FF08C0F8
:1011500061E082E00E94821361E082E00E949B13C2
:101160008091870590918805A0918905B0918A05A5
:10117000A4FF08C061E082E20E94821361E082E283
:101180000E949B13C330C9F020F4C13061F070F4A9
:1011900007C0C53061F1F0F0C63009F067C033C058
:1011A00060E08DE160C060E082E25DC088EE92E0C8
:1011B0000E947E0A60E08CE256C080918705909183
:1011C0008805A0918905B0918A05A2FF4FC060E013
:1011D00088E049C08091870590918805A091890594
:1011E000B0918A0596FF42C060E089E03CC08091E2
:1011F000870590918805A0918905B0918A05A3FF84
:1012000035C060E02FC061E08DE10E949B1361E07A
:1012100082E20E949B138091870590918805A0919E
:101220008905B0918A05A2FF04C061E088E00E94B0
:101230009B138091870590918805A0918905B091B5
:101240008A0596FF04C061E089E00E949B138091AB
:10125000870590918805A0918905B0918A05A3FF23
:1012600005C061E082E0CF910C949B13CF9108956B
:101270001092DE021092DD021092DF021092E00264
:101280001092E1021092E2020895FC01408160E0B8
:1012900072EC81E090E00E94271461E087E10E94F7
:1012A000821361E087E10E949B1361E08BE00E9462
:1012B000821360E08BE00E949B1361E08DE20E944C
:1012C000821360E08DE20C949B13DC018091C500D9
:1012D00011968C9311978091C40012968C9312975B
:1012E000E2ECF0E0808113968C9313978091CA0012
:1012F00014968C93149780818F7D808380818F7E5C
:1013000080838081877F80834C9160E072EC81E0F4
:1013100090E00E94271461E087E10E949B1360E047
:101320008BE00C949B13CF93DF93EC0140918705E6
:10133000509188056091890570918A0563E070E09D
:1013400080E090E042FF07C00E94A11261E08BE0C4
:101350000E949B1302C00E94A11289818093C50044
:101360008A818093C4008B818093C2008C8180939A
:10137000CA00DF91CF910895EF92FF920F931F93D0
:10138000CF93DF938C01EB010E9465097E0188E118
:10139000E81A8CEFF80AFE0121968491882339F02F
:1013A000F80160810E942115CE15DF05A1F7C80163
:1013B0000E94930960E070E0CB01DF91CF911F9113
:1013C0000F91FF90EF900895AF92BF92DF92EF924E
:1013D000FF920F931F93CF93DF93EC01142FD52E21
:1013E0007B0159010E946509A114B10429F46881A7
:1013F000812F0E94211516C08AE0A816B10439F485
:101400004881612F7D2DC7010E94B9150BC0950140
:10141000442737FD4095542F0881612F7D2DC7014A
:101420000E942E1588810E942315CE01DF91CF9155
:101430001F910F91FF90EF90DF90BF90AF900C94B1
:101440009309AF92BF92DF92EF92FF920F931F9397
:10145000CF93DF93EC01142FD52E7B0159010E940D
:101460006509A114B10429F46881812F0E94211516
:1014700016C08AE0A816B10439F44881612F7D2D89
:10148000C7010E94B9150BC09501442737FD40954F
:10149000542F0881612F7D2DC7010E942E15CE018A
:1014A000DF91CF911F910F91FF90EF90DF90BF9050
:1014B000AF900C9493091092E30208951F93CF9379
:1014C000DF931F92CDB7DEB7162F61E0812F4983DE
:1014D0000E9482134981413011F461E003C041113F
:1014E00008C060E0812F0F90DF91CF911F910C9485
:1014F0009B130F90DF91CF911F91089561E087E1D9
:101500000E94821361E084E20E94821361E085E21E
:101510000E94821361E087E10E949B1361E084E2F4
:101520000E949B1361E085E20C949B13CB010C9409
:10153000851CCB01611524E072071CF0642F0C940C
:10154000931C08958F929F92AF92BF92CF92DF9299
:10155000EF92FF920F931F93CF93DF93CDB7DEB738
:10156000C75FD1090FB6F894DEBF0FBECDBF8E01A5
:1015700000511F4F580128E0A20EB11C7E0181E8E6
:10158000E80EF11CCC24C394D12CCC0EDD1E6DE0F2
:10159000CE018F519F4F0E940C1740E06CE088EE07
:1015A00092E00E945E0A40E06DE088EE92E00E94C8
:1015B0005E0AF801108211821282138261E08CE0CF
:1015C0000E94821361E08CE00E949B13CE018F5138
:1015D0009F4F0E94EC1541E06DE088EE92E00E9482
:1015E0005E0A6AE070E080E090E00E94A11240E0B4
:1015F00063E3CE018F519F4F0E94BD1662E370E0FE
:1016000080E090E00E94A1124701CE018F519F4FD0
:101610000E949216F2E08F1A9108F40180831182E1
:1016200061E070E080E090E00E94A1128C149D04C3
:1016300061F7FE017196D701C60180599F4F219134
:1016400031912D933D93E817F907C9F731EE832EB9
:10165000912C8C0E9D1E81E090E0A0E0B0E0F401A2
:10166000329122914F012130310569F4F801408116
:10167000518162817381480F591F6A1F7B1F40830C
:10168000518362837383880F991FAA1FBB1F8E1417
:101690009F0429F7F80180819181A281B3818F3F56
:1016A0009F4FAF4FBF4F29F4F80110821182128271
:1016B000138260E08CE00E949B1340E06CE088EEB7
:1016C00092E00E945E0A40E06DE088EE92E00E94A7
:1016D0005E0A0C5F1F4F0A151B0509F058CFC05159
:1016E000DF4F088119812A813B81C05FD040CC50F7
:1016F000DF4F88819981AA81BB81C45FD0400817E0
:1017000019072A073B0719F000E010E09801B8011B
:10171000C901C950DF4F0FB6F894DEBF0FBECDBF71
:10172000DF91CF911F910F91FF90EF90DF90CF90BD
:10173000BF90AF909F908F900895CF92DF92EF92DD
:10174000FF920E94A20A6B017C016115710581055F
:10175000910591F483EE90E00E948D1C6A302AE09E
:1017600072078207920741F06F3F2FEF72078207DF
:10177000920711F06B017C01B601C701FF90EF9059
:10178000DF90CF9008958FED90E00E94851C8F3FF1
:1017900009F480E00895CF93DF93EC0180E2E7E164
:1017A000F3E0DF01982F1D929A95E9F71092160346
:1017B00010921503E4EFF2E0DF011D928A95E9F73C
:1017C0001092F3021092F2020E94750D81E08E8356
:1017D00084E090E0DF91CF910C94CB1281E0809374
:1017E000F102609314031092F3021092F202089532
:1017F0000C94EE0B8091150390911603891B0895AC
:101800009091160380911503981748F4E92FF0E0A2
:10181000E95EFC4F80819F5F90931603089580E0FE
:101820000895CF93DF93EC010E94C10D1E82DF91DA
:10183000CF91089540918705509188056091890561
:1018400070918A054170FC01408340918705509159
:1018500088056091890570918A05769567955795F9
:101860004795417041838091870590918805A091AB
:101870008905B0918A0584FD49C0809187059091C2
:101880008805A0918905B0918A0585FD3FC08091AA
:10189000870590918805A0918905B0918A0586FDFC
:1018A00035C08091870590918805A0918905B091F8
:1018B0008A0587FD2BC08091870590918805A091AE
:1018C0008905B0918A0590FD21C08091870590918E
:1018D0008805A0918905B0918A0591FD17C0809176
:1018E000870590918805A0918905B0918A0593FD9F
:1018F0000DC0089540E060E089EC93E00E942A1753
:1019000040E061E089EC93E00C942A178091F002AA
:10191000882381F30895CF93DF93EC0180918705AD
:1019200090918805A0918905B0918A0584FD58C0E1
:101930008091870590918805A0918905B0918A05CD
:1019400085FD4EC08091870590918805A0918905FD
:10195000B0918A0586FD44C08091870590918805E5
:10196000A0918905B0918A0587FD3AC080918705CD
:1019700090918805A0918905B0918A0590FD30C0AD
:1019800040918705509188056091890570918A057D
:1019900051FD26C0409187055091880560918905C9
:1019A00070918A0553FD1CC020C041E060E089ECC5
:1019B00093E00E942A170CC08981811106C041E082
:1019C00060E089EC93E00E942A17888181110DC0A4
:1019D00041E061E089EC93E0DF91CF910C942A170C
:1019E0008091F0028111E8CFE0CFDF91CF9108958F
:1019F000CF93DF931F92CDB7DEB769838091F10259
:101A0000882389F08091F2028032D0F48091F30231
:101A1000E82FF0E0EC50FD4F60838F5F8093F3027E
:101A20008093F2020DC089EE92E00E941A0C61E0F0
:101A3000CE0101960E94A20D89EE92E00E948B0CCD
:101A40000F90DF91CF9108950C94F80CCF9389EE0D
:101A500092E00E941A0C21E04091F20264EF72E0E1
:101A6000809114030E94650EC82F1092F302109209
:101A7000F2021092F10289EE92E00E948B0C8C2F00
:101A8000CF910895CF93DF93D62FC42F89EE92E0A4
:101A90000E941A0CC13208F0C0E24C2F67E173E0DB
:101AA0008D2F0E94CA0ED82F10921603C0931503D3
:101AB00089EE92E00E948B0C8D2FDF91CF910895DB
:101AC0000C94420D1092F0021092E9021092EA0278
:101AD0008AEF90E0A0E0B0E08093EB029093EC02FC
:101AE000A093ED02B093EE02089510924003E4E655
:101AF000F0E080818F778083589A599AE9EBF0E083
:101B000080818E7F808380818D7F808381E480933C
:101B1000B80085E48093BC0080E2E1E4F3E0DF01FB
:101B2000982F1D929A95E9F7E1E6F3E0DF01982FEF
:101B30001D929A95E9F7E1E8F3E0DF011D928A959D
:101B4000E9F70895613298F420914003243089F434
:101B500060933D03FC0181E693E0DC0102C021912A
:101B60002D932A2F281B2617D0F380E0089581E0BB
:101B7000089582E0089585EC8093BC0010924003A4
:101B80000895589859988091B90081608093B90060
:101B90008091B90082608093B9008091BC00806818
:101BA0008093BC008091BC0080618093BC008091D8
:101BB000BC008F7B8093BC008091BC008F7D8093A4
:101BC000BC008091BC00877F8093BC00809187051A
:101BD00090918805A0918905B0918A0586FD14C071
:101BE0008091870590918805A0918905B0918A051B
:101BF00090FD0AC08091870590918805A091890584
:101C0000B0918A0593FF04C08091BC008B7F03C014
:101C10008091BC0084608093BC008091BC008E7F6A
:101C20008093BC0080916400806880936400089574
:101C3000882349F010923703109238031092390329
:101C400010923A0313C08091370390913803A0910A
:101C50003903B0913A030196A11DB11D809337035A
:101C600090933803A0933903B0933A0380913703DC
:101C700090913803A0913903B0913A03803A964885
:101C8000A140B10560F01092370310923803109212
:101C9000390310923A030E94750D81E0089580E0A7
:101CA000089585ED8093BC0081E00E94180E08C065
:101CB00080E00E94180E882319F0109240030895C6
:101CC0008091BC0084FDF4CFF8CFFF920F931F9357
:101CD000CF93DF93182F062FF72EC42FD22F81E03A
:101CE000413208F051C00E94180E15C080E00E94D9
:101CF000180E882381F082E0809340038FEF809359
:101D00003B0310923F03C093A103E02FFF2D61E43A
:101D100073E0DB0107C0809140038111E7CFEBCF77
:101D200081918D938A2F861B8C17D0F3812F90E0A1
:101D3000880F991F8093A20385EE8093BC0081E0F9
:101D40000E94180ED11105C080913B038F3F59F4BA
:101D500014C0809140038230B9F780E00E94180ED1
:101D600081110DC0F6CF80913B03803251F08091FC
:101D70003B03803341F483E007C080E005C085E089
:101D800003C082E001C084E0DF91CF911F910F91E9
:101D9000FF9008950F931F93CF93DF93082FD62FB3
:101DA000172FC42F81E04132E0F50E94180E1DC0AC
:101DB00080E00E94180E8823C1F081E080934003E8
:101DC0008FEF80933B0310923F03C093A103802FBA
:101DD00090E0880F991F81608093A20385EE809325
:101DE000BC0081E00E94180E10C080914003811158
:101DF000DFCFE3CF80E00E94180E882331F081E42A
:101E000093E0ED2FF12FDC0107C08091400381307A
:101E100089F3F5CF2D9121932A2F281B2C17D0F36E
:101E200080E0DF91CF911F910F9108951F920F9243
:101E30000FB60F9211240BB60F922F933F934F932F
:101E40005F936F937F938F939F93AF93BF93CF9342
:101E5000EF93FF93C091B900C87FC03609F49FC0CB
:101E600058F5C83209F45BC090F4C03109F452C08F
:101E700038F4CC2309F4F2C0C83009F0F3C04AC0EA
:101E8000C83109F44CC0C03209F0ECC05DC0C034A8
:101E900009F473C038F4C03309F45BC0C83309F0E7
:101EA000E1C05AC0C03509F45CC0C83509F46AC045
:101EB000C83409F0D7C0D4C0C83909F4C5C0A8F4E3
:101EC000C83709F46CC038F4C83609F468C0C037A4
:101ED00009F0C8C064C0C83809F4B6C0C03909F4F4
:101EE00064C0C03809F0BEC060C0C03B09F484C003
:101EF00038F4C03A09F46BC0C83A09F0B3C07CC0EA
:101F0000C03C09F4A5C0C83C09F4A2C0C83B09F014
:101F1000A9C087C08091A2038093BB0013C0909199
:101F20003F038091A103981708F09AC080913F0366
:101F3000E82FF0E0EF5BFC4F90819093BB008F5F48
:101F400080933F0385EC81C00E94510EC0933B03F8
:101F500089C0C0933B0384C0C0933B030E94BB0D68
:101F600081C080913F039091BB00E82FF0E0EF5BD0
:101F7000FC4F90838F5F80933F0390913F0380914C
:101F8000A1035FC080913F039091BB00E82FF0E078
:101F9000EF5BFC4F90838F5F80933F0361C083E0D2
:101FA0008093400310923C03CDCF80913C0380325C
:101FB00008F04AC080913C039091BB00E82FF0E00C
:101FC000EF57FC4F90838F5F80933C03BBCF809192
:101FD0003C03803230F4E0913C03F0E0EF57FC4FDB
:101FE000108260913C03E091A303F091A40370E0A0
:101FF00081E893E009952CC084E08093400310921F
:102000003E0310923D03E091A503F091A6030995CC
:1020100080913D03811105C081E080933D031092C2
:10202000610380913E03E82FF0E0EF59FC4F90816F
:102030009093BB008F5F80933E0390913E0380910D
:102040003D03981708F47ECF85E88093BC000AC052
:1020500085EC8093BC001092400304C010923B03B7
:102060000E94510EFF91EF91CF91BF91AF919F913F
:102070008F917F916F915F914F913F912F910F9031
:102080000BBE0F900FBE0F901F9018951F920F92CE
:102090000FB60F9211240BB60F922F933F934F93CD
:1020A0005F936F937F938F939F93AF93BF93EF93C0
:1020B000FF938091A7039091A803892B29F0E091C9
:1020C000A703F091A8030995FF91EF91BF91AF91FC
:1020D0009F918F917F916F915F914F913F912F9140
:1020E0000F900BBE0F900FBE0F901F9018951F9270
:1020F0000F920FB60F9211240BB60F922F933F93AE
:102100004F935F936F937F938F939F93AF93BF93FF
:10211000EF93FF938091A9039091AA03892B29F053
:10212000E091A903F091AA030995FF91EF91BF9166
:10213000AF919F918F917F916F915F914F913F915F
:102140002F910F900BBE0F900FBE0F901F90189500
:102150001F920F920FB60F9211240BB60F922F936E
:102160003F934F935F936F937F938F939F93AF931F
:10217000BF93EF93FF938091AB039091AC03892BB6
:1021800029F0E091AB03F091AC030995FF91EF9139
:10219000BF91AF919F918F917F916F915F914F917F
:1021A0003F912F910F900BBE0F900FBE0F901F907D
:1021B00018951F920F920FB60F9211240BB60F9223
:1021C0002F933F934F935F936F937F938F939F933F
:1021D000AF93BF93EF93FF938091AD039091AE03C4
:1021E000892B29F0E091AD03F091AE030995FF91A1
:1021F000EF91BF91AF919F918F917F916F915F917F
:102200004F913F912F910F900BBE0F900FBE0F90EB
:102210001F9018951F920F920FB60F9211240BB6B4
:102220000F922F933F934F935F936F937F938F936F
:102230009F93AF93BF93EF93FF938091AF039091E0
:10224000B003892B29F0E091AF03F091B003099519
:10225000FF91EF91BF91AF919F918F917F916F917E
:102260005F914F913F912F910F900BBE0F900FBE3A
:102270000F901F9018951F920F920FB60F92112476
:102280000BB60F922F933F934F935F936F937F9370
:102290008F939F93AF93BF93EF93FF938091B1037D
:1022A0009091B203892B29F0E091B103F091B20330
:1022B0000995FF91EF91BF91AF919F918F917F9180
:1022C0006F915F914F913F912F910F900BBE0F90A7
:1022D0000FBE0F901F9018951F920F920FB60F927E
:1022E00011240BB60F922F933F934F935F936F93ED
:1022F0007F938F939F93AF93BF93EF93FF938091BF
:10230000B3039091B403892B29F0E091B303F091CA
:10231000B4030995FF91EF91BF91AF919F918F9178
:102320007F916F915F914F913F912F910F900BBED5
:102330000F900FBE0F901F9018951F920F920FB61F
:102340000F9211240BB60F922F933F934F935F93ED
:102350006F937F938F939F93AF93BF93EF93FF936D
:102360008091B5039091B603892B29F0E091B503D4
:10237000F091B6030995FF91EF91BF91AF919F91B5
:102380008F917F916F915F914F913F912F910F901E
:102390000BBE0F900FBE0F901F9018951F920F92BB
:1023A0000FB60F9211240BB60F922F933F934F93BA
:1023B0005F936F937F938F939F93AF93BF93EF93AD
:1023C000FF93F89481E080930E02E0E6F0E08081D4
:1023D0008068808380818F7B808360E083E00E94BF
:1023E0009B137894FF91EF91BF91AF919F918F9143
:1023F0007F916F915F914F913F912F910F900BBE05
:102400000F900FBE0F901F9018951F920F920FB64E
:102410000F9211248F939F93AF93BF93809199054F
:1024200090919A05A0919B05B0919C050196A11DE4
:10243000B11D8093990590939A05A0939B05B09345
:102440009C05BF91AF919F918F910F900FBE0F9000
:102450001F9018951F920F920FB60F9211248F9311
:102460009F93AF93BF9380919D0590919E05A091FE
:102470009F05B091A0050196A11DB11D80939D05FA
:1024800090939E05A0939F05B093A005BF91AF9137
:102490009F918F910F900FBE0F901F9018958F9264
:1024A0009F92AF92BF92CF92DF92EF92FF920F93E3
:1024B0001F93CF93DF932FB7F89480919905909154
:1024C0009A05A0919B05B0919C052FBF9C01AD0181
:1024D00060E070E080E090E001E00E94B619490100
:1024E000D42FC52FB62FA72FF82FE92F02E00E9477
:1024F000B61959016A017B018C0194014D2F5C2FA3
:102500006B2F7A2F8F2F9E2F0E94C519E9E0AE2ED8
:10251000B12CC12CD12CE12CF12C00E010E00E9458
:102520005919952FB901842FDF91CF911F910F91E8
:10253000FF90EF90DF90CF90BF90AF909F908F90E3
:1025400008958F929F92AF92BF92CF92DF92EF92B7
:10255000FF924B015C0107C00E944F126C157D0574
:102560008E059F0520F40E944F126B017C010E9492
:102570004F126C197D098E099F09681579058A0526
:102580009B0550F3FF90EF90DF90CF90BF90AF90FE
:102590009F908F900895BC01049768F080E090E0D0
:1025A0000E94E11726E636E646EE5FE30E946F18CA
:1025B0000E94B51702C0660F771F6150710961F064
:1025C0006150710949F0FB01EE0FFF1F31978FB782
:1025D000F8943197F1F78FBF0895789484B7877F87
:1025E00084BF1092990510929A0510929B05109243
:1025F0009C0584B5826084BD84B5816084BD85B549
:10260000826085BD85B5816085BDEEE6F0E08081A4
:1026100081608083E1E8F0E0808182608083808156
:1026200081608083E0E8F0E0808181608083E1EB7D
:10263000F0E0808184608083E1E9F0E08081846063
:102640008083E0EBF0E0808181608083E0E9F0E06E
:10265000808181608083E4E6F0E080818E7F8083EA
:10266000ECE7F0E080818F778083808180648083D5
:10267000EAE7F0E0808184608083808182608083EB
:102680008081806880831092C1001092C9000895F3
:102690009091B703982B9093B70380FF32C080913D
:1026A00064008E7F8093640080917C008F7780939C
:1026B0007C0080917C00806480937C0080917A0013
:1026C000846080937A0080917A00826080937A009F
:1026D00080917A00806880937A00809164008F777F
:1026E00080936400809164008B7F8093640080916C
:1026F00064008D7F80936400809165008E7F80935D
:102700006500089590E0FC01E45FFC4F2491FC011A
:10271000E15CFC4FE491EE2369F0F0E0EE57FC4FF2
:10272000A491B0E08C91611103C02095822301C077
:10273000822B8C93089590E0FC01E752FD4F249189
:10274000FC01E45FFC4F3491FC01E15CFC4F84919F
:102750008823B1F1222331F1233021F490918000BC
:102760009F7705C0243031F4909180009F7D909335
:10277000800018C0213019F494B59F7704C022302E
:1027800021F494B59F7D94BD0DC0263021F4909125
:10279000B0009F7705C0273029F49091B0009F7D4D
:1027A0009093B000E82FF0E0E658FC4FA491B0E021
:1027B0008C91611103C03095832301C0832B8C93CE
:1027C000089590E0FC01E752FD4F2491FC01E45F85
:1027D000FC4F3491FC01E15CFC4F8491882399F11A
:1027E000222331F1233021F4909180009F7705C09E
:1027F000243031F4909180009F7D9093800018C028
:10280000213019F494B59F7704C0223021F494B597
:102810009F7D94BD0DC0263021F49091B0009F772C
:1028200005C0273029F49091B0009F7D9093B000AF
:10283000E82FF0E0EE58FC4FE491F0E08081832334
:1028400021E030E011F420E030E0C9010895CF929A
:10285000DF92EF92FF926B017C01411134C088E05E
:102860000E944813C701B60122E030E040E050E08A
:102870000E943B19305F414F5F4FCA01B901A70168
:1028800096010E943B19DA01C9010197A109B1091A
:10289000892F9A2FAB2FBB27A7FDBA958093C50030
:1028A00021502093C4008091C10080618093C100B9
:1028B0008091C10088608093C1008091C1008068D0
:1028C0008093C10033C080E10E944813C701B60164
:1028D00022E030E040E050E00E943B19305F414F81
:1028E0005F4FCA01B901A70196010E943B19DA01A5
:1028F000C9010197A109B109892F9A2FAB2FBB27D5
:10290000A7FDBA958093CD0021502093CC008091F3
:10291000C90080618093C9008091C900886080935C
:10292000C9008091C90080688093C900FF90EF9032
:10293000DF90CF900895611107C09091C00095FF7E
:10294000FCCF8093C60008959091C80095FFFCCFFE
:102950008093CE0008951F920F920FB60F9211240C
:102960002F933F934F935F936F937F938F939F9397
:10297000AF93BF93EF93E091C6002091BE033091D7
:10298000BF03C901019660E072E00E940519409101
:10299000BC035091BD038417950741F0D901AF5591
:1029A000B84FEC939093BF038093BE03EF91BF9118
:1029B000AF919F918F917F916F915F914F913F91D7
:1029C0002F910F900FBE0F901F9018951F920F928E
:1029D0000FB60F9211242F933F934F935F936F93F2
:1029E0007F938F939F93AF93BF93EF93E091CE002C
:1029F0002091BA033091BB03C901019660E072E0F7
:102A00000E9405194091B8035091B90384179507A6
:102A100041F0D901AF55BA4FEC939093BB0380932B
:102A2000BA03EF91BF91AF919F918F917F916F9179
:102A30005F914F913F912F910F900FBE0F901F907C
:102A400018950C949B14CF93C82F682F8DE00E948B
:102A50009B146C2F8AE0CF910C949B144F925F9241
:102A60006F927F928F929F92AF92BF92CF92DF929E
:102A7000EF92FF920F93CF93DF93CDB7DEB7A0977E
:102A80000FB6F894DEBF0FBECDBF29013A01611524
:102A9000710581059105C9F4602F80E3A0960FB6FA
:102AA000F894DEBF0FBECDBFDF91CF910F91FF90A5
:102AB000EF90DF90CF90BF90AF909F908F907F90DE
:102AC0006F905F904F900C949B14EE24E394F12C44
:102AD000EC0EFD1E812C912C5401A30192010E9449
:102AE0001919F70161937F01FFEF8F1A9F0AAF0A4F
:102AF000BF0AB901CA01611571058105910569F720
:102B0000CC24CA94DC2C7601C80CD91CEA1CFB1C12
:102B100014C0E1E0F0E0EC0FFD1FEC0DFD1D808125
:102B20008A3010F4805D01C0895C602F0E949B1484
:102B300081E0C81AD108E108F108EFEFCE16DE06F1
:102B4000EE06FE0631F7A0960FB6F894DEBF0FBE74
:102B5000CDBFDF91CF910F91FF90EF90DF90CF909D
:102B6000BF90AF909F908F907F906F905F904F90AD
:102B70000895CF92DF92EF92FF920F936B017C0149
:102B8000042F97FF0CC0642F8DE20E949B14F094D9
:102B9000E094D094C094C11CD11CE11CF11C2AE02B
:102BA00030E040E050E0C701B6010E942E150F91C1
:102BB000FF90EF90DF90CF9008951092C50382E0D0
:102BC0008093C1038CE18093C60380EC91E09093E5
:102BD000C8038093C7030895CF92DF92EF92FF92CC
:102BE0001F93CF93DF93EC0160E08E850E948213E8
:102BF0000E944F126B017C011EE7115089F182E0A7
:102C000090E00E94CB120E944F126C157D058E053C
:102C10009F0520F40E944F126B017C018E850E945B
:102C2000E113892BF9F40E944F126C197D098E096A
:102C30009F09643F714081059105F8F213C00E941D
:102C40004F126B017C011130C1F10E944F126C19BF
:102C50007D098E099F09643F714081059105D0F07F
:102C600010E02BC061E08E850E94821360E08E85AB
:102C70000E949B1384E591E00E94CB120E944F12A8
:102C80006B017C018E850E94E11311E0892BD9F242
:102C900010E0D9CF8E850E94E11311E0892B09F055
:102CA00010E089E090E00E94CB120E944F126C1558
:102CB0007D058E059F0538F6C2CF812FDF91CF911C
:102CC0001F91FF90EF90DF90CF9008951F93CF93C7
:102CD000DF93FC011081C181D281912F9095F894EE
:102CE0008A8189238A838981812B898360FF0BC034
:102CF00089E090E00E94CB128A81812B8A837894AC
:102D00008FE290E00AC087E390E00E94CB128A81B4
:102D1000812B8A83789485E090E0DF91CF911F9199
:102D20000C94CB120F931F93CF93DF93FC01108170
:102D3000C181D281F8948981812B89838A81012F75
:102D4000009580238A8382E090E00E94CB128981E3
:102D50008023898387E090E00E94CB12C881789419
:102D60008DE290E00E94CB121C2381E009F480E008
:102D7000DF91CF911F910F910895CF92DF92EF9243
:102D8000FF920F931F93CF93DF931F92CDB7DEB7C0
:102D90006C01E62E08E010E0FF24F3949F2D9E21A5
:102DA00061E009F460E0C60149830E946616FF0CE9
:102DB0000150110949810115110581F7411115C013
:102DC000F894D6011196ED91FC91129791818C9116
:102DD0008095892381831196ED91FC9112979281C0
:102DE0008C9180958923828378940F90DF91CF9185
:102DF0001F910F91FF90EF90DF90CF900895FC010D
:102E000013861586148612861186108617821682FE
:102E10001582148213820895CF93DF93EC01862FDD
:102E20006E8760E00E9482138E8590E0FC01E45F73
:102E3000FC4FE491E883FC01E15CFC4FE491F0E09D
:102E4000EE58FC4FE491E9831A82CE01DF91CF91D5
:102E50000C94FF161F93CF93DF931F92CDB7DEB76D
:102E6000162F61E08AE149830E94821361E088E1C4
:102E70000E9482134981112321F0113009F048C0CA
:102E800020C041110EC061E08AE10E949B13809135
:102E9000870590918805A0918905B0918A05826087
:102EA0002FC04130A9F560E08AE10E949B13809118
:102EB000870590918805A0918905B0918A058D7F3D
:102EC0001FC041110EC061E088E10E949B138091F8
:102ED000870590918805A0918905B0918A05816048
:102EE0000FC04130A9F460E088E10E949B138091FB
:102EF000870590918805A0918905B0918A058E7FFC
:102F00008093870590938805A0938905B0938A05DF
:102F10000F90DF91CF911F91089561E089E20E94A7
:102F2000821361E088E20E94821389EE92E00C94A1
:102F3000110CFC01128A118E138EDC01A356BE4FB8
:102F400089E111968C93119714961C92DF01AE556E
:102F5000BE4F1C9212961C92E956FE4F11821082AF
:102F600008958BEC93E00C94991798D088F09F57B4
:102F700090F0B92F9927B751A0F0D1F0660F771FC5
:102F8000881F991F1AF0BA95C9F712C0B13081F0A5
:102F90009FD0B1E008959CC0672F782F8827B85F35
:102FA00039F0B93FCCF3869577956795B395D9F706
:102FB0003EF490958095709561957F4F8F4F9F4F10
:102FC0000895E89409C097FB3EF49095809570951C
:102FD00061957F4F8F4F9F4F9923A9F0F92F96E965
:102FE000BB279395F695879577956795B795F111DA
:102FF000F8CFFAF4BB0F11F460FF1BC06F5F7F4F77
:103000008F4F9F4F16C0882311F096E911C0772388
:1030100021F09EE8872F762F05C0662371F096E891
:10302000862F70E060E02AF09A95660F771F881F60
:10303000DAF7880F9695879597F9089597F99F671E
:1030400080E870E060E008959FEF80EC0895002430
:103050000A941616170618060906089500240A94FD
:1030600012161306140605060895092E0394000C83
:1030700011F4882352F0BB0F40F4BF2B11F460FF12
:1030800004C06F5F7F4F8F4F9F4F089557FD90583B
:10309000440F551F59F05F3F71F04795880F97FB1C
:1030A000991F61F09F3F79F08795089512161306D6
:1030B0001406551FF2CF4695F1DF08C01616170605
:1030C0001806991FF1CF869571056105089408953A
:1030D000E894BB2766277727CB0197F908950BD093
:1030E000C4CFB5DF28F0BADF18F0952309F0A6CFDA
:1030F000ABCF1124EECFCADFA0F3959FD1F3950F8C
:1031000050E0551F629FF001729FBB27F00DB11D6B
:10311000639FAA27F00DB11DAA1F649F6627B00DFB
:10312000A11D661F829F2227B00DA11D621F739FE4
:10313000B00DA11D621F839FA00D611D221F749FF2
:103140003327A00D611D231F849F600D211D822F39
:10315000762F6A2F11249F5750408AF0E1F0882380
:103160004AF0EE0FFF1FBB1F661F771F881F91508D
:103170005040A9F79E3F510570F060CFAACF5F3F46
:10318000ECF3983EDCF3869577956795B795F795C0
:10319000E7959F5FC1F7FE2B880F911D9695879548
:1031A00097F90895A29FB001B39FC001A39F01D0DA
:1031B000B29F700D811D1124911D08950E94D21897
:1031C000A59F900DB49F900DA49F800D911D11247B
:1031D0000895B7FF0C94DE180E94DE18821B930B33
:1031E0000895AA1BBB1B51E107C0AA1FBB1FA6174E
:1031F000B70710F0A61BB70B881F991F5A95A9F7A0
:1032000080959095BC01CD01089597FB072E16F48B
:10321000009407D077FD09D00E94F11807FC05D073
:103220003EF4909581959F4F0895709561957F4FDD
:103230000895A1E21A2EAA1BBB1BFD010DC0AA1FF7
:10324000BB1FEE1FFF1FA217B307E407F50720F00F
:10325000A21BB30BE40BF50B661F771F881F991F8A
:103260001A9469F760957095809590959B01AC01D3
:10327000BD01CF010895052E97FB16F4009407D0E9
:1032800057FD0DD00E94191907FC09D07EF49095C6
:103290008095709561957F4F8F4F9F4F0895509502
:1032A0004095309521953F4F4F4F5F4F089568945B
:1032B00001C0E8948F929F92CF93DF930E9465198B
:1032C000DF91CF919F908F90089588249924F401E5
:1032D000E401B0E49F93AA279A158B049C04ED05A2
:1032E000FE05CF05D007A10798F4AD2FDC2FCF2F17
:1032F000FE2FE92D982C892E982F872F762F652F5A
:10330000542F432F322F2227B85031F7BF9127C0B7
:103310001B2EBF91BB27220F331F441F551F661F53
:10332000771F881F991F881C991CEE1FFF1FCC1F39
:10333000DD1FAA1FBB1F8A149B04EC05FD05CE05EB
:10334000DF05A007B10748F08A189B08EC09FD09C2
:10335000CE09DF09A00BB10B21601A94E1F62EF41F
:103360009401AF01BE01CD01000C08950F930F73BE
:1033700051F0220F331F441F551F661F771F881FF0
:10338000991F0A95B1F70F9108952A0D3B1D4C1D09
:103390005D1D6E1D7F1D801F911F08950790F69182
:1033A000E02D09948F929F92AF92BF92CF92DF92BD
:1033B000EF92FF92CF93DF93EC01688179818A814C
:1033C0009B81611571058105910521F464E279ED18
:1033D0008BE597E02DE133EF41E050E00E943B198F
:1033E00049015A019B01AC01A7EAB1E40E94DE1831
:1033F0006B017C01ACEEB4EFA50194010E94EC18C6
:10340000C60ED71EE81EF91EF7FE06C081E0C81AD8
:10341000D108E10880E8F80AC882D982EA82FB82F2
:10342000E894D7F8EE24FF24C601DF91CF91FF90F6
:10343000EF90DF90CF90BF90AF909F908F900895C6
:103440000C94D21986E092E00C94D219A0E0B0E07E
:103450008093060290930702A0930802B09309029A
:103460000895FB01DC0105900D920020E1F708951D
:10347000FB01DC010D900020E9F7119701900D92FE
:103480000020E1F708950F931F93CF93DF93CDB7FB
:10349000DEB72E970FB6F894DEBF0FBECDBF0D89F5
:1034A0001E898F89988D26E02C831A83098397FFC4
:1034B00002C080E090E801979E838D83CE014B96F9
:1034C000AC01698D7A8DCE0101960E94801A4D81E2
:1034D0005E8157FD0AC02F813885421753070CF4CF
:1034E0009A01F801E20FF31F10822E960FB6F8949E
:1034F000DEBF0FBECDBFDF91CF911F910F91089519
:103500002F923F924F925F926F927F928F929F92F3
:10351000AF92BF92CF92DF92EF92FF920F931F93E1
:10352000CF93DF93CDB7DEB72C970FB6F894DEBFFD
:103530000FBECDBF7C016B018A01FC011782168290
:10354000838181FFC6C188248394912C8C0E9D1E9B
:10355000F7019381F60193FD859193FF81916F01AE
:10356000882309F4B2C1853239F493FD859193FF24
:1035700081916F01853229F4B70190E00E94B71C58
:10358000E7CF512C312C20E02032A8F48B3261F0AF
:1035900028F4803251F0833271F40BC08D3239F04F
:1035A000803349F4216028C02260246025C028604F
:1035B00023C0206121C027FD27C0382F30533A3067
:1035C00078F426FF06C0FAE05F9E300D1124532EDA
:1035D00013C08AE0389E300D1124332E20620CC0B7
:1035E0008E3221F426FD71C1206406C08C3611F4A0
:1035F000206802C0883641F4F60193FD859193FF5F
:1036000081916F018111C0CF982F9554933018F09C
:103610009052933028F40C5F1F4FFFE3F9830DC0E5
:10362000833631F0833771F0833509F05EC023C0F3
:10363000F801808189830E5F1F4F44244394512CED
:10364000540115C03801F2E06F0E711CF801A08022
:10365000B18026FF03C0652D70E002C06FEF7FEFE1
:10366000C5012C870E94AC1C2C0183012C856FE7BF
:10367000262E222218C03801F2E06F0E711CF801CC
:10368000A080B18026FF03C0652D70E002C06FEFFF
:103690007FEFC5012C870E94A11C2C012C8550E8CE
:1036A000252E222A830123FC1CC006C0B70180E21C
:1036B00090E00E94B71C3A94832D90E0481659067A
:1036C000A8F30FC0F50127FC859127FE81915F01CA
:1036D000B70190E00E94B71C31103A94F1E04F1A04
:1036E00051084114510471F7EDC0843611F0893648
:1036F00041F5F80127FF07C06081718182819381C4
:103700000C5F1F4F08C060817181882777FD80950D
:10371000982F0E5F1F4F4FE6B42EB22297FF09C0BD
:1037200090958095709561957F4F8F4F9F4FF0E8F2
:10373000BF2A2AE030E0A4010E94E31CA82EA818AA
:1037400043C0853731F43FEEB32EB2222AE030E099
:1037500024C099EFB92EB2228F36B9F020F4883503
:1037600009F0B3C00DC0803721F0883709F0ADC033
:1037700002C020E1B22AB4FE0BC084E0B82A08C01F
:1037800024FF09C0E6E0BE2A06C028E030E005C0FC
:1037900020E130E002C020E132E0F801B7FE07C0CE
:1037A00060817181828193810C5F1F4F06C06081AF
:1037B000718180E090E00E5F1F4FA4010E94E31C26
:1037C000A82EA818FFE7BF22B6FE0BC02B2D2E7F18
:1037D000A51450F4B4FE0AC0B2FC08C02B2D2E7EF6
:1037E00005C07A2C2B2D03C07A2C01C0752C24FF28
:1037F0000DC0FE01EA0DF11D8081803311F4297E98
:1038000009C022FF06C07394739404C0822F867887
:1038100009F0739423FD14C020FF0FC05A2C7314B9
:1038200060F4530C5718732C08C0B70180E290E085
:103830002C870E94B71C73942C857314B0F304C0BA
:10384000731410F4371801C0312C24FF12C0B701D3
:1038500080E390E02C870E94B71C2C8522FF1EC0BD
:1038600021FF03C088E590E002C088E790E0B7013F
:103870000CC0822F867891F021FD02C080E201C049
:103880008BE227FD8DE2B70190E00E94B71C06C0D5
:10389000B70180E390E00E94B71C5A94A514C0F3CE
:1038A000AA94F401EA0DF11DB701808190E00E9415
:1038B000B71CA110F5CF06C0B70180E290E00E94CE
:1038C000B71C3A943110F8CF43CEF70126813781E7
:1038D00002C02FEF3FEFC9012C960FB6F894DEBF60
:1038E0000FBECDBFDF91CF911F910F91FF90EF9051
:1038F000DF90CF90BF90AF909F908F907F906F9010
:103900005F904F903F902F900895F999FECF92BD10
:1039100081BDF89A992780B50895A6E1B0E044E00A
:1039200050E00C94431D262FF999FECF1FBA92BD8B
:1039300081BD20BD0FB6F894FA9AF99A0FBE019690
:103940000895FC010590615070400110D8F78095F2
:1039500090958E0F9F1F0895FC016150704001905B
:103960000110D8F7809590958E0F9F1F08950F93A3
:103970001F93CF93DF938C01EB018B8181FD03C0FB
:103980000FEF1FEF1AC082FF0DC02E813F818C8187
:103990009D812817390764F4E881F9810193F9833F
:1039A000E88306C0E885F985802F0995892B41F7C2
:1039B0008E819F8101969F838E83C801DF91CF9175
:1039C0001F910F910895FA01AA27283051F1203153
:1039D00081F1E8946F936E7F6E5F7F4F8F4F9F4FA3
:1039E000AF4FB1E03ED0B4E03CD0670F781F891FE5
:1039F0009A1FA11D680F791F8A1F911DA11D6A0FB3
:103A0000711D811D911DA11D20D009F468943F9165
:103A10002AE0269F11243019305D3193DEF6CF0164
:103A20000895462F4770405D4193B3E00FD0C9F72A
:103A3000F6CF462F4F70405D4A3318F0495D31FD97
:103A40004052419302D0A9F7EACFB4E0A6959795EA
:103A5000879577956795BA95C9F7009761057105C0
:103A600008959B01AC010A2E06945795479537950A
:103A70002795BA95C9F7620F731F841F951FA01D64
:103A80000895DC01CB01FC01F999FECF06C0F2BD1F
:103A9000E1BDF89A319600B40D9241505040B8F70C
:063AA0000895F894FFCF29
:103AA6000000A109200001000000050000040153E8
:103AB600756E004D6F6E0054756500576564005451
:103AC6006875004672690053617400496E76616CD0
:103AD600696420474D542076616C7565003A3A3A20
:043AE6003A3A3A002E
:00000001FF
