:100000000C942B060C94D52E0C94062F0C94372FA1
:100010000C94682F0C94992F0C94CA2F0C94FB2FDE
:100020000C942C300C945A060C945A060C945A06D4
:100030000C9484310C945A060C945A060C94E031BA
:100040000C945A060C945A060C945A060C945A06B0
:100050000C945A060C945A060C945A060C94BB3114
:100060000C945A060C943B350C945A060C945A0680
:100070000C945A060C945A060C945A060C945A0680
:100080000C945A060C945A060C945A060C945A0670
:100090000C9476350C945A060C945A060C946B2CDE
:1000A0000C945A060C945A060C945A060C945A0650
:1000B0000C945A060C945A060C945A060C945A0640
:1000C0000C945A060C945A060C945A06076342364E
:1000D000B79BD8A71A39685618AEBAAB558C1D3CD9
:1000E000B7CC5763BD6DEDFD753EF6177231BF009D
:1000F0000000803F08000000BE922449123EABAAD7
:10010000AA2ABECDCCCC4C3E00000080BEABAAAA31
:10011000AA3E00000000BF000000803F0000000079
:1001200000084178D3BB4387D1133D190E3CC3BDB2
:100130004282AD2B3E68EC8276BED98FE1A93E4C5F
:1001400080EFFFBE01C4FF7F3F00000000005902A6
:1001500061026902710277027E02860290029A02AF
:10016000A302AC02B902C702CE02D602DF02E50248
:10017000EC02F502FC020603110319032003260317
:100180002B03310337033D0344034B0352035A034C
:1001900063036D0375037C03820388039003970355
:1001A0009E03B803C103C703CF03D603DD03E403F3
:1001B000EC03F303FC0302040804100417042104F5
:1001C0002C04320438043F04490451044E6574770A
:1001D0006F726B207374617475733A20005C0467EE
:1001E000047A04860493049F04AB04B704C304CFC9
:1001F00004DD04F10416053505470579058C0592E3
:10020000052A2A2A2A2A2A2A2A2A2A2A2A2A2A2A73
:100210002A2A2A2A2A0044616E67657221204C6FBF
:1002200077206261747465727921002A2A2A2A2A49
:100230002A2A2A2A2A2A2A2A2A2A2A2A2A2A2A0048
:1002400041504E3A20004C4F47494E3A2000504111
:100250005353574F52443A20002B4346554E3D319D
:10026000002B4346554E3D34002B4346554E3D3002
:10027000002B43504F46002B43434C4B3D002B4338
:10028000474154543F002B43474154543A203100D6
:100290002B43474154543A2030002B434741545498
:1002A0003D31002B43474154543D30002B434753CD
:1002B0004F434B434F4E543D002B43534F434B4111
:1002C0005554483D312C002B4350494E3D002B5393
:1002D000494D45493F002B53494D45493A20002B94
:1002E00043494D49002B465343443D002B4653435D
:1002F000443D2E2E002B465343443A002B46534197
:10030000545452493D002B465341545452493A20CB
:10031000002B465344454C3D002B46534D454D0064
:100320002B46534C53002B435351002B434F5053F8
:10033000002B434E4D50002B434E4250002B434E5A
:10034000414F50002B434E534450002B43505349D0
:100350003F002B435053493A20002B434E534D4FFF
:10036000443F002B434E534D4F443A20002B434310
:10037000494E464F002B435343484E002B435352A4
:1003800050002B43525553002B435255533A2000F3
:100390002B434E535653002B434E53564E004E653F
:1003A00074776F726B2073757276657920737461E0
:1003B000727465642E2E2E002B46534C4F43413DE4
:1003C000002B4950523D002B43534456433D002BD4
:1003D000434D55543D002B434D49433D002B434C69
:1003E000564C3D002B564D5554453D002B434C5625
:1003F0004C3D002B43545846494C45002B43474D38
:100400004D002B43474D52002B43474D523A20009D
:100410002B435245473F002B435245473A20302C4F
:10042000002B435245473A20302C35002B434C4992
:1004300050002B434D5449002B435057443D002B53
:1004400043525846494C453D002B43475245473F90
:10045000002B43475245473A20302C002B43485449
:1004600054504143543D002B43485454504143544D
:100470003A2052455155455354002B43485454504B
:100480004143543A20002B43485454505353544151
:100490005254002B43485454505353544F50002B44
:1004A0004348545450534F505345002B43485454E1
:1004B0005053434C5345002B4348545450535345D9
:1004C0004E44002B43485454505352454356002B3E
:1004D000434854545053524543563A20002B434806
:1004E000545450533A2052454356204556454E5495
:1004F00000474554202F676574706F73745F667290
:10050000616D655F7061727365722E7068703F66B1
:1005100072616D653D00504F5354202F67657470B4
:100520006F73745F6672616D655F7061727365721F
:100530002E7068700020485454502F312E310D0A0F
:10054000486F73743A20000D0A436F6E74656E74C1
:100550002D547970653A206170706C6963617469BB
:100560006F6E2F782D7777772D666F726D2D757280
:100570006C656E636F646564000D0A436F6E74652D
:100580006E742D4C656E6774683A2000300D0A0D4C
:100590000A000D0A0D0A6672616D653D00536574AF
:1005A00074696E67204368616E6E656C20746F09B4
:1005B000273137270909207374617465200053655A
:1005C0007474696E67204865616465722020746F79
:1005D00009273127200909207374617465200053AD
:1005E000657474696E67204D6F64652020202074E7
:1005F0006F0927332709092073746174652000533C
:10060000657474696E672043524320202020207453
:100610006F09273127200909207374617465200050
:1006200053657474696E67205061636B65742074E0
:100630006F20273139272E090920737461746520D2
:100640000053657474696E6720506F77657220205F
:1006500020746F09274C2720090920737461746581
:10066000200053657474696E67204944202020205F
:100670002020746F090009092073746174652000DB
:100680000909204C6F52613A646174615265717559
:10069000657374000909204C6F52613A73656E648A
:1006A000696E67205265717565737420746F206E72
:1006B0006F7465000909204C6F52613A20526571D0
:1006C000756573742073656E74000909204C6F5250
:1006D000613A2053454E442073746174650072651D
:1006E00063656976654461746100524543454956C6
:1006F0004520737461746500090909204C6F5261CB
:100700003A2053657474696E677320646F6E650078
:100710000909204C6F52613A2073656E6444656527
:1007200070536C65657020636F6D6D616E64000958
:100730000920204C6F52613A206465657020736C0B
:100740006565702073656E7400090920204C6F5236
:10075000613A206465657020536C65657020666140
:10076000696C65643A2000456E746572696E672035
:1007700033472053656E6444617461007475726E12
:100780006564203347206D6F64756C65206F6E0063
:1007900053657474696E672050494E20636F6465B9
:1007A0002E2E2E0050494E20636F646520616363D6
:1007B00065707465640050494E20636F64652069FC
:1007C0006E636F7272656374003347206D6F64757A
:1007D0006C6520636F6E6E656374656420746F2052
:1007E000746865206E6574776F726B2E2E2E0047CD
:1007F000657474696E672055524C2077697468205F
:10080000474554206D6574686F642E2E2E00446F2A
:100810006E65004661696C65642E204572726F7268
:1008200020636F64653A2000434D45206572726F06
:100830007220636F64653A20004661696C65642EBE
:10084000204572726F7220636F64653A20003347EF
:10085000206D6F64756C652063616E6E6F742063CC
:100860006F6E6E65637420746F20746865206E65AA
:1008700074776F726B2E2E2E003347206D6F647568
:100880006C65206E6F742073746172746564000906
:100890002D2D2D2D2D2D2D2D2D2D2D2D2D2D2D2D88
:1008A0002D2D2D2D2D2D2D2D2D2D2D2D2D2D2D2D78
:1008B0002D2D2D00092053686F77205374727563B6
:1008C000742066726F6D204E6F64653A0009204295
:1008D0006174746572794C6576656C3A2000092004
:1008E000657874656E73696F6E3A200009207069CF
:1008F000746368313A20000920726F6C6C313A20C1
:100900000009207069746368323A20000920726F10
:100910006C6C323A200009207069746368333A20A5
:10092000000920726F6C6C333A2000092074656DE9
:1009300070313A2000092074656D70323A20000948
:100940002074656D70333A2000092D2D2D2D2D2D2D
:100950002D2D2D2D2D2D2D2D2D2D2D2D2D2D2D2DC7
:100960002D2D2D2D2D2D2D2D2D2D2D2D2D00BF0976
:10097000D309F909200A400A580A660A760A8B0A3E
:10098000A10AB20ABE0AC50AE20A000B160B240B22
:10099000340B570B5D0B57726F6E672074696D6572
:1009A00020666F726D61742E204D757374206265C0
:1009B000202264643A68683A6D6D3A73732200418C
:1009C0006C61726D204D6F6465206D617463686544
:1009D0007320005B446179203A20686F7572732040
:1009E0003A206D696E75746573203A207365636F84
:1009F0006E64735D202D3E20005B44617465203A77
:100A000020686F757273203A206D696E7574657316
:100A1000203A207365636F6E64735D202D3E200065
:100A20005B486F757273203A206D696E75746573DB
:100A3000203A207365636F6E64735D202D3E200045
:100A40005B4D696E75746573203A207365636F6ED4
:100A500064735D202D3E20005B5365636F6E64738D
:100A60005D202D3E20004F6E6365207065722073FF
:100A700065636F6E6400496E636F727265637420A4
:100A8000616C61726D206D6F6465005B253032753D
:100A90003A253032753A253032753A253032755D57
:100AA000005B253032753A253032753A2530327583
:100AB0005D005B253032753A253032755D005B256F
:100AC0003032755D005B446179203A20686F757241
:100AD00073203A206D696E75746573205D202D3E1C
:100AE00020005B44617465203A20686F7572732042
:100AF0003A206D696E75746573205D202D3E20006F
:100B00005B486F757273203A206D696E75746573FA
:100B10005D202D3E20005B4D696E757465735D2010
:100B20002D3E20004F6E636520706572206D696EEA
:100B30007574650025732C20253032752F253032D1
:100B4000752F253032752C20253032753A253032FC
:100B5000753A25303275006572726F720025303239
:100B6000752563253032752563253032752563255B
:100B70003032752563253032752563253032752571
:100B800063253032750000000809000000000000F5
:100B90000000000000000000000000000000000055
:100BA0000000000000000000000000000000000045
:100BB00000000000000000000001020810102040AA
:100BC0008004081020400202040810204080010226
:100BD00080204004200101020408102001408040D0
:100BE00080010208040880041004020105050505BF
:100BF00003030303010101040403060606060606B7
:100C000006060104050105010302020202020201B7
:100C10000202050504040304040103040707070096
:100C2000202326292C2F32002225282B2E31340078
:100C30002124272A2D30336364696E6F70737578B1
:100C4000585B0000640666140223274344431145A1
:100C5000C346D9490C4C11241FBECFEFD1E2DEBFF1
:100C6000CDBF19E0A0E0B2E0E2E0F3EB00E00BBFA3
:100C700002C007900D92A034B107D9F717E1A0E4A4
:100C8000B9E001C01D92A038B107E1F71CE0C6E54C
:100C9000DCE000E006C022970109FE010BBF0E94C4
:100CA0002152C434D10780E00807A9F70E947D369D
:100CB0000C947F590C94000080E499E00C94BD27BB
:100CC00080E499E00C94362980E499E00C944A275A
:100CD000089561E082E00C94A43360E082E00C941B
:100CE000A43361E088E00C94A43360E088E00C94C5
:100CF000A433CF93DF93EC0161E082E00E948B3359
:100D000061E088E00E948B33CE010E946D06CE0127
:100D1000DF91CF910C947506CF93DF93EC010E9485
:100D200069066CE271E080E090E00E945732CE01EB
:100D3000DF91CF910C946D061F93CF93DF93EC015D
:100D400014E0CE010E948C066CEB72E080E090E033
:100D50000E9457321150A9F7DF91CF911F9108954A
:100D60001F93CF93DF93EC01603570F00E94710602
:100D700068E873E180E090E00E945732CE01DF9195
:100D8000CF911F910C94750615E06832A8F0CE0142
:100D90000E94710664EF71E080E090E00E9457329B
:100DA000CE010E94750664EF71E080E090E00E9441
:100DB0005732115061F714C0CE010E94710664E6EB
:100DC00070E080E090E00E945732CE010E947506EC
:100DD00064E873E080E090E00E945732115061F7C0
:100DE000DF91CF911F910895CF93DF93FC01E753DB
:100DF000FF4F21E02083FC01E553FF4F40E052EC20
:100E000061E070E04083518362837383FC01E653A9
:100E1000FF4F2083DC011C92FC01EA50FF4F10823F
:100E2000BC0163577F4F24E1EB01E22F1992EA9551
:100E3000E9F7AF55BF4FED01E22F1992EA95E9F7B7
:100E4000EC01CB54DF4FFE0111922A95E9F721E620
:100E500030E74EE6FB0120833183428325E0EDE05D
:100E6000F2E001900D922A95E1F728E0E3E1F2E04B
:100E7000DE0101900D922A95E1F7DF91CF9108955F
:100E80002F923F924F925F926F927F928F929F929A
:100E9000AF92BF92CF92DF92EF92FF920F931F9388
:100EA000CF93DF93CDB7DEB7C257D1090FB6F89411
:100EB000DEBF0FBECDBF1C01AA966FAFAA97AB963F
:100EC0007FAFAB97AC964FAFAC97AD965FAFAD979A
:100ED000AE962FAFAE97AF963FAFAF97E0960FAFFE
:100EE000E097E1961FAFE197C957DF4F088119815D
:100EF000C758D040FE01319684E6DF011D928A95E5
:100F0000E9F7AA96AFADAA97AB96BFADAB97FD0137
:100F100001900020E9F73197EA1BFB0BC757DF4F21
:100F200088819981C958D04002970CF4C1C2AC960F
:100F30008FADAC97AD969FADAD97DC010D900020C5
:100F4000E9F71197A81BB90BAE17BF072CF0EA17EA
:100F5000FB072CF03F0101C03D012F0102C02D0114
:100F60003F01C757DF4FA881B981C958D0401297B8
:100F7000D9F1AE96AFADAE97AF96BFADAF97FD01CD
:100F800001900020E9F73197EA1BFB0BE615F70506
:100F90000CF43F014E165F060CF42F01C757DF4FCC
:100FA000E881F981C958D0403397F1F0E096AFADB0
:100FB000E097E196BFADE197FD0101900020E9F7D0
:100FC0003197EA1BFB0BE615F7050CF43F014E16B3
:100FD0005F0654F42F0108C068EE73E080E090E0F3
:100FE0000E9457320150110910161106ACF3F1E0BE
:100FF000A696FFAFA697C10186539F4FA9969FAFB4
:101000008EAFA9978E010F5F1F4F44C20E94053219
:101010004B015C01A996AEADBFADA9978C910E9422
:10102000D234892B09F021C20E940532681979094E
:101030008A099B096C157D058E059F0508F43BC246
:1010400014C2A696BFADA697B13091F5A7961FAF73
:101050000EAFA79716C0A996EEADFFADA9978081F8
:101060000E94EE34A796AEADBFADA7978D93A7961D
:10107000BFAFAEAFA79764E170E080E090E00E9460
:101080005732A7968EAD9FADA797801B910B861503
:1010900097050CF3C757DF4FE881F981C958D04055
:1010A00032970CF464C0641475040CF45BC05FC028
:1010B000A696FFADA697A996AEADBFADA9978C91A8
:1010C000F23049F50E94D234892B09F193012F5F48
:1010D0003F4FA996EEADFFADA9978081E2962FAF65
:1010E000E297E3963FAFE3970E94EE34D801A60D56
:1010F000B71D8C9364E170E080E090E00E9457326D
:10110000E2962FADE297E3963FADE3973901641481
:1011100075046CF52FC00E94D234892B59F1DE0181
:101120001296F80102C08D918193CF01801B910B23
:1011300084159505C4F3A996EEADFFADA9978081FE
:101140000E94EE34920157FE02C020E030E0FE0122
:10115000E20FF31F808364E170E080E090E00E9482
:10116000573208C0F2E0A696FFAFA69703C0A69636
:101170001FAEA697AA966FADAA97AB967FADAB9719
:10118000C8010E94B952892B09F44CC06CE172E08D
:10119000AA968FADAA97AB969FADAB970E94A1522E
:1011A000009759F471018AECE80EF11CD7018C917B
:1011B0000E94EE348097D1F70DC068E272E0AA96E3
:1011C0008FADAA97AB969FADAB970E94A1520097A7
:1011D00049F326C0810109501F4FF8011182108286
:1011E000D7018C910E94EE343AE0D32E7101BAEC13
:1011F000EB0EF11C992787FD9095C097F80140816F
:101200005181D49E9001D59E300D1124820F931FE1
:1012100091838083D7018C910E94EE348D3051F7F9
:1012200081E058C1AC966FADAC97AD967FADAD97F0
:10123000C8010E94B952892B09F455C0C757DF4F26
:10124000E881F981C958D04032970CF44CC06CE168
:1012500072E0AC968FADAC97AD969FADAD970E9406
:10126000A152009759F47101FAECEF0EF11CD7016D
:101270008C910E94EE348097D1F70DC068E272E045
:10128000AC968FADAC97AD969FADAD970E94A15235
:10129000009749F326C0810109501F4FF8011182C0
:1012A0001082D7018C910E94EE342AE0D22E710177
:1012B000BAECEB0EF11C992787FD9095C097F801C9
:1012C00040815181D49E9001D59E300D1124820F12
:1012D000931F91838083D7018C910E94EE348D30CF
:1012E00051F782E0F7C0AE966FADAE97AF967FAD87
:1012F000AF97C8010E94B952892B09F455C0C7574E
:10130000DF4FE881F981C958D04033970CF44CC0C5
:101310006CE172E0AE968FADAE97AF969FADAF9792
:101320000E94A152009759F47101FAECEF0EF11CE2
:10133000D7018C910E94EE348097D1F70DC068E2FE
:1013400072E0AE968FADAE97AF969FADAF970E940D
:10135000A152009749F326C0810109501F4FF8019F
:1013600011821082D7018C910E94EE349AE0D92E1E
:101370007101BAECEB0EF11C992787FD9095C0978F
:10138000F80140815181D49E9001D59E300D1124E9
:10139000820F931F91838083D7018C910E94EE343A
:1013A0008D3051F783E096C0E0966FADE097E196FF
:1013B0007FADE197C8010E94B952892B09F455C04D
:1013C000C757DF4FE881F981C958D04034970CF4F2
:1013D0004CC06CE172E0E0968FADE097E1969FAD76
:1013E000E1970E94A152009759F47101FAECEF0EB7
:1013F000F11CD7018C910E94EE348097D1F70DC07B
:1014000068E272E0E0968FADE097E1969FADE197DC
:101410000E94A152009749F326C0810109501F4F35
:10142000F80111821082D7018C910E94EE34BAE04B
:10143000DB2E7101BAECEB0EF11C992787FD90951C
:10144000C097F80140815181D49E9001D59E300D06
:101450001124820F931F91838083D7018C910E9466
:10146000EE348D3051F784E035C0A996EEADFFAD76
:10147000A99780810E94D234892B09F0E2CD0E9485
:101480000532681579058A059B0520F40E9405320E
:101490004B015C010E940532681979098A099B0990
:1014A0006C157D058E059F0508F4B4CD80E012C053
:1014B0002F013F0199CD6AE070E080E090E00E944A
:1014C00057320E940532681579058A059B0508F098
:1014D000A1CD9CCDCE58DF4F0FB6F894DEBF0FBE26
:1014E000CDBFDF91CF911F910F91FF90EF90DF90D3
:1014F000CF90BF90AF909F908F907F906F905F90B4
:101500004F903F902F9008958F929F92AF92BF92ED
:10151000CF92DF92EF92FF920F931F931F92E1E021
:10152000EF931F921F9246015701680179018A01CA
:101530009A010E9440070F900F900F900F901F91FB
:101540000F91FF90EF90DF90CF90BF90AF909F9062
:101550008F9008958F929F92AF92BF92CF92DF9219
:10156000EF92FF920F931F93470158011F92E1E002
:10157000EF931F921F9269017A018B019B01AB01CE
:101580000E9440070F900F900F900F901F910F91A6
:10159000FF90EF90DF90CF90BF90AF909F908F9093
:1015A0000895CF92DF92EF92FF920F931F93CF9304
:1015B000DF93EC018C0106531F4FF801608184E337
:1015C00092E00E94BE35F80160818DE00E94B13545
:1015D000F80160818AE00E94B13568EC70E080E03B
:1015E00090E00E9457320E940532C12CD12C7B0121
:1015F0008C0128EE33E040E050E067E372E0CE017A
:101600000E94AA0A813011F4888301C01882DF91F8
:10161000CF911F910F91FF90EF90DF90CF900895A1
:101620002F923F924F925F926F927F928F929F92F2
:10163000AF92BF92CF92DF92EF92FF920F931F93E0
:10164000CF93DF9300D000D000D0CDB7DEB79E831C
:101650008D837A8369835C834B831901280135016B
:101660000E9405324B015C010D811E8106531F4F04
:10167000F80180810E94273504C0F80180810E9412
:10168000EE34F80180810E94D23418161906ACF3AA
:101690001CC0F801608184E392E00E94BE35F8012D
:1016A000608189819A810E94BE35F80160818BE159
:1016B00095E00E94BE35F1E06F1A71086AEF70E0A4
:1016C00080E090E00E94573204C00D811E810653D5
:1016D0001F4FF80180810E94D234892B99F01F920C
:1016E00083E08F931F921F9282019201A1016B816F
:1016F0007C818D819E810E9440070F900F900F90FA
:101700000F9010C00E940532681979098A099B0957
:101710006C157D058E059F0510F7161417040CF443
:10172000B8CFCCCF26960FB6F894DEBF0FBECDBF94
:10173000DF91CF911F910F91FF90EF90DF90CF90AD
:10174000BF90AF909F908F907F906F905F904F90E1
:101750003F902F9008952F923F924F925F926F92F9
:101760007F928F929F92AF92BF92CF92DF92EF9231
:10177000FF920F931F93CF93DF9300D000D000D040
:10178000CDB7DEB71C017A8369835C834B833E83CC
:101790002D83270138010E9405324B015C01810134
:1017A00006531F4FF80180810E9427351BC0F801A6
:1017B000608184E392E00E94BE35F80160818981F6
:1017C0009A810E94BE35F80160818BE195E00E940C
:1017D000BE35F1E0CF1AD1086AEF70E080E090E00A
:1017E0000E945732F80180810E94D234892B79F40B
:1017F0000E940532681979098A099B0964157505E3
:101800008605970520F41C141D048CF2E5CF1F9269
:1018100082E08F931F921F92730162010D811E81DE
:101820009801A8016B817C81C1010E9440070F9043
:101830000F900F900F9026960FB6F894DEBF0FBE54
:10184000CDBFDF91CF911F910F91FF90EF90DF906F
:10185000CF90BF90AF909F908F907F906F905F9050
:101860004F903F902F900895CF92DF92EF92FF928A
:101870000F931F93EAE0CE2ED12C10E1E12E17E258
:10188000F12E00E010E00E94AB0B1F910F91FF9032
:10189000EF90DF90CF900895CF92DF92EF92FF927A
:1018A0000F931F93CF93DF937C01E2E6F1E08591E4
:1018B0009491E7012196BC01CE010E9484528701D8
:1018C00007501F4FC70183579F4F9F938F93DF93FD
:1018D000CF938AE392E09F938F9382E08F931F923E
:1018E0001F930F930E94D352EDB7FEB73A960FB6EF
:1018F000F894FEBF0FBEEDBFA5E0CA2ED12C28E4A0
:1019000032E047E352E0B801C7010E94340CF1E035
:10191000CF1AD108813019F4CD2831F403C0C11495
:10192000D10469F78FEF5EC0670181EAC80ED11C50
:10193000F6018081E4E6F1E081111CC0859194916B
:10194000BC01CE010E948452DF93CF938EE492E0DB
:101950009F938F9382E08F931F921F930F930E9408
:10196000D352EDB7FEB738960FB6F894FEBF0FBE50
:10197000EDBF22C085919491BC01CE010E9484529A
:10198000DF92CF92C7018B549F4F9F938F93DF932A
:10199000CF9382E592E09F938F9382E08F931F9283
:1019A0001F930F930E94D352EDB7FEB73C960FB62C
:1019B000F894FEBF0FBEEDBFC5E0D0E02CE132E0F1
:1019C00047E352E0B801C7010E94340C813049F06E
:1019D0002197A1F7882309F4A5CF823011F481EF74
:1019E00001C081E0DF91CF911F910F91FF90EF90A7
:1019F000DF90CF9008952F923F924F925F926F9217
:101A00007F928F929F92AF92BF92CF92DF92EF928E
:101A1000FF920F931F93CF93DF931C016B01EA0199
:101A2000280139010E9405324B015C0181010653F6
:101A30001F4FF80180810E9427351AC0F80160818C
:101A400084E392E00E94BE35F8016081C6010E94E5
:101A5000BE35F80160818BE195E00E94BE35F1E072
:101A6000EF1AF1086AEF70E080E090E00E945732D0
:101A7000F80180810E94D234892B79F40E940532CA
:101A8000681979098A099B09641575058605970502
:101A900020F41E141F0494F2E5CF1F9281E08F936F
:101AA0001F921F92730162018E019E01AE01BE0161
:101AB000C1010E9440070F900F900F900F90DF918F
:101AC000CF911F910F91FF90EF90DF90CF90BF903B
:101AD000AF909F908F907F906F905F904F903F90CE
:101AE0002F900895EF92FF920F931F932AE0E22E1A
:101AF000F12C00E117E220E030E00E94FB0C1F9186
:101B00000F91FF90EF9008952F923F924F925F9226
:101B10006F927F928F929F92AF92BF92CF92DF92FD
:101B2000EF92FF920F931F93CF93DF93CDB7DEB762
:101B300028970FB6F894DEBF0FBECDBF98878F836E
:101B40009A01AB01E8ECF1E0859194912F80388403
:101B50006FEF261A360ABC01C1012B833C834D83EB
:101B60005E830E948452EAECF1E085919491CF80EB
:101B7000D884E5E1CE0ED11CBC01C6010E9484527E
:101B80000E9405324B015C01A8EEB3E02B813C8141
:101B90004D815E810E9425512B013C018F819885EA
:101BA00086539F4F9A838983EE24E394F12C08EBAC
:101BB0001BE020E030E0A601B1018F8198850E94F2
:101BC000FB0C813041F4E981FA8180810E94EE347E
:101BD000182F105301C01FEF0E94053268157905B8
:101BE0008A059B0520F40E9405324B015C011230EE
:101BF00031F0143021F0112311F01F3FF1F40E9455
:101C00000532681979098A099B09641575058605E5
:101C1000970550F212C0153011F01F3F39F50E94A0
:101C20000532681979098A099B094616570668061C
:101C30007906E0F017C081E01BC06CEC71E089E030
:101C400093E10E94A945412F552747FD5095652FE7
:101C5000752F2AE030E089E093E10E94D1451130F0
:101C6000D1F6DDCF1F3F39F78FEF02C0812F81956D
:101C700028960FB6F894DEBF0FBECDBFDF91CF918F
:101C80001F910F91FF90EF90DF90CF90BF90AF909A
:101C90009F908F907F906F905F904F903F902F908C
:101CA0000895CF93DF93EC018EE093E10E94E64626
:101CB000FE01E553FF4F40E052EC61E070E04083ED
:101CC000518362837383C653DF4F488160E072ECB7
:101CD00081E090E0DF91CF910C943034EF92FF924D
:101CE0000F931F93CF93DF93EC01F62E82E06817DA
:101CF00009F48BC0861738F0662309F4C2C091E05E
:101D00006913E8C00BC084E0681709F48AC068173B
:101D100008F493C095E06913DDC0ACC082EB90E19C
:101D20000E941438E82EFE01E753FF4F8081853072
:101D300019F4CE010E94510E61E08AE20E948B33B9
:101D400060E08AE20E94A43368EC70E080E090E0FA
:101D50000E94573261E08AE20E94A433CE010E94C1
:101D6000D10A13E00FC060E08AE20E94A43368EB5E
:101D70007BE080E090E00E94573261E08AE20E94BE
:101D8000A43311500FE08881811103C0111195C057
:101D9000A1C0112309F49EC047E352E06FE672E050
:101DA000CE010E94720D47E352E067E772E0CE0178
:101DB0000E94720DEEE4F1E0259134918E010F5FE7
:101DC0001F4FB901C8010E9484522CE132E047E361
:101DD00052E0B801CE010E94340C9DE19E1508F43A
:101DE00061C061E072E089E093E10E94584666E1DB
:101DF00072E089E093E10E9458466BE272E089E06C
:101E000093E10E94584683E056C0FE01E753FF4F1E
:101E10008081853019F4CE010E94510EEEE4F1E08C
:101E200017C0FE01E753FF4F8081853019F4CE01C2
:101E30000E94510EE0E5F1E00BC0FE01E753FF4FB9
:101E40008081853019F4CE010E94510EE2E5F1E067
:101E5000859194918E010F5F1F4FBC01C8010E94B4
:101E600084522CE132E047E352E0B801CE010E94F7
:101E7000340C18C0FE01E653FF4F80810E94A43449
:101E800013C060E08AE20E94A43368EE73E080E051
:101E900090E00E945732CE010E94D10A88818823A7
:101EA00019F018C0813029F4C753DF4FF88281E060
:101EB00012C0823084F081950EC064EF71E080E042
:101EC00090E00E945732CE010E94D10A015009F0E1
:101ED0005ACF49CF80E0DF91CF911F910F91FF90B2
:101EE000EF900895CF93DF93EC0182E00E94AD2E36
:101EF00083E00E94AD2E8091C71081110DC084EB4C
:101F000090E10E945B3F84EB90E10E94453F84EBAF
:101F100090E10E94E33A04C084EB90E10E94453FC7
:101F2000CE010E94510E61E0CE01DF91CF910C9461
:101F30006E0E2F923F924F925F926F927F928F928E
:101F40009F92AF92BF92CF92DF92EF92FF920F9348
:101F50001F93CF93DF93CDB7DEB728970FB6F894D2
:101F6000DEBF0FBECDBF98878F839A01AB01EAEB2E
:101F7000F1E0859194912F8038846FEF261A360A0C
:101F8000BC01C1012B833C834D835E830E9484523C
:101F9000ECEBF1E085919491CF80D884E5E1CE0E11
:101FA000D11CBC01C6010E9484520E9405324B0123
:101FB0005C01A8EEB3E02B813C814D815E810E94E3
:101FC00025512B013C018F81988586539F4F9A8321
:101FD0008983EE24E394F12C08EB1BE020E030E051
:101FE000A601B1018F8198850E94FB0C182F8130CA
:101FF00039F4E981FA8180810E94EE34182F105360
:102000000E940532681579058A059B0520F40E9417
:1020100005324B015C01123021F0143011F0111126
:102020001BC00E940532681979098A099B09641549
:1020300075058605970568F20FC0153081F40E947A
:102040000532681979098A099B09461657066806F8
:10205000790628F081E005C0113079F7F0CF812FA3
:10206000819528960FB6F894DEBF0FBECDBFDF91E5
:10207000CF911F910F91FF90EF90DF90CF90BF9085
:10208000AF909F908F907F906F905F904F903F9018
:102090002F9008958F929F92AF92BF92CF92DF922E
:1020A000EF92FF920F931F93CF93DF93EC01F62EE5
:1020B000E72EE6E6F1E0859194918E010F5F1F4FC8
:1020C000BC01C8010E9484524E0129EF820E911C6E
:1020D000EF92FF921F930F938FE992E09F938F935C
:1020E00082E08F931F929F928F920E94D352AA24D4
:1020F000A394B12C60EDC62E67E0D62EE12CF12C16
:1021000008E412E02CE132E047E352E0B401CE01F2
:102110000E94100B2DB73EB7265F3F4F0FB6F894C5
:102120003EBF0FBE2DBF82300CF08195DF91CF9165
:102130001F910F91FF90EF90DF90CF90BF90AF90E5
:102140009F908F900895AF92BF92CF92DF92EF92BF
:10215000FF920F931F93CF93DF93EC015A016B0112
:10216000E4EAF1E0259134917C018FEFE81AF80A56
:10217000B901C7010E9484528E0107501F4FDF92A0
:10218000CF92BF92AF92FF92EF922FE834E03F934D
:102190002F9382E08F931F921F930F930E94D3522D
:1021A00028E432E047E352E0B801CE010E94340C4B
:1021B000182F8DB79EB70C960FB6F8949EBF0FBE22
:1021C0008DBF123051F0113049F4C653DF4F4881B2
:1021D000B501C6010E94303401C01EEF812FDF918E
:1021E000CF911F910F91FF90EF90DF90CF90BF9014
:1021F000AF9008952F923F924F925F926F927F928D
:102200008F929F92AF92BF92CF92DF92EF92FF9206
:102210000F931F93CF93DF93CDB7DEB728970FB6F9
:10222000F894DEBF0FBECDBF4C0168872C0129EFAB
:10223000420E511C80E092E0D201FC011D923197C8
:10224000E9F7940126533F4F3B832A83D9018C91B0
:102250000E94EE34612C712C2A803B80E1EEF1E08B
:10226000259134913D832C83D4011196BF83AE8395
:102270006DC0F10180810E94EE34D1018C910E94E9
:10228000EE34F10180810E94EE34D1018C910E94E4
:10229000EE34F10180810E94EE3400E010E09AE01B
:1022A0009801929F8001939F100D1124992787FD1B
:1022B0009095C097080F191FD1018C910E94EE34A0
:1022C0008D3069F7EA81FB8180810E94EE340E94A3
:1022D00005326B017C01D1018C910E94EE348F3F5D
:1022E00081F06114B2E07B064CF4F401E60DF71DB9
:1022F000E750FF4F8083EFEF6E1A7E0A01501109FD
:1023000006C061E070E080E090E00E9457320E94D9
:1023100005326C157D058E059F0520F40E9405325F
:102320006B017C01101611060CF0EDC00E94053205
:102330006C197D098E099F096031774281059105ED
:1023400050F2E1C0D1018C910E94EE34843409F442
:1023500090CF803309F0A0C0680C791CF301E850DD
:10236000FF4F1082E4EAF1E08591949184010F5FC0
:102370001F4FBC01C8010E9484526401B5E1CB0E1D
:10238000D11C7401EBECEE0EF11CD70113968C916D
:1023900013978F9312968C9112978F9311968C911D
:1023A00011978F938C918F931F930F938FE894E0E5
:1023B0009F938F931F9284E18F93DF92CF920E941D
:1023C000D35228E432E047E352E0B601C4010E9450
:1023D000340C0FB6F894DEBF0FBECDBF823009F4C7
:1023E00086C0813059F4F401E653FF4FD7016D9157
:1023F0007D918D919C9140810E943034B885B1309F
:1024000009F077C066EA74E0C2010E94B952892BD4
:1024100009F471C06DEA74E0C2010E94B9520097DC
:1024200009F46BC07C01E0E1EE0EF11C6DE070E0A0
:10243000C7010E949652AC014E195F09B701C8014D
:102440000E94AA52CE0101969F938F938CE493E051
:102450009F938F931F930F930E943F5369E175E001
:10246000C2010E94B9520F900F900F900F900F90E1
:102470000F90009709F443C04981BC016C5F7F4F06
:1024800050E0C2010E94AA528981880E911CF40179
:10249000E750FF4F10822DC0882399F100E010E033
:1024A000EAE0DE2E7401FAECEF0EF11C9801D29EE8
:1024B0008001D39E100D1124992787FD9095C09718
:1024C000080F191FD7018C910E94EE348D3071F7DF
:1024D000F401E553FF4F4081518162817381C40152
:1024E0000E94A310075D1109802F819526C08CEFF3
:1024F00024C081E022C08FEE20C08EEE1EC08DEE83
:102500001CC08DEF1AC06C817D818E819F810E94DD
:1025100084520E9405326B017C01A12CB12C08EC85
:102520001FEA20E030E048E452E06E817F81C40180
:102530000E94840A813029F705CF28960FB6F894B7
:10254000DEBF0FBECDBFDF91CF911F910F91FF90E6
:10255000EF90DF90CF90BF90AF909F908F907F9043
:102560006F905F904F903F902F9008955F926F9281
:102570007F928F929F92AF92BF92CF92DF92EF9213
:10258000FF920F931F93CF93DF93EC01162FF72E3B
:10259000E42ED52E5901502E4AE550E060E070E05F
:1025A0000E94840D992787FD90958130910531F027
:1025B000019609F4E9C0E0E0F0E0E8C0CE010E9435
:1025C0004C0CE82FFF27E7FDF095E130F10509F00D
:1025D000DDC040E659E060E070E0CE010E94A3104B
:1025E000CE010E94D10A3E0139EF630E711C80E0DA
:1025F00092E0F3019C01119221503040E1F768EE26
:1026000073E080E090E00E945732EDEDF1E08591BB
:1026100094914E013FEF831A930ABC01C4010E94BA
:102620008452DF92EF92FF921F939F928F9280E6E7
:1026300092E09F938F9382E08F931F927F926F928D
:102640000E94D352EFEDF1E085919491BC01C40159
:102650000E948452CC24C394D12C18ECE12E1FEAA2
:10266000F12E00E010E02CE132E0A401B301CE0134
:102670000E94AB0B90E0EDB7FEB73C960FB6F89416
:10268000FEBF0FBEEDBF009769F4FE01E553FF4F9B
:102690004081518162817381CE010E94A310EEEFCF
:1026A000FFEF74C0029769F4FE01E553FF4F4081CC
:1026B000518162817381CE010E94A310E0EFFFEF90
:1026C00065C068EE73E080E090E00E9457327501CB
:1026D00065018E0106531F4F07C0F8016081F601A6
:1026E00081916F010E94B135F50101900020E9F759
:1026F0003197EA19FB09C6018E199F098E179F07AA
:1027000060F368EE73E080E090E00E945732F801D9
:1027100060818AE10E94B135E1EEF1E0859194910A
:10272000BC01C4010E9484520E9405326B017C01ED
:10273000A12CB12C08EC1FEA20E030E048E452E084
:10274000B401CE010E94840A813069F0FE01E55394
:10275000FF4F4081518162817381CE010E94A3109D
:10276000EDEFFFEF13C080E092E0F3019C011192C6
:1027700021503040E1F7652DCE010E94FA10E82F7C
:10278000FF27E7FDF09502C0ECEEFFEFCF01DF91F0
:10279000CF911F910F91FF90EF90DF90CF90BF905E
:1027A000AF909F908F907F906F905F9008950F9360
:1027B00000E00E94B6120F910895CF92DF92EF923F
:1027C000FF920F931F93CF93DF93EC016A0179017E
:1027D00083579F4F24E1DC01E22F1D92EA95E9F730
:1027E0008E010F551F4FD801E22F1D92EA95E9F790
:1027F000CB54DF4FDE011D922A95E9F7FB010190D2
:102800000020E9F7AF0141505109461B570B4531F4
:10281000510510F044E150E00E94AA52F6010190E7
:102820000020E9F7AF01415051094C195D094531CC
:10283000510510F044E150E0B601C8010E94AA52CF
:10284000D7010D900020E9F7AD01415051094E1913
:102850005F094531510510F044E150E0B701CE0168
:10286000DF91CF911F910F91FF90EF90DF90CF906C
:102870000C94AA52CF93DF93EC0160E472E089E0FC
:1028800093E10E94A945BE0163577F4F89E093E120
:102890000E94354666E472E089E093E10E94A94512
:1028A000BE016F557F4F89E093E10E9435466EE48B
:1028B00072E089E093E10E94A945BE016B547F4F0D
:1028C00089E093E1DF91CF910C94354688EC99E053
:1028D0000C94F406FC01118281E0828387E08383FB
:1028E00040E050EC64EE70E0448355836683778368
:1028F000128A148A138E8FE08087168A178A108EA8
:1029000083E0818FE55EFE4F108280916613909187
:102910006713A0916813B0916913A2608093661346
:1029200090936713A0936813B09369130895CF939E
:10293000C62F66E083E093E10E94844361E083E078
:1029400093E10E94844361E070E080E090E00E94A7
:1029500057328C2F8F770E94004580E0CF910C94E6
:1029600000451F93CF93DF931F92CDB7DEB7162F8D
:1029700066E083E093E149830E94844361E083E061
:1029800093E10E94844361E070E080E090E00E9467
:102990005732812F80680E9400454981842F0E9410
:1029A000004566E083E093E10F90DF91CF911F91A6
:1029B0000C9484431F93CF93DF93EC0161E00E945A
:1029C0009714182F8B8D813041F441E861E0CE01DE
:1029D0000E94B1144FEF62E10CC041E061E0CE0112
:1029E0000E94B1144FEF6EE3CE010E94B1144FEF7D
:1029F0006FE3CE010E94B114412F61E0CE01DF915F
:102A0000CF911F910C94B114CF93DF93EC0140E070
:102A100061E00E94B11440E861E0CE010E94B1146F
:102A200041E861E0CE010E94B1144FEF63E2CE01B4
:102A30000E94B11448E06DE1CE010E94B11444E758
:102A40006EE1CE010E94B11461E0CE010E949714A4
:102A5000813821F481E08B8F80E002C01B8E81E001
:102A6000DF91CF910895CF93DF93EC018B8D882375
:102A7000E1F06DE1CE010E9497149B81963041F008
:102A8000482F4B7F6DE1CE010E94B11482E001C05E
:102A90008FEF9B81963061F06DE1CE010E9497141B
:102AA00082FD05C01A8A80E003C08FEF01C081E07B
:102AB000DF91CF910895CF93DF93EC018B8D882325
:102AC000A1F06DE1CE010E949714482F44606DE1A2
:102AD000CE010E94B1146DE1CE010E94971482FFD5
:102AE00006C081E08A8B80E003C08FEF01C081E0E7
:102AF000DF91CF9108951F93CF93DF93EC011B8D4E
:102B0000113089F46DE10E949714482F42606DE105
:102B1000CE010E94B1146DE1CE010E94971481FF95
:102B200014C01C8B14C060E30E949714482F4061AE
:102B300060E3CE010E94B11460E3CE010E949714BD
:102B400084FF03C081E08C8B02C081E001C080E083
:102B5000DF91CF911F910895CF93DF93EC018B8D7F
:102B6000813089F46DE1CE010E949714482F4D7F8A
:102B70006DE1CE010E94B1146DE1CE010E94971467
:102B800081FD13C010C060E3CE010E949714482F4E
:102B90004F7E60E3CE010E94B11460E3CE010E943B
:102BA000971484FD02C01C8A02C081E001C080E04D
:102BB000DF91CF910895CF93DF93EC018B8D882324
:102BC00091F06EE1CE010E949714282F30E044E08E
:102BD000359527954A95E1F72B83265081E02730DC
:102BE00018F480E001C08FEFDF91CF910895CF936B
:102BF000DF93EC018B8D882389F06DE1CE010E947B
:102C00009714282F30E056E0359527955A95E1F72F
:102C1000298381E0233019F080E001C08FEFDF913C
:102C2000CF910895EF92FF920F931F93CF93DF936D
:102C3000EC01062F61E00E949714E82E8B8D811124
:102C400005C0CE010E940415182FD3C041E861E0F1
:102C5000CE010E94B1146DE1CE010E949714F82EAE
:102C60006EE1CE010E949714182F0930B1F030F4B4
:102C7000073069F078F4063009F506C00B3099F09A
:102C800078F00C30D9F415C01F76106619C01F7784
:102C9000106720C01F7810681DC01F7910691AC006
:102CA0001F7A106A17C01F7B106BCE010E94F715A8
:102CB00002C01F7C106C81E0F82A0CC0063051F471
:102CC000CE010E945B1545E061E3CE010E94B11484
:102CD0004CE006C043E061E3CE010E94B1144AE03B
:102CE00067E3CE010E94B1144F2D6DE1CE010E9429
:102CF000B114412F47606EE1CE010E94B1146DE125
:102D0000CE010E949714182F6EE1CE010E949714F5
:102D10000930C1F138F40730F9F048F5063009F010
:102D200065C008C00B3009F445C0B8F10C3009F09B
:102D30005DC04CC0282F30E014E0359527951A95DA
:102D4000E1F72630310511F012E053C082FFFCCFCD
:102D50008A898130C9F74CC0282F30E0B4E035951E
:102D60002795BA95E1F72730310571F720C0282F54
:102D700030E0A4E035952795AA95E1F72830310594
:102D800019F715C0282F30E0F4E035952795FA950E
:102D9000E1F729303105C1F60AC0282F30E0E4E020
:102DA00035952795EA95E1F72A30310569F682FDD8
:102DB0001FC0CACF282F30E074E0359527957A954B
:102DC000E1F72B30310509F0BFCF0BC0282F30E0E1
:102DD00064E0359527956A95E1F72C30310509F0C7
:102DE000B3CF82FFB1CF10FFAFCF02C011E001C05F
:102DF00010E04E2D61E0CE010E94B114802F86506C
:102E0000873010F40B8310E0812FDF91CF911F9159
:102E10000F91FF90EF900895CF92DF92EF92FF9283
:102E20000F931F93CF93DF931F92CDB7DEB76C0143
:102E30008B0161E00E949714E82EF601838D8111C9
:102E400005C0C6010E940415F82E02C032E0F32E20
:102E500041E861E0C6010E94B1146DE1C6010E9423
:102E60009714482F01301105A1F020F00230110510
:102E7000A9F412C04F73C60149830E94DB15F60105
:102E8000938149819B3009F402C09C3039F4416040
:102E900005C04F77406402C04F7B40686DE1C601BA
:102EA0000E94B1146DE1C6010E9497140130110512
:102EB000F1F020F00230110581F524C0682F70E098
:102EC00026E0759567952A95E1F7672B69F5F60178
:102ED00093819B3029F4F82EF094F1E0FF2224C076
:102EE0009C3009F5F82EF09481E0F8221DC0282FBF
:102EF00030E096E0359527959A95E1F72130310538
:102F000099F411C0282F30E086E0359527958A95F1
:102F1000E1F72230310541F406C00330110520F0FD
:102F2000FF24F39403C0F12CF60101834E2D61E0E0
:102F3000C6010E94B1148F2D0F90DF91CF911F9188
:102F40000F91FF90EF90DF90CF900895FF920F9335
:102F50001F93CF93DF93EC01162F61E00E9497142B
:102F6000F82E8B8D811105C0CE010E940415082F0B
:102F70006AC041E861E0CE010E94B1146DE1CE016A
:102F80000E949714123061F018F4113089F405C0D2
:102F9000133049F0143061F409C08F7C886008C098
:102FA000877D806105C08F7D886102C0877E8062D9
:102FB000482F6DE1CE010E94B1146DE1CE010E9457
:102FC00097141230B1F018F41130D1F505C0133058
:102FD000E9F01430A9F527C0282F30E0E3E035955B
:102FE0002795EA95E1F7277033272130310551F114
:102FF00027C0282F30E073E0359527957A95E1F7C3
:103000002770332722303105D9F41CC0282F30E037
:1030100063E0359527956A95E1F7277033272330CC
:10302000310571F40FC0282F30E053E03595279516
:103030005A95E1F7277033272430310509F402C08F
:1030400002E001C000E0812F8150843010F001E0E7
:1030500001C01A834F2D61E0CE010E94B114802F70
:10306000DF91CF911F910F91FF9008950F931F93C0
:10307000CF93DF93EC01062F61E00E949714182F85
:103080008B8D811103C0CE010E94041541E861E0DF
:10309000CE010E94B1140530D9F168F4023009F173
:1030A00020F4013009F049C116C0033001F10430A9
:1030B00009F043C127C0083009F441C030F406309C
:1030C00069F1073009F039C12FC00930F1F10A3038
:1030D00009F033C140C061E0CE010E94A6176CE048
:1030E0000BC061E0CE010E94A6176CE022C061E037
:1030F000CE010E94A6176AE0CE010E94121660E07F
:1031000070E033C061E0CE010E94A6176CE028C0D9
:1031100061E0CE010E94A6176AE00BC061E0CE011B
:103120000E94A6176BE01CC061E0CE010E94A617AA
:1031300069E0CE010E94121661E070E016C061E005
:10314000CE010E94A61769E00BC061E0CE010E948B
:10315000A61768E005C061E0CE010E94A61767E0EF
:10316000CE010E94121662E070E0CE010E940C17A0
:10317000E8C0282F30E043E0359527954A95E1F7E0
:103180002130310509F0DBC06EE1CE010E949714B9
:1031900090E024E0959587952A95E1F701E00C975A
:1031A00009F0F4C0C8C0282F30E003E0359527951A
:1031B0000A95E1F72930310509F0C1C017C0282F61
:1031C00030E0B3E035952795BA95E1F72130310528
:1031D00009F0B5C027C0282F30E0A3E0359527952A
:1031E000AA95E1F72131310509F0A9C06EE1CE01C0
:1031F0000E949714282F30E0F4E035952795FA9532
:10320000E1F701E02C30310509F0C0C094C0282F4F
:1032100030E0E3E035952795EA95E1F7293031056F
:1032200009F08DC06EE1CE010E949714282F30E086
:1032300074E0359527957A95E1F701E02A3031055C
:1032400009F0A4C078C0282F30E063E035952795B9
:103250006A95E1F72131310509F071C06EE1CE01C7
:103260000E949714282F30E054E0359527955A9501
:10327000E1F701E02B30310509F088C05CC0282F50
:1032800030E043E0359527954A95E1F7293031053F
:1032900009F055C00BC0282F30E093E035952795F5
:1032A0009A95E1F72131310509F049C06EE1CE016F
:1032B0000E949714282F30E084E0359527958A9551
:1032C000E1F701E02930310509F060C034C0282F52
:1032D00030E003E0359527950A95E1F72131310576
:1032E00071F56EE1CE010E949714282F30E0B4E012
:1032F00035952795BA95E1F701E02830310509F0B9
:1033000045C019C0282F30E0A3E035952795AA9530
:10331000E1F72131310599F46EE1CE010E94971455
:10332000282F30E0F4E035952795FA95E1F701E094
:103330002730310559F500E029C00FEF27C001E023
:1033400025C06DE1CE010E949714053009F45FCFCE
:1033500068F4023009F427CF18F4013081F709CF5F
:10336000033009F42CCF043051F735CF083009F47D
:1033700092CF30F4063009F466CF073001F77FCFE3
:10338000093009F4A4CF0A30D1F6BCCF412F61E057
:10339000CE010E94B114802FDF91CF911F910F9128
:1033A0000895493989ED580782EE6807710509F4D7
:1033B00094C008F04EC0493989E9580788ED68077C
:1033C000710509F48AC0F8F4411580E6580788EDC4
:1033D0006807710509F481C038F44C3C5C44684DC1
:1033E000710509F07CC079C0433383E7580788ED45
:1033F0006807710509F471C046365648684D710575
:1034000009F06DC06AC04115510589ED6807710565
:1034100009F463C078F44C3C8CEA580788ED6807DF
:10342000710509F45AC04115504C684D710509F0F9
:1034300056C053C04E3185EC580781EE68077105C0
:1034400009F44BC04C355F44624E710509F047C02A
:1034500044C04F3882E0580785EE68077105E9F1EE
:10346000D8F444318EEE580783EE68077105A9F150
:1034700030F4473D5346634E710589F52EC0413502
:1034800088E7580784EE6807710539F14115504CFB
:10349000644E710521F521C0473481EA580786EE54
:1034A00068077105D1F068F44C3C8CE8580785EE4C
:1034B0006807710591F04A305741664E710579F4FD
:1034C0000CC045388BE2580787EE6807710529F074
:1034D000423C554B674E710511F481E0089580E040
:1034E00008957F928F929F92AF92BF92CF92DF9278
:1034F000EF92FF920F931F93CF93DF93EC016A013A
:103500007B0161E00E949714782E8B8D813011F43D
:1035100041E801C041E061E0CE010E94B1144E2DAE
:1035200066E0CE010E94B1144D2D67E0CE010E94ED
:10353000B1144C2D68E0CE010E94B11466E0CE01BA
:103540000E949714082F67E0CE010E949714182F4D
:10355000902E812CA12CB12CBA2CA92C982C88242B
:1035600068E0CE010E949714712F60E0082F10E0F0
:1035700020E030E0060F171F211D311D080D191D19
:103580002A1D3B1D0C151D052E053F0531F4CC826F
:10359000DD82EE82FF8210E001C011E0B701A601DA
:1035A000CE010E94D119811101C01FEF472D61E0AA
:1035B000CE010E94B114812FDF91CF911F910F9105
:1035C000FF90EF90DF90CF90BF90AF909F908F9043
:1035D0007F9008950F931F93CF93DF93EC01162FE5
:1035E00061E00E949714082F8B8D813011F441E81F
:1035F00001C041E061E0CE010E94B1141C3439F0F9
:103600001D3419F0183439F404C08FE003C0188653
:1036100002C087E08887488569E0CE010E94B11426
:1036200069E0CE010E94971411E09885891301C0CA
:1036300010E0402F61E0CE010E94B114812FDF9194
:10364000CF911F910F9108950F931F93CF93DF9305
:10365000EC01162F61E00E949714082F1F8F8B8DAD
:10366000813061F441E861E0CE010E94B1144F8DD8
:1036700062E2CE010E94B11462E20BC041E061E05F
:10368000CE010E94B1144F8D62E3CE010E94B114AD
:1036900062E3CE010E94971411E09F8D981301C040
:1036A00010E0402F61E0CE010E94B114812FDF9124
:1036B000CF911F910F910895FC01678570896B5F11
:1036C0007F4F0C94241B0F931F93CF93DF93EC0138
:1036D000162F698B61E00E949714082F9B8D913003
:1036E000F9F091111DC041E061E0CE010E94B114DA
:1036F000412F63E3CE010E94B11440E064E3CE01A8
:103700000E94B11463E3CE010E949714182F402F3A
:1037100061E0CE010E94B11481E09989191301C0C2
:1037200080E0DF91CF911F910F910895663020F4D2
:10373000FC01618F80E008958FEF08950F931F9330
:10374000CF93DF93EC016C31E0F4062F006261E06F
:103750000E949714182F8B8D813011F441E801C01D
:1037600041E061E0CE010E94B114402F6BE0CE0138
:103770000E94B114412F61E0CE010E94B11480E09B
:1037800001C08FEFDF91CF911F910F910895CF93DB
:10379000DF93EC0161E086E10E948B3361E086E11A
:1037A0000E94A43381E0809303130E94484381E088
:1037B0000E946B4384E00E94794380E00E9474433E
:1037C0006BE1CE010E949E1B811105C0CE01DF91ED
:1037D000CF910C94041581E0DF91CF9108957F92F1
:1037E0008F929F92AF92BF92CF92DF92EF92FF9211
:1037F0000F931F93CF93DF93EC010E94DA148B8D0C
:10380000813011F441E801C041E061E0CE010E9445
:10381000B11465E0CE010E94241B782E811165C091
:103820008E01045E1D4F80E091E0D8019C011D9245
:1038300021503040E1F7FE01E35EFE4F8081D80168
:103840008C934E01B3EE8B1ABDEF9B0AFE01E45E32
:10385000FE4F8081F40180835E01F2EEAF1AFDEF2E
:10386000BF0AFE01E25EFE4F8081D5018C936E019E
:10387000B1EECB1ABDEFDB0AF60110827E01F0EE4D
:10388000EF1AFDEFFF0A8F89D7018C9340E06DE0BE
:10389000CE010E94B11440E06EE0CE010E94B1144E
:1038A000F801408160E0CE010E94B114D4014C9136
:1038B00060E0CE010E94B114F501408160E0CE01CC
:1038C0000E94B114D6014C9160E0CE010E94B11467
:1038D000F701408160E0CE010E94B1141F8A64EFBD
:1038E00071E080E090E00E945732872DDF91CF9108
:1038F0001F910F91FF90EF90DF90CF90BF90AF900E
:103900009F908F907F9008951F93CF93DF93EC014A
:10391000845E9E4FFC0180E091E0DF019C011D92DE
:1039200021503040E1F743E461E3CE010E94B1143D
:1039300049E06AE0CE010E94B11443E26CE0CE019E
:103940000E94B11440E06DE0CE010E94B1144FEF2F
:103950006FE1CE010E94B11440E065E2CE010E9409
:10396000B1148B8D813039F46FEFCE010E94241B8E
:10397000182F45E805C0CE010E945C1B182F45E0BA
:1039800061E0CE010E94B114812FDF91CF911F9190
:1039900008958F929F92AF92BF92CF92DF92EF9253
:1039A000FF921F93CF93DF93EC014A015B011B8AC7
:1039B0000E9405326B017C018B8D813061F562E1E3
:1039C000CE010E949714182F04C00E9405326B018B
:1039D0007C0114FD7DC00E9405326C197D098E09A1
:1039E0009F09681579058A059B0508F447C07BC0C7
:1039F0000E9405326B017C0111116FC00E940532DB
:103A00006C197D098E099F09681579058A059B0542
:103A100008F442C018C06FE3CE010E949714182F1B
:103A200004C00E9405326B017C0112FD54C00E944B
:103A300005326C197D098E099F09681579058A057B
:103A40009B05C0F150C08B89813089F48D8999899B
:103A5000891791F0882381F08B8D813011F441E832
:103A600001C041E061E0CE010E94B11403C08B8D22
:103A70008130B9F780E039C081E037C062E1CE0122
:103A80000E949714182F0E9405326C157D058E0533
:103A90009F0508F09ECF99CF65E2CE010E94971452
:103AA000182F0E9405326C157D058E059F0508F0C4
:103AB000A3CF9ECF6FE3CE010E949714182F0E94D0
:103AC00005326C157D058E059F0508F0AECFA9CF98
:103AD00081E08B8B93CF81E08B8B60E0CE010E94E5
:103AE00097148D8BB0CF1B8AAECFDF91CF911F91F2
:103AF000FF90EF90DF90CF90BF90AF909F908F900E
:103B0000089540E157E260E070E00C94C91C8F9288
:103B10009F92AF92BF92CF92DF92EF92FF920F935C
:103B20001F93CF93DF93EC014A015B010E940532A2
:103B30006B017C018B8D813039F562E1CE010E94F1
:103B40009714182F04C00E9405326B017C0116FDEA
:103B5000E4C00E9405326C197D098E099F09681521
:103B600079058A059B0508F4BCC002C01F8A39C0CC
:103B700015FD06C08C89813019F41F8A12E091C0AE
:103B800081E08F8B13E08DC06FE3CE010E9497140C
:103B9000182F04C00E9405326B017C0112FDC0C0C9
:103BA0000E9405326C197D098E099F0968157905F7
:103BB0008A059B0508F4A3C000E005C08C8981300C
:103BC00021F41F8A01E012E004C081E08F8B00E045
:103BD00013E041E061E0CE010E94B114013009F030
:103BE00060C08B8D813069F440E06DE0CE010E94B1
:103BF000B11460E0CE010E949714FE01E45EFE4F16
:103C000012C060E3CE010E9497148E01045E1E4F25
:103C100082FD07C081FD05C060E0CE010E949714BF
:103C200001C08D89F801808360E0CE010E94971465
:103C3000FE01E35EFE4F808360E0CE010E94971498
:103C4000FE01E25EFE4F808360E0CE010E94971489
:103C5000FE01E15EFE4F80839B8D913021F490E068
:103C60000597988B8F87E12CF12C0CC0CE010E9418
:103C70009714FE01EE0DFF1DE05EFE4F8083FFEF07
:103C8000EF1AFF0A8F85988960E0E816F90670F34D
:103C9000CE010E949714FE01E55EFD4F808310E087
:103CA0000CC08F89813041F4888D998D891720F45B
:103CB000133011F08F5F888F11E08B8D813029F4E4
:103CC00040E06DE0CE010E94B114CE010E94DA14F2
:103CD00081EE88168EE29806A104B10420F11FEF50
:103CE00022C062E1CE010E949714182F0E94053273
:103CF0006C157D058E059F0508F029CF24CF6FE355
:103D0000CE010E949714182F0E9405326C157D0574
:103D10008E059F0508F042CF3DCF15FF27CF28CF56
:103D200011FD4CCF52CF812FDF91CF911F910F9179
:103D3000FF90EF90DF90CF90BF90AF909F908F90CB
:103D4000089540E157E260E070E00C94871DFC01AB
:103D5000658B648F8189858F8689868F8F5F868B3F
:103D600080E008952F923F924F925F926F927F92E0
:103D70008F929F92AF92BF92CF92DF92EF92FF927B
:103D80000F931F93CF93DF93CDB7DEB72E970FB668
:103D9000F894DEBF0FBECDBF2C018B01FC01638107
:103DA00070E080E090E00E94694E4B015C01F201FE
:103DB000628970E080E090E00E94694E6B837C83B2
:103DC0008D839E83F201628170E080E090E00E942A
:103DD000694E6F83788789879A8720E030E040E2D8
:103DE00051E4682D792D8A2D9B2D0E94804F181645
:103DF0003CF4C12CD12CE0E8EE2EEFE3FE2E03C004
:103E0000C12CD12C76010115110559F0B8016B5F59
:103E10007F4F80E090E00E94694E69837A833C0185
:103E200006C019821A826FE7662E73E4772EF201BC
:103E30008181882391F0813049F0823071F4212C06
:103E4000312C5AEF452E53E4552E0DC0212C312C28
:103E50004AE7442E43E4542E06C0212C312C3AEF7D
:103E6000432E32E4532E282D392D4A2D5B2D60E050
:103E700070E080E090E40E94EE4FA20191010E9468
:103E8000D54D8B018E879D8720E030E044E451E4DE
:103E9000712F0E948B4F362E272E8B879C8720E018
:103EA00030E040E051E4B981AA816B2F7A2F862D52
:103EB000972D0E948B4F2B013C0120E030E040E821
:103EC00050E4682D792D8A2D9B2D0E948B4F9B01EC
:103ED000AC01C301B2010E94594D20E030E040EE38
:103EE00051E40E945A4D20E030E040E851E40E9445
:103EF0005A4D2B013C0120E030E040EA51E4BB8107
:103F0000AC81ED81FE816B2F7A2FCF010E948B4F08
:103F10009B01AC01C301B2010E94594D2B013C0130
:103F2000A7019601C701B6010E945A4D9B01AC0141
:103F3000682D792D8A2D9B2D0E94594D20E030E06F
:103F400040E850E40E948B4F9B01AC01C301B201D9
:103F50000E94D54D0E94BE4D6B017C0120E030E0F7
:103F600040E850E4BF81A885B984AA846B2F7A2FDA
:103F70008B2D9A2D0E945A4D9B01AC01C701B601B1
:103F80000E948B4F6B017C0120E030E0A9017D2D68
:103F90009F2D0E94804F18165CF420E030E040E036
:103FA00051E46C2D7D2D8E2D9F2D0E945A4D04C005
:103FB00060E070E080E091E4FE85ED85202F312FF8
:103FC0004F2F5E2F0E948B4F9B01AC01D101EB85DF
:103FD0001C856B2F722D8E2F912F0E945A4D2E967D
:103FE0000FB6F894DEBF0FBECDBFDF91CF911F910A
:103FF0000F91FF90EF90DF90CF90BF90AF909F9088
:104000008F907F906F905F904F903F902F9008958A
:10401000FC01678570890C94B21EAF92BF92CF925B
:10402000DF92EF92FF920F931F93CF93DF938C0158
:10403000FC01838DE801C25EDC4F813069F5688147
:10404000798180E090E00E94694E2DEC3CEC4CECD4
:104050005DE30E948B4F20E030E040E85FE30E9488
:104060005A4D0E943D4E5B01C8010E9408206B0121
:104070007C010E9475528C01C701B6010E943D4E21
:104080009B0128513C4FC801B5010E944451280FA3
:10409000391F3983288304C080E197E2998388839C
:1040A00080E0DF91CF911F910F91FF90EF90DF9013
:1040B000CF90BF90AF900895FC01238D211109C0CE
:1040C000278530892D33310520F02CE330E0308B0B
:1040D0002787FC0147855089FB0120E030E008C0BC
:1040E0006191DC01A20FB31F90966C932F5F3F4F3D
:1040F00024173507A9F70C945C1BEF92FF920F93DE
:104100001F93CF93DF93EC01F62E8A0161E00E94AA
:104110009714E82ECE010E94DA148B8D813011F4B1
:1041200041E801C041E061E0CE010E94B1141F8A64
:10413000888D81110DC06F2DCE010E94A71EF82E13
:1041400081110FC0B801CE010E945C20F82E09C079
:10415000CE010E945C1BF82EFE01E55EFE4F888DAD
:10416000808340E06EE0CE010E94B11440E06DE03B
:10417000CE010E94B114F1102DC04C8D60E0CE0133
:104180000E94B1144D8D60E0CE010E94B1144E8D9D
:1041900060E0CE010E94B1144F8D60E0CE010E941C
:1041A000B11400E010E009C0E00FF11F40A160E091
:1041B000CE010E94B1140F5F1F4F2F853889FE0179
:1041C0000217130788F3E55EFE4F408160E0CE01E1
:1041D0000E94B1144E2D61E0CE010E94B1148F2DCA
:1041E000DF91CF911F910F91FF90EF9008958F92E3
:1041F0009F92AF92BF92CF92DF92EF92FF921F9366
:10420000CF93DF93EC014A015B010E9405326B0101
:104210007C018B8D813001F5CE010E94DA1443E8D8
:1042200061E0CE010E94B11462E1CE010E949714B8
:10423000182F04C00E9405326B017C0113FD28C0B9
:104240000E9405326C197D098E099F096815790550
:104250008A059B0530F11CC043E061E0CE010E945D
:10426000B1146FE3CE010E949714182F04C00E946E
:1042700005326B017C0113FD0BC00E9405326C19E5
:104280007D098E099F09681579058A059B05B0F09F
:10429000CE010E94DA1413FB882780F991E0892768
:1042A0001AC062E1CE010E949714182F0E940532B5
:1042B0006C157D058E059F0508F6BCCF6FE3CE011A
:1042C0000E949714182F0E9405326C157D058E05EB
:1042D0009F0588F6CCCFDF91CF911F91FF90EF9093
:1042E000DF90CF90BF90AF909F908F900895CF9325
:1042F000DF93EC010E940D20FE01E25EFC4F408145
:10430000518160E070E0CE01DF91CF910C94F720F5
:104310000F931F93CF93DF9300D000D0CDB7DEB7BC
:104320008C0149835A836B837C830E94841C49815E
:104330005A816B817C8181111AC0C8010E94C91CFD
:104340008823A9F0C8010E94A11E882319F0833098
:1043500009F00DC0C8010E94EF1B811108C0C801FF
:104360000E94772191E0811103C090E001C091E0AB
:10437000892F0F900F900F900F90DF91CF911F9189
:104380000F910895CF93DF93EC012C3F310528F076
:104390008BEF90E0988B8F8702C0388B2F87CE01F0
:1043A0000E947D20811105C0CE01DF91CF910C9438
:1043B0007721DF91CF9108958F929F92AF92BF9214
:1043C000CF92DF92EF92FF920F931F93CF93DF93E1
:1043D000EC014A015B010E9405326B017C018B8D6F
:1043E0008130D9F462E1CE010E949714182F04C0E5
:1043F0000E9405326B017C01012F007416FD8DC0F7
:104400000E9405326C197D098E099F09681579058E
:104410008A059B0508F473C080C06FE3CE010E943B
:104420009714182F04C00E9405326B017C01012FE4
:10443000047012FD86C00E9405326C197D098E0938
:104440009F09681579058A059B0508F46CC079C039
:10445000112309F448C04E0184EE881A8DEF980AA2
:104460008D89F401808360E0CE010E9497145E0183
:10447000F3EEAF1AFDEFBF0AF501808360E0CE01D5
:104480000E9497146E01F2EECF1AFDEFDF0AF601DB
:10449000808360E0CE010E9497147E01F1EEEF1A56
:1044A000FDEFFF0AF701808360E0CE010E949714C0
:1044B000FE01E05EFD4F8083F40120819D8D291374
:1044C00014C0F50120819C8D291311C0F6012081B3
:1044D0009E8D29130EC0F701908191110CC081119E
:1044E0000CC010E038C018E036C017E034C016E049
:1044F00032C015E030C014E02EC013E02CC062E1E1
:10450000CE010E949714182F0E9405326C157D056C
:104510008E059F0508F070CF6BCF11E0011101C02F
:1045200010E041E813C06FE3CE010E949714182FEA
:104530000E9405326C157D058E059F0508F077CF2A
:1045400072CF11E0011101C010E041E061E0CE0145
:104550000E94B1147DCFCE010E94DA14812FDF9129
:10456000CF911F910F91FF90EF90DF90CF90BF9070
:10457000AF909F908F90089540E157E260E070E027
:104580000C94DC21CF93DF93EC010E94C2218111B6
:1045900010C0CE010E94841C81110BC0CE010E946C
:1045A000811D882329F0CE01DF91CF910C94BC228C
:1045B00089E0DF91CF910895DF92EF92FF920F9300
:1045C0001F93CF93DF93EC01D62E8A01790181E00E
:1045D000288D998D921710F4188E0CC09701A801A0
:1045E0006D2DCE010E94C222988D9F5F988F8823E7
:1045F00099F3EECFDF91CF911F910F91FF90EF9044
:10460000DF90089582E09DE00C946A14FC0181E043
:10461000858B92E0968B978B108E128E94E6938FFB
:10462000748B638B868F848F83E0818F88E4858F82
:1046300008951F93CF93DF93EC0189E093E10E94EB
:104640001E4582E09DE00E94C71B40E050E069EDFE
:1046500070E082E09DE00E94711A11E0811101C0BA
:1046600010E0188E6DE975E089E093E10E94A9459C
:10467000612F70E089E093E10E940E46111109C09C
:1046800082E09DE00E94331511E0811103C010E02B
:1046900001C011E081E08C8F6EEB75E089E093E161
:1046A0000E94A945612F70E089E093E10E940E46C7
:1046B00011110AC063E082E09DE00E94361811E00B
:1046C000811103C010E001C011E083E0898F6FED1C
:1046D00075E089E093E10E94A945612F70E089E0CF
:1046E00093E10E940E46111109C082E09DE00E94F4
:1046F0007B1511E0811103C010E001C011E081E0E1
:104700008E8F6FEF75E089E093E10E94A945612FDC
:1047100070E089E093E10E940E4611110AC063E146
:1047200082E09DE00E94241B11E0811103C010E093
:1047300001C011E083E18B8F60E276E089E093E1D4
:104740000E94A945612F70E089E093E10E940E4626
:1047500011110AC06DE482E09DE00E94EA1A11E0A6
:10476000811103C010E001C011E08DE48D8F61E480
:1047700076E089E093E10E94A945612F70E089E02D
:1047800093E10E940E4660E074E08EE093E10E94A7
:1047900016478A8F11110AC0682F82E09DE00E949F
:1047A000631B11E0811103C010E001C011E062E65B
:1047B00076E089E093E10E94A9454A8D50E060E0EF
:1047C00070E02AE030E089E093E10E94764666E7F7
:1047D00076E089E093E10E94A94565E082E09DE0F2
:1047E0000E94961B84EB90E10E945B3F6BE875E0B2
:1047F00084EB90E10E942140612F70E089E093E119
:104800000E940E4611110EC06FE975E089E093E138
:104810000E94354641E06CE08EE093E10E94C6467E
:1048200080E007C062EB75E089E093E10E943546C5
:1048300081E0DF91CF911F910895FB019091220EAD
:1048400080E02091230E822B918380839091240E0F
:1048500080E02091250E822B958384839091260EF3
:1048600080E02091270E822B918780879091280EDF
:1048700080E02091290E822B9383828390912A0ECF
:1048800080E020912B0E822B9783868390912C0EB3
:1048900080E020912D0E822B9387828790912E0E9F
:1048A00080E020912F0E822B908B87878091300E95
:1048B000828B8091310E84878091320E8587809122
:1048C000330E86878091340E818B08951F93CF938A
:1048D000DF93EC01162F60E876E089E093E10E9417
:1048E000584664E976E089E093E10E94A945412FAA
:1048F00050E060E070E02AE030E089E093E10E945F
:10490000D145AE014B5E5F4F21E030E0612F82E088
:104910009DE00E94DC2280932310811108C064EB8B
:1049200076E089E093E10E94584680E012C06AEC8C
:1049300076E089E093E10E94A9454091231050E080
:1049400060E070E02AE030E089E093E10E94D14528
:1049500081E0DF91CF911F9108956EED76E089E0BF
:1049600093E10E94584640E157E260E070E082E047
:104970009DE00E94882180932410882399F06AEE9C
:1049800076E089E093E10E94A9454091241050E02F
:1049900060E070E02AE030E089E093E10E94D145D8
:1049A00081E0089580E008950F931F93CF93DF93E4
:1049B000EC0189E093E10E941E4582E09DE00E94A7
:1049C000C71B68EE73E080E090E00E94573240E041
:1049D00050E069ED70E082E09DE00E94711A01E014
:1049E000811101C000E0102F67EC75E089E093E1D0
:1049F0000E94B046602F70E089E093E10E940E466D
:104A00008C8D813061F4011109C082E09DE00E942B
:104A1000331511E0811103C010E001C011E08C8D4D
:104A200081110CC0111109C082E09DE00E945B154C
:104A300011E0811103C010E001C011E011110AC0A2
:104A4000698D82E09DE00E94361891E0811103C0DB
:104A500090E001C091E0892F2E8D213069F49111F1
:104A600009C082E09DE00E947B1591E0811103C0A6
:104A700090E001C091E0892F9E8D91110DC08111B0
:104A800009C082E09DE00E94AC1591E0811103C055
:104A900090E001C091E0892F811142C06B8D82E0CE
:104AA0009DE00E94241B81113BC033C065E082E081
:104AB0009DE00E94961B84EB90E10E945B3F6BE8B7
:104AC00075E084EB90E10E942140C11114C041E0E7
:104AD0006CE08EE093E10E94C64641E06DE08EE01E
:104AE00093E10E94C64668EF76E089E093E10E9478
:104AF000584680E021C066EE75E089E093E10E94AF
:104B0000B04661E070E089E093E10E940E4681E0EA
:104B100013C06D8D82E09DE00E94EA1A882311F097
:104B2000C1E0C4CF6A8D82E09DE00E94631BC1E0BA
:104B30008111BCCFC0E0BACFDF91CF911F910F910F
:104B400008951F93CF93DF93EC01162F60E177E078
:104B500089E093E10E945846AE014A5E5F4F21E032
:104B600030E0612F82E09DE00E94DC2280932210E1
:104B7000811108C06FE277E089E093E10E94584616
:104B800080E012C069E477E089E093E10E94A945E2
:104B90004091221050E060E070E02AE030E089E0CF
:104BA00093E10E94D14581E0DF91CF911F9108955B
:104BB0002EEF35E0FC013183208323E036E03383A0
:104BC0002283089561E276E089E093E10E94354610
:104BD0002DE135E0A90169E276E088EC99E00E94D8
:104BE000DD136AE376E089E093E10E94354688ECC4
:104BF00099E00C943A142F923F924F925F926F92E9
:104C00007F928F929F92AF92BF92CF92DF92EF925C
:104C1000FF920F931F93CF93DF93CDB7DEB7CC5D99
:104C2000D1090FB6F894DEBF0FBECDBF7C016B017A
:104C3000442E67E677E089E093E10E94584688ECCD
:104C400099E00E94720F182F6CE777E089E093E1FA
:104C50000E945846113019F01D3F09F0FAC065E472
:104C600076E089E093E10E94354660E977E089E0EB
:104C700093E10E945846F7016081718188EC99E0C8
:104C80000E944A10813019F464EA77E002C066EBB2
:104C900077E089E093E10E94584644EB50E060E001
:104CA00070E088EC99E00E94990F813009F0CEC045
:104CB00069EC77E089E093E10E9458468601512C27
:104CC00080E098E5292E96E0392E6E01F9ECCF0EA2
:104CD000D11CAA24A394B12CAC0EBD1EB4C0F80103
:104CE0009189992309F4ACC06FEE77E089E093E1F4
:104CF0000E94A945F80181891F928F933F922F92BC
:104D0000DF92CF920E941053F70183818F938281AB
:104D10008F93F8012685822F992787FD90959F9381
:104D20002F932585822F992787FD90959F932F9309
:104D30002485822F992787FD90959F932F938089B3
:104D40008F9387858F9383858F9382858F938185BA
:104D50008F9380858F9387818F9386818F938581B1
:104D60008F9384818F9383818F9382818F938181AD
:104D70008F9380818F9382891F928F93DF92CF923E
:104D800083E696E09F938F93BF92AF920E94105359
:104D90000FB6F894DEBF0FBECDBFB50189E093E139
:104DA0000E943546F70162817381950140E550E02C
:104DB00088EC99E00E94D713813071F46EE078E0BE
:104DC00089E093E10E94584661EC7AE089E093E142
:104DD0000E94354680E034C0682E772467FC7094CA
:104DE000872C972C823FECF463E178E089E093E133
:104DF0000E94A9452AE030E0B401A30189E093E1D3
:104E00000E94D14568E278E089E093E10E94A945DB
:104E10004091BF0A5091C00A60E070E02AE030E0A3
:104E20000AC069E378E089E093E10E94A9452AE09D
:104E300030E0B401A30189E093E10E94D14581E013
:104E400053940D5E1F4F54104ACF0AC06EE478E0B1
:104E500002C069E778E089E093E10E94584681E06A
:104E6000C452DF4F0FB6F894DEBF0FBECDBFDF9147
:104E7000CF911F910F91FF90EF90DF90CF90BF9057
:104E8000AF909F908F907F906F905F904F903F90EA
:104E90002F9008950F931F93CF93DF9300D000D0EE
:104EA000CDB7DEB78C01FC01E45BFF4F4CE350E073
:104EB00060E070E04083518362837383FC01E45AB5
:104EC000FF4F83E08083F801E35AFF4F84E0808343
:104ED000F801E25AFF4F85E08083F801E15AFF4F65
:104EE0001082F801E05AFF4F1082F801EF59FF4F8E
:104EF0001082F801EE59FF4F1082F801ED59FF4F73
:104F00001082B801C8018C599F4F0E940623C80126
:104F10008D579F4F0E94D825C80189579F4F0E94E7
:104F20006806CE0101960E94D8250F900F900F9031
:104F30000F90DF91CF911F910F910895CF9389E04A
:104F400093E10E943E4561E086E00E94A43368EC54
:104F500070E080E090E00E94573282EB90E10E9486
:104F60001438C82F60E086E00E94A43389E093E102
:104F70000E941E458C2FCF9108950F931F93CF93BE
:104F8000DF93EC0140E060E082EB90E10E94993712
:104F90008E0109571F4FC8010E94790660E089E021
:104FA0000E948B3360E087E00E948B3361E086E0F3
:104FB0000E948B33CE010E949E27682FC8010E9459
:104FC000B006CE018D579F4F0E94E225CE018C592D
:104FD0009F4FDF91CF911F910F910C941923DF9276
:104FE000EF92FF920F931F93CF93DF938C01C62F05
:104FF0006FE878E089E093E10E94584664EB78E03E
:1050000089E093E10E94A94583E1D82EEC2EF12C92
:10501000C801DC9E800D911D1124EC014CA150E0D3
:1050200060E070E02AE030E089E093E10E94D14541
:105030006DEC78E089E093E10E94A9454DA150E034
:1050400060E070E02AE030E089E093E10E94D14521
:105050006EED78E089E093E10E94A9454AA15BA149
:10506000662757FD6095762F2AE030E089E093E1CE
:105070000E94D1456CEE78E089E093E10E94A94559
:105080009FEFE91AF90ADE9CF001DF9CF00D112474
:10509000E00FF11F40815181662757FD6095762F03
:1050A0002AE030E089E093E10E94D14567EF78E0A3
:1050B00089E093E10E94A9454D895E89662757FDE5
:1050C0006095762F2AE030E089E093E10E94D14597
:1050D00061E079E089E093E10E94A9454F89588D0C
:1050E000662757FD6095762F2AE030E089E093E14E
:1050F0000E94D1456CE079E089E093E10E94A945E6
:10510000498D5A8D662757FD6095762F2AE030E04D
:1051100089E093E10E94D14566E179E089E093E17D
:105120000E94A9454B8D5C8D662757FD6095762FB3
:105130002AE030E089E093E10E94D14561E279E024
:1051400089E093E10E94A9454D8D5E8D662757FD4C
:105150006095762F2AE030E089E093E10E94D14506
:105160006BE279E089E093E10E94A9454F8D5527D4
:1051700047FD5095652F752F2AE030E089E093E1D7
:105180000E94D14565E379E089E093E10E94A94559
:1051900048A1552747FD5095652F752F2AE030E02F
:1051A00089E093E10E94D1456FE379E089E093E1E2
:1051B0000E94A94549A1552747FD5095652F752F98
:1051C0002AE030E089E093E10E94D14569E479E08A
:1051D00089E093E1DF91CF911F910F91FF90EF90C4
:1051E000DF900C9458468C599F4F0C9466248C5930
:1051F0009F4F0C94AD248C599F4F0C94A1250F9375
:1052000040E06CE08EE093E10E94C64640E06DE035
:105210008EE093E10E94C64602E020E040E06CE0B0
:1052200077E082EB90E10E94F139809175139091C3
:10523000761381FF09C080917513909176138D7F4D
:1052400090937613809375130F910895CF93DF9306
:10525000EC0140E060E082EB90E10E949937CE01E2
:105260008C599F4FDF91CF910C94D424EF92FF92F1
:105270000F931F93CF93DF93EC0180910A029091DB
:105280000B028230910509F483C03CF4009709F4C5
:1052900061C1019709F077C10AC08430910509F412
:1052A000FEC00CF4E0C0059709F06DC13DC189E076
:1052B00093E10E944B4668E177E089E093E10E9428
:1052C000354689E093E10E944B468E010D591F4FF0
:1052D000F8018081FE01E80FF11DE45AFF4F608163
:1052E000CE010E94F328811119C063E377E089E0C1
:1052F00093E10E94B046F8018081C80FD11DC45AC5
:10530000DF4F488150E060E070E02AE030E089E063
:1053100093E10E94D14582E090E031C16FE577E0F2
:1053200089E093E10E9435467E01F0E6EF0EF11C24
:10533000F7018081882309F16FE877E089E093E144
:105340000E943546F7011082F8018081F3E18F9FBA
:10535000C00DD11D11241CA2823041F06FEC77E00A
:1053600089E093E10E943546F8010EC06FE078E0D5
:1053700089E093E10E94354647C065E478E089E022
:1053800093E10E943546F70180818F5F8083FBC0E7
:1053900089E093E10E944B4669E578E089E093E17A
:1053A0000E94354689E093E10E944B46CE010E945F
:1053B000F728811130C06CE678E089E093E10E9423
:1053C00035468E010D591F4FF801808190E00196FE
:1053D00023E1289FB001299F700D11246C0F7D1FC0
:1053E000CE018C599F4F0E941D24F8016081CE018F
:1053F0000E94EF27F8018081823049F41082CE01AB
:1054000089579F4F0E94690683E090E0B8C08F5F84
:10541000F8018083B2C0FE01EE59FF4F80818330D6
:1054200009F0B3CF1082FE01ED59FF4F808193E167
:10543000899FC00DD11D11241CA2823029F38F5FDA
:10544000808381E090E090930B0280930A0265E8EC
:1054500078E089E093E1DF91CF911F910F91FF9068
:10546000EF900C94354689E093E10E944B4664EB43
:1054700078E089E093E10E94354689E093E10E945B
:105480004B46BE016D5E7F4F43E0CE018D579F4F6F
:105490000E94FB25811177C084E090E070C089E014
:1054A00093E10E944B466AEC78E089E093E10E9428
:1054B000354689E093E10E944B46CE0189579F4FC4
:1054C0000E949C068E010D591F4FF8018081FE013C
:1054D000E80FF11DE45AFF4F6081CE010E94FB28C6
:1054E00081110FC0F8018081823041F485E090E0A5
:1054F00090930B0280930A02108245C08F5FF801DF
:1055000045CFCF59DF4F8881843058F01882F80199
:105510008081823009F039CFF801108285E090E077
:105520002EC08F5F88832FC089E093E10E944B4695
:1055300066EE78E089E093E10E94354689E093E1E8
:105540000E944B46CE010E94FF2810920B0210923F
:105550000A0219C089E093E10E944B4667EF78E0A8
:1055600089E093E10E94354689E093E10E944B4631
:10557000CE010E942629811106C081E090E090931F
:105580000B0280930A02DF91CF911F910F91FF9040
:10559000EF90089510922E10E4E6F0E080818F776E
:1055A0008083589A599AE9EBF0E080818E7F80835E
:1055B00080818D7F808381E48093B80085E480932F
:1055C000BC0080E2EFE2F0E1DF01982F1D929A9596
:1055D000E9F7EFE4F0E1DF01982F1D929A95E9F7E2
:1055E000EFE6F0E1DF011D928A95E9F70895613257
:1055F00098F420912E10243089F460932B10FC0134
:105600008FE490E1DC0102C021912D932A2F281B09
:105610002617D0F380E0089581E0089582E0089590
:1056200085EC8093BC0010922E10089558985998DC
:105630008091B90081608093B9008091B900826047
:105640008093B9008091BC0080688093BC008091F9
:10565000BC0080618093BC008091BC008F7B8093F4
:10566000BC008091BC008F7D8093BC008091BC0009
:10567000877F8093BC008091661390916713A091FF
:105680006813B091691386FD14C0809166139091E0
:105690006713A0916813B091691390FD0AC08091BF
:1056A000661390916713A0916813B091691393FFEB
:1056B00004C08091BC008B7F03C08091BC008460DB
:1056C0008093BC008091BC008E7F8093BC00809151
:1056D00064008068809364000895882349F01092E4
:1056E000251010922610109227101092281013C027
:1056F0008091251090912610A0912710B09128102C
:105700000196A11DB11D8093251090932610A093A2
:105710002710B09328108091251090912610A09109
:105720002710B0912810803A9648A140B10560F04A
:105730001092251010922610109227101092281007
:105740000E94CA2A81E0089580E0089585ED809343
:10575000BC0081E00E946D2B08C080E00E946D2B90
:10576000882319F010922E1008958091BC0084FDBA
:10577000F4CFF8CFFF920F931F93CF93DF93182F9F
:10578000062FF72EC42FD22F81E0413208F051C0EE
:105790000E946D2B15C080E00E946D2B882381F044
:1057A00082E080932E108FEF8093291010922D109D
:1057B000C0938F10E02FFF2D6FE270E1DB0107C077
:1057C00080912E108111E7CFEBCF81918D938A2F9D
:1057D000861B8C17D0F3812F90E0880F991F809340
:1057E000901085EE8093BC0081E00E946D2BD1115A
:1057F00005C0809129108F3F59F414C080912E105C
:105800008230B9F780E00E946D2B81110DC0F6CF78
:1058100080912910803251F080912910803341F419
:1058200083E007C080E005C085E003C082E001C0DE
:1058300084E0DF91CF911F910F91FF9008950F9316
:105840001F93CF93DF93082FD62F172FC42F81E0FC
:105850004132E0F50E946D2B1DC080E00E946D2B4F
:105860008823C1F081E080932E108FEF8093291060
:1058700010922D10C0938F10802F90E0880F991FE9
:1058800081608093901085EE8093BC0081E00E943F
:105890006D2B10C080912E108111DFCFE3CF80E0FF
:1058A0000E946D2B882331F08FE290E1ED2FF12FD4
:1058B000DC0107C080912E10813089F3F5CF2D9146
:1058C00021932A2F281B2C17D0F380E0DF91CF9152
:1058D0001F910F9108951F920F920FB60F921124EE
:1058E0000BB60F922F933F934F935F936F937F93DA
:1058F0008F939F93AF93BF93CF93EF93FF93C091F9
:10590000B900C87FC03609F49FC058F5C83209F401
:105910005BC090F4C03109F452C038F4CC2309F4D0
:10592000F2C0C83009F0F3C04AC0C83109F44CC015
:10593000C03209F0ECC05DC0C03409F473C038F463
:10594000C03309F45BC0C83309F0E1C05AC0C035A8
:1059500009F45CC0C83509F46AC0C83409F0D7C07E
:10596000D4C0C83909F4C5C0A8F4C83709F46CC05C
:1059700038F4C83609F468C0C03709F0C8C064C03C
:10598000C83809F4B6C0C03909F464C0C03809F099
:10599000BEC060C0C03B09F484C038F4C03A09F40A
:1059A0006BC0C83A09F0B3C07CC0C03C09F4A5C0C4
:1059B000C83C09F4A2C0C83B09F0A9C087C08091C7
:1059C00090108093BB0013C090912D1080918F1088
:1059D000981708F09AC080912D10E82FF0E0E15D53
:1059E000FF4E90819093BB008F5F80932D1085ECCC
:1059F00081C00E94A62BC093291089C0C093291092
:105A000084C0C09329100E94102B81C080912D105A
:105A10009091BB00E82FF0E0E15DFF4E90838F5F37
:105A200080932D1090912D1080918F105FC08091E8
:105A30002D109091BB00E82FF0E0E15DFF4E9083C8
:105A40008F5F80932D1061C083E080932E101092A1
:105A50002A10CDCF80912A10803208F04AC0809160
:105A60002A109091BB00E82FF0E0E159FF4E90839F
:105A70008F5F80932A10BBCF80912A10803230F440
:105A8000E0912A10F0E0E159FF4E108260912A1057
:105A9000E0919110F091921070E08FE690E10995FD
:105AA0002CC084E080932E1010922C1010922B109A
:105AB000E0919310F0919410099580912B10811131
:105AC00005C081E080932B1010924F1080912C1014
:105AD000E82FF0E0E15BFF4E90819093BB008F5F79
