:100000000C9437030C94C6320C94F7320C942833BA
:100010000C9459330C948A330C94BB330C94EC330A
:100020000C941D340C9466030C9466030C946603C4
:100030000C94F9180C9466030C9466030C945519EF
:100040000C9466030C9466030C9466030C9466038C
:100050000C9466030C9466030C9466030C9430199C
:100060000C9466030C94851C0C9466030C94660334
:100070000C9466030C9466030C9466030C9466035C
:100080000C9466030C9466030C9466030C9466034C
:100090000C94C01C0C9466030C9466030C94C91752
:1000A0000C9466030C9466030C9466030C9466032C
:1000B0000C9466030C9466030C9466030C9466031C
:1000C0000C9466030C9466030C9466030763423633
:1000D000B79BD8A71A39685618AEBAAB558C1D3CD9
:1000E000B7CC5763BD6DEDFD753EF6177231BF009D
:1000F0000000803F08000000BE922449123EABAAD7
:10010000AA2ABECDCCCC4C3E00000080BEABAAAA31
:10011000AA3E00000000BF000000803F0000000079
:1001200000084178D3BB4387D1133D190E3CC3BDB2
:100130004282AD2B3E68EC8276BED98FE1A93E4C5F
:1001400080EFFFBE01C4FF7F3F0000000000536549
:100150007474696E67204368616E6E656C20746F9D
:10016000092731372709092073746174652000530A
:10017000657474696E6720486561646572202074D7
:100180006F092731272009092073746174652000E5
:1001900053657474696E67204D6F6465202020205C
:1001A000746F092731302709092073746174652041
:1001B0000053657474696E672043524320202020E9
:1001C00020746F0927312720090920737461746531
:1001D000200053657474696E67205061636B6574A9
:1001E00020746F20273833272E0909207374617417
:1001F00065200053657474696E6720506F7765726F
:10020000202020746F09274C27200909207374616E
:100210007465200053657474696E6720494420201A
:1002200020202020746F090009092073746174650F
:10023000200073697A65206F662074784461746168
:10024000004368616E6E656C204163746976697401
:1002500079204465746563746564006461746152F7
:10026000657175657374005061636B6574205265C8
:100270006963656976656420005245434549564582
:100280002073746174652000636F6C6C65637444E3
:100290006174610073656E644461746100506163F0
:1002A0006B65742073656E740053454E44207374FF
:1002B00061746500736C6565704D6F64650077618E
:1002C0006B6555500053657474696E6720436861AF
:1002D0006E6E656C2009207374617465200053652F
:1002E0007474696E67204865616465722020746F5C
:1002F0000927312720090920737461746520005390
:10030000657474696E67204D6F64652009092073F8
:1003100074617465200053657474696E672043527C
:100320004320090920737461746520005365747457
:10033000696E67205061636B657420746F2027318C
:100340003030270909207374617465200053657487
:1003500074696E6720506F77657220090920737485
:10036000617465200053657474696E672049442088
:100370000909207374617465200053657474696E93
:10038000677320646F6E6500D903ED0313043A04AC
:100390005A04720480049004A504BB04CC04D8045D
:1003A000DF04FC041A0530053E054E05710577058E
:1003B00057726F6E672074696D6520666F726D612C
:1003C000742E204D757374206265202264643A682F
:1003D000683A6D6D3A73732200416C61726D204D05
:1003E0006F6465206D61746368657320005B4461B0
:1003F00079203A20686F757273203A206D696E75A6
:10040000746573203A207365636F6E64735D202D8D
:100410003E20005B44617465203A20686F757273FA
:10042000203A206D696E75746573203A2073656398
:100430006F6E64735D202D3E20005B486F75727394
:10044000203A206D696E75746573203A2073656378
:100450006F6E64735D202D3E20005B4D696E757478
:100460006573203A207365636F6E64735D202D3E63
:1004700020005B5365636F6E64735D202D3E20002A
:100480004F6E636520706572207365636F6E6400E4
:10049000496E636F727265637420616C61726D2066
:1004A0006D6F6465005B253032753A253032753AE0
:1004B000253032753A253032755D005B2530327556
:1004C0003A253032753A253032755D005B25303281
:1004D000753A253032755D005B253032755D005B05
:1004E000446179203A20686F757273203A206D69F3
:1004F0006E75746573205D202D3E20005B44617431
:1005000065203A20686F757273203A206D696E75A8
:10051000746573205D202D3E20005B486F757273FB
:10052000203A206D696E757465735D202D3E200044
:100530005B4D696E757465735D202D3E20004F6EB6
:10054000636520706572206D696E75746500257332
:100550002C20253032752F253032752F25303275FD
:100560002C20253032753A253032753A25303275D7
:10057000006572726F720025303275256325303246
:100580007525632530327525632530327525632541
:10059000303275256325303275256325303275007C
:1005A000000008090000000000000000000000003A
:1005B000000000000000000000000000000000003B
:1005C000000000000000000000000000000000002B
:1005D0000000000102081010204080040810204094
:1005E0000202040810204080010280204004200103
:1005F0000102040810200140804080010208040824
:10060000800410040201050505050303030301012D
:100610000104040306060606060606060104050193
:10062000050103020202020202010202050504049E
:1006300003040401030407070700202326292C2FA5
:1006400032002225282B2E3134002124272A2D3058
:10065000336364696E6F70737578585B0000740360
:100660008B12712A3F2C632E7931C0372539112422
:100670001FBECFEFD1E2DEBFCDBF12E0A0E0B2E0FF
:10068000EAE4FAE800E00BBF02C007900D92A63D35
:10069000B107D9F71DE0A6EDB2E001C01D92AE375B
:1006A000B107E1F716E0CEE6D6E000E006C02297FB
:1006B0000109FE010BBF0E94F13DCE35D10780E05C
:1006C0000807A9F70E94C71D0C9423450C9400004D
:1006D0008BE397E00E944C2C86ED92E00C941B1368
:1006E00086ED92E00C94371486ED92E00C948F1214
:1006F000FC01118281E0828387E0838340E050EC3B
:1007000064EE70E04483558366837783128A148A8B
:10071000138E8FE08087168A178A108E83E0818F70
:10072000E55EFE4F10828091640990916509A09169
:100730006609B0916709A260809364099093650986
:10074000A0936609B09367090895CF93C62F66E01A
:1007500085E397E00E94B22A61E085E397E00E947A
:10076000B22A61E070E080E090E00E94CC198C2F0A
:100770008F770E942E2C80E0CF910C942E2C1F930B
:10078000CF93DF931F92CDB7DEB7162F66E085E3D8
:1007900097E049830E94B22A61E085E397E00E94D6
:1007A000B22A61E070E080E090E00E94CC19812FD5
:1007B00080680E942E2C4981842F0E942E2C66E096
:1007C00085E397E00F90DF91CF911F910C94B22AAF
:1007D0001F93CF93DF93EC0161E00E94A503182FD4
:1007E0008B8D813041F441E861E0CE010E94BF036E
:1007F0004FEF62E10CC041E061E0CE010E94BF0317
:100800004FEF6EE3CE010E94BF034FEF6FE3CE01C7
:100810000E94BF03412F61E0CE01DF91CF911F9174
:100820000C94BF03CF93DF93EC0140E061E00E94A2
:10083000BF0340E861E0CE010E94BF0341E861E0F0
:10084000CE010E94BF034FEF63E2CE010E94BF03BF
:1008500048E06DE1CE010E94BF0344E76EE1CE01A6
:100860000E94BF0361E0CE010E94A503813821F4FC
:1008700081E08B8F80E002C01B8E81E0DF91CF9101
:100880000895CF93DF93EC018B8D8823E1F06DE128
:10089000CE010E94A5039B81963041F0482F4B7FEB
:1008A0006DE1CE010E94BF0382E001C08FEF9B810A
:1008B000963061F06DE1CE010E94A50382FD05C076
:1008C0001A8A80E003C08FEF01C081E0DF91CF91F1
:1008D0000895CF93DF93EC018B8D8823A1F06DE118
:1008E000CE010E94A503482F44606DE1CE010E9415
:1008F000BF036DE1CE010E94A50382FF06C081E027
:100900008A8B80E003C08FEF01C081E0DF91CF913F
:1009100008951F93CF93DF93EC011B8D113089F461
:100920006DE10E94A503482F42606DE1CE010E9457
:10093000BF036DE1CE010E94A50381FF14C01C8B93
:1009400014C060E30E94A503482F406160E3CE011C
:100950000E94BF0360E3CE010E94A50384FF03C091
:1009600081E08C8B02C081E001C080E0DF91CF91FB
:100970001F910895CF93DF93EC018B8D813089F423
:100980006DE1CE010E94A503482F4D7F6DE1CE01A0
:100990000E94BF036DE1CE010E94A50381FD13C03B
:1009A00010C060E3CE010E94A503482F4F7E60E394
:1009B000CE010E94BF0360E3CE010E94A50384FD27
:1009C00002C01C8A02C081E001C080E0DF91CF91AB
:1009D0000895CF93DF93EC018B8D882391F06EE126
:1009E000CE010E94A503282F30E044E035952795DD
:1009F0004A95E1F72B83265081E0273018F480E0F8
:100A000001C08FEFDF91CF910895CF93DF93EC0179
:100A10008B8D882389F06DE1CE010E94A503282FDC
:100A200030E056E0359527955A95E1F7298381E026
:100A3000233019F080E001C08FEFDF91CF9108954E
:100A4000EF92FF920F931F93CF93DF93EC01062F4A
:100A500061E00E94A503E82E8B8D811105C0CE01B7
:100A60000E941204182FD3C041E861E0CE010E9419
:100A7000BF036DE1CE010E94A503F82E6EE1CE0109
:100A80000E94A503182F0930B1F030F4073069F047
:100A900078F4063009F506C00B3099F078F00C3088
:100AA000D9F415C01F76106619C01F77106720C0D3
:100AB0001F7810681DC01F7910691AC01F7A106A4C
:100AC00017C01F7B106BCE010E94050502C01F7C62
:100AD000106C81E0F82A0CC0063051F4CE010E945F
:100AE000690445E061E3CE010E94BF034CE006C00B
:100AF00043E061E3CE010E94BF034AE067E3CE0119
:100B00000E94BF034F2D6DE1CE010E94BF03412F14
:100B100047606EE1CE010E94BF036DE1CE010E94ED
:100B2000A503182F6EE1CE010E94A5030930C1F183
:100B300038F40730F9F048F5063009F065C008C010
:100B40000B3009F445C0B8F10C3009F05DC04CC061
:100B5000282F30E014E0359527951A95E1F72630D7
:100B6000310511F012E053C082FFFCCF8A89813039
:100B7000C9F74CC0282F30E0B4E035952795BA95D9
:100B8000E1F72730310571F720C0282F30E0A4E0CD
:100B900035952795AA95E1F72830310519F715C045
:100BA000282F30E0F4E035952795FA95E1F72930C4
:100BB0003105C1F60AC0282F30E0E4E035952795CD
:100BC000EA95E1F72A30310569F682FD1FC0CACFE8
:100BD000282F30E074E0359527957A95E1F72B3092
:100BE000310509F0BFCF0BC0282F30E064E0359508
:100BF00027956A95E1F72C30310509F0B3CF82FFD4
:100C0000B1CF10FFAFCF02C011E001C010E04E2DF8
:100C100061E0CE010E94BF03802F8650873010F420
:100C20000B8310E0812FDF91CF911F910F91FF90E7
:100C3000EF900895CF92DF92EF92FF920F931F9360
:100C4000CF93DF931F92CDB7DEB76C018B0161E0CC
:100C50000E94A503E82EF601838D811105C0C6010F
:100C60000E941204F82E02C032E0F32E41E861E047
:100C7000C6010E94BF036DE1C6010E94A503482F73
:100C800001301105A1F020F002301105A9F412C0C5
:100C90004F73C60149830E94E904F601938149819B
:100CA0009B3009F402C09C3039F4416005C04F7795
:100CB000406402C04F7B40686DE1C6010E94BF03E3
:100CC0006DE1C6010E94A50301301105F1F020F08D
:100CD0000230110581F524C0682F70E026E075957B
:100CE00067952A95E1F7672B69F5F60193819B30AB
:100CF00029F4F82EF094F1E0FF2224C09C3009F58D
:100D0000F82EF09481E0F8221DC0282F30E096E004
:100D1000359527959A95E1F72130310599F411C061
:100D2000282F30E086E0359527958A95E1F7223027
:100D3000310541F406C00330110520F0FF24F3947F
:100D400003C0F12CF60101834E2D61E0C6010E9423
:100D5000BF038F2D0F90DF91CF911F910F91FF90C7
:100D6000EF90DF90CF900895FF920F931F93CF9352
:100D7000DF93EC01162F61E00E94A503F82E8B8D06
:100D8000811105C0CE010E941204082F6AC041E8FB
:100D900061E0CE010E94BF036DE1CE010E94A50378
:100DA000123061F018F4113089F405C0133049F0A5
:100DB000143061F409C08F7C886008C0877D806131
:100DC00005C08F7D886102C0877E8062482F6DE1FB
:100DD000CE010E94BF036DE1CE010E94A503123037
:100DE000B1F018F41130D1F505C01330E9F014302A
:100DF000A9F527C0282F30E0E3E035952795EA953F
:100E0000E1F7277033272130310551F127C0282F12
:100E100030E073E0359527957A95E1F72770332711
:100E200022303105D9F41CC0282F30E063E035951D
:100E300027956A95E1F7277033272330310571F440
:100E40000FC0282F30E053E0359527955A95E1F7EC
:100E5000277033272430310509F402C002E001C0B5
:100E600000E0812F8150843010F001E001C01A832E
:100E70004F2D61E0CE010E94BF03802FDF91CF9103
:100E80001F910F91FF9008950F931F93CF93DF93BE
:100E9000EC01062F61E00E94A503182F8B8D8111B4
:100EA00003C0CE010E94120441E861E0CE010E941D
:100EB000BF030530D9F168F4023009F120F40130A4
:100EC00009F049C116C0033001F1043009F043C1F3
:100ED00027C0083009F441C030F4063069F107300A
:100EE00009F039C12FC00930F1F10A3009F033C1DE
:100EF00040C061E0CE010E94B4066CE00BC061E02E
:100F0000CE010E94B4066CE022C061E0CE010E94D6
:100F1000B4066AE0CE010E94200560E070E033C0B4
:100F200061E0CE010E94B4066CE028C061E0CE0111
:100F30000E94B4066AE00BC061E0CE010E94B406D4
:100F40006BE01CC061E0CE010E94B40669E0CE01F6
:100F50000E94200561E070E016C061E0CE010E94B1
:100F6000B40669E00BC061E0CE010E94B40668E0FF
:100F700005C061E0CE010E94B40667E0CE010E9488
:100F8000200562E070E0CE010E941A06E8C0282F1A
:100F900030E043E0359527954A95E1F7213031055A
:100FA00009F0DBC06EE1CE010E94A50390E024E0D1
:100FB000959587952A95E1F701E00C9709F0F4C023
:100FC000C8C0282F30E003E0359527950A95E1F752
:100FD0002930310509F0C1C017C0282F30E0B3E037
:100FE00035952795BA95E1F72130310509F0B5C05F
:100FF00027C0282F30E0A3E035952795AA95E1F783
:101000002131310509F0A9C06EE1CE010E94A5038E
:10101000282F30E0F4E035952795FA95E1F701E0C7
:101020002C30310509F0C0C094C0282F30E0E3E037
:1010300035952795EA95E1F72930310509F08DC0FE
:101040006EE1CE010E94A503282F30E074E03595B3
:1010500027957A95E1F701E02A30310509F0A4C01F
:1010600078C0282F30E063E0359527956A95E1F741
:101070002131310509F071C06EE1CE010E94A50356
:10108000282F30E054E0359527955A95E1F701E097
:101090002B30310509F088C05CC0282F30E043E0D8
:1010A000359527954A95E1F72930310509F055C066
:1010B0000BC0282F30E093E0359527959A95E1F7FE
:1010C0002131310509F049C06EE1CE010E94A5032E
:1010D000282F30E084E0359527958A95E1F701E0E7
:1010E0002930310509F060C034C0282F30E003E01A
:1010F000359527950A95E1F72131310571F56EE1B6
:10110000CE010E94A503282F30E0B4E03595279545
:10111000BA95E1F701E02830310509F045C019C062
:10112000282F30E0A3E035952795AA95E1F72131E6
:10113000310599F46EE1CE010E94A503282F30E01D
:10114000F4E035952795FA95E1F701E02730310570
:1011500059F500E029C00FEF27C001E025C06DE17F
:10116000CE010E94A503053009F45FCF68F4023078
:1011700009F427CF18F4013081F709CF033009F4BF
:101180002CCF043051F735CF083009F492CF30F42A
:10119000063009F466CF073001F77FCF093009F434
:1011A000A4CF0A30D1F6BCCF412F61E0CE010E941E
:1011B000BF03802FDF91CF911F910F91089549397F
:1011C00089ED580782EE6807710509F494C008F0AC
:1011D0004EC0493989E9580788ED6807710509F457
:1011E0008AC0F8F4411580E6580788ED6807710554
:1011F00009F481C038F44C3C5C44684D710509F039
:101200007CC079C0433383E7580788ED68077105D0
:1012100009F471C046365648684D710509F06DC035
:101220006AC04115510589ED6807710509F463C06D
:1012300078F44C3C8CEA580788ED6807710509F48E
:101240005AC04115504C684D710509F056C053C045
:101250004E3185EC580781EE6807710509F44BC0E3
:101260004C355F44624E710509F047C044C04F38A9
:1012700082E0580785EE68077105E9F1D8F444313A
:101280008EEE580783EE68077105A9F130F4473DEB
:101290005346634E710589F52EC0413588E75807DE
:1012A00084EE6807710539F14115504C644E7105A3
:1012B00021F521C0473481EA580786EE6807710599
:1012C000D1F068F44C3C8CE8580785EE680771054E
:1012D00091F04A305741664E710579F40CC045389B
:1012E0008BE2580787EE6807710529F0423C554BA1
:1012F000674E710511F481E0089580E008957F92B2
:101300008F929F92AF92BF92CF92DF92EF92FF9215
:101310000F931F93CF93DF93EC016A017B0161E090
:101320000E94A503782E8B8D813011F441E801C015
:1013300041E061E0CE010E94BF034E2D66E0CE0188
:101340000E94BF034D2D67E0CE010E94BF034C2DCC
:1013500068E0CE010E94BF0366E0CE010E94A503B3
:10136000082F67E0CE010E94A503182F902E812C34
:10137000A12CB12CBA2CA92C982C882468E0CE0181
:101380000E94A503712F60E0082F10E020E030E0FC
:10139000060F171F211D311D080D191D2A1D3B1D8C
:1013A0000C151D052E053F0531F4CC82DD82EE8241
:1013B000FF8210E001C011E0B701A601CE010E943A
:1013C000DF08811101C01FEF472D61E0CE010E94AF
:1013D000BF03812FDF91CF911F910F91FF90EF906D
:1013E000DF90CF90BF90AF909F908F907F900895A7
:1013F0000F931F93CF93DF93EC01162F61E00E94B0
:10140000A503082F8B8D813011F441E801C041E024
:1014100061E0CE010E94BF031C3439F01D3419F085
:10142000183439F404C08FE003C0188602C087E086
:101430008887488569E0CE010E94BF0369E0CE013C
:101440000E94A50311E09885891301C010E0402F88
:1014500061E0CE010E94BF03812FDF91CF911F91E8
:101460000F9108950F931F93CF93DF93EC01162FE5
:1014700061E00E94A503082F1F8F8B8D813061F4DE
:1014800041E861E0CE010E94BF034F8D62E2CE01D0
:101490000E94BF0362E20BC041E061E0CE010E9406
:1014A000BF034F8D62E3CE010E94BF0362E3CE0112
:1014B0000E94A50311E09F8D981301C010E0402FFA
:1014C00061E0CE010E94BF03812FDF91CF911F9178
:1014D0000F910895FC01678570896B5F7F4F0C94B5
:1014E000320A0F931F93CF93DF93EC01162F698B72
:1014F00061E00E94A503082F9B8D9130F9F09111B6
:101500001DC041E061E0CE010E94BF03412F63E3B3
:10151000CE010E94BF0340E064E3CE010E94BF03FE
:1015200063E3CE010E94A503182F402F61E0CE0196
:101530000E94BF0381E09989191301C080E0DF9107
:10154000CF911F910F910895EF92FF920F931F93E8
:10155000CF93DF93EC018B8D25E0E22EF12C00E0A0
:1015600010E0813079F46BE1CE010E94A503895827
:101570008A87080F111D87FD1A9581E0E81AF10886
:1015800091F70FC061E1CE010E94A503282F30E042
:10159000359527952A87020F131F81E0E81AF10875
:1015A00089F7C80165E070E00E94283D6A8780E005
:1015B000DF91CF911F910F91FF90EF9008956630CA
:1015C00020F4FC01618F80E008958FEF08950F9360
:1015D0001F93CF93DF93EC016C31E0F4062F006290
:1015E00061E00E94A503182F8B8D813011F441E832
:1015F00001C041E061E0CE010E94BF03402F6BE0DB
:10160000CE010E94BF03412F61E0CE010E94BF03C3
:1016100080E001C08FEFDF91CF911F910F9108956E
:10162000CF93DF93EC0161E086E10E94D51A61E07F
:1016300086E10E94EE1A81E0809335070E94762AA7
:1016400081E00E94992A84E00E94A72A80E00E94FB
:10165000A22A6BE1CE010E94E70A811105C0CE01EA
:10166000DF91CF910C94120481E0DF91CF91089526
:101670007F928F929F92AF92BF92CF92DF92EF9222
:10168000FF920F931F93CF93DF93EC010E94E80327
:101690008B8D813011F441E801C041E061E0CE0161
:1016A0000E94BF0365E0CE010E94320A782E8111AC
:1016B00065C08E01045E1D4F80E091E0D8019C0161
:1016C0001D9221503040E1F7FE01E35EFE4F808124
:1016D000D8018C934E01B3EE8B1ABDEF9B0AFE012D
:1016E000E45EFE4F8081F40180835E01F2EEAF1A6A
:1016F000FDEFBF0AFE01E25EFE4F8081D5018C93B3
:101700006E01B1EECB1ABDEFDB0AF60110827E014D
:10171000F0EEEF1AFDEFFF0A8F89D7018C9340E0BE
:101720006DE0CE010E94BF0340E06EE0CE010E945A
:10173000BF03F801408160E0CE010E94BF03D401E5
:101740004C9160E0CE010E94BF03F501408160E052
:10175000CE010E94BF03D6014C9160E0CE010E94F1
:10176000BF03F701408160E0CE010E94BF031F8AE2
:1017700064EF71E080E090E00E94CC19872DDF914A
:10178000CF911F910F91FF90EF90DF90CF90BF907E
:10179000AF909F908F907F9008951F93CF93DF938A
:1017A000EC01845E9E4FFC0180E091E0DF019C0132
:1017B0001D9221503040E1F743E461E3CE010E94E5
:1017C000BF0349E06AE0CE010E94BF0343E26CE040
:1017D000CE010E94BF0340E06DE0CE010E94BF0336
:1017E0004FEF6FE1CE010E94BF0340E065E2CE0102
:1017F0000E94BF038B8D813039F46FEFCE010E94C0
:10180000320A182F45E805C0CE010E946A0A182F37
:1018100045E061E0CE010E94BF03812FDF91CF91AF
:101820001F9108958F929F92AF92BF92CF92DF92B5
:10183000EF92FF921F93CF93DF93EC014A015B017C
:101840001B8A0E947A196B017C018B8D813061F5B6
:1018500062E1CE010E94A503182F04C00E947A19EC
:101860006B017C0114FD7DC00E947A196C197D0901
:101870008E099F09681579058A059B0508F447C0FC
:101880007BC00E947A196B017C0111116FC00E940C
:101890007A196C197D098E099F09681579058A05E1
:1018A0009B0508F442C018C06FE3CE010E94A50357
:1018B000182F04C00E947A196B017C0112FD54C0DC
:1018C0000E947A196C197D098E099F09681579059E
:1018D0008A059B05C0F150C08B89813089F48D89C0
:1018E0009989891791F0882381F08B8D813011F4CB
:1018F00041E801C041E061E0CE010E94BF0303C0A6
:101900008B8D8130B9F780E039C081E037C062E16A
:10191000CE010E94A503182F0E947A196C157D052F
:101920008E059F0508F09ECF99CF65E2CE010E94FB
:10193000A503182F0E947A196C157D058E059F0549
:1019400008F0A3CF9ECF6FE3CE010E94A503182F0E
:101950000E947A196C157D058E059F0508F0AECFA3
:10196000A9CF81E08B8B93CF81E08B8B60E0CE01A0
:101970000E94A5038D8BB0CF1B8AAECFDF91CF9194
:101980001F91FF90EF90DF90CF90BF90AF909F900E
:101990008F90089540E157E260E070E00C94120CE3
:1019A0008F929F92AF92BF92CF92DF92EF92FF926F
:1019B0000F931F93CF93DF93EC014A015B010E94C9
:1019C0007A196B017C018B8D813039F562E1CE0192
:1019D0000E94A503182F04C00E947A196B017C0194
:1019E00016FDE4C00E947A196C197D098E099F09C1
:1019F000681579058A059B0508F4BCC002C01F8ADA
:101A000039C015FD06C08C89813019F41F8A12E097
:101A100091C081E08F8B13E08DC06FE3CE010E94F7
:101A2000A503182F04C00E947A196B017C0112FDD6
:101A3000C0C00E947A196C197D098E099F0968152A
:101A400079058A059B0508F4A3C000E005C08C89D0
:101A5000813021F41F8A01E012E004C081E08F8B05
:101A600000E013E041E061E0CE010E94BF030130DD
:101A700009F060C08B8D813069F440E06DE0CE01EB
:101A80000E94BF0360E0CE010E94A503FE01E45E58
:101A9000FE4F12C060E3CE010E94A5038E01045EDA
:101AA0001E4F82FD07C081FD05C060E0CE010E948F
:101AB000A50301C08D89F801808360E0CE010E94FA
:101AC000A503FE01E35EFE4F808360E0CE010E942D
:101AD000A503FE01E25EFE4F808360E0CE010E941E
:101AE000A503FE01E15EFE4F80839B8D913021F4C2
:101AF00090E00597988B8F87E12CF12C0CC0CE01DC
:101B00000E94A503FE01EE0DFF1DE05EFE4F8083E7
:101B1000FFEFEF1AFF0A8F85988960E0E816F90653
:101B200070F3CE010E94A503FE01E55EFD4F8083A8
:101B300010E00CC08F89813041F4888D998D891710
:101B400020F4133011F08F5F888F11E08B8D81307E
:101B500029F440E06DE0CE010E94BF03CE010E9457
:101B6000E80381EE88168EE29806A104B10420F104
:101B70001FEF22C062E1CE010E94A503182F0E9430
:101B80007A196C157D058E059F0508F029CF24CFA5
:101B90006FE3CE010E94A503182F0E947A196C15DD
:101BA0007D058E059F0508F042CF3DCF15FF27CF5D
:101BB00028CF11FD4CCF52CF812FDF91CF911F91B4
:101BC0000F91FF90EF90DF90CF90BF90AF909F90DC
:101BD0008F90089540E157E260E070E00C94D00CE3
:101BE000FC01658B648F8189858F8689868F8F5FE5
:101BF000868B80E008952F923F924F925F926F9272
:101C00007F928F929F92AF92BF92CF92DF92EF928C
:101C1000FF920F931F93CF93DF93CDB7DEB72E972D
:101C20000FB6F894DEBF0FBECDBF2C018B01FC01B7
:101C3000638170E080E090E00E94393A4B015C01E2
:101C4000F201628970E080E090E00E94393A6B8393
:101C50007C838D839E83F201628170E080E090E05E
:101C60000E94393A6F83788789879A8720E030E02D
:101C700040E251E4682D792D8A2D9B2D0E942B3B4B
:101C800018163CF4C12CD12CE0E8EE2EEFE3FE2E2A
:101C900003C0C12CD12C76010115110559F0B801F2
:101CA0006B5F7F4F80E090E00E94393A69837A83CE
:101CB0003C0106C019821A826FE7662E73E4772E04
:101CC000F2018181882391F0813049F0823071F4F2
:101CD000212C312C5AEF452E53E4552E0DC0212CCA
:101CE000312C4AE7442E43E4542E06C0212C312CDB
:101CF0003AEF432E32E4532E282D392D4A2D5B2DF9
:101D000060E070E080E090E40E94923BA2019101CB
:101D10000E94A5398B018E879D8720E030E044E446
:101D200051E4712F0E942F3B362E272E8B879C87E4
:101D300020E030E040E051E4B981AA816B2F7A2F96
:101D4000862D972D0E942F3B2B013C0120E030E097
:101D500040E850E4682D792D8A2D9B2D0E942F3B61
:101D60009B01AC01C301B2010E94293920E030E09F
:101D700040EE51E40E942A3920E030E040E851E48E
:101D80000E942A392B013C0120E030E040EA51E476
:101D9000BB81AC81ED81FE816B2F7A2FCF010E9438
:101DA0002F3B9B01AC01C301B2010E9429392B01D9
:101DB0003C01A7019601C701B6010E942A399B0187
:101DC000AC01682D792D8A2D9B2D0E94293920E0A8
:101DD00030E040E850E40E942F3B9B01AC01C3017E
:101DE000B2010E94A5390E948E396B017C0120E06E
:101DF00030E040E850E4BF81A885B984AA846B2F05
:101E00007A2F8B2D9A2D0E942A399B01AC01C70194
:101E1000B6010E942F3B6B017C0120E030E0A9015C
:101E20007D2D9F2D0E942B3B18165CF420E030E0A6
:101E300040E051E46C2D7D2D8E2D9F2D0E942A397E
:101E400004C060E070E080E091E4FE85ED85202F25
:101E5000312F4F2F5E2F0E942F3B9B01AC01D101F0
:101E6000EB851C856B2F722D8E2F912F0E942A39A6
:101E70002E960FB6F894DEBF0FBECDBFDF91CF9187
:101E80001F910F91FF90EF90DF90CF90BF90AF9098
:101E90009F908F907F906F905F904F903F902F908A
:101EA0000895FC01678570890C94FB0DAF92BF9279
:101EB000CF92DF92EF92FF920F931F93CF93DF9316
:101EC0008C01FC01838DE801C25EDC4F813069F535
:101ED0006881798180E090E00E94393A2DEC3CECF9
:101EE0004CEC5DE30E942F3B20E030E040E85FE3F4
:101EF0000E942A390E940D3A5B01C8010E94510FCD
:101F00006B017C010E94453E8C01C701B6010E9415
:101F10000D3A9B0128513C4FC801B5010E94143D68
:101F2000280F391F3983288304C080E197E2998301
:101F3000888380E0DF91CF911F910F91FF90EF9008
:101F4000DF90CF90BF90AF900895FC01238D2111B9
:101F500009C0278530892D33310520F02CE330E08E
:101F6000308B2787FC0147855089FB0120E030E05A
:101F700008C06191DC01A20FB31F90966C932F5F94
:101F80003F4F24173507A9F70C946A0AEF92FF9286
:101F90000F931F93CF93DF93EC01F62E8A0161E03C
:101FA0000E94A503E82ECE010E94E8038B8D8130AC
:101FB00011F441E801C041E061E0CE010E94BF039D
:101FC0001F8A888D81110DC06F2DCE010E94F00DEA
:101FD000F82E81110FC0B801CE010E94A50FF82E76
:101FE00009C0CE010E946A0AF82EFE01E55EFE4F8E
:101FF000888D808340E06EE0CE010E94BF0340E008
:102000006DE0CE010E94BF03F1102DC04C8D60E049
:10201000CE010E94BF034D8D60E0CE010E94BF0340
:102020004E8D60E0CE010E94BF034F8D60E0CE0177
:102030000E94BF0300E010E009C0E00FF11F40A1C3
:1020400060E0CE010E94BF030F5F1F4F2F853889CC
:10205000FE010217130788F3E55EFE4F408160E042
:10206000CE010E94BF034E2D61E0CE010E94BF034E
:102070008F2DDF91CF911F910F91FF90EF900895D9
:102080008F929F92AF92BF92CF92DF92EF92FF9288
:102090001F93CF93DF93EC014A015B010E947A19F1
:1020A0006B017C018B8D813001F5CE010E94E8032C
:1020B00043E861E0CE010E94BF0362E1CE010E94CD
:1020C000A503182F04C00E947A196B017C0113FD2F
:1020D00028C00E947A196C197D098E099F0968151C
:1020E00079058A059B0530F11CC043E061E0CE0113
:1020F0000E94BF036FE3CE010E94A503182F04C006
:102100000E947A196B017C0113FD0BC00E947A19A1
:102110006C197D098E099F09681579058A059B054B
:10212000B0F0CE010E94E80313FB882780F991E00C
:1021300089271AC062E1CE010E94A503182F0E94D0
:102140007A196C157D058E059F0508F6BCCF6FE3E7
:10215000CE010E94A503182F0E947A196C157D05E7
:102160008E059F0588F6CCCFDF91CF911F91FF9010
:10217000EF90DF90CF90BF90AF909F908F90089599
:10218000CF93DF93EC010E94560FFE01E25EFC4FFD
:102190004081518160E070E0CE01DF91CF910C94DD
:1021A00040100F931F93CF93DF9300D000D0CDB793
:1021B000DEB78C0149835A836B837C830E94CD0BED
:1021C00049815A816B817C8181111AC0C8010E94AA
:1021D000120C8823A9F0C8010E94EA0D882319F087
:1021E000833009F00DC0C8010E94380B811108C06E
:1021F000C8010E94C01091E0811103C090E001C0AD
:1022000091E0892F0F900F900F900F90DF91CF9159
:102210001F910F910895CF93DF93EC012C3F31056F
:1022200028F08BEF90E0988B8F8702C0388B2F8738
:10223000CE010E94C60F811105C0CE01DF91CF9162
:102240000C94C010DF91CF9108958F929F92AF921E
:10225000BF92CF92DF92EF92FF920F931F93CF9393
:10226000DF93EC014A015B010E947A196B017C014A
:102270008B8D8130D9F462E1CE010E94A503182F25
:1022800004C00E947A196B017C01012F007416FDB5
:102290008DC00E947A196C197D098E099F096815F5
:1022A00079058A059B0508F473C080C06FE3CE01F1
:1022B0000E94A503182F04C00E947A196B017C01AB
:1022C000012F047012FD86C00E947A196C197D09D5
:1022D0008E099F09681579058A059B0508F46CC06D
:1022E00079C0112309F448C04E0184EE881A8DEF9D
:1022F000980A8D89F401808360E0CE010E94A503D5
:102300005E01F3EEAF1AFDEFBF0AF501808360E0D6
:10231000CE010E94A5036E01F2EECF1AFDEFDF0A97
:10232000F601808360E0CE010E94A5037E01F1EEFC
:10233000EF1AFDEFFF0AF701808360E0CE010E94F3
:10234000A503FE01E05EFD4F8083F40120819D8D99
:10235000291314C0F50120819C8D291311C0F601A9
:1023600020819E8D29130EC0F701908191110CC020
:1023700081110CC010E038C018E036C017E034C03E
:1023800016E032C015E030C014E02EC013E02CC0BF
:1023900062E1CE010E94A503182F0E947A196C15E4
:1023A0007D058E059F0508F070CF6BCF11E0011100
:1023B00001C010E041E813C06FE3CE010E94A50305
:1023C000182F0E947A196C157D058E059F0508F05F
:1023D00077CF72CF11E0011101C010E041E061E060
:1023E000CE010E94BF037DCFCE010E94E803812F62
:1023F000DF91CF911F910F91FF90EF90DF90CF90E1
:10240000BF90AF909F908F90089540E157E260E0B9
:1024100070E00C942511CF93DF93EC010E940B1117
:10242000811110C0CE010E94CD0B81110BC0CE01D5
:102430000E94CA0C882329F0CE01DF91CF910C9421
:10244000051289E0DF91CF910895DF92EF92FF921C
:102450000F931F93CF93DF93EC01D62E8A0179015E
:1024600081E0288D998D921710F4188E0CC0970179
:10247000A8016D2DCE010E940B12988D9F5F988F41
:10248000882399F3EECFDF91CF911F910F91FF90A9
:10249000EF90DF900895CF92DF92EF92FF92CF936B
:1024A000DF93EC010E947A196B017C0143E26CE03E
:1024B00081EE92E00E94BF0381EE92E00E94E80369
:1024C00081EE92E00E94A40A8B8D813031F447E8BE
:1024D00061E081EE92E00E94BF0362E181EE92E052
:1024E0000E94A503C82F82FF03C08C2F81700CC0EF
:1024F0000E947A196C197D098E099F096031774213
:102500008105910590F7E9CFDF91CF91FF90EF9092
:10251000DF90CF90089581EE92E00C947803FC0157
:10252000148284E687838CE4818781E082878087B8
:102530008AE0858388E086830895AF92BF92CF9228
:10254000DF92EF92FF920F931F93CF93DF93CDB75C
:10255000DEB729970FB6F894DEBF0FBECDBF8BE371
:1025600097E00E944C2C8BE397E00E94932C1A82F8
:1025700019821C821B821E821D826DE072E08BE339
:1025800097E00E94502E8E010F5F1F4FE12CF12C1F
:1025900068011AC08BE397E00E94842CF8018193B4
:1025A00091938F01AC01662757FD6095762F20E04F
:1025B00030E08BE397E00E94E22DC70101965701BE
:1025C0008330910589F07C01F501EE0FFF1FEC0DC2
:1025D000FD1D808191810D9739F08BE397E00E947A
:1025E0006C2C882389F3D6CF89818F838B81888750
:1025F0008D818987CE0107960E94543E182F682F3F
:10260000792F8BE397E00E94492E8BE397E00E949D
:10261000B72D812F29960FB6F894DEBF0FBECDBF20
:10262000DF91CF911F910F91FF90EF90DF90CF90AE
:10263000BF90AF9008950F931F93CF93DF93EC015A
:1026400083E08093120684E0809313068BE397E087
:102650000E944C2C81EE92E00E94100B40E050E072
:1026600069ED70E081EE92E00E947F09182F1C82D4
:102670006EE471E08BE397E00E94F92C612F7727DD
:1026800067FD70958BE397E00E945E2D81EE92E0EE
:102690000E944104082F11E018876FE671E08BE378
:1026A00097E00E94F92C602F772767FD70958BE3E8
:1026B00097E00E945E2D6AE081EE92E00E9444075E
:1026C000082F8AE08D8360E971E08BE397E00E9438
:1026D000F92C602F772767FD70958BE397E00E94B8
:1026E0005E2D81EE92E00E948904082F1A8761EB2B
:1026F00071E08BE397E00E94F92C602F772767FD4C
:1027000070958BE397E00E945E2D6FE081EE92E082
:102710000E94320A182F8FE08F8362ED71E08BE305
:1027200097E00E94F92C612F772767FD70958BE366
:1027300097E00E945E2D6CE481EE92E00E94F80921
:10274000182F8CE4898763EF71E08BE397E00E9498
:10275000F92C612F772767FD70958BE397E00E9436
:102760005E2DCE010E949D128E83682F81EE92E035
:102770000E94710A182F64E172E08BE397E00E94D7
:10278000F92C4E8150E060E070E02AE030E08BE30D
:1027900097E00E94E22D68E272E08BE397E00E94EE
:1027A000F92C65E081EE92E00E94DF0A612F772725
:1027B00067FD70958BE397E00E945E2D111106C0B6
:1027C00041E06CE080E497E00E94662E82EA96E0A9
:1027D0000E94A52668E172E082EA96E00E946B27DB
:1027E00062E372E08BE397E00E94F92C6FE070E007
:1027F0008BE397E00E94852D64EF71E080E090E02C
:102800000E94CC19812FDF91CF911F910F910895D4
:10281000FB01818180930106808180930206838180
:102820008093030682818093040685818093050648
:102830008481809306068781809307068681809332
:102840000806818580930906808580930A06838522
:1028500080930B06828580930C06858580930D06F8
:10286000848580930E06868580930F0608950F93C6
:102870001F93CF93DF93EC0100910A0210910B029A
:102880000230110509F495C044F40115110509F150
:102890000130110509F0D7C140C00430110509F419
:1028A000BDC02CF00530110509F0CDC1EEC081EEA0
:1028B00092E00E944B12882309F4C5C161E472E0E2
:1028C0008BE397E00E94C42D10920B0210920A0233
:1028D000BAC16BE572E08BE397E00E94C42D40E142
:1028E00057E260E070E081EE92E00E94D1108093A8
:1028F0001106811109C067E672E08BE397E00E9440
:10290000C42D81E090E0BCC069E772E08BE397E002
:102910000E94F92C4091110674C068E872E08BE3C4
:1029200097E00E94C42D80EA96E00E945E1F80938B
:10293000220684E690E0909321068093200610936F
:1029400015060093140622E030E03093170620931A
:10295000160683E090E09093190680931806109372
:102960001B0600931A0630931D0620931C069093B5
:102970001F0680931E0664E176E0CE010E940814D3
:1029800061E872E08BE397E00E94A12DC1E0D6E000
:10299000499150E060E070E020E130E08BE397E0A7
:1029A0000E94212D86E0C031D80791F782E090E0A7
:1029B00067C064E972E08BE397E00E94C42D2FE0CA
:1029C00030E041E056E062E081EE92E00E942512A4
:1029D00080931006811109C06DE972E08BE397E0E6
:1029E0000E94C42D84E090E04BC010920B02109224
:1029F0000A0269EA72E08BE397E00E94F92C4091A9
:102A0000100650E060E070E02AE030E08BE397E0F1
:102A1000DF91CF911F910F910C94212D64EB72E007
:102A20008BE397E00E94C42D6CE372E08BE397E0A8
:102A30000E94A12D40E06DE080E497E00E94662EA8
:102A400040E06CE080E497E00E94662E03E020E026
:102A500040E065E972E080EA96E00E943B218091C7
:102A600073099091740981FF09C080917309909155
:102A700074098D7F909374098093730985E090E0C9
:102A800090930B0280930A02DEC08BE397E00E94D2
:102A90004C2C6EEB72E08BE397E00E94C42D81EE2C
:102AA00092E00E94100B40E050E069ED70E081EE92
:102AB00092E00E947F09182F65EC72E08BE397E0AB
:102AC0000E94F92C612F772767FD70958BE397E0C3
:102AD0000E945E2D8885813029F481EE92E00E946B
:102AE0004104182F8885811105C081EE92E00E9473
:102AF0006904182F6EED72E08BE397E00E94F92CC9
:102B0000612F772767FD70958BE397E00E945E2D1C
:102B10006D8181EE92E00E944407182F6FEF72E002
:102B20008BE397E00E94F92C612F772767FD709562
:102B30008BE397E00E945E2D8A85813029F481EE37
:102B400092E00E948904182F8A85811105C081EEC8
:102B500092E00E94BA04182F66E173E08BE397E0DD
:102B60000E94F92C612F772767FD70958BE397E022
:102B70000E945E2D6F8181EE92E00E94320A182F32
:102B80006CE273E08BE397E00E94F92C612F7727CA
:102B900067FD70958BE397E00E945E2D698581EE5D
:102BA00092E00E94F809182F6DE473E08BE397E040
:102BB0000E94F92C612F772767FD70958BE397E0D2
:102BC0000E945E2D6E8181EE92E00E94710AC82FF4
:102BD00065E673E08BE397E00E94F92C6C2F772772
:102BE00067FD70958BE397E00E945E2D65E081EEB6
:102BF00092E00E94DF0A82EA96E00E94A52668E140
:102C000072E082EA96E00E946B27C1111CC041E08D
:102C10006DE080E497E00E94662E41E06CE080E485
:102C200097E00E94662E83E090E090930B028093E1
:102C30000A026AE773E08BE397E0DF91CF911F917F
:102C40000F910C94C42DDF91CF911F910F91089596
:102C500010922C06E4E6F0E080818F778083589A0A
:102C6000599AE9EBF0E080818E7F808380818D7FAF
:102C7000808381E48093B80085E48093BC0080E287
:102C8000EDE2F6E0DF01982F1D929A95E9F7EDE469
:102C9000F6E0DF01982F1D929A95E9F7EDE6F6E050
:102CA000DF011D928A95E9F70895613298F4209129
:102CB0002C06243089F460932906FC018DE496E00B
:102CC000DC0102C021912D932A2F281B2617D0F357
:102CD00080E0089581E0089582E0089585EC809376
:102CE000BC0010922C060895589859988091B9000C
:102CF00081608093B9008091B90082608093B900AF
:102D00008091BC0080688093BC008091BC00806191
:102D10008093BC008091BC008F7B8093BC0080912D
:102D2000BC008F7D8093BC008091BC00877F809326
:102D3000BC008091640990916509A0916609B091E9
:102D4000670986FD14C08091640990916509A0917E
:102D50006609B091670990FD0AC08091640990915D
:102D60006509A0916609B091670993FF04C080913D
:102D7000BC008B7F03C08091BC0084608093BC004A
:102D80008091BC008E7F8093BC008091640080683D
:102D9000809364000895882349F0109223061092CE
:102DA0002406109225061092260613C08091230651
:102DB00090912406A0912506B09126060196A11DAA
:102DC000B11D8093230690932406A0932506B0930B
:102DD00026068091230690912406A0912506B091A5
:102DE0002606803A9648A140B10560F0109223066D
:102DF0001092240610922506109226060E9428168C
:102E000081E0089580E0089585ED8093BC0081E025
:102E10000E94CB1608C080E00E94CB16882319F0D0
:102E200010922C0608958091BC0084FDF4CFF8CF59
:102E3000FF920F931F93CF93DF93182F062FF72E38
:102E4000C42FD22F81E0413208F051C00E94CB162E
:102E500015C080E00E94CB16882381F082E0809329
:102E60002C068FEF8093270610922B06C0938D06B9
:102E7000E02FFF2D6DE276E0DB0107C080912C068C
:102E80008111E7CFEBCF81918D938A2F861B8C1711
:102E9000D0F3812F90E0880F991F80938E0685EEE6
:102EA0008093BC0081E00E94CB16D11105C08091B7
:102EB00027068F3F59F414C080912C068230B9F751
:102EC00080E00E94CB1681110DC0F6CF80912706BD
:102ED000803251F080912706803341F483E007C0AF
:102EE00080E005C085E003C082E001C084E0DF919E
:102EF000CF911F910F91FF9008950F931F93CF9340
:102F0000DF93082FD62F172FC42F81E04132E0F531
:102F10000E94CB161DC080E00E94CB168823C1F012
:102F200081E080932C068FEF8093270610922B066A
:102F3000C0938D06802F90E0880F991F8160809349
:102F40008E0685EE8093BC0081E00E94CB1610C0F7
:102F500080912C068111DFCFE3CF80E00E94CB1659
:102F6000882331F08DE296E0ED2FF12FDC0107C0D0
:102F700080912C06813089F3F5CF2D9121932A2F52
:102F8000281B2C17D0F380E0DF91CF911F910F9178
:102F900008951F920F920FB60F9211240BB60F9245
:102FA0002F933F934F935F936F937F938F939F9351
:102FB000AF93BF93CF93EF93FF93C091B900C87FB6
:102FC000C03609F49FC058F5C83209F45BC090F4CC
:102FD000C03109F452C038F4CC2309F4F2C0C8302F
:102FE00009F0F3C04AC0C83109F44CC0C03209F03E
:102FF000ECC05DC0C03409F473C038F4C03309F4C8
:103000005BC0C83309F0E1C05AC0C03509F45CC0E8
:10301000C83509F46AC0C83409F0D7C0D4C0C8396B
:1030200009F4C5C0A8F4C83709F46CC038F4C83630
:1030300009F468C0C03709F0C8C064C0C83809F4D2
:10304000B6C0C03909F464C0C03809F0BEC060C061
:10305000C03B09F484C038F4C03A09F46BC0C83AE4
:1030600009F0B3C07CC0C03C09F4A5C0C83C09F459
:10307000A2C0C83B09F0A9C087C080918E0680938A
:10308000BB0013C090912B0680918D06981708F015
:103090009AC080912B06E82FF0E0E35DF94F908114
:1030A0009093BB008F5F80932B0685EC81C00E94BC
:1030B0000417C093270689C0C093270684C0C09315
:1030C00027060E946E1681C080912B069091BB004E
:1030D000E82FF0E0E35DF94F90838F5F80932B063C
:1030E00090912B0680918D065FC080912B06909168
:1030F000BB00E82FF0E0E35DF94F90838F5F809392
:103100002B0661C083E080932C0610922806CDCF59
:1031100080912806803208F04AC08091280690915C
:10312000BB00E82FF0E0E359F94F90838F5F809365
:103130002806BBCF80912806803230F4E091280623
:10314000F0E0E359F94F108260912806E0918F0674
:10315000F091900670E08DE696E009952CC084E031
:1031600080932C0610922A0610922906E09191066F
:10317000F0919206099580912906811105C081E0A0
:103180008093290610924D0680912A06E82FF0E0E0
:10319000E35BF94F90819093BB008F5F80932A0689
:1031A00090912A0680912906981708F47ECF85E829
:1031B0008093BC000AC085EC8093BC0010922C0662
:1031C00004C0109227060E940417FF91EF91CF913F
:1031D000BF91AF919F918F917F916F915F914F912F
:1031E0003F912F910F900BBE0F900FBE0F901F902D
:1031F00018951F920F920FB60F9211240BB60F92D3
:103200002F933F934F935F936F937F938F939F93EE
:10321000AF93BF93EF93FF93F89481E080930C02F8
:10322000E0E6F0E080818068808380818F7B80830E
:1032300060E083E00E94EE1A7894FF91EF91BF91D5
:10324000AF919F918F917F916F915F914F913F913E
:103250002F910F900BBE0F900FBE0F901F901895DF
:103260001F920F920FB60F9211248F939F93AF93DB
:10327000BF938091760990917709A0917809B091D8
:1032800079090196A11DB11D809376099093770964
:10329000A0937809B0937909BF91AF919F918F91D5
:1032A0000F900FBE0F901F9018951F920F920FB6A0
:1032B0000F9211248F939F93AF93BF9380917A09BC
:1032C00090917B09A0917C09B0917D090196A11D87
:1032D000B11D80937A0990937B09A0937C09B093E8
:1032E0007D09BF91AF919F918F910F900FBE0F906D
:1032F0001F9018958F929F92AF92BF92CF92DF92BC
:10330000EF92FF920F931F93CF93DF932FB7F89411
:103310008091760990917709A0917809B091790907
:103320002FBF9C01AD0160E070E080E090E001E023
:103330000E94D93D4901D42FC52FB62FA72FF82FB2
:10334000E92F02E00E94D93D59016A017B018C01FD
:1033500094014D2F5C2F6B2F7A2F8F2F9E2F0E9461
:10336000E83DE9E0AE2EB12CC12CD12CE12CF12CA2
:1033700000E010E00E947C3D952FB901842FDF9181
:10338000CF911F910F91FF90EF90DF90CF90BF9062
:10339000AF909F908F9008958F929F92AF92BF921F
:1033A000CF92DF92EF92FF924B015C0107C00E9427
:1033B0007A196C157D058E059F0520F40E947A19F7
:1033C0006B017C010E947A196C197D098E099F0995
:1033D000681579058A059B0550F3FF90EF90DF9003
:1033E000CF90BF90AF909F908F900895BC010497AD
:1033F00068F080E090E00E94393A26E636E646EE34
:103400005FE30E942F3B0E940D3A02C0660F771FB8
:103410006150710961F06150710949F0FB01EE0FD3
:10342000FF1F31978FB7F8943197F1F78FBF089549
:10343000789484B7877F84BF1092760910927709B9
:10344000109278091092790984B5826084BD84B5A0
:10345000816084BD85B5826085BD85B5816085BD8F
:10346000EEE6F0E0808181608083E1E8F0E0808139
:1034700082608083808181608083E0E8F0E08081E9
:1034800081608083E1EBF0E0808184608083E1E90A
:10349000F0E0808184608083E0EBF0E080818160F7
:1034A0008083E0E9F0E0808181608083E4E6F0E001
:1034B00080818E7F8083ECE7F0E080818F7780834E
:1034C000808180648083EAE7F0E08081846080838B
:1034D0008081826080838081806880831092C100B7
:1034E0001092C900089590919306982B909393069B
:1034F00080FF32C0809164008E7F80936400809151
:103500007C008F7780937C0080917C008064809326
:103510007C0080917A00846080937A0080917A00A8
:10352000826080937A0080917A00806880937A002C
:10353000809164008F7780936400809164008B7F1A
:1035400080936400809164008D7F809364008091FB
:1035500065008E7F809365000895282F20959091B7
:10356000930692239093930680FF1EC080917A0069
:103570008F7780937A0080916400816080936400EB
:10358000809164008068809364008091640084600E
:1035900080936400809164008260809364008091D5
:1035A0006500816080936500089590E0FC01ED5214
:1035B000FA4F2491FC01EA5FF94FE491EE2369F0A0
:1035C000F0E0E75BF94FA491B0E08C91611103C08A
:1035D0002095822301C0822B8C93089590E0FC01FA
:1035E000E056FA4F2491FC01ED52FA4F3491FC0160
:1035F000EA5FF94F84918823B1F1222331F123301E
:1036000021F4909180009F7705C0243031F490918F
:1036100080009F7D9093800018C0213019F494B5EC
:103620009F7704C0223021F494B59F7D94BD0DC0D6
:10363000263021F49091B0009F7705C0273029F4FF
:103640009091B0009F7D9093B000E82FF0E0EF5B89
:10365000F94FA491B0E08C91611103C030958323A0
:1036600001C0832B8C93089590E0FC01E056FA4F43
:103670002491FC01ED52FA4F3491FC01EA5FF94FBD
:103680008491882399F1222331F1233021F4909100
:1036900080009F7705C0243031F4909180009F7D99
:1036A0009093800018C0213019F494B59F7704C01E
:1036B000223021F494B59F7D94BD0DC0263021F4B5
:1036C0009091B0009F7705C0273029F49091B00009
:1036D0009F7D9093B000E82FF0E0E75CF94FE49114
:1036E000F0E08081832321E030E011F420E030E03D
:1036F000C9010895CF92DF92EF92FF926B017C0196
:10370000411134C088E00E94731AC701B60122E05B
:1037100030E040E050E00E945E3D305F414F5F4F3F
:10372000CA01B901A70196010E945E3DDA01C901F3
:103730000197A109B109892F9A2FAB2FBB27A7FDAC
:10374000BA958093C50021502093C4008091C10098
:1037500080618093C1008091C10088608093C10026
:103760008091C10080688093C10033C080E10E94D5
:10377000731AC701B60122E030E040E050E00E9439
:103780005E3D305F414F5F4FCA01B901A70196010D
:103790000E945E3DDA01C9010197A109B109892F93
:1037A0009A2FAB2FBB27A7FDBA958093CD00215050
:1037B0002093CC008091C90080618093C9008091E2
:1037C000C90088608093C9008091C9008068809397
:1037D000C900FF90EF90DF90CF90089581110EC047
:1037E00088E00E94AD1A8091C1008F7E8093C10055
:1037F0008091C100877F8093C100089580E10E947D
:10380000AD1A8091C9008F7E8093C9008091C90054
:10381000877F8093C9000895611107C09091C0000F
:1038200095FFFCCF8093C60008959091C80095FF46
:10383000FCCF8093CE00089581110AC080919A0632
:1038400090919B069E5F209198063091990609C041
:1038500080919606909197069E5F209194063091F4
:103860009506821B930B60E072E00E94283D08954C
:10387000811119C0809198069091990620919A061D
:1038800030919B062817390741F1FC01E258F44FAB
:103890002081019660E072E00E94283D9093990695
:1038A0008093980618C08091940690919506209177
:1038B0009606309197062817390779F0FC01E258EF
:1038C000F64F2081019660E072E00E94283D9093BF
:1038D00095068093940630E002C02FEF3FEFC901B8
:1038E0000895811109C010929906109298061092BD
:1038F0009B0610929A0608951092950610929406CF
:10390000109297061092960608951F920F920FB686
:103910000F9211242F933F934F935F936F937F9355
:103920008F939F93AF93BF93EF93E091C600209145
:103930009A0630919B06C901019660E072E00E94F0
:10394000283D40919806509199068417950741F0BB
:10395000D901A258B44FEC9390939B0680939A069A
:10396000EF91BF91AF919F918F917F916F915F91F7
:103970004F913F912F910F900FBE0F901F90189570
:103980001F920F920FB60F9211242F933F934F93D4
:103990005F936F937F938F939F93AF93BF93EF93B7
:1039A000E091CE002091960630919706C9010196CC
:1039B00060E072E00E94283D409194065091950687
:1039C0008417950741F0D901A258B64FEC93909314
:1039D000970680939606EF91BF91AF919F918F913B
:1039E0007F916F915F914F913F912F910F900FBEFB
:1039F0000F901F9018950C940C1CCF93C82F682F14
:103A00008DE00E940C1C6C2F8AE0CF910C940C1C52
:103A10001F93CF93DF93162FEC0103C0612F0E94F9
:103A20000C1C89918111FACFDF91CF911F910895DC
:103A30004F925F926F927F928F929F92AF92BF92BE
:103A4000CF92DF92EF92FF920F93CF93DF93CDB798
:103A5000DEB7A0970FB6F894DEBF0FBECDBF290129
:103A60003A016115710581059105C9F4602F80E364
:103A7000A0960FB6F894DEBF0FBECDBFDF91CF91F9
:103A80000F91FF90EF90DF90CF90BF90AF909F90FD
:103A90008F907F906F905F904F900C940C1CEE2451
:103AA000E394F12CEC0EFD1E812C912C5401A3010A
:103AB00092010E943C3DF70161937F01FFEF8F1A55
:103AC0009F0AAF0ABF0AB901CA01611571058105D4
:103AD000910569F7CC24CA94DC2C7601C80CD91C5A
:103AE000EA1CFB1C14C0E1E0F0E0EC0FFD1FEC0D44
:103AF000FD1D80818A3010F4805D01C0895C602FDB
:103B00000E940C1C81E0C81AD108E108F108EFEF0F
:103B1000CE16DE06EE06FE0631F7A0960FB6F89436
:103B2000DEBF0FBECDBFDF91CF910F91FF90EF9021
:103B3000DF90CF90BF90AF909F908F907F906F90CD
:103B40005F904F900895CF92DF92EF92FF920F9384
:103B50006B017C01042F97FF0CC0642F8DE20E9443
:103B60000C1CF094E094D094C094C11CD11CE11CB6
:103B7000F11C2AE030E040E050E0C701B6010E94AD
:103B8000181D0F91FF90EF90DF90CF9008950E9445
:103B9000181A80E497E00E94DA2F853440F061E043
:103BA00081E30E94D51A61E081E30E94EE1A61E090
:103BB00070E080E497E00E94B62E8130B1F48091ED
:103BC000640990916509A0916609B09167099068B0
:103BD0008093640990936509A0936609B09367097F
:103BE00060E081E090E00E94F44387E20E94341B91
:103BF000892B59F160E070E080E497E00E94B62ED6
:103C00008A3019F5C1C06CE3629FA001639F500D1B
:103C10001124840F951F0EC02115310559F06CE356
:103C2000629FA001639F500D11249A01205F314FC4
:103C3000820F931F039748F4809173099091740940
:103C40008062909374098093730982EA96E00E94DF
:103C5000A52682EA96E00E94662682EA96E00E9405
:103C6000752682EA96E00E942D2263E070E080E0F3
:103C700090E00E94CC198091640990916509A0910F
:103C80006609B0916709A1FF5EC063E070E080E063
:103C900090E00E94CC1961E086E10E94D51A63E0B1
:103CA00070E080E090E00E94CC1961E086E10E9423
:103CB000EE1A63E070E080E090E00E94CC190E9470
:103CC000762A63E070E080E090E00E94CC1981E009
:103CD0000E94992A63E070E080E090E00E94CC1995
:103CE00084E00E94A72A63E070E080E090E00E94F8
:103CF000CC1980E00E94A22A63E070E080E090E0AE
:103D00000E94CC190E94952A63E070E080E090E068
:103D10000E94CC1966E085E397E00E94B22A63E036
:103D200070E080E090E00E94CC1961E086E10E94A2
:103D3000D51A60E086E10E94EE1A63E070E080E050
:103D400090E00E94CC1963E070E080E090E00E9477
:103D5000CC1980E497E00E94B42F60939C06709386
:103D60009D0680939E0690939F0680919C0690915D
:103D70009D06A0919E06B0919F060E94493E0E941A
:103D800068030E947003FDCF82EA96E00E94A52698
:103D900082EA96E00E94F72482EA96E00E94EC24F0
:103DA0008091BB0690E02091BD06821B9109209175
:103DB000BA0630E04091BE06241B310912161306E4
:103DC0000CF421CF29CF1F93CF93DF931F92CDB750
:103DD000DEB7162F61E08AE149830E94D51A61E0BF
:103DE00088E10E94D51A4981112321F0113009F090
:103DF00048C020C041110EC061E08AE10E94EE1A65
:103E00008091640990916509A0916609B091670954
:103E100082602FC04130A9F560E08AE10E94EE1A6D
:103E20008091640990916509A0916609B091670934
:103E30008D7F1FC041110EC061E088E10E94EE1A23
:103E40008091640990916509A0916609B091670914
:103E500081600FC04130A9F460E088E10E94EE1A51
:103E60008091640990916509A0916609B0916709F4
:103E70008E7F8093640990936509A0936609B0933F
:103E800067090F90DF91CF911F91089580917A007B
:103E9000806880937A0060FF10C061E08AE10E9430
:103EA000D51A61E08AE10E94EE1A61E088E10E9481
:103EB000D51A61E088E10C94EE1A08950F931F93D0
:103EC000CF93DF9361E089E10E94D51A61E089E137
:103ED0000E94EE1A61E070E080E090E00E94CC1950
:103EE00080E00E947535BC01882777FD8095982F6A
:103EF0000E943B3A8B01D82FC92F20E030E040E0F0
:103F000054E4FE01712F8F2F9E2F0E94A13987FF4D
:103F100006C060E089E10E94EE1AC0E055C020E0D2
:103F200030EC42E254E4FE01602F712F8F2F9E2F60
:103F30000E942B3B181634F460E089E10E94EE1ACF
:103F4000C4E642C020E030EC42E254E4FE01602FBF
:103F5000712F8F2F9E2F0E94A1391816ECF020E0B0
:103F600030EC47E054E4FE01602F712F8F2F9E2F1D
:103F70000E942B3B181684F425E535E545E55FE303
:103F8000FE01602F712F8F2F9E2F0E942F3B20E06C
:103F900030E04DED53E40FC020E030E040EA5EE356
:103FA000FE01602F712F8F2F9C2F0E942F3B20E04E
:103FB00030E040E253E40E9429390E940D3AC62FB6
:103FC00060E089E10E94EE1A8C2FDF91CF911F9162
:103FD0000F91089561E089E20E94D51A61E088E2BC
:103FE0000E94D51A81E497E00C9428300F931F9318
:103FF000CF93DF93EC01162F61E081E30E94D51A85
:1040000060E081E30E94EE1A61E089E20E94D51A25
:1040100060E089E20E94EE1A61E088E20E94D51A0F
:1040200060E088E20E94EE1A80917A008F77809398
:104030007A0061E08DE10E94D51A60E08DE10E9476
:10404000EE1A61E08BE10E94D51A60E08BE10E94DC
:10405000EE1A61E082E20E94D51A60E082E20E94DC
:10406000EE1A012F017010FF0EC041E060E080EAFF
:1040700096E00E94E31E41E061E080EA96E00E9443
:10408000E31E1092480780E00E94EE1B11FF19C04A
:1040900061E086E10E94D51A60E086E10E94EE1A96
:1040A00040916409509165096091660970916709B2
:1040B0004B7F409364095093650960936609709340
:1040C000670981E00E94EE1B0023A1F08091640942
:1040D00090916509A0916609B091670990FD0AC0A9
:1040E0008091640990916509A0916609B091670972
:1040F00091FF72C082EA96E00E94F42161E080E3C1
:104100000E94D51A60E080E30E94EE1ACE010E9460
:10411000EA1F61E089E10E94D51A60E089E10E940E
:10412000EE1A409164095091650960916609709199
:10413000670944FF15C040E060E0CE010E94E31E25
:1041400061E08AE00E94D51A61E089E00E94D51AF8
:1041500061E08AE00E94EE1A61E089E00E94EE1AB6
:104160008091640990916509A0916609B0916709F1
:1041700086FF04C060E089E00E94EE1A8091640925
:1041800090916509A0916609B091670985FF18C0F3
:1041900060E084E00E94EE1A60E082E00E94EE1A85
:1041A00060E087E00E94EE1A60E08AE00E94EE1A6A
:1041B00060E086E00E94EE1A60E08EE00E94EE1A57
:1041C00060E08BE20E94D51A60E08BE2DF91CF9134
:1041D0001F910F910C94EE1A61E086E00E94D51AAF
:1041E00060E086E00E94EE1A85CF61E08DE20E94D9
:1041F000D51A60E08DE20E94EE1A87E20E94341B1D
:10420000892B41F082EA96E00E94A52682EA96E098
:104210000E948F2686E20E94341B019721F58FE9C8
:1042200097E00E94BC378091A407823071F018F4A7
:104230008130C9F405C0833069F08430A1F40FC027
:104240008FE997E00E9489370EC08FE997E00E94BE
:10425000E73609C08FE997E00E94793604C08FE9FC
:1042600097E00E943E3660E08BE20E94D51A60E043
:104270008BE20C94EE1ACF92DF92EF92FF920F93A3
:104280001F93CF93DF93EC017B01D42EC22E80E4E9
:1042900097E00E949E2E61E08DE20E94D51A60E0B8
:1042A0008DE20E94EE1A602FCE010E94F61F64E696
:1042B00070E080E090E00E94CC191BE00DC061E04E
:1042C00070E080E090E00E94CC1980EA96E00E94C5
:1042D000F520115009F47FC08BE20E94341B019736
:1042E00071F382EA96E00E94A5262C2D4D2DB70190
:1042F00082EA96E00E949329D090C006E090BF0623
:10430000F090BE061091BD0682EA96E00E94F72466
:104310008091C006D8120CC08091BF06E81208C078
:104320008091BE06F81204C08091BD06181781F076
:1043300082EA96E00E94662682EA96E0DF91CF91BB
:104340001F910F91FF90EF90DF90CF900C942D2252
:1043500082EA96E00E942D2283B7817F846083BF2A
:1043600083B7816083BF83B7816083BF889583B73C
:104370008E7F83BF83B78E7F83BF602FCE010E9465
:10438000461F82EA96E00E94A52682EA96E00E94F5
:10439000662682EA96E00E948F2682EA96E00E94D4
:1043A0002D2200FF18C061E08AE10E94D51A60E06A
:1043B0008AE10E94EE1A61E088E10E94D51A60E06D
:1043C00088E1DF91CF911F910F91FF90EF90DF90E7
:1043D000CF900C94EE1ADF91CF911F910F91FF9027
:1043E000EF90DF90CF90089580914707882341F0A8
:1043F0008091A307811104C080EA96E00C94EA1F23
:1044000008950F931F93CF93DF93EC01042F68A7B8
:1044100061E080E30E94D51A18A5112379F01130CC
:1044200091F461E080E30E94EE1A013019F482E019
:104430008B8B09C0011107C01B8B05C060E080E3B6
:104440000E94EE1A1B8A6AE070E080E090E0DF9143
:10445000CF911F910F910C94CC19CF93DF93EC0166
:104460000E94F42140E060E0CE01DF91CF910C94F6
:104470000122FC01148A158A168A178A108E118E61
:10448000128E138E148E158E168E178E10A211A2F8
:1044900012A213A214A215A216A217A20895EF92B7
:1044A000FF920F931F93CF93DF93CDB7DEB7EC97B7
:1044B0000FB6F894DEBF0FBECDBF8C01EAEAF3E081
:1044C00085919491BC01EE24E394F12CEC0EFD1E39
:1044D000C7010E94723EECEAF3E085919491BC0121
:1044E000CE0189960E94723EF8018689843009F4D3
:1044F00066C040F4823029F108F04BC0813009F0E9
:10450000B6C009C0863009F486C008F46EC0873092
:1045100009F0ADC096C0F801818D1F928F93808DF8
:104520001F928F9387891F928F93828D1F928F93F3
:1045300085891F928F9384891F928F9381EA92E0DD
:1045400015C0F801818D1F928F93808D1F928F93DC
:1045500087891F928F93828D1F928F9385891F92D7
:104560008F9384891F928F9385EA92E09F938F9314
:10457000FF92EF921F9284E68F93C80189969F93D2
:104580008F930E94A63E0FB6F894DEBF0FBECDBF3C
:1045900081C0F801818D1F928F93808D1F928F9320
:1045A00087891F928F93828D1F928F9385891F9287
:1045B0008F9384891F928F9389EA92E0D7CFF80175
:1045C000818D1F928F93808D1F928F9387891F9269
:1045D0008F93828D1F928F9385891F928F938489E9
:1045E0001F928F938DEA92E0C1CFF801818D1F92C7
:1045F0008F93808D1F928F9387891F928F93828DC7
:104600001F928F9385891F928F9384891F928F9316
:1046100081EB92E0ABCFF801818D1F928F93808D5B
:104620001F928F9387891F928F93828D1F928F93F2
:1046300085891F928F9384891F928F9385EB92E0D7
:1046400095CFF801818D1F928F93808D1F928F934C
:1046500087891F928F93828D1F928F9385891F92D6
:104660008F9384891F928F9389EB92E07FCFCE0145
:1046700089969F938F931F9284E68F93C8018996A2
:104680009F938F930E94A63E0F900F900F900F90D4
:104690000F900F90075D1F4FC801EC960FB6F8946E
:1046A000DEBF0FBECDBFDF91CF911F910F91FF9065
:1046B000EF900895CF92DF92EF92FF920F931F93A6
:1046C000CF93DF938C01C62E80914707811104C0E0
:1046D00081E497E00E94E22F68E670E081E497E0D1
:1046E0000E940F3060E070E081E497E00E943B316F
:1046F00081E497E00E943D3143E150E068E670E0DC
:1047000081E497E00E947731E12CF12CC0E0D0E009
:10471000D12CE4C081E497E00E941730F801EC0F3F
:10472000FD1F8083C630D10509F467C098F4C230FC
:10473000D10509F43EC038F4209729F1C130D105E4
:1047400009F0C7C02BC0C430D10509F440C008F03F
:1047500049C03AC0CA30D10509F484C048F4282FB2
:1047600030E0C830D10509F461C008F06DC050C018
:10477000CC30D10509F492C008F482C0CD30D10507
:1047800009F0A7C099C0982F92959F708F702AE06A
:10479000929F800D1124F801818F9BC0982F9295D4
:1047A0009F708F70FAE09F9F800D1124F801808F19
:1047B00090C0982F92959F708F70FAE09F9F800D08
:1047C0001124F801878B85C0F801868B82C0982F51
:1047D00092959F708F70FAE09F9F800D1124F801D1
:1047E000828F77C0982F92959F708F70FAE09F9F6D
:1047F000800D1124F801858B6CC0982F92959F70C5
:104800008F70FAE09F9F800D1124F801848B61C0A6
:1048100054E0359527955A95E1F727708F70FAE0A7
:104820002F9F800D1124F801838F53C044E03595EC
:1048300027954A95E1F727708F70FAE02F9F800D3A
:104840001124F801848F45C094E0359527959A95F9
:10485000E1F723708F70FAE02F9F800D1124F8018B
:10486000858F37C0282F2695269526952670922F5E
:10487000990F990F920F8F70980FF801968F29C09A
:10488000282F2695269526952E70922F990F990FF1
:10489000920F8F70980FF801978F1BC0282F2695C5
:1048A000269526952670922F990F990F920F8F704B
:1048B000980FF80190A30DC0282F269526952695D0
:1048C0002670922F990F990F920F8F70980FF80101
:1048D00091A3219603C0FFEFEF1AFF0ACC16DD0665
:1048E00058F02AE0E216F10438F481E497E00E94DF
:1048F0001130882381F30ECFDF91CF911F910F915B
:10490000FF90EF90DF90CF9008951F93CF93DF93A8
:10491000EC01162F80914707811104C081E497E0D4
:104920000E94E22F68E670E081E497E00E940F3079
:10493000612F81E497E00E940F31C10FD11D688182
:1049400081E497E00E940F3181E497E0DF91CF91FD
:104950001F910C943D31FF920F931F93CF93DF93E0
:104960008C01F62E80914707811104C081E497E005
:104970000E94E22F68E670E081E497E00E940F3029
:104980006F2D81E497E00E940F3181E497E00E944F
:104990003D3141E050E068E670E081E497E00E943C
:1049A0007731CBE0D0E081E497E00E9411308111B3
:1049B00002C02197C1F781E497E00E941730F80107
:1049C000EF0DF11D808381E497E0DF91CF911F917E
:1049D0000F91FF900C943D31CF93DF93EC0166E093
:1049E0000E945A23CE01DF91CF910C944F22CF9297
:1049F000DF92EF92FF920F931F93CF93DF93CDB788
:104A0000DEB7C857D1090FB6F894DEBF0FBECDBFD1
:104A10007C016AE00E945A238701075D1F4F84E6EC
:104A2000F80111928A95E9F7E8E8F3E0859194910D
:104A3000BC01CE018F5A9F4F0E94723EBE016F5A39
:104A40007F4FC8010E94793EF70182A1823009F4AC
:104A50006AC030F4882369F0813009F00BC122C0AC
:104A6000843009F4C7C008F493C0853009F002C14E
:104A7000F0C0EAE8F3E085919491BC01CE018F5A31
:104A80009F4F0E94723EBE016F5A7F4FC8010E9425
:104A9000793EE8E9F3E0859194916E01F9E2CF0E59
:104AA000D11C18C0ECE8F3E085919491BC01CE01D3
:104AB0008F5A9F4F0E94723EBE016F5A7F4FC801AE
:104AC0000E94793EE8E9F3E0859194916E01E9E274
:104AD000CE0ED11CBC01C6010E94723EF701838D2F
:104AE0001F928F93848D1F928F93858D1F928F932A
:104AF000868D1F928F93DF92CF921F9288E28F93C1
:104B0000EE24E394F12CEC0EFD1EFF92EF920E9436
:104B1000A63EB701C8010E94793E0FB6F894DEBFE9
:104B20000FBECDBFC2C0EEE8F3E085919491BC0109
:104B3000CE018F5A9F4F0E94723EBE016F5A7F4F27
:104B4000C8010E94793EEAE9F3E0859194916E01F3
:104B5000E9E2CE0ED11CBC01C6010E94723EF701F3
:104B6000838D1F928F93848D1F928F93858D1F92BB
:104B70008F93DF92CF921F9288E28F93EE24E3947B
:104B8000F12CEC0EFD1EFF92EF920E94A63EC1CFCB
:104B9000E0E9F3E085919491BC01CE018F5A9F4FDB
:104BA0000E94723EBE016F5A7F4FC8010E94793E3B
:104BB000ECE9F3E0859194916E01E9E2CE0ED11C0F
:104BC000BC01C6010E94723EF701838D1F928F9334
:104BD000848D1F928F93DF92CF921F9288E28F93E2
:104BE000EE24E394F12CEC0EFD1EFF92EF920E9456
:104BF000A63E8FCFE2E9F3E085919491BC01CE010E
:104C00008F5A9F4F0E94723EBE016F5A7F4FC8015C
:104C10000E94793EEEE9F3E0859194916E01E9E21C
:104C2000CE0ED11CBC01C6010E94723EF701838DDD
:104C30001F928F93DF92CF921F9288E28F93EE2480
:104C4000E394F12CEC0EFD1EFF92EF920E94A63E23
:104C500060CFE4E9F3E085919491BC01CE018F5AD5
:104C60009F4F0E94723EBE016F5A7F4FC8010E9443
:104C7000793E1BC0E6E9F3E0859194917E01E1E580
:104C8000EE0EF11CBC01C7010E94723EFF92EF9232
:104C90001F9284E68F931F930F930E94A63E0F905E
:104CA0000F900F900F900F900F90C801C858DF4FD2
:104CB0000FB6F894DEBF0FBECDBFDF91CF911F912D
:104CC0000F91FF90EF90DF90CF900895CF93DF93F7
:104CD000EC016EE00E94AB248E858E7F8E876EE0A5
:104CE000CE01DF91CF910C948524CF93DF93EC011B
:104CF0006EE00E94AB248E858D7F8E876EE0CE01A4
:104D0000DF91CF910C948524CF93DF93EC016FE07A
:104D10000E94AB248F858370DF91CF910895CF934C
:104D2000DF93EC010E948426882319F0CE56DF4FD2
:104D300088838091B1068C7F8093B1066FE082EA10
:104D400096E0DF91CF910C948524CF93DF93EC0113
:104D500040E061E00E940122CE010E948F26CE0138
:104D60000E9439226DE0CE010E945A2361E08BE25D
:104D70000E94D51A60E08BE2DF91CF910C94EE1A7D
:104D8000362F862F6AE00E94083D292F832F90E05E
:104D9000821B91096AE070E00E94283DB4E0660F32
:104DA000771FBA95E1F7822F862B08950F931F93F3
:104DB000CF93DF93EC0180914707811104C081E418
:104DC00097E00E94E22F68E670E081E497E00E949D
:104DD0000F3067E070E081E497E00E943B316B8D1B
:104DE000CE010E94C0268F778F836C8DCE010E94EA
:104DF000C0268F7788876D8DCE010E94C0268F7761
:104E000089876E8DCE010E94C0268F738A8700E04D
:104E100010E0FE01E00FF11F678181E497E00E943E
:104E20000F310F5F1F4F0430110599F781E497E0B0
:104E3000DF91CF911F910F910C943D310F931F93F0
:104E4000CF93DF93EC0180914707811104C081E487
:104E500097E00E94E22F68E670E081E497E00E940C
:104E60000F3060E070E081E497E00E943B31698D93
:104E7000CE010E94C0268883688DCE010E94C02684
:104E800089836F89CE010E94C0268A838E898B8395
:104E90006A8DCE010E94C0268C836D89CE010E944E
:104EA000C0268D836C89CE010E94C0268E8300E0CF
:104EB00010E0699181E497E00E940F310F5F1F4F6E
:104EC00007301105B1F781E497E0DF91CF911F9191
:104ED0000F910C943D31AF92BF92CF92DF92EF923F
:104EE000FF920F931F93CF93DF93CDB7DEB7ED976C
:104EF0000FB6F894DEBF0FBECDBF8C01B62EA72E25
:104F00007E0129E2E20EF11C87E0F70111928A95F9
:104F1000E9F7EEEAF3E085919491BC01CC24C394C7
:104F2000D12CCC0EDD1EC6010E94723EEB2DFA2D57
:104F3000DF010D900020E9F75597AE17BF0711F07C
:104F400081E0C5C0CE01C0969F938F93CE018E960F
:104F50009F938F93CE01C2969F938F93CE018D9690
:104F60009F938F93CE01C4969F938F93CE018C967F
:104F70009F938F93CE01C6969F938F93CE018B966E
:104F80009F938F93CE01C8969F938F93CE018A965D
:104F90009F938F93CE01CA969F938F93FF92EF9228
:104FA000CE01CC969F938F93DF92CF92AF92BF9218
:104FB0000E94E33E6FEC72E0C7010E94843E0FB690
:104FC000F894DEBF0FBECDBF892B09F4B9CF8CADED
:104FD0009DAD8436910508F0B3CFF801848B2AADDE
:104FE0003BADA901415051094C30510508F0A8CF03
:104FF000258B213061F0233051F0253041F02730EE
:1050000031F0283021F02A3011F02C3029F488AD0D
:1050100099AD809770F194CF243031F0263021F093
:10502000293011F02B3029F488AD99AD4F9708F154
:1050300087CF2230F1F4282F2370B1F49C01205344
:10504000384FC90164E670E00E94283D892B39F48D
:10505000C90160E971E00E94283D892B29F488ADDF
:1050600099AD4E9730F06CCF88AD99AD4D9708F063
:1050700067CF88AD99AD9C01215031092F313105A1
:1050800008F05ECFF801828F8EA99FA99C01215064
:1050900031092730310508F053CF868B8CA99DA9A3
:1050A0008831910508F04CCF878B8AA99BA98C3356
:1050B000910508F045CF808F88A999A98C33910577
:1050C00008F03ECF818FC8010E941E2780E0ED9638
:1050D0000FB6F894DEBF0FBECDBFDF91CF911F9109
:1050E0000F91FF90EF90DF90CF90BF90AF90089519
:1050F000CF93DF93EC010E946626CE010E947526B5
:1051000062E070E080E090E00E94EB34CE01DF913D
:10511000CF910C948F261F93CF93DF93EC01142F24
:10512000613009F086C08E8585608E876EE0CE0185
:105130000E9485248F858C7F8F876FE0CE010E942F
:105140008524133009F44EC028F48F81113019F1F1
:10515000C8F509C0153009F469C008F44DC016300F
:1051600009F0D8C0CDC08F778F8367E0CE010E9451
:10517000852488858F77888768E0CE010E94852402
:1051800089858F77898769E0CE010E9485248A8589
:105190008F77806448C08F778F8367E0CE010E944D
:1051A000852488858F77888768E0CE010E948524D2
:1051B00089858F77898769E0CE010E9485248A8559
:1051C0008F7331C08F778F8367E0CE010E94852473
:1051D00088858F77888768E0CE010E94852489853D
:1051E0008F771AC08F818F778F8367E0CE010E94FF
:1051F000852488858F7709C08F818F778F8367E0BB
:10520000CE010E94852488858068888768E0CE0169
:105210000E94852489858068898769E0CE010E9483
:1052200085248A8580688A876AE066C08F81806865
:10523000E5CF623009F06EC08E8586608E876EE0A5
:10524000CE010E9485248F858C7F8F876FE0CE01F1
:105250000E948524123089F130F4112359F0113065
:1052600009F058C019C01430A9F188F1153009F0BF
:1052700051C046C08B858F778B876BE0CE010E9433
:1052800085248C858F778C876CE0CE010E948524E5
:105290008D858F7780642EC08B858F778B876BE0B1
:1052A000CE010E9485248C858F778C876CE0CE019F
:1052B0000E9485248D858F731DC08B858F778B878A
:1052C0006BE0CE010E9485248C858F770CC08B8586
:1052D0008F7702C08B8580688B876BE0CE010E9440
:1052E00085248C8580688C876CE0CE010E948524A3
:1052F0008D8580688D876DE0CE010E9485240AC06F
:105300008E85887F8E876EE0CE010E948524CE0137
:105310000E94782862E070E080E090E0DF91CF9119
:105320001F910C944E34CF92DF92FF920F931F93F4
:10533000CF93DF931F92CDB7DEB76C018B01F22EB6
:10534000DB010D900020E9F71C97A617B70741F085
:1053500060EB73E08BE397E049830E94C42D4981A1
:10536000F8018181805390819053FAE09F9F800DD6
:105370001124F601868FF801848180539381905324
:10538000FAE09F9F800D1124F601858FF801878137
:10539000805396819053FAE09F9F800D1124F6016F
:1053A000848FF8018285805391859053FAE09F9F06
:1053B000800D1124F601838F41117FC066E0C60184
:1053C0000E945A23F601818D938D890F8C3310F43E
:1053D000838F06C08C53F601838F848D8F5F848FFB
:1053E000F601808D948D890F8C3310F4848F06C064
:1053F0008C53F601848F858D8F5F858FF6018789A9
:10540000958D890F883110F4858F06C08851F6017B
:10541000858F868D8F5F868FF601968DF11009C07E
:105420008689890F868F883008F447C08750868F19
:1054300044C0F601328D390F368F8589813061F095
:10544000833051F0853041F0873031F0883021F0E1
:105450008A3011F08C3021F4303278F13F512BC07A
:10546000843031F0863021F0893011F08B3021F416
:105470003F3118F13E511FC08230F9F4E091B60679
:105480008E2F8370A9F4F0E0E053F84FCF0164E66B
:1054900070E00E94283D892B39F4CF0160E971E06A
:1054A0000E94283D892B21F43E3138F03D5103C044
:1054B0003D3118F03C51F601368FF601F2A282EA36
:1054C00096E00E94D6264F2D61E082EA96E00F908A
:1054D000DF91CF911F910F91FF90DF90CF900C94AF
:1054E0008B28109233071092B506089561E08EE183
:1054F0000E94D51A61E08FE10E94D51A61E08DE12A
:105500000E94D51A60E08EE10E94EE1A60E08FE101
:105510000E94EE1A61E08DE10E94EE1A8CB5806166
:105520008CBD8CB580648CBD08958CB58F7B8CBD93
:105530000895811103C08CB5806202C08CB58F7D47
:105540008CBD08959CB5937F982B9CBD08952CB578
:10555000982F93702C7F922B9CBD9DB580FB90F96A
:105560009DBD0895CF93C62F61E08DE10E94D51AAD
:1055700061E082E20E94D51A61E08DE10E94EE1A9C
:1055800061E082E20E94EE1A8091640990916509BF
:10559000A0916609B0916709A2FF08C061E088E0A8
:1055A0000E94D51A61E088E00E94EE1A8091640999
:1055B00090916509A0916609B091670996FF08C0AE
:1055C00061E089E00E94D51A61E089E00E94EE1A4C
:1055D0008091640990916509A0916609B09167096D
:1055E000A3FF08C061E082E00E94D51A61E082E07A
:1055F0000E94EE1A8091640990916509A091660954
:10560000B0916709A4FF08C061E082E20E94D51A48
:1056100061E082E20E94EE1AC330C9F020F4C1308A
:1056200061F070F407C0C53061F1F0F0C63009F0E8
:1056300067C033C060E08DE160C060E082E25DC0C1
:1056400080E497E00E94862E60E08CE256C0809154
:10565000640990916509A0916609B0916709A2FF5C
:105660004FC060E088E049C080916409909165096D
:10567000A0916609B091670996FF42C060E089E099
:105680003CC08091640990916509A0916609B09130
:105690006709A3FF35C060E02FC061E08DE10E9483
:1056A000EE1A61E082E20E94EE1A80916409909104
:1056B0006509A0916609B0916709A2FF04C061E085
:1056C00088E00E94EE1A8091640990916509A0918A
:1056D0006609B091670996FF04C061E089E00E9405
:1056E000EE1A8091640990916509A0916609B091C4
:1056F0006709A3FF05C061E082E0CF910C94EE1A28
:10570000CF9108958091640990916509A0916609EF
:10571000B0916709A2FF0EC080916409909165095C
:10572000A0916609B091670981FF04C08091370795
:105730008823C1F18091640990916509A09166095F
:10574000B0916709A1FF0CC080913507811108C095
:1057500061E086E10E94D51A61E086E10E94EE1ABE
:1057600080913607811108C061E08BE10E94D51A53
:1057700061E08BE10E94EE1A8091640990916509C5
:10578000A0916609B0916709A4FF11C080913A0702
:1057900081110DC061E086E10E94D51A61E086E1C9
:1057A0000C94EE1A61E082E00E94EE1AC3CF0895D5
:1057B0008091640990916509A0916609B09167098B
:1057C000A2FF0EC08091640990916509A0916609BD
:1057D000B091670981FF04C0809137078823C1F128
:1057E0008091640990916509A0916609B09167095B
:1057F000A1FF0CC080913507811108C061E086E1EE
:105800000E94D51A60E086E10E94EE1A8091360768
:10581000811108C061E08BE10E94D51A60E08BE144
:105820000E94EE1A8091640990916509A091660921
:10583000B0916709A4FF11C080913A0781110DC092
:1058400061E086E10E94D51A60E086E10C94EE1AD0
:1058500060E082E00E94EE1AC3CF0895CF93C82F74
:1058600085E397E00E94822BCEBD0DB407FEFDCFED
:1058700085E397E00E94D82B8EB5CF9108951092C2
:10588000360710923507109237071092380710929A
:10589000390710923A070895FC01408160E072ECEC
:1058A00081E090E00E947A1B61E087E10E94D51AB6
:1058B00061E087E10E94EE1A61E08BE00E94D51A58
:1058C00060E08BE00E94EE1A61E08DE20E94D51A42
:1058D00060E08DE20C94EE1ACF93DF93EC014881E7
:1058E00060E072EC81E090E00E947A1B61E087E169
:1058F0000E94EE1A60E08BE00E94EE1A88810E94FE
:105900001C1CDF91CF910895CF93DF93EC01488168
:1059100060E072EC81E090E00E947A1B8881DF9168
:10592000CF910C94381CCF93DF93EC01488160E059
:1059300072EC81E090E00E947A1B8881DF91CF9128
:105940000C94711CDC018091C50011968C93119709
:105950008091C40012968C931297E2ECF0E0808163
:1059600013968C9313978091CA0014968C93149776
:1059700080818F7D808380818F7E80838081877FFF
:1059800080834C9160E072EC81E090E00E947A1B91
:1059900061E087E10E94EE1A60E08BE00C94EE1A61
:1059A000CF93DF93EC0140916409509165096091B8
:1059B00066097091670963E070E080E090E042FF63
:1059C00007C00E94CC1961E08BE00E94EE1A02C071
:1059D0000E94CC1989818093C5008A818093C4007C
:1059E0008B818093C2008C818093CA00DF91CF911C
:1059F0000895EF92FF920F931F93CF93DF938C0143
:105A0000EB010E94A22C7E0188E1E81A8CEFF80AD3
:105A1000FE0121968491882339F0F80160810E946B
:105A2000FB1CCE15DF05A1F7C8010E94D02C60E059
:105A300070E0CB01DF91CF911F910F91FF90EF901C
:105A40000895AF92BF92DF92EF92FF920F931F9350
:105A5000CF93DF93EC01142FD52E7B0159010E94C7
:105A6000A22CA114B10429F46881812F0E94FB1C8F
:105A700016C08AE0A816B10439F44881612F7D2D43
:105A8000C7010E94A31D0BC09501442737FD409517
:105A9000542F0881612F7D2DC7010E94181D888118
:105AA0000E94FD1CCE01DF91CF911F910F91FF90BD
:105AB000EF90DF90BF90AF900C94D02C0F931F937A
:105AC000CF93DF93EC018B010E94A22C17FF07C03C
:105AD00068818DE20E94FB1C119501951109B801A6
