:100000000C941D020C9413200C9444200C94752025
:100010000C94A6200C94D7200C9408210C94392120
:100020000C946A210C944C020C944C020C944C02DB
:100030000C944E0D0C944C020C944C020C94AA0D92
:100040000C944C020C944C020C944C020C944C02F8
:100050000C944C020C944C020C944C020C94850DA4
:100060000C944C020C9494100C944C020C944C0282
:100070000C944C020C944C020C944C020C944C02C8
:100080000C944C020C944C020C944C020C944C02B8
:100090000C94CF100C944C020C944C020C941E0C3B
:1000A0000C944C020C944C020C944C020C944C0298
:1000B0000C944C020C944C020C944C020C944C0288
:1000C0000C944C020C944C020C944C0253657474C6
:1000D000696E67204368616E6E656C20746F0927D6
:1000E00031372709092073746174652000536574E2
:1000F00074696E672048656164657220746F0927B2
:100100003127090920737461746520005365747484
:10011000696E67204D6F646520746F092731302741
:100120000909207374617465200053657474696EE5
:10013000672043524320746F092731270909207330
:1001400074617465200053657474696E6720506F24
:1001500077657220746F09274C2709092073746131
:100160007465200053657474696E67204944207477
:100170006F09002009092073746174652000A601CD
:10018000BA01E001070227023F024D025D0272023E
:1001900088029902A502AC02C902E702FD020B0324
:1001A0001B033E034403416C61726D204D6F646517
:1001B000206D61746368657320005B446179203A47
:1001C00020686F757273203A206D696E757465735F
:1001D000203A207365636F6E64735D202D3E2000AE
:1001E0005B44617465203A20686F757273203A2011
:1001F0006D696E75746573203A207365636F6E6404
:10020000735D202D3E20005B486F757273203A208D
:100210006D696E75746573203A207365636F6E64E3
:10022000735D202D3E20005B4D696E7574657320F3
:100230003A207365636F6E64735D202D3E20005B12
:100240005365636F6E64735D202D3E20004F6E63B7
:100250006520706572207365636F6E6400496E631C
:100260006F727265637420616C61726D206D6F6472
:1002700065005B253032753A253032753A253032CB
:10028000753A253032755D005B253032753A253080
:1002900032753A253032755D005B253032753A256E
:1002A0003032755D005B253032755D005B446179ED
:1002B000203A20686F757273203A206D696E7574EC
:1002C0006573205D202D3E20005B44617465203AFB
:1002D00020686F757273203A206D696E757465734E
:1002E000205D202D3E20005B486F757273203A2000
:1002F0006D696E757465735D202D3E20005B4D69E0
:100300006E757465735D202D3E20004F6E63652011
:10031000706572206D696E7574650025732C2025DB
:100320003032752F253032752F253032752C20252F
:100330003032753A253032753A25303275006572A3
:10034000726F720025303275256325303275256352
:100350002530327525632530327525632530327599
:10036000256325303275256325303275000000087D
:100370000900000000000000000000000000000074
:10038000000000000000000000000000000000006D
:10039000000000000000000000000000000000005D
:1003A00001020810102040800408102040020204BE
:1003B0000810204080010280204004200101020436
:1003C00008102001408040800102080408800410C9
:1003D00004020105050505030303030101010404EB
:1003E00003060606060606060601040501050103C6
:1003F00002020202020201020205050404030404CF
:1004000001030407070700202326292C2F3200228E
:1004100025282B2E3134002124272A2D30336364E4
:10042000696E6F70737578585B005C0245099D19A1
:100430006B1B021D00209B21002311241FBECFEF48
:10044000D1E2DEBFCDBF12E0A0E0B2E0EAEBF8E51A
:1004500000E00BBF02C007900D92A039B107D9F799
:100460001DE0A0E9B2E001C01D92A631B107E1F79D
:1004700014E0CAE3D4E000E006C022970109FE01BF
:100480000BBF0E942925CA32D10780E00807A9F7CF
:100490000E94D6110C945B2C0C94000083ED96E026
:1004A0000E94781B80E992E00C94C90964E670E030
:1004B00080E090E00C94210E80E992E00C944909D0
:1004C000FC01118281E0828387E0838340E050EC6D
:1004D00064EE70E04483558366837783128A148ABE
:1004E000138E8FE08087168A178A108E83E0818FA3
:1004F000E55EFE4F10828091FC089091FD08A0916E
:10050000FE08B091FF08A2608093FC089093FD085C
:10051000A093FE08B093FF080895CF93C62F66E01E
:100520008DEC96E00E94DE1961E08DEC96E00E9471
:10053000DE1961E070E080E090E00E94210E8C2FD7
:100540008F770E945A1B80E0CF910C945A1B1F9307
:10055000CF93DF931F92CDB7DEB7162F66E08DECF9
:1005600096E049830E94DE1961E08DEC96E00E94DE
:10057000DE1961E070E080E090E00E94210E812FA2
:1005800080680E945A1B4981842F0E945A1B66E092
:100590008DEC96E00F90DF91CF911F910C94DE19B6
:1005A000CF93DF93EC0140E061E00E94A70240E8B6
:1005B00061E0CE010E94A70241E861E0CE010E9405
:1005C000A7024FEF63E2CE010E94A70248E06DE16F
:1005D000CE010E94A70244E76EE1CE010E94A7026D
:1005E00061E0CE010E948D02813821F481E08B8F81
:1005F00080E002C01B8E81E0DF91CF910895CF9300
:10060000DF93EC018B8D8823E1F06DE1CE010E9438
:100610008D029B81963041F0482F4B7F6DE1CE01DA
:100620000E94A70282E001C08FEF9B81963061F0AB
:100630006DE1CE010E948D0282FD05C01A8A80E024
:1006400003C08FEF01C081E0DF91CF910895CF9378
:10065000DF93EC018B8D8823A1F06DE1CE010E9428
:100660008D02482F44606DE1CE010E94A7026DE12A
:10067000CE010E948D0282FF06C081E08A8B80E05D
:1006800003C08FEF01C081E0DF91CF9108951F93E8
:10069000CF93DF93EC011B8D113089F46DE10E9443
:1006A0008D02482F42606DE1CE010E94A7026DE1EC
:1006B000CE010E948D0281FF14C01C8B14C060E328
:1006C0000E948D02482F406160E3CE010E94A70284
:1006D00060E3CE010E948D0284FF03C081E08C8B19
:1006E00002C081E001C080E0DF91CF911F910895A9
:1006F000CF93DF93EC018B8D882391F06EE1CE01D7
:100700000E948D02282F30E044E0359527954A95C8
:10071000E1F72B83265081E0273018F480E001C0F8
:100720008FEFDF91CF910895CF93DF93EC018B8D05
:10073000882389F06DE1CE010E948D02282F30E0E0
:1007400056E0359527955A95E1F7298381E02330C6
:1007500019F080E001C08FEFDF91CF910895EF9203
:10076000FF920F931F93CF93DF93EC01062F61E06D
:100770000E948D02E82E8B8D811105C0CE010E9452
:10078000D002182FD3C041E861E0CE010E94A70239
:100790006DE1CE010E948D02F82E6EE1CE010E9425
:1007A0008D02182F0930B1F030F4073069F078F479
:1007B000063009F506C00B3099F078F00C30D9F40A
:1007C00015C01F76106619C01F77106720C01F78EC
:1007D00010681DC01F7910691AC01F7A106A17C0EF
:1007E0001F7B106BCE010E94940302C01F7C106C13
:1007F00081E0F82A0CC0063051F4CE010E94270394
:1008000045E061E3CE010E94A7024CE006C043E050
:1008100061E3CE010E94A7024AE067E3CE010E9495
:10082000A7024F2D6DE1CE010E94A702412F476024
:100830006EE1CE010E94A7026DE1CE010E948D0201
:10084000182F6EE1CE010E948D020930C1F138F4FB
:100850000730F9F048F5063009F065C008C00B30E4
:1008600009F445C0B8F10C3009F05DC04CC0282F28
:1008700030E014E0359527951A95E1F726303105DB
:1008800011F012E053C082FFFCCF8A898130C9F792
:100890004CC0282F30E0B4E035952795BA95E1F7A4
:1008A0002730310571F720C0282F30E0A4E03595BE
:1008B0002795AA95E1F72830310519F715C0282F9B
:1008C00030E0F4E035952795FA95E1F729303105C8
:1008D000C1F60AC0282F30E0E4E035952795EA9567
:1008E000E1F72A30310569F682FD1FC0CACF282FF3
:1008F00030E074E0359527957A95E1F72B30310596
:1009000009F0BFCF0BC0282F30E064E03595279564
:100910006A95E1F72C30310509F0B3CF82FFB1CFF2
:1009200010FFAFCF02C011E001C010E04E2D61E01A
:10093000CE010E94A702802F8650873010F40B83CF
:1009400010E0812FDF91CF911F910F91FF90EF90D9
:100950000895CF92DF92EF92FF920F931F93CF9360
:10096000DF931F92CDB7DEB76C018B0161E00E946F
:100970008D02E82EF601838D811105C0C6010E940B
:10098000D002F82E02C032E0F32E41E861E0C60149
:100990000E94A7026DE1C6010E948D02482F01301E
:1009A0001105A1F020F002301105A9F412C04F7317
:1009B000C60149830E947803F601938149819B30E7
:1009C00009F402C09C3039F4416005C04F7740649F
:1009D00002C04F7B40686DE1C6010E94A7026DE135
:1009E000C6010E948D0201301105F1F020F00230A5
:1009F000110581F524C0682F70E026E07595679594
:100A00002A95E1F7672B69F5F60193819B3029F46C
:100A1000F82EF094F1E0FF2224C09C3009F5F82E66
:100A2000F09481E0F8221DC0282F30E096E0359543
:100A300027959A95E1F72130310599F411C0282FB7
:100A400030E086E0359527958A95E1F7223031052B
:100A500041F406C00330110520F0FF24F39403C0D5
:100A6000F12CF60101834E2D61E0C6010E94A70220
:100A70008F2D0F90DF91CF911F910F91FF90EF90ED
:100A8000DF90CF900895FF920F931F93CF93DF9342
:100A9000EC01162F61E00E948D02F82E8B8D8111E2
:100AA00005C0CE010E94D002082F6AC041E861E073
:100AB000CE010E94A7026DE1CE010E948D0212308C
:100AC00061F018F4113089F405C0133049F0143086
:100AD00061F409C08F7C886008C0877D806105C093
:100AE0008F7D886102C0877E8062482F6DE1CE01D4
:100AF0000E94A7026DE1CE010E948D021230B1F07A
:100B000018F41130D1F505C01330E9F01430A9F50F
:100B100027C0282F30E0E3E035952795EA95E1F7E7
:100B2000277033272130310551F127C0282F30E0BD
:100B300073E0359527957A95E1F7277033272230B2
:100B40003105D9F41CC0282F30E063E03595279596
:100B50006A95E1F7277033272330310571F40FC010
:100B6000282F30E053E0359527955A95E1F7277007
:100B700033272430310509F402C002E001C000E04F
:100B8000812F8150843010F001E001C01A834F2D75
:100B900061E0CE010E94A702802FDF91CF911F91CB
:100BA0000F91FF9008950F931F93CF93DF93EC0164
:100BB000062F61E00E948D02182F8B8D811103C0DA
:100BC000CE010E94D00241E861E0CE010E94A7025E
:100BD0000530D9F168F4023009F120F4013009F050
:100BE00049C116C0033001F1043009F043C127C0E8
:100BF000083009F441C030F4063069F1073009F0DB
:100C000039C12FC00930F1F10A3009F033C140C0B9
:100C100061E0CE010E9443056CE00BC061E0CE01B3
:100C20000E9443056CE022C061E0CE010E944305B2
:100C30006AE0CE010E94AF0360E070E033C061E083
:100C4000CE010E9443056CE028C061E0CE010E9405
:100C500043056AE00BC061E0CE010E9443056BE0F2
:100C60001CC061E0CE010E94430569E0CE010E94F4
:100C7000AF0361E070E016C061E0CE010E94430561
:100C800069E00BC061E0CE010E94430568E005C049
:100C900061E0CE010E94430567E0CE010E94AF03F0
:100CA00062E070E0CE010E94A904E8C0282F30E085
:100CB00043E0359527954A95E1F72130310509F054
:100CC000DBC06EE1CE010E948D0290E024E095959C
:100CD00087952A95E1F701E00C9709F0F4C0C8C0A8
:100CE000282F30E003E0359527950A95E1F7293064
:100CF000310509F0C1C017C0282F30E0B3E03595A9
:100D00002795BA95E1F72130310509F0B5C027C024
:100D1000282F30E0A3E035952795AA95E1F72131FA
:100D2000310509F0A9C06EE1CE010E948D02282F85
:100D300030E0F4E035952795FA95E1F701E02C30A5
:100D4000310509F0C0C094C0282F30E0E3E03595AC
:100D50002795EA95E1F72930310509F08DC06EE15C
:100D6000CE010E948D02282F30E074E03595279542
:100D70007A95E1F701E02A30310509F0A4C078C086
:100D8000282F30E063E0359527956A95E1F721310A
:100D9000310509F071C06EE1CE010E948D02282F4D
:100DA00030E054E0359527955A95E1F701E02B3076
:100DB000310509F088C05CC0282F30E043E035954C
:100DC00027954A95E1F72930310509F055C00BC048
:100DD000282F30E093E0359527959A95E1F721315A
:100DE000310509F049C06EE1CE010E948D02282F25
:100DF00030E084E0359527958A95E1F701E02930C8
:100E0000310509F060C034C0282F30E003E035958B
:100E100027950A95E1F72131310571F56EE1CE0193
:100E20000E948D02282F30E0B4E035952795BA95C1
:100E3000E1F701E02830310509F045C019C0282F3D
:100E400030E0A3E035952795AA95E1F721313105EA
:100E500099F46EE1CE010E948D02282F30E0F4E07B
:100E600035952795FA95E1F701E02730310559F5D9
:100E700000E029C00FEF27C001E025C06DE1CE01E1
:100E80000E948D02053009F45FCF68F4023009F446
:100E900027CF18F4013081F709CF033009F42CCFA4
:100EA000043051F735CF083009F492CF30F40630D2
:100EB00009F466CF073001F77FCF093009F4A4CFDA
:100EC0000A30D1F6BCCF412F61E0CE010E94A702CB
:100ED000802FDF91CF911F910F910895493989EDAE
:100EE000580782EE6807710509F494C008F04EC0F7
:100EF000493989E9580788ED6807710509F48AC0FE
:100F0000F8F4411580E6580788ED6807710509F483
:100F100081C038F44C3C5C44684D710509F07CC0DC
:100F200079C0433383E7580788ED6807710509F4F2
:100F300071C046365648684D710509F06DC06AC0EB
:100F40004115510589ED6807710509F463C078F40E
:100F50004C3C8CEA580788ED6807710509F45AC0C3
:100F60004115504C684D710509F056C053C04E31C3
:100F700085EC580781EE6807710509F44BC04C35C4
:100F80005F44624E710509F047C044C04F3882E0AB
:100F9000580785EE68077105E9F1D8F444318EEE03
:100FA000580783EE68077105A9F130F4473D5346B1
:100FB000634E710589F52EC0413588E7580784EEE8
:100FC0006807710539F14115504C644E710521F5E2
:100FD00021C0473481EA580786EE68077105D1F0D1
:100FE00068F44C3C8CE8580785EE6807710591F071
:100FF0004A305741664E710579F40CC045388BE292
:10100000580787EE6807710529F0423C554B674E3B
:10101000710511F481E0089580E008957F928F9228
:101020009F92AF92BF92CF92DF92EF92FF920F9377
:101030001F93CF93DF93EC016A017B0161E00E9473
:101040008D02782E8B8D813011F441E801C041E092
:1010500061E0CE010E94A7024E2D66E0CE010E9403
:10106000A7024D2D67E0CE010E94A7024C2D68E03B
:10107000CE010E94A70266E0CE010E948D02082FD9
:1010800067E0CE010E948D02182F902E812CA12C9A
:10109000B12CBA2CA92C982C882468E0CE010E948F
:1010A0008D02712F60E0082F10E020E030E0060F85
:1010B000171F211D311D080D191D2A1D3B1D0C1563
:1010C0001D052E053F0531F4CC82DD82EE82FF82C4
:1010D00010E001C011E0B701A601CE010E946E0729
:1010E000811101C01FEF472D61E0CE010E94A702D0
:1010F000812FDF91CF911F910F91FF90EF90DF90A3
:10110000CF90BF90AF909F908F907F9008950F9356
:101110001F93CF93DF93EC01162F61E00E948D02A5
:10112000082F8B8D813011F441E801C041E061E06E
:10113000CE010E94A7021C3439F01D3419F0183476
:1011400039F404C08FE003C0188602C087E08887A6
:10115000488569E0CE010E94A70269E0CE010E94A5
:101160008D0211E09885891301C010E0402F61E0E5
:10117000CE010E94A702812FDF91CF911F910F9185
:1011800008950F931F93CF93DF93EC01162F698B74
:1011900061E00E948D02082F9B8D9130F9F0911132
:1011A0001DC041E061E0CE010E94A702412F63E330
:1011B000CE010E94A70240E064E3CE010E94A70294
:1011C00063E3CE010E948D02182F402F61E0CE0113
:1011D0000E94A70281E09989191301C080E0DF9184
:1011E000CF911F910F9108950F931F93CF93DF938A
:1011F000EC016C31E0F4062F006261E00E948D0288
:10120000182F8B8D813011F441E801C041E061E07D
:10121000CE010E94A702402F6BE0CE010E94A702E0
:10122000412F61E0CE010E94A70280E001C08FEF54
:10123000DF91CF911F910F910895CF93DF93EC0130
:1012400061E086E10E94020F61E086E10E941B0FCF
:1012500081E08093CD060E94A21981E00E94C51909
:1012600084E00E94D31980E00E94CE196BE1CE0188
:101270000E94F408811105C0CE01DF91CF910C943A
:10128000D00281E0DF91CF9108958BE992E00C9438
:101290006002FC01148217828CE4818781E08287DE
:1012A00080878AE0858388E086830895AF92BF9225
:1012B000CF92DF92EF92FF920F931F93CF93DF9322
:1012C000CDB7DEB729970FB6F894DEBF0FBECDBFFE
:1012D00083ED96E00E94781B83ED96E00E94BF1B91
:1012E0001A8219821C821B821E821D826BE072E0B0
:1012F00083ED96E00E94EF1C8E010F5F1F4FE12CE3
:10130000F12C68010FC083ED96E00E94B01BF8013C
:10131000819391938F01C701019657018330910505
:1013200089F07C01F501EE0FFF1FEC0DFD1D8081A2
:1013300091810D9739F083ED96E00E94981B8823E8
:1013400089F3E1CF89818F838B8188878D8189871C
:10135000CE0107960E948C25182F682F792F83EDD8
:1013600096E00E94E81C83ED96E00E94741C812F99
:1013700029960FB6F894DEBF0FBECDBFDF91CF9197
:101380001F910F91FF90EF90DF90CF90BF90AF90A3
:1013900008950F931F93CF93DF93EC018BE992E0B5
:1013A0000E941D0940E050E069ED70E08BE992E099
:1013B0000E940E08182F1C826CEC70E083ED96E002
:1013C0000E94251C612F772767FD709583ED96E0BD
:1013D0000E944D1C8BE992E00E94FF02082F11E051
:1013E00018876DEE70E083ED96E00E94251C602F5B
:1013F000772767FD709583ED96E00E944D1C6AE0AB
:101400008BE992E00E94D305082F8AE08D836CE07F
:1014100071E083ED96E00E94251C602F772767FD21
:10142000709583ED96E00E944D1C8BE992E00E943E
:101430004703082F1A876AE271E083ED96E00E9465
:10144000251C602F772767FD709583ED96E00E943D
:101450004D1C6CE48BE992E00E948708182F8CE405
:10146000898766E471E083ED96E00E94251C612F78
:10147000772767FD709583ED96E00E944D1CCE01A5
:101480000E9456098E83682F8BE992E00E94C10862
:10149000182F64E671E083ED96E00E94251C4E81D2
:1014A00050E060E070E02AE030E083ED96E00E94DA
:1014B000811C63E771E083ED96E00E94251C612F9B
:1014C000772767FD709583ED96E00E944D1C8AE3B7
:1014D00096E00E94121866E172E08AE396E00E94AC
:1014E000901864EF71E080E090E00E94210E812F5F
:1014F000DF91CF911F910F9108951092C405E4E6FA
:10150000F0E080818F778083589A599AE9EBF0E078
:1015100080818E7F808380818D7F808381E4809332
:10152000B80085E48093BC0080E2E5ECF5E0DF01E3
:10153000982F1D929A95E9F7E5EEF5E0DF01982FD7
:101540001D929A95E9F7E5E0F6E0DF011D928A9594
:10155000E9F70895613298F42091C405243089F4A4
:101560006093C105FC0185EE95E0DC0102C021918C
:101570002D932A2F281B2617D0F380E0089581E0B1
:10158000089582E0089585EC8093BC001092C40514
:101590000895589859988091B90081608093B90056
:1015A0008091B90082608093B9008091BC0080680E
:1015B0008093BC008091BC0080618093BC008091CE
:1015C000BC008F7B8093BC008091BC008F7D80939A
:1015D000BC008091BC00877F8093BC008091FC0898
:1015E0009091FD08A091FE08B091FF0886FD14C0FF
:1015F0008091FC089091FD08A091FE08B091FF0831
:1016000090FD0AC08091FC089091FD08A091FE0811
:10161000B091FF0893FF04C08091BC008B7F03C092
:101620008091BC0084608093BC008091BC008E7F60
:101630008093BC008091640080688093640008956A
:10164000882349F01092BB051092BC051092BD058D
:101650001092BE0513C08091BB059091BC05A0916E
:10166000BD05B091BE050196A11DB11D8093BB05BE
:101670009093BC05A093BD05B093BE058091BB05BA
:101680009091BC05A091BD05B091BE05803A9648E9
:10169000A140B10560F01092BB051092BC051092FC
:1016A000BD051092BE050E947D0A81E0089580E08C
:1016B000089585ED8093BC0081E00E94200B08C056
:1016C00080E00E94200B882319F01092C405089531
:1016D0008091BC0084FDF4CFF8CFFF920F931F934D
:1016E000CF93DF93182F062FF72EC42FD22F81E030
:1016F000413208F051C00E94200B15C080E00E94CA
:10170000200B882381F082E08093C4058FEF8093C3
:10171000BF051092C305C0932506E02FFF2D65EC91
:1017200075E0DB0107C08091C4058111E7CFEBCFE5
:1017300081918D938A2F861B8C17D0F3812F90E097
:10174000880F991F8093260685EE8093BC0081E068
:101750000E94200BD11105C08091BF058F3F59F425
:1017600014C08091C4058230B9F780E00E94200B3C
:1017700081110DC0F6CF8091BF05803251F080916C
:10178000BF05803341F483E007C080E005C085E0F9
:1017900003C082E001C084E0DF91CF911F910F91DF
:1017A000FF9008950F931F93CF93DF93082FD62FA9
:1017B000172FC42F81E04132E0F50E94200B1DC09D
:1017C00080E00E94200B8823C1F081E08093C40553
:1017D0008FEF8093BF051092C305C0932506802F1D
:1017E00090E0880F991F81608093260685EE809394
:1017F000BC0081E00E94200B10C08091C4058111C3
:10180000DFCFE3CF80E00E94200B882331F085EC0E
:1018100095E0ED2FF12FDC0107C08091C4058130E8
:1018200089F3F5CF2D9121932A2F281B2C17D0F364
:1018300080E0DF91CF911F910F9108951F920F9239
:101840000FB60F9211240BB60F922F933F934F9325
:101850005F936F937F938F939F93AF93BF93CF9338
:10186000EF93FF93C091B900C87FC03609F49FC0C1
:1018700058F5C83209F45BC090F4C03109F452C085
:1018800038F4CC2309F4F2C0C83009F0F3C04AC0E0
:10189000C83109F44CC0C03209F0ECC05DC0C0349E
:1018A00009F473C038F4C03309F45BC0C83309F0DD
:1018B000E1C05AC0C03509F45CC0C83509F46AC03B
:1018C000C83409F0D7C0D4C0C83909F4C5C0A8F4D9
:1018D000C83709F46CC038F4C83609F468C0C0379A
:1018E00009F0C8C064C0C83809F4B6C0C03909F4EA
:1018F00064C0C03809F0BEC060C0C03B09F484C0F9
:1019000038F4C03A09F46BC0C83A09F0B3C07CC0DF
:10191000C03C09F4A5C0C83C09F4A2C0C83B09F00A
:10192000A9C087C0809126068093BB0013C0909108
:10193000C30580912506981708F09AC08091C305C9
:10194000E82FF0E0EB53FA4F90819093BB008F5F4C
:101950008093C30585EC81C00E94590BC093BF05DD
:1019600089C0C093BF0584C0C093BF050E94C30A4D
:1019700081C08091C3059091BB00E82FF0E0EB534C
:10198000FA4F90838F5F8093C3059091C305809138
:1019900025065FC08091C3059091BB00E82FF0E061
:1019A000EB53FA4F90838F5F8093C30561C083E050
:1019B0008093C4051092C005CDCF8091C0058032C0
:1019C00008F04AC08091C0059091BB00E82FF0E07C
:1019D000EB5FF94F90838F5F8093C005BBCF809101
:1019E000C005803230F4E091C005F0E0EB5FF94FC4
:1019F00010826091C005E0912706F091280670E002
:101A000085E096E009952CC084E08093C40510928F
:101A1000C2051092C105E0912906F0912A060995A8
:101A20008091C105811105C081E08093C1051092AC
:101A3000E5058091C205E82FF0E0EB51FA4F908167
:101A40009093BB008F5F8093C2059091C2058091F7
:101A5000C105981708F47ECF85E88093BC000AC0C2
:101A600085EC8093BC001092C40504C01092BF05A1
:101A70000E94590BFF91EF91CF91BF91AF919F9130
:101A80008F917F916F915F914F913F912F910F9027
:101A90000BBE0F900FBE0F901F9018951F920F92C4
:101AA0000FB60F9211240BB60F922F933F934F93C3
:101AB0005F936F937F938F939F93AF93BF93EF93B6
:101AC000FF93F89481E080930A02E0E6F0E08081E1
:101AD0008068808380818F7B808360E083E00E94C8
:101AE0001B0F7894FF91EF91BF91AF919F918F91D0
:101AF0007F916F915F914F913F912F910F900BBE0E
:101B00000F900FBE0F901F9018951F920F920FB657
:101B10000F9211248F939F93AF93BF9380910E09DF
:101B200090910F09A0911009B09111090196A11D82
:101B3000B11D80930E0990930F09A0931009B093E3
:101B40001109BF91AF919F918F910F900FBE0F9090
:101B50001F9018951F920F920FB60F9211248F931A
:101B60009F93AF93BF938091120990911309A09115
:101B70001409B09115090196A11DB11D8093120998
:101B800090931309A0931409B0931509BF91AF91D5
:101B90009F918F910F900FBE0F901F9018958F926D
:101BA0009F92AF92BF92CF92DF92EF92FF920F93EC
:101BB0001F93CF93DF932FB7F89480910E099091E4
:101BC0000F09A0911009B09111092FBF9C01AD011F
:101BD00060E070E080E090E001E00E9411254901A2
:101BE000D42FC52FB62FA72FF82FE92F02E00E9480
:101BF000112559016A017B018C0194014D2F5C2F45
:101C00006B2F7A2F8F2F9E2F0E942025E9E0AE2E7A
:101C1000B12CC12CD12CE12CF12C00E010E00E9461
:101C2000B424952FB901842FDF91CF911F910F918B
:101C3000FF90EF90DF90CF90BF90AF909F908F90EC
:101C400008958F929F92AF92BF92CF92DF92EF92C0
:101C5000FF924B015C0107C00E94CF0D6C157D0502
:101C60008E059F0520F40E94CF0D6B017C010E9420
:101C7000CF0D6C197D098E099F09681579058A05B4
:101C80009B0550F3FF90EF90DF90CF90BF90AF9007
:101C90009F908F900895BC01049768F080E090E0D9
:101CA0000E94302326E636E646EE5FE30E94BE231E
:101CB0000E94042302C0660F771F6150710961F012
:101CC0006150710949F0FB01EE0FFF1F31978FB78B
:101CD000F8943197F1F78FBF0895789484B7877F90
:101CE00084BF10920E0910920F09109210091092E1
:101CF000110984B5826084BD84B5816084BD85B5D9
:101D0000826085BD85B5816085BDEEE6F0E08081AD
:101D100081608083E1E8F0E080818260808380815F
:101D200081608083E0E8F0E0808181608083E1EB86
:101D3000F0E0808184608083E1E9F0E0808184606C
:101D40008083E0EBF0E0808181608083E0E9F0E077
:101D5000808181608083E4E6F0E080818E7F8083F3
:101D6000ECE7F0E080818F778083808180648083DE
:101D7000EAE7F0E0808184608083808182608083F4
:101D80008081806880831092C1001092C9000895FC
:101D900090912B06982B90932B0680FF32C0809158
:101DA00064008E7F8093640080917C008F778093A5
:101DB0007C0080917C00806480937C0080917A001C
:101DC000846080937A0080917A00826080937A00A8
:101DD00080917A00806880937A00809164008F7788
:101DE00080936400809164008B7F80936400809175
:101DF00064008D7F80936400809165008E7F809366
:101E00006500089590E0FC01E056FC4F2491FC0130
:101E1000ED52FC4FE491EE2369F0F0E0EA5EFB4FF7
:101E2000A491B0E08C91611103C02095822301C080
:101E3000822B8C93089590E0FC01E359FC4F249190
:101E4000FC01E056FC4F3491FC01ED52FC4F8491B3
:101E50008823B1F1222331F1233021F490918000C5
:101E60009F7705C0243031F4909180009F7D90933E
:101E7000800018C0213019F494B59F7704C0223037
:101E800021F494B59F7D94BD0DC0263021F490912E
:101E9000B0009F7705C0273029F49091B0009F7D56
:101EA0009093B000E82FF0E0E25FFB4FA491B0E028
:101EB0008C91611103C03095832301C0832B8C93D7
:101EC000089590E0FC01E359FC4F2491FC01E05699
:101ED000FC4F3491FC01ED52FC4F8491882399F121
:101EE000222331F1233021F4909180009F7705C0A7
:101EF000243031F4909180009F7D9093800018C031
:101F0000213019F494B59F7704C0223021F494B5A0
:101F10009F7D94BD0DC0263021F49091B0009F7735
:101F200005C0273029F49091B0009F7D9093B000B8
:101F3000E82FF0E0EA5FFB4FE491F0E0808183233B
:101F400021E030E011F420E030E0C9010895CF92A3
:101F5000DF92EF92FF926B017C01411134C088E067
:101F60000E94C80EC701B60122E030E040E050E018
:101F70000E949624305F414F5F4FCA01B901A7010B
:101F800096010E949624DA01C9010197A109B109BD
:101F9000892F9A2FAB2FBB27A7FDBA958093C50039
:101FA00021502093C4008091C10080618093C100C2
:101FB0008091C10088608093C1008091C1008068D9
:101FC0008093C10033C080E10E94C80EC701B601F2
:101FD00022E030E040E050E00E949624305F414F24
:101FE0005F4FCA01B901A70196010E949624DA0148
:101FF000C9010197A109B109892F9A2FAB2FBB27DE
:10200000A7FDBA958093CD0021502093CC008091FC
:10201000C90080618093C9008091C9008860809365
:10202000C9008091C90080688093C900FF90EF903B
:10203000DF90CF900895611107C09091C00095FF87
:10204000FCCF8093C60008959091C80095FFFCCF07
:102050008093CE00089581110AC08091320690913C
:1020600033069E5F209130063091310609C0809181
:102070002E0690912F069E5F20912C0630912D0602
:10208000821B930B60E072E00E946024089581112E
:1020900019C080913006909131062091320630911E
:1020A00033062817390741F1FC01EA5EF44F20811D
:1020B000019660E072E00E94602490933106809364
:1020C000300618C080912C0690912D0620912E0686
:1020D00030912F062817390779F0FC01EA5EF64F98
:1020E0002081019660E072E00E94602490932D06AA
:1020F00080932C0630E002C02FEF3FEFC901089516
:10210000811109C0109231061092300610923306E8
:1021100010923206089510922D0610922C061092FD
:102120002F0610922E0608951F920F920FB60F924F
:1021300011242F933F934F935F936F937F938F93CC
:102140009F93AF93BF93EF93E091C6002091320627
:1021500030913306C901019660E072E00E9460246C
:1021600040913006509131068417950741F0D9010E
:10217000AA5EB44FEC939093330680933206EF91AE
:10218000BF91AF919F918F917F916F915F914F918F
:102190003F912F910F900FBE0F901F9018951F9297
:1021A0000F920FB60F9211242F933F934F935F938B
:1021B0006F937F938F939F93AF93BF93EF93E09130
:1021C000CE0020912E0630912F06C901019660E0C5
:1021D00072E00E94602440912C0650912D068417D5
:1021E000950741F0D901AA5EB64FEC9390932F0664
:1021F00080932E06EF91BF91AF919F918F917F9128
:102200006F915F914F913F912F910F900FBE0F9063
:102210001F9018950C941B10CF93C82F682F8DE03A
:102220000E941B106C2F8AE0CF910C941B101F93FF
:10223000CF93DF93162FEC0103C0612F0E941B1078
:1022400089918111FACFDF91CF911F9108954F921B
:102250005F926F927F928F929F92AF92BF92CF9236
:10226000DF92EF92FF920F93CF93DF93CDB7DEB75C
:10227000A0970FB6F894DEBF0FBECDBF29013A017B
:102280006115710581059105C9F4602F80E3A09661
:102290000FB6F894DEBF0FBECDBFDF91CF910F9187
:1022A000FF90EF90DF90CF90BF90AF909F908F9076
:1022B0007F906F905F904F900C941B10EE24E394EE
:1022C000F12CEC0EFD1E812C912C5401A3019201E6
:1022D0000E947424F70161937F01FFEF8F1A9F0A18
:1022E000AF0ABF0AB901CA016115710581059105DF
:1022F00069F7CC24CA94DC2C7601C80CD91CEA1CE2
:10230000FB1C14C0E1E0F0E0EC0FFD1FEC0DFD1D27
:1023100080818A3010F4805D01C0895C602F0E944A
:102320001B1081E0C81AD108E108F108EFEFCE16C2
:10233000DE06EE06FE0631F7A0960FB6F894DEBF75
:102340000FBECDBFDF91CF910F91FF90EF90DF9047
:10235000CF90BF90AF909F908F907F906F905F9045
:102360004F900895CF92DF92EF92FF920F936B01FF
:102370007C01042F97FF0CC0642F8DE20E941B107C
:10238000F094E094D094C094C11CD11CE11CF11CC9
:102390002AE030E040E050E0C701B6010E9427117A
:1023A0000F91FF90EF90DF90CF9008950E946D0EF7
:1023B00088ED96E00E94611E853440F061E081E383
:1023C0000E94020F61E081E30E941B0F61E070E058
:1023D00088ED96E00E943D1D8130B1F48091FC08AB
:1023E0009091FD08A091FE08B091FF08906880933D
:1023F000FC089093FD08A093FE08B093FF0860E0EE
:1024000081E090E00E942C2B87E20E94610F892BD3
:1024100059F160E070E088ED96E00E943D1D8A3041
:1024200019F5C1C06CE3629FA001639F500D112498
:10243000840F951F0EC02115310559F06CE3629F82
:10244000A001639F500D11249A01205F314F820F2C
:10245000931F039748F480910B0990910C098062B7
:1024600090930C0980930B098AE396E00E9412185E
:102470008AE396E00E94D3178AE396E00E94E2176F
:102480008AE396E00E949A1363E070E080E090E0B7
:102490000E94210E8091FC089091FD08A091FE08F9
:1024A000B091FF08A1FF5EC063E070E080E090E0C3
:1024B0000E94210E61E086E10E94020F63E070E05D
:1024C00080E090E00E94210E61E086E10E941B0FF7
:1024D00063E070E080E090E00E94210E0E94A2196B
:1024E00063E070E080E090E00E94210E81E00E94B5
:1024F000C51963E070E080E090E00E94210E84E066
:102500000E94D31963E070E080E090E00E94210E09
:1025100080E00E94CE1963E070E080E090E00E94CD
:10252000210E0E94C11963E070E080E090E00E94FB
:10253000210E66E08DEC96E00E94DE1963E070E00B
:1025400080E090E00E94210E61E086E10E94020F8F
:1025500060E086E10E941B0F63E070E080E090E0A5
:102560000E94210E63E070E080E090E00E94210E66
:1025700088ED96E00E943B1E60933406709335060A
:1025800080933606909337068091340690913506F5
:10259000A0913606B09137060E9481250E944E0216
:1025A0000E945602FDCF8AE396E00E9412188AE349
:1025B00096E00E9464168AE396E00E945916809184
:1025C000530690E020915506821B910920915206F6
:1025D00030E040915606241B3109121613060CF404
:1025E00021CF29CF1F93CF93DF931F92CDB7DEB7B3
:1025F000162F61E08AE149830E94020F61E088E1C1
:102600000E94020F4981112321F0113009F048C0C6
:1026100020C041110EC061E08AE10E941B0F809131
:10262000FC089091FD08A091FE08B091FF0882601F
:102630002FC04130A9F560E08AE10E941B0F809114
:10264000FC089091FD08A091FE08B091FF088D7FD5
:102650001FC041110EC061E088E10E941B0F8091F4
:10266000FC089091FD08A091FE08B091FF088160E0
:102670000FC04130A9F460E088E10E941B0F8091F7
:10268000FC089091FD08A091FE08B091FF088E7F94
:102690008093FC089093FD08A093FE08B093FF0878
:1026A0000F90DF91CF911F91089561E089E20E9420
:1026B000020F61E088E20E94020F89ED96E00C941F
:1026C000AF1E8091DF06882341F080913B07811186
:1026D00004C088E396E00C94551308950F931F935C
:1026E000CF93DF93EC01042F68A761E080E30E94A1
:1026F000020F18A5112379F0113091F461E080E305
:102700000E941B0F013019F482E08B8B09C001116C
:1027100007C01B8B05C060E080E30E941B0F1B8A73
:102720006AE070E080E090E0DF91CF911F910F911F
:102730000C94210ECF93DF93EC010E94611340E0D3
:1027400060E0CE01DF91CF910C946E13FC01148AEE
:10275000158A168A178A108E118E128E138E148E79
:10276000158E168E178E10A211A212A213A214A2F9
:1027700015A216A217A20895EF92FF920F931F932E
:10278000CF93DF93CDB7DEB7EC970FB6F894DEBFEB
:102790000FBECDBF8C01E0EAF1E085919491BC01C0
:1027A000EE24E394F12CEC0EFD1EC7010E94AA2535
:1027B000E2EAF1E085919491BC01CE0189960E94F4
:1027C000AA25F8018689843009F466C040F4823075
:1027D00029F108F04BC0813009F0B6C009C086303D
:1027E00009F486C008F46EC0873009F0ADC096C009
:1027F000F801818D1F928F93808D1F928F9387890F
:102800001F928F93828D1F928F9385891F928F9332
:1028100084891F928F938AE592E015C0F801818D1B
:102820001F928F93808D1F928F9387891F928F9312
:10283000828D1F928F9385891F928F9384891F9217
:102840008F938EE592E09F938F93FF92EF921F926A
:1028500084E68F93C80189969F938F930E94DE250B
:102860000FB6F894DEBF0FBECDBF81C0F801818DD9
:102870001F928F93808D1F928F9387891F928F93C2
:10288000828D1F928F9385891F928F9384891F92C7
:102890008F9382E692E0D7CFF801818D1F928F93BC
:1028A000808D1F928F9387891F928F93828D1F92A5
:1028B0008F9385891F928F9384891F928F9386E6C9
:1028C00092E0C1CFF801818D1F928F93808D1F926E
:1028D0008F9387891F928F93828D1F928F93858903
:1028E0001F928F9384891F928F938AE692E0ABCFD9
:1028F000F801818D1F928F93808D1F928F9387890E
:102900001F928F93828D1F928F9385891F928F9331
:1029100084891F928F938EE692E095CFF801818D86
:102920001F928F93808D1F928F9387891F928F9311
:10293000828D1F928F9385891F928F9384891F9216
:102940008F9382E792E07FCFCE0189969F938F93FA
:102950001F9284E68F93C80189969F938F930E945C
:10296000DE250F900F900F900F900F900F90075D46
:102970001F4FC801EC960FB6F894DEBF0FBECDBF57
:10298000DF91CF911F910F91FF90EF900895CF921B
:10299000DF92EF92FF920F931F93CF93DF938C01FF
:1029A000C62E8091DF06811104C089ED96E00E9459
:1029B000691E68E670E089ED96E00E94961E60E070
:1029C00070E089ED96E00E94C21F89ED96E00E94BA
:1029D000C41F43E150E068E670E089ED96E00E9494
:1029E000FE1FE12CF12CC0E0D0E0D12CE4C089ED39
:1029F00096E00E949E1EF801EC0FFD1F8083C630FA
:102A0000D10509F467C098F4C230D10509F43EC07D
:102A100038F4209729F1C130D10509F0C7C02BC087
:102A2000C430D10509F440C008F049C03AC0CA30EA
:102A3000D10509F484C048F4282F30E0C830D1050E
:102A400009F461C008F06DC050C0CC30D10509F464
:102A500092C008F482C0CD30D10509F0A7C099C05A
:102A6000982F92959F708F702AE0929F800D11246D
:102A7000F801818F9BC0982F92959F708F70FAE01C
:102A80009F9F800D1124F801808F90C0982F929500
:102A90009F708F70FAE09F9F800D1124F801878B43
:102AA00085C0F801868B82C0982F92959F708F7099
:102AB000FAE09F9F800D1124F801828F77C0982F34
:102AC00092959F708F70FAE09F9F800D1124F801FE
:102AD000858B6CC0982F92959F708F70FAE09F9FA6
:102AE000800D1124F801848B61C054E03595279541
:102AF0005A95E1F727708F70FAE02F9F800D11240F
:102B0000F801838F53C044E0359527954A95E1F746
:102B100027708F70FAE02F9F800D1124F801848FA9
:102B200045C094E0359527959A95E1F723708F700D
:102B3000FAE02F9F800D1124F801858F37C0282FD0
:102B40002695269526952670922F990F990F920F0C
:102B50008F70980FF801968F29C0282F26952695FB
:102B600026952E70922F990F990F920F8F70980FB4
:102B7000F801978F1BC0282F26952695269526703D
:102B8000922F990F990F920F8F70980FF80190A3C1
:102B90000DC0282F2695269526952670922F990FE1
:102BA000990F920F8F70980FF80191A3219603C08F
:102BB000FFEFEF1AFF0ACC16DD0658F02AE0E21606
:102BC000F10438F489ED96E00E94981E882381F381
:102BD0000ECFDF91CF911F910F91FF90EF90DF907B
:102BE000CF9008951F93CF93DF93EC01162F809120
:102BF000DF06811104C089ED96E00E94691E68E637
:102C000070E089ED96E00E94961E612F89ED96E0B6
:102C10000E94961FC10FD11D688189ED96E00E9428
:102C2000961F89ED96E0DF91CF911F910C94C41F00
:102C3000FF920F931F93CF93DF938C01F62E809119
:102C4000DF06811104C089ED96E00E94691E68E6E6
:102C500070E089ED96E00E94961E6F2D89ED96E05A
:102C60000E94961F89ED96E00E94C41F41E050E04B
:102C700068E670E089ED96E00E94FE1FCBE0D0E0B0
:102C800089ED96E00E94981E811102C02197C1F73C
:102C900089ED96E00E949E1EF801EF0DF11D8083E4
:102CA00089ED96E0DF91CF911F910F91FF900C94E9
:102CB000C41FCF93DF93EC0166E00E94C714CE01DE
:102CC000DF91CF910C94BC13CF92DF92EF92FF92E1
:102CD0000F931F93CF93DF93CDB7DEB7C857D109BA
:102CE0000FB6F894DEBF0FBECDBF7C016AE00E9434
:102CF000C7148701075D1F4F84E6F80111928A957A
:102D0000E9F7EEE7F1E085919491BC01CE018F5A8D
:102D10009F4F0E94AA25BE016F5A7F4FC8010E9493
:102D2000B125F70182A1823009F46AC030F488230A
:102D300069F0813009F00BC122C0843009F4C7C0AA
:102D400008F493C0853009F002C1F0C0E0E8F1E07A
:102D500085919491BC01CE018F5A9F4F0E94AA2564
:102D6000BE016F5A7F4FC8010E94B125EEE8F1E025
:102D7000859194916E01F9E2CF0ED11C18C0E2E862
:102D8000F1E085919491BC01CE018F5A9F4F0E9432
:102D9000AA25BE016F5A7F4FC8010E94B125EEE8F7
:102DA000F1E0859194916E01E9E2CE0ED11CBC0157
:102DB000C6010E94AA25F701838D1F928F93848DEF
:102DC0001F928F93858D1F928F93868D1F928F9365
:102DD000DF92CF921F9288E28F93EE24E394F12C3E
:102DE000EC0EFD1EFF92EF920E94DE25B701C80196
:102DF0000E94B1250FB6F894DEBF0FBECDBFC2C092
:102E0000E4E8F1E085919491BC01CE018F5A9F4F87
:102E10000E94AA25BE016F5A7F4FC8010E94B125AA
:102E2000E0E9F1E0859194916E01E9E2CE0ED11CCA
:102E3000BC01C6010E94AA25F701838D1F928F93C2
:102E4000848D1F928F93858D1F928F93DF92CF92E7
:102E50001F9288E28F93EE24E394F12CEC0EFD1E7A
:102E6000FF92EF920E94DE25C1CFE6E8F1E0859166
:102E70009491BC01CE018F5A9F4F0E94AA25BE019A
:102E80006F5A7F4FC8010E94B125E2E9F1E08591B8
:102E900094916E01E9E2CE0ED11CBC01C6010E94E4
:102EA000AA25F701838D1F928F93848D1F928F9394
:102EB000DF92CF921F9288E28F93EE24E394F12C5D
:102EC000EC0EFD1EFF92EF920E94DE258FCFE8E808
:102ED000F1E085919491BC01CE018F5A9F4F0E94E1
:102EE000AA25BE016F5A7F4FC8010E94B125E4E9AF
:102EF000F1E0859194916E01E9E2CE0ED11CBC0106
:102F0000C6010E94AA25F701838D1F928F93DF923D
:102F1000CF921F9288E28F93EE24E394F12CEC0E73
:102F2000FD1EFF92EF920E94DE2560CFEAE8F1E0FD
:102F300085919491BC01CE018F5A9F4F0E94AA2582
:102F4000BE016F5A7F4FC8010E94B1251BC0ECE83B
:102F5000F1E0859194917E01E1E5EE0EF11CBC015A
:102F6000C7010E94AA25FF92EF921F9284E68F93D9
:102F70001F930F930E94DE250F900F900F900F90DC
:102F80000F900F90C801C858DF4F0FB6F894DEBFFE
:102F90000FBECDBFDF91CF911F910F91FF90EF90AA
:102FA000DF90CF900895CF93DF93EC016EE00E9405
:102FB00018168E858E7F8E876EE0CE01DF91CF91C1
:102FC0000C94F215CF93DF93EC016EE00E9418167B
:102FD0008E858D7F8E876EE0CE01DF91CF910C9430
:102FE000F215CF93DF93EC016FE00E9418168F85E6
:102FF0008370DF91CF910895CF93DF93EC010E940E
:10300000F117882319F0CE56DF4F88838091490647
:103010008C7F809349066FE08AE396E0DF91CF9141
:103020000C94F215CF93DF93EC0140E061E00E9435
:103030006E13CE010E94FC17CE010E94A6136DE014
:10304000CE010E94C71461E08BE20E94020F60E093
:103050008BE2DF91CF910C941B0F362F862F6AE005
:103060000E944024292F832F90E0821B91096AE05F
:1030700070E00E946024B4E0660F771FBA95E1F714
:10308000822F862B08950F931F93CF93DF93EC012C
:103090008091DF06811104C089ED96E00E94691ECF
:1030A00068E670E089ED96E00E94961E60E070E0B0
:1030B00089ED96E00E94C21F698DCE010E942D18F5
:1030C0008883688DCE010E942D1889836F89CE0177
:1030D0000E942D188A838E898B836A8DCE010E946F
:1030E0002D188C836D89CE010E942D188D836C89DB
:1030F000CE010E942D188E8300E010E0699189EDC9
:1031000096E00E94961F0F5F1F4F07301105B1F721
:1031100089ED96E0DF91CF911F910F910C94C41F20
:10312000AF92BF92CF92DF92EF92FF920F931F93D5
:10313000CF93DF93CDB7DEB7ED970FB6F894DEBF30
:103140000FBECDBF8C01B62EA72E7E0129E2E20E66
:10315000F11C87E0F70111928A95E9F7E4EAF1E0C2
:1031600085919491BC01CC24C394D12CCC0EDD1E4E
:10317000C6010E94AA25EB2DFA2DDF010D9000203B
:10318000E9F75597AE17BF0711F081E0C5C0CE0132
:10319000C0969F938F93CE018E969F938F93CE016F
:1031A000C2969F938F93CE018D969F938F93CE015E
:1031B000C4969F938F93CE018C969F938F93CE014D
:1031C000C6969F938F93CE018B969F938F93CE013C
:1031D000C8969F938F93CE018A969F938F93CE012B
:1031E000CA969F938F93FF92EF92CE01CC969F93B6
:1031F0008F93DF92CF92AF92BF920E941B2668E816
:1032000072E0C7010E94BC250FB6F894DEBF0FBE66
:10321000CDBF892B09F4B9CF8CAD9DAD8436910516
:1032200008F0B3CFF801848B2AAD3BADA901415022
:1032300051094C30510508F0A8CF258B213061F0A1
:10324000233051F0253041F0273031F0283021F083
:103250002A3011F02C3029F488AD99AD809770F1A7
:1032600094CF243031F0263021F0293011F02B306A
:1032700029F488AD99AD4F9708F187CF2230F1F44A
:10328000282F2370B1F49C012053384FC90164E604
:1032900070E00E946024892B39F4C90160E971E073
:1032A0000E946024892B29F488AD99AD4E9730F0A7
:1032B0006CCF88AD99AD4D9708F067CF88AD99ADCB
:1032C0009C01215031092F31310508F05ECFF80102
:1032D000828F8EA99FA99C01215031092730310589
:1032E00008F053CF868B8CA99DA98831910508F0F1
:1032F0004CCF878B8AA99BA98C33910508F045CFC9
:10330000808F88A999A98C33910508F03ECF818FD1
:10331000C8010E94431880E0ED960FB6F894DEBF16
:103320000FBECDBFDF91CF911F910F91FF90EF9016
:10333000DF90CF90BF90AF9008951092CB0610927F
:103340004D06089561E08EE10E94020F61E08FE179
:103350000E94020F61E08DE10E94020F60E08EE1A9
:103360000E941B0F60E08FE10E941B0F61E08DE166
:103370000E941B0F8CB580618CBD8CB580648CBDA8
:1033800008958CB58F7B8CBD0895811103C08CB5D9
:10339000806202C08CB58F7D8CBD08959CB5937FF3
:1033A000982B9CBD08952CB5982F93702C7F922B51
:1033B0009CBD9DB580FB90F99DBD0895CF93C62F10
:1033C00061E08DE10E94020F61E082E20E94020F43
:1033D00061E08DE10E941B0F61E082E20E941B0F01
:1033E0008091FC089091FD08A091FE08B091FF0823
:1033F000A2FF08C061E088E00E94020F61E088E05F
:103400000E941B0F8091FC089091FD08A091FE087E
:10341000B091FF0896FF08C061E089E00E94020FAA
:1034200061E089E00E941B0F8091FC089091FD08EB
:10343000A091FE08B091FF08A3FF08C061E082E000
:103440000E94020F61E082E00E941B0F8091FC0845
:103450009091FD08A091FE08B091FF08A4FF08C05C
:1034600061E082E20E94020F61E082E20E941B0F93
:10347000C330C9F020F4C13061F070F407C0C5302A
:1034800061F1F0F0C63009F067C033C060E08DE153
:1034900060C060E082E25DC088ED96E00E94251D7C
:1034A00060E08CE256C08091FC089091FD08A091EC
:1034B000FE08B091FF08A2FF4FC060E088E049C05D
:1034C0008091FC089091FD08A091FE08B091FF0842
:1034D00096FF42C060E089E03CC08091FC0890917A
:1034E000FD08A091FE08B091FF08A3FF35C060E081
:1034F0002FC061E08DE10E941B0F61E082E20E941B
:103500001B0F8091FC089091FD08A091FE08B091DE
:10351000FF08A2FF04C061E088E00E941B0F8091B9
:10352000FC089091FD08A091FE08B091FF0896FF5D
:1035300004C061E089E00E941B0F8091FC0890911B
:10354000FD08A091FE08B091FF08A3FF05C061E04F
:1035500082E0CF910C941B0FCF9108958091FC08CD
:103560009091FD08A091FE08B091FF08A2FF0EC047
:103570008091FC089091FD08A091FE08B091FF0891
:1035800081FF04C08091CF068823C1F18091FC089F
:103590009091FD08A091FE08B091FF08A1FF0CC01A
:1035A0008091CD06811108C061E086E10E94020F82
:1035B00061E086E10E941B0F8091CE06811108C058
:1035C00061E08BE10E94020F61E08BE10E941B0F22
:1035D0008091FC089091FD08A091FE08B091FF0831
:1035E000A4FF11C08091D20681110DC061E086E177
:1035F0000E94020F61E086E10C941B0F61E082E003
:103600000E941B0FC3CF08958091FC089091FD0884
:10361000A091FE08B091FF08A2FF0EC08091FC08A7
:103620009091FD08A091FE08B091FF0881FF04C0B1
:103630008091CF068823C1F18091FC089091FD080C
:10364000A091FE08B091FF08A1FF0CC08091CD06AB
:10365000811108C061E086E10E94020F60E086E10E
:103660000E941B0F8091CE06811108C061E08BE1A2
:103670000E94020F60E08BE10E941B0F8091FC080A
:103680009091FD08A091FE08B091FF08A4FF11C021
:103690008091D20681110DC061E086E10E94020F87
:1036A00060E086E10C941B0F60E082E00E941B0F3B
:1036B000C3CF0895CF93C82F8DEC96E00E94AE1A29
:1036C000CEBD0DB407FEFDCF8DEC96E00E94041B2D
:1036D0008EB5CF9108951092CE061092CD0610921D
:1036E000CF061092D0061092D1061092D2060895FD
:1036F000FC01408160E072EC81E090E00E94A70F45
:1037000061E087E10E94020F61E087E10E941B0FE8
:1037100061E08BE00E94020F60E08BE00E941B0FD3
:1037200061E08DE20E94020F60E08DE20C941B0FBD
:10373000CF93DF93EC01488160E072EC81E090E090
:103740000E94A70F61E087E10E941B0F60E08BE001
:103750000E941B0F88810E942B10DF91CF9108954A
:10376000CF93DF93EC01488160E072EC81E090E060
:103770000E94A70F8881DF91CF910C944710CF93BF
:10378000DF93EC01488160E072EC81E090E00E9400
:10379000A70F8881DF91CF910C948010DC0180917C
:1037A000C50011968C9311978091C40012968C934A
:1037B0001297E2ECF0E0808113968C93139780913E
:1037C000CA0014968C93149780818F7D80838081AA
:1037D0008F7E80838081877F80834C9160E072EC54
:1037E00081E090E00E94A70F61E087E10E941B0F3B
:1037F00060E08BE00C941B0FCF93DF93EC014091C2
:10380000FC085091FD086091FE087091FF0863E08C
:1038100070E080E090E042FF07C00E94210E61E06E
:103820008BE00E941B0F02C00E94210E89818093B1
:10383000C5008A818093C4008B818093C2008C81F3
:103840008093CA00DF91CF910895EF92FF920F937A
:103850001F93CF93DF938C01EB010E94CE1B7E015F
:1038600088E1E81A8CEFF80AFE01219684918823FA
:1038700039F0F80160810E940A11CE15DF05A1F729
:10388000C8010E94FC1B60E070E0CB01DF91CF918A
:103890001F910F91FF90EF9008950F931F93CF9377
:1038A000DF93EC018B010E94CE1B17FF07C06881DC
:1038B0008DE20E940A11119501951109B80188271E
:1038C00077FD8095982F08812AE030E040E050E0B5
:1038D0000E94271188810E940C11CE01DF91CF91A7
:1038E0001F910F910C94FC1BCF93DF93EC010E946E
:1038F000CE1B88810E940C11CE01DF91CF910C94D8
:10390000FC1BAF92BF92DF92EF92FF920F931F9337
:10391000CF93DF93EC01142FD52E7B0159010E9428
:10392000CE1BA114B10429F46881812F0E940A11D1
:1039300016C08AE0A816B10439F44881612F7D2DA4
:10394000C7010E94B2110BC09501442737FD409575
:10395000542F0881612F7D2DC7010E942711CE01B0
:10396000DF91CF911F910F91FF90EF90DF90BF906B
:10397000AF900C94FC1BCF92DF92EF92FF920F93CB
:10398000CF93DF93EC016A017B010E94CE1BF7FE0F
:103990000CC068818DE20E940A11F094E094D094EA
:1039A000C094C11CD11CE11CF11C08812AE030E04C
:1039B00040E050E0C701B6010E942711CE01DF911F
:1039C000CF910F91FF90EF90DF90CF900C94FC1B64
:1039D000AB01662757FD6095762F0C94BB1C0F93A7
:1039E0001F93CF93DF93EC018B010E94CE1B688164
:1039F000C8010E941711CE01DF91CF911F910F9145
:103A00000C94FC1B1092D30608951F93CF93DF9361
:103A10001F92CDB7DEB7162F61E0812F49830E9438
:103A2000020F4981413011F461E003C0411108C027
:103A300060E0812F0F90DF91CF911F910C941B0FAD
:103A40000F90DF91CF911F91089561E087E10E946F
:103A5000020F61E084E20E94020F61E085E20E94B1
:103A6000020F61E087E10E941B0F61E084E20E9487
:103A70001B0F61E085E20C941B0FCB010C941E2BF5
:103A80008F929F92AF92BF92CF92DF92EF92FF926E
:103A90000F931F93CF93DF93CDB7DEB7C75FD109E5
:103AA0000FB6F894DEBF0FBECDBF8E0100511F4F81
:103AB000580128E0A20EB11C7E0181E8E80EF11C3D
:103AC000CC24C394D12CCC0EDD1E6DE0CE018F51E1
:103AD0009F4F0E94CA2240E06CE088ED96E00E9471
:103AE000051D40E06DE088ED96E00E94051DF8019F
:103AF000108211821282138261E08CE00E94020F18
:103B000061E08CE00E941B0FCE018F519F4F0E94FD
:103B1000AA2141E06DE088ED96E00E94051D6AE073
:103B200070E080E090E00E94210E40E063E3CE016F
:103B30008F519F4F0E947B2262E370E080E090E013
:103B40000E94210E4701CE018F519F4F0E945022AB
:103B5000F2E08F1A9108F4018083118261E070E035
:103B600080E090E00E94210E8C149D0461F7FE011C
:103B70007196D701C60180599F4F219131912D93A4
:103B80003D93E817F907C9F731EE832E912C8C0E7F
:103B90009D1E81E090E0A0E0B0E0F401329122911E
:103BA0004F012130310569F4F80140815181628172
:103BB0007381480F591F6A1F7B1F408351836283A3
:103BC0007383880F991FAA1FBB1F8E149F0429F7A8
:103BD000F80180819181A281B3818F3F9F4FAF4FC8
:103BE000BF4F29F4F801108211821282138260E023
:103BF0008CE00E941B0F40E06CE088ED96E00E9494
:103C0000051D40E06DE088ED96E00E94051D0C5F0B
:103C10001F4F0A151B0509F058CFC051DF4F08810F
:103C200019812A813B81C05FD040CC50DF4F888111
:103C30009981AA81BB81C45FD040081719072A0760
:103C40003B0719F000E010E09801B801C901C95024
:103C5000DF4F0FB6F894DEBF0FBECDBFDF91CF911F
:103C60001F910F91FF90EF90DF90CF90BF90AF909A
:103C70009F908F900895CF92DF92EF92FF920E94D3
:103C8000401D6B017C01611571058105910591F461
:103C900083EE90E00E94262B6A302AE072078207AA
:103CA000920741F06F3F2FEF72078207920711F0E2
:103CB0006B017C01B601C701FF90EF90DF90CF90C0
:103CC00008958FED90E00E941E2B8F3F09F480E055
:103CD0000895CF93DF93EC0180E2E7E0F7E0DF01A6
:103CE000982F1D929A95E9F71092060710920507F2
:103CF000E4EEF6E0DF011D928A95E9F71092E30603
:103D00001092E2060E947D0A81E08E8384E090E0BA
:103D1000DF91CF910C944B0E81E08093E10660938C
:103D200004071092E3061092E20608950C948C1E8C
:103D30008091050790910607891B089590910607C9
:103D400080910507981748F4E92FF0E0E95FF84FF4
:103D500080819F5F90930607089580E00895CF9338
:103D6000DF93EC010E94C90A1E82DF91CF91089572
:103D70004091FC085091FD086091FE087091FF0889
:103D80004170FC0140834091FC085091FD08609116
:103D9000FE087091FF087695679557954795417095
:103DA00041838091FC089091FD08A091FE08B0919C
:103DB000FF0884FD49C08091FC089091FD08A09106
:103DC000FE08B091FF0885FD3FC08091FC089091EE
:103DD000FD08A091FE08B091FF0886FD35C08091D6
:103DE000FC089091FD08A091FE08B091FF0887FDA6
:103DF0002BC08091FC089091FD08A091FE08B09125
:103E0000FF0890FD21C08091FC089091FD08A091D1
:103E1000FE08B091FF0891FD17C08091FC089091B9
:103E2000FD08A091FE08B091FF0893FD0DC0089514
:103E300040E060E088E396E00E94F21240E061E03A
:103E400088E396E00C94F2128091E006882381F3D7
:103E50000895CF93DF93EC018091FC089091FD08C9
:103E6000A091FE08B091FF0884FD58C08091FC0825
:103E70009091FD08A091FE08B091FF0885FD4EC00D
:103E80008091FC089091FD08A091FE08B091FF0878
:103E900086FD44C08091FC089091FD08A091FE0829
:103EA000B091FF0887FD3AC08091FC089091FD0811
:103EB000A091FE08B091FF0890FD30C04091FC0831
:103EC0005091FD086091FE087091FF0851FD26C0D9
:103ED0004091FC085091FD086091FE087091FF0828
:103EE00053FD1CC020C041E060E088E396E00E94E2
:103EF000F2120CC08981811106C041E060E088E3C4
:103F000096E00E94F212888181110DC041E061E0CB
:103F100088E396E0DF91CF910C94F2128091E00655
:103F20008111E8CFE0CFDF91CF910895CF93DF9358
:103F30001F92CDB7DEB769838091E106882389F0AF
:103F40008091E2068032D0F48091E306E82FF0E021
:103F5000EC51F94F60838F5F8093E3068093E20614
:103F60000DC089ED96E00E94B81E61E0CE01019679
:103F70000E94AA0A89ED96E00E94291F0F90DF9106
:103F8000CF9108950C94961FCF9389ED96E00E94EF
:103F9000B81E21E04091E20664EE76E080910407CD
:103FA0000E946D0BC82F1092E3061092E206109249
:103FB000E10689ED96E00E94291F8C2FCF9108958C
:103FC000CF93DF93D62FC42F89ED96E00E94B81EC1
:103FD000C13208F0C0E24C2F67E077E08D2F0E94DD
:103FE000D20BD82F10920607C093050789ED96E0F3
:103FF0000E94291F8D2FDF91CF9108950C94E01F0F
:104000001092E0061092D9061092DA068AEF90E03C
:10401000A0E0B0E08093DB069093DC06A093DD0681
:10402000B093DE0608951F920F920FB60F921124DF
:104030000BB60F922F933F934F935F936F937F93A2
:104040008F939F93AF93BF93EF93FF938091270735
:1040500090912807892B29F0E0912707F0912807F4
:104060000995FF91EF91BF91AF919F918F917F91B2
:104070006F915F914F913F912F910F900BBE0F90D9
:104080000FBE0F901F9018951F920F920FB60F92B0
:1040900011240BB60F922F933F934F935F936F931F
:1040A0007F938F939F93AF93BF93EF93FF938091F1
:1040B000290790912A07892B29F0E0912907F0918F
:1040C0002A070995FF91EF91BF91AF919F918F9131
:1040D0007F916F915F914F913F912F910F900BBE08
:1040E0000F900FBE0F901F9018951F920F920FB652
:1040F0000F9211240BB60F922F933F934F935F9320
:104100006F937F938F939F93AF93BF93EF93FF939F
:1041100080912B0790912C07892B29F0E0912B0798
:10412000F0912C070995FF91EF91BF91AF919F916D
:104130008F917F916F915F914F913F912F910F9050
:104140000BBE0F900FBE0F901F9018951F920F92ED
:104150000FB60F9211240BB60F922F933F934F93EC
:104160005F936F937F938F939F93AF93BF93EF93DF
:10417000FF9380912D0790912E07892B29F0E091D4
:104180002D07F0912E070995FF91EF91BF91AF9107
:104190009F918F917F916F915F914F913F912F915F
:1041A0000F900BBE0F900FBE0F901F9018951F928F
:1041B0000F920FB60F9211240BB60F922F933F93CD
:1041C0004F935F936F937F938F939F93AF93BF931F
:1041D000EF93FF9380912F0790913007892B29F05F
:1041E000E0912F07F09130070995FF91EF91BF9172
:1041F000AF919F918F917F916F915F914F913F917F
:104200002F910F900BBE0F900FBE0F901F9018951F
:104210001F920F920FB60F9211240BB60F922F938D
:104220003F934F935F936F937F938F939F93AF933E
:10423000BF93EF93FF938091310790913207892BC1
:1042400029F0E0913107F09132070995FF91EF9144
:10425000BF91AF919F918F917F916F915F914F919E
:104260003F912F910F900BBE0F900FBE0F901F909C
:1042700018951F920F920FB60F9211240BB60F9242
:104280002F933F934F935F936F937F938F939F935E
:10429000AF93BF93EF93FF938091330790913407CF
:1042A000892B29F0E0913307F09134070995FF91AC
:1042B000EF91BF91AF919F918F917F916F915F919E
:1042C0004F913F912F910F900BBE0F900FBE0F900B
:1042D0001F9018951F920F920FB60F9211240BB6D4
:1042E0000F922F933F934F935F936F937F938F938F
:1042F0009F93AF93BF93EF93FF9380913507909176
:104300003607892B29F0E0913507F091360709959A
:10431000FF91EF91BF91AF919F918F917F916F919D
:104320005F914F913F912F910F900BBE0F900FBE59
:104330000F901F90189510923C0782E080933807E9
:104340008CE180933D0780EC91E090933F07809350
:104350003E070895CF92DF92EF92FF921F93CF9383
:10436000DF93EC0160E08E850E94020F0E94CF0D6A
:104370006B017C011EE7115089F182E090E00E9400
:104380004B0E0E94CF0D6C157D058E059F0520F408
:104390000E94CF0D6B017C018E850E94610F892BDD
:1043A000F9F40E94CF0D6C197D098E099F09643FB5
:1043B000714081059105F8F213C00E94CF0D6B0189
:1043C0007C011130C1F10E94CF0D6C197D098E095D
:1043D0009F09643F714081059105D0F010E02BC02A
:1043E00061E08E850E94020F60E08E850E941B0FA7
:1043F00084E591E00E944B0E0E94CF0D6B017C0181
:104400008E850E94610F11E0892BD9F210E0D9CF7F
:104410008E850E94610F11E0892B09F010E089E080
:1044200090E00E944B0E0E94CF0D6C157D058E050D
:104430009F0538F6C2CF812FDF91CF911F91FF905A
:10444000EF90DF90CF9008951F93CF93DF93FC01FF
:104450001081C181D281912F9095F8948A8189230E
:104460008A838981812B898360FF0BC089E090E07A
:104470000E944B0E8A81812B8A8378948FE290E090
:104480000AC087E390E00E944B0E8A81812B8A83C9
:10449000789485E090E0DF91CF911F910C944B0EC2
:1044A0000F931F93CF93DF93FC011081C181D281C1
:1044B000F8948981812B89838A81012F009580233B
:1044C0008A8382E090E00E944B0E89818023898359
:1044D00087E090E00E944B0EC88178948DE290E0D6
:1044E0000E944B0E1C2381E009F480E0DF91CF9104
:1044F0001F910F910895CF92DF92EF92FF920F9349
:104500001F93CF93DF931F92CDB7DEB76C01E62EDA
:1045100008E010E0FF24F3949F2D9E2161E009F450
:1045200060E0C60149830E942422FF0C015011095A
:1045300049810115110581F7411115C0F894D60183
:104540001196ED91FC91129791818C918095892320
:1045500081831196ED91FC91129792818C918095B7
:104560008923828378940F90DF91CF911F910F91CF
:10457000FF90EF90DF90CF900895FC011386158691
:10458000148612861186108617821682158214826E
:1045900013820895CF93DF93EC01862F6E8760E03E
:1045A0000E94020F8E8590E0FC01E056FC4FE491E2
:1045B000E883FC01ED52FC4FE491F0E0EA5FFB4F31
:1045C000E491E9831A82CE01DF91CF910C94BD2250
:1045D000FC01128A118E138EDC01A356BE4F89E1B5
:1045E00011968C93119714961C92DF01AE55BE4F15
:1045F0001C9212961C92E956FE4F11821082089569
:1046000080E497E00C94E82298D088F09F5790F0CF
:10461000B92F9927B751A0F0D1F0660F771F881FE7
:10462000991F1AF0BA95C9F712C0B13081F09FD026
:10463000B1E008959CC0672F782F8827B85F39F0C4
:10464000B93FCCF3869577956795B395D9F73EF446
:1046500090958095709561957F4F8F4F9F4F0895EE
:10466000E89409C097FB3EF490958095709561950C
:104670007F4F8F4F9F4F9923A9F0F92F96E9BB27C2
:104680009395F695879577956795B795F111F8CF3E
:10469000FAF4BB0F11F460FF1BC06F5F7F4F8F4FA9
:1046A0009F4F16C0882311F096E911C0772321F09F
:1046B0009EE8872F762F05C0662371F096E8862F37
:1046C00070E060E02AF09A95660F771F881FDAF78E
:1046D000880F9695879597F9089597F99F6780E8D1
:1046E00070E060E008959FEF80EC089500240A9444
:1046F0001616170618060906089500240A941216BD
:104700001306140605060895092E0394000C11F4EF
:10471000882352F0BB0F40F4BF2B11F460FF04C09C
:104720006F5F7F4F8F4F9F4F089557FD9058440FF5
:10473000551F59F05F3F71F04795880F97FB991F00
:1047400061F09F3F79F087950895121613061406BD
:10475000551FF2CF4695F1DF08C01616170618064A
:10476000991FF1CF86957105610508940895E89425
:10477000BB2766277727CB0197F908950BD0C4CFC5
:10478000B5DF28F0BADF18F0952309F0A6CFABCF3C
:104790001124EECFCADFA0F3959FD1F3950F50E01F
:1047A000551F629FF001729FBB27F00DB11D639FE3
:1047B000AA27F00DB11DAA1F649F6627B00DA11D89
:1047C000661F829F2227B00DA11D621F739FB00D2F
:1047D000A11D621F839FA00D611D221F749F33279F
:1047E000A00D611D231F849F600D211D822F762F38
:1047F0006A2F11249F5750408AF0E1F088234AF035
:10480000EE0FFF1FBB1F661F771F881F9150504080
:10481000A9F79E3F510570F060CFAACF5F3FECF340
:10482000983EDCF3869577956795B795F795E7956C
:104830009F5FC1F7FE2B880F911D9695879597F97D
:104840000895A29FB001B39FC001A39F01D0B29F62
:10485000700D811D1124911D08950E942124A59F92
:10486000900DB49F900DA49F800D911D112408956B
:10487000B7FF0C942D240E942D24821B930B0895C6
:10488000991B79E004C0991F961708F0961B881FA2
:104890007A95C9F780950895AA1BBB1B51E107C003
:1048A000AA1FBB1FA617B70710F0A61BB70B881FC0
:1048B000991F5A95A9F780959095BC01CD0108954F
:1048C00097FB072E16F4009407D077FD09D00E94BD
:1048D0004C2407FC05D03EF4909581959F4F089598
:1048E000709561957F4F0895A1E21A2EAA1BBB1BFC
:1048F000FD010DC0AA1FBB1FEE1FFF1FA217B307AC
:10490000E407F50720F0A21BB30BE40BF50B661FC1
:10491000771F881F991F1A9469F760957095809585
:1049200090959B01AC01BD01CF010895052E97FB29
:1049300016F4009407D057FD0DD00E94742407FC94
:1049400009D07EF490958095709561957F4F8F4F3B
:104950009F4F089550954095309521953F4F4F4F6B
:104960005F4F0895689401C0E8948F929F92CF930F
:10497000DF930E94C024DF91CF919F908F90089584
:1049800088249924F401E401B0E49F93AA279A159E
:104990008B049C04ED05FE05CF05D007A10798F414
:1049A000AD2FDC2FCF2FFE2FE92D982C892E982F9D
:1049B000872F762F652F542F432F322F2227B85061
:1049C00031F7BF9127C01B2EBF91BB27220F331F8A
:1049D000441F551F661F771F881F991F881C991C2D
:1049E000EE1FFF1FCC1FDD1FAA1FBB1F8A149B04D5
:1049F000EC05FD05CE05DF05A007B10748F08A18D4
:104A00009B08EC09FD09CE09DF09A00BB10B216061
:104A10001A94E1F62EF49401AF01BE01CD01000C11
:104A200008950F930F7351F0220F331F441F551F2A
:104A3000661F771F881F991F0A95B1F70F91089578
:104A40002A0D3B1D4C1D5D1D6E1D7F1D801F911F7E
:104A500008950790F691E02D09948F929F92AF925E
:104A6000BF92CF92DF92EF92FF92CF93DF93EC0150
:104A7000688179818A819B81611571058105910524
:104A800021F464E279ED8BE597E02DE133EF41E02D
:104A900050E00E94962449015A019B01AC01A7EA0B
:104AA000B1E40E942D246B017C01ACEEB4EFA501B2
:104AB00094010E943B24C60ED71EE81EF91EF7FE85
:104AC00006C081E0C81AD108E10880E8F80AC88267
:104AD000D982EA82FB82E894D7F8EE24FF24C6014B
:104AE000DF91CF91FF90EF90DF90CF90BF90AF908C
:104AF0009F908F9008950C942D2586E092E00C9461
:104B00002D25A0E0B0E08093060290930702A093C9
:104B10000802B09309020895FC0188279927E894B8
:104B200021912032E9F3293010F02E30C8F32B32D6
:104B300041F02D3239F4689404C00E94D625820FCA
:104B4000911D219120532A30C0F31EF49095819538
:104B50009F4F0895FB01DC0105900D920020E1F7C5
:104B60000895FB01DC010D900020E9F711970190F9
:104B70000D920020E1F70895FB0151915523A9F012
:104B8000BF01DC014D9145174111E1F759F4CD0109
:104B90000190002049F04D9140154111C9F3FB01EE
:104BA0004111EFCF81E090E0019708957AE0979F5F
:104BB000902D879F802D910D112408950F931F93A1
:104BC000CF93DF93CDB7DEB72E970FB6F894DEBF45
:104BD0000FBECDBF0D891E898F89988D26E02C834D
:104BE0001A83098397FF02C080E090E801979E83B3
:104BF0008D83CE014B96AC01698D7A8DCE010196E5
:104C00000E943D264D815E8157FD0AC02F81388567
:104C1000421753070CF49A01F801E20FF31F1082B8
:104C20002E960FB6F894DEBF0FBECDBFDF91CF91A9
:104C30001F910F910895CF93DF93CDB7DEB72E97D5
:104C40000FB6F894DEBF0FBECDBF85E08C838B8995
:104C50009C899A838983CE014796AC016D897E89B0
:104C6000CE0101960E94F0292E960FB6F894DEBF71
:104C70000FBECDBFDF91CF9108952F923F924F92FB
:104C80005F926F927F928F929F92AF92BF92CF92DC
:104C9000DF92EF92FF920F931F93CF93DF93CDB7E5
:104CA000DEB72C970FB6F894DEBF0FBECDBF7C01E8
:104CB0006B018A01FC0117821682838181FFC6C1C4
:104CC00088248394912C8C0E9D1EF7019381F6010C
:104CD00093FD859193FF81916F01882309F4B2C1FF
:104CE000853239F493FD859193FF81916F0185326F
:104CF00029F4B70190E00E94A32BE7CF512C312C6F
:104D000020E02032A8F48B3261F028F4803251F098
:104D1000833271F40BC08D3239F0803349F4216055
:104D200028C02260246025C0286023C0206121C0E3
:104D300027FD27C0382F30533A3078F426FF06C0BD
:104D4000FAE05F9E300D1124532E13C08AE0389E86
:104D5000300D1124332E20620CC08E3221F426FD3A
:104D600071C1206406C08C3611F4206802C08836F8
:104D700041F4F60193FD859193FF81916F018111BB
:104D8000C0CF982F9554933018F09052933028F458
:104D90000C5F1F4FFFE3F9830DC0833631F083377B
:104DA00071F0833509F05EC023C0F80180818983EA
:104DB0000E5F1F4F44244394512C540115C03801F9
:104DC000F2E06F0E711CF801A080B18026FF03C0D5
:104DD000652D70E002C06FEF7FEFC5012C870E9448
:104DE000582B2C0183012C856FE7262E222218C018
:104DF0003801F2E06F0E711CF801A080B18026FF2F
:104E000003C0652D70E002C06FEF7FEFC5012C87F6
:104E10000E944D2B2C012C8550E8252E222A83013F
:104E200023FC1CC006C0B70180E290E00E94A32BC7
:104E30003A94832D90E048165906A8F30FC0F50167
:104E400027FC859127FE81915F01B70190E00E94C8
:104E5000A32B31103A94F1E04F1A51084114510438
:104E600071F7EDC0843611F0893641F5F80127FF5E
:104E700007C060817181828193810C5F1F4F08C0E0
:104E800060817181882777FD8095982F0E5F1F4F75
:104E90004FE6B42EB22297FF09C090958095709589
:104EA00061957F4F8F4F9F4FF0E8BF2A2AE030E097
:104EB000A4010E94EA2BA82EA81843C0853731F41C
:104EC0003FEEB32EB2222AE030E024C099EFB92E93
:104ED000B2228F36B9F020F4883509F0B3C00DC086
:104EE000803721F0883709F0ADC002C020E1B22A36
:104EF000B4FE0BC084E0B82A08C024FF09C0E6E075
:104F0000BE2A06C028E030E005C020E130E002C043
:104F100020E132E0F801B7FE07C060817181828133
:104F200093810C5F1F4F06C06081718180E090E02B
:104F30000E5F1F4FA4010E94EA2BA82EA818FFE7BE
:104F4000BF22B6FE0BC02B2D2E7FA51450F4B4FE4D
:104F50000AC0B2FC08C02B2D2E7E05C07A2C2B2D4A
:104F600003C07A2C01C0752C24FF0DC0FE01EA0D90
:104F7000F11D8081803311F4297E09C022FF06C013
:104F80007394739404C0822F867809F0739423FD80
:104F900014C020FF0FC05A2C731460F4530C571820
:104FA000732C08C0B70180E290E02C870E94A32BED
:104FB00073942C857314B0F304C0731410F4371871
:104FC00001C0312C24FF12C0B70180E390E02C8790
:104FD0000E94A32B2C8522FF1EC021FF03C088E561
:104FE00090E002C088E790E0B7010CC0822F86787D
:104FF00091F021FD02C080E201C08BE227FD8DE22D
:10500000B70190E00E94A32B06C0B70180E390E0B7
:105010000E94A32B5A94A514C0F3AA94F401EA0D9C
:10502000F11DB701808190E00E94A32BA110F5CF64
:1050300006C0B70180E290E00E94A32B3A943110A1
:10504000F8CF43CEF7012681378102C02FEF3FEF23
:10505000C9012C960FB6F894DEBF0FBECDBFDF910D
:10506000CF911F910F91FF90EF90DF90CF90BF9065
:10507000AF909F908F907F906F905F904F903F90F8
:105080002F90089520FD09C0FC0123FD05C022FFDB
:1050900002C073836283518340830895CF92DF926D
:1050A000EF92FF920F931F9344FD10C046FD10C076
:1050B000DB01FC01AA0FBB1FEE1FFF1F1094D1F7ED
:1050C0006A0F7B1F8E1F9F1F31E003C033E001C0BA
:1050D00034E0660F771F881F991F3150D1F76B019D
:1050E0007C01C20ED11CE11CF11C97018601B601A6
:1050F000C9011F910F91FF90EF90DF90CF9008951D
:105100000F931F93CF93DF938C01C8010E94632BF1
:10511000EC0197FD08C00E943A2B892BB1F7B8012A
:10512000CE010E94CF2BCE01DF91CF911F910F9125
:1051300008958F929F92AF92CF92DF92EF92FF925B
:105140000F931F93CF93DF93EC01A62E4A01022FFA
:105150000E94632BAC0155274B32510521F04D3293
:10516000510551F40068AA9411F480E063C0CE01A7
:105170000E94632B97FDF9CF102F1D7F302F3073C6
:10518000E1F48033D1F4AA9409F440C0CE010E9426
:10519000632B97FD3BC0883711F0883549F41264C2
:1051A000AA94A1F1CE010E94632B97FF06C02EC0E6
:1051B00006FF02C0126001C01261C12CD12C760121
:1051C000282F2053283080F014FF04C0BE010E9415
:1051D000CF2B19C02A3040F016FFF8CF2F7D322F89
:1051E0003151363098F72750412FC701B6010E9440
:1051F0004E286B017C011260AA9459F0CE010E94E6
:10520000632B97FFDDCF11FD04C0AFCFC12CD12C94
:10521000760117FF08C0F094E094D094C094C11CAC
:10522000D11CE11CF11C212FB701A601C4010E9471
:10523000422881E0DF91CF911F910F91FF90EF9075
:10524000DF90CF90AF909F908F9008956F927F9254
:105250009F92AF92BF92CF92DF92EF92FF920F9305
:105260001F93CF93DF93CDB7DEB7A1970FB6F89416
:10527000DEBF0FBECDBF6C017A018901FE01319600
:1052800080E2DF011D928A95E9F7D60113969C9082
:1052900020E030E0A12CA0E0B12CCF0141E050E0B3
:1052A000F80193FC759193FE71918F01711103C008
:1052B00000E010E080C07E3519F42115310559F168
:1052C000EB2DF0E0E217F3073CF47D3569F17D3218
:1052D00019F4AA2319F103C0A11101C0A72EE72FC9
:1052E000E695E695E6953C016E0E711CF301A72F3D
:1052F000A7703A0102C0660C771CAA95E2F7D301A9
:10530000B081BA2BB0837A1559F07A1510F47F5F0B
:10531000E6CF7150E4CFBB24B39403C0A1E001C039
:10532000A0E02F5F3F4FBCCFAA2319F08E8180628F
:105330008E83B11003C0BB24B3940BC0FE01319621
:10534000CE018196208120952193E817F907D1F7A6
:10535000F2CFC60169A30E94632B69A197FD24C007
:10536000282F269526952695E1E0F0E0EC0FFD1F0D
:10537000E20FF11D208130E0AC014770552702C0DB
:10538000359527954A95E2F720FD04C0B6010E94A5
:10539000CF2B0AC0E114F10419F0D7018D937D01E0
:1053A0006150B12CB1F602C0B11082CFE114F1040A
:1053B00011F0F7011082C801A1960FB6F894DEBF74
:1053C0000FBECDBFDF91CF911F910F91FF90EF9056
:1053D000DF90CF90BF90AF909F907F906F90089597
:1053E0004F925F927F928F929F92AF92BF92CF9295
:1053F000DF92EF92FF920F931F93CF93DF931F9251
:10540000CDB7DEB78C012B017A01FC011782168221
:10541000A12CF0C08C2D90E00E943A2B892B21F01A
:10542000C8010E948028E6C0F5E2CF120AC0F2014E
:10543000D3FC3591D3FE31912F01353271F455E211
:10544000C52EC8010E94632B97FDDFC0C81609F462
:10545000D1C0B8010E94CF2BDAC03A3241F4D3FC5C
:105460003591D3FE31912F01BB24B39401C0B12CEF
:10547000712C10C0F2E0BF2A672D70E080E090E050
:1054800040E20E944E28762EF201D3FC3591D3FEE5
:1054900031912F01232F20532A3060F3B1FE03C036
:1054A000711003C0B4C077247A94383619F03C36B2
:1054B00099F40AC0F201D3FC3591D3FE31912F014A
:1054C000383651F4F8E0BF2A84E0B82AF201D3FC60
:1054D0003591D3FE31912F01332309F498C0632F06
:1054E00070E08EE194E039830E94422B3981892B50
:1054F00009F48DC0B0FC07C0F701C080D18082E004
:10550000E80EF11C02C0C12CD12C3E3651F4F8013A
:105510004681578160E070E02B2DC6010E94422831
:1055200069C0333691F4B1FC02C077247394C8018A
:105530000E94632B97FD69C0C114D10419F0F601D4
:1055400081936F017A9499F753C03B3559F49201D6
:10555000A601672DC8010E9426292C01009709F099
:1055600047C041C0C80139830E948028398197FD16
:105570004CC03F3659F128F4343629F1393649F513
:105580002AC0333719F0353721F51DC0C8010E94F4
:10559000632B4C0197FD11C00E943A2B892B29F0F7
:1055A000B801C4010E94CF2B08C0C114D10419F066
:1055B000F60181926F017A9449F7C114D104C1F0C8
:1055C000F601108215C0F0E2BF2A05C080E1B82ABA
:1055D00002C090E4B92A2B2DA601672DC8010E94B4
:1055E0009928811105C0F8018381807371F40FC07F
:1055F000B0FEA394F801D380F201D3FCC590D3FE92
:10560000C1902F01C11006CF02C0AA2019F02A2D87
:1056100030E002C02FEF3FEFC9010F90DF91CF9133
:105620001F910F91FF90EF90DF90CF90BF90AF90C0
:105630009F908F907F905F904F900895F999FECF43
:1056400092BD81BDF89A992780B50895A6E1B0E092
:1056500044E050E00C944A2C262FF999FECF1FBA53
:1056600092BD81BD20BD0FB6F894FA9AF99A0FBE8B
:105670000196089591111CC1803219F0895085500E
:10568000D0F70895FC010590061621F00020D9F707
:10569000C00108953197CF010895FC010590615034
:1056A00070400110D8F7809590958E0F9F1F089538
:1056B000FC016150704001900110D8F780959095E1
:1056C0008E0F9F1F0895CF93DF93EC013B8130FF36
:1056D00034C036FF0AC03F7B3B838E819F81019699
:1056E0009F838E832A8130E02AC032FF0FC0E88179
:1056F000F9818081992787FD9095009719F4306290
:105700003B831BC03196F983E8830EC0EA85FB8595
:10571000099597FF09C02B81019611F480E101C022
:1057200080E2822B8B8309C02E813F812F5F3F4F08
:105730003F832E839C01332702C02FEF3FEFC90127
:10574000DF91CF9108950F931F93CF93DF938C0137
:10575000EB018B8181FD03C00FEF1FEF1AC082FFA9
:105760000DC02E813F818C819D812817390764F4FB
:10577000E881F9810193F983E88306C0E885F9851A
:10578000802F0995892B41F78E819F8101969F83F8
:105790008E83C801DF91CF911F910F910895FB0176
:1057A000238120FF13C026FD11C08F3F3FEF9307D9
:1057B00069F082832F7D20642383268137812150E5
:1057C0003109378326839C01332702C02FEF3FEF37
:1057D000C9010895FA01AA27283051F1203181F139
:1057E000E8946F936E7F6E5F7F4F8F4F9F4FAF4FE9
:1057F000B1E03ED0B4E03CD0670F781F891F9A1FFC
:10580000A11D680F791F8A1F911DA11D6A0F711DAF
:10581000811D911DA11D20D009F468943F912AE0BB
:10582000269F11243019305D3193DEF6CF010895A3
:10583000462F4770405D4193B3E00FD0C9F7F6CFD4
:10584000462F4F70405D4A3318F0495D31FD40529C
:10585000419302D0A9F7EACFB4E0A6959795879532
:1058600077956795BA95C9F7009761057105089511
:105870009B01AC010A2E06945795479537952795BD
:10588000BA95C9F7620F731F841F951FA01D089555
:10589000DC01CB01FC01F999FECF06C0F2BDE1BDF0
:1058A000F89A319600B40D9241505040B8F70895DF
:0A58B000992788270895F894FFCF88
:1058BA000000160D20000100000001456E7465729B
:1058CA002049443A200030303A30303A30303A30C9
:1058DA00303A30303A30303A3000496E69742069D3
:1058EA007320646F6E6521200A00676F20746F2031
:1058FA00736C6565700030303A30303A30303A3186
:10590A00300077616B652075700053756E004D6FBE
:10591A006E005475650057656400546875004672D8
:10592A00690053617400496E76616C696420474D61
:10593A00542076616C7565003A3A3A3A3A3A000070
:00000001FF
