:100000000C9454020C94C9240C94FA240C942B25BF
:100010000C945C250C948D250C94BE250C94EF2536
:100020000C9420260C9483020C9483020C9483027B
:100030000C94200D0C9483020C9483020C947C0D80
:100040000C9483020C9483020C9483020C9483021C
:100050000C9483020C9483020C9483020C94570D2D
:100060000C9483020C9443100C9483020C9483022E
:100070000C9483020C9483020C9483020C948302EC
:100080000C9483020C9483020C9483020C948302DC
:100090000C947E100C9483020C9483020C94F00B4D
:1000A0000C9483020C9483020C9483020C948302BC
:1000B0000C9483020C9483020C9483020C948302AC
:1000C0000C9483020C9483020C9483025057525F69
:1000D00032206578616D706C650053657474696E6B
:1000E00067204368616E6E656C2043485F31375FFF
:1000F0003836382E09207374617465200053657496
:1001000074696E6720486561646572204F4E2E09E0
:1001100009207374617465200053657474696E6797
:10012000204D6F6465202731272E090920737461E3
:100130007465200053657474696E672043524320D0
:100140004F4E2E09090920737461746520005365B0
:100150007474696E6720506F77657220746F202702
:100160004C272E09092073746174652000656E7434
:100170006572206465657020736C656570000A7730
:10018000616B65207570002D2D2D2D2D2D2D2D2DA4
:100190002D2D2D2D2D2D2D2D2D2D2D2D005254435A
:1001A00020494E54206361707475726564002D2D72
:1001B0002D2D2D2D2D2D2D2D2D2D2D2D2D2D2D2D6F
:1001C0002D2D2D00150229024F0276029602AE0255
:1001D000BC02CC02E102F702080314031B0338033C
:1001E00056036C037A038A03AD03B30357726F6E31
:1001F000672074696D6520666F726D61742E204D85
:10020000757374206265202264643A68683A6D6D83
:100210003A73732200416C61726D204D6F646520EA
:100220006D61746368657320005B446179203A20D6
:10023000686F757273203A206D696E7574657320EE
:100240003A207365636F6E64735D202D3E20005B02
:1002500044617465203A20686F757273203A206D8E
:10026000696E75746573203A207365636F6E64738D
:100270005D202D3E20005B486F757273203A206D23
:10028000696E75746573203A207365636F6E64736D
:100290005D202D3E20005B4D696E75746573203ABC
:1002A000207365636F6E64735D202D3E20005B5389
:1002B00065636F6E64735D202D3E20004F6E636535
:1002C00020706572207365636F6E6400496E636FA2
:1002D000727265637420616C61726D206D6F64650C
:1002E000005B253032753A253032753A253032754B
:1002F0003A253032755D005B253032753A25303253
:10030000753A253032755D005B253032753A2530FF
:1003100032755D005B253032755D005B446179208C
:100320003A20686F757273203A206D696E75746536
:1003300073205D202D3E20005B44617465203A20CF
:10034000686F757273203A206D696E7574657320DD
:100350005D202D3E20005B486F757273203A206D42
:10036000696E757465735D202D3E20005B4D696E6E
:10037000757465735D202D3E20004F6E636520709F
:100380006572206D696E7574650025732C202530AB
:1003900032752F253032752F253032752C202530BF
:1003A00032753A253032753A2530327500657272F1
:1003B0006F7200253032752563253032752563252F
:1003C0003032752563253032752563253032752529
:1003D0006325303275256325303275000000080929
:1003E000000000000000000000000000000000000D
:1003F00000000000000000000000000000000000FD
:1004000000000000000000000000000000000001EB
:100410000208101020408004081020400202040846
:1004200010204080010280204004200101020408C5
:10043000102001408040800102080408800410045C
:10044000020105050505030303030101010404037B
:100450000606060606060606010405010501030256
:10046000020202020201020205050404030404015F
:10047000030407070700202326292C2F32002225FA
:10048000282B2E3134002124272A2D303363646930
:100490006E6F70737578585B00004B0A6F1D3D1FBF
:1004A0003B207C239829FD2A11241FBECFEFD1E2E7
:1004B000DEBFCDBF12E0A0E0B2E0E8E6F8E600E083
:1004C0000BBF02C007900D92A236B107D9F71CE00E
:1004D000A2E6B2E001C01D92AE3DB107E1F714E023
:1004E000C8EAD4E000E006C022970109FE010BBF74
:1004F0000E94262DCA39D10780E00807A9F70E947B
:1005000051110C9432340C9400008BE996E00E9457
:100510004A1F6CEC70E08BE996E00E941D2082E09F
:1005200096E00E94A31983E692E00E94230A40E02D
:1005300050E069ED70E083E692E00E941409809338
:1005400062026AED70E08BE996E00E94C11F609143
:100550006202772767FD70958BE996E00E94E91F9C
:1005600083E692E00E940504809362026DEF70E0E2
:100570008BE996E00E94C11F60916202772767FDB8
:1005800070958BE996E00E94E91F6AE083E692E0AD
:100590000E94D9068093620269E171E08BE996E0DE
:1005A0000E94C11F60916202772767FD70958BE9F9
:1005B00096E00E94E91F83E692E00E944D0480933A
:1005C000620264E371E08BE996E00E94C11F6091D2
:1005D0006202772767FD70958BE996E00E94E91F1C
:1005E0006CE483E692E00E948D09809362026EE4DF
:1005F00071E08BE996E00E94C11F6091620277274B
:1006000067FD70958BE996E00E94E91F68E083E63C
:1006100092E00E94C709809362026BE072E082E080
:1006200096E00C94691A0F936DE671E08BE996E001
:100630000E941D2003E020E040E060E272E080E0E4
:1006400096E00E9439148BE996E00E944A1F83E6E7
:1006500092E00E94230A6EE771E08BE996E00E9427
:100660001D208091D3089091D40881FF2DC067E8A8
:1006700071E08BE996E00E941D206DE971E08BE945
:1006800096E00E941D206EEA71E08BE996E00E94E0
:100690001D206CE271E080EA96E00E945E206CE230
:1006A00071E080EA96E00E945E206CE271E080EAF0
:1006B00096E00E945E208091D3089091D4088D7FAF
:1006C0009093D4088093D3080F910895FC01118270
:1006D00081E0828387E0838340E050EC64EE70E049
:1006E0004483558366837783128A148A138E8FE03E
:1006F0008087168A178A108E83E0818FE55EFE4F11
:1007000010828091C4089091C508A091C608B0914C
:10071000C708A2608093C4089093C508A093C60838
:10072000B093C7080895CF93C62F66E085E996E099
:100730000E94B01D61E085E996E00E94B01D61E075
:1007400070E080E090E00E94F30D8C2F8F770E9484
:100750002C1F80E0CF910C942C1F1F93CF93DF931D
:100760001F92CDB7DEB7162F66E085E996E0498384
:100770000E94B01D61E085E996E00E94B01D61E035
:1007800070E080E090E00E94F30D812F80680E946D
:100790002C1F4981842F0E942C1F66E085E996E07A
:1007A0000F90DF91CF911F910C94B01DCF93DF93E9
:1007B000EC0140E061E00E94AD0340E861E0CE0161
:1007C0000E94AD0341E861E0CE010E94AD034FEF0E
:1007D00063E2CE010E94AD0348E06DE1CE010E94CC
:1007E000AD0344E76EE1CE010E94AD0361E0CE01AE
:1007F0000E949303813821F481E08B8F80E002C056
:100800001B8E81E0DF91CF910895CF93DF93EC01B0
:100810008B8D8823E1F06DE1CE010E9493039B81D3
:10082000963041F0482F4B7F6DE1CE010E94AD0321
:1008300082E001C08FEF9B81963061F06DE1CE01C7
:100840000E94930382FD05C01A8A80E003C08FEFE7
:1008500001C081E0DF91CF910895CF93DF93EC0148
:100860008B8D8823A1F06DE1CE010E949303482F68
:1008700044606DE1CE010E94AD036DE1CE010E94A6
:10088000930382FF06C081E08A8B80E003C08FEF74
:1008900001C081E0DF91CF9108951F93CF93DF9343
:1008A000EC011B8D113089F46DE10E949303482FF8
:1008B00042606DE1CE010E94AD036DE1CE010E9468
:1008C000930381FF14C01C8B14C060E30E94930348
:1008D000482F406160E3CE010E94AD0360E3CE018A
:1008E0000E94930384FF03C081E08C8B02C081E0EF
:1008F00001C080E0DF91CF911F910895CF93DF93E6
:10090000EC018B8D882391F06EE1CE010E94930360
:10091000282F30E044E0359527954A95E1F72B8361
:10092000265081E0273018F480E001C08FEFDF917E
:10093000CF910895CF93DF93EC018B8D882389F0BD
:100940006DE1CE010E949303282F30E056E03595EB
:1009500027955A95E1F7298381E0233019F080E04B
:1009600001C08FEFDF91CF910895EF92FF920F9327
:100970001F93CF93DF93EC01062F61E00E94930356
:10098000E82E8B8D811105C0CE010E94D603182F51
:10099000D3C041E861E0CE010E94AD036DE1CE011C
:1009A0000E949303F82E6EE1CE010E949303182F4C
:1009B0000930B1F030F4073069F078F4063009F509
:1009C00006C00B3099F078F00C30D9F415C01F76C2
:1009D000106619C01F77106720C01F7810681DC0EF
:1009E0001F7910691AC01F7A106A17C01F7B106B1D
:1009F000CE010E949A0402C01F7C106C81E0F82A8C
:100A00000CC0063051F4CE010E942D0445E061E394
:100A1000CE010E94AD034CE006C043E061E3CE018D
:100A20000E94AD034AE067E3CE010E94AD034F2D63
:100A30006DE1CE010E94AD03412F47606EE1CE0112
:100A40000E94AD036DE1CE010E949303182F6EE169
:100A5000CE010E9493030930C1F138F40730F9F058
:100A600048F5063009F065C008C00B3009F445C0F0
:100A7000B8F10C3009F05DC04CC0282F30E014E014
:100A8000359527951A95E1F72630310511F012E0DA
:100A900053C082FFFCCF8A898130C9F74CC0282F10
:100AA00030E0B4E035952795BA95E1F72730310568
:100AB00071F720C0282F30E0A4E035952795AA953E
:100AC000E1F72830310519F715C0282F30E0F4E0A0
:100AD00035952795FA95E1F729303105C1F60AC019
:100AE000282F30E0E4E035952795EA95E1F72A30A4
:100AF000310569F682FD1FC0CACF282F30E074E0AF
:100B0000359527957A95E1F72B30310509F0BFCF60
:100B10000BC0282F30E064E0359527956A95E1F702
:100B20002C30310509F0B3CF82FFB1CF10FFAFCF2A
:100B300002C011E001C010E04E2D61E0CE010E9424
:100B4000AD03802F8650873010F40B8310E0812F87
:100B5000DF91CF911F910F91FF90EF900895CF9269
:100B6000DF92EF92FF920F931F93CF93DF931F9229
:100B7000CDB7DEB76C018B0161E00E949303E82ED4
:100B8000F601838D811105C0C6010E94D603F82E9F
:100B900002C032E0F32E41E861E0C6010E94AD03DD
:100BA0006DE1C6010E949303482F01301105A1F0A9
:100BB00020F002301105A9F412C04F73C601498319
:100BC0000E947E04F601938149819B3009F402C0A2
:100BD0009C3039F4416005C04F77406402C04F7BC0
:100BE00040686DE1C6010E94AD036DE1C6010E943F
:100BF000930301301105F1F020F00230110581F569
:100C000024C0682F70E026E0759567952A95E1F776
:100C1000672B69F5F60193819B3029F4F82EF09447
:100C2000F1E0FF2224C09C3009F5F82EF09481E019
:100C3000F8221DC0282F30E096E0359527959A952B
:100C4000E1F72130310599F411C0282F30E086E01A
:100C5000359527958A95E1F72230310541F406C094
:100C60000330110520F0FF24F39403C0F12CF601AA
:100C700001834E2D61E0C6010E94AD038F2D0F90C0
:100C8000DF91CF911F910F91FF90EF90DF90CF9068
:100C90000895FF920F931F93CF93DF93EC01162FCC
:100CA00061E00E949303F82E8B8D811105C0CE0167
:100CB0000E94D603082F6AC041E861E0CE010E947D
:100CC000AD036DE1CE010E949303123061F018F480
:100CD000113089F405C0133049F0143061F409C0B3
:100CE0008F7C886008C0877D806105C08F7D8861AA
:100CF00002C0877E8062482F6DE1CE010E94AD0365
:100D00006DE1CE010E9493031230B1F018F411305E
:100D1000D1F505C01330E9F01430A9F527C0282F0C
:100D200030E0E3E035952795EA95E1F72770332722
:100D30002130310551F127C0282F30E073E035957F
:100D400027957A95E1F72770332722303105D9F4BA
:100D50001CC0282F30E063E0359527956A95E1F7B0
:100D6000277033272330310571F40FC0282F30E06E
:100D700053E0359527955A95E1F7277033272430AE
:100D8000310509F402C002E001C000E0812F81506A
:100D9000843010F001E001C01A834F2D61E0CE01D4
:100DA0000E94AD03802FDF91CF911F910F91FF9093
:100DB00008950F931F93CF93DF93EC01062F61E00B
:100DC0000E949303182F8B8D811103C0CE010E94C6
:100DD000D60341E861E0CE010E94AD030530D9F1B0
:100DE00068F4023009F120F4013009F049C116C05D
:100DF000033001F1043009F043C127C0083009F481
:100E000041C030F4063069F1073009F039C12FC014
:100E10000930F1F10A3009F033C140C061E0CE0180
:100E20000E9449066CE00BC061E0CE010E944906B9
:100E30006CE022C061E0CE010E9449066AE0CE016A
:100E40000E94B50460E070E033C061E0CE010E9412
:100E500049066CE028C061E0CE010E9449066AE0C4
:100E60000BC061E0CE010E9449066BE01CC061E04E
:100E7000CE010E94490669E0CE010E94B50461E0FE
:100E800070E016C061E0CE010E94490669E00BC027
:100E900061E0CE010E94490668E005C061E0CE0134
:100EA0000E94490667E0CE010E94B50462E070E04E
:100EB000CE010E94AF05E8C0282F30E043E0359511
:100EC00027954A95E1F72130310509F0DBC06EE145
:100ED000CE010E94930390E024E0959587952A9592
:100EE000E1F701E00C9709F0F4C0C8C0282F30E00A
:100EF00003E0359527950A95E1F72930310509F08A
:100F0000C1C017C0282F30E0B3E035952795BA95BA
:100F1000E1F72130310509F0B5C027C0282F30E0B6
:100F2000A3E035952795AA95E1F72131310509F020
:100F3000A9C06EE1CE010E949303282F30E0F4E0B7
:100F400035952795FA95E1F701E02C30310509F048
:100F5000C0C094C0282F30E0E3E035952795EA958E
:100F6000E1F72930310509F08DC06EE1CE010E9414
:100F70009303282F30E074E0359527957A95E1F7B3
:100F800001E02A30310509F0A4C078C0282F30E0F4
:100F900063E0359527956A95E1F72131310509F030
:100FA00071C06EE1CE010E949303282F30E054E01F
:100FB000359527955A95E1F701E02B30310509F079
:100FC00088C05CC0282F30E043E0359527954A95CE
:100FD000E1F72930310509F055C00BC0282F30E06A
:100FE00093E0359527959A95E1F72131310509F080
:100FF00049C06EE1CE010E949303282F30E084E0C7
:10100000359527958A95E1F701E02930310509F0FA
:1010100060C034C0282F30E003E0359527950A954D
:10102000E1F72131310571F56EE1CE010E949303A4
:10103000282F30E0B4E035952795BA95E1F701E027
:101040002830310509F045C019C0282F30E0A3E051
:1010500035952795AA95E1F72131310599F46EE18F
:10106000CE010E949303282F30E0F4E035952795B8
:10107000FA95E1F701E02730310559F500E029C084
:101080000FEF27C001E025C06DE1CE010E94930360
:10109000053009F45FCF68F4023009F427CF18F463
:1010A000013081F709CF033009F42CCF043051F718
:1010B00035CF083009F492CF30F4063009F466CF0A
:1010C000073001F77FCF093009F4A4CF0A30D1F6F9
:1010D000BCCF412F61E0CE010E94AD03802FDF9194
:1010E000CF911F910F910895493989ED580782EEEC
:1010F0006807710509F494C008F04EC0493989E9C0
:10110000580788ED6807710509F48AC0F8F441159D
:1011100080E6580788ED6807710509F481C038F446
:101120004C3C5C44684D710509F07CC079C0433388
:1011300083E7580788ED6807710509F471C04636E2
:101140005648684D710509F06DC06AC041155105DA
:1011500089ED6807710509F463C078F44C3C8CEAAA
:10116000580788ED6807710509F45AC04115504CBD
:10117000684D710509F056C053C04E3185EC5807D3
:1011800081EE6807710509F44BC04C355F44624E2F
:10119000710509F047C044C04F3882E0580785EE1A
:1011A00068077105E9F1D8F444318EEE580783EEF3
:1011B00068077105A9F130F4473D5346634E710548
:1011C00089F52EC0413588E7580784EE6807710518
:1011D00039F14115504C644E710521F521C0473459
:1011E00081EA580786EE68077105D1F068F44C3C37
:1011F0008CE8580785EE6807710591F04A30574131
:10120000664E710579F40CC045388BE2580787EEBD
:101210006807710529F0423C554B674E710511F482
:1012200081E0089580E008957F928F929F92AF921F
:10123000BF92CF92DF92EF92FF920F931F93CF93C3
:10124000DF93EC016A017B0161E00E949303782E39
:101250008B8D813011F441E801C041E061E0CE01A5
:101260000E94AD034E2D66E0CE010E94AD034D2DD0
:1012700067E0CE010E94AD034C2D68E0CE010E94D4
:10128000AD0366E0CE010E949303082F67E0CE0114
:101290000E949303182F902E812CA12CB12CBA2CD4
:1012A000A92C982C882468E0CE010E949303712F0A
:1012B00060E0082F10E020E030E0060F171F211D2E
:1012C000311D080D191D2A1D3B1D0C151D052E0570
:1012D0003F0531F4CC82DD82EE82FF8210E001C056
:1012E00011E0B701A601CE010E947408811101C06E
:1012F0001FEF472D61E0CE010E94AD03812FDF91EA
:10130000CF911F910F91FF90EF90DF90CF90BF9002
:10131000AF909F908F907F9008950F931F93CF93DE
:10132000DF93EC01162F61E00E949303082F8B8D51
:10133000813011F441E801C041E061E0CE010E943A
:10134000AD031C3439F01D3419F0183439F404C0DD
:101350008FE003C0188602C087E08887488569E06F
:10136000CE010E94AD0369E0CE010E94930311E01B
:101370009885891301C010E0402F61E0CE010E94E2
:10138000AD03812FDF91CF911F910F9108950F939E
:101390001F93CF93DF93EC01162F698B61E00E94BE
:1013A0009303082F9B8D9130F9F091111DC041E0FE
:1013B00061E0CE010E94AD03412F63E3CE010E94A4
:1013C000AD0340E064E3CE010E94AD0363E3CE01D0
:1013D0000E949303182F402F61E0CE010E94AD03BD
:1013E00081E09989191301C080E0DF91CF911F91AD
:1013F0000F9108950F931F93CF93DF93EC016C31FE
:10140000E0F4062F006261E00E949303182F8B8D99
:10141000813011F441E801C041E061E0CE010E9459
:10142000AD03402F6BE0CE010E94AD03412F61E080
:10143000CE010E94AD0380E001C08FEFDF91CF911C
:101440001F910F910895CF93DF93EC0161E086E146
:101450000E94FC0E61E086E10E94150F81E08093FE
:1014600095060E94741D81E00E94971D84E00E94F1
:10147000A51D80E00E94A01D6BE1CE010E94FA092B
:10148000811105C0CE01DF91CF910C94D60381E08C
:10149000DF91CF91089583E692E00C946603109259
:1014A0008C05E4E6F0E080818F778083589A599A22
:1014B000E9EBF0E080818E7F808380818D7F808367
:1014C00081E48093B80085E48093BC0080E2EDE87D
:1014D000F5E0DF01982F1D929A95E9F7EDEAF5E026
:1014E000DF01982F1D929A95E9F7EDECF5E0DF0109
:1014F0001D928A95E9F70895613298F420918C0540
:10150000243089F460938905FC018DEA95E0DC01C3
:1015100002C021912D932A2F281B2617D0F380E09B
:10152000089581E0089582E0089585EC8093BC00E1
:1015300010928C050895589859988091B90081604F
:101540008093B9008091B90082608093B900809146
:10155000BC0080688093BC008091BC008061809357
:10156000BC008091BC008F7B8093BC008091BC004C
:101570008F7D8093BC008091BC00877F8093BC00EE
:101580008091C4089091C508A091C608B091C70881
:1015900086FD14C08091C4089091C508A091C6082A
:1015A000B091C70890FD0AC08091C4089091C50809
:1015B000A091C608B091C70893FF04C08091BC00F9
:1015C0008B7F03C08091BC0084608093BC008091BD
:1015D000BC008E7F8093BC00809164008068809303
:1015E00064000895882349F01092830510928405C1
:1015F000109285051092860513C080918305909105
:101600008405A0918505B09186050196A11DB11DA7
:101610008093830590938405A0938505B0938605F8
:101620008091830590918405A0918505B0918605F0
:10163000803A9648A140B10560F01092830510925F
:10164000840510928505109286050E944F0A81E05C
:10165000089580E0089585ED8093BC0081E00E94AC
:10166000F20A08C080E00E94F20A882319F0109262
:101670008C0508958091BC0084FDF4CFF8CFFF92D3
:101680000F931F93CF93DF93182F062FF72EC42F9E
:10169000D22F81E0413208F051C00E94F20A15C0F9
:1016A00080E00E94F20A882381F082E080938C051A
:1016B0008FEF8093870510928B05C093ED05E02F87
:1016C000FF2D6DE875E0DB0107C080918C0581116D
:1016D000E7CFEBCF81918D938A2F861B8C17D0F3A8
:1016E000812F90E0880F991F8093EE0585EE8093FF
:1016F000BC0081E00E94F20AD11105C080918705EB
:101700008F3F59F414C080918C058230B9F780E086
:101710000E94F20A81110DC0F6CF809187058032B8
:1017200051F080918705803341F483E007C080E069
:1017300005C085E003C082E001C084E0DF91CF9165
:101740001F910F91FF9008950F931F93CF93DF93F5
:10175000082FD62F172FC42F81E04132E0F50E94C9
:10176000F20A1DC080E00E94F20A8823C1F081E0E5
:1017700080938C058FEF8093870510928B05C09323
:10178000ED05802F90E0880F991F81608093EE0512
:1017900085EE8093BC0081E00E94F20A10C0809127
:1017A0008C058111DFCFE3CF80E00E94F20A88230D
:1017B00031F08DE895E0ED2FF12FDC0107C080912D
:1017C0008C05813089F3F5CF2D9121932A2F281B89
:1017D0002C17D0F380E0DF91CF911F910F910895E6
:1017E0001F920F920FB60F9211240BB60F922F93E8
:1017F0003F934F935F936F937F938F939F93AF9399
:10180000BF93CF93EF93FF93C091B900C87FC036C9
:1018100009F49FC058F5C83209F45BC090F4C03198
:1018200009F452C038F4CC2309F4F2C0C83009F0EE
:10183000F3C04AC0C83109F44CC0C03209F0ECC052
:101840005DC0C03409F473C038F4C03309F45BC020
:10185000C83309F0E1C05AC0C03509F45CC0C835CE
:1018600009F46AC0C83409F0D7C0D4C0C83909F433
:10187000C5C0A8F4C83709F46CC038F4C83609F4F8
:1018800068C0C03709F0C8C064C0C83809F4B6C021
:10189000C03909F464C0C03809F0BEC060C0C03BA4
:1018A00009F484C038F4C03A09F46BC0C83A09F0AE
:1018B000B3C07CC0C03C09F4A5C0C83C09F4A2C0B8
:1018C000C83B09F0A9C087C08091EE058093BB009A
:1018D00013C090918B058091ED05981708F09AC080
:1018E00080918B05E82FF0E0E357FA4F90819093B9
:1018F000BB008F5F80938B0585EC81C00E942B0B12
:10190000C093870589C0C093870584C0C0938705AD
:101910000E94950A81C080918B059091BB00E82FB1
:10192000F0E0E357FA4F90838F5F80938B0590919F
:101930008B058091ED055FC080918B059091BB0078
:10194000E82FF0E0E357FA4F90838F5F80938B0589
:1019500061C083E080938C0510928805CDCF809183
:101960008805803208F04AC0809188059091BB00BC
:10197000E82FF0E0E353FA4F90838F5F8093880560
:10198000BBCF80918805803230F4E0918805F0E08B
:10199000E353FA4F108260918805E091EF05F091D2
:1019A000F00570E08DEC95E009952CC084E0809303
:1019B0008C0510928A0510928905E091F105F0914D
:1019C000F205099580918905811105C081E0809318
:1019D00089051092AD0580918A05E82FF0E0E35566
:1019E000FA4F90819093BB008F5F80938A0590910E
:1019F0008A0580918905981708F47ECF85E8809341
:101A0000BC000AC085EC8093BC0010928C0504C019
:101A1000109287050E942B0BFF91EF91CF91BF9100
:101A2000AF919F918F917F916F915F914F913F9176
:101A30002F910F900BBE0F900FBE0F901F90189517
:101A40001F920F920FB60F9211240BB60F922F9385
:101A50003F934F935F936F937F938F939F93AF9336
:101A6000BF93EF93FF93F89481E080930A02E0E63E
:101A7000F0E080818068808380818F7B808360E05C
:101A800083E00E94150F7894FF91EF91BF91AF9181
:101A90009F918F917F916F915F914F913F912F9186
:101AA0000F900BBE0F900FBE0F901F9018951F92B6
:101AB0000F920FB60F9211248F939F93AF93BF9302
:101AC0008091D6089091D708A091D808B091D908F4
:101AD0000196A11DB11D8093D6089093D708A093BD
:101AE000D808B093D908BF91AF919F918F910F9073
:101AF0000FBE0F901F9018951F920F920FB60F9266
:101B000011248F939F93AF93BF938091DA089091A4
:101B1000DB08A091DC08B091DD080196A11DB11D84
:101B20008093DA089093DB08A093DC08B093DD087B
:101B3000BF91AF919F918F910F900FBE0F901F900B
:101B400018958F929F92AF92BF92CF92DF92EF92B1
:101B5000FF920F931F93CF93DF932FB7F894809149
:101B6000D6089091D708A091D808B091D9082FBF76
:101B70009C01AD0160E070E080E090E001E00E9437
:101B80000E2D4901D42FC52FB62FA72FF82FE92FDF
:101B900002E00E940E2D59016A017B018C01940123
:101BA0004D2F5C2F6B2F7A2F8F2F9E2F0E941D2D74
:101BB000E9E0AE2EB12CC12CD12CE12CF12C00E0AF
:101BC00010E00E94B12C952FB901842FDF91CF91A5
:101BD0001F910F91FF90EF90DF90CF90BF90AF904B
:101BE0009F908F9008958F929F92AF92BF92CF92C5
:101BF000DF92EF92FF924B015C0107C00E94A10DA2
:101C00006C157D058E059F0520F40E94A10D6B01CA
:101C10007C010E94A10D6C197D098E099F09681530
:101C200079058A059B0550F3FF90EF90DF90CF90E8
:101C3000BF90AF909F908F900895BC01049768F07B
:101C400080E090E00E942D2B26E636E646EE5FE32C
:101C50000E94BB2B0E94012B02C0660F771F6150B0
:101C6000710961F06150710949F0FB01EE0FFF1F2E
:101C700031978FB7F8943197F1F78FBF0895789423
:101C800084B7877F84BF1092D6081092D70810922D
:101C9000D8081092D90884B5826084BD84B581606B
:101CA00084BD85B5826085BD85B5816085BDEEE664
:101CB000F0E0808181608083E1E8F0E080818260F3
:101CC0008083808181608083E0E8F0E080818160B2
:101CD0008083E1EBF0E0808184608083E1E9F0E0E3
:101CE000808184608083E0EBF0E08081816080838C
:101CF000E0E9F0E0808181608083E4E6F0E08081CB
:101D00008E7F8083ECE7F0E080818F778083808115
:101D100080648083EAE7F0E0808184608083808152
:101D2000826080838081806880831092C1001092DD
:101D3000C90008959091F305982B9093F30580FFC7
:101D400032C0809164008E7F8093640080917C001B
:101D50008F7780937C0080917C00806480937C00EE
:101D600080917A00846080937A0080917A0082600A
:101D700080937A0080917A00806880937A008091C5
:101D800064008F7780936400809164008B7F8093E0
:101D90006400809164008D7F809364008091650071
:101DA0008E7F809365000895282F20959091F305EC
:101DB00092239093F30580FF1EC080917A008F7765
:101DC00080937A00809164008160809364008091A8
:101DD00064008068809364008091640084608093D4
:101DE000640080916400826080936400809165004B
:101DF000816080936500089590E0FC01E15FFB4FF6
:101E00002491FC01EE5BFB4FE491EE2369F0F0E0DE
:101E1000EB57FB4FA491B0E08C91611103C020956A
:101E2000822301C0822B8C93089590E0FC01E45240
:101E3000FC4F2491FC01E15FFB4F3491FC01EE5B10
:101E4000FB4F84918823B1F1222331F1233021F417
:101E5000909180009F7705C0243031F490918000EC
:101E60009F7D9093800018C0213019F494B59F771E
:101E700004C0223021F494B59F7D94BD0DC026305E
:101E800021F49091B0009F7705C0273029F49091FC
:101E9000B0009F7D9093B000E82FF0E0E358FB4F37
:101EA000A491B0E08C91611103C03095832301C0EF
:101EB000832B8C93089590E0FC01E452FC4F249115
:101EC000FC01E15FFB4F3491FC01EE5BFB4F849121
:101ED000882399F1222331F1233021F4909180005D
:101EE0009F7705C0243031F4909180009F7D9093BE
:101EF000800018C0213019F494B59F7704C02230B7
:101F000021F494B59F7D94BD0DC0263021F49091AD
:101F1000B0009F7705C0273029F49091B0009F7DD5
:101F20009093B000E82FF0E0EB58FB4FE491F0E025
:101F30008081832321E030E011F420E030E0C9010A
:101F40000895CF92DF92EF92FF926B017C014111D5
:101F500034C088E00E949A0EC701B60122E030E04A
:101F600040E050E00E94932C305F414F5F4FCA0128
:101F7000B901A70196010E94932CDA01C9010197CA
:101F8000A109B109892F9A2FAB2FBB27A7FDBA95BD
:101F90008093C50021502093C4008091C1008061CE
:101FA0008093C1008091C10088608093C1008091BE
:101FB000C10080688093C10033C080E10E949A0E06
:101FC000C701B60122E030E040E050E00E94932CCF
:101FD000305F414F5F4FCA01B901A70196010E94CE
:101FE000932CDA01C9010197A109B109892F9A2F10
:101FF000AB2FBB27A7FDBA958093CD00215020932E
:10200000CC008091C90080618093C9008091C90093
:1020100088608093C9008091C90080688093C9005E
:10202000FF90EF90DF90CF90089581110EC088E06F
:102030000E94D40E8091C1008F7E8093C100809158
:10204000C100877F8093C100089580E10E94D40E73
:102050008091C9008F7E8093C9008091C900877FDD
:102060008093C9000895611107C09091C00095FF49
:10207000FCCF8093C60008959091C80095FFFCCFD7
:102080008093CE0008951F920F920FB60F921124E5
:102090002F933F934F935F936F937F938F939F9370
:1020A000AF93BF93EF93E091C6002091FA05309172
:1020B000FB05C901019660E072E00E945D2C409131
:1020C000F8055091F9058417950741F0D901A252FE
:1020D000B54FEC939093FB058093FA05EF91BF9178
:1020E000AF919F918F917F916F915F914F913F91B0
:1020F0002F910F900FBE0F901F9018951F920F9267
:102100000FB60F9211242F933F934F935F936F93CA
:102110007F938F939F93AF93BF93EF93E091CE0004
:102120002091F6053091F705C901019660E072E053
:102130000E945D2C4091F4055091F5058417950798
:1021400041F0D901A252B74FEC939093F7058093D9
:10215000F605EF91BF91AF919F918F917F916F9114
:102160005F914F913F912F910F900FBE0F901F9055
:1021700018950C943310CF93C82F682F8DE00E94D0
:1021800033106C2F8AE0CF910C9433104F925F92F2
:102190006F927F928F929F92AF92BF92CF92DF9277
:1021A000EF92FF920F93CF93DF93CDB7DEB7A09757
:1021B0000FB6F894DEBF0FBECDBF29013A016115FD
:1021C000710581059105C9F4602F80E3A0960FB6D3
:1021D000F894DEBF0FBECDBFDF91CF910F91FF907E
:1021E000EF90DF90CF90BF90AF909F908F907F90B7
:1021F0006F905F904F900C943310EE24E394F12C89
:10220000EC0EFD1E812C912C5401A30192010E9421
:10221000712CF70161937F01FFEF8F1A9F0AAF0ABC
:10222000BF0AB901CA01611571058105910569F7F8
:10223000CC24CA94DC2C7601C80CD91CEA1CFB1CEB
:1022400014C0E1E0F0E0EC0FFD1FEC0DFD1D8081FE
:102250008A3010F4805D01C0895C602F0E943310C9
:1022600081E0C81AD108E108F108EFEFCE16DE06CA
:10227000EE06FE0631F7A0960FB6F894DEBF0FBE4D
:10228000CDBFDF91CF910F91FF90EF90DF90CF9076
:10229000BF90AF909F908F907F906F905F904F9086
:1022A00008950E943F0E80EA96E00E94DD21853469
:1022B00040F061E081E30E94FC0E61E081E30E9456
:1022C000150F61E070E080EA96E00E94B92081304D
:1022D000B1F48091C4089091C508A091C608B0914E
:1022E000C70890688093C4089093C508A093C60857
:1022F000B093C70860E081E090E00E94033387E27A
:102300000E945B0F892B59F160E070E080EA96E053
:102310000E94B9208A3019F5C1C06CE3629FA00108
:10232000639F500D1124840F951F0EC02115310598
:1023300059F06CE3629FA001639F500D11249A0134
:10234000205F314F820F931F039748F48091D30889
:102350009091D40880629093D4088093D30882E04F
:1023600096E00E94A31982E096E00E94641982E040
:1023700096E00E94731982E096E00E942B1563E0BC
:1023800070E080E090E00E94F30D8091C40890918D
:10239000C508A091C608B091C708A1FF5EC063E060
:1023A00070E080E090E00E94F30D61E086E10E9421
:1023B000FC0E63E070E080E090E00E94F30D61E0CD
:1023C00086E10E94150F63E070E080E090E00E94DB
:1023D000F30D0E94741D63E070E080E090E00E94C5
:1023E000F30D81E00E94971D63E070E080E090E0D3
:1023F0000E94F30D84E00E94A51D63E070E080E080
:1024000090E00E94F30D80E00E94A01D63E070E068
:1024100080E090E00E94F30D0E94931D63E070E065
:1024200080E090E00E94F30D66E085E996E00E946E
:10243000B01D63E070E080E090E00E94F30D61E089
:1024400086E10E94FC0E60E086E10E94150F63E0C9
:1024500070E080E090E00E94F30D63E070E080E0C7
:1024600090E00E94F30D80EA96E00E94B72160930D
:10247000FC057093FD058093FE059093FF05809108
:10248000FC059091FD05A091FE05B091FF050E940D
:102490007E2D0E9485020E941303FDCF82E096E00C
:1024A0000E94A31982E096E00E94F51782E096E070
:1024B0000E94EA1780911B0690E020911D06821B66
:1024C000910920911A0630E040911E06241B310923
:1024D000121613060CF421CF29CF1F93CF93DF934D
:1024E0001F92CDB7DEB7162F61E08AE149830E94C3
:1024F000FC0E61E088E10E94FC0E4981112321F06D
:10250000113009F048C020C041110EC061E08AE1DD
:102510000E94150F8091C4089091C508A091C6082B
:10252000B091C70882602FC04130A9F560E08AE110
:102530000E94150F8091C4089091C508A091C6080B
:10254000B091C7088D7F1FC041110EC061E088E1C6
:102550000E94150F8091C4089091C508A091C608EB
:10256000B091C70881600FC04130A9F460E088E1F4
:102570000E94150F8091C4089091C508A091C608CB
:10258000B091C7088E7F8093C4089093C508A0932C
:10259000C608B093C7080F90DF91CF911F9108959F
:1025A00080917A00806880937A0060FF10C061E0BB
:1025B0008AE10E94FC0E61E08AE10E94150F61E051
:1025C00088E10E94FC0E61E088E10C94150F0895EB
:1025D00061E089E20E94FC0E61E088E20E94FC0E4C
:1025E00081EA96E00C942B220F931F93CF93DF93F5
:1025F000EC01162F61E081E30E94FC0E60E081E3B4
:102600000E94150F61E089E20E94FC0E60E089E201
:102610000E94150F61E088E20E94FC0E60E088E2F3
:102620000E94150F80917A008F7780937A0061E085
:102630008DE10E94FC0E60E08DE10E94150F61E0CB
:102640008BE10E94FC0E60E08BE10E94150F61E0BF
:1026500082E20E94FC0E60E082E20E94150F012FD0
:10266000017010FF0EC041E060E080E096E00E9443
:102670006D1241E061E080E096E00E946D121092E0
:10268000A80680E00E94151011FF19C061E086E1E4
:102690000E94FC0E60E086E10E94150F4091C40884
:1026A0005091C5086091C6087091C7084B7F409350
:1026B000C4085093C5086093C6087093C70881E0AA
:1026C0000E9415100023A1F08091C4089091C508C4
:1026D000A091C608B091C70890FD0AC08091C408B7
:1026E0009091C508A091C608B091C70891FF72C02B
:1026F00082E096E00E94F21461E080E30E94FC0E0A
:1027000060E080E30E94150FCE010E94E81261E0B4
:1027100089E10E94FC0E60E089E10E94150F409162
:10272000C4085091C5086091C6087091C70844FF5D
:1027300015C040E060E0CE010E946D1261E08AE0C9
:102740000E94FC0E61E089E00E94FC0E61E08AE0DC
:102750000E94150F61E089E00E94150F8091C40866
:102760009091C508A091C608B091C70886FF04C023
:1027700060E089E00E94150F8091C4089091C5081F
:10278000A091C608B091C70885FF18C060E084E03A
:102790000E94150F60E082E00E94150F60E087E064
:1027A0000E94150F60E08AE00E94150F60E086E04D
:1027B0000E94150F60E08EE00E94150F60E08BE232
:1027C0000E94FC0E60E08BE2DF91CF911F910F9190
:1027D0000C94150F61E086E00E94FC0E60E086E03C
:1027E0000E94150F85CF61E08DE20E94FC0E60E033
:1027F0008DE20E94150F87E20E945B0F892B41F04A
:1028000082E096E00E94A31982E096E00E948D1972
:1028100086E20E945B0F019721F58FEF96E00E9400
:10282000942980910407823071F018F48130C9F442
:1028300005C0833069F08430A1F40FC08FEF96E0BB
:102840000E9461290EC08FEF96E00E94BF2809C048
:102850008FEF96E00E94512804C08FEF96E00E940F
:10286000162860E08BE20E94FC0E60E08BE20C9484
:10287000150FCF92DF92EF92FF920F931F93CF939A
:10288000DF93EC017B01D42EC22E80EA96E00E94F9
:10289000A12061E08DE20E94FC0E60E08DE20E94CA
:1028A000150F602FCE010E94F41264E670E080E004
:1028B00090E00E94F30D1BE00DC061E070E080E04D
:1028C00090E00E94F30D80E096E00E94F313115017
:1028D00009F47FC08BE20E945B0F019771F382E0E5
:1028E00096E00E94A3192C2D4D2DB70182E096E0B1
:1028F0000E94911CD0902006E0901F06F0901E06CA
:1029000010911D0682E096E00E94F5178091200646
:10291000D8120CC080911F06E81208C080911E06D4
:10292000F81204C080911D06181781F082E096E02D
:102930000E94641982E096E0DF91CF911F910F9180
:10294000FF90EF90DF90CF900C942B1582E096E0F3
:102950000E942B1583B7817F846083BF83B781601A
:1029600083BF83B7816083BF889583B78E7F83BF22
:1029700083B78E7F83BF602FCE010E94D01282E08A
:1029800096E00E94A31982E096E00E94641982E01A
:1029900096E00E948D1982E096E00E942B1500FFC0
:1029A00018C061E08AE10E94FC0E60E08AE10E94AA
:1029B000150F61E088E10E94FC0E60E088E1DF9184
:1029C000CF911F910F91FF90EF90DF90CF900C94DB
:1029D000150FDF91CF911F910F91FF90EF90DF9036
:1029E000CF9008958091A706882341F08091030736
:1029F000811104C080E096E00C94E81208950F93D2
:102A00001F93CF93DF93EC01042F68A761E080E36D
:102A10000E94FC0E18A5112379F0113091F461E0A9
:102A200080E30E94150F013019F482E08B8B09C0FE
:102A3000011107C01B8B05C060E080E30E94150FE9
:102A40001B8A6AE070E080E090E0DF91CF911F91F7
:102A50000F910C94F30DCF93DF93EC010E94F214CD
:102A600040E060E0CE01DF91CF910C94FF14FC01B7
:102A7000148A158A168A178A108E118E128E138E5A
:102A8000148E158E168E178E10A211A212A213A2EA
:102A900014A215A216A217A20895EF92FF920F9307
:102AA0001F93CF93DF93CDB7DEB7EC970FB6F894B3
:102AB000DEBF0FBECDBF8C01E6EEF1E085919491B3
:102AC000BC01EE24E394F12CEC0EFD1EC7010E9424
:102AD000892DE8EEF1E085919491BC01CE018996B3
:102AE0000E94892DF8018689843009F466C040F47B
:102AF000823029F108F04BC0813009F0B6C009C01E
:102B0000863009F486C008F46EC0873009F0ADC085
:102B100096C0F801818D1F928F93808D1F928F93A5
:102B200087891F928F93828D1F928F9385891F9221
:102B30008F9384891F928F938CE292E015C0F801E5
:102B4000818D1F928F93808D1F928F9387891F9203
:102B50008F93828D1F928F9385891F928F93848983
:102B60001F928F9380E392E09F938F93FF92EF9257
:102B70001F9284E68F93C80189969F938F930E943A
:102B8000B52D0FB6F894DEBF0FBECDBF81C0F801E2
:102B9000818D1F928F93808D1F928F9387891F92B3
:102BA0008F93828D1F928F9385891F928F93848933
:102BB0001F928F9384E392E0D7CFF801818D1F920B
:102BC0008F93808D1F928F9387891F928F93828D11
:102BD0001F928F9385891F928F9384891F928F9361
:102BE00088E392E0C1CFF801818D1F928F93808D91
:102BF0001F928F9387891F928F93828D1F928F933D
:102C000085891F928F9384891F928F938CE392E022
:102C1000ABCFF801818D1F928F93808D1F928F9380
:102C200087891F928F93828D1F928F9385891F9220
:102C30008F9384891F928F9380E492E095CFF8015F
:102C4000818D1F928F93808D1F928F9387891F9202
:102C50008F93828D1F928F9385891F928F93848982
:102C60001F928F9384E492E07FCFCE0189969F9349
:102C70008F931F9284E68F93C80189969F938F93B9
:102C80000E94B52D0F900F900F900F900F900F9006
:102C9000075D1F4FC801EC960FB6F894DEBF0FBE5C
:102CA000CDBFDF91CF911F910F91FF90EF900895CD
:102CB000CF92DF92EF92FF920F931F93CF93DF9308
:102CC0008C01C62E8091A706811104C081EA96E08E
:102CD0000E94E52168E670E081EA96E00E941222F7
:102CE00060E070E081EA96E00E943E2381EA96E08F
:102CF0000E94402343E150E068E670E081EA96E0FC
:102D00000E947A23E12CF12CC0E0D0E0D12CE4C069
:102D100081EA96E00E941A22F801EC0FFD1F8083E1
:102D2000C630D10509F467C098F4C230D10509F462
:102D30003EC038F4209729F1C130D10509F0C7C051
:102D40002BC0C430D10509F440C008F049C03AC0D6
:102D5000CA30D10509F484C048F4282F30E0C830C7
:102D6000D10509F461C008F06DC050C0CC30D10568
:102D700009F492C008F482C0CD30D10509F0A7C093
:102D800099C0982F92959F708F702AE0929F800D26
:102D90001124F801818F9BC0982F92959F708F709E
:102DA000FAE09F9F800D1124F801808F90C0982F2A
:102DB00092959F708F70FAE09F9F800D1124F8010B
:102DC000878B85C0F801868B82C0982F92959F7063
:102DD0008F70FAE09F9F800D1124F801828F77C0D9
:102DE000982F92959F708F70FAE09F9F800D11240D
:102DF000F801858B6CC0982F92959F708F70FAE0C8
:102E00009F9F800D1124F801848B61C054E035959B
:102E100027955A95E1F727708F70FAE02F9F800D64
:102E20001124F801838F53C044E0359527954A95C6
:102E3000E1F727708F70FAE02F9F800D1124F801C1
:102E4000848F45C094E0359527959A95E1F72370D6
:102E50008F70FAE02F9F800D1124F801858F37C005
:102E6000282F2695269526952670922F990F990F33
:102E7000920F8F70980FF801968F29C0282F2695F2
:102E8000269526952E70922F990F990F920F8F707D
:102E9000980FF801978F1BC0282F26952695269509
:102EA0002670922F990F990F920F8F70980FF8013B
:102EB00090A30DC0282F2695269526952670922F33
:102EC000990F990F920F8F70980FF80191A3219687
:102ED00003C0FFEFEF1AFF0ACC16DD0658F02AE018
:102EE000E216F10438F481EA96E00E941422882365
:102EF00081F30ECFDF91CF911F910F91FF90EF9053
:102F0000DF90CF9008951F93CF93DF93EC01162F9E
:102F10008091A706811104C081EA96E00E94E52114
:102F200068E670E081EA96E00E941222612F81EA51
:102F300096E00E941223C10FD11D688181EA96E0BC
:102F40000E94122381EA96E0DF91CF911F910C94A9
:102F50004023FF920F931F93CF93DF938C01F62EA4
:102F60008091A706811104C081EA96E00E94E521C4
:102F700068E670E081EA96E00E9412226F2D81EAF5
:102F800096E00E94122381EA96E00E94402341E0ED
:102F900050E068E670E081EA96E00E947A23CBE098
:102FA000D0E081EA96E00E941422811102C02197AC
:102FB000C1F781EA96E00E941A22F801EF0DF11D97
:102FC000808381EA96E0DF91CF911F910F91FF906E
:102FD0000C944023CF93DF93EC0166E00E945816D7
:102FE000CE01DF91CF910C944D15CF92DF92EF92ED
:102FF000FF920F931F93CF93DF93CDB7DEB7C857E0
:10300000D1090FB6F894DEBF0FBECDBF7C016AE0D8
:103010000E9458168701075D1F4F84E6F801119240
:103020008A95E9F7E4ECF1E085919491BC01CE0139
:103030008F5A9F4F0E94892DBE016F5A7F4FC80142
:103040000E94902DF70182A1823009F46AC030F409
:10305000882369F0813009F00BC122C0843009F463
:10306000C7C008F493C0853009F002C1F0C0E6EC97
:10307000F1E085919491BC01CE018F5A9F4F0E943F
:10308000892DBE016F5A7F4FC8010E94902DE4ED3B
:10309000F1E0859194916E01F9E2CF0ED11C18C038
:1030A000E8ECF1E085919491BC01CE018F5A9F4FDD
:1030B0000E94892DBE016F5A7F4FC8010E94902D3A
:1030C000E4EDF1E0859194916E01E9E2CE0ED11C20
:1030D000BC01C6010E94892DF701838D1F928F9339
:1030E000848D1F928F93858D1F928F93868D1F9253
:1030F0008F93DF92CF921F9288E28F93EE24E39416
:10310000F12CEC0EFD1EFF92EF920E94B52DB7013F
:10311000C8010E94902D0FB6F894DEBF0FBECDBF40
:10312000C2C0EAECF1E085919491BC01CE018F5AC6
:103130009F4F0E94892DBE016F5A7F4FC8010E9488
:10314000902DE6EDF1E0859194916E01E9E2CE0ECD
:10315000D11CBC01C6010E94892DF701838D1F92ED
:103160008F93848D1F928F93858D1F928F93DF9203
:10317000CF921F9288E28F93EE24E394F12CEC0E11
:10318000FD1EFF92EF920E94B52DC1CFECECF1E055
:1031900085919491BC01CE018F5A9F4F0E94892D39
:1031A000BE016F5A7F4FC8010E94902DE8EDF1E0FB
:1031B000859194916E01E9E2CE0ED11CBC01C6014D
:1031C0000E94892DF701838D1F928F93848D1F920A
:1031D0008F93DF92CF921F9288E28F93EE24E39435
:1031E000F12CEC0EFD1EFF92EF920E94B52D8FCFB9
:1031F000EEECF1E085919491BC01CE018F5A9F4F86
:103200000E94892DBE016F5A7F4FC8010E94902DE8
:10321000EAEDF1E0859194916E01E9E2CE0ED11CC8
:10322000BC01C6010E94892DF701838D1F928F93E7
:10323000DF92CF921F9288E28F93EE24E394F12CD9
:10324000EC0EFD1EFF92EF920E94B52D60CFE0EDD7
:10325000F1E085919491BC01CE018F5A9F4F0E945D
:10326000892DBE016F5A7F4FC8010E94902D1BC04F
:10327000E2EDF1E0859194917E01E1E5EE0EF11C25
:10328000BC01C7010E94892DFF92EF921F9284E634
:103290008F931F930F930E94B52D0F900F900F9057
:1032A0000F900F900F90C801C858DF4F0FB6F894D9
:1032B000DEBF0FBECDBFDF91CF911F910F91FF9069
:1032C000EF90DF90CF900895CF93DF93EC016EE005
:1032D0000E94A9178E858E7F8E876EE0CE01DF91CA
:1032E000CF910C948317CF93DF93EC016EE00E9493
:1032F000A9178E858D7F8E876EE0CE01DF91CF91ED
:103300000C948317CF93DF93EC016FE00E94A91711
:103310008F858370DF91CF910895CF93DF93EC0178
:103320000E948219882319F0CE56DF4F888380913E
:1033300011068C7F809311066FE082E096E0DF91AA
:10334000CF910C948317CF93DF93EC0140E061E0C1
:103350000E94FF14CE010E948D19CE010E943715E4
:103360006DE0CE010E94581661E08BE20E94FC0ED7
:1033700060E08BE2DF91CF910C94150F362F862FF2
:103380006AE00E943D2C292F832F90E0821B910937
:103390006AE070E00E945D2CB4E0660F771FBA957A
:1033A000E1F7822F862B08950F931F93CF93DF931E
:1033B000EC018091A706811104C081EA96E00E9489
:1033C000E52168E670E081EA96E00E94122267E05B
:1033D00070E081EA96E00E943E236B8DCE010E9450
:1033E000BE198F778F836C8DCE010E94BE198F77A7
:1033F00088876D8DCE010E94BE198F7789876E8D6B
:10340000CE010E94BE198F738A8700E010E0FE0192
:10341000E00FF11F678181EA96E00E9412230F5F9F
:103420001F4F0430110599F781EA96E0DF91CF91A3
:103430001F910F910C9440230F931F93CF93DF9311
:10344000EC018091A706811104C081EA96E00E94F8
:10345000E52168E670E081EA96E00E94122260E0D1
:1034600070E081EA96E00E943E23698DCE010E94C1
:10347000BE198883688DCE010E94BE1989836F8929
:10348000CE010E94BE198A838E898B836A8DCE01FC
:103490000E94BE198C836D89CE010E94BE198D8356
:1034A0006C89CE010E94BE198E8300E010E0699104
:1034B00081EA96E00E9412230F5F1F4F073011052B
:1034C000B1F781EA96E0DF91CF911F910F910C94B3
:1034D0004023AF92BF92CF92DF92EF92FF920F9371
:1034E0001F93CF93DF93CDB7DEB7ED970FB6F89468
:1034F000DEBF0FBECDBF8C01B62EA72E7E0129E206
:10350000E20EF11C87E0F70111928A95E9F7EAEEE5
:10351000F1E085919491BC01CC24C394D12CCC0EC4
:10352000DD1EC6010E94892DEB2DFA2DDF010D90C5
:103530000020E9F75597AE17BF0711F081E0C5C02D
:10354000CE01C0969F938F93CE018E969F938F93BB
:10355000CE01C2969F938F93CE018D969F938F93AA
:10356000CE01C4969F938F93CE018C969F938F9399
:10357000CE01C6969F938F93CE018B969F938F9388
:10358000CE01C8969F938F93CE018A969F938F9377
:10359000CE01CA969F938F93FF92EF92CE01CC9665
:1035A0009F938F93DF92CF92AF92BF920E94F22DA2
:1035B0006AE572E0C7010E949B2D0FB6F894DEBF4A
:1035C0000FBECDBF892B09F4B9CF8CAD9DAD84362C
:1035D000910508F0B3CFF801848B2AAD3BADA9016A
:1035E000415051094C30510508F0A8CF258B2130AE
:1035F00061F0233051F0253041F0273031F0283090
:1036000021F02A3011F02C3029F488AD99AD809743
:1036100070F194CF243031F0263021F0293011F0B0
:103620002B3029F488AD99AD4F9708F187CF223020
:10363000F1F4282F2370B1F49C012053384FC901B5
:1036400064E670E00E945D2C892B39F4C90160E9C1
:1036500071E00E945D2C892B29F488AD99AD4E97BD
:1036600030F06CCF88AD99AD4D9708F067CF88AD3D
:1036700099AD9C01215031092F31310508F05ECF01
:10368000F801828F8EA99FA99C0121503109273012
:10369000310508F053CF868B8CA99DA988319105FF
:1036A00008F04CCF878B8AA99BA98C33910508F031
:1036B00045CF808F88A999A98C33910508F03ECF1A
:1036C000818FC8010E941C1A80E0ED960FB6F89415
:1036D000DEBF0FBECDBFDF91CF911F910F91FF9045
:1036E000EF90DF90CF90BF90AF900895CF93DF938E
:1036F000EC010E946419CE010E94731962E070E02F
:1037000080E090E00E94EE26CE01DF91CF910C94F4
:103710008D191F93CF93DF93EC01142F613009F0C3
:1037200086C08E8585608E876EE0CE010E948317ED
:103730008F858C7F8F876FE0CE010E9483171330B7
:1037400009F44EC028F48F81113019F1C8F509C071
:10375000153009F469C008F44DC0163009F0D8C01E
:10376000CDC08F778F8367E0CE010E948317888555
:103770008F77888768E0CE010E94831789858F77CD
:10378000898769E0CE010E9483178A858F778064DC
:1037900048C08F778F8367E0CE010E9483178885AA
:1037A0008F77888768E0CE010E94831789858F779D
:1037B000898769E0CE010E9483178A858F7331C0A3
:1037C0008F778F8367E0CE010E94831788858F777C
:1037D000888768E0CE010E94831789858F771AC099
:1037E0008F818F778F8367E0CE010E948317888552
:1037F0008F7709C08F818F778F8367E0CE010E941A
:10380000831788858068888768E0CE010E948317C7
:1038100089858068898769E0CE010E9483178A853F
:1038200080688A876AE066C08F818068E5CF6230F1
:1038300009F06EC08E8586608E876EE0CE010E9494
:1038400083178F858C7F8F876FE0CE010E9483174F
:10385000123089F130F4112359F0113009F058C0B9
:1038600019C01430A9F188F1153009F051C046C0D3
:103870008B858F778B876BE0CE010E9483178C85B9
:103880008F778C876CE0CE010E9483178D858F77B0
:1038900080642EC08B858F778B876BE0CE010E9472
:1038A00083178C858F778C876CE0CE010E948317FD
:1038B0008D858F731DC08B858F778B876BE0CE01D5
:1038C0000E9483178C858F770CC08B858F7702C001
:1038D0008B8580688B876BE0CE010E9483178C8577
:1038E00080688C876CE0CE010E9483178D8580688C
:1038F0008D876DE0CE010E9483170AC08E85887F78
:103900008E876EE0CE010E948317CE010E94761B47
:1039100062E070E080E090E0DF91CF911F910C9425
:103920005126CF92DF92FF920F931F93CF93DF9395
:103930001F92CDB7DEB76C018B01F22EDB010D902B
:103940000020E9F71C97A617B70741F06CEE71E06D
:103950008BE996E049830E941D204981F80181810D
:10396000805390819053FAE09F9F800D1124F601BF
:10397000868FF8018481805393819053FAE09F9F52
:10398000800D1124F601858FF8018781805396817F
:103990009053FAE09F9F800D1124F601848FF80167
:1039A0008285805391859053FAE09F9F800D11246A
:1039B000F601838F41117FC066E0C6010E94581650
:1039C000F601818D938D890F8C3310F4838F06C09F
:1039D0008C53F601838F848D8F5F848FF601808DE9
:1039E000948D890F8C3310F4848F06C08C53F601AC
:1039F000848F858D8F5F858FF6018789958D890FDF
:103A0000883110F4858F06C08851F601858F868D28
:103A10008F5F868FF601968DF11009C08689890F18
:103A2000868F883008F447C08750868F44C0F601DF
:103A3000328D390F368F8589813061F0833051F0B6
:103A4000853041F0873031F0883021F08A3011F034
:103A50008C3021F4303278F13F512BC0843031F07A
:103A6000863021F0893011F08B3021F43F3118F18C
:103A70003E511FC08230F9F4E09116068E2F8370FC
:103A8000A9F4F0E0E053F84FCF0164E670E00E9443
:103A90005D2C892B39F4CF0160E971E00E945D2C27
:103AA000892B21F43E3138F03D5103C03D3118F0EF
:103AB0003C51F601368FF601F2A282E096E00E94B8
:103AC000D4194F2D61E082E096E00F90DF91CF9105
:103AD0001F910F91FF90DF90CF900C94891B109253
:103AE000930610921506089561E08EE10E94FC0E87
:103AF00061E08FE10E94FC0E61E08DE10E94FC0E0E
:103B000060E08EE10E94150F60E08FE10E94150FCA
:103B100061E08DE10E94150F8CB580618CBD8CB584
:103B200080648CBD08958CB58F7B8CBD0895811108
:103B300003C08CB5806202C08CB58F7D8CBD0895AA
:103B40009CB5937F982B9CBD08952CB5982F9370AE
:103B50002C7F922B9CBD9DB580FB90F99DBD089557
:103B6000CF93C62F61E08DE10E94FC0E61E082E2FE
:103B70000E94FC0E61E08DE10E94150F61E082E27F
:103B80000E94150F8091C4089091C508A091C608A5
:103B9000B091C708A2FF08C061E088E00E94FC0E57
:103BA00061E088E00E94150F8091C4089091C508DB
:103BB000A091C608B091C70896FF08C061E089E0EF
:103BC0000E94FC0E61E089E00E94150F8091C408FC
:103BD0009091C508A091C608B091C708A3FF08C07E
:103BE00061E082E00E94FC0E61E082E00E94150F1D
:103BF0008091C4089091C508A091C608B091C708EB
:103C0000A4FF08C061E082E20E94FC0E61E082E253
:103C10000E94150FC330C9F020F4C13061F070F478
:103C200007C0C53061F1F0F0C63009F067C033C09D
:103C300060E08DE160C060E082E25DC080EA96E015
:103C40000E94892060E08CE256C08091C408909167
:103C5000C508A091C608B091C708A2FF4FC060E098
:103C600088E049C08091C4089091C508A091C60819
:103C7000B091C70896FF42C060E089E03CC08091E7
:103C8000C4089091C508A091C608B091C708A3FFC9
:103C900035C060E02FC061E08DE10E94150F61E04A
:103CA00082E20E94150F8091C4089091C508A091EE
:103CB000C608B091C708A2FF04C061E088E00E9476
:103CC000150F8091C4089091C508A091C608B091C5
:103CD000C70896FF04C061E089E00E94150F80913B
:103CE000C4089091C508A091C608B091C708A3FF69
:103CF00005C061E082E0CF910C94150FCF9108953B
:103D00008091C4089091C508A091C608B091C708D9
:103D1000A2FF0EC08091C4089091C508A091C6086A
:103D2000B091C70881FF04C0809197068823C1F134
:103D30008091C4089091C508A091C608B091C708A9
:103D4000A1FF0CC080919506811108C061E086E159
:103D50000E94FC0E61E086E10E94150F809196069C
:103D6000811108C061E08BE10E94FC0E61E08BE1F3
:103D70000E94150F8091C4089091C508A091C608B3
:103D8000B091C708A4FF11C080919A0681110DC09F
:103D900061E086E10E94FC0E61E086E10C94150F63
:103DA00061E082E00E94150FC3CF08958091C4089E
:103DB0009091C508A091C608B091C708A2FF0EC097
:103DC0008091C4089091C508A091C608B091C70819
:103DD00081FF04C0809197068823C1F18091C408B7
:103DE0009091C508A091C608B091C708A1FF0CC06A
:103DF00080919506811108C061E086E10E94FC0E69
:103E000060E086E10E94150F80919606811108C03E
:103E100061E08BE10E94FC0E60E08BE10E94150FD7
:103E20008091C4089091C508A091C608B091C708B8
:103E3000A4FF11C080919A0681110DC061E086E156
:103E40000E94FC0E60E086E10C94150F60E082E0B9
:103E50000E94150FC3CF0895CF93C82F85E996E030
:103E60000E94801ECEBD0DB407FEFDCF85E996E011
:103E70000E94D61E8EB5CF9108951092960610928C
:103E80009506109297061092980610929906109235
:103E90009A060895FC01408160E072EC81E090E0B8
:103EA0000E94A10F61E087E10E94FC0E61E087E1C2
:103EB0000E94150F61E08BE00E94FC0E60E08BE039
:103EC0000E94150F61E08DE20E94FC0E60E08DE221
:103ED0000C94150FDC018091C50011968C931197FD
:103EE0008091C40012968C931297E2ECF0E08081EE
:103EF00013968C9313978091CA0014968C93149701
:103F000080818F7D808380818F7E80838081877F89
:103F100080834C9160E072EC81E090E00E94A10F00
:103F200061E087E10E94150F60E08BE00C94150FB3
:103F3000CF93DF93EC014091C4085091C508609184
:103F4000C6087091C70863E070E080E090E042FF2F
:103F500007C00E94F30D61E08BE00E94150F02C0C4
:103F60000E94F30D89818093C5008A818093C400EB
:103F70008B818093C2008C818093CA00DF91CF91A6
:103F80000895EF92FF920F931F93CF93DF938C01CD
:103F9000EB010E946A1F7E0188E1E81A8CEFF80AA3
:103FA000FE0121968491882339F0F80160810E94F6
:103FB000B910CE15DF05A1F7C8010E94981F60E077
:103FC00070E0CB01DF91CF911F910F91FF90EF90A7
:103FD00008950F931F93CF93DF93EC018B010E9401
:103FE0006A1F17FF07C068818DE20E94B910119502
:103FF00001951109B801882777FD8095982F0881D0
:104000002AE030E040E050E00E94C61088810E9423
:10401000BB10CE01DF91CF911F910F910C94981F8F
:10402000CF93DF93EC010E946A1F88810E94BB102E
:10403000CE01DF91CF910C94981FEF92FF920F93D6
:104040001F93CF93DF9300D0CDB7DEB77C010E94E2
:10405000C11F8C01C70169837A830E941020698186
:104060007A81C8010F900F90DF91CF911F910F912E
:10407000FF90EF90089510929B0608951F93CF93A1
:10408000DF931F92CDB7DEB7162F61E0812F4983F2
:104090000E94FC0E4981413011F461E003C04111DE
:1040A00008C060E0812F0F90DF91CF911F910C9499
:1040B000150F0F90DF91CF911F910895CF92DF924E
:1040C000EF92FF92CF93DF93EC016B0141E06CE044
:1040D0000E943E2041E06DE0CE010E943E20E12C96
:1040E000F12CC701B6010E94F30D40E06CE0CE0157
:1040F0000E943E2040E06DE0CE010E943E20C701BC
:10410000B601DF91CF91FF90EF90DF90CF900C94AC
:10411000F30D61E087E10E94FC0E61E084E20E9401
:10412000FC0E61E085E20E94FC0E61E087E10E94E6
:10413000150F61E084E20E94150F61E085E20C94A6
:10414000150F61E087E10E94FC0E61E08BE00E94A8
:10415000FC0E60E087E10E94150F60E08BE00E949A
:10416000150F60E084E20E94150F60E085E20C9478
:10417000150FCB010C94F5328F929F92AF92BF92A4
:10418000CF92DF92EF92FF920F931F93CF93DF9323
:10419000CDB7DEB7C75FD1090FB6F894DEBF0FBE4B
:1041A000CDBF8E0100511F4F580128E0A20EB11C57
:1041B0007E0181E8E80EF11CCC24C394D12CCC0EF6
:1041C000DD1E6DE0CE018F519F4F0E94C72A40E057
:1041D0006CE080EA96E00E943E2040E06DE080EADC
:1041E00096E00E943E20F801108211821282138212
:1041F00061E08CE00E94FC0E61E08CE00E94150FF3
:10420000CE018F519F4F0E94A72941E06DE080EAC7
:1042100096E00E943E206AE070E080E090E00E941C
:10422000F30D40E063E3CE018F519F4F0E94782A47
:1042300062E370E080E090E00E94F30D4701CE0160
:104240008F519F4F0E944D2AF2E08F1A9108F4017E
:104250008083118261E070E080E090E00E94F30DC5
:104260008C149D0461F7FE017196D701C601805937
:104270009F4F219131912D933D93E817F907C9F78D
:1042800031EE832E912C8C0E9D1E81E090E0A0E0FB
:10429000B0E0F401329122914F012130310569F4EF
:1042A000F8014081518162817381480F591F6A1F53
:1042B0007B1F4083518362837383880F991FAA1FDA
:1042C000BB1F8E149F0429F7F80180819181A28180
:1042D000B3818F3F9F4FAF4FBF4F29F4F80110823A
:1042E00011821282138260E08CE00E94150F40E080
:1042F0006CE080EA96E00E943E2040E06DE080EABB
:1043000096E00E943E200C5F1F4F0A151B0509F026
:1043100058CFC051DF4F088119812A813B81C05F8E
:10432000D040CC50DF4F88819981AA81BB81C45F86
:10433000D040081719072A073B0719F000E010E0E2
:104340009801B801C901C950DF4F0FB6F894DEBF1C
:104350000FBECDBFDF91CF911F910F91FF90EF90D6
:10436000DF90CF90BF90AF909F908F900895CF92A5
:10437000DF92EF92FF920E94BC206B017C016115DD
:1043800071058105910591F483EE90E00E94FD3264
:104390006A302AE072078207920741F06F3F2FEFE1
:1043A00072078207920711F06B017C01B601C70109
:1043B000FF90EF90DF90CF9008958FED90E00E94F6
:1043C000F5328F3F09F480E00895CF93DF93EC013D
:1043D00080E2EFECF6E0DF01982F1D929A95E9F765
:1043E0001092CE061092CD06ECEAF6E0DF011D92A7
:1043F0008A95E9F71092AB061092AA060E944F0A1E
:1044000081E08E8384E090E0DF91CF910C941D0ECB
:1044100081E08093A9066093CC061092AB061092BF
:10442000AA0608950C9408228091CD069091CE069C
:10443000891B08959091CE068091CD06981748F477
:10444000E92FF0E0E153F94F80819F5F9093CE0612
:10445000089580E00895CF93DF93EC010E949B0ABA
:104460001E82DF91CF9108954091C4085091C508F4
:104470006091C6087091C7084170FC01408340916B
:10448000C4085091C5086091C6087091C708769518
:10449000679557954795417041838091C4089091E5
:1044A000C508A091C608B091C70884FD49C0809195
:1044B000C4089091C508A091C608B091C70885FDB1
:1044C0003FC08091C4089091C508A091C608B091E2
:1044D000C70886FD35C08091C4089091C508A09199
:1044E000C608B091C70887FD2BC08091C408909181
:1044F000C508A091C608B091C70890FD21C0809161
:10450000C4089091C508A091C608B091C70891FD54
:1045100017C08091C4089091C508A091C608B091B9
:10452000C70893FD0DC0089540E060E080E096E08C
:104530000E946D1240E061E080E096E00C946D1204
:104540008091A806882381F30895CF93DF93EC012F
:104550008091C4089091C508A091C608B091C70881
:1045600084FD58C08091C4089091C508A091C608E8
:10457000B091C70885FD4EC08091C4089091C508D0
:10458000A091C608B091C70886FD44C08091C408B8
:104590009091C508A091C608B091C70887FD3AC0A0
:1045A0008091C4089091C508A091C608B091C70831
:1045B00090FD30C04091C4085091C5086091C60874
:1045C0007091C70851FD26C04091C4085091C5089C
:1045D0006091C6087091C70853FD1CC020C041E01F
:1045E00060E080E096E00E946D120CC0898181112C
:1045F00006C041E060E080E096E00E946D12888194
:1046000081110DC041E061E080E096E0DF91CF9143
:104610000C946D128091A8068111E8CFE0CFDF9154
:10462000CF910895CF93DF931F92CDB7DEB7698303
:104630008091A906882389F08091AA068032D0F45F
:104640008091AB06E82FF0E0E455F94F60838F5F6F
:104650008093AB068093AA060DC081EA96E00E9483
:10466000342261E0CE0101960E947C0A81EA96E044
:104670000E94A5220F90DF91CF9108950C941223F0
:10468000CF9381EA96E00E94342221E04091AA066D
:104690006CEA76E08091CC060E943F0BC82F109206
:1046A000AB061092AA061092A90681EA96E00E9433
:1046B000A5228C2FCF910895CF93DF93D62FC42FAF
:1046C00081EA96E00E943422C13208F0C0E24C2F09
:1046D0006FEC76E08D2F0E94A40BD82F1092CE069F
:1046E000C093CD0681EA96E00E94A5228D2FDF912E
:1046F000CF9108950C945C231092A8061092A10605
:104700001092A2068AEF90E0A0E0B0E08093A306AA
:104710009093A406A093A506B093A6060895F894D6
:104720008091D0089091D10880FF18C086E20E9445
:104730005B0F892B99F08091D2088F5F8093D2080C
:104740008091D3089091D40881609093D40880938D
:10475000D3088091C8088F5F8093C8088091D008E3
:104760009091D10881FF18C087E20E945B0F892BCE
:1047700099F08091D2088F5F8093D2088091D308FE
:104780009091D40882609093D4088093D30880914C
:10479000C9088F5F8093C9088091D0089091D10893
:1047A00083FF1CC088E00E945B0F892BB9F08091C9
:1047B000D2088F5F8093D20860E085E00E94150FD9
:1047C0008091D3089091D40888609093D408809306
:1047D000D3088091CB088F5F8093CB088091D0085D
:1047E0009091D10887FF18C08DE20E945B0F892B42
:1047F00099F08091D2088F5F8093D2088091D3087E
:104800009091D40880689093D4088093D3088091C5
:10481000CE088F5F8093CE088091D0089091D10808
:1048200090FF18C082E10E945B0F892B99F0809164
:10483000D2088F5F8093D2088091D3089091D408DA
:1048400091609093D4088093D3088091CF088F5FB4
:104850008093CF088091D0089091D10884FF18C030
:1048600089E00E945B0F892B99F48091D2088F5FB9
:104870008093D2088091D3089091D408806190935E
:10488000D4088093D3088091CC088F5F8093CC08A4
:1048900078940895E82FF0E0EE0FFF1FE151F94FF3
:1048A00071836083823029F130F4882351F08130A4
:1048B00009F046C010C0833059F1843009F040C07F
:1048C00036C0E898809169008C7F842B80936900C2
:1048D000E09AE89A0895E99880916900440F551F7D
:1048E000440F551F837F842B80936900E19AE99AD6
:1048F0000895EA988091690024E0440F551F2A9595
:10490000E1F78F7C842B80936900E29AEA9A0895FC
:10491000EB988091690096E0440F551F9A95E1F756
:104920008F73842B80936900E39AEB9A0895EC9837
:1049300080916A008C7F842B80936A00E49AEC9AC1
:104940000895F894883018F5833091F020F4813080
:1049500059F060F407C0863079F0873079F0843000
:1049600071F408C0E8980BC0E99809C0EA9807C03C
:10497000EB9805C0EC9803C0EE9801C0EF98E82FC3
:10498000F0E0EE0FFF1FE151F94F11821082789491
:1049900008951F920F920FB60F9211240BB60F922B
:1049A0002F933F934F935F936F937F938F939F9337
:1049B000AF93BF93EF93FF938091EF069091F00632
:1049C000892B29F0E091EF06F091F0060995FF910F
:1049D000EF91BF91AF919F918F917F916F915F9177
:1049E0004F913F912F910F900BBE0F900FBE0F90E4
:1049F0001F9018951F920F920FB60F9211240BB6AD
:104A00000F922F933F934F935F936F937F938F9367
:104A10009F93AF93BF93EF93FF938091F106909193
:104A2000F206892B29F0E091F106F091F206099542
:104A3000FF91EF91BF91AF919F918F917F916F9176
:104A40005F914F913F912F910F900BBE0F900FBE32
:104A50000F901F9018951F920F920FB60F9211246E
:104A60000BB60F922F933F934F935F936F937F9368
:104A70008F939F93AF93BF93EF93FF938091F30630
:104A80009091F406892B29F0E091F306F091F40659
:104A90000995FF91EF91BF91AF919F918F917F9178
:104AA0006F915F914F913F912F910F900BBE0F909F
:104AB0000FBE0F901F9018951F920F920FB60F9276
:104AC00011240BB60F922F933F934F935F936F93E5
:104AD0007F938F939F93AF93BF93EF93FF938091B7
:104AE000F5069091F606892B29F0E091F506F091F4
:104AF000F6060995FF91EF91BF91AF919F918F912C
:104B00007F916F915F914F913F912F910F900BBECD
:104B10000F900FBE0F901F9018951F920F920FB617
:104B20000F9211240BB60F922F933F934F935F93E5
:104B30006F937F938F939F93AF93BF93EF93FF9365
:104B40008091F7069091F806892B29F0E091F706FD
:104B5000F091F8060995FF91EF91BF91AF919F9168
:104B60008F917F916F915F914F913F912F910F9016
:104B70000BBE0F900FBE0F901F9018951F920F92B3
:104B80000FB60F9211240BB60F922F933F934F93B2
:104B90005F936F937F938F939F93AF93BF93EF93A5
:104BA000FF938091F9069091FA06892B29F0E09104
:104BB000F906F091FA060995FF91EF91BF91AF9137
:104BC0009F918F917F916F915F914F913F912F9125
:104BD0000F900BBE0F900FBE0F901F9018951F9255
:104BE0000F920FB60F9211240BB60F922F933F9393
:104BF0004F935F936F937F938F939F93AF93BF93E5
:104C0000EF93FF938091FB069091FC06892B29F08E
:104C1000E091FB06F091FC060995FF91EF91BF91A1
:104C2000AF919F918F917F916F915F914F913F9144
:104C30002F910F900BBE0F900FBE0F901F901895E5
:104C40001F920F920FB60F9211240BB60F922F9353
:104C50003F934F935F936F937F938F939F93AF9304
:104C6000BF93EF93FF938091FD069091FE06892BF1
:104C700029F0E091FD06F091FE060995FF91EF9174
:104C8000BF91AF919F918F917F916F915F914F9164
:104C90003F912F910F900BBE0F900FBE0F901F9062
:104CA0001895CF92DF92EF92FF926B017C01809179
:104CB000D0089091D1088C299D299093D108809398
:104CC000D008C0FE0FC060E08BE20E94FC0E60E0E6
:104CD00086E20E94FC0E43E050E06FE873E282E05F
:104CE0000E944A24C1FE0FC060E08BE20E94FC0ECD
:104CF00060E087E20E94FC0E43E050E06FE873E260
:104D000082E00E944A24C2FE0FC061E083E00E945C
:104D1000FC0E61E083E00E94150F42E050E06FE27C
:104D200077E284E00E944A24C3FE0FC060E08BE279
:104D30000E94FC0E60E088E00E94FC0E43E050E020
:104D40006FE873E282E00E944A24C4FE0BC060E078
:104D50008BE20E94FC0E43E050E06FE873E282E0D9
:104D60000E944A24C6FE0FC060E084E00E94FC0E50
:104D700060E08CE20E94FC0E42E050E06FE277E2DD
:104D800083E00E944A24C7FE0FC060E08DE20E94CB
:104D9000FC0E60E08BE20E94FC0E43E050E06FE806
:104DA00073E282E00E944A24D0FE13C060E08BE2EE
:104DB0000E94FC0E60E082E10E94FC0E43E050E0A5
:104DC0006FE873E282E0FF90EF90DF90CF900C9459
:104DD0004A24FF90EF90DF90CF900895CF92DF921A
:104DE000EF92FF926B017C01F89460FF03C082E0B8
:104DF0000E94A124C1FE03C082E00E94A124C2FE41
:104E000003C084E00E94A124C3FE03C082E00E948C
:104E1000A124C4FE03C082E00E94A124C7FE03C0F7
:104E200082E00E94A124D0FE03C082E00E94A1245F
:104E3000C6FE03C083E00E94A1248091D008909117
:104E4000D108C094D094C822D922D092D108C0925F
:104E5000D0087894FF90EF90DF90CF900895F89469
:104E60008091D0089091D10886FF1EC084E00E94F6
:104E70005B0F892BC9F48091D2088F5F8093D20891
:104E80008091D3089091D40880649093D408809343
:104E9000D3088091CD088F5F8093CD0860E470E0E7
:104EA00080E090E00E94EE268091D0089091D10899
:104EB00082FF1CC083E00E945B0F892BB9F48091B4
:104EC000D2088F5F8093D2088091D3089091D40844
:104ED00084609093D4088093D3088091CA088F5F30
:104EE0008093CA0861E083E00E94150F78940895CA
:104EF000FC019B018181843051F0883061F0823067
:104F000081F484E0769567958A95E1F70CC0CB0132
:104F10006FE170E003C0CB016FE370E00E94492CA9
:104F200002C086810895862F66833087278308957F
:104F30001F93CF93DF93EC01162F8A818E7F8A8394
:104F400069E170E081EA96E00E941222612F81EA15
:104F500096E00E94122381EA96E00E94402341E0FD
:104F600050E069E170E081EA96E00E947A2381EAEC
:104F700096E00E941422882339F081EA96E00E948C
:104F80001A22282F30E005C08A8181608A832FEFA2
:104F90003FEFC901DF91CF911F9108950F931F93A8
:104FA000CF93DF93EC01162F042F8A818D7F8A83A4
:104FB00069E170E081EA96E00E941222612F81EAA5
:104FC00096E00E941223602F81EA96E00E9412234D
:104FD00081EA96E00E944023612FCE010E9498272B
:104FE000402F50E08417950729F08A8182608A83D8
:104FF00080E001C081E0DF91CF911F910F91089572
:10500000CF93DF93EC0140E062E20E94CE2761E3A0
:10501000CE010E94982761E070E080E090E00E945D
:10502000EE261D828A81DF91CF910895CF93DF9381
:10503000EC010E94002844E062E2CE010E94CE27EB
:1050400041E262E3CE010E94CE2740E063E3CE015D
:105050000E94CE274FEF60E3CE010E94CE2761E091
:1050600070E080E090E00E94512684E08D838A8188
:10507000DF91CF910895CF93DF93EC0140E062E29E
:105080000E94CE2761E3CE010E94982761E070E084
:1050900080E090E00E94EE261D828A81DF91CF9110
:1050A0000895CF93DF93EC010E943B2844E062E235
:1050B000CE010E94CE2740E362E3CE010E94CE27BC
:1050C00040E063E3CE010E94CE274FE760E3CE01CC
:1050D0000E94CE2761E070E080E090E00E945126BF
:1050E00083E08D838A81DF91CF910895CF93DF9301
:1050F000EC0140E062E20E94CE2761E3CE010E9413
:10510000982761E070E080E090E00E94EE261D822A
:105110008A81DF91CF9108950F931F93CF93DF93EF
:10512000EC018B010E94762840E062E2CE010E94F1
:10513000CE27B801CE010E947827482F62E3CE0126
:105140000E94CE2740E063E3CE010E94CE2744E0D8
:1051500061E2CE010E94CE274AE260E3CE010E94C6
:10516000CE2761E070E080E090E00E94512682E06E
:105170008D838A81DF91CF911F910F910895FC015A
:10518000678170850C948C28CF93DF93EC0140E00D
:1051900062E20E94CE2761E3CE010E94982761E07F
:1051A00070E080E090E00E94EE261D828A81DF910F
:1051B000CF9108951F93CF93DF93EC01162F68834F
:1051C0006430E1F030F4623081F0B0F4613021F508
:1051D00006C06630B9F0A0F06730F1F415C047E2C0
:1051E00060E20E94CE271C8305C040E060E20E947E
:1051F000CE271C8281E011C047E407C047E605C006
:1052000047E803C047EA01C047EC60E2CE010E94D4
:10521000CE2781E08C8301C080E0DF91CF911F9188
:105220000895CF93DF93EC0140E861E20E94CE271E
:1052300061E070E080E090E00E94F30D40E061E208
:10524000CE01DF91CF910C94CE270F931F93CF9374
:10525000DF93EC018B010E94112964E670E080E08D
:1052600090E00E94F30DCE010E94C42840E061E26C
:10527000CE010E94CE2744E062E2CE010E94CE27FA
:10528000B801CE010E947827482F62E3CE010E9428
:10529000CE2743E063E3CE010E94CE2745E960E3D9
:1052A000CE010E94CE2781E08D8361E070E080E036
:1052B00090E00E9451268A81DF91CF911F910F913A
:1052C0000895FC01678170850C9425291F93CF9365
:1052D000DF93EC01162F8091A706811104C081EAAB
:1052E00096E00E94E52181E0888361E0CE010E9482
:1052F000DA281983143031F0183031F0123049F4C3
:1053000040E003C040E101C040E363E2CE010E94FF
:10531000CE2761E08BE20E94FC0E60E08BE2DF9121
:10532000CF911F910C94150FFC0161810C9466299B
:105330001092040782E0809300078CE180930507B8
:1053400080EC91E090930707809306070895CF9231
:10535000DF92EF92FF921F93CF93DF93EC0160E017
:105360008E850E94FC0E0E94A10D6B017C011EE740
:10537000115089F182E090E00E941D0E0E94A10D63
:105380006C157D058E059F0520F40E94A10D6B0113
:105390007C018E850E945B0F892BF9F40E94A10D80
:1053A0006C197D098E099F09643F71408105910543
:1053B000F8F213C00E94A10D6B017C011130C1F104
:1053C0000E94A10D6C197D098E099F09643F7140EF
:1053D00081059105D0F010E02BC061E08E850E9420
:1053E000FC0E60E08E850E94150F84E591E00E941E
:1053F0001D0E0E94A10D6B017C018E850E945B0F2A
:1054000011E0892BD9F210E0D9CF8E850E945B0F75
:1054100011E0892B09F010E089E090E00E941D0E58
:105420000E94A10D6C157D058E059F0538F6C2CF33
:10543000812FDF91CF911F91FF90EF90DF90CF9060
:1054400008951F93CF93DF93FC011081C181D28116
:10545000912F9095F8948A8189238A838981812B61
:10546000898360FF0BC089E090E00E941D0E8A8155
:10547000812B8A8378948FE290E00AC087E390E0E2
:105480000E941D0E8A81812B8A83789485E090E0AA
:10549000DF91CF911F910C941D0E0F931F93CF930B
:1054A000DF93FC011081C181D281F8948981812B25
:1054B00089838A81012F009580238A8382E090E08E
:1054C0000E941D0E89818023898387E090E00E94DD
:1054D0001D0EC88178948DE290E00E941D0E1C2361
:1054E00081E009F480E0DF91CF911F910F91089541
:1054F000CF92DF92EF92FF920F931F93CF93DF93A0
:105500001F92CDB7DEB76C01E62E08E010E0FF2455
:10551000F3949F2D9E2161E009F460E0C601498368
:105520000E94212AFF0C0150110949810115110522
:1055300081F7411115C0F894D6011196ED91FC91B7
:10554000129791818C918095892381831196ED9199
:10555000FC91129792818C91809589238283789413
:105560000F90DF91CF911F910F91FF90EF90DF90FF
:10557000CF900895FC011386158614861286118635
:105580001086178216821582148213820895CF9393
:10559000DF93EC01862F6E8760E00E94FC0E8E8503
:1055A00090E0FC01E15FFB4FE491E883FC01EE5BDE
:1055B000FB4FE491F0E0EB58FB4FE491E9831A8252
:1055C000CE01DF91CF910C94BA2AFC01128A118E80
:1055D000138EDC01A356BE4F89E111968C9311976F
:1055E00014961C92DF01AE55BE4F1C9212961C926F
:1055F000E956FE4F11821082089588E097E00C94DE
:10560000E52A98D088F09F5790F0B92F9927B75185
:10561000A0F0D1F0660F771F881F991F1AF0BA9576
:10562000C9F712C0B13081F09FD0B1E008959CC09D
:10563000672F782F8827B85F39F0B93FCCF386956C
:1056400077956795B395D9F73EF4909580957095C9
:1056500061957F4F8F4F9F4F0895E89409C097FB46
:105660003EF490958095709561957F4F8F4F9F4F39
:105670009923A9F0F92F96E9BB279395F69587957D
:1056800077956795B795F111F8CFFAF4BB0F11F440
:1056900060FF1BC06F5F7F4F8F4F9F4F16C08823E7
:1056A00011F096E911C0772321F09EE8872F762F1D
:1056B00005C0662371F096E8862F70E060E02AF05E
:1056C0009A95660F771F881FDAF7880F969587954A
:1056D00097F9089597F99F6780E870E060E0089572
:1056E0009FEF80EC089500240A94161617061806FA
:1056F0000906089500240A941216130614060506D6
:105700000895092E0394000C11F4882352F0BB0F66
:1057100040F4BF2B11F460FF04C06F5F7F4F8F4FC9
:105720009F4F089557FD9058440F551F59F05F3F04
:1057300071F04795880F97FB991F61F09F3F79F0B3
:1057400087950895121613061406551FF2CF469535
:10575000F1DF08C0161617061806991FF1CF8695B7
:105760007105610508940895E894BB27662777279B
:10577000CB0197F908950BD0C4CFB5DF28F0BADF7D
:1057800018F0952309F0A6CFABCF1124EECFCADFD6
:10579000A0F3959FD1F3950F50E0551F629FF00144
:1057A000729FBB27F00DB11D639FAA27F00DB11D9D
:1057B000AA1F649F6627B00DA11D661F829F222726
:1057C000B00DA11D621F739FB00DA11D621F839FAD
:1057D000A00D611D221F749F3327A00D611D231F83
:1057E000849F600D211D822F762F6A2F11249F57D1
:1057F00050408AF0E1F088234AF0EE0FFF1FBB1FF4
:10580000661F771F881F91505040A9F79E3F510592
:1058100070F060CFAACF5F3FECF3983EDCF3869543
:1058200077956795B795F795E7959F5FC1F7FE2B3D
:10583000880F911D9695879597F90895A29FB001BD
:10584000B39FC001A39F01D0B29F700D811D112491
:10585000911D08950E941E2CA59F900DB49F900D40
:10586000A49F800D911D11240895B7FF0C942A2C3C
:105870000E942A2C821B930B0895991B79E004C087
:10588000991F961708F0961B881F7A95C9F780957F
:105890000895AA1BBB1B51E107C0AA1FBB1FA61777
:1058A000B70710F0A61BB70B881F991F5A95A9F7C9
:1058B00080959095BC01CD01089597FB072E16F4B5
:1058C000009407D077FD09D00E94492C07FC05D031
:1058D0003EF4909581959F4F0895709561957F4F07
:1058E0000895A1E21A2EAA1BBB1BFD010DC0AA1F21
:1058F000BB1FEE1FFF1FA217B307E407F50720F039
:10590000A21BB30BE40BF50B661F771F881F991FB3
:105910001A9469F760957095809590959B01AC01FC
:10592000BD01CF010895052E97FB16F4009407D012
:1059300057FD0DD00E94712C07FC09D07EF4909584
:105940008095709561957F4F8F4F9F4F089550952B
:105950004095309521953F4F4F4F5F4F0895689484
:1059600001C0E8948F929F92CF93DF930E94BD2C49
:10597000DF91CF919F908F90089588249924F4010E
:10598000E401B0E49F93AA279A158B049C04ED05CB
:10599000FE05CF05D007A10798F4AD2FDC2FCF2F40
:1059A000FE2FE92D982C892E982F872F762F652F83
:1059B000542F432F322F2227B85031F7BF9127C0E1
:1059C0001B2EBF91BB27220F331F441F551F661F7D
:1059D000771F881F991F881C991CEE1FFF1FCC1F63
:1059E000DD1FAA1FBB1F8A149B04EC05FD05CE0515
:1059F000DF05A007B10748F08A189B08EC09FD09EC
:105A0000CE09DF09A00BB10B21601A94E1F62EF448
:105A10009401AF01BE01CD01000C08950F930F73E7
:105A200051F0220F331F441F551F661F771F881F19
:105A3000991F0A95B1F70F9108952A0D3B1D4C1D32
:105A40005D1D6E1D7F1D801F911F08950790F691AB
:105A5000E02D09948F929F92AF92BF92CF92DF92E6
:105A6000EF92FF92CF93DF93EC01688179818A8175
:105A70009B81611571058105910521F464E279ED41
:105A80008BE597E02DE133EF41E050E00E94932C4D
:105A900049015A019B01AC01A7EAB1E40E942A2CFA
:105AA0006B017C01ACEEB4EFA50194010E94382C8F
:105AB000C60ED71EE81EF91EF7FE06C081E0C81A02
:105AC000D108E10880E8F80AC882D982EA82FB821C
:105AD000E894D7F8EE24FF24C601DF91CF91FF9020
