:100000000C94EC010C9477160C94A8160C94D91649
:100010000C940A170C943B170C946C170C949D17B6
:100020000C94CE170C941B020C941B020C941B0214
:100030000C9461130C941B020C941B020C94BD13C2
:100040000C941B020C941B020C941B020C941B02BC
:100050000C941B020C941B020C941B020C9498131E
:100060000C941B020C94C1120C941B020C941B02E6
:100070000C941B020C941B020C941B020C941B028C
:100080000C941B020C941B020C941B020C941B027C
:100090000C94FC120C941B020C941B020C94120482
:1000A0000C941B020C941B020C941B020C941B025C
:1000B0000C941B020C941B020C941B020C941B024C
:1000C0000C941B020C941B020C941B025057525FA1
:1000D00031206578616D706C6500656E74657220A5
:1000E000736C656570000A77616B65207570002D13
:1000F0002D2D2D2D2D2D2D2D2D2D2D2D2D2D2D2D30
:100100002D2D2D2D0057544420494E5420636170ED
:100110007475726564002D2D2D2D2D2D2D2D2D2DF9
:100120002D2D2D2D2D2D2D2D2D2D2D005401680122
:100130008E01B501D501ED01FB010B022002360253
:10014000470253025A0277029502AB02B902C90272
:10015000EC02F202416C61726D204D6F6465206D9E
:1001600061746368657320005B446179203A20689C
:100170006F757273203A206D696E75746573203ADD
:10018000207365636F6E64735D202D3E20005B44B9
:10019000617465203A20686F757273203A206D692A
:1001A0006E75746573203A207365636F6E64735D5A
:1001B000202D3E20005B486F757273203A206D69D8
:1001C0006E75746573203A207365636F6E64735D3A
:1001D000202D3E20005B4D696E75746573203A20BA
:1001E0007365636F6E64735D202D3E20005B536505
:1001F000636F6E64735D202D3E20004F6E6365203B
:10020000706572207365636F6E6400496E636F7210
:100210007265637420616C61726D206D6F6465003E
:100220005B253032753A253032753A253032753AD1
:10023000253032755D005B253032753A25303275D8
:100240003A253032755D005B253032753A25303203
:10025000755D005B253032755D005B446179203A45
:1002600020686F757273203A206D696E75746573BE
:10027000205D202D3E20005B44617465203A20689B
:100280006F757273203A206D696E75746573205DA9
:10029000202D3E20005B486F757273203A206D69F7
:1002A0006E757465735D202D3E20005B4D696E7523
:1002B0007465735D202D3E20004F6E636520706570
:1002C00072206D696E7574650025732C202530329F
:1002D000752F253032752F253032752C2025303280
:1002E000753A253032753A25303275006572726F75
:1002F000720025303275256325303275256325302F
:1003000032752563253032752563253032752563B6
:10031000253032752563253032750000000809004C
:1003200000000000000000000000000000000000CD
:1003300000000000000000000000000000000000BD
:1003400000000000000000000000000000000102AA
:1003500008101020408004081020400202040810F9
:100360002040800102802040042001010204081086
:10037000200140804080010208040880041004022B
:100380000105050505030303030101010404030638
:10039000060606060606060104050105010302021B
:1003A000020202020102020505040403040401031F
:1003B0000407070700202326292C2F320022252896
:1003C0002B2E3134002124272A2D303339087A0B83
:1003D0005910841CAB1CBB1D11241FBECFEFD1E2F2
:1003E000DEBFCDBF12E0A0E0B2E0ECECF6E400E04E
:1003F0000BBF02C007900D92A034B107D9F719E0E6
:10040000A0E4B2E001C01D92AB39B107E1F713E0FF
:10041000C8EDD3E000E006C022970109FE010BBF42
:100420000E94E11FCC3CD10780E00807A9F70E9499
:100430005E100C9464230C94000082EB92E00E9406
:100440006F076CEC70E082EB92E00C941B086AED95
:1004500070E082EB92E00E941B0843E069E080EBD1
:1004600092E00E94F60682EB92E00E946F0766EE31
:1004700070E082EB92E00E941B08809190059091C1
:10048000910582FF2DC06FEE70E082EB92E00E943A
:100490001B0865E071E082EB92E00E941B0866E1B8
:1004A00071E082EB92E00E941B086CE271E087EB46
:1004B00092E00E945C086CE271E087EB92E00E949F
:1004C0005C086CE271E087EB92E00E945C0880912E
:1004D0009005909191058B7F909391058093900565
:1004E000089510924902E4E6F0E080818F778083DE
:1004F000589A599AE9EBF0E080818E7F8083808161
:100500008D7F808381E48093B80085E48093BC0074
:1005100080E2EAE4F2E0DF01982F1D929A95E9F774
:10052000EAE6F2E0DF01982F1D929A95E9F7EAE8F2
:10053000F2E0DF011D928A95E9F70895613298F49F
:1005400020914902243089F460934602FC018AE636
:1005500092E0DC0102C021912D932A2F281B26173F
:10056000D0F380E0089581E0089582E0089585EC5D
:100570008093BC0010924902089558985998809130
:10058000B90081608093B9008091B9008260809346
:10059000B9008091BC0080688093BC008091BC0051
:1005A00080618093BC008091BC008F7B8093BC00F5
:1005B0008091BC008F7D8093BC008091BC00877FC0
:1005C0008093BC008091810590918205A091830564
:1005D000B091840586FD14C08091810590918205BB
:1005E000A0918305B091840590FD0AC0809181059A
:1005F00090918205A0918305B091840593FF04C07A
:100600008091BC008B7F03C08091BC00846080938C
:10061000BC008091BC008E7F8093BC008091640000
:100620008068809364000895882349F01092400206
:1006300010924102109242021092430213C0809124
:10064000400290914102A0914202B0914302019672
:10065000A11DB11D8093400290934102A0934202DC
:10066000B09343028091400290914102A0914202D6
:10067000B0914302803A9648A140B10560F01092D3
:1006800040021092410210924202109243020E94D4
:10069000710281E0089580E0089585ED8093BC00AB
:1006A00081E00E94140308C080E00E9414038823A4
:1006B00019F01092490208958091BC0084FDF4CF96
:1006C000F8CFFF920F931F93CF93DF93182F062F2E
:1006D000F72EC42FD22F81E0413208F051C00E9482
:1006E000140315C080E00E941403882381F082E087
:1006F000809349028FEF8093440210924802C09386
:10070000AA02E02FFF2D6AE472E0DB0107C08091AE
:1007100049028111E7CFEBCF81918D938A2F861B00
:100720008C17D0F3812F90E0880F991F8093AB0234
:1007300085EE8093BC0081E00E941403D11105C0B6
:10074000809144028F3F59F414C080914902823055
:10075000B9F780E00E94140381110DC0F6CF80919B
:100760004402803251F080914402803341F483E0AE
:1007700007C080E005C085E003C082E001C084E0DE
:10078000DF91CF911F910F91FF9008950F931F93C9
:10079000CF93DF93082FD62F172FC42F81E041323C
:1007A000E0F50E9414031DC080E00E94140388231A
:1007B000C1F081E0809349028FEF80934402109250
:1007C0004802C093AA02802F90E0880F991F816091
:1007D0008093AB0285EE8093BC0081E00E941403FD
:1007E00010C0809149028111DFCFE3CF80E00E94E9
:1007F0001403882331F08AE492E0ED2FF12FDC011D
:1008000007C080914902813089F3F5CF2D91219362
:100810002A2F281B2C17D0F380E0DF91CF911F9156
:100820000F9108951F920F920FB60F9211240BB6DD
:100830000F922F933F934F935F936F937F938F9379
:100840009F93AF93BF93CF93EF93FF93C091B90062
:10085000C87FC03609F49FC058F5C83209F45BC0A0
:1008600090F4C03109F452C038F4CC2309F4F2C03A
:10087000C83009F0F3C04AC0C83109F44CC0C032D6
:1008800009F0ECC05DC0C03409F473C038F4C03363
:1008900009F45BC0C83309F0E1C05AC0C03509F49F
:1008A0005CC0C83509F46AC0C83409F0D7C0D4C0E8
:1008B000C83909F4C5C0A8F4C83709F46CC038F4C5
:1008C000C83609F468C0C03709F0C8C064C0C83869
:1008D00009F4B6C0C03909F464C0C03809F0BEC01C
:1008E00060C0C03B09F484C038F4C03A09F46BC05E
:1008F000C83A09F0B3C07CC0C03C09F4A5C0C83CEC
:1009000009F4A2C0C83B09F0A9C087C08091AB021E
:100910008093BB0013C0909148028091AA0298175F
:1009200008F09AC080914802E82FF0E0E65BFD4FA6
:1009300090819093BB008F5F8093480285EC81C0CB
:100940000E944D03C093440289C0C093440284C0F6
:10095000C09344020E94B70281C0809148029091E6
:10096000BB00E82FF0E0E65BFD4F90838F5F809344
:100970004802909148028091AA025FC0809148028B
:100980009091BB00E82FF0E0E65BFD4F90838F5F16
:100990008093480261C083E080934902109245022F
:1009A000CDCF80914502803208F04AC08091450247
:1009B0009091BB00E82FF0E0E657FD4F90838F5FEA
:1009C00080934502BBCF80914502803230F4E091A4
:1009D0004502F0E0E657FD4F108260914502E0913C
:1009E000AC02F091AD0270E08AE892E009952CC06B
:1009F00084E0809349021092470210924602E091EF
:100A0000AE02F091AF02099580914602811105C0B6
:100A100081E08093460210926A0280914702E82F9B
:100A2000F0E0E659FD4F90819093BB008F5F80937B
:100A300047029091470280914602981708F47ECFB2
:100A400085E88093BC000AC085EC8093BC001092BE
:100A5000490204C0109244020E944D03FF91EF919D
:100A6000CF91BF91AF919F918F917F916F915F9146
:100A70004F913F912F910F900BBE0F900FBE0F9093
:100A80001F9018951F93CF93DF931F92CDB7DEB7BA
:100A9000162F61E08AE149830E947A1161E088E1C2
:100AA0000E947A114981112321F0113009F048C0C8
:100AB00020C041110EC061E08AE10E949311809133
:100AC000810590918205A0918305B0918405826093
:100AD0002FC04130A9F560E08AE10E949311809116
:100AE000810590918205A0918305B09184058D7F49
:100AF0001FC041110EC061E088E10E9493118091F6
:100B0000810590918205A0918305B0918405816053
:100B10000FC04130A9F460E088E10E9493118091F8
:100B2000810590918205A0918305B09184058E7F07
:100B30008093810590938205A0938305B0938405EB
:100B40000F90DF91CF911F91089561E089E20E949B
:100B50007A1161E088E20E947A1188EB92E00C94AD
:100B6000290A0F931F93CF93DF93EC01162F61E0B7
:100B700081E30E947A1160E081E30E94931161E0B9
:100B800089E20E947A1160E089E20E94931161E09B
:100B900088E20E947A1160E088E20E9493118091BD
:100BA0007A008F7780937A0061E08DE10E947A115C
:100BB00060E08DE10E94931161E08BE10E947A1167
:100BC00060E08BE10E94931161E082E20E947A1161
:100BD00060E082E20E949311012F017010FF0EC0AD
:100BE00041E060E080EB92E00E94420541E061E07C
:100BF00080EB92E00E9442051092BF0280E00E94CA
:100C0000931211FF19C061E086E10E947A1160E041
:100C100086E10E9493114091810550918205609177
:100C20008305709184054B7F409381055093820525
:100C3000609383057093840581E00E9493120023E2
:100C4000A1F08091810590918205A0918305B091DA
:100C5000840590FD0AC08091810590918205A09144
:100C60008305B091840591FF72C086E093E00E94F5
:100C70008D0B61E080E30E947A1160E080E30E94C6
:100C80009311CE010E94A50561E089E10E947A11CD
:100C900060E089E10E9493114091810550918205A5
:100CA000609183057091840544FF15C040E060E0C9
:100CB000CE010E94420561E08AE00E947A1161E063
:100CC00089E00E947A1161E08AE00E94931161E05C
:100CD00089E00E9493118091810590918205A091F5
:100CE0008305B091840586FF04C060E089E00E941E
:100CF00093118091810590918205A0918305B09117
:100D0000840585FF18C060E084E00E94931160E0D4
:100D100082E00E94931160E087E00E94931160E0FE
:100D20008AE00E94931160E086E00E94931160E0E7
:100D30008EE00E94931160E08BE20E947A1160E0E5
:100D40008BE2DF91CF911F910F910C94931161E091
:100D500086E00E947A1160E086E00E94931185CFC0
:100D600061E08DE20E947A1160E08DE20E949311B1
:100D700087E20E94D911892B41F086E093E00E941E
:100D80003E1086E093E00E94281086E20E94D9116E
:100D9000019721F586EB93E00E94801C8091BB03B4
:100DA000823071F018F48130C9F405C0833069F0E5
:100DB0008430A1F40FC086EB93E00E944D1C0EC05E
:100DC00086EB93E00E94AB1B09C086EB93E00E9488
:100DD0003D1B04C086EB93E00E94021B60E08BE2A7
:100DE0000E947A1160E08BE20C949311EF92FF92D3
:100DF0000F931F93CF93DF931F92CDB7DEB77C0184
:100E0000162F87EB92E049830E949F0861E08DE2F4
:100E10000E947A1160E08DE20E94931186E093E0D7
:100E20000E943E1086E093E00E94C60B4981642F29
:100E3000C7010E94B10564E670E080E090E00E9486
:100E400034140BE00CC061E070E080E090E00E94A0
:100E5000341480EB92E00E94B0060150C1F18BE2A5
:100E60000E94D911019779F393B7917F946093BF52
:100E700093B7916093BF64E070E080E090E00E94DF
:100E8000FF17812F0E94441383B7816083BF889529
:100E900083B78E7F83BF83B78E7F83BF809190059A
:100EA0009091910581FF13C086E093E00E943E106F
:100EB00086E093E00E94281086E093E00F90DF9197
:100EC000CF911F910F91FF90EF900C94C60B0F9054
:100ED000DF91CF911F910F91FF90EF900895FC014A
:100EE000408160E072EC81E090E00E941F1261E0BE
:100EF00087E10E947A1161E087E10E94931161E02D
:100F00008BE00E947A1160E08BE00E94931161E017
:100F10008DE20E947A1160E08DE20C949311DC0165
:100F20008091C50011968C9311978091C400129600
:100F30008C931297E2ECF0E0808113968C931397D8
:100F40008091CA0014968C93149780818F7D808342
:100F500080818F7E80838081877F80834C9160E059
:100F600072EC81E090E00E941F1261E087E10E9434
:100F7000931160E08BE00C949311CF93DF93EC011D
:100F8000409181055091820560918305709184059F
:100F900063E070E080E090E042FF07C00E943414FC
:100FA00061E08BE00E94931102C00E943414898199
:100FB0008093C5008A818093C4008B818093C20096
:100FC0008C818093CA00DF91CF910895EF92FF92B8
:100FD0000F931F93CF93DF938C01EB010E948F0738
:100FE0007E0188E1E81A8CEFF80AFE0121968491CF
:100FF000882339F0F80160810E943713CE15DF0590
:10100000A1F7C8010E94BD0760E070E0CB01DF914D
:10101000CF911F910F91FF90EF900895CF93DF93A1
:10102000EC010E948F0788810E943913CE01DF9165
:10103000CF910C94BD07EF92FF920F931F93CF9324
:10104000DF9300D0CDB7DEB77C010E94E6078C01AC
:10105000C70169837A830E940E0869817A81C80179
:101060000F900F90DF91CF911F910F91FF90EF9014
:1010700008951092B20208951F93CF93DF931F92A9
:10108000CDB7DEB7162F61E0812F49830E947A1118
:101090004981413011F461E003C0411108C060E0B2
:1010A000812F0F90DF91CF911F910C9493110F908E
:1010B000DF91CF911F910895CF92DF92EF92FF922F
:1010C000CF93DF93EC016B0141E06CE00E943C08A0
:1010D00041E06DE0CE010E943C08E12CF12CC701FB
:1010E000B6010E94341440E06CE0CE010E943C083E
:1010F00040E06DE0CE010E943C08C701B601DF91DF
:10110000CF91FF90EF90DF90CF900C94341461E07A
:1011100087E10E947A1161E084E20E947A1161E025
:1011200085E20E947A1161E087E10E94931161E0FB
:1011300084E20E94931161E085E20C94931161E0D6
:1011400087E10E947A1161E08BE00E947A1160E0F1
:1011500087E10E94931160E08BE00E94931160E0B0
:1011600084E20E94931160E085E20C949311CB011C
:101170000C9498228F929F92AF92BF92CF92DF925F
:10118000EF92FF920F931F93CF93DF93CDB7DEB70C
:10119000C75FD1090FB6F894DEBF0FBECDBF8E0179
:1011A00000511F4F580128E0A20EB11C7E0181E8BA
:1011B000E80EF11CCC24C394D12CCC0EDD1E6DE0C6
:1011C000CE018F519F4F0E94461A40E06CE087EBA2
:1011D00092E00E943C0840E06DE087EB92E00E94C4
:1011E0003C08F801108211821282138261E08CE0C7
:1011F0000E947A1161E08CE00E949311CE018F5120
:101200009F4F0E94261941E06DE087EB92E00E941B
:101210003C086AE070E080E090E00E94341440E016
:1012200063E3CE018F519F4F0E94F71962E370E094
:1012300080E090E00E9434144701CE018F519F4F0F
:101240000E94CC19F2E08F1A9108F4018083118278
:1012500061E070E080E090E00E9434148C149D0402
:1012600061F7FE017196D701C60180599F4F219108
:1012700031912D933D93E817F907C9F731EE832E8D
:10128000912C8C0E9D1E81E090E0A0E0B0E0F40176
:10129000329122914F012130310569F4F8014081EA
:1012A000518162817381480F591F6A1F7B1F4083E0
:1012B000518362837383880F991FAA1FBB1F8E14EB
:1012C0009F0429F7F80180819181A281B3818F3F2A
:1012D0009F4FAF4FBF4F29F4F80110821182128245
:1012E000138260E08CE00E94931140E06CE087EB99
:1012F00092E00E943C0840E06DE087EB92E00E94A3
:101300003C080C5F1F4F0A151B0509F058CFC05150
:10131000DF4F088119812A813B81C05FD040CC50CA
:10132000DF4F88819981AA81BB81C45FD0400817B3
:1013300019072A073B0719F000E010E09801B801EF
:10134000C901C950DF4F0FB6F894DEBF0FBECDBF45
:10135000DF91CF911F910F91FF90EF90DF90CF9091
:10136000BF90AF909F908F900895CF92DF92EF92B1
:10137000FF920E94BA086B017C016115710581051D
:10138000910591F483EE90E00E94A0226A302AE059
:1013900072078207920741F06F3F2FEF72078207B3
:1013A000920711F06B017C01B601C701FF90EF902D
:1013B000DF90CF9008958FED90E00E9498228F3FAC
:1013C00009F480E00895CF93DF93EC0180E2E6EE2C
:1013D000F2E0DF01982F1D929A95E9F71092E5024D
:1013E0001092E402E3ECF2E0DF011D928A95E9F746
:1013F0001092C2021092C1020E94710281E08E839B
:1014000084E090E0DF91CF910C945E1481E08093B2
:10141000C0026093E3021092C2021092C1020895CA
:101420000C94060A8091E4029091E502891B0895CC
:101430009091E5028091E402981748F4E92FF0E0DA
:10144000EA51FD4F80819F5F9093E502089580E00F
:101450000895CF93DF93EC010E94BD021E82DF91BD
:10146000CF91089540918105509182056091830547
:10147000709184054170FC01408340918105509139
:1014800082056091830570918405769567955795DF
:101490004795417041838091810590918205A0918B
:1014A0008305B091840584FD49C0809181059091A8
:1014B0008205A0918305B091840585FD3FC0809190
:1014C000810590918205A0918305B091840586FDE8
:1014D00035C08091810590918205A0918305B091DE
:1014E000840587FD2BC08091810590918205A09194
:1014F0008305B091840590FD21C080918105909174
:101500008205A0918305B091840591FD17C080915B
:10151000810590918205A0918305B091840593FD8A
:101520000DC0089540E060E080EB92E00E9442052B
:1015300040E061E080EB92E00C9442058091BF02B4
:10154000882381F30895CF93DF93EC018091810587
:1015500090918205A0918305B091840584FD58C0C7
:101560008091810590918205A0918305B0918405B9
:1015700085FD4EC08091810590918205A0918305E3
:10158000B091840586FD44C08091810590918205CB
:10159000A0918305B091840587FD3AC080918105B3
:1015A00090918205A0918305B091840590FD30C093
:1015B0004091810550918205609183057091840569
:1015C00051FD26C0409181055091820560918305AF
:1015D0007091840553FD1CC020C041E060E080EBA9
:1015E00092E00E9442050CC08981811106C041E051
:1015F00060E080EB92E00E944205888181110DC07D
:1016000041E061E080EB92E0DF91CF910C944205E4
:101610008091BF028111E8CFE0CFDF91CF91089593
:10162000CF93DF931F92CDB7DEB769838091C0025D
:10163000882389F08091C1028032D0F48091C20267
:10164000E82FF0E0ED53FD4F60838F5F8093C2027F
:101650008093C1020DC088EB92E00E94320A61E0E3
:10166000CE0101960E949E0288EB92E00E94A30A9E
:101670000F90DF91CF9108950C94100BCF9388EBCE
:1016800092E00E94320A21E04091C10263EC72E0D4
:101690008091E3020E946103C82F1092C20210924F
:1016A000C1021092C00288EB92E00E94A30A8C2F24
:1016B000CF910895CF93DF93D62FC42F88EB92E07C
:1016C0000E94320AC13208F0C0E24C2F66EE72E08E
:1016D0008D2F0E94C603D82F1092E502C093E4021A
:1016E00088EB92E00E94A30A8D2FDF91CF9108959D
:1016F0000C945A0B1092BF021092B8021092B902C9
:101700008AEF90E0A0E0B0E08093BA029093BB0231
:10171000A093BC02B093BD0208958091BE028823BD
:1017200041F08091BA03811104C080EB92E00C94E7
:10173000A50508950F931F93CF93DF93EC01042F1A
:1017400068A761E080E30E947A1118A5112379F05F
:10175000113091F461E080E30E949311013019F49B
:1017600082E08B8B09C0011107C01B8B05C060E0B4
:1017700080E30E9493111B8A6AE070E080E090E0B1
:10178000DF91CF911F910F910C943414CF93DF937D
:10179000EC010E948D0B40E060E0CE01DF91CF9123
:1017A0000C949A0BFC01148A158A168A178A108EDB
:1017B000118E128E138E148E158E168E178E10A209
:1017C00011A212A213A214A215A216A217A2089582
:1017D000EF92FF920F931F93CF93DF93CDB7DEB7B6
:1017E000EC970FB6F894DEBF0FBECDBF8C01EEE4D0
:1017F000F1E085919491BC01EE24E394F12CEC0E80
:10180000FD1EC7010E944420E0E5F1E0859194911E
:10181000BC01CE0189960E944420F801868984305B
:1018200009F466C040F4823029F108F04BC08130E1
:1018300009F0B6C009C0863009F486C008F46EC04D
:10184000873009F0ADC096C0F801818D1F928F934B
:10185000808D1F928F9387891F928F93828D1F9205
:101860008F9385891F928F9384891F928F938BE02A
:1018700092E015C0F801818D1F928F93808D1F9289
:101880008F9387891F928F93828D1F928F93858963
:101890001F928F9384891F928F938FE092E09F9382
:1018A0008F93FF92EF921F9284E68F93C8018996DF
:1018B0009F938F930E9456200FB6F894DEBF0FBE01
:1018C000CDBF81C0F801818D1F928F93808D1F92B3
:1018D0008F9387891F928F93828D1F928F93858913
:1018E0001F928F9384891F928F9383E192E0D7CFC9
:1018F000F801818D1F928F93808D1F928F9387891E
:101900001F928F93828D1F928F9385891F928F9341
:1019100084891F928F9387E192E0C1CFF801818D76
:101920001F928F93808D1F928F9387891F928F9321
:10193000828D1F928F9385891F928F9384891F9226
:101940008F938BE192E0ABCFF801818D1F928F9343
:10195000808D1F928F9387891F928F93828D1F9204
:101960008F9385891F928F9384891F928F938FE124
:1019700092E095CFF801818D1F928F93808D1F92F9
:101980008F9387891F928F93828D1F928F93858962
:101990001F928F9384891F928F9383E292E07FCF6F
:1019A000CE0189969F938F931F9284E68F93C801EF
:1019B00089969F938F930E9456200F900F900F90BF
:1019C0000F900F900F90075D1F4FC801EC960FB658
:1019D000F894DEBF0FBECDBFDF91CF911F910F9165
:1019E000FF90EF900895CF92DF92EF92FF920F93C6
:1019F0001F93CF93DF938C01C62E8091BE0281117D
:101A000004C088EB92E00E94E30968E670E088EB8E
:101A100092E00E94100A60E070E088EB92E00E9481
:101A20003C0B88EB92E00E943E0B43E150E068E6FD
:101A300070E088EB92E00E94780BE12CF12CC0E082
:101A4000D0E0D12CE4C088EB92E00E94180AF801A3
:101A5000EC0FFD1F8083C630D10509F467C098F4F0
:101A6000C230D10509F43EC038F4209729F1C130C5
:101A7000D10509F0C7C02BC0C430D10509F440C05E
:101A800008F049C03AC0CA30D10509F484C048F40E
:101A9000282F30E0C830D10509F461C008F06DC0CE
:101AA00050C0CC30D10509F492C008F482C0CD30CA
:101AB000D10509F0A7C099C0982F92959F708F709B
:101AC0002AE0929F800D1124F801818F9BC0982FEE
:101AD00092959F708F70FAE09F9F800D1124F801FE
:101AE000808F90C0982F92959F708F70FAE09F9F83
:101AF000800D1124F801878B85C0F801868B82C088
:101B0000982F92959F708F70FAE09F9F800D1124FF
:101B1000F801828F77C0982F92959F708F70FAE0AE
:101B20009F9F800D1124F801858B6CC0982F929592
:101B30009F708F70FAE09F9F800D1124F801848BB5
:101B400061C054E0359527955A95E1F727708F705D
:101B5000FAE02F9F800D1124F801838F53C044E0D9
:101B6000359527954A95E1F727708F70FAE02F9FFA
:101B7000800D1124F801848F45C094E03595279598
:101B80009A95E1F723708F70FAE02F9F800D112452
:101B9000F801858F37C0282F269526952695267023
:101BA000922F990F990F920F8F70980FF801968FBF
:101BB00029C0282F2695269526952E70922F990FAD
:101BC000990F920F8F70980FF801978F1BC0282FD5
:101BD0002695269526952670922F990F990F920F8C
:101BE0008F70980FF80190A30DC0282F2695269589
:101BF00026952670922F990F990F920F8F70980F3C
:101C0000F80191A3219603C0FFEFEF1AFF0ACC164B
:101C1000DD0658F02AE0E216F10438F488EB92E091
:101C20000E94120A882381F30ECFDF91CF911F917A
:101C30000F91FF90EF90DF90CF9008951F93CF9377
:101C4000DF93EC01162F8091BE02811104C088EB56
:101C500092E00E94E30968E670E088EB92E00E945F
:101C6000100A612F88EB92E00E94100BC10FD11D6A
:101C7000688188EB92E00E94100B88EB92E0DF9184
:101C8000CF911F910C943E0BFF920F931F93CF9314
:101C9000DF938C01F62E8091BE02811104C088EB87
:101CA00092E00E94E30968E670E088EB92E00E940F
:101CB000100A6F2D88EB92E00E94100B88EB92E0E7
:101CC0000E943E0B41E050E068E670E088EB92E055
:101CD0000E94780BCBE0D0E088EB92E00E94120AE1
:101CE000811102C02197C1F788EB92E00E94180A87
:101CF000F801EF0DF11D808388EB92E0DF91CF9129
:101D00001F910F91FF900C943E0BCF93DF93EC014A
:101D100066E00E94F30CCE01DF91CF910C94E80BAA
:101D2000CF92DF92EF92FF920F931F93CF93DF93A7
:101D3000CDB7DEB7C857D1090FB6F894DEBF0FBED6
:101D4000CDBF7C016AE00E94F30C8701075D1F4F45
:101D500084E6F80111928A95E9F7ECE2F1E08591C9
:101D60009491BC01CE018F5A9F4F0E944420BE0126
:101D70006F5A7F4FC8010E944B20F70182A1823029
:101D800009F46AC030F4882369F0813009F00BC18E
:101D900022C0843009F4C7C008F493C0853009F02C
:101DA00002C1F0C0EEE2F1E085919491BC01CE0158
:101DB0008F5A9F4F0E944420BE016F5A7F4FC80127
:101DC0000E944B20ECE3F1E0859194916E01F9E2E1
:101DD000CF0ED11C18C0E0E3F1E085919491BC01D5
:101DE000CE018F5A9F4F0E944420BE016F5A7F4FF1
:101DF000C8010E944B20ECE3F1E0859194916E01C3
:101E0000E9E2CE0ED11CBC01C6010E944420F701BC
:101E1000838D1F928F93848D1F928F93858D1F9238
:101E20008F93868D1F928F93DF92CF921F9288E2BD
:101E30008F93EE24E394F12CEC0EFD1EFF92EF92B3
:101E40000E945620B701C8010E944B200FB6F8949B
:101E5000DEBF0FBECDBFC2C0E2E3F1E08591949139
:101E6000BC01CE018F5A9F4F0E944420BE016F5A81
:101E70007F4FC8010E944B20EEE3F1E085919491E1
:101E80006E01E9E2CE0ED11CBC01C6010E944420C5
:101E9000F701838D1F928F93848D1F928F93858D71
:101EA0001F928F93DF92CF921F9288E28F93EE243E
:101EB000E394F12CEC0EFD1EFF92EF920E9456204F
:101EC000C1CFE4E3F1E085919491BC01CE018F5A3A
:101ED0009F4F0E944420BE016F5A7F4FC8010E944D
:101EE0004B20E0E4F1E0859194916E01E9E2CE0EA1
:101EF000D11CBC01C6010E944420F701838D1F92B2
:101F00008F93848D1F928F93DF92CF921F9288E2DE
:101F10008F93EE24E394F12CEC0EFD1EFF92EF92D2
:101F20000E9456208FCFE6E3F1E085919491BC01A9
:101F3000CE018F5A9F4F0E944420BE016F5A7F4F9F
:101F4000C8010E944B20E2E4F1E0859194916E017A
:101F5000E9E2CE0ED11CBC01C6010E944420F7016B
:101F6000838D1F928F93DF92CF921F9288E28F937F
:101F7000EE24E394F12CEC0EFD1EFF92EF920E94F2
:101F8000562060CFE8E3F1E085919491BC01CE0149
:101F90008F5A9F4F0E944420BE016F5A7F4FC80145
:101FA0000E944B201BC0EAE3F1E0859194917E01F1
:101FB000E1E5EE0EF11CBC01C7010E944420FF9236
:101FC000EF921F9284E68F931F930F930E945620E7
:101FD0000F900F900F900F900F900F90C801C8585E
:101FE000DF4F0FB6F894DEBF0FBECDBFDF91CF91AC
:101FF0001F910F91FF90EF90DF90CF900895CF93B6
:10200000DF93EC016EE00E94440E8E858E7F8E87FA
:102010006EE0CE01DF91CF910C941E0ECF93DF9333
:10202000EC016EE00E94440E8E858D7F8E876EE0FF
:10203000CE01DF91CF910C941E0ECF93DF93EC0174
:102040006FE00E94440E8F858370DF91CF910895D9
:10205000CF93DF93EC010E941D10882319F0CE5618
:10206000DF4F8883809115038C7F809315036FE089
:1020700086E093E0DF91CF910C941E0ECF93DF9317
:10208000EC0140E061E00E949A0BCE010E94281012
:10209000CE010E94D20B6DE0CE010E94F30C61E0F4
:1020A0008BE20E947A1160E08BE2DF91CF910C9479
:1020B0009311109297031092190308950E948014AF
:1020C00087EB92E00E94DB09853440F061E081E318
:1020D0000E947A1161E081E30E94931161E070E057
:1020E00087EB92E00E94B7088130B1F480918105BE
:1020F00090918205A0918305B091840590688093AA
:10210000810590938205A0938305B093840560E0D8
:1021100081E090E00E94A62287E20E94D911892BDB
:1021200059F160E070E087EB92E00E94B7088A30D6
:1021300019F5C1C06CE3629FA001639F500D11248B
:10214000840F951F0EC02115310559F06CE3629F75
:10215000A001639F500D11249A01205F314F820F1F
:10216000931F039748F480919005909191058062A8
:10217000909391058093900586E093E00E943E1035
:1021800086E093E00E94FF0F86E093E00E940E102D
:1021900086E093E00E94C60B63E070E080E090E090
:1021A0000E9434148091810590918205A09183054D
:1021B000B0918405A1FF5EC063E070E080E090E034
:1021C0000E94341461E086E10E947A1163E070E0BD
:1021D00080E090E00E94341461E086E10E94931157
:1021E00063E070E080E090E00E9434140E94AF1C35
:1021F00063E070E080E090E00E94341481E00E948F
:10220000D21C63E070E080E090E00E94341484E02F
:102210000E94E01C63E070E080E090E00E943414D3
:1022200080E00E94DB1C63E070E080E090E00E94B0
:1022300034140E94CE1C63E070E080E090E00E94C5
:10224000341466E08BE795E00E94EB1C63E070E0DD
:1022500080E090E00E94341461E086E10E947A11EF
:1022600060E086E10E94931163E070E080E090E01E
:102270000E94341463E070E080E090E00E94341427
:1022800087EB92E00E94B5096093990370939A03DB
:1022900080939B0390939C038091990390919A0360
:1022A000A0919B03B0919C030E9439200E941D02C3
:1022B0000E942702FDCF86E093E00E943E1086E058
:1022C00093E00E94900E86E093E00E94850E80913C
:1022D0001F0390E020912103821B910920911E038E
:1022E00030E040912203241B3109121613060CF42E
:1022F00021CF29CF90E0FC01E25BFC4F2491FC014F
:10230000EF57FC4FE491EE2369F0F0E0EC53FC4F03
:10231000A491B0E08C91611103C02095822301C08B
:10232000822B8C93089590E0FC01E55EFC4F249194
:10233000FC01E25BFC4F3491FC01EF57FC4F8491B0
:102340008823B1F1222331F1233021F490918000D0
:102350009F7705C0243031F4909180009F7D909349
:10236000800018C0213019F494B59F7704C0223042
:1023700021F494B59F7D94BD0DC0263021F4909139
:10238000B0009F7705C0273029F49091B0009F7D61
:102390009093B000E82FF0E0E454FC4FA491B0E03B
:1023A0008C91611103C03095832301C0832B8C93E2
:1023B000089590E0FC01E55EFC4F2491FC01E25B96
:1023C000FC4F3491FC01EF57FC4F8491882399F125
:1023D000222331F1233021F4909180009F7705C0B2
:1023E000243031F4909180009F7D9093800018C03C
:1023F000213019F494B59F7704C0223021F494B5AC
:102400009F7D94BD0DC0263021F49091B0009F7740
:1024100005C0273029F49091B0009F7D9093B000C3
:10242000E82FF0E0EC54FC4FE491F0E0808183234E
:1024300021E030E011F420E030E0C9010895CF92AE
:10244000DF92EF92FF926B017C01411134C088E072
:102450000E94DB14C701B60122E030E040E050E00A
:102460000E944E1F305F414F5F4FCA01B901A70163
:1024700096010E944E1FDA01C9010197A109B10915
:10248000892F9A2FAB2FBB27A7FDBA958093C50044
:1024900021502093C4008091C10080618093C100CD
:1024A0008091C10088608093C1008091C1008068E4
:1024B0008093C10033C080E10E94DB14C701B601E4
:1024C00022E030E040E050E00E944E1F305F414F7C
:1024D0005F4FCA01B901A70196010E944E1FDA01A0
:1024E000C9010197A109B109892F9A2FAB2FBB27E9
:1024F000A7FDBA958093CD0021502093CC00809108
:10250000C90080618093C9008091C9008860809370
:10251000C9008091C90080688093C900FF90EF9046
:10252000DF90CF90089581110EC088E00E941515AC
:102530008091C1008F7E8093C1008091C100877F10
:102540008093C100089580E10E9415158091C90013
:102550008F7E8093C9008091C900877F8093C900D6
:102560000895611107C09091C00095FFFCCF809342
:10257000C60008959091C80095FFFCCF8093CE00CF
:1025800008951F920F920FB60F9211242F933F932D
:102590004F935F936F937F938F939F93AF93BF936B
:1025A000EF93E091C6002091A3033091A403C901E9
:1025B000019660E072E00E94181F4091A1035091C3
:1025C000A2038417950741F0D901AD56B84FEC939B
:1025D0009093A4038093A303EF91BF91AF919F9138
:1025E0008F917F916F915F914F913F912F910F90BC
:1025F0000FBE0F901F9018951F920F920FB60F925B
:1026000011242F933F934F935F936F937F938F93F7
:102610009F93AF93BF93EF93E091CE0020919F03E0
:102620003091A003C901019660E072E00E94181F7A
:1026300040919D0350919E038417950741F0D90165
:10264000AD56BA4FEC939093A00380939F03EF9104
:10265000BF91AF919F918F917F916F915F914F91BA
:102660003F912F910F900FBE0F901F9018950C94D3
:10267000B112CF93C82F682F8DE00E94B1126C2F3A
:102680008AE0CF910C94B112F89410920A028A3029
:1026900008F089E0982F9770883008F09062906178
:1026A00084B7877F84BF80916000886180936000D9
:1026B00090936000809160008064809360007894C3
:1026C00008951F920F920FB60F9211240BB60F921E
:1026D0002F933F934F935F936F937F938F939F932A
:1026E000AF93BF93EF93FF93F89481E080930A0236
:1026F000E0E6F0E080818068808380818F7B80834A
:1027000060E083E00E9493117894FF91EF91BF9174
:10271000AF919F918F917F916F915F914F913F9179
:102720002F910F900BBE0F900FBE0F901F9018951A
:102730001F920F920FB60F9211248F939F93AF9316
:10274000BF938091930990919409A0919509B091BC
:1027500096090196A11DB11D809393099093940948
:10276000A0939509B0939609BF91AF919F918F91D6
:102770000F900FBE0F901F9018951F920F920FB6DB
:102780000F9211248F939F93AF93BF9380919709DA
:1027900090919809A0919909B0919A090196A11D6B
:1027A000B11D8093970990939809A0939909B093CC
:1027B0009A09BF91AF919F918F910F900FBE0F908B
:1027C0001F9018958F929F92AF92BF92CF92DF92F7
:1027D000EF92FF920F931F93CF93DF932FB7F8944D
:1027E0008091930990919409A0919509B0919609CF
:1027F0002FBF9C01AD0160E070E080E090E001E05F
:102800000E94C91F4901D42FC52FB62FA72FF82F1B
:10281000E92F02E00E94C91F59016A017B018C0166
:1028200094014D2F5C2F6B2F7A2F8F2F9E2F0E949C
:10283000D81FE9E0AE2EB12CC12CD12CE12CF12C0B
:1028400000E010E00E946C1F952FB901842FDF91EA
:10285000CF911F910F91FF90EF90DF90CF90BF909D
:10286000AF909F908F9008958F929F92AF92BF925A
:10287000CF92DF92EF92FF924B015C0107C00E9462
:10288000E2136C157D058E059F0520F40E94E2136E
:102890006B017C010E94E2136C197D098E099F096E
:1028A000681579058A059B0550F3FF90EF90DF903E
:1028B000CF90BF90AF909F908F900895BC010497E8
:1028C00068F080E090E00E94F41D26E636E646EED1
:1028D0005FE30E94821E0E94C81D02C0660F771F20
:1028E0006150710961F06150710949F0FB01EE0F0F
:1028F000FF1F31978FB7F8943197F1F78FBF089585
:10290000789484B7877F84BF1092930910929409BA
:10291000109295091092960984B5826084BD84B5A1
:10292000816084BD85B5826085BD85B5816085BDCA
:10293000EEE6F0E0808181608083E1E8F0E0808174
:1029400082608083808181608083E0E8F0E0808124
:1029500081608083E1EBF0E0808184608083E1E945
:10296000F0E0808184608083E0EBF0E08081816032
:102970008083E0E9F0E0808181608083E4E6F0E03C
:1029800080818E7F8083ECE7F0E080818F77808389
:10299000808180648083EAE7F0E0808184608083C6
:1029A0008081826080838081806880831092C100F2
:1029B0001092C90008959091A503982B9093A503B8
:1029C00080FF32C0809164008E7F8093640080918C
:1029D0007C008F7780937C0080917C008064809362
:1029E0007C0080917A00846080937A0080917A00E4
:1029F000826080937A0080917A00806880937A0068
:102A0000809164008F7780936400809164008B7F55
:102A100080936400809164008D7F80936400809136
:102A200065008E7F809365000895282F20959091F2
:102A3000A50392239093A50380FF1EC080917A0086
:102A40008F7780937A008091640081608093640026
:102A50008091640080688093640080916400846049
:102A60008093640080916400826080936400809110
:102A700065008160809365000895F89480918D05CC
:102A800090918E0580FF18C086E20E94D911892B93
:102A900099F080918F058F5F80938F0580919005CD
:102AA000909191058160909391058093900580911C
:102AB00085058F5F8093850580918D0590918E05AA
:102AC00081FF18C087E20E94D911892B99F080916B
:102AD0008F058F5F80938F05809190059091910570
:102AE00082609093910580939005809186058F5F19
:102AF0008093860580918D0590918E0583FF1CC083
:102B000088E00E94D911892BB9F080918F058F5FE1
:102B100080938F0560E085E00E949311809190057D
:102B20009091910588609093910580939005809194
:102B300088058F5F8093880580918D0590918E0523
:102B400087FF18C08DE20E94D911892B99F08091DE
:102B50008F058F5F80938F058091900590919105EF
:102B60008068909391058093900580918B058F5F8D
:102B700080938B0580918D0590918E0590FF18C0F4
:102B800082E10E94D911892B99F080918F058F5F86
:102B900080938F058091900590919105916090931D
:102BA00091058093900580918C058F5F80938C05B3
:102BB00080918D0590918E0584FF18C089E00E9458
:102BC000D911892B99F480918F058F5F80938F05A0
:102BD00080919005909191058061909391058093EB
:102BE0009005809189058F5F809389057894089579
:102BF000E82FF0E0EE0FFF1FEA55FC4F7183608372
:102C0000823029F130F4882351F0813009F046C038
:102C100010C0833059F1843009F040C036C0E898C4
:102C2000809169008C7F842B80936900E09AE89AF8
:102C30000895E99880916900440F551F440F551F6E
:102C4000837F842B80936900E19AE99A0895EA983A
:102C50008091690024E0440F551F2A95E1F78F7C8D
:102C6000842B80936900E29AEA9A0895EB98809108
:102C7000690096E0440F551F9A95E1F78F73842BF6
:102C800080936900E39AEB9A0895EC9880916A002A
:102C90008C7F842B80936A00E49AEC9A0895F894D0
:102CA000883018F5833091F020F4813059F060F4C9
:102CB00007C0863079F0873079F0843071F408C02D
:102CC000E8980BC0E99809C0EA9807C0EB9805C0DE
:102CD000EC9803C0EE9801C0EF98E82FF0E0EE0FFB
:102CE000FF1FEA55FC4F11821082789408951F92BD
:102CF0000F920FB60F9211240BB60F922F933F93A2
:102D00004F935F936F937F938F939F93AF93BF93F3
:102D1000EF93FF938091A6039091A703892B29F04D
:102D2000E091A603F091A7030995FF91EF91BF9160
:102D3000AF919F918F917F916F915F914F913F9153
:102D40002F910F900BBE0F900FBE0F901F901895F4
:102D50001F920F920FB60F9211240BB60F922F9362
:102D60003F934F935F936F937F938F939F93AF9313
:102D7000BF93EF93FF938091A8039091A903892BB0
:102D800029F0E091A803F091A9030995FF91EF9133
:102D9000BF91AF919F918F917F916F915F914F9173
:102DA0003F912F910F900BBE0F900FBE0F901F9071
:102DB00018951F920F920FB60F9211240BB60F9217
:102DC0002F933F934F935F936F937F938F939F9333
:102DD000AF93BF93EF93FF938091AA039091AB03BE
:102DE000892B29F0E091AA03F091AB030995FF919B
:102DF000EF91BF91AF919F918F917F916F915F9173
:102E00004F913F912F910F900BBE0F900FBE0F90DF
:102E10001F9018951F920F920FB60F9211240BB6A8
:102E20000F922F933F934F935F936F937F938F9363
:102E30009F93AF93BF93EF93FF938091AC039091D7
:102E4000AD03892B29F0E091AC03F091AD03099516
:102E5000FF91EF91BF91AF919F918F917F916F9172
:102E60005F914F913F912F910F900BBE0F900FBE2E
:102E70000F901F9018951F920F920FB60F9211246A
:102E80000BB60F922F933F934F935F936F937F9364
:102E90008F939F93AF93BF93EF93FF938091AE0374
:102EA0009091AF03892B29F0E091AE03F091AF032D
:102EB0000995FF91EF91BF91AF919F918F917F9174
:102EC0006F915F914F913F912F910F900BBE0F909B
:102ED0000FBE0F901F9018951F920F920FB60F9272
:102EE00011240BB60F922F933F934F935F936F93E1
:102EF0007F938F939F93AF93BF93EF93FF938091B3
:102F0000B0039091B103892B29F0E091B003F091C7
:102F1000B1030995FF91EF91BF91AF919F918F916F
:102F20007F916F915F914F913F912F910F900BBEC9
:102F30000F900FBE0F901F9018951F920F920FB613
:102F40000F9211240BB60F922F933F934F935F93E1
:102F50006F937F938F939F93AF93BF93EF93FF9361
:102F60008091B2039091B303892B29F0E091B203D1
:102F7000F091B3030995FF91EF91BF91AF919F91AC
:102F80008F917F916F915F914F913F912F910F9012
:102F90000BBE0F900FBE0F901F9018951F920F92AF
:102FA0000FB60F9211240BB60F922F933F934F93AE
:102FB0005F936F937F938F939F93AF93BF93EF93A1
:102FC000FF938091B4039091B503892B29F0E09190
:102FD000B403F091B5030995FF91EF91BF91AF91C3
:102FE0009F918F917F916F915F914F913F912F9121
:102FF0000F900BBE0F900FBE0F901F901895CF92A1
:10300000DF92EF92FF926B017C0180918D05909190
:103010008E058C299D2990938E0580938D05C0FE89
:103020000FC060E08BE20E947A1160E086E20E94AD
:103030007A1143E050E06DE375E182E00E94F815FB
:10304000C1FE0FC060E08BE20E947A1160E087E26F
:103050000E947A1143E050E06DE375E182E00E9446
:10306000F815C2FE0FC061E083E00E947A1161E0B2
:1030700083E00E94931142E050E06DED78E184E03E
:103080000E94F815C3FE0FC060E08BE20E947A1127
:1030900060E088E00E947A1143E050E06DE375E162
:1030A00082E00E94F815C4FE0BC060E08BE20E9433
:1030B0007A1143E050E06DE375E182E00E94F8157B
:1030C000C6FE0FC060E084E00E947A1160E08CE2EE
:1030D0000E947A1142E050E06DED78E183E00E94B9
:1030E000F815C7FE0FC060E08DE20E947A1160E023
:1030F0008BE20E947A1143E050E06DE375E182E0DB
:103100000E94F815D0FE13C060E08BE20E947A1195
:1031100060E082E10E947A1143E050E06DE375E1E6
:1031200082E0FF90EF90DF90CF900C94F815FF9025
:10313000EF90DF90CF900895CF92DF92EF92FF92C1
:103140006B017C01F89460FF03C082E00E944F167F
:10315000C1FE03C082E00E944F16C2FE03C084E09D
:103160000E944F16C3FE03C082E00E944F16C4FEA9
:1031700003C082E00E944F16C7FE03C082E00E9497
:103180004F16D0FE03C082E00E944F16C6FE03C059
:1031900083E00E944F1680918D0590918E05C0941A
:1031A000D094C822D922D0928E05C0928D057894F1
:1031B000FF90EF90DF90CF900895F89480918D0567
:1031C00090918E0586FF1EC084E00E94D911892B44
:1031D000C9F480918F058F5F80938F058091900552
:1031E00090919105806490939105809390058091D2
:1031F0008A058F5F80938A0560E470E080E090E04C
:103200000E949C1880918D0590918E0582FF1CC0B4
:1032100083E00E94D911892BB9F480918F058F5FCB
:1032200080938F0580919005909191058460909393
:10323000910580939005809187058F5F8093870526
:1032400061E083E00E94931178940895CF92DF9219
:10325000EF92FF921F93CF93DF93EC0160E08E8596
:103260000E947A110E94E2136B017C011EE711504B
:1032700089F182E090E00E945E140E94E2136C15D6
:103280007D058E059F0520F40E94E2136B017C01F1
:103290008E850E94D911892BF9F40E94E2136C19D2
:1032A0007D098E099F09643F714081059105F8F2FF
:1032B00013C00E94E2136B017C011130C1F10E9426
:1032C000E2136C197D098E099F09643F71408105E5
:1032D0009105D0F010E02BC061E08E850E947A113C
:1032E00060E08E850E94931184E591E00E945E1457
:1032F0000E94E2136B017C018E850E94D91111E0BE
:10330000892BD9F210E0D9CF8E850E94D91111E016
:10331000892B09F010E089E090E00E945E140E9481
:10332000E2136C157D058E059F0538F6C2CF812FFF
:10333000DF91CF911F91FF90EF90DF90CF90089594
:103340001F93CF93DF93FC011081C181D281912F14
:103350009095F8948A8189238A838981812B898336
:1033600060FF0BC089E090E00E945E148A81812B8F
:103370008A8378948FE290E00AC087E390E00E940D
:103380005E148A81812B8A83789485E090E0DF91B6
:10339000CF911F910C945E140F931F93CF93DF93E3
:1033A000FC011081C181D281F8948981812B8983AC
:1033B0008A81012F009580238A8382E090E00E9419
:1033C0005E1489818023898387E090E00E945E14E7
:1033D000C88178948DE290E00E945E141C2381E005
:1033E00009F480E0DF91CF911F910F910895CF9262
:1033F000DF92EF92FF920F931F93CF93DF931F9271
:10340000CDB7DEB76C01E62E08E010E0FF24F394A0
:103410009F2D9E2161E009F460E0C60149830E946E
:10342000A019FF0C0150110949810115110581F7FF
:10343000411115C0F894D6011196ED91FC911297A7
:1034400091818C918095892381831196ED91FC91D6
:10345000129792818C9180958923828378940F9022
:10346000DF91CF911F910F91FF90EF90DF90CF9060
:103470000895FC011386158614861286118610861F
:10348000178216821582148213820895CF93DF93D8
:10349000EC01862F6E8760E00E947A118E8590E0A5
:1034A000FC01E25BFC4FE491E883FC01EF57FC4F29
:1034B000E491F0E0EC54FC4FE491E9831A82CE01F0
:1034C000DF91CF910C94391AFC019B0181818430EA
:1034D00051F0883061F0823081F484E07695679510
:1034E0008A95E1F70CC0CB016FE170E003C0CB011E
:1034F0006FE370E00E94041F02C086810895862F4A
:1035000066833087278308951F93CF93DF93EC0161
:10351000162F8A818E7F8A8369E170E088EB92E0C2
:103520000E94100A612F88EB92E00E94100B88EB3A
:1035300092E00E943E0B41E050E069E170E088EBD0
:1035400092E00E94780B88EB92E00E94120A882396
:1035500039F088EB92E00E94180A282F30E005C06D
:103560008A8181608A832FEF3FEFC901DF91CF917C
:103570001F9108950F931F93CF93DF93EC01162FA4
:10358000042F8A818D7F8A8369E170E088EB92E065
:103590000E94100A612F88EB92E00E94100B602FAE
:1035A00088EB92E00E94100B88EB92E00E943E0BA9
:1035B000612FCE010E94841A402F50E08417950796
:1035C00029F08A8182608A8380E001C081E0DF91F6
:1035D000CF911F910F910895CF93DF93EC0140E0BD
:1035E00062E20E94BA1A61E3CE010E94841A61E08D
:1035F00070E080E090E00E949C181D828A81DF913B
:10360000CF910895CF93DF93EC010E94EC1A44E030
:1036100062E2CE010E94BA1A41E262E3CE010E9448
:10362000BA1A40E063E3CE010E94BA1A4FEF60E39A
:10363000CE010E94BA1A61E070E080E090E00E9442
:10364000FF1784E08D838A81DF91CF910895CF9316
:10365000DF93EC0140E062E20E94BA1A61E3CE011E
:103660000E94841A61E070E080E090E00E949C1863
:103670001D828A81DF91CF910895CF93DF93EC0172
:103680000E94271B44E062E2CE010E94BA1A40E386
:1036900062E3CE010E94BA1A40E063E3CE010E94C9
:1036A000BA1A4FE760E3CE010E94BA1A61E070E0F7
:1036B00080E090E00E94FF1783E08D838A81DF9194
:1036C000CF910895CF93DF93EC0140E062E20E9436
:1036D000BA1A61E3CE010E94841A61E070E080E0D2
:1036E00090E00E949C181D828A81DF91CF910895FD
:1036F0000F931F93CF93DF93EC018B010E94621B0A
:1037000040E062E2CE010E94BA1AB801CE010E94E6
:10371000641A482F62E3CE010E94BA1A40E063E3C4
:10372000CE010E94BA1A44E061E2CE010E94BA1AA8
:103730004AE260E3CE010E94BA1A61E070E080E0E4
:1037400090E00E94FF1782E08D838A81DF91CF9104
:103750001F910F910895FC01678170850C94781B6F
:10376000CF93DF93EC0140E062E20E94BA1A61E37A
:10377000CE010E94841A61E070E080E090E00E9437
:103780009C181D828A81DF91CF9108951F93CF935A
:10379000DF93EC01162F68836430E1F030F462307F
:1037A00081F0B0F4613021F506C06630B9F0A0F0C8
:1037B0006730F1F415C047E260E20E94BA1A1C8338
:1037C00005C040E060E20E94BA1A1C8281E011C08C
:1037D00047E407C047E605C047E803C047EA01C021
:1037E00047EC60E2CE010E94BA1A81E08C8301C0EE
:1037F00080E0DF91CF911F910895CF93DF93EC018B
:1038000040E861E20E94BA1A61E070E080E090E076
:103810000E94341440E061E2CE01DF91CF910C941C
:10382000BA1A0F931F93CF93DF93EC018B010E9481
:10383000FD1B64E670E080E090E00E943414CE014D
:103840000E94B01B40E061E2CE010E94BA1A44E03F
:1038500062E2CE010E94BA1AB801CE010E94641A37
:10386000482F62E3CE010E94BA1A43E063E3CE011F
:103870000E94BA1A45E960E3CE010E94BA1A81E0BB
:103880008D8361E070E080E090E00E94FF178A8104
:10389000DF91CF911F910F910895FC016781708591
:1038A0000C94111C1F93CF93DF93EC01162F809182
:1038B000BE02811104C088EB92E00E94E30981E01E
:1038C000888361E0CE010E94C61B1983143031F059
:1038D000183031F0123049F440E003C040E101C03B
:1038E00040E363E2CE010E94BA1A61E08BE20E94DB
:1038F0007A1160E08BE2DF91CF911F910C949311CC
:10390000FC0161810C94521C1092BB0382E08093F5
:10391000B7038CE18093BC0380EC91E09093BE03ED
:103920008093BD030895FC01128A118E138EDC0171
:10393000A356BE4F89E111968C93119714961C9251
:10394000DF01AE55BE4F1C9212961C92E956FE4FF7
:103950001182108208958FEB93E00C94931C61E028
:103960008EE10E947A1161E08FE10E947A1161E09C
:103970008DE10E947A1160E08EE10E94931160E077
:103980008FE10E94931161E08DE10E9493118CB54B
:1039900080618CBD8CB580648CBD08958CB58F7BA7
:1039A0008CBD0895811103C08CB5806202C08CB5B6
:1039B0008F7D8CBD08959CB5937F982B9CBD0895F9
:1039C0002CB5982F93702C7F922B9CBD9DB580FBBE
:1039D00090F99DBD0895CF93C62F61E08DE10E94BF
:1039E0007A1161E082E20E947A1161E08DE10E9429
:1039F000931161E082E20E94931180918105909180
:103A00008205A0918305B0918405A2FF08C061E002
:103A100088E00E947A1161E088E00E949311809111
:103A2000810590918205A0918305B091840596FF50
:103A300008C061E089E00E947A1161E089E00E949B
:103A400093118091810590918205A0918305B09199
:103A50008405A3FF08C061E082E00E947A1161E062
:103A600082E00E9493118091810590918205A0913E
:103A70008305B0918405A4FF08C061E082E20E9442
:103A80007A1161E082E20E949311C330C9F020F400
:103A9000C13061F070F407C0C53061F1F0F0C6309C
:103AA00009F067C033C060E08DE160C060E082E291
:103AB0005DC087EB92E00E94870860E08CE256C010
:103AC0008091810590918205A0918305B091840534
:103AD000A2FF4FC060E088E049C0809181059091CD
:103AE0008205A0918305B091840596FF42C060E0F5
:103AF00089E03CC08091810590918205A091830569
:103B0000B0918405A3FF35C060E02FC061E08DE176
:103B10000E94931161E082E20E94931180918105DD
:103B200090918205A0918305B0918405A2FF04C005
:103B300061E088E00E949311809181059091820557
:103B4000A0918305B091840596FF04C061E089E0EF
:103B50000E9493118091810590918205A091830527
:103B6000B0918405A3FF05C061E082E0CF910C9481
:103B70009311CF91089510927C0510927B051092BD
:103B80007D0510927E0510927F05109280050895A4
:103B900098D088F09F5790F0B92F9927B751A0F08F
:103BA000D1F0660F771F881F991F1AF0BA95C9F7D1
:103BB00012C0B13081F09FD0B1E008959CC0672F52
:103BC000782F8827B85F39F0B93FCCF38695779581
:103BD0006795B395D9F73EF490958095709561956A
:103BE0007F4F8F4F9F4F0895E89409C097FB3EF495
:103BF00090958095709561957F4F8F4F9F4F99233A
:103C0000A9F0F92F96E9BB279395F69587957795B7
:103C10006795B795F111F8CFFAF4BB0F11F460FF77
:103C20001BC06F5F7F4F8F4F9F4F16C0882311F0CF
:103C300096E911C0772321F09EE8872F762F05C0E3
:103C4000662371F096E8862F70E060E02AF09A957E
:103C5000660F771F881FDAF7880F9695879597F973
:103C6000089597F99F6780E870E060E008959FEFFE
:103C700080EC089500240A94161617061806090603
:103C8000089500240A9412161306140605060895D2
:103C9000092E0394000C11F4882352F0BB0F40F45A
:103CA000BF2B11F460FF04C06F5F7F4F8F4F9F4F9A
:103CB000089557FD9058440F551F59F05F3F71F01C
:103CC0004795880F97FB991F61F09F3F79F0879583
:103CD0000895121613061406551FF2CF4695F1DF0C
:103CE00008C0161617061806991FF1CF869571059C
:103CF000610508940895E894BB2766277727CB01D0
:103D000097F908950BD0C4CFB5DF28F0BADF18F0CB
:103D1000952309F0A6CFABCF1124EECFCADFA0F3D5
:103D2000959FD1F3950F50E0551F629FF001729F50
:103D3000BB27F00DB11D639FAA27F00DB11DAA1F6F
:103D4000649F6627B00DA11D661F829F2227B00DBC
:103D5000A11D621F739FB00DA11D621F839FA00D47
:103D6000611D221F749F3327A00D611D231F849F97
:103D7000600D211D822F762F6A2F11249F575040EE
:103D80008AF0E1F088234AF0EE0FFF1FBB1F661F89
:103D9000771F881F91505040A9F79E3F510570F042
:103DA00060CFAACF5F3FECF3983EDCF38695779522
:103DB0006795B795F795E7959F5FC1F7FE2B880F3D
:103DC000911D9695879597F90895A29FB001B39F8D
:103DD000C001A39F01D0B29F700D811D1124911DC0
:103DE00008950E94E51EA59F900DB49F900DA49F7D
:103DF000800D911D11240895B7FF0C94F11E0E94AF
:103E0000F11E821B930B0895AA1BBB1B51E107C037
:103E1000AA1FBB1FA617B70710F0A61BB70B881F5A
:103E2000991F5A95A9F780959095BC01CD010895E9
:103E300097FB072E16F4009407D077FD09D00E9457
:103E4000041F07FC05D03EF4909581959F4F08957F
:103E5000709561957F4F0895A1E21A2EAA1BBB1B96
:103E6000FD010DC0AA1FBB1FEE1FFF1FA217B30746
:103E7000E407F50720F0A21BB30BE40BF50B661F5C
:103E8000771F881F991F1A9469F760957095809520
:103E900090959B01AC01BD01CF010895052E97FBC4
:103EA00016F4009407D057FD0DD00E942C1F07FC7C
:103EB00009D07EF490958095709561957F4F8F4FD6
:103EC0009F4F089550954095309521953F4F4F4F06
:103ED0005F4F0895689401C0E8948F929F92CF93AA
:103EE000DF930E94781FDF91CF919F908F9008956C
:103EF00088249924F401E401B0E49F93AA279A1539
:103F00008B049C04ED05FE05CF05D007A10798F4AE
:103F1000AD2FDC2FCF2FFE2FE92D982C892E982F37
:103F2000872F762F652F542F432F322F2227B850FB
:103F300031F7BF9127C01B2EBF91BB27220F331F24
:103F4000441F551F661F771F881F991F881C991CC7
:103F5000EE1FFF1FCC1FDD1FAA1FBB1F8A149B046F
:103F6000EC05FD05CE05DF05A007B10748F08A186E
:103F70009B08EC09FD09CE09DF09A00BB10B2160FC
:103F80001A94E1F62EF49401AF01BE01CD01000CAC
:103F900008950F930F7351F0220F331F441F551FC5
:103FA000661F771F881F991F0A95B1F70F91089513
:103FB0002A0D3B1D4C1D5D1D6E1D7F1D801F911F19
:103FC00008950790F691E02D09948F929F92AF92F9
:103FD000BF92CF92DF92EF92FF92CF93DF93EC01EB
:103FE000688179818A819B816115710581059105BF
:103FF00021F464E279ED8BE597E02DE133EF41E0C8
:1040000050E00E944E1F49015A019B01AC01A7EAF2
:10401000B1E40E94F11E6B017C01ACEEB4EFA5018E
:1040200094010E94FF1EC60ED71EE81EF91EF7FE61
:1040300006C081E0C81AD108E10880E8F80AC88201
:10404000D982EA82FB82E894D7F8EE24FF24C601E5
:10405000DF91CF91FF90EF90DF90CF90BF90AF9026
:104060009F908F9008950C94E51F86E092E00C9449
:10407000E51FA0E0B0E08093060290930702A093B2
:104080000802B09309020895FB01DC0105900D922E
:104090000020E1F70895FB01DC010D900020E9F715
:1040A000119701900D920020E1F708950F931F934F
:1040B000CF93DF93CDB7DEB72E970FB6F894DEBF60
:1040C0000FBECDBF0D891E898F89988D26E02C8368
:1040D0001A83098397FF02C080E090E801979E83CE
:1040E0008D83CE014B96AC01698D7A8DCE01019600
:1040F0000E9493204D815E8157FD0AC02F81388533
:10410000421753070CF49A01F801E20FF31F1082D3
:104110002E960FB6F894DEBF0FBECDBFDF91CF91C4
:104120001F910F9108952F923F924F925F926F923D
:104130007F928F929F92AF92BF92CF92DF92EF9237
:10414000FF920F931F93CF93DF93CDB7DEB72C97DA
:104150000FB6F894DEBF0FBECDBF7C016B018A01A4
:10416000FC0117821682838181FFC6C18824839453
:10417000912C8C0E9D1EF7019381F60193FD859184
:1041800093FF81916F01882309F4B2C1853239F41C
:1041900093FD859193FF81916F01853229F4B701D9
:1041A00090E00E94CA22E7CF512C312C20E020322F
:1041B000A8F48B3261F028F4803251F0833271F42C
:1041C0000BC08D3239F0803349F4216028C0226061
:1041D000246025C0286023C0206121C027FD27C09E
:1041E000382F30533A3078F426FF06C0FAE05F9E4D
:1041F000300D1124532E13C08AE0389E300D112447
:10420000332E20620CC08E3221F426FD71C1206451
:1042100006C08C3611F4206802C0883641F4F601DD
:1042200093FD859193FF81916F018111C0CF982FEC
:104230009554933018F09052933028F40C5F1F4F30
:10424000FFE3F9830DC0833631F0833771F0833596
:1042500009F05EC023C0F801808189830E5F1F4F83
:1042600044244394512C540115C03801F2E06F0EE0
:10427000711CF801A080B18026FF03C0652D70E09D
:1042800002C06FEF7FEFC5012C870E94BF222C0177
:1042900083012C856FE7262E222218C03801F2E018
:1042A0006F0E711CF801A080B18026FF03C0652D40
:1042B00070E002C06FEF7FEFC5012C870E94B4222F
:1042C0002C012C8550E8252E222A830123FC1CC0BA
:1042D00006C0B70180E290E00E94CA223A94832D82
:1042E00090E048165906A8F30FC0F50127FC859108
:1042F00027FE81915F01B70190E00E94CA22311030
:104300003A94F1E04F1A51084114510471F7EDC08D
:10431000843611F0893641F5F80127FF07C0608126
:104320007181828193810C5F1F4F08C06081718110
:10433000882777FD8095982F0E5F1F4F4FE6B42E8C
:10434000B22297FF09C090958095709561957F4F37
:104350008F4F9F4FF0E8BF2A2AE030E0A4010E946F
:10436000F622A82EA81843C0853731F43FEEB32EAD
:10437000B2222AE030E024C099EFB92EB2228F3663
:10438000B9F020F4883509F0B3C00DC0803721F0B2
:10439000883709F0ADC002C020E1B22AB4FE0BC0DC
:1043A00084E0B82A08C024FF09C0E6E0BE2A06C09F
:1043B00028E030E005C020E130E002C020E132E03A
:1043C000F801B7FE07C060817181828193810C5F23
:1043D0001F4F06C06081718180E090E00E5F1F4F2B
:1043E000A4010E94F622A82EA818FFE7BF22B6FE5D
:1043F0000BC02B2D2E7FA51450F4B4FE0AC0B2FCC6
:1044000008C02B2D2E7E05C07A2C2B2D03C07A2CB4
:1044100001C0752C24FF0DC0FE01EA0DF11D808145
:10442000803311F4297E09C022FF06C0739473946F
:1044300004C0822F867809F0739423FD14C020FFF6
:104440000FC05A2C731460F4530C5718732C08C007
:10445000B70180E290E02C870E94CA2273942C85D9
:104460007314B0F304C0731410F4371801C0312C66
:1044700024FF12C0B70180E390E02C870E94CA227B
:104480002C8522FF1EC021FF03C088E590E002C0FA
:1044900088E790E0B7010CC0822F867891F021FD6B
:1044A00002C080E201C08BE227FD8DE2B70190E0FF
:1044B0000E94CA2206C0B70180E390E00E94CA228F
:1044C0005A94A514C0F3AA94F401EA0DF11DB701A2
:1044D000808190E00E94CA22A110F5CF06C0B701EA
:1044E00080E290E00E94CA223A943110F8CF43CE85
:1044F000F7012681378102C02FEF3FEFC9012C96CB
:104500000FB6F894DEBF0FBECDBFDF91CF911F91E4
:104510000F91FF90EF90DF90CF90BF90AF909F9062
:104520008F907F906F905F904F903F902F90089565
:10453000F999FECF92BD81BDF89A992780B508956B
:10454000A6E1B0E044E050E00C945623262FF99900
:10455000FECF1FBA92BD81BD20BD0FB6F894FA9A66
:10456000F99A0FBE01960895FC01059061507040C4
:104570000110D8F7809590958E0F9F1F0895FC012C
:104580006150704001900110D8F7809590958E0F82
:104590009F1F08950F931F93CF93DF938C01EB011F
:1045A0008B8181FD03C00FEF1FEF1AC082FF0DC08A
:1045B0002E813F818C819D812817390764F4E88121
:1045C000F9810193F983E88306C0E885F985802F96
:1045D0000995892B41F78E819F8101969F838E8358
:1045E000C801DF91CF911F910F910895FA01AA2779
:1045F000283051F1203181F1E8946F936E7F6E5F26
:104600007F4F8F4F9F4FAF4FB1E03ED0B4E03CD0D3
:10461000670F781F891F9A1FA11D680F791F8A1FB6
:10462000911DA11D6A0F711D811D911DA11D20D01D
:1046300009F468943F912AE0269F11243019305DD7
:104640003193DEF6CF010895462F4770405D4193C8
:10465000B3E00FD0C9F7F6CF462F4F70405D4A3315
:1046600018F0495D31FD4052419302D0A9F7EACFDD
:10467000B4E0A6959795879577956795BA95C9F70C
:1046800000976105710508959B01AC010A2E0694FF
:104690005795479537952795BA95C9F7620F731FB8
:1046A000841F951FA01D0895DC01CB01FC01F99921
:1046B000FECF06C0F2BDE1BDF89A319600B40D926E
:0C46C00041505040B8F70895F894FFCF27
:1046CC0000009B092000010000000153756E004D95
:1046DC006F6E00547565005765640054687500462C
:1046EC0072690053617400496E76616C696420478D
:1046FC004D542076616C7565003A3A3A3A3A3A0074
:00000001FF
