:100000000C9409020C94B4060C94E5060C941607A3
:100010000C9447070C9478070C94A9070C94DA0702
:100020000C940B080C9438020C9438020C9438028F
:100030000C946E1B0C9438020C9438020C94CA1B5E
:100040000C9438020C9438020C9438020C94380248
:100050000C9438020C9438020C9438020C94A51BB2
:100060000C9438020C94EB1A0C9438020C9438025D
:100070000C9438020C9438020C9438020C94380218
:100080000C9438020C9438020C9438020C94380208
:100090000C94261B0C9438020C9438020C944A04DD
:1000A0000C9438020C9438020C9438020C943802E8
:1000B0000C9438020C9438020C9438020C943802D8
:1000C0000C9438020C9438020C9438025057525F4A
:1000D00032206578616D706C6500656E74657220A4
:1000E0006465657020736C656570000A77616B6587
:1000F000207570002D2D2D2D2D2D2D2D2D2D2D2DDF
:100100002D2D2D2D2D2D2D2D2D0052544320494EBA
:1001100054206361707475726564002D2D2D2D2D32
:100120002D2D2D2D2D2D2D2D2D2D2D2D2D2D2D2DFF
:100130000082019601BC01E30103021B022902397E
:10014000024E026402750281028802A502C302D92E
:1001500002E702F7021A03200357726F6E672074DA
:10016000696D6520666F726D61742E204D757374B4
:10017000206265202264643A68683A6D6D3A737350
:100180002200416C61726D204D6F6465206D617459
:100190006368657320005B446179203A20686F755D
:1001A0007273203A206D696E75746573203A2073FE
:1001B00065636F6E64735D202D3E20005B44617447
:1001C00065203A20686F757273203A206D696E75EC
:1001D000746573203A207365636F6E64735D202DC0
:1001E0003E20005B486F757273203A206D696E7512
:1001F000746573203A207365636F6E64735D202DA0
:100200003E20005B4D696E75746573203A207365FE
:10021000636F6E64735D202D3E20005B5365636FDA
:100220006E64735D202D3E20004F6E636520706507
:1002300072207365636F6E6400496E636F727265DE
:10024000637420616C61726D206D6F6465005B2565
:100250003032753A253032753A253032753A2530CC
:1002600032755D005B253032753A253032753A259E
:100270003032755D005B253032753A253032755D60
:10028000005B253032755D005B446179203A20685F
:100290006F757273203A206D696E75746573205D99
:1002A000202D3E20005B44617465203A20686F7504
:1002B0007273203A206D696E75746573205D202D10
:1002C0003E20005B486F757273203A206D696E7531
:1002D0007465735D202D3E20005B4D696E757465FD
:1002E000735D202D3E20004F6E6365207065722087
:1002F0006D696E7574650025732C20253032752F5D
:10030000253032752F253032752C20253032753A44
:10031000253032753A25303275006572726F720081
:1003200025303275256325303275256325303275C9
:1003300025632530327525632530327525632530D8
:100340003275256325303275000000080900000071
:10035000000000000000000000000000000000009D
:10036000000000000000000000000000000000008D
:100370000000000000000000000000000102081062
:100380001020408004081020400202040810204081
:100390008001028020400420010102040810200195
:1003A0004080408001020804088004100402010516
:1003B0000505050303030301010104040306060602
:1003C00006060606060104050105010302020202F3
:1003D00002020102020505040403040401030407E8
:1003E000070700202326292C2F32002225282B2E18
:1003F0003134002124272A2D30336364696E6F70F5
:10040000737578585B00B20CF30F8318A820CF20C7
:10041000DF2111241FBECFEFD1E2DEBFCDBF12E03E
:10042000A0E0B2E0EEE3F6E500E00BBF02C007900B
:100430000D92A236B107D9F719E0A2E6B2E001C0E9
:100440001D92AD3BB107E1F714E0C2E1D4E000E05A
:1004500006C022970109FE010BBF0E941124C6307D
:10046000D10780E00807A9F70E9488180C941D2B7B
:100470000C94000084EE92E00E94E80B6CEC70E0BB
:1004800084EE92E00E94940C88E393E00E94B714FB
:100490006BE072E088E393E00C947D150F936AEDB6
:1004A00070E084EE92E00E94940C68E070E080E0DE
:1004B00090E00E94D90840E060E082EE92E00E9465
:1004C000630900E020E040E060E272E082EE92E04A
:1004D0000E942F0B84EE92E00E94E80B6BEE70E01E
:1004E00084EE92E00E94940C8091B2059091B30545
:1004F00081FF2DC064EF70E084EE92E00E94940CC6
:100500006AE071E084EE92E00E94940C6BE171E08D
:1005100084EE92E00E94940C6CE271E089EE92E02D
:100520000E94D50C6CE271E089EE92E00E94D50C3D
:100530006CE271E089EE92E00E94D50C8091B205E8
:100540009091B3058D7F9093B3058093B2050F9181
:10055000089510926B02E4E6F0E080818F7780834B
:10056000589A599AE9EBF0E080818E7F80838081F0
:100570008D7F808381E48093B80085E48093BC0004
:1005800080E2ECE6F2E0DF01982F1D929A95E9F700
:10059000ECE8F2E0DF01982F1D929A95E9F7ECEA7A
:1005A000F2E0DF011D928A95E9F70895613298F42F
:1005B00020916B02243089F460936802FC018CE87E
:1005C00092E0DC0102C021912D932A2F281B2617CF
:1005D000D0F380E0089581E0089582E0089585ECED
:1005E0008093BC0010926B0208955898599880919E
:1005F000B90081608093B9008091B90082608093D6
:10060000B9008091BC0080688093BC008091BC00E0
:1006100080618093BC008091BC008F7B8093BC0084
:100620008091BC008F7D8093BC008091BC00877F4F
:100630008093BC008091A3059091A405A091A5058D
:10064000B091A60586FD14C08091A3059091A405E4
:10065000A091A505B091A60590FD0AC08091A305C3
:100660009091A405A091A505B091A60593FF04C0A3
:100670008091BC008B7F03C08091BC00846080931C
:10068000BC008091BC008E7F8093BC008091640090
:100690008068809364000895882349F01092620274
:1006A00010926302109264021092650213C080914E
:1006B000620290916302A0916402B091650201967A
:1006C000A11DB11D8093620290936302A093640206
:1006D000B09365028091620290916302A0916402DE
:1006E000B0916502803A9648A140B10560F0109241
:1006F00062021092630210926402109265020E94DC
:10070000A90281E0089580E0089585ED8093BC0002
:1007100081E00E944C0308C080E00E944C038823C3
:1007200019F010926B0208958091BC0084FDF4CF03
:10073000F8CFFF920F931F93CF93DF93182F062FBD
:10074000F72EC42FD22F81E0413208F051C00E9411
:100750004C0315C080E00E944C03882381F082E0A6
:1007600080936B028FEF8093660210926A02C093AF
:10077000CC02E02FFF2D6CE672E0DB0107C0809118
:100780006B028111E7CFEBCF81918D938A2F861B6E
:100790008C17D0F3812F90E0880F991F8093CD02A2
:1007A00085EE8093BC0081E00E944C03D11105C00E
:1007B000809166028F3F59F414C080916B028230A1
:1007C000B9F780E00E944C0381110DC0F6CF8091F3
:1007D0006602803251F080916602803341F483E0FA
:1007E00007C080E005C085E003C082E001C084E06E
:1007F000DF91CF911F910F91FF9008950F931F9359
:10080000CF93DF93082FD62F172FC42F81E04132CB
:10081000E0F50E944C031DC080E00E944C03882339
:10082000C1F081E080936B028FEF8093660210929B
:100830006A02C093CC02802F90E0880F991F8160DC
:100840008093CD0285EE8093BC0081E00E944C0332
:1008500010C080916B028111DFCFE3CF80E00E9456
:100860004C03882331F08CE692E0ED2FF12FDC0170
:1008700007C080916B02813089F3F5CF2D912193D0
:100880002A2F281B2C17D0F380E0DF91CF911F91E6
:100890000F9108951F920F920FB60F9211240BB66D
:1008A0000F922F933F934F935F936F937F938F9309
:1008B0009F93AF93BF93CF93EF93FF93C091B900F2
:1008C000C87FC03609F49FC058F5C83209F45BC030
:1008D00090F4C03109F452C038F4CC2309F4F2C0CA
:1008E000C83009F0F3C04AC0C83109F44CC0C03266
:1008F00009F0ECC05DC0C03409F473C038F4C033F3
:1009000009F45BC0C83309F0E1C05AC0C03509F42E
:100910005CC0C83509F46AC0C83409F0D7C0D4C077
:10092000C83909F4C5C0A8F4C83709F46CC038F454
:10093000C83609F468C0C03709F0C8C064C0C838F8
:1009400009F4B6C0C03909F464C0C03809F0BEC0AB
:1009500060C0C03B09F484C038F4C03A09F46BC0ED
:10096000C83A09F0B3C07CC0C03C09F4A5C0C83C7B
:1009700009F4A2C0C83B09F0A9C087C08091CD028C
:100980008093BB0013C090916A028091CC029817AB
:1009900008F09AC080916A02E82FF0E0E459FD4F18
:1009A00090819093BB008F5F80936A0285EC81C039
:1009B0000E948503C093660289C0C093660284C00A
:1009C000C09366020E94EF0281C080916A029091FA
:1009D000BB00E82FF0E0E459FD4F90838F5F8093D8
:1009E0006A0290916A028091CC025FC080916A0293
:1009F0009091BB00E82FF0E0E459FD4F90838F5FAA
:100A000080936A0261C083E080936B021092670258
:100A1000CDCF80916702803208F04AC08091670292
:100A20009091BB00E82FF0E0E455FD4F90838F5F7D
:100A300080936702BBCF80916702803230F4E091EF
:100A40006702F0E0E455FD4F108260916702E0918B
:100A5000CE02F091CF0270E08CEA92E009952CC0B2
:100A600084E080936B021092690210926802E09118
:100A7000D002F091D102099580916802811105C0E0
:100A800081E08093680210928C0280916902E82FC5
:100A9000F0E0E457FD4F90819093BB008F5F80930F
:100AA00069029091690280916802981708F47ECFDC
:100AB00085E88093BC000AC085EC8093BC0010924E
:100AC0006B0204C0109266020E948503FF91EF91B1
:100AD000CF91BF91AF919F918F917F916F915F91D6
:100AE0004F913F912F910F900BBE0F900FBE0F9023
:100AF0001F901895F8948091AF059091B00580FFF4
:100B000018C086E20E94031A892B99F08091B105E2
:100B10008F5F8093B1058091B2059091B30581609C
:100B20009093B3058093B2058091A7058F5F809362
:100B3000A7058091AF059091B00581FF18C087E2AD
:100B40000E94031A892B99F08091B1058F5F8093E1
:100B5000B1058091B2059091B30582609093B30581
:100B60008093B2058091A8058F5F8093A80580913E
:100B7000AF059091B00583FF1CC088E00E94031A66
:100B8000892BB9F08091B1058F5F8093B10560E04A
:100B900085E00E94BD198091B2059091B3058860EF
:100BA0009093B3058093B2058091AA058F5F8093DF
:100BB000AA058091AF059091B00587FF18C08DE21E
:100BC0000E94031A892B99F08091B1058F5F809361
:100BD000B1058091B2059091B30580689093B305FB
:100BE0008093B2058091AD058F5F8093AD058091B4
:100BF000AF059091B00590FF18C082E10E94031AE2
:100C0000892B99F08091B1058F5F8093B105809118
:100C1000B2059091B30591609093B3058093B205AE
:100C20008091AE058F5F8093AE058091AF05909166
:100C3000B00584FF18C089E00E94031A892B99F43B
:100C40008091B1058F5F8093B1058091B20590913D
:100C5000B30580619093B3058093B2058091AB0595
:100C60008F5F8093AB0578940895E82FF0E0EE0F46
:100C7000FF1FEE52FD4F71836083823029F130F403
:100C8000882351F0813009F046C010C0833059F1FB
:100C9000843009F040C036C0E898809169008C7FAC
:100CA000842B80936900E09AE89A0895E9988091EE
:100CB0006900440F551F440F551F837F842B809379
:100CC0006900E19AE99A0895EA988091690024E020
:100CD000440F551F2A95E1F78F7C842B8093690080
:100CE000E29AEA9A0895EB988091690096E0440FA1
:100CF000551F9A95E1F78F73842B80936900E39ACF
:100D0000EB9A0895EC9880916A008C7F842B8093F5
:100D10006A00E49AEC9A0895F894883018F58330C4
:100D200091F020F4813059F060F407C0863079F0FA
:100D3000873079F0843071F408C0E8980BC0E998E6
:100D400009C0EA9807C0EB9805C0EC9803C0EE987C
:100D500001C0EF98E82FF0E0EE0FFF1FEE52FD4FBD
:100D600011821082789408951F920F920FB60F92FD
:100D700011240BB60F922F933F934F935F936F9372
:100D80007F938F939F93AF93BF93EF93FF93809144
:100D9000D2029091D302892B29F0E091D202F091F6
:100DA000D3020995FF91EF91BF91AF919F918F91E0
:100DB0007F916F915F914F913F912F910F900BBE5B
:100DC0000F900FBE0F901F9018951F920F920FB6A5
:100DD0000F9211240BB60F922F933F934F935F9373
:100DE0006F937F938F939F93AF93BF93EF93FF93F3
:100DF0008091D4029091D502892B29F0E091D40200
:100E0000F091D5020995FF91EF91BF91AF919F911C
:100E10008F917F916F915F914F913F912F910F90A3
:100E20000BBE0F900FBE0F901F9018951F920F9240
:100E30000FB60F9211240BB60F922F933F934F933F
:100E40005F936F937F938F939F93AF93BF93EF9332
:100E5000FF938091D6029091D702892B29F0E091DF
:100E6000D602F091D7020995FF91EF91BF91AF9112
:100E70009F918F917F916F915F914F913F912F91B2
:100E80000F900BBE0F900FBE0F901F9018951F92E2
:100E90000F920FB60F9211240BB60F922F933F9320
:100EA0004F935F936F937F938F939F93AF93BF9372
:100EB000EF93FF938091D8029091D902892B29F06A
:100EC000E091D802F091D9020995FF91EF91BF917D
:100ED000AF919F918F917F916F915F914F913F91D2
:100EE0002F910F900BBE0F900FBE0F901F90189573
:100EF0001F920F920FB60F9211240BB60F922F93E1
:100F00003F934F935F936F937F938F939F93AF9391
:100F1000BF93EF93FF938091DA029091DB02892BCC
:100F200029F0E091DA02F091DB020995FF91EF914F
:100F3000BF91AF919F918F917F916F915F914F91F1
:100F40003F912F910F900BBE0F900FBE0F901F90EF
:100F500018951F920F920FB60F9211240BB60F9295
:100F60002F933F934F935F936F937F938F939F93B1
:100F7000AF93BF93EF93FF938091DC029091DD02DA
:100F8000892B29F0E091DC02F091DD020995FF91B7
:100F9000EF91BF91AF919F918F917F916F915F91F1
:100FA0004F913F912F910F900BBE0F900FBE0F905E
:100FB0001F9018951F920F920FB60F9211240BB627
:100FC0000F922F933F934F935F936F937F938F93E2
:100FD0009F93AF93BF93EF93FF938091DE02909125
:100FE000DF02892B29F0E091DE02F091DF02099502
:100FF000FF91EF91BF91AF919F918F917F916F91F1
:101000005F914F913F912F910F900BBE0F900FBEAC
:101010000F901F9018951F920F920FB60F921124E8
:101020000BB60F922F933F934F935F936F937F93E2
:101030008F939F93AF93BF93EF93FF938091E002C1
:101040009091E102892B29F0E091E002F091E10218
:101050000995FF91EF91BF91AF919F918F917F91F2
:101060006F915F914F913F912F910F900BBE0F9019
:101070000FBE0F901F901895CF92DF92EF92FF92C4
:101080006B017C018091AF059091B0058C299D2961
:101090009093B0058093AF05C0FE0FC060E08BE277
:1010A0000E94A41960E086E20E94A41943E050E087
:1010B0006AE775E082E00E943506C1FE0FC060E07D
:1010C0008BE20E94A41960E087E20E94A41943E029
:1010D00050E06AE775E082E00E943506C2FE0FC06C
:1010E00061E083E00E94A41961E083E00E94BD19E1
:1010F00042E050E06AE179E084E00E943506C3FEF8
:101100000FC060E08BE20E94A41960E088E00E94BA
:10111000A41943E050E06AE775E082E00E943506DA
:10112000C4FE0BC060E08BE20E94A41943E050E0D3
:101130006AE775E082E00E943506C6FE0FC060E0F7
:1011400084E00E94A41960E08CE20E94A41942E0AD
:1011500050E06AE179E083E00E943506C7FE0FC0E7
:1011600060E08DE20E94A41960E08BE20E94A41965
:1011700043E050E06AE775E082E00E943506D0FE69
:1011800013C060E08BE20E94A41960E082E10E943B
:10119000A41943E050E06AE775E082E0FF90EF9029
:1011A000DF90CF900C943506FF90EF90DF90CF90BA
:1011B0000895CF92DF92EF92FF926B017C01F89439
:1011C00060FF03C082E00E948C06C1FE03C082E083
:1011D0000E948C06C2FE03C084E00E948C06C3FEFF
:1011E00003C082E00E948C06C4FE03C082E00E941D
:1011F0008C06C7FE03C082E00E948C06D0FE03C0AE
:1012000082E00E948C06C6FE03C083E00E948C062A
:101210008091AF059091B005C094D094C822D92296
:10122000D092B005C092AF057894FF90EF90DF9018
:10123000CF900895F8948091AF059091B00586FF06
:101240001EC084E00E94031A892BC9F48091B10565
:101250008F5F8093B1058091B2059091B305806452
:101260009093B3058093B2058091AC058F5F809316
:10127000AC0560E470E080E090E00E94D9088091C5
:10128000AF059091B00582FF1CC083E00E94031A55
:10129000892BB9F48091B1058F5F8093B10580915E
:1012A000B2059091B30584609093B3058093B20525
:1012B0008091A9058F5F8093A90561E083E00E947A
:1012C000BD19789408951F93CF93DF931F92CDB7E4
:1012D000DEB7162F61E08AE149830E94A41961E01C
:1012E00088E10E94A4194981112321F0113009F0ED
:1012F00048C020C041110EC061E08AE10E94BD19C2
:101300008091A3059091A405A091A505B091A60593
:1013100082602FC04130A9F560E08AE10E94BD19CA
:101320008091A3059091A405A091A505B091A60573
:101330008D7F1FC041110EC061E088E10E94BD1980
:101340008091A3059091A405A091A505B091A60553
:1013500081600FC04130A9F460E088E10E94BD19AE
:101360008091A3059091A405A091A505B091A60533
:101370008E7F8093A3059093A405A093A505B093B9
:10138000A6050F90DF91CF911F91089580917A006B
:10139000806880937A0060FF10C061E08AE10E945B
:1013A000A41961E08AE10E94BD1961E088E10E9410
:1013B000A41961E088E10C94BD19089561E089E207
:1013C0000E94A41961E088E20E94A4198AEE92E0CA
:1013D0000C94A20E0F931F93CF93DF93EC01162F63
:1013E00061E081E30E94A41960E081E30E94BD19DD
:1013F00061E089E20E94A41960E089E20E94BD19BF
:1014000061E088E20E94A41960E088E20E94BD19B0
:1014100080917A008F7780937A0061E08DE10E945D
:10142000A41960E08DE10E94BD1961E08BE10E948A
:10143000A41960E08BE10E94BD1961E082E20E9484
:10144000A41960E082E20E94BD19012F017010FF13
:101450000EC041E060E082EE92E00E94630941E04C
:1014600061E082EE92E00E9463091092F10280E056
:101470000E94BD1A11FF19C061E086E10E94A41903
:1014800060E086E10E94BD194091A3055091A4053A
:101490006091A5057091A6054B7F4093A3055093DD
:1014A000A4056093A5057093A60581E00E94BD1A6E
:1014B0000023A1F08091A3059091A405A091A5051A
:1014C000B091A60590FD0AC08091A3059091A40556
:1014D000A091A505B091A60591FF72C088E393E0A5
:1014E0000E94061061E080E30E94A41960E080E39E
:1014F0000E94BD19CE010E94DE0961E089E10E94CF
:10150000A41960E089E10E94BD194091A3055091A2
:10151000A4056091A5057091A60544FF15C040E0A3
:1015200060E0CE010E94630961E08AE00E94A41994
:1015300061E089E00E94A41961E08AE00E94BD197F
:1015400061E089E00E94BD198091A3059091A405F6
:10155000A091A505B091A60586FF04C060E089E0D2
:101560000E94BD198091A3059091A405A091A505A5
:10157000B091A60585FF18C060E084E00E94BD1907
:1015800060E082E00E94BD1960E087E00E94BD1922
:1015900060E08AE00E94BD1960E086E00E94BD190B
:1015A00060E08EE00E94BD1960E08BE20E94A41909
:1015B00060E08BE2DF91CF911F910F910C94BD19E8
:1015C00061E086E00E94A41960E086E00E94BD19F7
:1015D00085CF61E08DE20E94A41960E08DE20E9457
:1015E000BD1987E20E94031A892B41F088E393E03A
:1015F0000E94B71488E393E00E94A11486E20E943F
:10160000031A019721F588ED93E00E94A4208091B0
:10161000DD03823071F018F48130C9F405C08330E5
:1016200069F08430A1F40FC088ED93E00E9471202E
:101630000EC088ED93E00E94CF1F09C088ED93E0B3
:101640000E94611F04C088ED93E00E94261F60E0A5
:101650008BE20E94A41960E08BE20C94BD19CF923A
:10166000DF92EF92FF920F931F93CF93DF93EC01E2
:101670007B01D42EC22E89EE92E00E94180D61E00B
:101680008DE20E94A41960E08DE20E94BD19602FD6
:10169000CE010E94EA0964E670E080E090E00E94DA
:1016A000411C1BE00DC061E070E080E090E00E9412
:1016B000411C82EE92E00E94E90A115009F47FC0B9
:1016C0008BE20E94031A019771F388E393E00E9472
:1016D000B7142C2D4D2DB70188E393E00E94A51778
:1016E000D0905603E0905503F090540310915303AB
:1016F00088E393E00E94091380915603D8120CC02E
:1017000080915503E81208C080915403F81204C078
:1017100080915303181781F088E393E00E947814B6
:1017200088E393E0DF91CF911F910F91FF90EF90AD
:10173000DF90CF900C943F1088E393E00E943F101D
:1017400083B7817F846083BF83B7816083BF83B7A2
:10175000816083BF889583B78E7F83BF83B78E7F79
:1017600083BF602FCE010E94C60988E393E00E94E8
:10177000B71488E393E00E94781488E393E00E9412
:10178000A11488E393E00E943F1000FF18C061E0BD
:101790008AE10E94A41960E08AE10E94BD1961E01B
:1017A00088E10E94A41960E088E1DF91CF911F9148
:1017B0000F91FF90EF90DF90CF900C94BD19DF91C7
:1017C000CF911F910F91FF90EF90DF90CF900895F0
:1017D000FC01408160E072EC81E090E00E94491AD7
:1017E00061E087E10E94A41961E087E10E94BD19D0
:1017F00061E08BE00E94A41960E08BE00E94BD19BB
:1018000061E08DE20E94A41960E08DE20C94BD19A4
:10181000DC018091C50011968C9311978091C400D2
:1018200012968C931297E2ECF0E0808113968C93E1
:1018300013978091CA0014968C93149780818F7DA2
:10184000808380818F7E80838081877F80834C919D
:1018500060E072EC81E090E00E94491A61E087E16B
:101860000E94BD1960E08BE00C94BD19CF93DF930B
:10187000EC014091A3055091A4056091A5057091DC
:10188000A60563E070E080E090E042FF07C00E94A0
:10189000411C61E08BE00E94BD1902C00E94411C06
:1018A00089818093C5008A818093C4008B81809355
:1018B000C2008C818093CA00DF91CF910895EF928E
:1018C000FF920F931F93CF93DF938C01EB010E9444
:1018D000080C7E0188E1E81A8CEFF80AFE012196D7
:1018E0008491882339F0F80160810E94611BCE1534
:1018F000DF05A1F7C8010E94360C60E070E0CB0163
:10190000DF91CF911F910F91FF90EF900895CF93AA
:10191000DF93EC010E94080C88810E94631BCE01BA
:10192000DF91CF910C94360CEF92FF920F931F939F
:10193000CF93DF9300D0CDB7DEB77C010E945F0C60
:101940008C01C70169837A830E94870C69817A813F
:10195000C8010F900F90DF91CF911F910F91FF90D1
:10196000EF9008951092E40208951F93CF93DF93B0
:101970001F92CDB7DEB7162F61E0812F49830E94F9
:10198000A4194981413011F461E003C0411108C03C
:1019900060E0812F0F90DF91CF911F910C94BD19C2
:1019A0000F90DF91CF911F910895CF92DF92EF9228
:1019B000FF92CF93DF93EC016B0141E06CE00E945A
:1019C000B50C41E06DE0CE010E94B50CE12CF12C8C
:1019D000C701B6010E94411C40E06CE0CE010E94AC
:1019E000B50C40E06DE0CE010E94B50CC701B60118
:1019F000DF91CF91FF90EF90DF90CF900C94411C3E
:101A000061E087E10E94A41961E084E20E94A419C8
:101A100061E085E20E94A41961E087E10E94BD199E
:101A200061E084E20E94BD1961E085E20C94BD1979
:101A300061E087E10E94A41961E08BE00E94A41993
:101A400060E087E10E94BD1960E08BE00E94BD1953
:101A500060E084E20E94BD1960E085E20C94BD194B
:101A6000CB010C94E0298F929F92AF92BF92CF92BC
:101A7000DF92EF92FF920F931F93CF93DF93CDB737
:101A8000DEB7C75FD1090FB6F894DEBF0FBECDBF7A
:101A90008E0100511F4F580128E0A20EB11C7E019B
:101AA00081E8E80EF11CCC24C394D12CCC0EDD1EB1
:101AB0006DE0CE018F519F4F0E946A1E40E06CE0A6
:101AC00089EE92E00E94B50C40E06DE089EE92E074
:101AD0000E94B50CF801108211821282138261E01B
:101AE0008CE00E94A41961E08CE00E94BD19CE0137
:101AF0008F519F4F0E944A1D41E06DE089EE92E0B8
:101B00000E94B50C6AE070E080E090E00E94411C09
:101B100040E063E3CE018F519F4F0E941B1E62E3A2
:101B200070E080E090E00E94411C4701CE018F519F
:101B30009F4F0E94F01DF2E08F1A9108F4018083FC
:101B4000118261E070E080E090E00E94411C8C1402
:101B50009D0461F7FE017196D701C60180599F4F20
:101B6000219131912D933D93E817F907C9F731EE93
:101B7000832E912C8C0E9D1E81E090E0A0E0B0E0C1
:101B8000F401329122914F012130310569F4F801BD
:101B90004081518162817381480F591F6A1F7B1FE9
:101BA0004083518362837383880F991FAA1FBB1FD1
:101BB0008E149F0429F7F80180819181A281B3815D
:101BC0008F3F9F4FAF4FBF4F29F4F8011082118212
:101BD0001282138260E08CE00E94BD1940E06CE04C
:101BE00089EE92E00E94B50C40E06DE089EE92E053
:101BF0000E94B50C0C5F1F4F0A151B0509F058CF4A
:101C0000C051DF4F088119812A813B81C05FD040DC
:101C1000CC50DF4F88819981AA81BB81C45FD040BD
:101C2000081719072A073B0719F000E010E0980190
:101C3000B801C901C950DF4F0FB6F894DEBF0FBE1F
:101C4000CDBFDF91CF911F910F91FF90EF90DF906B
:101C5000CF90BF90AF909F908F900895CF92DF92DA
:101C6000EF92FF920E94330D6B017C0161157105AB
:101C70008105910591F483EE90E00E94E8296A3095
:101C80002AE072078207920741F06F3F2FEF720739
:101C90008207920711F06B017C01B601C701FF902A
:101CA000EF90DF90CF9008958FED90E00E94E029B3
:101CB0008F3F09F480E00895CF93DF93EC0180E239
:101CC000E8E1F3E0DF01982F1D929A95E9F7109271
:101CD000170310921603E5EFF2E0DF011D928A95DB
:101CE000E9F71092F4021092F3020E94A90281E037
:101CF0008E8384E090E0DF91CF910C946B1C81E0A7
:101D00008093F202609315031092F4021092F30292
:101D100008950C947F0E8091160390911703891BF0
:101D200008959091170380911603981748F4E92FAE
:101D3000F0E0E85EFC4F80819F5F90931703089569
:101D400080E00895CF93DF93EC010E94F5021E829C
:101D5000DF91CF9108954091A3055091A405609122
:101D6000A5057091A6054170FC0140834091A30533
:101D70005091A4056091A5057091A605769567958B
:101D800057954795417041838091A3059091A40593
:101D9000A091A505B091A60584FD49C08091A30539
:101DA0009091A405A091A505B091A60585FD3FC021
:101DB0008091A3059091A405A091A505B091A605D9
:101DC00086FD35C08091A3059091A405A091A5053D
:101DD000B091A60587FD2BC08091A3059091A40525
:101DE000A091A505B091A60590FD21C08091A30505
:101DF0009091A405A091A505B091A60591FD17C0ED
:101E00008091A3059091A405A091A505B091A60588
:101E100093FD0DC0089540E060E082EE92E00E94E4
:101E2000630940E061E082EE92E00C9463098091E6
:101E3000F102882381F30895CF93DF93EC01809121
:101E4000A3059091A405A091A505B091A60584FDD8
:101E500058C08091A3059091A405A091A505B091CB
:101E6000A60585FD4EC08091A3059091A405A09183
:101E7000A505B091A60586FD44C08091A30590916B
:101E8000A405A091A505B091A60587FD3AC0809153
:101E9000A3059091A405A091A505B091A60590FD7C
:101EA00030C04091A3055091A4056091A5057091A3
:101EB000A60551FD26C04091A3055091A40560914F
:101EC000A5057091A60553FD1CC020C041E060E04F
:101ED00082EE92E00E9463090CC08981811106C0E4
:101EE00041E060E082EE92E00E9463098881811106
:101EF0000DC041E061E082EE92E0DF91CF910C9461
:101F000063098091F1028111E8CFE0CFDF91CF9199
:101F10000895CF93DF931F92CDB7DEB76983809189
:101F2000F202882389F08091F3028032D0F480910C
:101F3000F402E82FF0E0EB50FD4F60838F5F809359
:101F4000F4028093F3020DC08AEE92E00E94AB0E81
:101F500061E0CE0101960E94D6028AEE92E00E94D4
:101F60001C0F0F90DF91CF9108950C94890FCF93A0
:101F70008AEE92E00E94AB0E21E04091F30265EF01
:101F800072E0809115030E949903C82F1092F40209
:101F90001092F3021092F2028AEE92E00E941C0F5D
:101FA0008C2FCF910895CF93DF93D62FC42F8AEE35
:101FB00092E00E94AB0EC13208F0C0E24C2F68E103
:101FC00073E08D2F0E94FE03D82F10921703C09349
:101FD00016038AEE92E00E941C0F8D2FDF91CF91A5
:101FE00008950C94D30F1092F1021092EA0210920D
:101FF000EB028AEF90E0A0E0B0E08093EC029093D7
:10200000ED02A093EE02B093EF0208958091F002EA
:10201000882341F08091DC03811104C082EE92E0BC
:102020000C94DE0908950F931F93CF93DF93EC0177
:10203000042F68A761E080E30E94A41918A511236A
:1020400079F0113091F461E080E30E94BD19013014
:1020500019F482E08B8B09C0011107C01B8B05C0EE
:1020600060E080E30E94BD191B8A6AE070E080E0B6
:1020700090E0DF91CF911F910F910C94411CCF9371
:10208000DF93EC010E94061040E060E0CE01DF919A
:10209000CF910C941310FC01148A158A168A178AA2
:1020A000108E118E128E138E148E158E168E178E24
:1020B00010A211A212A213A214A215A216A217A274
:1020C0000895EF92FF920F931F93CF93DF93CDB7B5
:1020D000DEB7EC970FB6F894DEBF0FBECDBF8C0114
:1020E000E3E5F1E085919491BC01EE24E394F12CB9
:1020F000EC0EFD1EC7010E947424E5E5F1E0859118
:102100009491BC01CE0189960E947424F8018689BD
:10211000843009F466C040F4823029F108F04BC0E5
:10212000813009F0B6C009C0863009F486C008F4D1
:102130006EC0873009F0ADC096C0F801818D1F9246
:102140008F93808D1F928F9387891F928F93828D9B
:102150001F928F9385891F928F9384891F928F93EB
:102160008CE292E015C0F801818D1F928F93808DD3
:102170001F928F9387891F928F93828D1F928F93C7
:1021800085891F928F9384891F928F9380E392E0B9
:102190009F938F93FF92EF921F9284E68F93C801D3
:1021A00089969F938F930E94A0240FB6F894DEBF68
:1021B0000FBECDBF81C0F801818D1F928F93808D9E
:1021C0001F928F9387891F928F93828D1F928F9377
:1021D00085891F928F9384891F928F9384E392E065
:1021E000D7CFF801818D1F928F93808D1F928F938F
:1021F00087891F928F93828D1F928F9385891F925B
:102200008F9384891F928F9388E392E0C1CFF80166
:10221000818D1F928F93808D1F928F9387891F923C
:102220008F93828D1F928F9385891F928F938489BC
:102230001F928F938CE392E0ABCFF801818D1F92B8
:102240008F93808D1F928F9387891F928F93828D9A
:102250001F928F9385891F928F9384891F928F93EA
:1022600080E492E095CFF801818D1F928F93808D4D
:102270001F928F9387891F928F93828D1F928F93C6
:1022800085891F928F9384891F928F9384E492E0B3
:102290007FCFCE0189969F938F931F9284E68F9371
:1022A000C80189969F938F930E94A0240F900F904E
:1022B0000F900F900F900F90075D1F4FC801EC9685
:1022C0000FB6F894DEBF0FBECDBFDF91CF911F9147
:1022D0000F91FF90EF900895CF92DF92EF92FF92CF
:1022E0000F931F93CF93DF938C01C62E8091F00242
:1022F000811104C08AEE92E00E945C0E68E670E0F4
:102300008AEE92E00E94890E60E070E08AEE92E030
:102310000E94B50F8AEE92E00E94B70F43E150E0B1
:1023200068E670E08AEE92E00E94F10FE12CF12C59
:10233000C0E0D0E0D12CE4C08AEE92E00E94910E81
:10234000F801EC0FFD1F8083C630D10509F467C08A
:1023500098F4C230D10509F43EC038F4209729F131
:10236000C130D10509F0C7C02BC0C430D10509F474
:1023700040C008F049C03AC0CA30D10509F484C051
:1023800048F4282F30E0C830D10509F461C008F0C6
:102390006DC050C0CC30D10509F492C008F482C0A1
:1023A000CD30D10509F0A7C099C0982F92959F70A4
:1023B0008F702AE0929F800D1124F801818F9BC0BD
:1023C000982F92959F708F70FAE09F9F800D112437
:1023D000F801808F90C0982F92959F708F70FAE0CF
:1023E0009F9F800D1124F801878B85C0F801868B93
:1023F00082C0982F92959F708F70FAE09F9F800DFA
:102400001124F801828F77C0982F92959F708F705A
:10241000FAE09F9F800D1124F801858B6CC0982FE6
:1024200092959F708F70FAE09F9F800D1124F801A4
:10243000848B61C054E0359527955A95E1F7277054
:102440008F70FAE02F9F800D1124F801838F53C005
:1024500044E0359527954A95E1F727708F70FAE0AB
:102460002F9F800D1124F801848F45C094E035958D
:1024700027959A95E1F723708F70FAE02F9F800DD2
:102480001124F801858F37C0282F2695269526958B
:102490002670922F990F990F920F8F70980FF80155
:1024A000968F29C0282F2695269526952E70922F37
:1024B000990F990F920F8F70980FF801978F1BC08B
:1024C000282F2695269526952670922F990F990FDD
:1024D000920F8F70980FF80190A30DC0282F2695AA
:1024E000269526952670922F990F990F920F8F702F
:1024F000980FF80191A3219603C0FFEFEF1AFF0A8E
:10250000CC16DD0658F02AE0E216F10438F48AEE23
:1025100092E00E948B0E882381F30ECFDF91CF9142
:102520001F910F91FF90EF90DF90CF9008951F9330
:10253000CF93DF93EC01162F8091F002811104C03C
:102540008AEE92E00E945C0E68E670E08AEE92E00D
:102550000E94890E612F8AEE92E00E94890FC10FBE
:10256000D11D68818AEE92E00E94890F8AEE92E086
:10257000DF91CF911F910C94B70FFF920F931F9390
:10258000CF93DF938C01F62E8091F002811104C06D
:102590008AEE92E00E945C0E68E670E08AEE92E0BD
:1025A0000E94890E6F2D8AEE92E00E94890F8AEEBA
:1025B00092E00E94B70F41E050E068E670E08AEEDA
:1025C00092E00E94F10FCBE0D0E08AEE92E00E9410
:1025D0008B0E811102C02197C1F78AEE92E00E9412
:1025E000910EF801EF0DF11D80838AEE92E0DF91EC
:1025F000CF911F910F91FF900C94B70FCF93DF9362
:10260000EC0166E00E946C11CE01DF91CF910C9439
:102610006110CF92DF92EF92FF920F931F93CF93AF
:10262000DF93CDB7DEB7C857D1090FB6F894DEBF38
:102630000FBECDBF7C016AE00E946C118701075D6F
:102640001F4F84E6F80111928A95E9F7E1E3F1E082
:1026500085919491BC01CE018F5A9F4F0E947424A2
:10266000BE016F5A7F4FC8010E947B24F70182A1EF
:10267000823009F46AC030F4882369F0813009F0AF
:102680000BC122C0843009F4C7C008F493C0853060
:1026900009F002C1F0C0E3E3F1E085919491BC013F
:1026A000CE018F5A9F4F0E947424BE016F5A7F4FF4
:1026B000C8010E947B24E1E4F1E0859194916E01D0
:1026C000F9E2CF0ED11C18C0E5E3F1E085919491B9
:1026D000BC01CE018F5A9F4F0E947424BE016F5AD5
:1026E0007F4FC8010E947B24E1E4F1E08591949141
:1026F0006E01E9E2CE0ED11CBC01C6010E94742419
:10270000F701838D1F928F93848D1F928F93858DF8
:102710001F928F93868D1F928F93DF92CF921F927D
:1027200088E28F93EE24E394F12CEC0EFD1EFF92D1
:10273000EF920E94A024B701C8010E947B240FB62B
:10274000F894DEBF0FBECDBFC2C0E7E3F1E08591D4
:102750009491BC01CE018F5A9F4F0E947424BE01F8
:102760006F5A7F4FC8010E947B24E3E4F1E085911A
:1027700094916E01E9E2CE0ED11CBC01C6010E940B
:102780007424F701838D1F928F93848D1F928F93F2
:10279000858D1F928F93DF92CF921F9288E28F9345
:1027A000EE24E394F12CEC0EFD1EFF92EF920E94BA
:1027B000A024C1CFE9E3F1E085919491BC01CE0161
:1027C0008F5A9F4F0E947424BE016F5A7F4FC801D9
:1027D0000E947B24E5E4F1E0859194916E01E9E2A9
:1027E000CE0ED11CBC01C6010E947424F701838D5A
:1027F0001F928F93848D1F928F93DF92CF921F929F
:1028000088E28F93EE24E394F12CEC0EFD1EFF92F0
:10281000EF920E94A0248FCFEBE3F1E08591949199
:10282000BC01CE018F5A9F4F0E947424BE016F5A83
:102830007F4FC8010E947B24E7E4F1E085919491E9
:102840006E01E9E2CE0ED11CBC01C6010E947424C7
:10285000F701838D1F928F93DF92CF921F9288E2B0
:102860008F93EE24E394F12CEC0EFD1EFF92EF9279
:102870000E94A02460CFEDE3F1E085919491BC012A
:10288000CE018F5A9F4F0E947424BE016F5A7F4F12
:10289000C8010E947B241BC0EFE3F1E08591949175
:1028A0007E01E1E5EE0EF11CBC01C7010E9474241B
:1028B000FF92EF921F9284E68F931F930F930E94D3
:1028C000A0240F900F900F900F900F900F90C801C1
:1028D000C858DF4F0FB6F894DEBF0FBECDBFDF91F3
:1028E000CF911F910F91FF90EF90DF90CF900895BF
:1028F000CF93DF93EC016EE00E94BD128E858E7F38
:102900008E876EE0CE01DF91CF910C949712CF931A
:10291000DF93EC016EE00E94BD128E858D7F8E8765
:102920006EE0CE01DF91CF910C949712CF93DF939D
:10293000EC016FE00E94BD128F858370DF91CF9113
:102940000895CF93DF93EC010E949614882319F029
:10295000CE56DF4F8883809147038C7F8093470357
:102960006FE088E393E0DF91CF910C949712CF93BF
:10297000DF93EC0140E061E00E941310CE010E9461
:10298000A114CE010E944B106DE0CE010E946C118B
:1029900061E08BE20E94A41960E08BE2DF91CF91AD
:1029A0000C94BD19362F862F6AE00E942823292F08
:1029B000832F90E0821B91096AE070E00E94482317
:1029C000B4E0660F771FBA95E1F7822F862B089542
:1029D0000F931F93CF93DF93EC018091F00281114D
:1029E00004C08AEE92E00E945C0E68E670E08AEE17
:1029F00092E00E94890E67E070E08AEE92E00E9409
:102A0000B50F6B8DCE010E94D2148F778F836C8DA2
:102A1000CE010E94D2148F7788876D8DCE010E94DF
:102A2000D2148F7789876E8DCE010E94D2148F7356
:102A30008A8700E010E0FE01E00FF11F67818AEE57
:102A400092E00E94890F0F5F1F4F0430110599F724
:102A50008AEE92E0DF91CF911F910F910C94B70F06
:102A60000F931F93CF93DF93EC018091F0028111BC
:102A700004C08AEE92E00E945C0E68E670E08AEE86
:102A800092E00E94890E60E070E08AEE92E00E947F
:102A9000B50F698DCE010E94D2148883688DCE0156
:102AA0000E94D21489836F89CE010E94D2148A8336
:102AB0008E898B836A8DCE010E94D2148C836D899E
:102AC000CE010E94D2148D836C89CE010E94D21453
:102AD0008E8300E010E069918AEE92E00E94890FF7
:102AE0000F5F1F4F07301105B1F78AEE92E0DF91BB
:102AF000CF911F910F910C94B70FAF92BF92CF92CD
:102B0000DF92EF92FF920F931F93CF93DF93CDB796
:102B1000DEB7ED970FB6F894DEBF0FBECDBF8C01C8
:102B2000B62EA72E7E0129E2E20EF11C87E0F70106
:102B300011928A95E9F7E7E5F1E085919491BC015E
:102B4000CC24C394D12CCC0EDD1EC6010E9474246B
:102B5000EB2DFA2DDF010D900020E9F75597AE1708
:102B6000BF0711F081E0C5C0CE01C0969F938F933F
:102B7000CE018E969F938F93CE01C2969F938F9393
:102B8000CE018D969F938F93CE01C4969F938F9382
:102B9000CE018C969F938F93CE01C6969F938F9371
:102BA000CE018B969F938F93CE01C8969F938F9360
:102BB000CE018A969F938F93CE01CA969F938F934F
:102BC000FF92EF92CE01CC969F938F93DF92CF929C
:102BD000AF92BF920E94DD246AE572E0C7010E94B5
:102BE00086240FB6F894DEBF0FBECDBF892B09F443
:102BF000B9CF8CAD9DAD8436910508F0B3CFF80107
:102C0000848B2AAD3BADA901415051094C3051058F
:102C100008F0A8CF258B213061F0233051F025300A
:102C200041F0273031F0283021F02A3011F02C30DB
:102C300029F488AD99AD809770F194CF243031F0AC
:102C4000263021F0293011F02B3029F488AD99ADD0
:102C50004F9708F187CF2230F1F4282F2370B1F479
:102C60009C012053384FC90164E670E00E9448235C
:102C7000892B39F4C90160E971E00E944823892B4E
:102C800029F488AD99AD4E9730F06CCF88AD99ADF1
:102C90004D9708F067CF88AD99AD9C01215031095F
:102CA0002F31310508F05ECFF801828F8EA99FA9E0
:102CB0009C01215031092730310508F053CF868B14
:102CC0008CA99DA98831910508F04CCF878B8AA9E2
:102CD0009BA98C33910508F045CF808F88A999A9CD
:102CE0008C33910508F03ECF818FC8010E943015CA
:102CF00080E0ED960FB6F894DEBF0FBECDBFDF913A
:102D0000CF911F910F91FF90EF90DF90CF90BF90E8
:102D1000AF900895CF93DF93EC010E947814CE0119
:102D20000E94871462E070E080E090E00E94D90881
:102D3000CE01DF91CF910C94A1141F93CF93DF9319
:102D4000EC01142F613009F086C08E8585608E8776
:102D50006EE0CE010E9497128F858C7F8F876FE087
:102D6000CE010E949712133009F44EC028F48F81CF
:102D7000113019F1C8F509C0153009F469C008F41B
:102D80004DC0163009F0D8C0CDC08F778F8367E073
:102D9000CE010E94971288858F77888768E0CE01E0
:102DA0000E94971289858F77898769E0CE010E94FA
:102DB00097128A858F77806448C08F778F8367E00A
:102DC000CE010E94971288858F77888768E0CE01B0
:102DD0000E94971289858F77898769E0CE010E94CA
:102DE00097128A858F7331C08F778F8367E0CE010A
:102DF0000E94971288858F77888768E0CE010E94AD
:102E0000971289858F771AC08F818F778F8367E0BC
:102E1000CE010E94971288858F7709C08F818F77A6
:102E20008F8367E0CE010E9497128885806888872B
:102E300068E0CE010E94971289858068898769E0E1
:102E4000CE010E9497128A8580688A876AE066C0F0
:102E50008F818068E5CF623009F06EC08E85866014
:102E60008E876EE0CE010E9497128F858C7F8F87B0
:102E70006FE0CE010E949712123089F130F41123D5
:102E800059F0113009F058C019C01430A9F188F177
:102E9000153009F051C046C08B858F778B876BE06A
:102EA000CE010E9497128C858F778C876CE0CE01C3
:102EB0000E9497128D858F7780642EC08B858F77C7
:102EC0008B876BE0CE010E9497128C858F778C8761
:102ED0006CE0CE010E9497128D858F731DC08B858B
:102EE0008F778B876BE0CE010E9497128C858F774E
:102EF0000CC08B858F7702C08B8580688B876BE0D9
:102F0000CE010E9497128C8580688C876CE0CE0180
:102F10000E9497128D8580688D876DE0CE010E949A
:102F200097120AC08E85887F8E876EE0CE010E9440
:102F30009712CE010E948A1662E070E080E090E075
:102F4000DF91CF911F910C943C08CF92DF92FF92BA
:102F50000F931F93CF93DF931F92CDB7DEB76C0112
:102F60008B01F22EDB010D900020E9F71C97A617CC
:102F7000B70741F069E571E084EE92E049830E9471
:102F8000940C4981F8018181805390819053FAE03B
:102F90009F9F800D1124F601868FF8018481805354
:102FA00093819053FAE09F9F800D1124F601858F45
:102FB000F8018781805396819053FAE09F9F800D9E
:102FC0001124F601848FF8018285805391859053F6
:102FD000FAE09F9F800D1124F601838F41117FC07D
:102FE00066E0C6010E946C11F601818D938D890FF8
:102FF0008C3310F4838F06C08C53F601838F848D3D
:103000008F5F848FF601808D948D890F8C3310F43F
:10301000848F06C08C53F601848F858D8F5F858FDA
:10302000F6018789958D890F883110F4858F06C048
:103030008851F601858F868D8F5F868FF601968D7C
:10304000F11009C08689890F868F883008F447C03F
:103050008750868F44C0F601328D390F368F8589AF
:10306000813061F0833051F0853041F0873031F0AC
:10307000883021F08A3011F08C3021F4303278F130
:103080003F512BC0843031F0863021F0893011F06F
:103090008B3021F43F3118F13E511FC08230F9F4DA
:1030A000E0914C038E2F8370A9F4F0E0E053F84FC9
:1030B000CF0164E670E00E944823892B39F4CF01E8
:1030C00060E971E00E944823892B21F43E3138F0F9
:1030D0003D5103C03D3118F03C51F601368FF601E9
:1030E000F2A288E393E00E94E8144F2D61E088E3A8
:1030F00093E00F90DF91CF911F910F91FF90DF90A0
:10310000CF900C949D161092C90310924B03089512
:103110000E948D1C89EE92E00E94540E853440F08E
:1031200061E081E30E94A41961E081E30E94BD197E
:1031300061E070E089EE92E00E94300D8130B1F4E0
:103140008091A3059091A405A091A505B091A60535
:1031500090688093A3059093A405A093A505B093D0
:10316000A60560E081E090E00E94EE2987E20E94DF
:10317000031A892B59F160E070E089EE92E00E9419
:10318000300D8A3019F5C1C06CE3629FA001639FC6
:10319000500D1124840F951F0EC02115310559F0D3
:1031A0006CE3629FA001639F500D11249A01205F80
:1031B000314F820F931F039748F48091B20590918D
:1031C000B30580629093B3058093B20588E393E0E2
:1031D0000E94B71488E393E00E94781488E393E098
:1031E0000E94871488E393E00E943F1063E070E040
:1031F00080E090E00E94411C8091A3059091A4057D
:10320000A091A505B091A605A1FF5EC063E070E0A6
:1032100080E090E00E94411C61E086E10E94A419D8
:1032200063E070E080E090E00E94411C61E086E194
:103230000E94BD1963E070E080E090E00E94411CB4
:103240000E94D32063E070E080E090E00E94411C87
:1032500081E00E94F62063E070E080E090E00E9450
:10326000411C84E00E94042163E070E080E090E073
:103270000E94411C80E00E94FF2063E070E080E03B
:1032800090E00E94411C0E94F22063E070E080E028
:1032900090E00E94411C66E08DE995E00E940F21BC
:1032A00063E070E080E090E00E94411C61E086E114
:1032B0000E94A41960E086E10E94BD1963E070E0FD
:1032C00080E090E00E94411C63E070E080E090E0CC
:1032D0000E94411C89EE92E00E942E0E6093CB0367
:1032E0007093CC038093CD039093CE038091CB0356
:1032F0009091CC03A091CD03B091CE030E9469249C
:103300000E943A020E944E02FDCF88E393E00E94A1
:10331000B71488E393E00E94091388E393E00E94C6
:10332000FE128091510390E020915303821B91097A
:103330002091500330E040915403241B31091216B0
:1033400013060CF421CF29CF90E0FC01E458FC4F88
:103350002491FC01E155FC4FE491EE2369F0F0E08B
:10336000EE50FC4FA491B0E08C91611103C0209508
:10337000822301C0822B8C93089590E0FC01E75BCF
:10338000FC4F2491FC01E458FC4F3491FC01E155C1
:10339000FC4F84918823B1F1222331F1233021F4B1
:1033A000909180009F7705C0243031F49091800087
:1033B0009F7D9093800018C0213019F494B59F77B9
:1033C00004C0223021F494B59F7D94BD0DC02630F9
:1033D00021F49091B0009F7705C0273029F4909197
:1033E000B0009F7D9093B000E82FF0E0E651FC4FD5
:1033F000A491B0E08C91611103C03095832301C08A
:10340000832B8C93089590E0FC01E75BFC4F2491A3
:10341000FC01E458FC4F3491FC01E155FC4F8491D0
:10342000882399F1222331F1233021F490918000F7
:103430009F7705C0243031F4909180009F7D909358
:10344000800018C0213019F494B59F7704C0223051
:1034500021F494B59F7D94BD0DC0263021F4909148
:10346000B0009F7705C0273029F49091B0009F7D70
:103470009093B000E82FF0E0EE51FC4FE491F0E0C3
:103480008081832321E030E011F420E030E0C901A5
:103490000895CF92DF92EF92FF926B017C01411170
:1034A00034C088E00E94E81CC701B60122E030E089
:1034B00040E050E00E947E23305F414F5F4FCA01E1
:1034C000B901A70196010E947E23DA01C901019783
:1034D000A109B109892F9A2FAB2FBB27A7FDBA9558
:1034E0008093C50021502093C4008091C100806169
:1034F0008093C1008091C10088608093C100809159
:10350000C10080688093C10033C080E10E94E81C44
:10351000C701B60122E030E040E050E00E947E2387
:10352000305F414F5F4FCA01B901A70196010E9468
:103530007E23DA01C9010197A109B109892F9A2FC8
:10354000AB2FBB27A7FDBA958093CD0021502093C8
:10355000CC008091C90080618093C9008091C9002E
:1035600088608093C9008091C90080688093C900F9
:10357000FF90EF90DF90CF90089581110EC088E00A
:103580000E94221D8091C1008F7E8093C100809196
:10359000C100877F8093C100089580E10E94221DB1
:1035A0008091C9008F7E8093C9008091C900877F78
:1035B0008093C9000895611107C09091C00095FFE4
:1035C000FCCF8093C60008959091C80095FFFCCF72
:1035D0008093CE0008951F920F920FB60F92112480
:1035E0002F933F934F935F936F937F938F939F930B
:1035F000AF93BF93EF93E091C6002091D503309134
:10360000D603C901019660E072E00E944823409110
:10361000D3035091D4038417950741F0D901AB54DB
:10362000B84FEC939093D6038093D503EF91BF915D
:10363000AF919F918F917F916F915F914F913F914A
:103640002F910F900FBE0F901F9018951F920F9201
:103650000FB60F9211242F933F934F935F936F9365
:103660007F938F939F93AF93BF93EF93E091CE009F
:103670002091D1033091D203C901019660E072E03C
:103680000E9448234091CF035091D003841795079F
:1036900041F0D901AB54BA4FEC939093D20380938D
:1036A000D103EF91BF91AF919F918F917F916F91D6
:1036B0005F914F913F912F910F900FBE0F901F90F0
:1036C00018950C94DB1ACF93C82F682F8DE00E94B9
:1036D000DB1A6C2F8AE0CF910C94DB1A1F920F92A9
:1036E0000FB60F9211240BB60F922F933F934F9367
:1036F0005F936F937F938F939F93AF93BF93EF935A
:10370000FF93F89481E080930A02E0E6F0E0808184
:103710008068808380818F7B808360E083E00E946B
:10372000BD197894FF91EF91BF91AF919F918F91C7
:103730007F916F915F914F913F912F910F900BBEB1
:103740000F900FBE0F901F9018951F920F920FB6FB
:103750000F9211248F939F93AF93BF938091B509DC
:103760009091B609A091B709B091B8090196A11D31
:10377000B11D8093B5099093B609A093B709B09392
:10378000B809BF91AF919F918F910F900FBE0F908D
:103790001F9018951F920F920FB60F9211248F93BE
:1037A0009F93AF93BF938091B9099091BA09A0916B
:1037B000BB09B091BC090196A11DB11D8093B90947
:1037C0009093BA09A093BB09B093BC09BF91AF9184
:1037D0009F918F910F900FBE0F901F9018958F9211
:1037E0009F92AF92BF92CF92DF92EF92FF920F9390
:1037F0001F93CF93DF932FB7F8948091B5099091E1
:10380000B609A091B709B091B8092FBF9C01AD01CD
:1038100060E070E080E090E001E00E94F92349015F
:10382000D42FC52FB62FA72FF82FE92F02E00E9423
:10383000F92359016A017B018C0194014D2F5C2F02
:103840006B2F7A2F8F2F9E2F0E940824E9E0AE2E37
:10385000B12CC12CD12CE12CF12C00E010E00E9405
:103860009C23952FB901842FDF91CF911F910F9148
:10387000FF90EF90DF90CF90BF90AF909F908F9090
:1038800008958F929F92AF92BF92CF92DF92EF9264
:10389000FF924B015C0107C00E94EF1B6C157D0578
:1038A0008E059F0520F40E94EF1B6B017C010E9496
:1038B000EF1B6C197D098E099F09681579058A052A
:1038C0009B0550F3FF90EF90DF90CF90BF90AF90AB
:1038D0009F908F900895BC01049768F080E090E07D
:1038E0000E94182226E636E646EE5FE30E94A622F4
:1038F0000E94EC2102C0660F771F6150710961F0D0
:103900006150710949F0FB01EE0FFF1F31978FB72E
:10391000F8943197F1F78FBF0895789484B7877F33
:1039200084BF1092B5091092B6091092B70910928F
:10393000B80984B5826084BD84B5816084BD85B5D5
:10394000826085BD85B5816085BDEEE6F0E0808151
:1039500081608083E1E8F0E0808182608083808103
:1039600081608083E0E8F0E0808181608083E1EB2A
:10397000F0E0808184608083E1E9F0E08081846010
:103980008083E0EBF0E0808181608083E0E9F0E01B
:10399000808181608083E4E6F0E080818E7F808397
:1039A000ECE7F0E080818F77808380818064808382
:1039B000EAE7F0E080818460808380818260808398
:1039C0008081806880831092C1001092C9000895A0
:1039D0009091D703982B9093D70380FF32C08091AA
:1039E00064008E7F8093640080917C008F77809349
:1039F0007C0080917C00806480937C0080917A00C0
:103A0000846080937A0080917A00826080937A004B
:103A100080917A00806880937A00809164008F772B
:103A200080936400809164008B7F80936400809118
:103A300064008D7F80936400809165008E7F809309
:103A400065000895282F20959091D7039223909395
:103A5000D70380FF1EC080917A008F7780937A0011
:103A6000809164008160809364008091640080682C
:103A700080936400809164008460809364008091EE
:103A8000640082608093640080916500816080930F
:103A900065000895CF92DF92EF92FF921F93CF932C
:103AA000DF93EC0160E08E850E94A4190E94EF1B59
:103AB0006B017C011EE7115089F182E090E00E94C9
:103AC0006B1C0E94EF1B6C157D058E059F0520F475
:103AD0000E94EF1B6B017C018E850E94031A892BCB
:103AE000F9F40E94EF1B6C197D098E099F09643F50
:103AF000714081059105F8F213C00E94EF1B6B0124
:103B00007C011130C1F10E94EF1B6C197D098E09F7
:103B10009F09643F714081059105D0F010E02BC0F2
:103B200061E08E850E94A41960E08E850E94BD1917
:103B300084E591E00E946B1C0E94EF1B6B017C01ED
:103B40008E850E94031A11E0892BD9F210E0D9CF9B
:103B50008E850E94031A11E0892B09F010E089E09C
:103B600090E00E946B1C0E94EF1B6C157D058E057A
:103B70009F0538F6C2CF812FDF91CF911F91FF9023
:103B8000EF90DF90CF9008951F93CF93DF93FC01C8
:103B90001081C181D281912F9095F8948A818923D7
:103BA0008A838981812B898360FF0BC089E090E043
:103BB0000E946B1C8A81812B8A8378948FE290E02B
:103BC0000AC087E390E00E946B1C8A81812B8A8364
:103BD000789485E090E0DF91CF911F910C946B1C5D
:103BE0000F931F93CF93DF93FC011081C181D2818A
:103BF000F8948981812B89838A81012F0095802304
:103C00008A8382E090E00E946B1C898180238983F3
:103C100087E090E00E946B1CC88178948DE290E070
:103C20000E946B1C1C2381E009F480E0DF91CF919E
:103C30001F910F910895CF92DF92EF92FF920F9311
:103C40001F93CF93DF931F92CDB7DEB76C01E62EA3
:103C500008E010E0FF24F3949F2D9E2161E009F419
:103C600060E0C60149830E94C41DFF0C0150110988
:103C700049810115110581F7411115C0F894D6014C
:103C80001196ED91FC91129791818C9180958923E9
:103C900081831196ED91FC91129792818C91809580
:103CA0008923828378940F90DF91CF911F910F9198
:103CB000FF90EF90DF90CF900895FC01138615865A
:103CC0001486128611861086178216821582148237
:103CD00013820895CF93DF93EC01862F6E8760E007
:103CE0000E94A4198E8590E0FC01E458FC4FE491F9
:103CF000E883FC01E155FC4FE491F0E0EE51FC4F0C
:103D0000E491E9831A82CE01DF91CF910C945D1E7C
:103D1000FC019B018181843051F0883061F0823058
:103D200081F484E0769567958A95E1F70CC0CB0124
:103D30006FE170E003C0CB016FE370E00E943423B9
:103D400002C086810895862F668330872783089571
:103D50001F93CF93DF93EC01162F8A818E7F8A8386
:103D600069E170E08AEE92E00E94890E612F8AEE8E
:103D700092E00E94890F8AEE92E00E94B70F41E024
:103D800050E069E170E08AEE92E00E94F10F8AEE65
:103D900092E00E948B0E882339F08AEE92E00E9416
:103DA000910E282F30E005C08A8181608A832FEF31
:103DB0003FEFC901DF91CF911F9108950F931F939A
:103DC000CF93DF93EC01162F042F8A818D7F8A8396
:103DD00069E170E08AEE92E00E94890E612F8AEE1E
:103DE00092E00E94890F602F8AEE92E00E94890F74
:103DF0008AEE92E00E94B70F612FCE010E94A81EAA
:103E0000402F50E08417950729F08A8182608A83C9
:103E100080E001C081E0DF91CF911F910F91089563
:103E2000CF93DF93EC0140E062E20E94DE1E61E38B
:103E3000CE010E94A81E61E070E080E090E00E9448
:103E4000D9081D828A81DF91CF910895CF93DF93A6
:103E5000EC010E94101F44E062E2CE010E94DE1ECF
:103E600041E262E3CE010E94DE1E40E063E3CE0148
:103E70000E94DE1E4FEF60E3CE010E94DE1E61E075
:103E800070E080E090E00E943C0884E08D838A81AD
:103E9000DF91CF910895CF93DF93EC0140E062E290
:103EA0000E94DE1E61E3CE010E94A81E61E070E068
:103EB00080E090E00E94D9081D828A81DF91CF9135
:103EC0000895CF93DF93EC010E944B1F44E062E220
:103ED000CE010E94DE1E40E362E3CE010E94DE1EA0
:103EE00040E063E3CE010E94DE1E4FE760E3CE01B7
:103EF0000E94DE1E61E070E080E090E00E943C08DD
:103F000083E08D838A81DF91CF910895CF93DF93F2
:103F1000EC0140E062E20E94DE1E61E3CE010E94FD
:103F2000A81E61E070E080E090E00E94D9081D8248
:103F30008A81DF91CF9108950F931F93CF93DF93E1
:103F4000EC018B010E94861F40E062E2CE010E94DC
:103F5000DE1EB801CE010E94881E482F62E3CE010A
:103F60000E94DE1E40E063E3CE010E94DE1E44E0BC
:103F700061E2CE010E94DE1E4AE260E3CE010E94B1
:103F8000DE1E61E070E080E090E00E943C0882E08C
:103F90008D838A81DF91CF911F910F910895FC014C
:103FA000678170850C949C1FCF93DF93EC0140E0F8
:103FB00062E20E94DE1E61E3CE010E94A81E61E063
:103FC00070E080E090E00E94D9081D828A81DF9134
:103FD000CF9108951F93CF93DF93EC01162F688341
:103FE0006430E1F030F4623081F0B0F4613021F5FA
:103FF00006C06630B9F0A0F06730F1F415C047E2B2
:1040000060E20E94DE1E1C8305C040E060E20E9468
:10401000DE1E1C8281E011C047E407C047E605C0F0
:1040200047E803C047EA01C047EC60E2CE010E94C6
:10403000DE1E81E08C8301C080E0DF91CF911F9173
:104040000895CF93DF93EC0140E861E20E94DE1E09
:1040500061E070E080E090E00E94411C40E061E29D
:10406000CE01DF91CF910C94DE1E0F931F93CF935F
:10407000DF93EC018B010E94212064E670E080E078
:1040800090E00E94411CCE010E94D41F40E061E2FA
:10409000CE010E94DE1E44E062E2CE010E94DE1EDE
:1040A000B801CE010E94881E482F62E3CE010E9413
:1040B000DE1E43E063E3CE010E94DE1E45E960E3BD
:1040C000CE010E94DE1E81E08D8361E070E080E021
:1040D00090E00E943C088A81DF91CF911F910F915F
:1040E0000895FC01678170850C9435201F93CF9350
:1040F000DF93EC01162F8091F002811104C08AEE4B
:1041000092E00E945C0E81E0888361E0CE010E9413
:10411000EA1F1983143031F0183031F0123049F4AD
:1041200040E003C040E101C040E363E2CE010E94F1
:10413000DE1E61E08BE20E94A41960E08BE2DF9159
:10414000CF911F910C94BD19FC0161810C947620D4
:104150001092DD0382E08093D9038CE18093DE032B
:1041600080EC91E09093E0038093DF030895FC01DD
:10417000128A118E138EDC01A356BE4F89E111966F
:104180008C93119714961C92DF01AE55BE4F1C9272
:1041900012961C92E956FE4F11821082089581EE0C
:1041A00093E00C94B72061E08EE10E94A41961E0D5
:1041B0008FE10E94A41961E08DE10E94A41960E0E2
:1041C0008EE10E94BD1960E08FE10E94BD1961E09F
:1041D0008DE10E94BD198CB580618CBD8CB5806469
:1041E0008CBD08958CB58F7B8CBD0895811103C063
:1041F0008CB5806202C08CB58F7D8CBD08959CB556
:10420000937F982B9CBD08952CB5982F93702C7F8D
:10421000922B9CBD9DB580FB90F99DBD0895CF93D9
:10422000C62F61E08DE10E94A41961E082E20E9444
:10423000A41961E08DE10E94BD1961E082E20E9453
:10424000BD198091A3059091A405A091A505B091F9
:10425000A605A2FF08C061E088E00E94A41961E001
:1042600088E00E94BD198091A3059091A405A091BA
:10427000A505B091A60596FF08C061E089E00E94FF
:10428000A41961E089E00E94BD198091A305909175
:10429000A405A091A505B091A605A3FF08C061E003
:1042A00082E00E94A41961E082E00E94BD19809121
:1042B000A3059091A405A091A505B091A605A4FF22
:1042C00008C061E082E20E94A41961E082E20E94DB
:1042D000BD19C330C9F020F4C13061F070F407C0DB
:1042E000C53061F1F0F0C63009F067C033C060E05E
:1042F0008DE160C060E082E25DC089EE92E00E94E4
:10430000000D60E08CE256C08091A3059091A40559
:10431000A091A505B091A605A2FF4FC060E088E07E
:1043200049C08091A3059091A405A091A505B091E5
:10433000A60596FF42C060E089E03CC08091A305DD
:104340009091A405A091A505B091A605A3FF35C045
:1043500060E02FC061E08DE10E94BD1961E082E262
:104360000E94BD198091A3059091A405A091A50577
:10437000B091A605A2FF04C061E088E00E94BD19CB
:104380008091A3059091A405A091A505B091A605E3
:1043900096FF04C061E089E00E94BD198091A305E9
:1043A0009091A405A091A505B091A605A3FF05C015
:1043B00061E082E0CF910C94BD19CF9108951092E5
:1043C0009E0510929D0510929F051092A0051092D7
:1043D000A1051092A205089598D088F09F5790F0FB
:1043E000B92F9927B751A0F0D1F0660F771F881F1A
:1043F000991F1AF0BA95C9F712C0B13081F09FD059
:10440000B1E008959CC0672F782F8827B85F39F0F6
:10441000B93FCCF3869577956795B395D9F73EF478
:1044200090958095709561957F4F8F4F9F4F089520
:10443000E89409C097FB3EF490958095709561953E
:104440007F4F8F4F9F4F9923A9F0F92F96E9BB27F4
:104450009395F695879577956795B795F111F8CF70
:10446000FAF4BB0F11F460FF1BC06F5F7F4F8F4FDB
:104470009F4F16C0882311F096E911C0772321F0D1
:104480009EE8872F762F05C0662371F096E8862F69
:1044900070E060E02AF09A95660F771F881FDAF7C0
:1044A000880F9695879597F9089597F99F6780E803
:1044B00070E060E008959FEF80EC089500240A9476
:1044C0001616170618060906089500240A941216EF
:1044D0001306140605060895092E0394000C11F422
:1044E000882352F0BB0F40F4BF2B11F460FF04C0CF
:1044F0006F5F7F4F8F4F9F4F089557FD9058440F28
:10450000551F59F05F3F71F04795880F97FB991F32
:1045100061F09F3F79F087950895121613061406EF
:10452000551FF2CF4695F1DF08C01616170618067C
:10453000991FF1CF86957105610508940895E89457
:10454000BB2766277727CB0197F908950BD0C4CFF7
:10455000B5DF28F0BADF18F0952309F0A6CFABCF6E
:104560001124EECFCADFA0F3959FD1F3950F50E051
:10457000551F629FF001729FBB27F00DB11D639F15
:10458000AA27F00DB11DAA1F649F6627B00DA11DBB
:10459000661F829F2227B00DA11D621F739FB00D61
:1045A000A11D621F839FA00D611D221F749F3327D1
:1045B000A00D611D231F849F600D211D822F762F6A
:1045C0006A2F11249F5750408AF0E1F088234AF067
:1045D000EE0FFF1FBB1F661F771F881F91505040B3
:1045E000A9F79E3F510570F060CFAACF5F3FECF373
:1045F000983EDCF3869577956795B795F795E7959F
:104600009F5FC1F7FE2B880F911D9695879597F9AF
:104610000895A29FB001B39FC001A39F01D0B29F94
:10462000700D811D1124911D08950E940923A59FDD
:10463000900DB49F900DA49F800D911D112408959D
:10464000B7FF0C9415230E941523821B930B08952A
:10465000991B79E004C0991F961708F0961B881FD4
:104660007A95C9F780950895AA1BBB1B51E107C035
:10467000AA1FBB1FA617B70710F0A61BB70B881FF2
:10468000991F5A95A9F780959095BC01CD01089581
:1046900097FB072E16F4009407D077FD09D00E94EF
:1046A000342307FC05D03EF4909581959F4F0895E3
:1046B000709561957F4F0895A1E21A2EAA1BBB1B2E
:1046C000FD010DC0AA1FBB1FEE1FFF1FA217B307DE
:1046D000E407F50720F0A21BB30BE40BF50B661FF4
:1046E000771F881F991F1A9469F7609570958095B8
:1046F00090959B01AC01BD01CF010895052E97FB5C
:1047000016F4009407D057FD0DD00E945C2307FCDF
:1047100009D07EF490958095709561957F4F8F4F6D
:104720009F4F089550954095309521953F4F4F4F9D
:104730005F4F0895689401C0E8948F929F92CF9341
:10474000DF930E94A823DF91CF919F908F900895CF
:1047500088249924F401E401B0E49F93AA279A15D0
:104760008B049C04ED05FE05CF05D007A10798F446
:10477000AD2FDC2FCF2FFE2FE92D982C892E982FCF
:10478000872F762F652F542F432F322F2227B85093
:1047900031F7BF9127C01B2EBF91BB27220F331FBC
:1047A000441F551F661F771F881F991F881C991C5F
:1047B000EE1FFF1FCC1FDD1FAA1FBB1F8A149B0407
:1047C000EC05FD05CE05DF05A007B10748F08A1806
:1047D0009B08EC09FD09CE09DF09A00BB10B216094
:1047E0001A94E1F62EF49401AF01BE01CD01000C44
:1047F00008950F930F7351F0220F331F441F551F5D
:10480000661F771F881F991F0A95B1F70F910895AA
:104810002A0D3B1D4C1D5D1D6E1D7F1D801F911FB0
:1048200008950790F691E02D09948F929F92AF9290
:10483000BF92CF92DF92EF92FF92CF93DF93EC0182
:10484000688179818A819B81611571058105910556
:1048500021F464E279ED8BE597E02DE133EF41E05F
:1048600050E00E947E2349015A019B01AC01A7EA56
:10487000B1E40E9415236B017C01ACEEB4EFA501FD
:1048800094010E942323C60ED71EE81EF91EF7FED0
:1048900006C081E0C81AD108E10880E8F80AC88299
:1048A000D982EA82FB82E894D7F8EE24FF24C6017D
:1048B000DF91CF91FF90EF90DF90CF90BF90AF90BE
:1048C0009F908F9008950C94152486E092E00C94AC
:1048D0001524A0E0B0E08093060290930702A09315
:1048E0000802B09309020895FB01DC0105900D92C6
:1048F0000020E1F70895FB01DC010D900020E9F7AD
:10490000119701900D920020E1F70895FB0151915C
:104910005523A9F0BF01DC014D9145174111E1F785
:1049200059F4CD010190002049F04D9140154111FD
:10493000C9F3FB014111EFCF81E090E001970895A9
:104940000F931F93CF93DF93CDB7DEB72E970FB69C
:10495000F894DEBF0FBECDBF0D891E898F89988D5B
:1049600026E02C831A83098397FF02C080E090E839
:1049700001979E838D83CE014B96AC01698D7A8D14
:10498000CE0101960E94FF244D815E8157FD0AC031
:104990002F813885421753070CF49A01F801E20F72
:1049A000F31F10822E960FB6F894DEBF0FBECDBF58
:1049B000DF91CF911F910F910895CF93DF93CDB7E2
:1049C000DEB72E970FB6F894DEBF0FBECDBF85E0E1
:1049D0008C838B899C899A838983CE014796AC010D
:1049E0006D897E89CE0101960E94B2282E960FB65F
:1049F000F894DEBF0FBECDBFDF91CF9108952F9207
:104A00003F924F925F926F927F928F929F92AF925E
:104A1000BF92CF92DF92EF92FF920F931F93CF93AB
:104A2000DF93CDB7DEB72C970FB6F894DEBF0FBE7D
:104A3000CDBF7C016B018A01FC0117821682838144
:104A400081FFC6C188248394912C8C0E9D1EF70192
:104A50009381F60193FD859193FF81916F018823E6
:104A600009F4B2C1853239F493FD859193FF8191A8
:104A70006F01853229F4B70190E00E94652AE7CFE3
:104A8000512C312C20E02032A8F48B3261F028F434
:104A9000803251F0833271F40BC08D3239F08033A3
:104AA00049F4216028C02260246025C0286023C00A
:104AB000206121C027FD27C0382F30533A3078F4C9
:104AC00026FF06C0FAE05F9E300D1124532E13C05E
:104AD0008AE0389E300D1124332E20620CC08E32B5
:104AE00021F426FD71C1206406C08C3611F42068C3
:104AF00002C0883641F4F60193FD859193FF8191C0
:104B00006F018111C0CF982F9554933018F09052B7
:104B1000933028F40C5F1F4FFFE3F9830DC08336F9
:104B200031F0833771F0833509F05EC023C0F8019E
:104B3000808189830E5F1F4F44244394512C54017C
:104B400015C03801F2E06F0E711CF801A080B18031
:104B500026FF03C0652D70E002C06FEF7FEFC50137
:104B60002C870E941A2A2C0183012C856FE7262EA0
:104B7000222218C03801F2E06F0E711CF801A080EB
:104B8000B18026FF03C0652D70E002C06FEF7FEF9C
:104B9000C5012C870E940F2A2C012C8550E8252E58
:104BA000222A830123FC1CC006C0B70180E290E0EA
:104BB0000E94652A3A94832D90E048165906A8F37E
:104BC0000FC0F50127FC859127FE81915F01B70198
:104BD00090E00E94652A31103A94F1E04F1A510892
:104BE0004114510471F7EDC0843611F0893641F556
:104BF000F80127FF07C060817181828193810C5F7A
:104C00001F4F08C060817181882777FD8095982F9C
:104C10000E5F1F4F4FE6B42EB22297FF09C090954A
:104C20008095709561957F4F8F4F9F4FF0E8BF2A19
:104C30002AE030E0A4010E94AC2AA82EA81843C0A4
:104C4000853731F43FEEB32EB2222AE030E024C0A3
:104C500099EFB92EB2228F36B9F020F4883509F0D9
:104C6000B3C00DC0803721F0883709F0ADC002C055
:104C700020E1B22AB4FE0BC084E0B82A08C024FFA9
:104C800009C0E6E0BE2A06C028E030E005C020E109
:104C900030E002C020E132E0F801B7FE07C06081D9
:104CA0007181828193810C5F1F4F06C06081718189
:104CB00080E090E00E5F1F4FA4010E94AC2AA82E56
:104CC000A818FFE7BF22B6FE0BC02B2D2E7FA51420
:104CD00050F4B4FE0AC0B2FC08C02B2D2E7E05C0D5
:104CE0007A2C2B2D03C07A2C01C0752C24FF0DC00B
:104CF000FE01EA0DF11D8081803311F4297E09C087
:104D000022FF06C07394739404C0822F867809F042
:104D1000739423FD14C020FF0FC05A2C731460F449
:104D2000530C5718732C08C0B70180E290E02C8711
:104D30000E94652A73942C857314B0F304C0731415
:104D400010F4371801C0312C24FF12C0B70180E3E2
:104D500090E02C870E94652A2C8522FF1EC021FF2F
:104D600003C088E590E002C088E790E0B7010CC07E
:104D7000822F867891F021FD02C080E201C08BE293
:104D800027FD8DE2B70190E00E94652A06C0B701B9
:104D900080E390E00E94652A5A94A514C0F3AA9477
:104DA000F401EA0DF11DB701808190E00E94652AAF
:104DB000A110F5CF06C0B70180E290E00E94652AFD
:104DC0003A943110F8CF43CEF7012681378102C0E3
:104DD0002FEF3FEFC9012C960FB6F894DEBF0FBE40
:104DE000CDBFDF91CF911F910F91FF90EF90DF909A
:104DF000CF90BF90AF909F908F907F906F905F907B
:104E00004F903F902F90089520FD09C0FC0123FD95
:104E100005C022FF02C073836283518340830895DB
:104E2000CF92DF92EF92FF920F931F9344FD10C039
:104E300046FD10C0DB01FC01AA0FBB1FEE1FFF1FC8
:104E40001094D1F76A0F7B1F8E1F9F1F31E003C0A4
:104E500033E001C034E0660F771F881F991F31507F
:104E6000D1F76B017C01C20ED11CE11CF11C970132
:104E70008601B601C9011F910F91FF90EF90DF905D
:104E8000CF9008950F931F93CF93DF938C01C801A8
:104E90000E94252AEC0197FD08C00E94FC29892B5D
:104EA000B1F7B801CE010E94912ACE01DF91CF91D6
:104EB0001F910F9108958F929F92AF92CF92DF92A0
:104EC000EF92FF920F931F93CF93DF93EC01A62EE7
:104ED0004A01022F0E94252AAC0155274B32510569
:104EE00021F04D32510551F40068AA9411F480E08C
:104EF00063C0CE010E94252A97FDF9CF102F1D7F98
:104F0000302F3073E1F48033D1F4AA9409F440C017
:104F1000CE010E94252A97FD3BC0883711F08835C5
:104F200049F41264AA94A1F1CE010E94252A97FFA8
:104F300006C02EC006FF02C0126001C01261C12C63
:104F4000D12C7601282F2053283080F014FF04C084
:104F5000BE010E94912A19C02A3040F016FFF8CFF6
:104F60002F7D322F3151363098F72750412FC7010E
:104F7000B6010E9410276B017C011260AA9459F0BF
:104F8000CE010E94252A97FFDDCF11FD04C0AFCFCF
:104F9000C12CD12C760117FF08C0F094E094D09476
:104FA000C094C11CD11CE11CF11C212FB701A6012A
:104FB000C4010E94042781E0DF91CF911F910F91DE
:104FC000FF90EF90DF90CF90AF909F908F900895DB
:104FD0006F927F929F92AF92BF92CF92DF92EF92A9
:104FE000FF920F931F93CF93DF93CDB7DEB7A197B7
:104FF0000FB6F894DEBF0FBECDBF6C017A018901F8
:10500000FE01319680E2DF011D928A95E9F7D60113
:1050100013969C9020E030E0A12CA0E0B12CCF01B1
:1050200041E050E0F80193FC759193FE71918F017E
:10503000711103C000E010E080C07E3519F4211525
:10504000310559F1EB2DF0E0E217F3073CF47D3523
:1050500069F17D3219F4AA2319F103C0A11101C02D
:10506000A72EE72FE695E695E6953C016E0E711C9E
:10507000F301A72FA7703A0102C0660C771CAA950E
:10508000E2F7D301B081BA2BB0837A1559F07A15C3
:1050900010F47F5FE6CF7150E4CFBB24B39403C01C
:1050A000A1E001C0A0E02F5F3F4FBCCFAA2319F0C1
:1050B0008E8180628E83B11003C0BB24B3940BC079
:1050C000FE013196CE018196208120952193E8172B
:1050D000F907D1F7F2CFC60169A30E94252A69A179
:1050E00097FD24C0282F269526952695E1E0F0E02F
:1050F000EC0FFD1FE20FF11D208130E0AC01477085
:10510000552702C0359527954A95E2F720FD04C042
:10511000B6010E94912A0AC0E114F10419F0D701E6
:105120008D937D016150B12CB1F602C0B11082CFD8
:10513000E114F10411F0F7011082C801A1960FB635
:10514000F894DEBF0FBECDBFDF91CF911F910F91BD
:10515000FF90EF90DF90CF90BF90AF909F907F90A7
:105160006F9008954F925F927F928F929F92AF922D
:10517000BF92CF92DF92EF92FF920F931F93CF9344
:10518000DF931F92CDB7DEB78C012B017A01FC01B2
:1051900017821682A12CF0C08C2D90E00E94FC2971
:1051A000892B21F0C8010E944227E6C0F5E2CF1208
:1051B0000AC0F201D3FC3591D3FE31912F01353273
:1051C00071F455E2C52EC8010E94252A97FDDFC063
:1051D000C81609F4D1C0B8010E94912ADAC03A3247
:1051E00041F4D3FC3591D3FE31912F01BB24B3940C
:1051F00001C0B12C712C10C0F2E0BF2A672D70E005
:1052000080E090E040E20E941027762EF201D3FC6D
:105210003591D3FE31912F01232F20532A3060F393
:10522000B1FE03C0711003C0B4C077247A9438363D
:1052300019F03C3699F40AC0F201D3FC3591D3FE43
:1052400031912F01383651F4F8E0BF2A84E0B82AB2
:10525000F201D3FC3591D3FE31912F01332309F4B0
:1052600098C0632F70E08AEF93E039830E94042A8C
:105270003981892B09F48DC0B0FC07C0F701C080CB
:10528000D18082E0E80EF11C02C0C12CD12C3E3648
:1052900051F4F8014681578160E070E02B2DC60182
:1052A0000E94042769C0333691F4B1FC02C0772410
:1052B0007394C8010E94252A97FD69C0C114D104C6
:1052C00019F0F60181936F017A9499F753C03B3539
:1052D00059F49201A601672DC8010E94E8272C010C
:1052E000009709F047C041C0C80139830E94422796
:1052F000398197FD4CC03F3659F128F4343629F1F5
:10530000393649F52AC0333719F0353721F51DC034
:10531000C8010E94252A4C0197FD11C00E94FC295A
:10532000892B29F0B801C4010E94912A08C0C11438
:10533000D10419F0F60181926F017A9449F7C114F2
:10534000D104C1F0F601108215C0F0E2BF2A05C0F9
:1053500080E1B82A02C090E4B92A2B2DA601672D5E
:10536000C8010E945B27811105C0F8018381807309
:1053700071F40FC0B0FEA394F801D380F201D3FC06
:10538000C590D3FEC1902F01C11006CF02C0AA2044
:1053900019F02A2D30E002C02FEF3FEFC9010F9026
:1053A000DF91CF911F910F91FF90EF90DF90CF9001
:1053B000BF90AF909F908F907F905F904F90089597
:1053C000F999FECF92BD81BDF89A992780B50895CD
:1053D000A6E1B0E044E050E00C940C2B262FF999A4
:1053E000FECF1FBA92BD81BD20BD0FB6F894FA9AC8
:1053F000F99A0FBE0196089591111CC1803219F0DF
:1054000089508550D0F70895FC010590061621F0CB
:105410000020D9F7C00108953197CF010895FC010C
:105420000590615070400110D8F7809590958E0FCF
:105430009F1F0895FC016150704001900110D8F742
:10544000809590958E0F9F1F0895CF93DF93EC0169
:105450003B8130FF34C036FF0AC03F7B3B838E81E7
:105460009F8101969F838E832A8130E02AC032FF7C
:105470000FC0E881F9818081992787FD9095009779
:1054800019F430623B831BC03196F983E8830EC068
:10549000EA85FB85099597FF09C02B81019611F4D8
:1054A00080E101C080E2822B8B8309C02E813F8185
:1054B0002F5F3F4F3F832E839C01332702C02FEF86
:1054C0003FEFC901DF91CF9108950F931F93CF93C1
:1054D000DF938C01EB018B8181FD03C00FEF1FEF88
:1054E0001AC082FF0DC02E813F818C819D812817BB
:1054F000390764F4E881F9810193F983E88306C0F0
:10550000E885F985802F0995892B41F78E819F8148
:1055100001969F838E83C801DF91CF911F910F91D8
:105520000895FB01238120FF13C026FD11C08F3F8A
:105530003FEF930769F082832F7D206423832681C8
:10554000378121503109378326839C01332702C0DC
:105550002FEF3FEFC9010895FA01AA27283051F132
:10556000203181F1E8946F936E7F6E5F7F4F8F4F94
:105570009F4FAF4FB1E03ED0B4E03CD0670F781FF3
:10558000891F9A1FA11D680F791F8A1F911DA11DD8
:105590006A0F711D811D911DA11D20D009F4689411
:1055A0003F912AE0269F11243019305D3193DEF6B9
:1055B000CF010895462F4770405D4193B3E00FD06F
:1055C000C9F7F6CF462F4F70405D4A3318F0495D5A
:1055D00031FD4052419302D0A9F7EACFB4E0A6953D
:1055E0009795879577956795BA95C9F7009761055F
:1055F000710508959B01AC010A2E069457954795B5
:1056000037952795BA95C9F7620F731F841F951FA9
:10561000A01D0895DC01CB01FC01F999FECF06C065
:10562000F2BDE1BDF89A319600B40D924150504060
:0E563000B8F70895992788270895F894FFCFBA
:10563E000000BD092000010000000131323A303770
:10564E003A31373A30323A31373A32353A30300031
:10565E0030303A30303A30313A30300053756E00D7
:10566E004D6F6E0054756500576564005468750083
:10567E004672690053617400496E76616C696420EC
:10568E00474D542076616C7565003A3A3A3A3A3A8B
:02569E0000000A
:00000001FF
