:100000000C945F050C949C2B0C94CD2B0C94FE2B24
:100010000C942F2C0C94602C0C94912C0C94C22CCE
:100020000C94F32C0C948E050C948E050C948E0578
:100030000C94D90D0C948E050C948E050C94350EF1
:100040000C948E050C948E050C948E050C948E05E4
:100050000C948E050C948E050C948E050C94100E49
:100060000C948E050C94B6100C948E050C948E0591
:100070000C948E050C948E050C948E050C948E05B4
:100080000C948E050C948E050C948E050C948E05A4
:100090000C94F1100C948E050C948E050C946C2A23
:1000A0000C948E050C948E050C948E050C948E0584
:1000B0000C948E050C948E050C948E050C948E0574
:1000C0000C948E050C948E050C948E0553445F3071
:1000D00037206578616D706C6500706174682063AD
:1000E000726561746564006D6B6469722066616934
:1000F0006C6564002F646174612F6C6F672063729C
:100100006561746564002F646174612F6C6F672092
:100110006E6F742063726561746564004672616D10
:100120006520617070656E64656420746F20666917
:100130006C6500417070656E64206661696C656411
:10014000004765742070726576696F75736C7920ED
:1001500073746F726564206672616D653A008A041B
:100160008D049104940498049C04A004A404A8049D
:10017000AB04AF04B204B604BA04BE04C304C6049C
:10018000C904CE04D204D704DA04DD04E104E50492
:10019000E804EC04F004F404F704FC04FF04020592
:1001A000050509050D05120518051D052005240581
:1001B00027052A052D053005340537053B053F0584
:1001C0004205450548054B054F05530558055C0597
:1001D0005F05630568056D05710575057D0581057C
:1001E00088058C05900596059A059D05A005A40532
:1001F000A705AC05AF05B405B905BD05C205C70522
:10020000CB05D105D505DB05E105E805EE05F405CF
:10021000F80501060B060F06140619061E0622062F
:1002200027062C06310638063F0646064D065306BD
:1002300059065F0663066A06700676067C06820625
:1002400087068C06910696069B06A006A706AE06B4
:10025000B506BA06BF06C306C806CD06D306D9063C
:10026000E006E606ED06F306FA06010708070F07A3
:1002700015071C0722072907300737073D074407E2
:100280004A07500757075F076207650767076B074D
:10029000710776077B07810787078D079307990703
:1002A0009F07A507AB07B107B707BD07C207C70779
:1002B000CC07D207D807020202020202020202029F
:1002C000020202020202020200000000020002001A
:1002D0000002020202010002020202020202020203
:1002E00002020200020202020202000201030303F0
:1002F00000000101020104030303030302020202DE
:1003000002020202020202020202020000000402D1
:1003100002020202020002020202020202020202BF
:1003200002020202020200000000000000000002BF
:1003300002040200000002020202020202020202A1
:10034000020202020202020202020202020202028D
:10035000020202020202020202020202020202027D
:1003600002024552522073656E736F722074797069
:100370006520262076616C7565206D69736D6174EA
:1003800063682C200020767320004552522073654C
:100390006E736F72207479706520262076616C759B
:1003A00065206D69736D617463682C20002076731D
:1003B000200001010101010101010101010101010F
:1003C000010101010101010101010101010101011D
:1003D000010301010101010101010101010101010B
:1003E00001010101010101020101010103030101F8
:1003F00001030101010101010101010101010101EB
:1004000001010101010101010303010101010101D8
:1004100001010101010101010101010101010101CC
:1004200001010101010101010101010101010101BC
:1004300001010101010101010101010101010101AC
:10044000010101010101010101010101020101019B
:1004500001010101010101010101010101014552F7
:10046000522073656E736F72207479706520262038
:100470006E756D626572206F66206669656C647367
:10048000206D69736D6174636800434F00434F32A0
:10049000004F3200434834004C5047004E48330070
:1004A00041503100415032005356004E4F32004F00
:1004B0003300564F430054434100544641004855D1
:1004C0004D410050410050570042454E44005642B5
:1004D000520048414C4C004C50004C4C004C554D87
:1004E00000504952005354004D43500043444700CC
:1004F000435047004C440044555354005553004D5D
:100500004600505300544342005446420048554D63
:100510004200534F494C5400534F494C004C570034
:100520005041520055560054440053440046440084
:10053000414E4500575600504C560052414400432E
:1005400055005746004C4300444600424154004782
:1005500050530052535349004D4143004E41004E09
:10056000494400444154450054494D4500474D54C9
:100570000052414D00494E5F54454D5000414343A8
:10058000004D494C4C495300535452004D425400C5
:100590004D574946490055494400524200504800D1
:1005A0004F525000444F00434F4E440057540044B4
:1005B000494E4100444943410044494600444943AF
:1005C0004C00444942520044494900444943553291
:1005D0000044494B0044494D47320044494E4F3393
:1005E0000054585F50575200444D5F535400444DDF
:1005F0005F5350004C55580053504545445F4F479A
:1006000000434F555253455F4F4700414C540048FB
:10061000444F500056444F500050444F50004653F2
:100620004D00504C563100504C563200504C563311
:1006300000534F494C5F4300534F494C5F440053B4
:100640004F494C5F4500534F494C5F4600534F495B
:100650004C3100534F494C3200534F494C330054F6
:1006600043430055535F3356330055535F355600AF
:100670004C554D5F44004C554D5F45004C554D5F0A
:1006800046004C505F44004C505F45004C505F4664
:10069000004C4C5F44004C4C5F45004C4C5F4600A6
:1006A00048414C4C5F440048414C4C5F4500484138
:1006B0004C4C5F460057465F430057465F45005429
:1006C000535400545552420056415049005650521E
:1006D0004F470056424F4F540047505F434C320043
:1006E00047505F434F0047505F45544F0047505FAE
:1006F00048320047505F4832530047505F48434CF0
:100700000047505F48434E0047505F4E4833004714
:10071000505F4E4F0047505F4E4F320047505F4F83
:10072000320047505F5048330047505F534F32000C
:1007300047505F4348340047505F4F330047505F96
:10074000434F320047505F54430047505F544600C8
:1007500047505F48554D0047505F50524553005435
:1007600043005446005000504D3100504D325F352B
:1007700000504D31300050415254005357494341CD
:1007800000535749464C0053574946420053574976
:100790004E4F00535749425200535749434C005360
:1007A0005749435500535749494F00535749504201
:1007B0000053574941470053574950480050485F3C
:1007C000410050485F420050485F43004F52505F25
:1007D00041004F52505F42004F52505F43000608A5
:1007E0001A084008670887089F08AD08BD08D208A6
:1007F000E808F90805090C09290947095D096B0989
:100800007B099E09A409416C61726D204D6F64657E
:10081000206D61746368657320005B446179203AE0
:1008200020686F757273203A206D696E75746573F8
:10083000203A207365636F6E64735D202D3E200047
:100840005B44617465203A20686F757273203A20AA
:100850006D696E75746573203A207365636F6E649D
:10086000735D202D3E20005B486F757273203A2027
:100870006D696E75746573203A207365636F6E647D
:10088000735D202D3E20005B4D696E75746573208D
:100890003A207365636F6E64735D202D3E20005BAC
:1008A0005365636F6E64735D202D3E20004F6E6351
:1008B0006520706572207365636F6E6400496E63B6
:1008C0006F727265637420616C61726D206D6F640C
:1008D00065005B253032753A253032753A25303265
:1008E000753A253032755D005B253032753A25301A
:1008F00032753A253032755D005B253032753A2508
:100900003032755D005B253032755D005B44617986
:10091000203A20686F757273203A206D696E757485
:100920006573205D202D3E20005B44617465203A94
:1009300020686F757273203A206D696E75746573E7
:10094000205D202D3E20005B486F757273203A2099
:100950006D696E757465735D202D3E20005B4D6979
:100960006E757465735D202D3E20004F6E636520AB
:10097000706572206D696E7574650025732C202575
:100980003032752F253032752F253032752C2025C9
:100990003032753A253032753A253032750065723D
:1009A000726F7200253032752563253032752563EC
:1009B0002530327525632530327525632530327533
:1009C0002563253032752563253032750000000817
:1009D000090000000000000000000000000000000E
:1009E0000000000000000000000000000000000007
:1009F00000000000000000000000000000000000F7
:100A00000102081010204080040810204002020457
:100A100008102040800102802040042001010204CF
:100A20000810200140804080010208040880041062
:100A30000402010505050503030303010101040484
:100A4000030606060606060606010405010501035F
:100A50000202020202020102020505040403040468
:100A600001030407070700202326292C2F32002228
:100A700025282B2E3134002124272A2D30337C3C8D
:100A80003E5E2B3D3F2F5B5D3B2C2A225C00496E76
:100A900076616C69642066696C656E616D6500499C
:100AA0006E76616C69642066696C656E616D650067
:100AB000D50D85145B1A9321B4232B25B828112456
:100AC0001FBECFEFD1E2DEBFCDBF13E0A0E0B2E0AA
:100AD000E0E7FEE800E00BBF02C007900D92AC35E6
:100AE000B107D9F71EE0ACE5B3E001C01D92AE3D01
:100AF000B107E1F71AE0CEEBDAE000E006C022979A
:100B00000109FE010BBF0E942C43C03BD10780E0CE
:100B10000807A9F70E941D120C9436470C94000098
:100B200082EE97E00E94C1236CEC70E082EE97E0C9
:100B30000E94C02480E296E00E944C1C64E172E0B6
:100B400080E296E00E94492180935C03813019F491
:100B50006AED70E002C067EE70E082EE97E00E94FE
:100B6000C0246AE072E080E296E00E94F520809363
:100B70005C03813019F464EF70E002C066E071E05C
:100B800082EE97E00E94C02482E895E00C948114E4
:100B90004F925F926F927F929F92AF92BF92CF924D
:100BA000DF92EF92FF920F931F93CF93DF934BE16E
:100BB00052E061E086EC94E00E94C80D48E252E009
:100BC00061E486EC94E00E946F098BE895E00E9456
:100BD000F714482F50E064E386EC94E00E94B30AD7
:100BE00082E895E00E946F138C0182E895E00E94F4
:100BF0009813EC0182E895E00E94C1139E01AC01BC
:100C00006FE386EC94E00E94090886EC94E00E9471
:100C1000D00688ECEEEFF3E0DF011D928A95E9F74C
:100C200020917305AF016CED74E087EE97E00E94B0
:100C30008A2663E372E082EE97E00E9418256EEF49
:100C400073E082EE97E00E949D244EEF53E06AE04D
:100C500072E080E296E00E948B2080935C038130FA
:100C600019F46CE171E002C063E371E082EE97E099
:100C70000E94C0246AE072E080E296E00E94D11FE8
:100C800060936103709362038093630390936403A2
:100C9000EB012197D0936003C0935F0370935E03D1
:100CA00060935D03C12CD12C76012E01662457FC84
:100CB0006094762C87E6A82E83E0B82E97E9992ECB
:100CC00047C0A7019601240D351D461D571D01E0A3
:100CD00010E06AE072E080E296E00E94A11DF5015A
:100CE000892D11928A95E9F747E653E063E576E0AE
:100CF00087EE97E00E94EA2690936603809365034F
:100D000061E471E082EE97E00E94382407E613E088
:100D10000CC0D8014D918D0150E060E070E020E002
:100D200030E082EE97E00E94DE249801275633409F
:100D300080916503909166032817390750F382EE7E
:100D400097E00E94B324BFEFCB1ADB0AEB0AFB0A41
:100D50009E012C0D3D1D80915D0390915E0328172F
:100D600039070CF4AECF82EE97E00E94B32482EEF6
:100D700097E00E94B32460ED77E080E090E0DF919F
:100D8000CF911F910F91FF90EF90DF90CF90BF9088
:100D9000AF909F907F906F905F904F900C94AC0EAF
:100DA000EF92FF920F931F93CF93DF93EC0182EEAC
:100DB00097E00E94E1230FE110E060E08DE30E94E4
:100DC0002C1101501109C9F760E08DE00E942C112F
:100DD00060E08AE00E942C118A81813021F460E079
:100DE00087E492E00CC0811104C060E085E592E0E8
:100DF00006C0823009F09AC060E084E692E00E946A
:100E0000391160E086E792E00E94391160E080E8E5
:100E100092E00E9439117E018DEAE80EF11CF70183
:100E20006081718180E090E000E02AE030E040E005
:100E300050E00E94491160E08DE00E942C1160E0BA
:100E40008AE00E942C1160E089E892E00E9439114A
:100E5000698D70E080E090E02AE030E040E050E012
:100E60000E94491160E08DE00E942C1160E08AE050
:100E70000E942C1160E087E992E00E94391100E0A5
:100E800010E009C0FE01E00FF11F60E086890E94BA
:100E9000D4110F5F1F4FF701808191810817190747
:100EA00088F360E08DE00E942C1160E08AE00E94EF
:100EB0002C1160E085EA92E00E943911E12CF12CBE
:100EC0008E0103551F4F0AC0FE01EE0DFF1D60E0AD
:100ED00086890E942C11FFEFEF1AFF0AF80180812A
:100EE0009181E816F90680F360E08DE00E942C11F4
:100EF00060E08AE00E942C11CFE1D0E060E08DE359
:100F00000E942C112197D1F760E08DE00E942C11F6
:100F100060E08AE00E942C1182EE97E0DF91CF9191
:100F20001F910F91FF90EF900C940F24DF91CF91C0
:100F30001F910F91FF90EF900895CF93DF93C42FEF
:100F400070E0FB01EA54FD4F85919491D82F8130D8
:100F5000A9F44230B0F162E673E082EE97E00E94BD
:100F600038242AE030E041E050E060E070E082EEBA
:100F700097E00E94DE2465E873E014C0841709F14D
:100F80006AE873E082EE97E00E9438244D2F50E02B
:100F900060E070E02AE030E082EE97E00E94DE241C
:100FA0006DEA73E082EE97E00E9438244C2F50E007
:100FB00060E070E02AE030E082EE97E00E9460247A
:100FC0000DC0FB01EE54FC4F85919491281741F020
:100FD0006EE574E082EE97E00E94C0248FEF01C0BE
:100FE00081E0DF91CF910895FC01E355FF4F20810F
:100FF0003181620F731FDC0113968D919C911497C0
:101000008617970720F07183608381E0089580E060
:1010100008952F923F924F925F926F927F928F929C
:101020009F92AF92BF92CF92DF92EF92FF920F9377
:101030001F93CF93DF93CDB7DEB7AA970FB6F8947F
:10104000DEBF0FBECDBF7C01962E5A016901FC01A7
:101050008281813009F0EFC0E62FF0E0EE0FFF1F34
:10106000E25AFE4F85919491BC0166246394712CE1
:101070006C0E7D1EC3010E948F434E01FFE18F0E57
:10108000911C4AE050E0B401C5010E94E8435E01B2
:1010900045E1A40EB11C4AE050E0B501C6010E9432
:1010A000E8436E015BE0C50ED11C4AE050E0B6019A
:1010B000C8010E94E843F30101900020E9F7BF0155
:1010C0006150710966197709F40101900020E9F770
:1010D000CF01019788199909D5010D900020E9F7F2
:1010E0001197AA19BB09F60101900020E9F7319781
:1010F000EC19FD09680F791F6C5F7F4F6A0F7B1F2A
:101100006E0F7F1FC7010E94F407811101C09AC0B2
:10111000F701E355FF4F40805180D3010D9000202F
:10112000E9F71197A619B709F40101900020E9F732
:10113000CF01019788199909F50101900020E9F77D
:101140009F01215031092A193B09F6010190002025
:10115000E9F73197EC19FD098201081B190B021BF5
:10116000130B0E1B1F0B1201221A330A2E1A3F0AF1
:10117000A2014E1B5F0B5AA749A7E20FF31F920172
:101180002A1B3B0B281B390B2E1B3F0B2E5E3F4FA0
:101190002E0D3F1DAD01B301C9010E94A343F7010C
:1011A000E00FF11F8AE3828BF40101900020E9F740
:1011B0003197E819F9090D5E1F4F0E0D1F1DAF0184
:1011C000B401C8010E94A343F701E20DF31D1BE324
:1011D000138BF50101900020E9F73197EA19FB091B
:1011E00054E1250E311C2E0C3F1CAF01B501C1018D
:1011F0000E94A343E9A5FAA5EE0DFF1D148BF6018D
:1012000001900020E9F73197EC19FD0929A53AA5CD
:101210002B5E3F4F2E0D3F1DAF01B601C9010E944D
:10122000A343F701E40DF51D83E2858BF70181816E
:101230008F5F818336C023E041E0C7010E949D0794
:101240008F3F11F48FEF32C067E070E0C7010E945A
:10125000F4078823B9F3D701A355BF4F0D90BC9174
:10126000A02DAE0DBF1D1F969C921F975096AC925D
:1012700050975196BC9251975296CC925297539652
:10128000DC92539754960C93549755961C9355970C
:1012900056961C92F70181818F5F8183809173053F
:1012A0008550828FF701E355FF4F8081AA960FB6D4
:1012B000F894DEBF0FBECDBFDF91CF911F910F918C
:1012C000FF90EF90DF90CF90BF90AF909F908F9066
:1012D0007F906F905F904F903F902F9008955F9216
:1012E0006F927F928F929F92AF92BF92CF92DF9236
:1012F000EF92FF920F931F93CF93DF93CDB7DEB79B
:101300002A970FB6F894DEBF0FBECDBF8C01962E84
:10131000542E852EADB6BEB6E42FF52FDF010D900D
:101320000020E9F7AE1BBF0BA03981E0B80710F031
:10133000A0E9B1E06D0191E0C91AD108EDB7FEB79F
:10134000EA1BFB0B0FB6F894FEBF0FBEEDBFEDB668
:10135000FEB68FEFE81AF80A3701AD0160E070E0E1
:10136000C7010E94AC43A601652D782DC7010E94DC
:10137000D9436701D7012FE505C08C91833209F469
:101380002C931196F30101900020E9F73197E619AB
:10139000F709CD018C199D098E179F0770F3D801AD
:1013A00012968C91813009F075C0E92DF0E0EE0FB6
:1013B000FF1FE25AFE4F85919491BC01EE24E39405
:1013C000F12CEC0EFD1EC7010E948F43F701019026
:1013D0000020E9F7BF01615071096E197F09D3013F
:1013E0000D900020E9F71197A619B7096A0F7B1F26
:1013F0006E5F7F4FC8010E94F407811101C052C087
:10140000F801E355FF4FC080D180F7010190002023
:10141000E9F73197EE19FF09D3010D900020E9F7A4
:101420001197A619B70946018A1A9B0A96012E1B25
:101430003F0B2A1B3B0B2C5E3F4F200F311FAF0190
:10144000B701C9010E94A343F801E80DF91D8AE321
:10145000848BF30101900020E9F73197E619F70931
:1014600085E1880E911C800E911EAF01B301C4016D
:101470000E94A343F801EC0DFD1D83E2858BD8018A
:1014800011968C9111978F5F11968C9311975A96A4
:101490008C934AC021E043E0692DC8010E949D075A
:1014A0008F3F11F48FEF44C0D3010D900020E9F776
:1014B0007D0181E0E81AF108E618F708B7016E5FD0
:1014C0007F4FC8010E94F407882361F3F801E355B8
:1014D000FF4F20813181F30101900020E9F731971E
:1014E000E619F709C90102978E1B9F0BF801E80F57
:1014F000F91F968AE78A029608C0D6014D916D01C0
:10150000F801E80FF91F468B019682179307A8F39D
:10151000F801E20FF31F168AF80181818F5F818342
:10152000809173058550828FF801E355FF4F8081CC
:101530000FB6F894BEBE0FBEADBE2A960FB6F89495
:10154000DEBF0FBECDBFDF91CF911F910F91FF90F6
:10155000EF90DF90CF90BF90AF909F908F907F9053
:101560006F905F9008958F929F92AF92BF92CF92AB
:10157000DF92EF92FF920F931F93CF93DF93CDB73C
:10158000DEB764970FB6F894DEBF0FBECDBF8C01F7
:10159000F62E5A01FC018281813009F079C0E62FD4
:1015A000F0E0EE0FFF1FE25AFE4F85919491BC01CF
:1015B000CC24C394D12CCC0EDD1EC6010E948F43D7
:1015C0007E01FBE0EF0EF11C4AE050E0B701C501DF
:1015D0000E94E843F60101900020E9F7BF01615045
:1015E00071096C197D09D7010D900020E9F7119759
:1015F000AE19BF096A0F7B1F6E5F7F4FC8010E9443
:10160000F407811101C059C0F801E355FF4FA080D4
:10161000B180F60101900020E9F73197EC19FD093E
:10162000D7010D900020E9F71197AE19BF094501C8
:101630008A1A9B0A95012E1B3F0B2A1B3B0B2C5E23
:101640003F4F200F311FAF01B601C9010E94A343D4
:10165000F801E80DF91D8AE3848BF7010190002061
:10166000E9F73197EE19FF0985E1880E911C800E8C
:10167000911EAF01B701C4010E94A343F801EA0D16
:10168000FB1D83E2858BF80181818F5F81834EC0D2
:1016900021E04F3F510509F094F440E06F2DC8015F
:1016A0000E949D078F3F49F0EF2DF0E0EA54FD4F77
:1016B000859194918130E9F404C08FEF3CC041E002
:1016C000EDCF63E070E0C8010E94F4078823A9F31E
:1016D000F801E355FF4FA081B181A00FB11F5396D0
:1016E000FC9253975496AC9254975596BC9255974A
:1016F00014C062E070E0C8010E94F4078823E9F298
:10170000F801E355FF4FA081B181A00FB11F54969E
:10171000FC9254975596AC92559756961C92F801A8
:1017200081818F5F8183809173058550828FF8015D
:10173000E355FF4F808164960FB6F894DEBF0FBE6D
:10174000CDBFDF91CF911F910F91FF90EF90DF9070
:10175000CF90BF90AF909F908F9008958F929F925F
:10176000AF92BF92CF92DF92EF92FF920F931F93AF
:10177000CF93DF931F92CDB7DEB77C01162F33E9ED
:10178000C32ED12C60E0C60179830E9468468FEF9A
:10179000C81AD80A7981A3EACA16D10499F7C701F1
:1017A0000596FC0181E1DF011D928A95E9F7812E02
:1017B000972E03E910E05401F40160816701C00E27
:1017C000D11E633249F0C8010E946846D4018C9151
:1017D000F601EE58F10908C06FE5C8010E9468469D
:1017E000F601EE58F1098FE58083BFEF8B1A9B0A53
:1017F000F5018081882329F00F5F1F4F033A1105FF
:10180000D1F60F90DF91CF911F910F91FF90EF9044
:10181000DF90CF90BF90AF909F908F900895CF9220
:10182000DF92EF92FF920F931F93CF93DF936C01A0
:101830008B010596FC0181E1DF011D928A95E9F794
:101840007B01C3E9D0E0BE0187EE97E00E946625E8
:10185000F601EC0FFD1FEE58F1098083F70181932B
:101860007F012196C33AD10571F7D80150961C9299
:10187000DF91CF911F910F91FF90EF90DF90CF906C
:101880000895CF93DF93EC0160E083EA90E00E943B
:10189000684686E990E09C838B83BE016B5F7F4F37
:1018A00086EC94E0DF91CF910C940F0C63EA70E02A
:1018B00087EE97E00C946625AF92BF92CF92DF92AD
:1018C000EF92FF920F931F93CF93DF93CDB7DEB7C5
:1018D00064970FB6F894DEBF0FBECDBF8C01DC015C
:1018E00012966C934696FC0187E9DF011D928A955A
:1018F000E9F7F80111828CE3868B8DE3878B8EE309
:10190000808F8281813009F0C9C080E8818F128E7A
:1019100083E2838F6801FDEACF0ED11C86E090E060
:10192000D6018D939C9340917E0550917F056091E7
:101930008005709181057F936F935F934F9383EB45
:1019400092E09F938F931F9280E18F93EE24E39414
:10195000F12CEC0EFD1EFF92EF920E941844C7017D
:101960000FB6F894DEBF0FBECDBF9701D60111C0F0
:10197000FC016191CF016623C9F04D915C911197F3
:10198000F801E40FF51F668B4F5F5F4F11965C9374
:101990004E93F90101900020E9F73197E21BF30B18
:1019A000AC01421B530B4E175F0710F38D919C91B6
:1019B0001197F801E80FF91F23E2268B01968D930A
:1019C0009C9380E090E0F801E355FF4F4FE5D8018C
:1019D000A80FB91F15962C91211149C06801FDEA85
:1019E000CF0ED11CD6018D919C911197F801E80F73
:1019F000F91F43E2A42EA68A01968D939C93C801F9
:101A00000E94560CB82E7E01B1E1EB0EF11C4AE0AB
:101A100050E0B70190E00E94E843F70101900020F8
:101A2000E9F73197EE19FF09D6012D913C912A5E15
:101A30003F4F200F311FAF01B701C9010E94A343DF
:101A4000F70101900020E9F73197EE19FF09D6015F
:101A50008D919C91E80FF91FD801AE0FBF1F5696CC
:101A6000AC923196D601ED93FC936B2D63C0A081AF
:101A7000B181A00FB11F233219F456964C9302C0C6
:101A800056962C93208131812F5F3F4F31832083E5
:101A900001968031910509F09ACFA0CF811102C043
:101AA000F801118E20917F0590918005809181052C
:101AB00030917E05D8015B963C935B975C962C93A6
:101AC0005C975D969C935D975E968C93F801E355C9
:101AD000FF4F89E090E09183808380E090E04FE5C4
:101AE000D801A80FB91F15962C91211129C0780192
:101AF000BDEAEB0EF11CF70180819181F801E80F3E
:101B0000F91F23E2268B0196D7018D939C93C80180
:101B10000E94560CF70120813181F801E20FF31F7A
:101B2000868B2F5F3F4FD7012D933C932550F801B3
:101B3000228F682F6F5F83EA90E00E94684617C08B
:101B4000A081B181A00FB11F233219F456964C9396
:101B500002C056962C93208131812F5F3F4F3183F5
:101B6000208301968031910509F0BACFC0CF6496E9
:101B70000FB6F894DEBF0FBECDBFDF91CF911F919E
:101B80000F91FF90EF90DF90CF90BF90AF900895AE
:101B9000CF93C62FBA0186EC94E00E94AE0B6C2F57
:101BA00086EC94E0CF910C945C0C86EC94E00C9461
:101BB000410C1F920F920FB60F9211240BB60F9289
:101BC0002F933F934F935F936F937F938F939F9345
:101BD000AF93BF93EF93FF93F89481E080931A0241
:101BE000E0E6F0E080818068808380818F7B808365
:101BF00060E083E00E94A60F7894FF91EF91BF917F
:101C0000AF919F918F917F916F915F914F913F9194
:101C10002F910F900BBE0F900FBE0F901F90189535
:101C20001F920F920FB60F9211248F939F93AF9331
:101C3000BF938091C40A9091C50AA091C60AB09141
:101C4000C70A0196A11DB11D8093C40A9093C50ACD
:101C5000A093C60AB093C70ABF91AF919F918F918D
:101C60000F900FBE0F901F9018951F920F920FB6F6
:101C70000F9211248F939F93AF93BF938091C80AC3
:101C80009091C90AA091CA0AB091CB0A0196A11DF0
:101C9000B11D8093C80A9093C90AA093CA0AB09351
:101CA000CB0ABF91AF919F918F910F900FBE0F9074
:101CB0001F9018958F929F92AF92BF92CF92DF9212
:101CC000EF92FF920F931F93CF93DF932FB7F89468
:101CD0008091C40A9091C50AA091C60AB091C70A22
:101CE0002FBF9C01AD0160E070E080E090E001E07A
:101CF0000E9414434901D42FC52FB62FA72FF82FC8
:101D0000E92F02E00E94144359016A017B018C0112
:101D100094014D2F5C2F6B2F7A2F8F2F9E2F0E94B7
:101D20002343E9E0AE2EB12CC12CD12CE12CF12CB7
:101D300000E010E00E94B742952FB901842FDF9197
:101D4000CF911F910F91FF90EF90DF90CF90BF90B8
:101D5000AF909F908F9008958F929F92AF92BF9275
:101D6000CF92DF92EF92FF924B015C0107C00E947D
:101D70005A0E6C157D058E059F0520F40E945A0EA3
:101D80006B017C010E945A0E6C197D098E099F0916
:101D9000681579058A059B0550F3FF90EF90DF9059
:101DA000CF90BF90AF909F908F900895BC01049703
:101DB00068F080E090E00E94084126E636E646EEB4
:101DC0005FE30E94BE410E94DC4002C0660F771FA5
:101DD0006150710961F06150710949F0FB01EE0F2A
:101DE000FF1F31978FB7F8943197F1F78FBF0895A0
:101DF000789484B7877F84BF1092C40A1092C50A72
:101E00001092C60A1092C70A84B5826084BD84B558
:101E1000816084BD85B5826085BD85B5816085BDE5
:101E2000EEE6F0E0808181608083E1E8F0E080818F
:101E300082608083808181608083E0E8F0E080813F
:101E400081608083E1EBF0E0808184608083E1E960
:101E5000F0E0808184608083E0EBF0E0808181604D
:101E60008083E0E9F0E0808181608083E4E6F0E057
:101E700080818E7F8083ECE7F0E080818F778083A4
:101E8000808180648083EAE7F0E0808184608083E1
:101E90008081826080838081806880831092C1000D
:101EA0001092C900089590917505982B909375052F
:101EB00080FF32C0809164008E7F809364008091A7
:101EC0007C008F7780937C0080917C00806480937D
:101ED0007C0080917A00846080937A0080917A00FF
:101EE000826080937A0080917A00806880937A0083
:101EF000809164008F7780936400809164008B7F71
:101F000080936400809164008D7F80936400809151
:101F100065008E7F80936500089590E0FC01E0509D
:101F2000F64F2491FC01ED5CF54FE491EE2369F04E
:101F3000F0E0EA58F54FA491B0E08C91611103C034
:101F40002095822301C0822B8C93089590E0FC01A0
:101F5000E353F64F2491FC01E050F64F3491FC011D
:101F6000ED5CF54F84918823B1F1222331F12330C8
:101F700021F4909180009F7705C0243031F4909136
:101F800080009F7D9093800018C0213019F494B593
:101F90009F7704C0223021F494B59F7D94BD0DC07D
:101FA000263021F49091B0009F7705C0273029F4A6
:101FB0009091B0009F7D9093B000E82FF0E0E2593F
:101FC000F54FA491B0E08C91611103C0309583234B
:101FD00001C0832B8C93089590E0FC01E353F64FEE
:101FE0002491FC01E050F64F3491FC01ED5CF54F7B
:101FF0008491882399F1222331F1233021F49091A7
:1020000080009F7705C0243031F4909180009F7D3F
:102010009093800018C0213019F494B59F7704C0C4
:10202000223021F494B59F7D94BD0DC0263021F45B
:102030009091B0009F7705C0273029F49091B000AF
:102040009F7D9093B000E82FF0E0EA59F54FE491BE
:10205000F0E08081832321E030E011F420E030E0E3
:10206000C9010895CF92DF92EF92FF926B017C013C
:10207000411134C088E00E94530FC701B60122E02D
:1020800030E040E050E00E949942305F414F5F4FA6
:10209000CA01B901A70196010E949942DA01C9015A
:1020A0000197A109B109892F9A2FAB2FBB27A7FD53
:1020B000BA958093C50021502093C4008091C1003F
:1020C00080618093C1008091C10088608093C100CD
:1020D0008091C10080688093C10033C080E10E947C
:1020E000530FC701B60122E030E040E050E00E940B
:1020F0009942305F414F5F4FCA01B901A701960174
:102100000E949942DA01C9010197A109B109892FF9
:102110009A2FAB2FBB27A7FDBA958093CD002150F6
:102120002093CC008091C90080618093C900809188
:10213000C90088608093C9008091C900806880933D
:10214000C900FF90EF90DF90CF900895611107C014
:102150009091C00095FFFCCF8093C60008959091A8
:10216000C80095FFFCCF8093CE0008951F920F9278
:102170000FB60F9211242F933F934F935F936F935A
:102180007F938F939F93AF93BF93EF93E091C6009C
:1021900020917C0530917D05C901019660E072E0D7
:1021A0000E94634240917A0550917B058417950700
:1021B00041F0D901A453B34FEC9390937D058093E4
:1021C0007C05EF91BF91AF919F918F917F916F911E
:1021D0005F914F913F912F910F900FBE0F901F90E5
:1021E00018951F920F920FB60F9211242F933F93C1
:1021F0004F935F936F937F938F939F93AF93BF930F
:10220000EF93E091CE002091780530917905C901D6
:10221000019660E072E00E94634240917605509121
:1022200077058417950741F0D901A453B54FEC9376
:102230009093790580937805EF91BF91AF919F912D
:102240008F917F916F915F914F913F912F910F905F
:102250000FBE0F901F9018950C94A610CF93C82F07
:10226000682F8DE00E94A6106C2F8AE0CF910C940D
:10227000A6101F93CF93DF93162FEC0103C0612F9D
:102280000E94A61089918111FACFDF91CF911F9101
:1022900008954F925F926F927F928F929F92AF922A
:1022A000BF92CF92DF92EF92FF920F93CF93DF9383
:1022B000CDB7DEB7A0970FB6F894DEBF0FBECDBF87
:1022C00029013A016115710581059105C9F4602F55
:1022D00080E3A0960FB6F894DEBF0FBECDBFDF91AE
:1022E000CF910F91FF90EF90DF90CF90BF90AF9084
:1022F0009F908F907F906F905F904F900C94A6105E
:10230000EE24E394F12CEC0EFD1E812C912C540153
:10231000A30192010E947742F70161937F01FFEFD1
:102320008F1A9F0AAF0ABF0AB901CA016115710568
:102330008105910569F7CC24CA94DC2C7601C80C80
:10234000D91CEA1CFB1C14C0E1E0F0E0EC0FFD1FFF
:10235000EC0DFD1D80818A3010F4805D01C0895C28
:10236000602F0E94A61081E0C81AD108E108F10888
:10237000EFEFCE16DE06EE06FE0631F7A0960FB69C
:10238000F894DEBF0FBECDBFDF91CF910F91FF90CC
:10239000EF90DF90CF90BF90AF909F908F907F9005
:1023A0006F905F904F900895CF93DF93C62F282FA3
:1023B000332727FD3095207F332764E03595279517
:1023C0006A95E1F72A3014F0295C01C0205D982F4E
:1023D0009F70D92F9A3014F0D95C01C0D05D6C2F5A
:1023E000822F0E94A6106C2F8D2FDF91CF910C941D
:1023F000A610CF92DF92EF92FF920F936B017C01B8
:10240000042F97FF0CC0642F8DE20E94A610F09459
:10241000E094D094C094C11CD11CE11CF11C2AE0B2
:1024200030E040E050E0C701B6010E9449110F9131
:10243000FF90EF90DF90CF9008950E94F80E87EE06
:1024400097E00E941927853440F061E081E30E9403
:102450008D0F61E081E30E94A60F61E070E087EEDE
:1024600097E00E9466258130B1F48091CC0E909166
:10247000CD0EA091CE0EB091CF0E90688093CC0E71
:102480009093CD0EA093CE0EB093CF0E60E081E07E
:1024900090E00E94684687E20E94EC0F892B59F178
:1024A00060E070E087EE97E00E9466258A3019F5BB
:1024B000C1C06CE3629FA001639F500D1124840F83
:1024C000951F0EC02115310559F06CE3629FA001E4
:1024D000639F500D11249A01205F314F820F931F8B
:1024E000039748F48091DB0E9091DC0E806290930C
:1024F000DC0E8093DB0E8DE895E00E94401A8DE89B
:1025000095E00E94011A8DE895E00E94101A8DE86E
:1025100095E00E94C81563E070E080E090E00E94C2
:10252000AC0E8091CC0E9091CD0EA091CE0EB091BC
:10253000CF0EA1FF5EC063E070E080E090E00E94FB
:10254000AC0E61E086E10E948D0F63E070E080E0F8
:1025500090E00E94AC0E61E086E10E94A60F63E06D
:1025600070E080E090E00E94AC0E0E94972163E052
:1025700070E080E090E00E94AC0E81E00E94BA2101
:1025800063E070E080E090E00E94AC0E84E00E9486
:10259000C82163E070E080E090E00E94AC0E80E033
:1025A0000E94C32163E070E080E090E00E94AC0EE6
:1025B0000E94B62163E070E080E090E00E94AC0EE3
:1025C00066E08CED97E00E94D32163E070E080E04C
:1025D00090E00E94AC0E61E086E10E948D0F60E009
:1025E00086E10E94A60F63E070E080E090E00E9428
:1025F000AC0E63E070E080E090E00E94AC0E87EEED
:1026000097E00E94642660937E0570937F05809317
:1026100080059093810580917E0590917F05A09122
:102620008005B09181050E9484430E9490050E941C
:10263000C805FDCF8DE895E00E94401A8DE895E031
:102640000E9492188DE895E00E9487188091A60557
:1026500090E02091A805821B91092091A50530E00A
:102660004091A905241B3109121613060CF421CF41
:1026700029CF1F93CF93DF93EC01162F8A818E7F92
:102680008A8369E170E088EE97E00E944E27612F0F
:1026900088EE97E00E944E2888EE97E00E947C2802
:1026A00041E050E069E170E088EE97E00E94B628D2
:1026B00088EE97E00E945027882339F088EE97E053
:1026C0000E945627282F30E005C08A8181608A83C6
:1026D0002FEF3FEFC901DF91CF911F9108951F9315
:1026E000CF93DF93EC016DE20E943913182F6CE257
:1026F000CE010E943913A12FBB27A7FDB095BA2F99
:10270000AA27A80FB11D498188EE93E0489F900148
:10271000499F300D11240E94214220E030E840E022
:1027200050E00E949942C901DF91CF911F91089515
:102730001F93CF93DF93EC016BE20E943913182FA4
:102740006AE2CE010E943913A12FBB27A7FDB095E5
:10275000BA2FAA27A80FB11D498188EE93E0489FA0
:102760009001499F300D11240E94214220E030E861
:1027700040E050E00E949942C901DF91CF911F9142
:1027800008951F93CF93DF93EC0169E20E94391300
:10279000182F68E2CE010E943913A12FBB27A7FD95
:1027A000B095BA2FAA27A80FB11D498188EE93E0F2
:1027B000489F9001499F300D11240E94214220E042
:1027C00030E840E050E00E949942C901DF91CF918A
:1027D0001F9108950F931F93CF93DF93EC01162F52
:1027E000042F8A818D7F8A8369E170E088EE97E00B
:1027F0000E944E27612F88EE97E00E944E28602F9E
:1028000088EE97E00E944E2888EE97E00E947C2890
:10281000612FCE010E943913402F50E08417950795
:1028200029F08A8182608A8380E001C081E0DF91A3
:10283000CF911F910F9108951F93CF93DF93EC01D8
:10284000162F68836430E1F030F4623081F0B0F428
:10285000613021F506C06630B9F0A0F06730F1F4C0
:1028600015C047E260E20E94EA131C8305C040E005
:1028700060E20E94EA131C8281E011C047E407C0B5
:1028800047E605C047E803C047EA01C047EC60E2FD
:10289000CE010E94EA1381E08C8301C080E0DF91C9
:1028A000CF911F9108951F93CF93DF93EC01162FC3
:1028B0008091EE07811104C088EE97E00E942127E5
:1028C00081E0888361E0CE010E941C1419831430DA
:1028D00031F0183031F0123049F440E003C040E1EB
:1028E00001C040E363E2CE010E94EA1361E08BE2A3
:1028F0000E948D0F60E08BE2DF91CF911F910C94CD
:10290000A60FFC0161810C9453141092870582E09C
:10291000809383058CE18093880580EC91E090930F
:102920008A058093890508951F93CF93DF931F92A3
:10293000CDB7DEB7162F61E08AE149830E948D0F83
:1029400061E088E10E948D0F4981112321F011304F
:1029500009F048C020C041110EC061E08AE10E9428
:10296000A60F8091CC0E9091CD0EA091CE0EB0917D
:10297000CF0E82602FC04130A9F560E08AE10E944D
:10298000A60F8091CC0E9091CD0EA091CE0EB0915D
:10299000CF0E8D7F1FC041110EC061E088E10E9403
:1029A000A60F8091CC0E9091CD0EA091CE0EB0913D
:1029B000CF0E81600FC04130A9F460E088E10E9431
:1029C000A60F8091CC0E9091CD0EA091CE0EB0911D
:1029D000CF0E8E7F8093CC0E9093CD0EA093CE0E13
:1029E000B093CF0E0F90DF91CF911F9108950F9369
:1029F0001F93CF93DF9361E089E10E948D0F61E027
:102A000089E10E94A60F61E070E080E090E00E9402
:102A1000AC0E80E00E94242DBC01882777FD8095B4
:102A2000982F0E940A418B01D82FC92F20E030E057
:102A300040E054E4FE01712F8F2F9E2F0E94D8405A
:102A400087FF06C060E089E10E94A60FC0E055C084
:102A500020E030EC42E254E4FE01602F712F8F2F12
:102A60009E2F0E94BA41181634F460E089E10E945A
:102A7000A60FC4E642C020E030EC42E254E4FE017E
:102A8000602F712F8F2F9E2F0E94D8401816ECF0C8
:102A900020E030EC47E054E4FE01602F712F8F2FCF
:102AA0009E2F0E94BA41181684F425E535E545E5C8
:102AB0005FE3FE01602F712F8F2F9E2F0E94BE417A
:102AC00020E030E04DED53E40FC020E030E040EA7C
:102AD0005EE3FE01602F712F8F2F9C2F0E94BE415D
:102AE00020E030E040E253E40E9473400E94DC406A
:102AF000C62F60E089E10E94A60F8C2FDF91CF9155
:102B00001F910F91089561E089E20E948D0F61E0AD
:102B100088E20E948D0F88EE97E00C9467278091E1
:102B2000EE07882341F080918605811104C08BE86F
:102B300095E00C94831508950F931F93CF93DF9323
:102B4000EC01042F68A761E080E30E948D0F18A5B7
:102B5000112379F0113091F461E080E30E94A60F17
:102B6000013019F482E08B8B09C0011107C01B8B67
:102B700005C060E080E30E94A60F1B8A6AE070E057
:102B800080E090E0DF91CF911F910F910C94AC0EFB
:102B9000CF93DF93EC010E948F1540E060E0CE01FF
:102BA000DF91CF910C949C15FC01148A158A168A2A
:102BB000178A108E118E128E138E148E158E168E0D
:102BC000178E10A211A212A213A214A215A216A26D
:102BD00017A20895EF92FF920F931F93CF93DF9365
:102BE000CDB7DEB7EC970FB6F894DEBF0FBECDBF02
:102BF0008C01E0E0F8E085919491BC01EE24E3942F
:102C0000F12CEC0EFD1EC7010E948F43E2E0F8E0BC
:102C100085919491BC01CE0189960E948F43F80161
:102C20008689843009F466C040F4823029F108F0C6
:102C30004BC0813009F0B6C009C0863009F486C0A7
:102C400008F46EC0873009F0ADC096C0F801818DE0
:102C50001F928F93808D1F928F9387891F928F93DE
:102C6000828D1F928F9385891F928F9384891F92E3
:102C70008F9387EB92E015C0F801818D1F928F939F
:102C8000808D1F928F9387891F928F93828D1F92C1
:102C90008F9385891F928F9384891F928F938BEBDB
:102CA00092E09F938F93FF92EF921F9284E68F930F
:102CB000C80189969F938F930E9418440FB6F89489
:102CC000DEBF0FBECDBF81C0F801818D1F928F93F3
:102CD000808D1F928F9387891F928F93828D1F9271
:102CE0008F9385891F928F9384891F928F938FEB87
:102CF00092E0D7CFF801818D1F928F93808D1F9224
:102D00008F9387891F928F93828D1F928F938589CE
:102D10001F928F9384891F928F9383EC92E0C1CF8F
:102D2000F801818D1F928F93808D1F928F938789D9
:102D30001F928F93828D1F928F9385891F928F93FD
:102D400084891F928F9387EC92E0ABCFF801818D3D
:102D50001F928F93808D1F928F9387891F928F93DD
:102D6000828D1F928F9385891F928F9384891F92E2
:102D70008F938BEC92E095CFF801818D1F928F930A
:102D8000808D1F928F9387891F928F93828D1F92C0
:102D90008F9385891F928F9384891F928F938FECD5
:102DA00092E07FCFCE0189969F938F931F9284E606
:102DB0008F93C80189969F938F930E9418440F9018
:102DC0000F900F900F900F900F90075D1F4FC8014D
:102DD000EC960FB6F894DEBF0FBECDBFDF91CF915A
:102DE0001F910F91FF90EF900895CF92DF92EF9295
:102DF000FF920F931F93CF93DF938C01C62E809188
:102E0000EE07811104C088EE97E00E94212768E652
:102E100070E088EE97E00E944E2760E070E088EE58
:102E200097E00E947A2888EE97E00E947C2843E190
:102E300050E068E670E088EE97E00E94B628E12C4A
:102E4000F12CC0E0D0E0D12CE4C088EE97E00E94E5
:102E50005627F801EC0FFD1F8083C630D10509F419
:102E600067C098F4C230D10509F43EC038F4209709
:102E700029F1C130D10509F0C7C02BC0C430D1053C
:102E800009F440C008F049C03AC0CA30D10509F47D
:102E900084C048F4282F30E0C830D10509F461C05F
:102EA00008F06DC050C0CC30D10509F492C008F4D0
:102EB00082C0CD30D10509F0A7C099C0982F929556
:102EC0009F708F702AE0929F800D1124F801818FEE
:102ED0009BC0982F92959F708F70FAE09F9F800DF6
:102EE0001124F801808F90C0982F92959F708F7059
:102EF000FAE09F9F800D1124F801878B85C0F801AF
:102F0000868B82C0982F92959F708F70FAE09F9F5A
:102F1000800D1124F801828F77C0982F92959F70B1
:102F20008F70FAE09F9F800D1124F801858B6CC093
:102F3000982F92959F708F70FAE09F9F800D1124BB
:102F4000F801848B61C054E0359527955A95E1F7D7
:102F500027708F70FAE02F9F800D1124F801838F66
:102F600053C044E0359527954A95E1F727708F7057
:102F7000FAE02F9F800D1124F801848F45C094E062
:102F8000359527959A95E1F723708F70FAE02F9F7A
:102F9000800D1124F801858F37C0282F269526959E
:102FA00026952670922F990F990F920F8F70980F78
:102FB000F801968F29C0282F2695269526952E70E4
:102FC000922F990F990F920F8F70980FF801978F8A
:102FD0001BC0282F2695269526952670922F990F8F
:102FE000990F920F8F70980FF80190A30DC0282FA2
:102FF0002695269526952670922F990F990F920F58
:103000008F70980FF80191A3219603C0FFEFEF1A7C
:10301000FF0ACC16DD0658F02AE0E216F10438F477
:1030200088EE97E00E945027882381F30ECFDF912E
:10303000CF911F910F91FF90EF90DF90CF90089567
:103040001F93CF93DF93EC01162F8091EE07811130
:1030500004C088EE97E00E94212768E670E088EEC1
:1030600097E00E944E27612F88EE97E00E944E283D
:10307000C10FD11D688188EE97E00E944E2888EE2E
:1030800097E0DF91CF911F910C947C28FF920F93D2
:103090001F93CF93DF938C01F62E8091EE07811161
:1030A00004C088EE97E00E94212768E670E088EE71
:1030B00097E00E944E276F2D88EE97E00E944E28E1
:1030C00088EE97E00E947C2841E050E068E670E0DE
:1030D00088EE97E00E94B628CBE0D0E088EE97E03B
:1030E0000E945027811102C02197C1F788EE97E016
:1030F0000E945627F801EF0DF11D808388EE97E0BE
:10310000DF91CF911F910F91FF900C947C28CF936A
:10311000DF93EC0166E00E94F516CE01DF91CF91BE
:103120000C94EA15CF92DF92EF92FF920F931F93C8
:10313000CF93DF93CDB7DEB7C857D1090FB6F89458
:10314000DEBF0FBECDBF7C016AE00E94F51687018D
:10315000075D1F4F84E6F80111928A95E9F7EEEDBD
:10316000F7E085919491BC01CE018F5A9F4F0E9448
:103170008F43BE016F5A7F4FC8010E94B343F701CE
:1031800082A1823009F46AC030F4882369F081306A
:1031900009F00BC122C0843009F4C7C008F493C001
:1031A000853009F002C1F0C0E0EEF7E0859194911E
:1031B000BC01CE018F5A9F4F0E948F43BE016F5AB0
:1031C0007F4FC8010E94B343EEEEF7E085919491E2
:1031D0006E01F9E2CF0ED11C18C0E2EEF7E0859146
:1031E0009491BC01CE018F5A9F4F0E948F43BE0124
:1031F0006F5A7F4FC8010E94B343EEEEF7E085910E
:1032000094916E01E9E2CE0ED11CBC01C6010E9470
:103210008F43F701838D1F928F93848D1F928F931D
:10322000858D1F928F93868D1F928F93DF92CF9201
:103230001F9288E28F93EE24E394F12CEC0EFD1E96
:10324000FF92EF920E941844B701C8010E94B34355
:103250000FB6F894DEBF0FBECDBFC2C0E4EEF7E0FC
:1032600085919491BC01CE018F5A9F4F0E948F434C
:10327000BE016F5A7F4FC8010E94B343E0EFF7E0F1
:10328000859194916E01E9E2CE0ED11CBC01C6017C
:103290000E948F43F701838D1F928F93848D1F921D
:1032A0008F93858D1F928F93DF92CF921F9288E22A
:1032B0008F93EE24E394F12CEC0EFD1EFF92EF921F
:1032C0000E941844C1CFE6EEF7E085919491BC01CD
:1032D000CE018F5A9F4F0E948F43BE016F5A7F4F7E
:1032E000C8010E94B343E2EFF7E0859194916E012B
:1032F000E9E2CE0ED11CBC01C6010E948F43F7014A
:10330000838D1F928F93848D1F928F93DF92CF9224
:103310001F9288E28F93EE24E394F12CEC0EFD1EB5
:10332000FF92EF920E9418448FCFE8EEF7E085916C
:103330009491BC01CE018F5A9F4F0E948F43BE01D2
:103340006F5A7F4FC8010E94B343E4EFF7E08591C5
:1033500094916E01E9E2CE0ED11CBC01C6010E941F
:103360008F43F701838D1F928F93DF92CF921F922D
:1033700088E28F93EE24E394F12CEC0EFD1EFF9275
:10338000EF920E94184460CFEAEEF7E085919491A5
:10339000BC01CE018F5A9F4F0E948F43BE016F5ACE
:1033A0007F4FC8010E94B3431BC0ECEEF7E085914C
:1033B00094917E01E1E5EE0EF11CBC01C7010E9473
:1033C0008F43FF92EF921F9284E68F931F930F9388
:1033D0000E9418440F900F900F900F900F900F9035
:1033E000C801C858DF4F0FB6F894DEBF0FBECDBF7F
:1033F000DF91CF911F910F91FF90EF90DF90CF90D1
:103400000895CF93DF93EC016EE00E9446188E85FD
:103410008E7F8E876EE0CE01DF91CF910C942018C5
:10342000CF93DF93EC016EE00E9446188E858D7F6E
:103430008E876EE0CE01DF91CF910C942018CF9350
:10344000DF93EC016FE00E9446188F858370DF9157
:10345000CF910895CF93DF93EC010E941F1A882328
:1034600019F0CE56DF4F888380919C058C7F809326
:103470009C056FE08DE895E0DF91CF910C942018CA
:10348000CF93DF93EC0140E061E00E949C15CE01F8
:103490000E942A1ACE010E94D4156DE0CE010E942E
:1034A000F51661E08BE20E948D0F60E08BE2DF9108
:1034B000CF910C94A60F10921E061092A0050895AD
:1034C0002091A20540E2249F900111244091A7057C
:1034D000242B4091A10550E04C5E5F4F542F4427B0
:1034E000550F242B352BFC01318320838091A505BA
:1034F000F0E28F9FC00111244091A405342F330FB7
:10350000330F330F20E0822B932B2091A60530E060
:1035100035952795822B932BFB019183808308950A
:103520001F93CF93DF93CDB7DEB76A970FB6F894AA
:10353000DEBF0FBECDBFAB0119821B8221E0BC01F3
:10354000CE0101960E94E536182F882321F0CE0186
:1035500001960E94AE34812F6A960FB6F894DEBFB2
:103560000FBECDBFDF91CF911F910895EF92FF92D3
:103570000F931F93CF93DF93CDB7DEB76A970FB644
:10358000F894DEBF0FBECDBF8C017B0119821B8278
:103590000E94901A811107C020E0A701B801CE0156
:1035A00001960E9466386A960FB6F894DEBF0FBE89
:1035B000CDBFDF91CF911F910F91FF90EF900895B4
:1035C00061E08BE10E94A60F6AE070E080E090E08D
:1035D0000C94AC0EEF92FF920F931F93CF93DF9357
:1035E000EB0128813981FC01E20FF31FE081EF320A
:1035F00011F42F5F3F4FDA01E0E0F0E07C01E20ED2
:10360000F31E87010E0F1F1FE80118811F3289F07A
:10361000111119C00EC02F5F3F4FFB013183208372
:10362000FC01E20FF31F81E09081911114C080E052
:1036300012C0E40FF51F1082FC01E20FF31F40815E
:103640004F3259F7E8CF1D9331962F5F3F4FE2334A
:10365000F10579F3D6CFDF91CF911F910F91FF90B4
:10366000EF9008952F923F924F925F926F927F92C8
:103670008F929F92AF92BF92CF92DF92EF92FF9282
:103680000F931F93CF93DF93CDB7DEB7CA56D109FF
:103690000FB6F894DEBF0FBECDBF6C017B015A019F
:1036A0004901FE01E25BFF4F108212821CAA1EAA92
:1036B000DE01A859BF4F11961C921E928B015E2EFF
:1036C0004F2E3A2E2B2E3E0184E3680E711C08C04B
:1036D000902F812F02C0962D872D052D142D2C01A2
:1036E000AE014F5F5F4F632D722DC6010E94EA1A33
:1036F000582F41E048279401BE016F5F7F4FC801FA
:10370000AB965FAFAB97F5010995AB965FADAB9705
:10371000811109C00E151F0509F403C0C8010E94DC
:10372000AE3480E026C05523C9F021E0AE014F5FE2
:103730005F4FB801852D942D0E94E536282F0E1578
:103740001F05A1F0C801AB962FAFAB970E94AE3416
:10375000AB962FADAB972111BBCFE3CF0E151F0555
:1037600019F0C8010E94AE3481E003C08111B3CFCB
:10377000D8CFC659DF4F0FB6F894DEBF0FBECDBF0E
:10378000DF91CF911F910F91FF90EF90DF90CF903D
:10379000BF90AF909F908F907F906F905F904F9071
:1037A0003F902F900895FC01128A118E138EDC0138
:1037B000A356BE4F89E111968C93119714961C92D3
:1037C000DF01AE55BE4F1C9212961C92E956FE4F79
:1037D0001182108208958CE10E94EC0F21E0892B68
:1037E00009F420E0822F0895EF92FF920F931F9328
:1037F000CF93DF93EC010E94EB1B811105C0C956EA
:10380000DE4F81E090E00EC08E0103561E4F42E075
:103810006DE1C8010E94BD2E811108C0C956DE4F5E
:1038200082E090E09983888380E02FC07E0141E0B0
:10383000B801CE010E942B3E811108C040E0B801C2
:10384000CE010E942B3E811101C0E8CF8E01075EA0
:103850001F4FB701C8010E9418349E0129563E4FE0
:10386000811106C088E090E0F90191838083DCCF6C
:10387000DE01AE55BE4F8AE1F80101900D928A95A6
:10388000E1F7F9011182108281E0DF91CF911F9160
:103890000F91FF90EF900895CF93DF93EC0161E0DB
:1038A0008DE10E948D0F60E08DE10E94A60F409196
:1038B000CC0E5091CD0E6091CE0E7091CF0E616006
:1038C0004093CC0E5093CD0E6093CE0E7093CF0EDE
:1038D00064E670E080E090E00E94AC0E61E08BE175
:1038E0000E948D0F60E08CE10E948D0F81E080933B
:1038F000DD070E94E01ACE01DF91CF910C94F41BFA
:103900004F925F926F927F928F929F92AF92BF92EF
:10391000CF92DF92EF92FF920F931F93CF93DF939B
:10392000CDB7DEB7C154D1090FB6F894DEBF0FBED4
:10393000CDBF5C014A012901FB01EE55FE4F8AE132
:10394000DE015B9601900D928A95E1F719821B8248
:103950008A01EE24E394F12CEC0EFD1E6E018BE146
:10396000C80ED11C35C0F80120812F3219F40F5F29
:103970001F4F2EC0801B8D3008F08CE0682E712CFC
:10398000A301B801CE01C5960E94D943E5E3F0E05A
:10399000EC0FFD1FE60DF71D1082C7010E94AE342B
:1039A00021E0AE014B5C5F4FB601C7010E94E536D6
:1039B000811104C0F501108212821DC0060D171D71
:1039C000C6010E94AE349C2D8D2D6701E92EF82E84
:1039D0006FE270E0C8010E94BE43009721F608190B
:1039E0001909F201118300838AE1F601D5010190E2
:1039F0000D928A95E1F7C501CF5BDF4F0FB6F894C2
:103A0000DEBF0FBECDBFDF91CF911F910F91FF9011
:103A1000EF90DF90CF90BF90AF909F908F907F906E
:103A20006F905F904F900895BF92CF92DF92EF9288
:103A3000FF920F931F93CF93DF93CDB7DEB76C97B1
:103A40000FB6F894DEBF0FBECDBF7C016B018A01BB
:103A5000B22E9E01255E3F4FAB01BC01CE01019607
:103A60000E94801C4B8D5C8D4C0D5D1DFA01808188
:103A7000811102C080E01CC08B818823D9F3825061
:103A8000823040F4B701675E7F4F2B2DC8010E9442
:103A9000E5360EC02B2DBE016F5F7F4FC8010E941F
:103AA000E536882339F3CE0101960E94AE3481E0D9
:103AB0006C960FB6F894DEBF0FBECDBFDF91CF91ED
:103AC0001F910F91FF90EF90DF90CF90BF900895DE
:103AD000CF92DF92EF92FF920F931F93CF93DF93DA
:103AE000CDB7DEB76A970FB6F894DEBF0FBECDBF75
:103AF00019821B8221E0AE014F5F5F4F0E94141DAF
:103B0000882359F0CB88DC88ED88FE88CE010196A9
:103B10000E94AE348601970103C00FEF1FEF98019A
:103B2000B801C9016A960FB6F894DEBF0FBECDBFCB
:103B3000DF91CF911F910F91FF90EF90DF90CF9089
:103B400008954F925F926F927F928F929F92AF9261
:103B5000BF92CF92DF92EF92FF920F931F93CF937A
:103B6000DF93CDB7DEB76B970FB6F894DEBF0FBE0D
:103B7000CDBF5C01962E872E29013A0119821B8246
:103B80000E94EB1BF7E9EF2EFF24F394EA0CFB1CD9
:103B900081110EC081E290E0F70191838083F3E30D
:103BA000AF0EB11C6EEE72E0C5010E94D243D8C0C8
:103BB0000115110529F0013021E0120708F402C0B7
:103BC00000E011E0F701808191818F7C91838083F7
:103BD00021E0CC24C394D12CCC0EDD1EA601692D8E
:103BE000782DC5010E94141D81111CC0F3E3AF0E96
:103BF000B11C8F929F9284EF92E09F938F9381E00C
:103C00008F931F92BF92AF920E941844F701808158
:103C100091818062918380830FB6F894DEBF0FBEDE
:103C2000CDBF9EC07E019BE1E90EF11C41E050E05A
:103C3000B701C6010E949F3141145104610471040F
:103C400009F5C12CD12C760146C091919A3029F406
:103C500021E0421A510861087108411451046104BD
:103C6000710489F09E2E9E18981678F34114510421
:103C70006104710441F041E050E0B701C6010E94C7
:103C80009F3101C0912C811107C08FEF981659F018
:103C9000C12CD12C760116C0411451046104710469
:103CA000A1F3F701DFCF8B8DF50183AB8A3011F4DF
:103CB00001501109C12CD12C7601C39403C00150CD
:103CC000110949F041E050E0BE01655E7F4FCE0131
:103CD00001960E949F318823B9F001151105A1F0CA
:103CE000FFEFCF16D104E104F10409F0C0F49B8D7D
:103CF000F501EC0DFD1D93AB2FEFC21AD20AE20ABB
:103D0000F20A9A30F9F6DBCF8FEFC816D104E1043E
:103D1000F10428F4F501EC0DFD1D13AA1AC0F501FC
:103D2000E15DFE4F8EE38083F501E05DFE4F808311
:103D3000F501EF5CFE4F8AE08083F501EE5CFE4FFB
:103D40001082F501E956FE4F808191818061918357
:103D50008083CE0101960E94AE3493E3A90EB11C7C
:103D6000C5016B960FB6F894DEBF0FBECDBFDF91D5
:103D7000CF911F910F91FF90EF90DF90CF90BF9068
:103D8000AF909F908F907F906F905F904F9008952D
:103D90002F923F924F925F926F927F928F929F925B
:103DA000CF92DF92EF92FF920F931F93CF93DF9307
:103DB000CDB7DEB76A970FB6F894DEBF0FBECDBFA2
:103DC0006C01962E872E3A011801290119821B8257
:103DD0000E94EB1B860109561E4F81110CC081E029
:103DE00091E0D8018D939C936EEE72E0C601C3966C
:103DF0000E94D2432DC0F801808191819C7F9183E4
:103E000080832BE0AE014F5F5F4F692D782DC60197
:103E10000E94141D81111EC08F929F928BE193E02E
:103E20009F938F9381E08F931F92F3E3CF0ED11C6A
:103E3000DF92CF920E941844D8018D919C911197E6
:103E400091608D939C930FB6F894DEBF0FBECDBFEB
:103E500080E059C0B201A101CE0101960E941A333F
:103E600081111AC08F929F9285E093E09F938F9368
:103E700081E08F931F92F3E3CF0ED11CDF92CF929C
:103E80000E941844CE0101960E94AE34D8018D9153
:103E90009C9111979260D5CFD3010D900020E9F746
:103EA0008D010150110906191709E016F10608F4F1
:103EB0008701A801B301CE0101960E94203B801723
:103EC0009107E1F08F929F928EE293E09F938F9300
:103ED00081E08F931F92C601C3969F938F930E9498
:103EE0001844CE0101960E94AE34F601E956FE4F09
:103EF00080819181916091838083A5CFCE010196CD
:103F00000E94AE3481E06A960FB6F894DEBF0FBE11
:103F1000CDBFDF91CF911F910F91FF90EF90DF9078
:103F2000CF909F908F907F906F905F904F903F9039
:103F30002F900895EF92FF920F931F93FA01019033
:103F40000020E9F73197E41BF50B7F010E94C81EA2
:103F50001F910F91FF90EF900895CF92DF92EF9213
:103F6000FF920F931F93CF93DF9300D0CDB7DEB7AF
:103F70006C017B0149835A830E94681D8B019C015F
:103F800049815A81B701C6010E949A1F0F900F9074
:103F9000DF91CF911F910F91FF90EF90DF90CF9025
:103FA00008959F92AF92BF92CF92DF92EF92FF92CD
:103FB0000F931F93CF93DF93CDB7DEB7A4970FB6C0
:103FC000F894DEBF0FBECDBF7C01D62EC72E19825E
:103FD0001B820E94EB1B870109561E4F81110FC0E7
:103FE00081E290E0F801918380836EEE72E0C70178
:103FF000C3960E94D2430FEF1FEF98015DC0F801F6
:10400000808191818F7D9183808321E0AA24A39474
:10401000B12CAC0EBD1EA5016D2D7C2DC7010E94DB
:10402000141D81111FC0CF92DF928BE193E09F930B
:104030008F9381E08F931F92F3E3EF0EF11CFF92B9
:10404000EF920E941844F8018081918180629183EF
:1040500080830FB6F894DEBF0FBECDBF00E010E046
:1040600098012AC08E01055E1F4F4AE050E0B8015A
:10407000C5010E949F31C12CD12C7601902E12C017
:1040800091919A3029F49FEFC91AD90AE90AF90ADD
:104090009E2F99199817A0F34AE050E0B801C50186
:1040A0000E949F31882311F0F801F2CFCE010196D2
:1040B0000E94AE3497018601B801C901A4960FB6DB
:1040C000F894DEBF0FBECDBFDF91CF911F910F914E
:1040D000FF90EF90DF90CF90BF90AF909F900895AA
:1040E0000F931F93CF93DF93EC018B014EE752E0C8
:1040F0000E94AD1F81110AC04EE752E0B801CE0107
:10410000DF91CF911F910F910C94AD1FDF91CF9153
:104110001F910F910895FF920F931F93CF93DF93F9
:10412000EC018B010E94AD1FF82E882329F0B80105
:10413000CE010E947020F8228F2DDF91CF911F9128
:104140000F91FF9008958F929F92AF92BF92CF925E
:10415000DF92EF92FF92C090CC0ED090CD0EE09007
:10416000CE0EF090CF0E81E0C822DD24EE24FF2495
:104170008090CC0E9090CD0EA090CE0EB090CF0E31
:1041800040E061E08BE895E00E94941440E060E03C
:104190008BE895E00E9494148DE895E00E94401A07
:1041A0008DE895E00E94871881FC06C041E060E040
:1041B0008BE895E00E949414CD28CE28CF2831F4C6
:1041C00041E061E08BE895E00E94941480E69AE17A
:1041D0009093B7088093B608FF90EF90DF90CF9050
:1041E000BF90AF909F908F900895EF92FF920F93A2
:1041F0001F93CF93DF93CDB7DEB76C970FB6F894CC
:10420000DEBF0FBECDBF7C0119821B826B8F7C8FFE
:104210000E94A320C7010E94EB1B870109561E4F75
:104220006B8D7C8D81110CC081E490E0F80191834D
:1042300080836EEE72E0C701C3960E94D24315C020
:10424000F801808191818F7B9183808323ECAE0183
:104250004F5F5F4FC7010E94141D811108C0F80114
:104260008081918180649183808380E005C0CE014C
:1042700001960E94AE3481E06C960FB6F894DEBFD2
:104280000FBECDBFDF91CF911F910F91FF90EF90A7
:104290000895EF92FF920F931F93CF93DF93EC015A
:1042A0008B010E94A320CE010E94EB1B81110EC046
:1042B000FE01E956FE4F81E890E0918380836EEE27
:1042C00072E0CE01C3960E94D24325C07E018EE5E6
:1042D000E81A8EEFF80A20E030E040E95AE1B70131
:1042E000C8010E94321B882341F0C956DE4F8881E5
:1042F00099818068998388830EC020E030E046EB86
:104300005AE1B701C801DF91CF911F910F91FF9042
:10431000EF900C94321B80E0DF91CF911F910F91B1
:10432000FF90EF90089580E296E00C94D31B61E03B
:104330008EE10E948D0F61E08FE10E948D0F61E0A0
:104340008DE10E948D0F60E08EE10E94A60F60E07B
:104350008FE10E94A60F61E08DE10E94A60F8CB54F
:1043600080618CBD8CB580648CBD08958CB58F7BCD
:104370008CBD0895811103C08CB5806202C08CB5DC
:104380008F7D8CBD08959CB5937F982B9CBD08951F
:104390002CB5982F93702C7F922B9CBD9DB580FBE4
:1043A00090F99DBD0895CF93C62F61E08DE10E94E5
:1043B0008D0F61E082E20E948D0F61E08DE10E942D
:1043C000A60F61E082E20E94A60F8091CC0E909130
:1043D000CD0EA091CE0EB091CF0EA2FF08C061E02D
:1043E00088E00E948D0F61E088E00E94A60F809116
:1043F000CC0E9091CD0EA091CE0EB091CF0E96FF27
:1044000008C061E089E00E948D0F61E089E00E94B0
:10441000A60F8091CC0E9091CD0EA091CE0EB091B2
:10442000CF0EA3FF08C061E082E00E948D0F61E023
:1044300082E00E94A60F8091CC0E9091CD0EA091AB
:10444000CE0EB091CF0EA4FF08C061E082E20E94C0
:104450008D0F61E082E20E94A60FC330C9F020F404
:10446000C13061F070F407C0C53061F1F0F0C630C2
:1044700009F067C033C060E08DE160C060E082E2B7
:104480005DC087EE97E00E944E2560E08CE256C04A
:104490008091CC0E9091CD0EA091CE0EB091CF0E0A
:1044A000A2FF4FC060E088E049C08091CC0E90919F
:1044B000CD0EA091CE0EB091CF0E96FF42C060E01F
:1044C00089E03CC08091CC0E9091CD0EA091CE0E93
:1044D000B091CF0EA3FF35C060E02FC061E08DE149
:1044E0000E94A60F61E082E20E94A60F8091CC0E8E
:1044F0009091CD0EA091CE0EB091CF0EA2FF04C030
:1045000061E088E00E94A60F8091CC0E9091CD0EC4
:10451000A091CE0EB091CF0E96FF04C061E089E06D
:104520000E94A60F8091CC0E9091CD0EA091CE0E40
:10453000B091CF0EA3FF05C061E082E0CF910C9453
:10454000A60FCF9108958091CC0E9091CD0EA091A1
:10455000CE0EB091CF0EA2FF0EC08091CC0E9091E6
:10456000CD0EA091CE0EB091CF0E81FF04C08091F0
:10457000DE078823C1F18091CC0E9091CD0EA091E1
:10458000CE0EB091CF0EA1FF0CC08091DC0781113F
:1045900008C061E086E10E948D0F61E086E10E9423
:1045A000A60F8091DD07811108C061E08BE10E94B8
:1045B0008D0F61E08BE10E94A60F8091CC0E90914F
:1045C000CD0EA091CE0EB091CF0EA4FF11C0809160
:1045D000E10781110DC061E086E10E948D0F61E06D
:1045E00086E10C94A60F61E082E00E94A60FC3CF83
:1045F00008958091CC0E9091CD0EA091CE0EB091E9
:10460000CF0EA2FF0EC08091CC0E9091CD0EA09146
:10461000CE0EB091CF0E81FF04C08091DE078823BB
:10462000C1F18091CC0E9091CD0EA091CE0EB091A3
:10463000CF0EA1FF0CC08091DC07811108C061E0A2
:1046400086E10E948D0F60E086E10E94A60F8091B6
:10465000DD07811108C061E08BE10E948D0F60E0F1
:104660008BE10E94A60F8091CC0E9091CD0EA0916F
:10467000CE0EB091CF0EA4FF11C08091E107811141
:104680000DC061E086E10E948D0F60E086E10C9430
:10469000A60F60E082E00E94A60FC3CF0895CF93DB
:1046A000C82F8CED97E00E94A322CEBD0DB407FE6B
:1046B000FDCF8CED97E00E94F9228EB5CF91089541
:1046C0000F931F93CF93DF938A01EB01060F171F00
:1046D00003C089910E944F23C017D107D1F7DF9102
:1046E000CF911F910F9108950F931F93CF93DF9355
:1046F000EB014115510519F18A01015011098CEDA9
:1047000097E00E94A3228FEF8EBDFE012FEF06C01F
:104710000DB407FEFDCF8EB52EBD8193CF018C1B4E
:104720009D0B80179107A0F30DB407FEFDCF8EB54A
:10473000C00FD11F88838CED97E00E94F92280E0A2
:10474000DF91CF911F910F9108958CED97E00E941A
:10475000A3228FEF8EBD0DB407FEFDCF8CED97E049
:104760000E94F9228EB508951092DD071092DC07A1
:104770001092DE071092DF071092E0071092E10717
:104780000895FC01408160E072EC81E090E00E94BD
:10479000321061E087E10E948D0F61E087E10E94A5
:1047A000A60F61E08BE00E948D0F60E08BE00E941D
:1047B000A60F61E08DE20E948D0F60E08DE20C9407
:1047C000A60FDC018091C50011968C931197809102
:1047D000C40012968C931297E2ECF0E0808113965D
:1047E0008C9313978091CA0014968C9314978081B0
:1047F0008F7D808380818F7E80838081877F80838F
:104800004C9160E072EC81E090E00E94321061E037
:1048100087E10E94A60F60E08BE00C94A60FCF9377
:10482000DF93EC014091CC0E5091CD0E6091CE0EF5
:104830007091CF0E63E070E080E090E042FF07C02F
:104840000E94AC0E61E08BE00E94A60F02C00E94A5
:10485000AC0E89818093C5008A818093C4008B81CE
:104860008093C2008C818093CA00DF91CF9108951C
:10487000EF92FF920F931F93CF93DF938C01EB0185
:104880000E94E1237E0188E1E81A8CEFF80AFE011C
:1048900021968491882339F0F80160810E942C11BF
:1048A000CE15DF05A1F7C8010E940F2460E070E07B
:1048B000CB01DF91CF911F910F91FF90EF90089561
:1048C000AF92BF92DF92EF92FF920F931F93CF931D
:1048D000DF93EC01142FD52E7B0159010E94E123B7
:1048E000A114B10429F46881812F0E942C1116C0F3
:1048F0008AE0A816B10439F44881612F7D2DC701E3
:104900000E94F9110BC09501442737FD4095542FA3
:104910000881612F7D2DC7010E94491188810E9465
:104920002E11CE01DF91CF911F910F91FF90EF904B
:10493000DF90BF90AF900C940F240F931F93CF93F1
:10494000DF93EC018B010E94E1236881C8010E9482
:10495000391188810E942E11CE01DF91CF911F91D4
:104960000F910C940F24CF93DF93EC010E94E1236D
:1049700088810E942E11CE01DF91CF910C940F24DB
:10498000EF92FF920F931F93CF93DF9300D0CDB799
:10499000DEB77C010E9438248C01C70169837A83C9
:1049A0000E94B32469817A81C8010F900F90DF9132
:1049B000CF911F910F91FF90EF900895AF92BF920A
:1049C000DF92EF92FF920F931F93CF93DF93EC014F
:1049D000142FD52E7B0159010E94E123A114B104AB
:1049E00029F46881812F0E942C1116C08AE0A81634
:1049F000B10439F44881612F7D2DC7010E94F9115E
:104A00000BC09501442737FD4095542F0881612F35
:104A10007D2DC7010E944911CE01DF91CF911F91D9
:104A20000F91FF90EF90DF90BF90AF900C940F2408
:104A30000F931F93CF93DF93EC018B010E94E1232F
:104A40006881C8010E943911CE01DF91CF911F9179
:104A50000F910C940F241092E20708951F93CF93A7
:104A6000DF931F92CDB7DEB7162F61E0812F498308
:104A70000E948D0F4981413011F461E003C0411162
:104A800008C060E0812F0F90DF91CF911F910C94AF
:104A9000A60F0F90DF91CF911F91089561E087E1FC
:104AA0000E948D0F61E084E20E948D0F61E085E23B
:104AB0000E948D0F61E087E10E94A60F61E084E211
:104AC0000E94A60F61E085E20C94A60FCB010C9426
:104AD0005A468F929F92AF92BF92CF92DF92EF92FF
:104AE000FF920F931F93CF93DF93CDB7DEB7C75FCE
:104AF000D1090FB6F894DEBF0FBECDBF8E010051B5
:104B00001F4F580128E0A20EB11C7E0181E8E80E7B
:104B1000F11CCC24C394D12CCC0EDD1E6DE0CE0153
:104B20008F519F4F0E94554040E06CE087EE97E028
:104B30000E942E2540E06DE087EE97E00E942E2532
:104B4000F801108211821282138261E08CE00E94CF
:104B50008D0F61E08CE00E94A60FCE018F519F4F18
:104B60000E94353F41E06DE087EE97E00E942E25E0
:104B70006AE070E080E090E00E94AC0E40E063E309
:104B8000CE018F519F4F0E94064062E370E080E0AB
:104B900090E00E94AC0E4701CE018F519F4F0E94C2
:104BA000DB3FF2E08F1A9108F4018083118261E00B
:104BB00070E080E090E00E94AC0E8C149D0461F7E0
:104BC000FE017196D701C60180599F4F2191319105
:104BD0002D933D93E817F907C9F731EE832E912CF9
:104BE0008C0E9D1E81E090E0A0E0B0E0F4013291D7
:104BF00022914F012130310569F4F8014081518142
:104C000062817381480F591F6A1F7B1F4083518344
:104C100062837383880F991FAA1FBB1F8E149F0482
:104C200029F7F80180819181A281B3818F3F9F4F45
:104C3000AF4FBF4F29F4F801108211821282138204
:104C400060E08CE00E94A60F40E06CE087EE97E009
:104C50000E942E2540E06DE087EE97E00E942E2511
:104C60000C5F1F4F0A151B0509F058CFC051DF4FCD
:104C7000088119812A813B81C05FD040CC50DF4F31
:104C800088819981AA81BB81C45FD0400817190728
:104C90002A073B0719F000E010E09801B801C901AC
:104CA000C950DF4F0FB6F894DEBF0FBECDBFDF9106
:104CB000CF911F910F91FF90EF90DF90CF90BF9019
:104CC000AF909F908F900895CF92DF92EF92FF92D6
:104CD0000E9469256B017C016115710581059105B3
:104CE00091F483EE90E00E9462466A302AE07207F7
:104CF0008207920741F06F3F2FEF720782079207FA
:104D000011F06B017C01B601C701FF90EF90DF90BD
:104D1000CF900895CF93DF93FA013196DA01CB015A
:104D2000EB0130E013C06991762F72957F706F7040
:104D30007A3010F4705D01C0795C7C936A3010F4B5
:104D4000605D01C0695C608332961296BE01681B8B
:104D5000790B621773073CF3F901EE0FFF1FE40FA5
:104D6000F51F1082DF91CF910895FB012081822FE2
:104D700080538A3030F4332727FD30952053310992
:104D800009C0822F8154863040F4332727FD3095A7
:104D9000275331096F5F7F4F02C020E030E0FB01F5
:104DA0008081982F90539A3028F4992787FD909509
:104DB000C0970BC0982F9154963028F4992787FDFF
:104DC0009095C79702C080E090E0F0E12F9F800DA2
:104DD00011240895CF92DF92EF92FF920F931F93C9
:104DE000CF93DF93EB0109900020E9F72197C61BD1
:104DF000D70BD695C7957B018A016E01C40ED51ECF
:104E00000BC0B70187EE97E00E94B526F8018193A9
:104E10008F01F2E0EF0EF11C0C151D0591F7CE018C
:104E2000DF91CF911F910F91FF90EF90DF90CF9086
:104E300008958FED90E00E945A468F3F09F480E07C
:104E40000895CF93DF93EC0180E2E6E1F8E0DF0123
:104E5000982F1D929A95E9F7109215081092140850
:104E6000E3EFF7E0DF011D928A95E9F71092F20770
:104E70001092F1070E94CB2881E08E8384E090E0BD
:104E8000DF91CF910C94D60E81E08093F007609370
:104E900013081092F2071092F10708950C9444271A
:104EA0008091140890911508891B08959091150818
:104EB00080911408981748F4E92FF0E0EA5EF74F64
:104EC00080819F5F90931508089580E00895CF93A7
:104ED000DF93EC010E9417291E82DF91CF91089584
:104EE0004091CC0E5091CD0E6091CE0E7091CF0EB0
:104EF0004170FC0140834091CC0E5091CD0E6091E9
:104F0000CE0E7091CF0E7695679557954795417067
:104F100041838091CC0E9091CD0EA091CE0EB09198
:104F2000CF0E84FD49C08091CC0E9091CD0EA09102
:104F3000CE0EB091CF0E85FD3FC08091CC0E9091EA
:104F4000CD0EA091CE0EB091CF0E86FD35C08091D2
:104F5000CC0E9091CD0EA091CE0EB091CF0E87FDCC
:104F60002BC08091CC0E9091CD0EA091CE0EB09121
:104F7000CF0E90FD21C08091CC0E9091CD0EA091CE
:104F8000CE0EB091CF0E91FD17C08091CC0E9091B6
:104F9000CD0EA091CE0EB091CF0E93FD0DC0089511
:104FA00040E060E08BE895E00E94941440E061E00E
:104FB0008BE895E00C9494148091EF07882381F39B
:104FC0000895CF93DF93EC018091CC0E9091CD0E9C
:104FD000A091CE0EB091CF0E84FD58C08091CC0E22
:104FE0009091CD0EA091CE0EB091CF0E85FD4EC00A
:104FF0008091CC0E9091CD0EA091CE0EB091CF0E9F
:1050000086FD44C08091CC0E9091CD0EA091CE0E25
:10501000B091CF0E87FD3AC08091CC0E9091CD0E0D
:10502000A091CE0EB091CF0E90FD30C04091CC0E2D
:105030005091CD0E6091CE0E7091CF0E51FD26C0D5
:105040004091CC0E5091CD0E6091CE0E7091CF0E4E
:1050500053FD1CC020C041E060E08BE895E00E9459
:1050600094140CC08981811106C041E060E08BE896
:1050700095E00E949414888181110DC041E061E0A7
:105080008BE895E0DF91CF910C9494148091EF0719
:105090008111E8CFE0CFDF91CF910895CF93DF93D7
:1050A0001F92CDB7DEB769838091F007882389F01E
:1050B0008091F1078032D0F48091F207E82FF0E080
:1050C000ED50F84F60838F5F8093F2078093F10774
:1050D0000DC088EE97E00E94702761E0CE01019636
:1050E0000E94F82888EE97E00E94E1270F90DF9158
:1050F000CF9108950C944E28CF9388EE97E00E94AC
:10510000702721E04091F10763EF77E08091130869
:105110000E94BB29C82F1092F2071092F10710923B
:10512000F00788EE97E00E94E1278C2FCF91089539
:10513000CF93DF93D62FC42F88EE97E00E9470277D
:10514000C13208F0C0E24C2F66E178E08D2F0E945A
:10515000202AD82F10921508C093140888EE97E0E3
:105160000E94E1278D2FDF91CF9108950C9498280C
:105170001092EF071092E8071092E9078AEF90E08B
:10518000A0E0B0E08093EA079093EB07A093EC07D0
:10519000B093ED07089510923F08E4E6F0E08081B7
:1051A0008F778083589A599AE9EBF0E080818E7F5F
:1051B000808380818D7F808381E48093B80085E443
:1051C0008093BC0080E2E0E4F8E0DF01982F1D92BC
:1051D0009A95E9F7E0E6F8E0DF01982F1D929A959D
:1051E000E9F7E0E8F8E0DF011D928A95E9F7089514
:1051F000613298F420913F08243089F460933C0890
:10520000FC0180E698E0DC0102C021912D932A2F59
:10521000281B2617D0F380E0089581E0089582E0EE
:10522000089585EC8093BC0010923F08089558982B
:1052300059988091B90081608093B9008091B9003C
:1052400082608093B9008091BC0080688093BC002C
:105250008091BC0080618093BC008091BC008F7BFA
:105260008093BC008091BC008F7D8093BC008091B6
:10527000BC00877F8093BC008091CC0E9091CD0EB6
:10528000A091CE0EB091CF0E86FD14C08091CC0EB1
:105290009091CD0EA091CE0EB091CF0E90FD0AC090
:1052A0008091CC0E9091CD0EA091CE0EB091CF0EEC
:1052B00093FF04C08091BC008B7F03C08091BC0031
:1052C00084608093BC008091BC008E7F8093BC0082
:1052D000809164008068809364000895882349F079
:1052E0001092360810923708109238081092390838
:1052F00013C08091360890913708A0913808B0917A
:1053000039080196A11DB11D809336089093370886
:10531000A0933808B09339088091360890913708E7
:10532000A0913808B0913908803A9648A140B1055B
:1053300060F01092360810923708109238081092D8
:1053400039080E94CB2881E0089580E0089585ED1A
:105350008093BC0081E00E946E2908C080E00E941A
:105360006E29882319F010923F0808958091BC009F
:1053700084FDF4CFF8CFFF920F931F93CF93DF9369
:10538000182F062FF72EC42FD22F81E0413208F0BC
:1053900051C00E946E2915C080E00E946E298823AA
:1053A00081F082E080933F088FEF80933A0810925B
:1053B0003E08C093A008E02FFF2D60E478E0DB01F9
:1053C00007C080913F088111E7CFEBCF81918D938A
:1053D0008A2F861B8C17D0F3812F90E0880F991F9E
:1053E0008093A10885EE8093BC0081E00E946E2925
:1053F000D11105C080913A088F3F59F414C08091B3
:105400003F088230B9F780E00E946E2981110DC0FB
:10541000F6CF80913A08803251F080913A0880337B
:1054200041F483E007C080E005C085E003C082E06E
:1054300001C084E0DF91CF911F910F91FF900895FB
:105440000F931F93CF93DF93082FD62F172FC42FBF
:1054500081E04132E0F50E946E291DC080E00E948B
:105460006E298823C1F081E080933F088FEF8093FD
:105470003A0810923E08C093A008802F90E0880F51
:10548000991F81608093A10885EE8093BC0081E024
:105490000E946E2910C080913F088111DFCFE3CFB9
:1054A00080E00E946E29882331F080E498E0ED2F9F
:1054B000F12FDC0107C080913F08813089F3F5CFDF
:1054C0002D9121932A2F281B2C17D0F380E0DF91F8
:1054D000CF911F910F9108951F920F920FB60F92C7
:1054E00011240BB60F922F933F934F935F936F93BB
:1054F0007F938F939F93AF93BF93CF93EF93FF933C
:10550000C091B900C87FC03609F49FC058F5C832B1
:1055100009F45BC090F4C03109F452C038F4CC23D4
:1055200009F4F2C0C83009F0F3C04AC0C83109F428
:105530004CC0C03209F0ECC05DC0C03409F473C087
:1055400038F4C03309F45BC0C83309F0E1C05AC075
:10555000C03509F45CC0C83509F46AC0C83409F024
:10556000D7C0D4C0C83909F4C5C0A8F4C83709F4F5
:105570006CC038F4C83609F468C0C03709F0C8C038
:1055800064C0C83809F4B6C0C03909F464C0C03872
:1055900009F0BEC060C0C03B09F484C038F4C03A12
:1055A00009F46BC0C83A09F0B3C07CC0C03C09F430
:1055B000A5C0C83C09F4A2C0C83B09F0A9C087C077
:1055C0008091A1088093BB0013C090913E08809108
:1055D000A008981708F09AC080913E08E82FF0E0E4
:1055E000E05CF74F90819093BB008F5F80933E0803
:1055F00085EC81C00E94A729C0933A0889C0C09356
:105600003A0884C0C0933A080E94112981C0809151
:105610003E089091BB00E82FF0E0E05CF74F9083EC
:105620008F5F80933E0890913E088091A0085FC0F4
:1056300080913E089091BB00E82FF0E0E05CF74FCE
:1056400090838F5F80933E0861C083E080933F0822
:1056500010923B08CDCF80913B08803208F04AC0C1
:1056600080913B089091BB00E82FF0E0E058F74FA5
:1056700090838F5F80933B08BBCF80913B08803243
:1056800030F4E0913B08F0E0E058F74F1082609171
:105690003B08E091A208F091A30870E080E898E050
:1056A00009952CC084E080933F0810923D08109229
:1056B0003C08E091A408F091A508099580913C0868
:1056C000811105C081E080933C08109260088091B0
:1056D0003D08E82FF0E0E05AF74F90819093BB002F
:1056E0008F5F80933D0890913D0880913C0898170A
:1056F00008F47ECF85E88093BC000AC085EC8093D7
:10570000BC0010923F0804C010923A080E94A729DA
:10571000FF91EF91CF91BF91AF919F918F917F9129
:105720006F915F914F913F912F910F900BBE0F9012
:105730000FBE0F901F9018951F920F920FB60F92E9
:1057400011240BB60F922F933F934F935F936F9358
:105750007F938F939F93AF93BF93EF93FF9380912A
:10576000A6089091A708892B29F0E091A608F0914E
:10577000A7080995FF91EF91BF91AF919F918F91EC
:105780007F916F915F914F913F912F910F900BBE41
:105790000F900FBE0F901F9018951F920F920FB68B
:1057A0000F9211240BB60F922F933F934F935F9359
:1057B0006F937F938F939F93AF93BF93EF93FF93D9
:1057C0008091A8089091A908892B29F0E091A80858
:1057D000F091A9080995FF91EF91BF91AF919F9129
:1057E0008F917F916F915F914F913F912F910F908A
:1057F0000BBE0F900FBE0F901F9018951F920F9227
:105800000FB60F9211240BB60F922F933F934F9325
:105810005F936F937F938F939F93AF93BF93EF9318
:10582000FF938091AA089091AB08892B29F0E09111
:10583000AA08F091AB080995FF91EF91BF91AF9144
:105840009F918F917F916F915F914F913F912F9198
:105850000F900BBE0F900FBE0F901F9018951F92C8
:105860000F920FB60F9211240BB60F922F933F9306
:105870004F935F936F937F938F939F93AF93BF9358
:10588000EF93FF938091AC089091AD08892B29F09C
:10589000E091AC08F091AD080995FF91EF91BF91AF
:1058A000AF919F918F917F916F915F914F913F91B8
:1058B0002F910F900BBE0F900FBE0F901F90189559
:1058C0001F920F920FB60F9211240BB60F922F93C7
:1058D0003F934F935F936F937F938F939F93AF9378
:1058E000BF93EF93FF938091AE089091AF08892BFF
:1058F00029F0E091AE08F091AF080995FF91EF9182
:10590000BF91AF919F918F917F916F915F914F91D7
:105910003F912F910F900BBE0F900FBE0F901F90D5
:1059200018951F920F920FB60F9211240BB60F927B
:105930002F933F934F935F936F937F938F939F9397
:10594000AF93BF93EF93FF938091B0089091B1080C
:10595000892B29F0E091B008F091B1080995FF91E9
:10596000EF91BF91AF919F918F917F916F915F91D7
:105970004F913F912F910F900BBE0F900FBE0F9044
:105980001F9018951F920F920FB60F9211240BB60D
:105990000F922F933F934F935F936F937F938F93C8
:1059A0009F93AF93BF93EF93FF938091B208909131
:1059B000B308892B29F0E091B208F091B30809955A
:1059C000FF91EF91BF91AF919F918F917F916F91D7
:1059D0005F914F913F912F910F900BBE0F900FBE93
:1059E0000F901F9018951F920F920FB60F921124CF
:1059F0000BB60F922F933F934F935F936F937F93C9
:105A00008F939F93AF93BF93EF93FF938091B408CD
:105A10009091B508892B29F0E091B408F091B50870
:105A20000995FF91EF91BF91AF919F918F917F91D8
:105A30006F915F914F913F912F910F900BBE0F90FF
:105A40000FBE0F901F90189590917C0020917A00C6
:105A5000206820937A009F70981769F090917C00DD
:105A60008F70907F892B80937C0061E070E080E0F4
:105A700090E00E94AC0E80917A00806480937A005E
:105A800080917A0086FDFCCF2091780030917900DA
:105A9000932F80E0AC01422B9A01C901089561E087
:105AA000FC0180810E94A60F8FEF0C944F230E946F
:105AB000972180E00E94C32184E00E94C82160E019
:105AC0008CED97E00C94D3218F929F92AF92BF926E
:105AD000CF92DF92EF92FF920F931F93CF93DF93BA
