:100000000C9471030C9483220C94B4220C94E5227A
:100010000C9416230C9447230C9478230C94A92356
:100020000C94DA230C94A0030C94A0030C94A0036A
:100030000C9432250C94A0030C94A0030C948E25F0
:100040000C94A0030C94A0030C94A0030C94A003A4
:100050000C94A0030C94A0030C94A0030C946925A9
:100060000C94A0030C9480280C94A0030C94A0037F
:100070000C94A0030C94A0030C94A0030C94A00374
:100080000C94A0030C94A0030C94A0030C94A00364
:100090000C94BB280C94A0030C94A0030C9419207E
:1000A0000C94A0030C94A0030C94A0030C94A00344
:1000B0000C94A0030C94A0030C94A0030C94A00334
:1000C0000C94A0030C94A0030C94A003084AD73B03
:1000D0003BCE016E84BCBFFDC12F3D6C74319ABD17
:1000E00056833DDA3D00C77F11BED9E4BB4C3E913B
:1000F0006BAAAABE000000803F07634236B79BD8B8
:10010000A71A39685618AEBAAB558C1D3CB7CC57F8
:1001100063BD6DEDFD753EF6177231BF00000080C6
:100120003F08000000BE922449123EABAAAA2ABE94
:10013000CDCCCC4C3E00000080BEABAAAAAA3E00AB
:10014000000000BF000000803F00000000000841E8
:1001500078D3BB4387D1133D190E3CC3BD4282AD5A
:100160002B3E68EC8276BED98FE1A93E4C80EFFF32
:10017000BE01C4FF7F3F0000000000536574746936
:100180006E67204368616E6E656C20746F0927315D
:1001900037270909207374617465200053657474EE
:1001A000696E67204865616465722020746F092755
:1001B0003127200909207374617465200053657428
:1001C00074696E67204D6F646520202020746F096C
:1001D00027332709092073746174652000536574FF
:1001E00074696E67204352432020202020746F09D9
:1001F0002731272009092073746174652000536535
:100200007474696E67205061636B657420746F202D
:10021000273139272E090920737461746520005332
:10022000657474696E6720506F7765722020207442
:100230006F09274C27200909207374617465200019
:1002400053657474696E6720494420202020202063
:10025000746F09000909207374617465200009092D
:10026000204C6F52613A204368616E6E656C20418C
:100270006374697669747920446574656374656430
:10028000000909204C6F52613A2064617461526523
:100290007175657374005061636B65742052656994
:1002A00063656976656420000909204C6F52613AE4
:1002B00020524543454956452073746174652000BA
:1002C000090920204C6F52613A2073656E644461C5
:1002D0007461000909204C6F52613A205061636BD0
:1002E00065742073656E74000909204C6F52613A81
:1002F0002053656E64696E67206661696C65643A57
:100300002000090909204C6F52613A20536574742A
:10031000696E677320646F6E65000909204C6F5227
:10032000613A205761697420466F72204465657098
:10033000536C65657020636F6D6D616E64000909B3
:100340002044656570536C65657020636F6D6D61E9
:100350006E64207265636569766564000909204CE6
:100360006F52613A2044656570536C656570206317
:100370006F6D6D616E64204E4F54207265636569C8
:10038000766564004143433170697463680041439A
:100390004331726F6C6C004143433270697463681F
:1003A0005F0041434332726F6C6C5F0041434333E3
:1003B00070697463685F0041434333726F6C6C5FB4
:1003C00000504F545F200054656D70315F20005421
:1003D000656D70325F0054656D70335F00457272F9
:1003E0006F7220726561642073656E736F72730043
:1003F000493243206572726F72004B045F048504BA
:10040000AC04CC04E404F204020517052D053E05F6
:100410004A0551056E058C05A205B005C005E3052A
:10042000E90557726F6E672074696D6520666F729B
:100430006D61742E204D7573742062652022646492
:100440003A68683A6D6D3A73732200416C61726D5F
:10045000204D6F6465206D61746368657320005B77
:10046000446179203A20686F757273203A206D6973
:100470006E75746573203A207365636F6E64735D87
:10048000202D3E20005B44617465203A20686F7522
:100490007273203A206D696E75746573203A20730B
:1004A00065636F6E64735D202D3E20005B486F7541
:1004B0007273203A206D696E75746573203A2073EB
:1004C00065636F6E64735D202D3E20005B4D696E29
:1004D00075746573203A207365636F6E64735D2075
:1004E0002D3E20005B5365636F6E64735D202D3E6F
:1004F00020004F6E636520706572207365636F6EB8
:100500006400496E636F727265637420616C61721E
:100510006D206D6F6465005B253032753A25303291
:10052000753A253032753A253032755D005B2530DD
:1005300032753A253032753A253032755D005B25CB
:100540003032753A253032755D005B253032755D8D
:10055000005B446179203A20686F757273203A20FD
:100560006D696E75746573205D202D3E20005B44BF
:10057000617465203A20686F757273203A206D6946
:100580006E75746573205D202D3E20005B486F758D
:100590007273203A206D696E757465735D202D3E0F
:1005A00020005B4D696E757465735D202D3E2000E3
:1005B0004F6E636520706572206D696E757465009D
:1005C00025732C20253032752F253032752F25309C
:1005D00032752C20253032753A253032753A253067
:1005E0003275006572726F72002530327525632591
:1005F00030327525632530327525632530327525F7
:1006000063253032752563253032752563253032F8
:100610007500000008090000000000000000000054
:1006200000000000000000000000000000000000CA
:1006300000000000000000000000000000000000BA
:100640000000000000010208101020408004081083
:100650002040020204081020408001028020400453
:10066000200101020408102001408040800102089E
:1006700004088004100402010505050503030303B3
:100680000101010404030606060606060606010427
:100690000501050103020202020202010202050530
:1006A0000404030404010304070707002023262988
:1006B0002C2F32002225282B2E3134002124272AEA
:1006C0002D30336364696E6F70737578585B00000A
:1006D000AE032C0A0A1E6C36893656383C3A723EF6
:1006E000A54011241FBECFEFD1E2DEBFCDBF18E081
:1006F000A0E0B2E0E2EBFCE900E00BBF02C0079033
:100700000D92A637B107D9F716E1A6E7B8E001C008
:100710001D92A039B107E1F716E0C2EED6E000E085
:1007200006C022970109FE010BBF0E944B47C03D46
:10073000D10780E00807A9F70E94C2290C94574E00
:100740000C94000089E192E10E94633886E798E00A
:100750000C94530686E798E00C947E0686E798E0B2
:100760000C943E04089561E082E00C94522760E00E
:1007700082E00C94522761E088E00C94522760E0FC
:1007800088E00C945227CF93DF93EC0161E082E084
:100790000E94392761E088E00E943927CE010E943B
:1007A000B703CE01DF91CF910C94BF03CF93DF93BA
:1007B000EC010E94B3036CE271E080E090E00E94E3
:1007C0000526CE01DF91CF910C94B7031F93CF93F1
:1007D000DF93EC0114E0CE010E94D6036CEB72E0D3
:1007E00080E090E00E9405261150A9F7DF91CF919B
:1007F0001F9108951F93CF93DF93EC01603570F044
:100800000E94BB0368E873E180E090E00E94052647
:10081000CE01DF91CF911F910C94BF0315E0683298
:10082000A8F0CE010E94BB0364EF71E080E090E08D
:100830000E940526CE010E94BF0364EF71E080E0B4
:1008400090E00E940526115061F714C0CE010E946D
:10085000BB0364E670E080E090E00E940526CE01D4
:100860000E94BF0364E873E080E090E00E940526E8
:10087000115061F7DF91CF911F9108950F931F934E
:10088000CF93DF93CDB7DEB72A970FB6F894DEBFCC
:100890000FBECDBF8C01FC01178EBC0180960E945B
:1008A000FF06C801CE960E942B0CC8018E5B9F4F9D
:1008B0000E94350CC801885B9F4F0E94B203CE0195
:1008C00001960E94350CCE0107960E942B0C2A96A9
:1008D0000FB6F894DEBF0FBECDBFDF91CF911F9151
:1008E0000F910895FF920F931F93CF93DF93EC0125
:1008F0008C010E5B1F4FBC01C8010E94770DF82EC2
:1009000089AD898BC8010E941C0ECE0180960E9481
:1009100014088F2DDF91CF911F910F91FF900895B3
:10092000CF93DF93EC0180910A0290910B0281300A
:10093000910531F082309105E1F0892B81F12AC1D6
:100940006CE271E080E090E00E940526CE01809686
:100950000E94610881111EC182E090E090930B0219
:1009600080930A026FE072E089E192E10E947A3995
:1009700011C1CE0180960E94710881110BC11092A5
:100980000B0210920A0263E272E089E192E10E9496
:100990007A39CE01885B9F4F0E94B303FBC0CE0122
:1009A00080960E94A908811170C06AE372E089E113
:1009B00092E10E947A3981E090E090930B0280935B
:1009C0000A022091C7083091C8084091C908509187
:1009D000CA086091CB087091CC088091CD089091A5
:1009E000CE08A1E00E9433472093C7083093C8087F
:1009F0004093C9085093CA086093CB087093CC0801
:100A00008093CD089093CE0862E572E089E192E18F
:100A10000E947A396CE872E089E192E10E947A39A9
:100A200066E972E089E192E10E94293A4091C708A3
:100A30005091C8086091C9087091CA082AE030E056
:100A400089E192E10E94163969EB72E089E192E155
:100A50000E94293A4091BF085091C0086091C10896
:100A60007091C2082AE030E089E192E10E941639D3
:100A700062E572E089E192E10E947A39CE01885BF9
:100A80009F4F0E94E60380E087C02091CF083091FD
:100A9000D0084091D1085091D2086091D30870914C
:100AA000D4088091D5089091D608A1E00E943347E0
:100AB0002093CF083093D0084093D1085093D208A8
:100AC0006093D3087093D4088093D5089093D60888
:100AD00067EB72E089E192E10E94293A4091BF08F8
:100AE0005091C0086091C1087091C2082AE030E0BE
:100AF00089E192E10E9416392091CF083091D00807
:100B00004091D1085091D2086091D3087091D408D7
:100B10008091D5089091D608A1E00E943F47D9F175
:100B2000D0F11092CF081092D0081092D1081092F4
:100B3000D2081092D3081092D4081092D5081092BF
:100B4000D6082091BF083091C0084091C10850914B
:100B5000C2086091C3087091C4088091C508909143
:100B6000C6080E9433472093BF083093C0084093C3
:100B7000C1085093C2086093C3087093C40880935F
:100B8000C5089093C60882E090E090930B02809392
:100B90000A0201C001C081E0DF91CF9108950F9357
:100BA0008E5B9F4F0E94A00C40E06CE08EE192E1D2
:100BB0000E943F3A40E06DE08EE192E10E943F3AB0
:100BC00002E020E040E066ED72E082EC9FE00E94EF
:100BD000362D809185129091861281FF09C08091F7
:100BE0008512909186128D7F909386128093851244
:100BF0000F9108952091D7083091D808211531051B
:100C000021F02130310501F512C080960E94610863
:100C100081111AC081E090E09093D8088093D708A2
:100C20006FE072E089E192E10E947A390DC080960E
:100C30000E94A809811109C062EE72E089E192E187
:100C40000E947A3980E00895089581E00895CF9355
:100C5000DF93EC018E5B9F4F0E94BB0CCE01809610
:100C6000DF91CF910C94DB08CF9389E192E10E9450
:100C7000833861E086E00E94522768EC70E080E0F3
:100C800090E00E94052682EC9FE00E94592BC82F1D
:100C900060E086E00E94522789E192E10E94633879
:100CA0008C2FCF9108950F931F93CF93DF93EC0177
:100CB0008C01085B1F4FC8010E94C30360E089E0FC
:100CC0000E94392760E087E00E94392761E086E0D2
:100CD0000E943927CE010E943406682FC8010E9465
:100CE000FA03CE018E5B9F4F0E94680CCE01809666
:100CF000DF91CF911F910F910C941007CF93DF9349
:100D0000EC0120910C0230910D022230310541F1AD
:100D10004CF42115310509F456C02130310509F094
:100D20006BC008C023303105C1F12430310509F012
:100D300063C02CC089E192E10E94903960EF72E0BB
:100D400089E192E10E947A3989E192E10E94903929
:100D5000CE010E94720481114FC082E090E048C031
:100D600089E192E10E94903963E073E089E192E1C8
:100D70000E947A3989E192E10E949039CE010E9465
:100D80009004811139C084E090E032C00E94FA05DD
:100D9000811132C083E090E02BC089E192E10E9492
:100DA00090396CE173E089E192E10E947A3989E13E
:100DB00092E10E949039CE010E94CF0510920D025F
:100DC00010920C0219C089E192E10E9490396DE203
:100DD00073E089E192E10E947A3989E192E10E940F
:100DE0009039CE010E942706811106C081E090E073
:100DF00090930D0280930C02DF91CF910895FC0136
:100E0000158A81E0868B178A118E94E6928F748BF7
:100E1000638B858F838F83E0808F88E4848F089530
:100E20001F93CF93DF93EC0189E192E10E94633835
:100E300085E19CE00E948F1640E050E069ED70E093
:100E400085E19CE00E94FE1411E0811101C010E0D8
:100E50001F8A6BE771E089E192E10E94EE38612F11
:100E600070E089E192E10E945339111109C085E1D6
:100E70009CE00E94C00F11E0811103C010E001C08E
:100E800011E081E08B8F6CE971E089E192E10E94D1
:100E9000EE38612F70E089E192E10E94533911111F
:100EA0000AC063E085E19CE00E94C31211E0811159
:100EB00003C010E001C011E083E0888F6DEB71E0AA
:100EC00089E192E10E94EE38612F70E089E192E1C0
:100ED0000E945339111109C085E19CE00E9408105D
:100EE00011E0811103C010E001C011E081E08D8F9D
:100EF0006DED71E089E192E10E94EE38612F70E0C2
:100F000089E192E10E94533911110AC063E185E140
:100F10009CE00E94B11511E0811103C010E001C0F6
:100F200011E083E18A8F6EEF71E089E192E10E9426
:100F3000EE38612F70E089E192E10E94533911117E
:100F40000AC06CE485E19CE00E94771511E08111F4
:100F500003C010E001C011E08CE48C8F6FE172E0FF
:100F600089E192E10E94EE38612F70E089E192E11F
:100F70000E94533960E074E08EE192E10E948F3A62
:100F8000898F11110AC0682F85E19CE00E94F0153D
:100F900011E0811103C010E001C011E060E472E0D3
:100FA00089E192E10E94EE38498D50E060E070E006
:100FB0002AE030E089E192E10E94BB3964E572E009
:100FC00089E192E10E94EE3865E085E19CE00E94B3
:100FD0005E1684EC9FE00E94A0326AE473E084EC29
:100FE0009FE00E946633612F70E089E192E10E94E8
:100FF000533911110EC06EE573E089E192E10E9450
:101000007A3941E06CE08EE192E10E943F3A80E063
:1010100007C061E773E089E192E10E947A3981E0DB
:10102000DF91CF911F910895FC01A389B489119696
:101030008C91119780838C91818315968C91159753
:10104000828314968C911497838319968C911997A7
:10105000848318968C911897858313968C91139797
:10106000868312968C911297878317968C91179787
:10107000808716968C91169781871B968C911B976B
:1010800082871A968C911A97838750968C915097E5
:1010900084871F968C911F97858752968C915297C3
:1010A00086871C968C911C9787871D968C911D971F
:1010B000808B1E968C911E97818B51968C91828B82
:1010C000089585E19CE00E94CA1D882341F06EE5E9
:1010D00072E089E192E10E949D3980E0089581E00B
:1010E00008951F93CF93DF93EC0161E872E089E1EB
:1010F00092E10E949D3940E157E260E070E085E1B5
:101100009CE00E94501C182F9091350D8D899813EA
:101110001CC0111108C066E972E089E192E10E94E9
:101120009D3980E012C068EA72E089E192E10E9494
:10113000EE38412F50E060E070E02AE030E089E1D5
:1011400092E10E94163981E000C0DF91CF911F919A
:101150000895CF93DF93EC0160EC72E089E192E1B6
:101160000E949D3923E130E0AE0162E085E19CE020
:101170000E94A41D8093DA08811108C063ED72E01B
:1011800089E192E10E949D3980E012C068EE72E030
:1011900089E192E10E94EE384091DA0850E060E087
:1011A00070E02AE030E089E192E10E94163981E0A6
:1011B000DF91CF9108950F931F93CF93DF93EC01AD
:1011C00089E192E10E94633885E19CE00E948F16DC
:1011D00068EE73E080E090E00E94052640E050E079
:1011E00069ED70E085E19CE00E94FE1401E0811150
:1011F00001C000E0102F66E873E089E192E10E94EF
:10120000293A602F70E089E192E10E9453398B8D79
:10121000813061F4011109C085E19CE00E94C00F9A
:1012200011E0811103C010E001C011E08B8D81112C
:101230000CC0111109C085E19CE00E94E80F11E08B
:10124000811103C010E001C011E011110AC0688DC6
:1012500085E19CE00E94C31291E0811103C090E0FF
:1012600001C091E0892F2D8D213069F4911109C0C1
:1012700085E19CE00E94081091E0811103C090E09C
:1012800001C091E0892F9D8D91110DC0811109C080
:1012900085E19CE00E94391091E0811103C090E04B
:1012A00001C091E0892F811142C06A8D85E19CE0E7
:1012B0000E94B11581113BC033C065E085E19CE01F
:1012C0000E945E1684EC9FE00E94A0326AE473E004
:1012D00084EC9FE00E946633C11114C041E06CE0D1
:1012E0008EE192E10E943F3A41E06DE08EE192E1B1
:1012F0000E943F3A62E073E089E192E10E949D39E9
:1013000080E021C065EA73E089E192E10E94293A18
:1013100061E070E089E192E10E94533981E013C0FD
:101320006C8D85E19CE00E947715882311F0C1E067
:10133000C4CF698D85E19CE00E94F015C1E0811168
:10134000BCCFC0E0BACFDF91CF911F910F9108952C
:10135000CF93DF93EC016AE173E089E192E10E94AF
:101360009D3940E157E260E070E085E19CE00E9439
:10137000501C8093D9082091350D9E8929131DC0DA
:10138000811108C06EE373E089E192E10E949D390A
:1013900080E013C06CE573E089E192E10E94EE38D1
:1013A0004091D90850E060E070E02AE030E089E147
:1013B00092E10E94163981E000C0DF91CF9108953B
:1013C000CF93DF93FC01E753FF4F21E02083FC0123
:1013D000E553FF4F40E052EC61E070E04083518301
:1013E00062837383FC01E653FF4F2083DC011C9270
:1013F000FC01EA50FF4F1082BC0163577F4F24E18C
:10140000EB01E22F1992EA95E9F7AF55BF4FED01D5
:10141000E22F1992EA95E9F7EC01CB54DF4FFE0178
:1014200011922A95E9F721E630E74EE6FB01208389
:101430003183428325E0EDEBF3E001900D922A9594
:10144000E1F728E0E3ECF3E0DE0101900D922A954C
:10145000E1F7DF91CF9108958BED98E00C94E009CE
:101460000895EF92FF920F93CF93DF93CDB7DEB73E
:1014700027970FB6F894DEBF0FBECDBF7B0107E004
:101480009E012F5F3F4F40E0FC0160818FE192E1C0
:101490000E94973D873009F59A8180E02B81822B4D
:1014A0009595879595958795F701918380839C8184
:1014B00080E02D81822B95958795959587959383CF
:1014C00082839E8180E02F81822B959587959595CB
:1014D00087959583848380E001C081E027960FB6CD
:1014E000F894DEBF0FBECDBFDF91CF910F91FF907B
:1014F000EF900895EF92FF920F93CF93DF93CDB7C4
:10150000DEB727970FB6F894DEBF0FBECDBF7C01C4
:10151000613041F028F0623039F0633051F406C098
:101520008EE105C08DE103C08CE101C08FE1F701C0
:1015300080831F8201E09E01295F3F4F4AE2F7014D
:1015400060818FE192E10E94523D1F829E01295FDE
:101550003F4F4EE0F70160818FE192E10E94523DE2
:1015600089E38F839E01295F3F4F4AE2F701608143
:101570008FE192E10E94523D82E18F839E01295FBB
:101580003F4F4BE2F70160818FE192E10E94523DB3
:1015900083E08F839E01295F3F4F4CE2F70160811A
:1015A0008FE192E10E94523DBE016F5F7F4FC70104
:1015B0000E94310A27960FB6F894DEBF0FBECDBF4A
:1015C000DF91CF910F91FF90EF9008952F923F926E
:1015D0004F925F926F927F928F929F92AF92BF9243
:1015E000CF92DF92EF92FF920F931F93CF93DF93EF
:1015F000CDB7DEB729970FB6F894DEBF0FBECDBFCB
:101600007987688707E09E012F5F3F4F40E0FC012C
:1016100060818FE192E10E94973D873009F0EAC036
:101620007A8160E08B81682B7595679575956795D4
:10163000882777FD8095982F0E94314320E43AED6A
:101640004FE759E30E9451442B013C017C8160E04B
:101650008D81682B7595679575956795882777FDBA
:101660008095982F0E94314320E43AED4FE759E3EB
:101670000E9451444B018C017E8160E08F81682B78
:101680007595679575956795882777FD8095982F4F
:101690000E94314320E43AED4FE759E30E94514460
:1016A000262F372F482F592F0E9451441B015C01D0
:1016B000282D392D402F512F682D792D802F912FD6
:1016C0000E945144222D332D4A2D5B2D0E94F3415F
:1016D0000E9404459B01AC01642D752D862D972D2C
:1016E0000E9496420E9457426B017C01242D352DA9
:1016F000462D572D642D752D862D972D0E94514412
:10170000222D332D4A2D5B2D0E94F3410E9404456A
:101710009B01AC01682D792D802F912F0E9496425C
:101720000E9457424B015C0121EE3EE245E652E445
:10173000C701B6010E94514420E030E048EC52E479
:101740000E94514420E030E040E05FE30E94F3411A
:101750000E94FE42882777FD8095982F0E94314392
:101760002B013C0121EE3EE245E652E4C501B40105
:101770000E94514420E030E048EC52E40E94514481
:1017800020E030E040E05FE30E94F3410E94FE422F
:10179000882777FD8095982F0E9431436B017C014B
:1017A00020E030E048EC52E4C301B2010E949642CE
:1017B00020E030E048EC52E40E9451440E94FE4296
:1017C000E885F9857183608320E030E048EC52E4DD
:1017D000C701B6010E94964220E030E048EC52E496
:1017E0000E9451440E94FE42E885F985738362831A
:1017F00080E001C081E029960FB6F894DEBF0FBEED
:10180000CDBFDF91CF911F910F91FF90EF90DF90AF
:10181000CF90BF90AF909F908F907F906F905F9090
:101820004F903F902F9008950F93CF93DF931F9287
:10183000CDB7DEB7198201E09E012F5F3F4F4AE22C
:10184000FC0160818FE192E10E94523D0F90DF9197
:10185000CF910F91089520E337E0FC01318320837D
:1018600025E337E03383228308950F931F93CF93AB
:10187000DF9300D01F92CDB7DEB78C010E94300AF3
:10188000C80101960E94300AC80102960E94300ADF
:10189000C80103960E940E1EC80104960E940E1EE7
:1018A000C80105960E940E1ECE0103960E94300AC2
:1018B000CE0102960E94300ACE0101960E94300AA3
:1018C0000F900F900F90DF91CF911F910F9108957E
:1018D000CF93DF93EC0160E087E00E94392740E07E
:1018E00060E082EC9FE00E94DE2A60ED77E080E01D
:1018F00090E00E94052660E0CE010E947A0A61E035
:10190000CE0101960E947A0A62E0CE0102960E9400
:101910007A0A60E0CE0103960E940F1E61E0CE01BC
:1019200004960E940F1E62E0CE0105960E940F1ED3
:1019300068EE73E080E090E0DF91CF910C94052693
:10194000CF93DF93EC010E94140CCE0101960E940C
:10195000140CCE0102960E94140CCE0103960E9434
:10196000601ECE0104960E94601ECE010596DF9196
:10197000CF910C94601E0C94680CEF92FF920F9321
:101980001F93CF93DF93FA0180E090E07B0121E089
:10199000E21AF1081AC00196DF019C0112C01296EA
:1019A0000D911C911397C081D1810C171D0734F440
:1019B000118300831396DC93CE9312972F5F3F4FD2
:1019C00012962617370759F732968E159F051CF386
:1019D00060FD27C077FF02C06F5F7F4FFB01F59569
:1019E000E795DF01AA0FBB1FA40FB51F3197EE0FBC
:1019F000FF1FE40FF51F6D917C9180819181680F2D
:101A0000791F882777FD8095982F0E94314320E029
:101A100030E040E05FE30E9451440E94FE42CB016F
:101A20000AC077FF02C06F5F7F4FFB01EE7FE40FBC
:101A3000F51F80819181DF91CF911F910F91FF90D0
:101A4000EF900895AF92BF92CF92DF92EF92FF9204
:101A50000F931F93CF93DF93CDB7DEB7EC970FB6FD
:101A6000F894DEBF0FBECDBF6C018B01EE24E39472
:101A7000F12CEC0EFD1E5E018DE3A80EB11C87E07B
:101A80000E940E27F701819391937F01EA15FB05D0
:101A9000B1F7AE014F5F5F4F6EE170E0C6010E948B
:101AA000BD0C6FEF73E0681B790B882777FD80957D
:101AB000982F0E94314324EB38EC4EE350E40E940F
:101AC00051440E94FE42F80171836083EC960FB688
:101AD000F894DEBF0FBECDBFDF91CF911F910F9164
:101AE000FF90EF90DF90CF90BF90AF900895DF927E
:101AF000EF92FF920F931F93CF93DF93CDB7DEB793
:101B000027970FB6F894DEBF0FBECDBF7C018B01C7
:101B1000BE016F5F7F4F0E94E60A81110BC0898171
:101B20009A81AB81BC81F80180839183A283B383C6
:101B3000D12C02C0DD24D394BE016F5F7F4FC7015B
:101B400001960E94E60A81110AC089819A81AB81BF
:101B5000BC81F80184839583A683B78302C0DD240A
:101B6000D394BE016F5F7F4FC70102960E94E60AC1
:101B700081110AC049815A816B817C81F8014087BB
:101B800051876287738702C0DD24D394BE016B5FE7
:101B90007F4FC7010E94220D8D819E81F801908B9D
:101BA000878782EC9FE00E94592BF801828BBE014F
:101BB000695F7F4FC70103960E94361E811104C0E2
:101BC0008F81F801848702C062E0D62EBE01695F72
:101BD0007F4FC70104960E94361E811104C08F8179
:101BE000F801858702C052E0D52EBE01695F7F4FA4
:101BF000C70105960E94361E811104C08F81F8012D
:101C0000868702C042E0D42EED2DE150E23028F468
:101C1000F0E0E25CF74F808101C080E027960FB6CC
:101C2000F894DEBF0FBECDBFDF91CF911F910F9112
:101C3000FF90EF90DF900895CF93DF93CDB7DEB79D
:101C400063970FB6F894DEBF0FBECDBFBE016F5FC6
:101C50007F4F0E94770D8111BBC064E873E089E17A
:101C600092E10E94EE3869817A8189E192E10E94D5
:101C7000223A69E674E089E192E10E947A396EE8DD
:101C800073E089E192E10E94EE386B817C8189E109
:101C900092E10E94223A69E674E089E192E10E94B1
:101CA0007A3967E973E089E192E10E94EE386D814B
:101CB0007E8189E192E10E94223A69E674E089E13D
:101CC00092E10E947A3962EA73E089E192E10E942E
:101CD000EE386F81788589E192E10E94223A69E6C7
:101CE00074E089E192E10E947A396CEA73E089E15B
:101CF00092E10E94EE3869857A8589E192E10E943D
:101D0000223A69E674E089E192E10E947A3967EB50
:101D100073E089E192E10E94EE386B857C8589E170
:101D200092E10E94223A69E674E089E192E10E9420
:101D30007A3961EC73E089E192E10E94EE386889BA
:101D4000798989E192E10E94223A69E674E089E1A9
:101D500092E10E947A3967EC73E089E192E10E9496
:101D6000EE386D85772767FD709589E192E10E94D5
:101D7000223A69E674E089E192E10E947A396FECD7
:101D800073E089E192E10E94EE386E85772767FD66
:101D9000709589E192E10E94223A69E674E089E156
:101DA00092E10E947A3966ED73E089E192E10E9446
:101DB000EE386F85772767FD709589E192E10E9483
:101DC000223A69E674E089E192E10E947A3906C01C
:101DD0006DED73E089E192E10E949D3963960FB643
:101DE000F894DEBF0FBECDBFDF91CF910895FC0107
:101DF000118281E0828387E0838340E050EC64EECF
:101E000070E04483558366837783128A148A138E25
:101E10008FE08087168A178A108E83E0818FE55EB7
:101E2000FE4F10828091761290917712A0917812D5
:101E3000B0917912A2608093761290937712A0935A
:101E40007812B09379120895CF93C62F66E083E19C
:101E500092E10E94C93661E083E192E10E94C936B5
:101E600061E070E080E090E00E9405268C2F8F7783
:101E70000E94453880E0CF910C9445381F93CF9352
:101E8000DF931F92CDB7DEB7162F66E083E192E1B4
:101E900049830E94C93661E083E192E10E94C9361C
:101EA00061E070E080E090E00E940526812F80686C
:101EB0000E9445384981842F0E94453866E083E1BD
:101EC00092E10F90DF91CF911F910C94C9361F932F
:101ED000CF93DF93EC0161E00E94240F182F8B8DCC
:101EE000813041F441E861E0CE010E943E0F4FEFA6
:101EF00062E10CC041E061E0CE010E943E0F4FEF75
:101F00006EE3CE010E943E0F4FEF6FE3CE010E94C1
:101F10003E0F412F61E0CE01DF91CF911F910C94D4
:101F20003E0FCF93DF93EC0140E061E00E943E0F53
:101F300040E861E0CE010E943E0F41E861E0CE0141
:101F40000E943E0F4FEF63E2CE010E943E0F48E039
:101F50006DE1CE010E943E0F44E76EE1CE010E948A
:101F60003E0F61E0CE010E94240F813821F481E010
:101F70008B8F80E002C01B8E81E0DF91CF910895AE
:101F8000CF93DF93EC018B8D8823E1F06DE1CE01DF
:101F90000E94240F9B81963041F0482F4B7F6DE1CA
:101FA000CE010E943E0F82E001C08FEF9B819630F0
:101FB00061F06DE1CE010E94240F82FD05C01A8AF6
:101FC00080E003C08FEF01C081E0DF91CF910895E1
:101FD000CF93DF93EC018B8D8823A1F06DE1CE01CF
:101FE0000E94240F482F44606DE1CE010E943E0FF5
:101FF0006DE1CE010E94240F82FF06C081E08A8B32
:1020000080E003C08FEF01C081E0DF91CF910895A0
:102010001F93CF93DF93EC011B8D113089F46DE199
:102020000E94240F482F42606DE1CE010E943E0FB6
:102030006DE1CE010E94240F81FF14C01C8B14C0DF
:1020400060E30E94240F482F406160E3CE010E94AC
:102050003E0F60E3CE010E94240F84FF03C081E0A5
:102060008C8B02C081E001C080E0DF91CF911F9195
:102070000895CF93DF93EC018B8D813089F46DE16E
:10208000CE010E94240F482F4D7F6DE1CE010E94AA
:102090003E0F6DE1CE010E94240F81FD13C010C0E0
:1020A00060E3CE010E94240F482F4F7E60E3CE01F3
:1020B0000E943E0F60E3CE010E94240F84FD02C007
:1020C0001C8A02C081E001C080E0DF91CF910895B9
:1020D000CF93DF93EC018B8D882391F06EE1CE01DD
:1020E0000E94240F282F30E044E0359527954A952B
:1020F000E1F72B83265081E0273018F480E001C0FF
:102100008FEFDF91CF910895CF93DF93EC018B8D0B
:10211000882389F06DE1CE010E94240F282F30E042
:1021200056E0359527955A95E1F7298381E02330CC
:1021300019F080E001C08FEFDF91CF910895EF9209
:10214000FF920F931F93CF93DF93EC01062F61E073
:102150000E94240FE82E8B8D811105C0CE010E94B4
:10216000910F182FD3C041E861E0CE010E943E0FCD
:102170006DE1CE010E94240FF82E6EE1CE010E9487
:10218000240F182F0930B1F030F4073069F078F4DB
:10219000063009F506C00B3099F078F00C30D9F410
:1021A00015C01F76106619C01F77106720C01F78F2
:1021B00010681DC01F7910691AC01F7A106A17C0F5
:1021C0001F7B106BCE010E94841002C01F7C106C1C
:1021D00081E0F82A0CC0063051F4CE010E94E80FCD
:1021E00045E061E3CE010E943E0F4CE006C043E0B3
:1021F00061E3CE010E943E0F4AE067E3CE010E94F8
:102200003E0F4F2D6DE1CE010E943E0F412F4760E2
:102210006EE1CE010E943E0F6DE1CE010E94240FBF
:10222000182F6EE1CE010E94240F0930C1F138F45D
:102230000730F9F048F5063009F065C008C00B30EA
:1022400009F445C0B8F10C3009F05DC04CC0282F2E
:1022500030E014E0359527951A95E1F726303105E1
:1022600011F012E053C082FFFCCF8A898130C9F798
:102270004CC0282F30E0B4E035952795BA95E1F7AA
:102280002730310571F720C0282F30E0A4E03595C4
:102290002795AA95E1F72830310519F715C0282FA1
:1022A00030E0F4E035952795FA95E1F729303105CE
:1022B000C1F60AC0282F30E0E4E035952795EA956D
:1022C000E1F72A30310569F682FD1FC0CACF282FF9
:1022D00030E074E0359527957A95E1F72B3031059C
:1022E00009F0BFCF0BC0282F30E064E0359527956B
:1022F0006A95E1F72C30310509F0B3CF82FFB1CFF9
:1023000010FFAFCF02C011E001C010E04E2D61E020
:10231000CE010E943E0F802F8650873010F40B8331
:1023200010E0812FDF91CF911F910F91FF90EF90DF
:102330000895CF92DF92EF92FF920F931F93CF9366
:10234000DF931F92CDB7DEB76C018B0161E00E9475
:10235000240FE82EF601838D811105C0C6010E946D
:10236000910FF82E02C032E0F32E41E861E0C60181
:102370000E943E0F6DE1C6010E94240F482F0130DC
:102380001105A1F020F002301105A9F412C04F731D
:10239000C60149830E946810F601938149819B30F0
:1023A00009F402C09C3039F4416005C04F774064A5
:1023B00002C04F7B40686DE1C6010E943E0F6DE197
:1023C000C6010E94240F01301105F1F020F0023007
:1023D000110581F524C0682F70E026E0759567959A
:1023E0002A95E1F7672B69F5F60193819B3029F473
:1023F000F82EF094F1E0FF2224C09C3009F5F82E6D
:10240000F09481E0F8221DC0282F30E096E0359549
:1024100027959A95E1F72130310599F411C0282FBD
:1024200030E086E0359527958A95E1F72230310531
:1024300041F406C00330110520F0FF24F39403C0DB
:10244000F12CF60101834E2D61E0C6010E943E0F82
:102450008F2D0F90DF91CF911F910F91FF90EF90F3
:10246000DF90CF900895FF920F931F93CF93DF9348
:10247000EC01162F61E00E94240FF82E8B8D811144
:1024800005C0CE010E94910F082F6AC041E861E0AB
:10249000CE010E943E0F6DE1CE010E94240F12304A
:1024A00061F018F4113089F405C0133049F014308C
:1024B00061F409C08F7C886008C0877D806105C099
:1024C0008F7D886102C0877E8062482F6DE1CE01DA
:1024D0000E943E0F6DE1CE010E94240F1230B1F038
:1024E00018F41130D1F505C01330E9F01430A9F516
:1024F00027C0282F30E0E3E035952795EA95E1F7EE
:10250000277033272130310551F127C0282F30E0C3
:1025100073E0359527957A95E1F7277033272230B8
:102520003105D9F41CC0282F30E063E0359527959C
:102530006A95E1F7277033272330310571F40FC016
:10254000282F30E053E0359527955A95E1F727700D
:1025500033272430310509F402C002E001C000E055
:10256000812F8150843010F001E001C01A834F2D7B
:1025700061E0CE010E943E0F802FDF91CF911F912D
:102580000F91FF9008950F931F93CF93DF93EC016A
:10259000062F61E00E94240F182F8B8D811103C03C
:1025A000CE010E94910F41E861E0CE010E943E0FF2
:1025B0000530D9F168F4023009F120F4013009F056
:1025C00049C116C0033001F1043009F043C127C0EE
:1025D000083009F441C030F4063069F1073009F0E1
:1025E00039C12FC00930F1F10A3009F033C140C0C0
:1025F00061E0CE010E9433126CE00BC061E0CE01BD
:102600000E9433126CE022C061E0CE010E943312BE
:102610006AE0CE010E949F1060E070E033C061E08C
:10262000CE010E9433126CE028C061E0CE010E940E
:1026300033126AE00BC061E0CE010E9433126BE0FE
:102640001CC061E0CE010E94331269E0CE010E94FD
:102650009F1061E070E016C061E0CE010E9433126D
:1026600069E00BC061E0CE010E94331268E005C052
:1026700061E0CE010E94331267E0CE010E949F10FC
:1026800062E070E0CE010E949911E8C0282F30E08E
:1026900043E0359527954A95E1F72130310509F05A
:1026A000DBC06EE1CE010E94240F90E024E09595FE
:1026B00087952A95E1F701E00C9709F0F4C0C8C0AE
:1026C000282F30E003E0359527950A95E1F729306A
:1026D000310509F0C1C017C0282F30E0B3E03595AF
:1026E0002795BA95E1F72130310509F0B5C027C02B
:1026F000282F30E0A3E035952795AA95E1F7213101
:10270000310509F0A9C06EE1CE010E94240F282FE7
:1027100030E0F4E035952795FA95E1F701E02C30AB
:10272000310509F0C0C094C0282F30E0E3E03595B2
:102730002795EA95E1F72930310509F08DC06EE162
:10274000CE010E94240F282F30E074E035952795A4
:102750007A95E1F701E02A30310509F0A4C078C08C
:10276000282F30E063E0359527956A95E1F7213110
:10277000310509F071C06EE1CE010E94240F282FAF
:1027800030E054E0359527955A95E1F701E02B307C
:10279000310509F088C05CC0282F30E043E0359552
:1027A00027954A95E1F72930310509F055C00BC04E
:1027B000282F30E093E0359527959A95E1F7213160
:1027C000310509F049C06EE1CE010E94240F282F87
:1027D00030E084E0359527958A95E1F701E02930CE
:1027E000310509F060C034C0282F30E003E0359592
:1027F00027950A95E1F72131310571F56EE1CE019A
:102800000E94240F282F30E0B4E035952795BA9523
:10281000E1F701E02830310509F045C019C0282F43
:1028200030E0A3E035952795AA95E1F721313105F0
:1028300099F46EE1CE010E94240F282F30E0F4E0DD
:1028400035952795FA95E1F701E02730310559F5DF
:1028500000E029C00FEF27C001E025C06DE1CE01E7
:102860000E94240F053009F45FCF68F4023009F4A8
:1028700027CF18F4013081F709CF033009F42CCFAA
:10288000043051F735CF083009F492CF30F40630D8
:1028900009F466CF073001F77FCF093009F4A4CFE0
:1028A0000A30D1F6BCCF412F61E0CE010E943E0F2D
:1028B000802FDF91CF911F910F910895493989EDB4
:1028C000580782EE6807710509F494C008F04EC0FD
:1028D000493989E9580788ED6807710509F48AC004
:1028E000F8F4411580E6580788ED6807710509F48A
:1028F00081C038F44C3C5C44684D710509F07CC0E3
:1029000079C0433383E7580788ED6807710509F4F8
:1029100071C046365648684D710509F06DC06AC0F1
:102920004115510589ED6807710509F463C078F414
:102930004C3C8CEA580788ED6807710509F45AC0C9
:102940004115504C684D710509F056C053C04E31C9
:1029500085EC580781EE6807710509F44BC04C35CA
:102960005F44624E710509F047C044C04F3882E0B1
:10297000580785EE68077105E9F1D8F444318EEE09
:10298000580783EE68077105A9F130F4473D5346B7
:10299000634E710589F52EC0413588E7580784EEEE
:1029A0006807710539F14115504C644E710521F5E8
:1029B00021C0473481EA580786EE68077105D1F0D7
:1029C00068F44C3C8CE8580785EE6807710591F077
:1029D0004A305741664E710579F40CC045388BE298
:1029E000580787EE6807710529F0423C554B674E42
:1029F000710511F481E0089580E008957F928F922F
:102A00009F92AF92BF92CF92DF92EF92FF920F937D
:102A10001F93CF93DF93EC016A017B0161E00E9479
:102A2000240F782E8B8D813011F441E801C041E0F4
:102A300061E0CE010E943E0F4E2D66E0CE010E9465
:102A40003E0F4D2D67E0CE010E943E0F4C2D68E0F9
:102A5000CE010E943E0F66E0CE010E94240F082F97
:102A600067E0CE010E94240F182F902E812CA12CFC
:102A7000B12CBA2CA92C982C882468E0CE010E9495
:102A8000240F712F60E0082F10E020E030E0060FE7
:102A9000171F211D311D080D191D2A1D3B1D0C1569
:102AA0001D052E053F0531F4CC82DD82EE82FF82CA
:102AB00010E001C011E0B701A601CE010E945E1432
:102AC000811101C01FEF472D61E0CE010E943E0F32
:102AD000812FDF91CF911F910F91FF90EF90DF90A9
:102AE000CF90BF90AF909F908F907F9008950F935D
:102AF0001F93CF93DF93EC01162F61E00E94240F08
:102B0000082F8B8D813011F441E801C041E061E074
:102B1000CE010E943E0F1C3439F01D3419F01834D8
:102B200039F404C08FE003C0188602C087E08887AC
:102B3000488569E0CE010E943E0F69E0CE010E9407
:102B4000240F11E09885891301C010E0402F61E047
:102B5000CE010E943E0F812FDF91CF911F910F91E7
:102B600008950F931F93CF93DF93EC01162F61E02D
:102B70000E94240F082F1F8F8B8D813061F441E854
:102B800061E0CE010E943E0F4F8D62E2CE010E94B5
:102B90003E0F62E20BC041E061E0CE010E943E0FB9
:102BA0004F8D62E3CE010E943E0F62E3CE010E9490
:102BB000240F11E09F8D981301C010E0402F61E0B9
:102BC000CE010E943E0F812FDF91CF911F910F9177
:102BD0000895FC01678570896B5F7F4F0C94B11578
:102BE0000F931F93CF93DF93EC01162F698B61E056
:102BF0000E94240F082F9B8D9130F9F091111DC078
:102C000041E061E0CE010E943E0F412F63E3CE011F
:102C10000E943E0F40E064E3CE010E943E0F63E35A
:102C2000CE010E94240F182F402F61E0CE010E9498
:102C30003E0F81E09989191301C080E0DF91CF91A7
:102C40001F910F910895EF92FF920F931F93CF93CF
:102C5000DF93EC018B8D25E0E22EF12C00E010E0FB
:102C6000813079F46BE1CE010E94240F89588A8764
:102C7000080F111D87FD1A9581E0E81AF10891F7F8
:102C80000FC061E1CE010E94240F282F30E035955E
:102C900027952A87020F131F81E0E81AF10889F7A8
:102CA000C80165E070E00E946A466A8780E0DF91B3
:102CB000CF911F910F91FF90EF900895663020F40F
:102CC000FC01618F80E008958FEF08950F931F93AB
:102CD000CF93DF93EC016C31E0F4062F006261E0EA
:102CE0000E94240F182F8B8D813011F441E801C010
:102CF00041E061E0CE010E943E0F402F6BE0CE012B
:102D00000E943E0F412F61E0CE010E943E0F80E005
:102D100001C08FEFDF91CF911F910F910895CF9355
:102D2000DF93EC0161E086E10E94392761E086E1F2
:102D30000E94522781E0809313120E948D3681E019
:102D40000E94B03684E00E94BE3680E00E94B93610
:102D50006BE1CE010E946616811105C0CE01DF91A4
:102D6000CF910C94910F81E0DF91CF9108957F92E4
:102D70008F929F92AF92BF92CF92DF92EF92FF928B
:102D80000F931F93CF93DF93EC010E94670F8B8DFE
:102D9000813011F441E801C041E061E0CE010E94C0
:102DA0003E0F65E0CE010E94B115782E811165C0FD
:102DB0008E01045E1D4F80E091E0D8019C011D92C0
:102DC00021503040E1F7FE01E35EFE4F8081D801E3
:102DD0008C934E01B3EE8B1ABDEF9B0AFE01E45EAD
:102DE000FE4F8081F40180835E01F2EEAF1AFDEFA9
:102DF000BF0AFE01E25EFE4F8081D5018C936E0119
:102E0000B1EECB1ABDEFDB0AF60110827E01F0EEC7
:102E1000EF1AFDEFFF0A8F89D7018C9340E06DE038
:102E2000CE010E943E0F40E06EE0CE010E943E0FB8
:102E3000F801408160E0CE010E943E0FD4014C9128
:102E400060E0CE010E943E0FF501408160E0CE01BE
:102E50000E943E0FD6014C9160E0CE010E943E0FD1
:102E6000F701408160E0CE010E943E0F1F8A64EFAF
:102E700071E080E090E00E940526872DDF91CF91E0
:102E80001F910F91FF90EF90DF90CF90BF90AF9088
:102E90009F908F907F9008951F93CF93DF93EC01C5
:102EA000845E9E4FFC0180E091E0DF019C011D9259
:102EB00021503040E1F743E461E3CE010E943E0F30
:102EC00049E06AE0CE010E943E0F43E26CE0CE0191
:102ED0000E943E0F40E06DE0CE010E943E0F4FEF9A
:102EE0006FE1CE010E943E0F40E065E2CE010E94FC
:102EF0003E0F8B8D813039F46FEFCE010E94B115FA
:102F0000182F45E805C0CE010E94E915182F45E0AD
:102F100061E0CE010E943E0F812FDF91CF911F9182
:102F200008958F929F92AF92BF92CF92DF92EF92CD
:102F3000FF921F93CF93DF93EC014A015B011B8A41
:102F40000E94B3256B017C018B8D813061F562E1BC
:102F5000CE010E94240F182F04C00E94B3256B01DC
:102F60007C0114FD7DC00E94B3256C197D098E097A
:102F70009F09681579058A059B0508F447C07BC041
:102F80000E94B3256B017C0111116FC00E94B32513
:102F90006C197D098E099F09681579058A059B05BD
:102FA00008F442C018C06FE3CE010E94240F182F0E
:102FB00004C00E94B3256B017C0112FD54C00E9425
:102FC000B3256C197D098E099F09681579058A0555
:102FD0009B05C0F150C08B89813089F48D89998916
:102FE000891791F0882381F08B8D813011F441E8AD
:102FF00001C041E061E0CE010E943E0F03C08B8D15
:103000008130B9F780E039C081E037C062E1CE019C
:103010000E94240F182F0E94B3256C157D058E0584
:103020009F0508F09ECF99CF65E2CE010E94240F44
:10303000182F0E94B3256C157D058E059F0508F09D
:10304000A3CF9ECF6FE3CE010E94240F182F0E94C2
:10305000B3256C157D058E059F0508F0AECFA9CF71
:1030600081E08B8B93CF81E08B8B60E0CE010E945F
:10307000240F8D8BB0CF1B8AAECFDF91CF911F91E4
:10308000FF90EF90DF90CF90BF90AF909F908F9088
:10309000089540E157E260E070E00C9491178F9240
:1030A0009F92AF92BF92CF92DF92EF92FF920F93D7
:1030B0001F93CF93DF93EC014A015B010E94B3257C
:1030C0006B017C018B8D813039F562E1CE010E946C
:1030D000240F182F04C00E94B3256B017C0116FD3C
:1030E000E4C00E94B3256C197D098E099F096815FB
:1030F00079058A059B0508F4BCC002C01F8A39C047
:1031000015FD06C08C89813019F41F8A12E091C028
:1031100081E08F8B13E08DC06FE3CE010E94240FFE
:10312000182F04C00E94B3256B017C0112FDC0C0A2
:103130000E94B3256C197D098E099F0968157905D0
:103140008A059B0508F4A3C000E005C08C89813086
:1031500021F41F8A01E012E004C081E08F8B00E0BF
:1031600013E041E061E0CE010E943E0F013009F022
:1031700060C08B8D813069F440E06DE0CE010E942B
:103180003E0F60E0CE010E94240FFE01E45EFE4F80
:1031900012C060E3CE010E94240F8E01045E1E4F18
:1031A00082FD07C081FD05C060E0CE010E94240FB2
:1031B00001C08D89F801808360E0CE010E94240F58
:1031C000FE01E35EFE4F808360E0CE010E94240F8B
:1031D000FE01E25EFE4F808360E0CE010E94240F7C
:1031E000FE01E15EFE4F80839B8D913021F490E0E3
:1031F0000597988B8F87E12CF12C0CC0CE010E9493
:10320000240FFE01EE0DFF1DE05EFE4F8083FFEFF9
:10321000EF1AFF0A8F85988960E0E816F90670F3C7
:10322000CE010E94240FFE01E55EFD4F808310E079
:103230000CC08F89813041F4888D998D891720F4D5
:10324000133011F08F5F888F11E08B8D813029F45E
:1032500040E06DE0CE010E943E0FCE010E94670F5C
:1032600081EE88168EE29806A104B10420F11FEFCA
:1032700022C062E1CE010E94240F182F0E94B325C4
:103280006C157D058E059F0508F029CF24CF6FE3CF
:10329000CE010E94240F182F0E94B3256C157D05C6
:1032A0008E059F0508F042CF3DCF15FF27CF28CFD1
:1032B00011FD4CCF52CF812FDF91CF911F910F91F4
:1032C000FF90EF90DF90CF90BF90AF909F908F9046
:1032D000089540E157E260E070E00C944F18FC0163
:1032E000658B648F8189858F8689868F8F5F868BBA
:1032F00080E008952F923F924F925F926F927F925B
:103300008F929F92AF92BF92CF92DF92EF92FF92F5
:103310000F931F93CF93DF93CDB7DEB72E970FB6E2
:10332000F894DEBF0FBECDBF2C018B01FC01638181
:1033300070E080E090E00E942F434B015C01F201BD
:10334000628970E080E090E00E942F436B837C8371
:103350008D839E83F201628170E080E090E00E94A4
:103360002F436F83788789879A8720E030E040E297
:1033700051E4682D792D8A2D9B2D0E944644181604
:103380003CF4C12CD12CE0E8EE2EEFE3FE2E03C07E
:10339000C12CD12C76010115110559F0B8016B5FD4
:1033A0007F4F80E090E00E942F4369837A833C0145
:1033B00006C019821A826FE7662E73E4772EF20137
:1033C0008181882391F0813049F0823071F4212C81
:1033D000312C5AEF452E53E4552E0DC0212C312CA3
:1033E0004AE7442E43E4542E06C0212C312C3AEFF8
:1033F000432E32E4532E282D392D4A2D5B2D60E0CB
:1034000070E080E090E40E94B444A20191010E9427
:1034100096428B018E879D8720E030E044E451E4A2
:10342000712F0E945144362E272E8B879C8720E0D7
:1034300030E040E051E4B981AA816B2F7A2F862DCC
:10344000972D0E9451442B013C0120E030E040E8E0
:1034500050E4682D792D8A2D9B2D0E9451449B01AB
:10346000AC01C301B2010E94F24120E030E040EE25
:1034700051E40E94F34120E030E040E851E40E9432
:10348000F3412B013C0120E030E040EA51E4BB81F4
:10349000AC81ED81FE816B2F7A2FCF010E945144C8
:1034A0009B01AC01C301B2010E94F2412B013C011E
:1034B000A7019601C701B6010E94F3419B01AC012F
:1034C000682D792D8A2D9B2D0E94F24120E030E05D
:1034D00040E850E40E9451449B01AC01C301B20199
:1034E0000E9496420E947F426B017C0120E030E006
:1034F00040E850E4BF81A885B984AA846B2F7A2F55
:103500008B2D9A2D0E94F3419B01AC01C701B6019E
:103510000E9451446B017C0120E030E0A9017D2D27
:103520009F2D0E94464418165CF420E030E040E0F5
:1035300051E46C2D7D2D8E2D9F2D0E94F34104C0F2
:1035400060E070E080E091E4FE85ED85202F312F72
:103550004F2F5E2F0E9451449B01AC01D101EB859E
:103560001C856B2F722D8E2F912F0E94F3412E966A
:103570000FB6F894DEBF0FBECDBFDF91CF911F9184
:103580000F91FF90EF90DF90CF90BF90AF909F9002
:103590008F907F906F905F904F903F902F90089505
:1035A000FC01678570890C947A19AF92BF92CF9213
:1035B000DF92EF92FF920F931F93CF93DF938C01D3
:1035C000FC01838DE801C25EDC4F813069F56881C2
:1035D000798180E090E00E942F432DEC3CEC4CEC94
:1035E0005DE30E94514420E030E040E85FE30E9448
:1035F000F3410E9403435B01C8010E94D01A6B0192
:103600007C010E949F478C01C701B6010E940343C1
:103610009B0128513C4FC801B5010E945646280F16
:10362000391F3983288304C080E197E29983888316
:1036300080E0DF91CF911F910F91FF90EF90DF908D
:10364000CF90BF90AF900895FC01238D211109C048
:10365000278530892D33310520F02CE330E0308B85
:103660002787FC0147855089FB0120E030E008C036
:103670006191DC01A20FB31F90966C932F5F3F4FB7
:1036800024173507A9F70C94E915EF92FF920F93D1
:103690001F93CF93DF93EC01F62E8A0161E00E9425
:1036A000240FE82ECE010E94670F8B8D813011F41C
:1036B00041E801C041E061E0CE010E943E0F1F8A57
:1036C000888D81110DC06F2DCE010E946F19F82ECB
:1036D00081110FC0B801CE010E94241BF82E09C031
:1036E000CE010E94E915F82EFE01E55EFE4F888DA1
:1036F000808340E06EE0CE010E943E0F40E06DE02E
:10370000CE010E943E0FF1102DC04C8D60E0CE0125
:103710000E943E0F4D8D60E0CE010E943E0F4E8D07
:1037200060E0CE010E943E0F4F8D60E0CE010E940E
:103730003E0F00E010E009C0E00FF11F40A160E083
:10374000CE010E943E0F0F5F1F4F2F853889FE016B
:103750000217130788F3E55EFE4F408160E0CE015B
:103760000E943E0F4E2D61E0CE010E943E0F8F2D34
:10377000DF91CF911F910F91FF90EF9008958F925D
:103780009F92AF92BF92CF92DF92EF92FF921F93E0
:10379000CF93DF93EC014A015B010E94B3256B01DB
:1037A0007C018B8D813001F5CE010E94670F43E8CB
:1037B00061E0CE010E943E0F62E1CE010E94240F23
:1037C000182F04C00E94B3256B017C0113FD28C093
:1037D0000E94B3256C197D098E099F09681579052A
:1037E0008A059B0530F11CC043E061E0CE010E94D8
:1037F0003E0F6FE3CE010E94240F182F04C00E94D9
:10380000B3256B017C0113FD0BC00E94B3256C191D
:103810007D098E099F09681579058A059B05B0F019
:10382000CE010E94670F13FB882780F991E089275A
:103830001AC062E1CE010E94240F182F0E94B32506
:103840006C157D058E059F0508F6BCCF6FE3CE0194
:103850000E94240F182F0E94B3256C157D058E053C
:103860009F0588F6CCCFDF91CF911F91FF90EF900D
:10387000DF90CF90BF90AF909F908F900895CF939F
:10388000DF93EC010E94D51AFE01E25EFC4F4081FD
:10389000518160E070E0CE01DF91CF910C94BF1BAD
:1038A0000F931F93CF93DF9300D000D0CDB7DEB737
:1038B0008C0149835A836B837C830E944C17498116
:1038C0005A816B817C8181111AC0C8010E949117B5
:1038D0008823A9F0C8010E946919882319F0833050
:1038E00009F00DC0C8010E94B716811108C0C801B7
:1038F0000E943F1C91E0811103C090E001C091E063
:10390000892F0F900F900F900F90DF91CF911F9103
:103910000F910895CF93DF93EC012C3F310528F0F0
:103920008BEF90E0988B8F8702C0388B2F87CE016A
:103930000E94451B811105C0CE01DF91CF910C94EF
:103940003F1CDF91CF9108958F929F92AF92BF92CB
:10395000CF92DF92EF92FF920F931F93CF93DF935B
:10396000EC014A015B010E94B3256B017C018B8D48
:103970008130D9F462E1CE010E94240F182F04C0D7
:103980000E94B3256B017C01012F007416FD8DC0D0
:103990000E94B3256C197D098E099F096815790568
:1039A0008A059B0508F473C080C06FE3CE010E94B6
:1039B000240F182F04C00E94B3256B017C01012F36
:1039C000047012FD86C00E94B3256C197D098E0912
:1039D0009F09681579058A059B0508F46CC079C0B4
:1039E000112309F448C04E0184EE881A8DEF980A1D
:1039F0008D89F401808360E0CE010E94240F5E0176
:103A0000F3EEAF1AFDEFBF0AF501808360E0CE014F
:103A10000E94240F6E01F2EECF1AFDEFDF0AF601CD
:103A2000808360E0CE010E94240F7E01F1EEEF1A48
:103A3000FDEFFF0AF701808360E0CE010E94240FB2
:103A4000FE01E05EFD4F8083F40120819D8D2913EE
:103A500014C0F50120819C8D291311C0F60120812D
:103A60009E8D29130EC0F701908191110CC0811118
:103A70000CC010E038C018E036C017E034C016E0C3
:103A800032C015E030C014E02EC013E02CC062E15B
:103A9000CE010E94240F182F0E94B3256C157D05BE
:103AA0008E059F0508F070CF6BCF11E0011101C0AA
:103AB00010E041E813C06FE3CE010E94240F182FDD
:103AC0000E94B3256C157D058E059F0508F077CF04
:103AD00072CF11E0011101C010E041E061E0CE01C0
:103AE0000E943E0F7DCFCE010E94670F812FDF9194
:103AF000CF911F910F91FF90EF90DF90CF90BF90EB
:103B0000AF909F908F90089540E157E260E070E0A1
:103B10000C94A41CCF93DF93EC010E948A1C8111AA
:103B200010C0CE010E944C1781110BC0CE010E9423
:103B30004918882329F0CE01DF91CF910C94841D80
:103B400089E0DF91CF910895DF92EF92FF920F937A
:103B50001F93CF93DF93EC01D62E8A01790181E088
:103B6000288D998D921710F4188E0CC09701A8011A
:103B70006D2DCE010E948A1D988D9F5F988F88239E
:103B800099F3EECFDF91CF911F910F91FF90EF90BE
:103B9000DF900895CF92DF92EF92FF92CF93DF9361
:103BA000EC010E94B3256B017C0143E26CE085E1EE
:103BB0009CE00E943E0F85E19CE00E94670F85E13A
:103BC0009CE00E9423168B8D813031F447E861E040
:103BD00085E19CE00E943E0F62E185E19CE00E944D
:103BE000240FC82F82FF03C08C2F81700CC00E944D
:103BF000B3256C197D098E099F09603177428105D3
:103C0000910590F7E9CFDF91CF91FF90EF90DF9092
:103C1000CF90089585E19CE00C94F70E08950F93E2
:103C2000CF93DF931F92CDB7DEB7FC01613041F037
:103C300028F0623039F0633049F406C088E405C0EA
:103C400089E403C08AE401C08BE48083198201E027
:103C50009E012F5F3F4F41E060818FE192E10E9422
:103C6000523D0F90DF91CF910F910895EF92FF9207
:103C70000F93CF93DF9300D0CDB7DEB77B0101E088
:103C80009E012F5F3F4F40E0FC0160818FE192E198
:103C90000E94973D813029F48981F701808380E07B
:103CA00007C060EF73E089E192E10E94EE3881E0A5
:103CB0000F900F90DF91CF910F91FF90EF900895AB
:103CC0000F93CF93DF931F92CDB7DEB721E0298307
:103CD00001E09E012F5F3F4F41E0FC0160818FE1D9
:103CE00092E10E94523D0F90DF91CF910F91089584
:103CF00010923E0FE4E6F0E080818F778083589A3F
:103D0000599AE9EBF0E080818E7F808380818D7FFE
:103D100080838FEF8093B80085E48093BC0080E2BD
:103D2000EFE3FFE0DF01982F1D929A95E9F7EFE5A9
:103D3000FFE0DF01982F1D929A95E9F7EFE7FFE08A
:103D4000DF011D928A95E9F70895613298F4209178
:103D50003E0F243089F460933B0FFC018FE59FE018
:103D6000DC0102C021912D932A2F281B2617D0F3A6
:103D700080E0089581E0089582E0089585EC8093C5
:103D8000BC0010923E0F0895589859988091B90040
:103D900081608093B9008091B90082608093B900FE
:103DA0008091BC0080688093BC008091BC008061E1
:103DB0008093BC008091BC008F7B8093BC0080917D
:103DC000BC008F7D8093BC008091BC00877F809376
:103DD000BC008091761290917712A0917812B091E8
:103DE000791286FD14C08091761290917712A0917D
:103DF0007812B091791290FD0AC08091761290915C
:103E00007712A0917812B091791293FF04C080913B
:103E1000BC008B7F03C08091BC0084608093BC0099
:103E20008091BC008E7F8093BC008091640080688C
:103E3000809364000895882349F01092350F109202
:103E4000360F1092370F1092380F13C08091350F34
:103E50009091360FA091370FB091380F0196A11DA8
:103E6000B11D8093350F9093360FA093370FB09309
:103E7000380F8091350F9091360FA091370FB09188
:103E8000380F803A9648A140B10560F01092350F86
:103E90001092360F1092370F1092380F0E94781E32
:103EA00081E0089580E0089585ED8093BC0081E075
:103EB0000E941B1F08C080E00E941B1F882319F06E
:103EC00010923E0F08958091BC0084FDF4CFF8CF8E
:103ED000FF920F931F93CF93DF93182F062FF72E88
:103EE000C42FD22F81E0413208F051C00E941B1F25
:103EF00015C080E00E941B1F882381F082E0809320
:103F00003E0F8FEF8093390F10923D0FC0939F0F9C
:103F1000E02FFF2D6FE37FE0DB0107C080913E0FB4
:103F20008111E7CFEBCF81918D938A2F861B8C1760
:103F3000D0F3812F90E0880F991F8093A00F85EE1A
:103F40008093BC0081E00E941B1FD11105C08091AD
:103F5000390F8F3F59F414C080913E0F8230B9F76A
:103F600080E00E941B1F81110DC0F6CF8091390F98
:103F7000803251F08091390F803341F483E007C0E3
:103F800080E005C085E003C082E001C084E0DF91ED
:103F9000CF911F910F91FF9008950F931F93CF938F
:103FA000DF93082FD62F172FC42F81E04132E0F581
:103FB0000E941B1F1DC080E00E941B1F8823C1F0B0
:103FC00081E080933E0F8FEF8093390F10923D0F69
:103FD000C0939F0F802F90E0880F991F816080937E
:103FE000A00F85EE8093BC0081E00E941B1F10C0D3
:103FF00080913E0F8111DFCFE3CF80E00E941B1F35
:10400000882331F08FE39FE0ED2FF12FDC0107C013
:1040100080913E0F813089F3F5CF2D9121932A2F86
:10402000281B2C17D0F380E0DF91CF911F910F91C7
:1040300008951F920F920FB60F9211240BB60F9294
:104040002F933F934F935F936F937F938F939F93A0
:10405000AF93BF93CF93EF93FF93C091B900C87F05
:10406000C03609F49FC058F5C83209F45BC090F41B
:10407000C03109F452C038F4CC2309F4F2C0C8307E
:1040800009F0F3C04AC0C83109F44CC0C03209F08D
:10409000ECC05DC0C03409F473C038F4C03309F417
:1040A0005BC0C83309F0E1C05AC0C03509F45CC038
:1040B000C83509F46AC0C83409F0D7C0D4C0C839BB
:1040C00009F4C5C0A8F4C83709F46CC038F4C83680
:1040D00009F468C0C03709F0C8C064C0C83809F422
:1040E000B6C0C03909F464C0C03809F0BEC060C0B1
:1040F000C03B09F484C038F4C03A09F46BC0C83A34
:1041000009F0B3C07CC0C03C09F4A5C0C83C09F4A8
:10411000A2C0C83B09F0A9C087C08091A00F8093BE
:10412000BB0013C090913D0F80919F0F981708F02E
:104130009AC080913D0FE82FF0E0E15CF04F908154
:104140009093BB008F5F80933D0F85EC81C00E94F0
:10415000541FC093390F89C0C093390F84C0C093D6
:10416000390F0E94BE1E81C080913D0F9091BB000F
:10417000E82FF0E0E15CF04F90838F5F80933D0F7C
:1041800090913D0F80919F0F5FC080913D0F909166
:10419000BB00E82FF0E0E15CF04F90838F5F8093ED
:1041A0003D0F61C083E080933E0F10923A0FCDCF58
:1041B00080913A0F803208F04AC080913A0F909176
:1041C000BB00E82FF0E0E158F04F90838F5F8093C1
:1041D0003A0FBBCF80913A0F803230F4E0913A0F22
:1041E000F0E0E158F04F108260913A0FE091A10F9A
:1041F000F091A20F70E08FE79FE009952CC084E05A
:1042000080933E0F10923C0F10923B0FE091A30F52
:10421000F091A40F099580913B0F811105C081E0B9
:1042200080933B0F10925F0F80913C0FE82FF0E0DE
:10423000E15AF04F90819093BB008F5F80933C0FC9
:1042400090913C0F80913B0F981708F47ECF85E842
:104250008093BC000AC085EC8093BC0010923E0F96
:1042600004C01092390F0E94541FFF91EF91CF911B
:10427000BF91AF919F918F917F916F915F914F917E
:104280003F912F910F900BBE0F900FBE0F901F907C
:104290001895F894809182129091831280FF18C033
:1042A00086E20E949827892B99F0809184128F5F73
:1042B00080938412809185129091861281609093F0
:1042C00086128093851280917A128F5F80937A1282
:1042D000809182129091831281FF18C087E20E9420
:1042E0009827892B99F0809184128F5F8093841294
:1042F00080918512909186128260909386128093AD
:10430000851280917B128F5F80937B128091821245
:104310009091831283FF1CC088E00E949827892B0C
:10432000B9F0809184128F5F8093841260E085E001
:104330000E945227809185129091861288609093F6
:1043400086128093851280917D128F5F80937D12FB
:10435000809182129091831287FF18C08DE20E9493
:104360009827892B99F0809184128F5F8093841213
:104370008091851290918612806890938612809326
:104380008512809180128F5F8093801280918212BB
:104390009091831290FF18C082E10E949827892B88
:1043A00099F0809184128F5F80938412809185129E
:1043B00090918612916090938612809385128091DD
:1043C00081128F5F8093811280918212909183126B
:1043D00084FF18C089E00E949827892B99F4809166
:1043E00084128F5F8093841280918512909186123F
:1043F0008061909386128093851280917E128F5FE8
:1044000080937E1278940895E82FF0E0EE0FFF1F5E
:10441000EB55F04F71836083823029F130F48823AB
:1044200051F0813009F046C010C0833059F184301A
:1044300009F040C036C0E898809169008C7F842BD9
:1044400080936900E09AE89A0895E998809169005C
:10445000440F551F440F551F837F842B80936900A1
:10446000E19AE99A0895EA988091690024E0440F5E
:10447000551F2A95E1F78F7C842B80936900E29A7F
:10448000EA9A0895EB988091690096E0440F551FD1
:104490009A95E1F78F73842B80936900E39AEB9AE6
:1044A0000895EC9880916A008C7F842B80936A0039
:1044B000E49AEC9A0895F894883018F5833091F0D6
:1044C00020F4813059F060F407C0863079F08730ED
:1044D00079F0843071F408C0E8980BC0E99809C0FD
:1044E000EA9807C0EB9805C0EC9803C0EE9801C0AD
:1044F000EF98E82FF0E0EE0FFF1FEB55F04F118221
:104500001082789408951F920F920FB60F92112483
:104510000BB60F922F933F934F935F936F937F93BD
:104520008F939F93AF93BF93EF93FF938091A50FCA
:104530009091A60F892B29F0E091A50FF091A60F7D
:104540000995FF91EF91BF91AF919F918F917F91CD
:104550006F915F914F913F912F910F900BBE0F90F4
:104560000FBE0F901F9018951F920F920FB60F92CB
:1045700011240BB60F922F933F934F935F936F933A
:104580007F938F939F93AF93BF93EF93FF9380910C
:10459000A70F9091A80F892B29F0E091A70FF09118
:1045A000A80F0995FF91EF91BF91AF919F918F91C6
:1045B0007F916F915F914F913F912F910F900BBE23
:1045C0000F900FBE0F901F9018951F920F920FB66D
:1045D0000F9211240BB60F922F933F934F935F933B
:1045E0006F937F938F939F93AF93BF93EF93FF93BB
:1045F0008091A90F9091AA0F892B29F0E091A90F22
:10460000F091AA0F0995FF91EF91BF91AF919F9102
:104610008F917F916F915F914F913F912F910F906B
:104620000BBE0F900FBE0F901F9018951F920F9208
:104630000FB60F9211240BB60F922F933F934F9307
:104640005F936F937F938F939F93AF93BF93EF93FA
:10465000FF938091AB0F9091AC0F892B29F0E091E3
:10466000AB0FF091AC0F0995FF91EF91BF91AF9116
:104670009F918F917F916F915F914F913F912F917A
:104680000F900BBE0F900FBE0F901F9018951F92AA
:104690000F920FB60F9211240BB60F922F933F93E8
:1046A0004F935F936F937F938F939F93AF93BF933A
:1046B000EF93FF938091AD0F9091AE0F892B29F06E
:1046C000E091AD0FF091AE0F0995FF91EF91BF9181
:1046D000AF919F918F917F916F915F914F913F919A
:1046E0002F910F900BBE0F900FBE0F901F9018953B
:1046F0001F920F920FB60F9211240BB60F922F93A9
:104700003F934F935F936F937F938F939F93AF9359
:10471000BF93EF93FF938091AF0F9091B00F892BD0
:1047200029F0E091AF0FF091B00F0995FF91EF9153
:10473000BF91AF919F918F917F916F915F914F91B9
:104740003F912F910F900BBE0F900FBE0F901F90B7
:1047500018951F920F920FB60F9211240BB60F925D
:104760002F933F934F935F936F937F938F939F9379
:10477000AF93BF93EF93FF938091B10F9091B20FDE
:10478000892B29F0E091B10FF091B20F0995FF91BB
:10479000EF91BF91AF919F918F917F916F915F91B9
:1047A0004F913F912F910F900BBE0F900FBE0F9026
:1047B0001F9018951F920F920FB60F9211240BB6EF
:1047C0000F922F933F934F935F936F937F938F93AA
:1047D0009F93AF93BF93EF93FF938091B30F90910B
:1047E000B40F892B29F0E091B30FF091B40F099524
:1047F000FF91EF91BF91AF919F918F917F916F91B9
:104800005F914F913F912F910F900BBE0F900FBE74
:104810000F901F901895CF92DF92EF92FF926B014D
:104820007C0180918212909183128C299D29909312
:10483000831280938212C0FE0FC060E08BE20E9460
:10484000392760E086E20E94392743E050E069E4BE
:1048500071E282E00E940422C1FE0FC060E08BE2A0
:104860000E94392760E087E20E94392743E050E048
:1048700069E471E282E00E940422C2FE0FC061E09E
:1048800083E00E94392761E083E00E94522742E0E2
:1048900050E069EE74E284E00E940422C3FE0FC07F
:1048A00060E08BE20E94392760E088E00E943927AF
:1048B00043E050E069E471E282E00E940422C4FE19
:1048C0000BC060E08BE20E94392743E050E069E4CE
:1048D00071E282E00E940422C6FE0FC060E084E024
:1048E0000E94392760E08CE20E94392742E050E0C4
:1048F00069EE74E283E00E940422C7FE0FC060E00C
:104900008DE20E94392760E08BE20E94392743E064
:1049100050E069E471E282E00E940422D0FE13C0FC
:1049200060E08BE20E94392760E082E10E94392733
:1049300043E050E069E471E282E0FF90EF90DF90A5
:10494000CF900C940422FF90EF90DF90CF900895C9
:10495000CF92DF92EF92FF926B017C01F89460FF9F
:1049600003C082E00E945B22C1FE03C082E00E947D
:104970005B22C2FE03C084E00E945B22C3FE03C030
:1049800082E00E945B22C4FE03C082E00E945B22A0
:10499000C7FE03C082E00E945B22D0FE03C082E01B
:1049A0000E945B22C6FE03C083E00E945B228091CE
:1049B000821290918312C094D094C822D922D092AE
:1049C0008312C09282127894FF90EF90DF90CF9084
:1049D0000895F894809182129091831286FF1EC0F0
:1049E00084E00E949827892BC9F4809184128F5FFC
:1049F00080938412809185129091861280649093A6
:104A000086128093851280917F128F5F80937F1230
:104A100060E470E080E090E00E94A824809182121F
:104A20009091831282FF1CC083E00E949827892BFB
:104A3000B9F4809184128F5F8093841280918512E3
:104A40009091861284609093861280938512809153
:104A50007C128F5F80937C1261E083E00E9452277A
:104A6000789408951F920F920FB60F9211240BB6EF
:104A70000F922F933F934F935F936F937F938F93F7
:104A80009F93AF93BF93EF93FF93F89481E080934C
:104A90000E02E0E6F0E080818068808380818F7B79
:104AA000808360E083E00E9452277894FF91EF9129
:104AB000BF91AF919F918F917F916F915F914F9136
:104AC0003F912F910F900BBE0F900FBE0F901F9034
:104AD00018951F920F920FB60F9211248F939F93E8
:104AE000AF93BF938091881290918912A0918A12FE
:104AF000B0918B120196A11DB11D809388129093E5
:104B00008912A0938A12B0938B12BF91AF919F919B
:104B10008F910F900FBE0F901F9018951F920F92BC
:104B20000FB60F9211248F939F93AF93BF938091F1
:104B30008C1290918D12A0918E12B0918F120196CD
:104B4000A11DB11D80938C1290938D12A0938E1293
:104B5000B0938F12BF91AF919F918F910F900FBE25
:104B60000F901F9018958F929F92AF92BF92CF9205
:104B7000DF92EF92FF920F931F93CF93DF932FB7A4
:104B8000F8948091881290918912A0918A12B09124
:104B90008B122FBF9C01AD0160E070E080E090E0DF
:104BA00001E00E941B474901D42FC52FB62FA72F24
:104BB000F82FE92F02E00E941B4759016A017B018F
:104BC0008C0194014D2F5C2F6B2F7A2F8F2F9E2FEE
:104BD0000E942A47E9E0AE2EB12CC12CD12CE12C49
:104BE000F12C00E010E00E94BE46952FB901842F01
:104BF000DF91CF911F910F91FF90EF90DF90CF90B9
:104C0000BF90AF909F908F9008958F929F92AF9298
:104C1000BF92CF92DF92EF92FF924B015C0107C0EF
:104C20000E94B3256C157D058E059F0520F40E941A
:104C3000B3256B017C010E94B3256C197D098E0997
:104C40009F09681579058A059B0550F3FF90EF9041
:104C5000DF90CF90BF90AF909F908F900895BC0150
:104C6000049768F080E090E00E942F4326E636E645
:104C700046EE5FE30E9451440E94034302C0660F68
:104C8000771F6150710961F06150710949F0FB01B2
:104C9000EE0FFF1F31978FB7F8943197F1F78FBF61
:104CA0000895789484B7877F84BF109288121092F9
:104CB000891210928A1210928B1284B5826084BD80
:104CC00084B5816084BD85B5826085BD85B5816010
:104CD00085BDEEE6F0E0808181608083E1E8F0E070
:104CE000808182608083808181608083E0E8F0E061
:104CF000808181608083E1EBF0E08081846080834B
:104D0000E1E9F0E0808184608083E0EBF0E0808185
:104D100081608083E0E9F0E0808181608083E4E667
:104D2000F0E080818E7F8083ECE7F0E080818F77F8
:104D30008083808180648083EAE7F0E08081846002
:104D400080838081826080838081806880831092EC
:104D5000C1001092C90008959091B50F982B9093BF
:104D6000B50F80FF32C0809164008E7F8093640015
:104D700080917C008F7780937C0080917C008064A0
:104D800080937C0080917A00846080937A00809187
:104D90007A00826080937A0080917A0080688093A4
:104DA0007A00809164008F77809364008091640022
:104DB0008B7F80936400809164008D7F809364007A
:104DC000809165008E7F809365000895282F20953F
:104DD0009091B50F92239093B50F80FF1EC08091E4
:104DE0007A008F7780937A0080916400816080934D
:104DF0006400809164008068809364008091640006
:104E00008460809364008091640082608093640079
:104E100080916500816080936500089590917C0089
:104E200020917A00206820937A009F70981769F08B
:104E300090917C008F70907F892B80937C0061E043
:104E400070E080E090E00E94052680917A00806406
:104E500080937A0080917A0086FDFCCF20917800C3
:104E600030917900932F80E0AC01422B9A01C90167
:104E7000089590E0FC01EB5BF94F2491FC01E858A8
:104E8000F94FE491EE2369F0F0E0E554F94FA49175
:104E9000B0E08C91611103C02095822301C0822B68
:104EA0008C93089590E0FC01EE5EF94F2491FC0193
:104EB000EB5BF94F3491FC01E858F94F849188235A
:104EC000B1F1222331F1233021F4909180009F77BA
:104ED00005C0243031F4909180009F7D9093800034
:104EE00018C0213019F494B59F7704C0223021F402
:104EF00094B59F7D94BD0DC0263021F49091B000F3
:104F00009F7705C0273029F49091B0009F7D909342
:104F1000B000E82FF0E0ED54F94FA491B0E08C918F
:104F2000611103C03095832301C0832B8C930895B6
:104F300090E0FC01EE5EF94F2491FC01EB5BF94F30
:104F40003491FC01E858F94F8491882399F1222388
:104F500031F1233021F4909180009F7705C02430F7
:104F600031F4909180009F7D9093800018C0213093
:104F700019F494B59F7704C0223021F494B59F7D35
:104F800094BD0DC0263021F49091B0009F7705C0EC
:104F9000273029F49091B0009F7D9093B000E82FC6
:104FA000F0E0E555F94FE491F0E08081832321E0C2
:104FB00030E011F420E030E0C9010895CF92DF9293
:104FC000EF92FF926B017C01411134C088E00E9496
:104FD000AC26C701B60122E030E040E050E00E947C
:104FE000A046305F414F5F4FCA01B901A70196014A
:104FF0000E94A046DA01C9010197A109B109892FD0
:105000009A2FAB2FBB27A7FDBA958093C5002150DF
:105010002093C4008091C10080618093C100809181
:10502000C10088608093C1008091C1008068809336
:10503000C10033C080E10E94AC26C701B60122E066
:1050400030E040E050E00E94A046305F414F5F4FAB
:10505000CA01B901A70196010E94A046DA01C9015F
:105060000197A109B109892F9A2FAB2FBB27A7FD63
:10507000BA958093CD0021502093CC008091C90037
:1050800080618093C9008091C90088608093C900C5
:105090008091C90080688093C900FF90EF90DF90F5
:1050A000CF90089581110EC088E00E94E62680917D
:1050B000C1008F7E8093C1008091C100877F809363
:1050C000C100089580E10E94E6268091C9008F7E8C
:1050D0008093C9008091C900877F8093C90008959B
:1050E000611107C09091C00095FFFCCF8093C6006E
:1050F00008959091C80095FFFCCF8093CE0008954D
:105100001F920F920FB60F9211242F933F934F933C
:105110005F936F937F938F939F93AF93BF93EF931F
:10512000E091C6002091BC0F3091BD0FC9010196DE
:1051300060E072E00E946A464091BA0F5091BB0F46
:105140008417950741F0D901A057BB4EEC9390937B
:10515000BD0F8093BC0FEF91BF91AF919F918F9145
:105160007F916F915F914F913F912F910F900FBE63
:105170000F901F9018951F920F920FB60F92112447
:105180002F933F934F935F936F937F938F939F934F
:10519000AF93BF93EF93E091CE002091B80F309181
:1051A000B90FC901019660E072E00E946A46409121
:1051B000B60F5091B70F8417950741F0D901A0574A
:1051C000BD4EEC939093B90F8093B80FEF91BF91C0
:1051D000AF919F918F917F916F915F914F913F918F
:1051E0002F910F900FBE0F901F9018950C94702860
:1051F000CF93C82F682F8DE00E9470286C2F8AE013
:10520000CF910C9470281F93CF93DF93162FEC014E
:1052100003C0612F0E94702889918111FACFDF911C
:10522000CF911F9108954F925F926F927F928F92CC
:105230009F92AF92BF92CF92DF92EF92FF920F9325
:10524000CF93DF93CDB7DEB7A0970FB6F894DEBF4C
:105250000FBECDBF29013A01611571058105910588
:10526000C9F4602F80E3A0960FB6F894DEBF0FBE9E
:10527000CDBFDF91CF910F91FF90EF90DF90CF9056
:10528000BF90AF909F908F907F906F905F904F9066
:105290000C947028EE24E394F12CEC0EFD1E812C6E
:1052A000912C5401A30192010E947E46F701619363
:1052B0007F01FFEF8F1A9F0AAF0ABF0AB901CA0127
:1052C000611571058105910569F7CC24CA94DC2C20
:1052D0007601C80CD91CEA1CFB1C14C0E1E0F0E00C
:1052E000EC0FFD1FEC0DFD1D80818A3010F4805DF8
:1052F00001C0895C602F0E94702881E0C81AD10823
:10530000E108F108EFEFCE16DE06EE06FE0631F7F5
:10531000A0960FB6F894DEBF0FBECDBFDF91CF9140
:105320000F91FF90EF90DF90CF90BF90AF909F9044
:105330008F907F906F905F904F900895CF92DF9203
:10534000EF92FF920F936B017C01042F97FF0CC02B
:10535000642F8DE20E947028F094E094D094C09461
:10536000C11CD11CE11CF11C2AE030E040E050E0FF
:10537000C701B6010E9413290F91FF90EF90DF90B3
:10538000CF9008950E9451268EE192E10E94B33B96
:10539000853440F061E081E30E94392761E081E3D8
:1053A0000E94522761E070E08EE192E10E948F3A04
:1053B0008130B1F48091761290917712A091781299
:1053C000B091791290688093761290937712A0939F
:1053D0007812B093791260E081E090E00E94284D4D
:1053E00087E20E949827892B59F160E070E08EE1F6
:1053F00092E10E948F3A8A3019F5C1C06CE3629F36
:10540000A001639F500D1124840F951F0EC021151C
:10541000310559F06CE3629FA001639F500D112488
:105420009A01205F314F820F931F039748F48091B8
:1054300085129091861280629093861280938512D5
:1054400084EC9FE00E94A03284EC9FE00E946132D5
:1054500084EC9FE00E94703284EC9FE00E94282E32
:1054600063E070E080E090E00E9405268091761273
:1054700090917712A0917812B0917912A1FF5EC03D
:1054800063E070E080E090E00E94052661E086E144
:105490000E94392763E070E080E090E00E940526DA
:1054A00061E086E10E94522763E070E080E090E0D6
:1054B0000E9405260E948D3663E070E080E090E057
:1054C0000E94052681E00E94B03663E070E080E033
:1054D00090E00E94052684E00E94BE3663E070E002
:1054E00080E090E00E94052680E00E94B93663E0EB
:1054F00070E080E090E00E9405260E94AC3663E0F8
:1055000070E080E090E00E94052666E083E192E191
:105510000E94C93663E070E080E090E00E940526BA
:1055200061E086E10E94392760E086E10E9452270F
:1055300063E070E080E090E00E94052663E070E0A8
:1055400080E090E00E9405268EE192E10E948D3B72
:105550006093BE0F7093BF0F8093C00F9093C10FE5
:105560008091BE0F9091BF0FA091C00FB091C10F5D
:105570000E94A3470E94A2030E94AA03FDCF84ECCD
:105580009FE00E94A03284EC9FE00E94F23084EC05
:105590009FE00E94E7308091DD0F90E02091DF0FC7
:1055A000821B91092091DC0F30E04091E00F241B19
:1055B0003109121613060CF421CF29CF1F93CF9374
:1055C000DF931F92CDB7DEB7162F61E08AE14983E2
:1055D0000E94392761E088E10E943927498111231F
:1055E00021F0113009F048C020C041110EC061E027
:1055F0008AE10E9452278091761290917712A091B1
:105600007812B091791282602FC04130A9F560E024
:105610008AE10E9452278091761290917712A09190
:105620007812B09179128D7F1FC041110EC061E0D8
:1056300088E10E9452278091761290917712A09172
:105640007812B091791281600FC04130A9F460E006
:1056500088E10E9452278091761290917712A09152
:105660007812B09179128E7F809376129093771290
:10567000A0937812B09379120F90DF91CF911F9180
:10568000089580917A00806880937A0060FF10C04E
:1056900061E08AE10E94392761E08AE10E94522795
:1056A00061E088E10E94392761E088E10C9452278B
:1056B00008950F931F93CF93DF9361E089E10E94D8
:1056C000392761E089E10E94522761E070E080E0C3
:1056D00090E00E94052680E00E940E27BC018827EA
:1056E00077FD8095982F0E9431438B01D82FC92FC9
:1056F00020E030E040E054E4FE01712F8F2F9E2F18
:105700000E94924287FF06C060E089E10E94522712
:10571000C0E055C020E030EC42E254E4FE01602FCE
:10572000712F8F2F9E2F0E944644181634F460E08C
:1057300089E10E945227C4E642C020E030EC42E2F8
:1057400054E4FE01602F712F8F2F9E2F0E949242F2
:105750001816ECF020E030EC47E054E4FE01602F36
:10576000712F8F2F9E2F0E944644181684F425E532
:1057700035E545E55FE3FE01602F712F8F2F9E2FEA
:105780000E94514420E030E04DED53E40FC020E092
:1057900030E040EA5EE3FE01602F712F8F2F9C2FD7
:1057A0000E94514420E030E040E253E40E94F24184
:1057B0000E940343C62F60E089E10E9452278C2F8C
:1057C000DF91CF911F910F91089561E089E20E94CE
:1057D000392761E088E20E9439278FE192E10C9439
:1057E000013C0F931F93CF93DF93EC01162F61E0E1
:1057F00081E30E94392760E081E30E94522761E043
:1058000089E20E94392760E089E20E94522761E024
:1058100088E20E94392760E088E20E945227809146
:105820007A008F7780937A0061E08DE10E943927BA
:1058300060E08DE10E94522761E08BE10E943927F0
:1058400060E08BE10E94522761E082E20E943927EA
:1058500060E082E20E945227012F017010FF0EC00B
:1058600041E060E082EC9FE00E94DE2A41E061E0DE
:1058700082EC9FE00E94DE2A1092261280E00E94B5
:10588000522811FF19C061E086E10E94392760E0CB
:1058900086E10E94522740917612509177126091D2
:1058A0007812709179124B7F409376125093771251
:1058B000609378127093791281E00E94522800233D
:1058C000A1F08091761290917712A0917812B09108
:1058D000791290FD0AC08091761290917712A09172
:1058E0007812B091791291FF72C084EC9FE00E940F
:1058F000EF2D61E080E30E94392760E080E30E94A1
:105900005227CE010E94E52B61E089E10E943927F0
:1059100060E089E10E9452274091761250917712FF
:10592000609178127091791244FF15C040E060E0F8
:10593000CE010E94DE2A61E08AE00E94392761E000
:1059400089E00E94392761E08AE00E94522761E0E5
:1059500089E00E9452278091761290917712A0914F
:105960007812B091791286FF04C060E089E00E944D
:1059700052278091761290917712A0917812B0916F
:10598000791285FF18C060E084E00E94522760E031
:1059900082E00E94522760E087E00E94522760E088
:1059A0008AE00E94522760E086E00E94522760E071
:1059B0008EE00E94522760E08BE20E94392760E06F
:1059C0008BE2DF91CF911F910F910C94522761E0F0
:1059D00086E00E94392760E086E00E94522785CF4A
:1059E00061E08DE20E94392760E08DE20E9452273B
:1059F00087E20E949827892B41F084EC9FE00E9467
:105A0000A03284EC9FE00E948A3286E20E949827AE
:105A1000019721F58DE692E10E94A14080917212DA
:105A2000823071F018F48130C9F405C0833069F018
:105A30008430A1F40FC08DE692E10E946E400EC04A
:105A40008DE692E10E94CC3F09C08DE692E10E9472
:105A50005E3F04C08DE692E10E94233F60E08BE24E
:105A60000E94392760E08BE20C945227CF92DF929C
:105A7000EF92FF920F931F93CF93DF93EC017B0183
:105A8000D42EC22E8EE192E10E94773A61E08DE23F
:105A90000E94392760E08DE20E945227602FCE01DC
:105AA0000E94F12B64E670E080E090E00E94052601
:105AB0001BE00DC061E070E080E090E00E940526F0
:105AC00082EC9FE00E94F02C115009F47FC08BE221
:105AD0000E949827019771F384EC9FE00E94A03206
