:100000000C94E7040C94F1240C9422250C945325B1
:100010000C9484250C94B5250C94E6250C94172695
:100020000C9448260C9416050C9416050C94160591
:100030000C94DB210C9416050C9416050C943722B5
:100040000C9416050C9416050C9416050C941605C4
:100050000C9416050C9416050C9416050C9412229B
:100060000C9416050C946E200C9416050C94160531
:100070000C9416050C9416050C9416050C94160594
:100080000C9416050C9416050C9416050C94160584
:100090000C94A9200C9416050C9416050C94331E90
:1000A0000C9416050C9416050C9416050C94160564
:1000B0000C9416050C9416050C9416050C94160554
:1000C0000C9416050C9416050C941605084AD73B9B
:1000D0003BCE016E84BCBFFDC12F3D6C74319ABD17
:1000E00056833DDA3D00C77F11BED9E4BB4C3E913B
:1000F0006BAAAABE000000803F493243206572729D
:100100006F72000E0216021E0226022C0233023B00
:100110000245024F02580261026E027C0283028B8A
:100120000294029A02A102AA02B102BB02C602CE46
:1001300002D502DB02E002E602EC02F202F9020062
:100140000307030F03180322032A03310337033D78
:100150000345034C0353036D0376037C0384038B35
:100160000392039903A103A803B103B703BD03C519
:1001700003CC03D603E103E703ED03F403FE030618
:10018000044E6574776F726B207374617475733A83
:10019000200011041C042F043B0448045404600490
:1001A0006C04780484049204A604CB04EA04FC04DE
:1001B0002E05410547052A2A2A2A2A2A2A2A2A2AD6
:1001C0002A2A2A2A2A2A2A2A2A2A0044616E6765AC
:1001D0007221204C6F7720626174746572792100FE
:1001E0002A2A2A2A2A2A2A2A2A2A2A2A2A2A2A2A6F
:1001F0002A2A2A2A0041504E3A20004C4F47494EA5
:100200003A200050415353574F52443A20002B4359
:1002100046554E3D31002B4346554E3D34002B4351
:1002200046554E3D30002B43504F46002B43434C28
:100230004B3D002B43474154543F002B434741540F
:10024000543A2031002B43474154543A2030002B7C
:1002500043474154543D31002B43474154543D30B2
:10026000002B4347534F434B434F4E543D002B43CA
:10027000534F434B415554483D312C002B4350497B
:100280004E3D002B53494D45493F002B53494D45A9
:10029000493A20002B43494D49002B465343443DE6
:1002A000002B465343443D2E2E002B465343443AE5
:1002B000002B465341545452493D002B4653415460
:1002C0005452493A20002B465344454C3D002B469E
:1002D000534D454D002B46534C53002B4353510077
:1002E0002B434F5053002B434E4D50002B434E4257
:1002F00050002B434E414F50002B434E534450006F
:100300002B435053493F002B435053493A20002B75
:10031000434E534D4F443F002B434E534D4F443AB1
:1003200020002B4343494E464F002B435343484E36
:10033000002B43535250002B43525553002B435232
:1003400055533A20002B434E535653002B434E53E4
:10035000564E004E6574776F726B207375727665BA
:100360007920737461727465642E2E2E002B4653AF
:100370004C4F43413D002B4950523D002B435344C9
:1003800056433D002B434D55543D002B434D4943AF
:100390003D002B434C564C3D002B564D5554453D8E
:1003A000002B434C564C3D002B43545846494C457A
:1003B000002B43474D4D002B43474D52002B4347E5
:1003C0004D523A20002B435245473F002B435245A4
:1003D000473A20302C002B435245473A20302C35E9
:1003E000002B434C4950002B434D5449002B4350A4
:1003F00057443D002B43525846494C453D002B4342
:10040000475245473F002B43475245473A20302C3F
:10041000002B43485454504143543D002B4348540F
:1004200054504143543A2052455155455354002BA2
:1004300043485454504143543A20002B43485454A9
:1004400050535354415254002B4348545450535327
:10045000544F50002B4348545450534F5053450071
:100460002B434854545053434C5345002B4348545A
:1004700054505353454E44002B4348545450535208
:10048000454356002B434854545053524543563A23
:1004900020002B4348545450533A20524543562091
:1004A0004556454E5400474554202F676574706F7C
:1004B00073745F6672616D655F7061727365722ED1
:1004C0007068703F6672616D653D00504F535420F7
:1004D0002F676574706F73745F6672616D655F70AE
:1004E00061727365722E7068700020485454502FEA
:1004F000312E310D0A486F73743A20000D0A436F94
:100500006E74656E742D547970653A206170706CEC
:1005100069636174696F6E2F782D7777772D666FB9
:10052000726D2D75726C656E636F646564000D0A83
:10053000436F6E74656E742D4C656E6774683A20F7
:1005400000300D0A0D0A000D0A0D0A6672616D6514
:100550003D00414343317069746368004143433156
:10056000726F6C6C004143433270697463685F0062
:1005700041434332726F6C6C5F0041434333706997
:100580007463685F0041434333726F6C6C5F00506B
:100590004F545F200054656D70315F200054656DCD
:1005A00070325F0054656D70335F004572726F7218
:1005B00020726561642073656E736F727300456E9F
:1005C000746572696E672033472053656E644461B9
:1005D0007461007475726E6564203347206D6F64BA
:1005E000756C65206F6E0053657474696E6720507A
:1005F000494E20636F64652E2E2E0050494E2063B5
:100600006F64652061636365707465640050494E72
:1006100020636F646520696E636F72726563740036
:100620003347206D6F64756C6520636F6E6E656314
:1006300074656420746F20746865206E6574776FCC
:10064000726B2E2E2E0047657474696E67205552AA
:100650004C207769746820474554206D6574686F35
:10066000642E2E2E00446F6E65004661696C6564D1
:100670002E204572726F7220636F64653A200043CA
:100680004D45206572726F7220636F64653A200079
:100690004661696C65642E204572726F7220636FCB
:1006A00064653A20003347206D6F64756C65206384
:1006B000616E6E6F7420636F6E6E65637420746F0D
:1006C00020746865206E6574776F726B2E2E2E0015
:1006D0003347206D6F64756C65206E6F7420737482
:1006E00061727465640000000809000000000000E9
:1006F00000000000000000000000000000000000FA
:1007000000000000000000000000000000000000E9
:10071000000000000000000000010208101020404E
:1007200080040810204002020408102040800102CA
:100730008020400420010102040810200140804074
:100740008001020804088004100402010505050563
:10075000030303030101010404030606060606065B
:10076000060601040501050103020202020202015C
:10077000020205050404030404010304070707003B
:10078000202326292C2F32002225282B2E3134001D
:100790002124272A2D3033E807FC0722084908695D
:1007A0000881088F089F08B408CA08DB08E708EE2C
:1007B000080B0929093F094D095D09800986095778
:1007C000726F6E672074696D6520666F726D6174FB
:1007D0002E204D757374206265202264643A686827
:1007E0003A6D6D3A73732200416C61726D204D6FEA
:1007F0006465206D61746368657320005B44617992
:10080000203A20686F757273203A206D696E757496
:100810006573203A207365636F6E64735D202D3EAF
:1008200020005B44617465203A20686F7572732004
:100830003A206D696E75746573203A207365636F35
:100840006E64735D202D3E20005B486F75727320CF
:100850003A206D696E75746573203A207365636F15
:100860006E64735D202D3E20005B4D696E7574656E
:1008700073203A207365636F6E64735D202D3E2094
:10088000005B5365636F6E64735D202D3E20004FE7
:100890006E636520706572207365636F6E640049D6
:1008A0006E636F727265637420616C61726D206D2E
:1008B0006F6465005B253032753A253032753A2514
:1008C0003032753A253032755D005B253032753A2D
:1008D000253032753A253032755D005B2530327532
:1008E0003A253032755D005B253032755D005B4422
:1008F0006179203A20686F757273203A206D696EB5
:1009000075746573205D202D3E20005B4461746525
:10091000203A20686F757273203A206D696E757485
:100920006573205D202D3E20005B486F757273203B
:100930003A206D696E757465735D202D3E20005BF5
:100940004D696E757465735D202D3E20004F6E639A
:100950006520706572206D696E7574650025732C55
:1009600020253032752F253032752F253032752CE9
:1009700020253032753A253032753A2530327500EF
:100980006572726F720025303275256325303275BD
:100990002563253032752563253032752563253072
:1009A0003275256325303275256325303275006335
:1009B00064696E6F70737578585B00002005B2151E
:1009C000E315102A202B922CED307D39FC3D1124AB
:1009D0001FBECFEFD1E2DEBFCDBF17E0A0E0B2E097
:1009E000E8E7F2E900E00BBF02C007900D92A034E7
:1009F000B107D9F715E1A0E4B7E001C01D92AD340D
:100A0000B107E1F719E0CEECD9E000E006C022978B
:100A10000109FE010BBF0E94DC41CC3BD10780E005
:100A20000807A9F70E9482390C943A490C940000F7
:100A300080E497E00C949C0680E497E00C94DF0639
:100A400080E497E00C9424050F931F93CF93DF93DA
:100A5000CDB7DEB72A970FB6F894DEBF0FBECDBF75
:100A60008C0181E090E0F80192AF81AF14AEFD9669
:100A70004CE350E060E070E0408351836283738315
:100A8000C801835B9F4F0E94A41AC8018F5A9F4FD1
:100A90000E94E217C801895A9F4F0E944807CE0161
:100AA00001960E94E217CE0107960E94A41A2A9688
:100AB0000FB6F894DEBF0FBECDBFDF91CF911F916F
:100AC0000F910895FF920F931F93CF93DF93EC0143
:100AD0008C010F5A1F4FBC01C8010E942419F82E27
:100AE0008BAD898BC8010E94C9198F2DDF91CF91E1
:100AF0001F910F91FF900895EF92FF920F931F9314
:100B0000CF93DF93EB01F42EE22E84E490E10E9478
:100B1000F22C61E08DE20E94ED1B60E08DE20E940C
:100B2000061C64E670E080E090E00E94AE221BE0CC
:100B30000FC061E070E080E090E00E94AE228BE7A1
:100B40009EE00E94B229115019F46BE072E036C0A9
:100B50008BE20E944C1C019761F383E990E10E94B3
:100B6000B1352E2D4F2DBE0183E990E10E949F38B3
:100B7000F090B1101091B010D091AF10C091AE10A4
:100B800083E990E10E9403348091B110F8120CC007
:100B90008091B010181308C08091AF10D81304C012
:100BA0008091AE10C817A1F083E990E10E947235E0
:100BB00083E990E10E9439316AE172E08FE390E1CC
:100BC000DF91CF911F910F91FF90EF900C941D2C0E
:100BD00083E990E10E943931602F8BE79EE00E940B
:100BE000B32883B7817F846083BF83B7816083BF6D
:100BF00083B7816083BF889583B78E7F83BF83B7B8
:100C00008E7F83BF602F8BE79EE00E94032883E9DD
:100C100090E10E94B13583E990E10E94723583E949
:100C200090E10E949B3583E990E10E94393100FFF9
:100C300016C061E08AE10E94ED1B60E08AE10E943B
:100C4000061C61E088E10E94ED1B60E088E1DF9115
:100C5000CF911F910F91FF90EF900C94061CDF91A4
:100C6000CF911F910F91FF90EF9008950F93CF9325
:100C7000DF93EC018F5A9F4F0E944D1840E06CE0CB
:100C800084E490E10E94952C40E06DE084E490E1E2
:100C90000E94952C88E997E00E94A01064E272E01F
:100CA0008FE390E10E941D2C8FE390E10E944D2B79
:100CB00068E070E080E090E00E94162703E020E00A
:100CC00040E061E372E0CE010E947C058091421118
:100CD0009091431181FF09C080914211909143117D
:100CE0008D7F9093431180934211DF91CF910F91AB
:100CF00008958F5A9F4F0C946818CF938FE390E11B
:100D00000E944D2B61E086E00E94061C68EC70E0BA
:100D100080E090E00E94AE228BE79EE00E941B28BC
:100D2000C82F60E086E00E94061C8FE390E10E94DD
:100D30002D2B8C2FCF9108950F931F93CF93DF937B
:100D4000EC018C01095A1F4FC8010E94550760E051
:100D500089E00E94ED1B60E087E00E94ED1B61E0EE
:100D600086E00E94ED1BCE010E947D06682FC8011F
:100D70000E94680760E074E084E490E10E940A2D1C
:100D80008BAFCE018F5A9F4F0E941518CE01835B07
:100D90009F4F0E94AE1A60E074E084E490E10E94EC
:100DA0000A2D83E990E10E94B1356DE372E083E999
:100DB00090E1DF91CF911F910F910C947736CF93F3
:100DC000DF93EC0189AD9AAD8130910561F024F497
:100DD000892B09F445C059C08230910511F1039760
:100DE00009F053C029C08FE390E10E94332C62E5E3
:100DF00072E08FE390E10E941D2C8FE390E10E944E
:100E0000332CCE010E946205811103C082E090E084
:100E10003AC08CAD853010F01CAE0BC08F5F8CAF2C
:100E200034C0BE01CE01835B9F4F0E94C71A81115F
:100E30002CC083E090E027C08FE390E10E94332C28
:100E400065E672E08FE390E10E941D2C8FE390E154
:100E50000E94332CCE010E9436061AAE19AE15C080
:100E60008FE390E10E94332C66E772E08FE390E11C
:100E70000E941D2C8FE390E10E94332CCE010E9432
:100E8000790681E090E09AAF89AFDF91CF91089524
:100E9000089560E082E00C94061C61E088E00C9408
:100EA000061C60E088E00C94061CCF93DF93EC01F5
:100EB00061E082E00E94ED1B61E088E00E94ED1B92
:100EC000CE010E944907CE01DF91CF910C945107CA
:100ED0001F93CF93DF93EC01603570F00E944D07B4
:100EE00068E873E180E090E00E94AE22CE01DF91DD
:100EF000CF911F910C94510715E06832A8F0CE01F4
:100F00000E944D0764EF71E080E090E00E94AE2205
:100F1000CE010E94510764EF71E080E090E00E94F2
:100F2000AE22115061F714C0CE010E944D0764E655
:100F300070E080E090E00E94AE22CE010E94510756
:100F400064E873E080E090E00E94AE22115061F707
:100F5000DF91CF911F91089508950F93CF93DF9361
:100F60001F92CDB7DEB7FC01613041F028F062304E
:100F700039F0633049F406C088E405C089E403C051
:100F80008AE401C08BE48083198201E09E012F5F17
:100F90003F4F41E0608185E490E10E94CD2F0F90AA
:100FA000DF91CF910F910895EF92FF920F93CF931E
:100FB000DF9300D0CDB7DEB77B0101E09E012F5F4C
:100FC0003F4F40E0FC01608185E490E10E941230D7
:100FD000813029F48981F701808380E007C069EFBF
:100FE00070E08FE390E10E94B82B81E00F900F90AA
:100FF000DF91CF910F91FF90EF9008950F93CF93D2
:10100000DF931F92CDB7DEB721E0298301E09E0177
:101010002F5F3F4F41E0FC01608185E490E10E9439
:10102000CD2F0F90DF91CF910F910895CF93DF9344
:10103000FC01E753FF4F21E02083FC01E553FF4F04
:1010400040E052EC61E070E040835183628373833F
:10105000FC01E653FF4F2083DC011C92FC01EA50A7
:10106000FF4F1082BC0163577F4F24E1EB01E22F59
:101070001992EA95E9F7AF55BF4FED01E22F1992AA
:10108000EA95E9F7EC01CB54DF4FFE0111922A9566
:10109000E9F721E630E74EE6FB0120833183428306
:1010A00025E0E8E8F2E001900D922A95E1F728E0CA
:1010B000EEE8F2E0DE0101900D922A95E1F7DF9172
:1010C000CF9108952F923F924F925F926F927F92AD
:1010D0008F929F92AF92BF92CF92DF92EF92FF9248
:1010E0000F931F93CF93DF93CDB7DEB7C257D109CC
:1010F0000FB6F894DEBF0FBECDBF1C01AA966FAF2E
:10110000AA97AB967FAFAB97AC964FAFAC97AD9627
:101110005FAFAD97AE962FAFAE97AF963FAFAF979D
:10112000E0960FAFE097E1961FAFE197C957DF4F09
:1011300008811981C758D040FE01319684E6DF014D
:101140001D928A95E9F7AA96AFADAA97AB96BFAD67
:10115000AB97FD0101900020E9F73197EA1BFB0BEB
:10116000C757DF4F88819981C958D04002970CF446
:10117000C1C2AC968FADAC97AD969FADAD97DC017B
:101180000D900020E9F71197A81BB90BAE17BF0708
:101190002CF0EA17FB072CF03F0101C03D012F01A5
:1011A00002C02D013F01C757DF4FA881B981C9583F
:1011B000D0401297D9F1AE96AFADAE97AF96BFAD16
:1011C000AF97FD0101900020E9F73197EA1BFB0B77
:1011D000E615F7050CF43F014E165F060CF42F01DF
:1011E000C757DF4FE881F981C958D0403397F1F0F4
:1011F000E096AFADE097E196BFADE197FD010190BC
:101200000020E9F73197EA1BFB0BE615F7050CF414
:101210003F014E165F0654F42F0108C068EE73E0DC
:1012200080E090E00E94AE220150110910161106D4
:10123000ACF3F1E0A696FFAFA697C10186539F4F8E
:10124000A9969FAF8EAFA9978E010F5F1F4F44C223
:101250000E945C224B015C01A996AEADBFADA9977F
:101260008C910E940520892B09F021C20E945C22EA
:10127000681979098A099B096C157D058E059F05FA
:1012800008F43BC214C2A696BFADA697B13091F543
:10129000A7961FAF0EAFA79716C0A996EEADFFADEC
:1012A000A99780810E942120A796AEADBFADA797D8
:1012B0008D93A796BFAFAEAFA79764E170E080E0D3
:1012C00090E00E94AE22A7968EAD9FADA797801B9F
:1012D000910B861597050CF3C757DF4FE881F9810D
:1012E000C958D04032970CF464C0641475040CF4EF
:1012F0005BC05FC0A696FFADA697A996AEADBFAD89
:10130000A9978C91F23049F50E940520892B09F1AB
:1013100093012F5F3F4FA996EEADFFADA997808156
:10132000E2962FAFE297E3963FAFE3970E9421202A
:10133000D801A60DB71D8C9364E170E080E090E0C9
:101340000E94AE22E2962FADE297E3963FADE3977F
:101350003901641475046CF52FC00E940520892B97
:1013600059F1DE011296F80102C08D918193CF01EF
:10137000801B910B84159505C4F3A996EEADFFADC6
:10138000A99780810E942120920157FE02C020E08F
:1013900030E0FE01E20FF31F808364E170E080E043
:1013A00090E00E94AE2208C0F2E0A696FFAFA6979A
:1013B00003C0A6961FAEA697AA966FADAA97AB9646
:1013C0007FADAB97C8010E947442892B09F44CC0D1
:1013D00067E972E0AA968FADAA97AB969FADAB97DF
:1013E0000E945C42009759F471018AECE80EF11CEE
:1013F000D7018C910E9421208097D1F70DC063EA1C
:1014000072E0AA968FADAA97AB969FADAB970E945C
:101410005C42009749F326C0810109501F4FF80133
:1014200011821082D7018C910E9421203AE0D32EA4
:101430007101BAECEB0EF11C992787FD9095C097CE
:10144000F80140815181D49E9001D59E300D112428
:10145000820F931F91838083D7018C910E9421205A
:101460008D3051F781E058C1AC966FADAC97AD9619
:101470007FADAD97C8010E947442892B09F455C015
:10148000C757DF4FE881F981C958D04032970CF433
:101490004CC067E972E0AC968FADAC97AD969FAD4E
:1014A000AD970E945C42009759F47101FAECEF0E7F
:1014B000F11CD7018C910E9421208097D1F70DC09B
:1014C00063EA72E0AC968FADAC97AD969FADAD97E9
:1014D0000E945C42009749F326C0810109501F4FCA
:1014E000F80111821082D7018C910E9421202AE0FC
:1014F000D22E7101BAECEB0EF11C992787FD909565
:10150000C097F80140815181D49E9001D59E300D45
:101510001124820F931F91838083D7018C910E94A5
:1015200021208D3051F782E0F7C0AE966FADAE97B7
:10153000AF967FADAF97C8010E947442892B09F422
:1015400055C0C757DF4FE881F981C958D04033975C
:101550000CF44CC067E972E0AE968FADAE97AF96D3
:101560009FADAF970E945C42009759F47101FAEC6D
:10157000EF0EF11CD7018C910E9421208097D1F7AA
:101580000DC063EA72E0AE968FADAE97AF969FAD99
:10159000AF970E945C42009749F326C08101095031
:1015A0001F4FF80111821082D7018C910E942120D7
:1015B0009AE0D92E7101BAECEB0EF11C992787FD48
:1015C0009095C097F80140815181D49E9001D59E9D
:1015D000300D1124820F931F91838083D7018C914A
:1015E0000E9421208D3051F783E096C0E0966FADC8
:1015F000E097E1967FADE197C8010E947442892B84
:1016000009F455C0C757DF4FE881F981C958D04068
:1016100034970CF44CC067E972E0E0968FADE09728
:10162000E1969FADE1970E945C42009759F47101E9
:10163000FAECEF0EF11CD7018C910E9421208097CB
:10164000D1F70DC063EA72E0E0968FADE097E196C6
:101650009FADE1970E945C42009749F326C081014B
:1016600009501F4FF80111821082D7018C910E94FE
:101670002120BAE0DB2E7101BAECEB0EF11C9927A8
:1016800087FD9095C097F80140815181D49E9001CB
:10169000D59E300D1124820F931F91838083D70133
:1016A0008C910E9421208D3051F784E035C0A9969D
:1016B000EEADFFADA99780810E940520892B09F02E
:1016C000E2CD0E945C22681579058A059B0520F40D
:1016D0000E945C224B015C010E945C22681979091E
:1016E0008A099B096C157D058E059F0508F4B4CD0C
:1016F00080E012C02F013F0199CD6AE070E080E0E8
:1017000090E00E94AE220E945C22681579058A054D
:101710009B0508F0A1CD9CCDCE58DF4F0FB6F894B5
:10172000DEBF0FBECDBFDF91CF911F910F91FF9014
:10173000EF90DF90CF90BF90AF909F908F907F9071
:101740006F905F904F903F902F9008958F929F924F
:10175000AF92BF92CF92DF92EF92FF920F931F93BF
:101760001F92E1E0EF931F921F924601570168011B
:1017700079018A019A010E9462080F900F900F90E0
:101780000F901F910F91FF90EF90DF90CF90BF903F
:10179000AF909F908F9008958F929F92AF92BF923B
:1017A000CF92DF92EF92FF920F931F934701580160
:1017B0001F92E1E0EF931F921F9269017A018B0162
:1017C0009B01AB010E9462080F900F900F900F9049
:1017D0001F910F91FF90EF90DF90CF90BF90AF904F
:1017E0009F908F900895CF92DF92EF92FF920F9388
:1017F0001F93CF93DF93EC018C0106531F4FF80129
:1018000060818FEA92E00E94F120F80160818DE012
:101810000E94E420F80160818AE00E94E42068ECE4
:1018200070E080E090E00E94AE220E945C22C12C19
:10183000D12C7B018C0128EE33E040E050E062EBDC
:1018400072E0CE010E94CC0B813011F4888301C07C
:101850001882DF91CF911F910F91FF90EF90DF9051
:10186000CF9008952F923F924F925F926F927F9206
:101870008F929F92AF92BF92CF92DF92EF92FF92A0
:101880000F931F93CF93DF9300D000D000D0CDB73C
:10189000DEB79E838D837A8369835C834B831901D2
:1018A000280135010E945C224B015C010D811E81E3
:1018B00006531F4FF80180810E945A2004C0F8018E
:1018C00080810E942120F80180810E940520181645
:1018D0001906ACF31CC0F80160818FEA92E00E9407
:1018E000F120F801608189819A810E94F120F8013C
:1018F000608186E995E00E94F120F1E06F1A71089D
:101900006AEF70E080E090E00E94AE2204C00D819A
:101910001E8106531F4FF80180810E940520892BEC
:1019200099F01F9283E08F931F921F928201920180
:10193000A1016B817C818D819E810E9462080F9044
:101940000F900F900F9010C00E945C2268197909C7
:101950008A099B096C157D058E059F0510F71614E5
:1019600017040CF4B8CFCCCF26960FB6F894DEBF90
:101970000FBECDBFDF91CF911F910F91FF90EF90E0
:10198000DF90CF90BF90AF909F908F907F906F909F
:101990005F904F903F902F9008952F923F924F92DB
:1019A0005F926F927F928F929F92AF92BF92CF92EF
:1019B000DF92EF92FF920F931F93CF93DF9300D0AC
:1019C00000D000D0CDB7DEB71C017A8369835C8379
:1019D0004B833E832D83270138010E945C224B01FB
:1019E0005C01810106531F4FF80180810E945A203B
:1019F0001BC0F80160818FEA92E00E94F120F8019B
:101A0000608189819A810E94F120F801608186E9D4
:101A100095E00E94F120F1E0CF1AD1086AEF70E062
:101A200080E090E00E94AE22F80180810E940520B3
:101A3000892B79F40E945C22681979098A099B092B
:101A4000641575058605970520F41C141D048CF299
:101A5000E5CF1F9282E08F931F921F927301620164
:101A60000D811E819801A8016B817C81C1010E94BA
:101A700062080F900F900F900F9026960FB6F89473
:101A8000DEBF0FBECDBFDF91CF911F910F91FF90B1
:101A9000EF90DF90CF90BF90AF909F908F907F900E
:101AA0006F905F904F903F902F900895CF92DF926C
:101AB000EF92FF920F931F93EAE0CE2ED12C10E10C
:101AC000E12E17E2F12E00E010E00E94CD0C1F91F4
:101AD0000F91FF90EF90DF90CF900895CF92DF921B
:101AE000EF92FF920F931F93CF93DF937C01E7E177
:101AF000F1E085919491E7012196BC01CE010E940D
:101B00003F42870107501F4FC70183579F4F9F9345
:101B10008F93DF93CF9385EB92E09F938F9382E037
:101B20008F931F921F930F930E948E42EDB7FEB7C3
:101B30003A960FB6F894FEBF0FBEEDBFA5E0CA2ED1
:101B4000D12C23EC32E042EB52E0B801C7010E94F5
:101B5000560DF1E0CF1AD108813019F4CD2831F4B7
:101B600003C0C114D10469F78FEF5EC0670181EA39
:101B7000C80ED11CF6018081E9E1F1E081111CC0A1
:101B800085919491BC01CE010E943F42DF93CF9397
:101B900089EC92E09F938F9382E08F931F921F9323
:101BA0000F930E948E42EDB7FEB738960FB6F894A9
:101BB000FEBF0FBEEDBF22C085919491BC01CE0146
:101BC0000E943F42DF92CF92C7018B549F4F9F9359
:101BD0008F93DF93CF938DEC92E09F938F9382E06E
:101BE0008F931F921F930F930E948E42EDB7FEB703
:101BF0003C960FB6F894FEBF0FBEEDBFC5E0D0E037
:101C000027E932E042EB52E0B801C7010E94560DCD
:101C1000813049F02197A1F7882309F4A5CF8230BC
:101C200011F481EF01C081E0DF91CF911F910F91FD
:101C3000FF90EF90DF90CF9008952F923F924F92B8
:101C40005F926F927F928F929F92AF92BF92CF924C
:101C5000DF92EF92FF920F931F93CF93DF931C01BC
:101C60006B01EA01280139010E945C224B015C01F1
:101C7000810106531F4FF80180810E945A201AC02B
:101C8000F80160818FEA92E00E94F120F801608102
:101C9000C6010E94F120F801608186E995E00E946A
:101CA000F120F1E0EF1AF1086AEF70E080E090E0D7
:101CB0000E94AE22F80180810E940520892B79F4D0
:101CC0000E945C22681979098A099B0964157505C7
:101CD0008605970520F41E141F0494F2E5CF1F9289
:101CE00081E08F931F921F92730162018E019E010A
:101CF000AE01BE01C1010E9462080F900F900F90CB
:101D00000F90DF91CF911F910F91FF90EF90DF9097
:101D1000CF90BF90AF909F908F907F906F905F908B
:101D20004F903F902F900895EF92FF920F931F9343
:101D30002AE0E22EF12C00E117E220E030E00E94E0
:101D40001D0E1F910F91FF90EF9008952F923F92DB
:101D50004F925F926F927F928F929F92AF92BF92BB
:101D6000CF92DF92EF92FF920F931F93CF93DF9367
:101D7000CDB7DEB728970FB6F894DEBF0FBECDBF44
:101D800098878F839A01AB01EDE7F1E085919491FB
:101D90002F8038846FEF261A360ABC01C1012B83CD
:101DA0003C834D835E830E943F42EFE7F1E08591E3
:101DB0009491CF80D884E5E1CE0ED11CBC01C60140
:101DC0000E943F420E945C224B015C01A8EEB3E0FE
:101DD0002B813C814D815E810E94E0402B013C01C2
:101DE0008F81988586539F4F9A838983EE24E3944D
:101DF000F12C08EB1BE020E030E0A601B1018F815F
:101E000098850E941D0E813041F4E981FA8180811C
:101E10000E942120182F105301C01FEF0E945C2246
:101E2000681579058A059B0520F40E945C224B0108
:101E30005C01123031F0143021F0112311F01F3FFA
:101E4000F1F40E945C22681979098A099B096415DA
:101E500075058605970550F212C0153011F01F3F29
:101E600039F50E945C22681979098A099B0946168E
:101E7000570668067906E0F017C081E01BC061E8EC
:101E800071E08FE390E10E94B82B412F552747FD69
:101E90005095652F752F2AE030E08FE390E10E9486
:101EA000E02B1130D1F6DDCF1F3F39F78FEF02C0A5
:101EB000812F819528960FB6F894DEBF0FBECDBF57
:101EC000DF91CF911F910F91FF90EF90DF90CF9016
:101ED000BF90AF909F908F907F906F905F904F904A
:101EE0003F902F900895CF93DF93EC0184E490E12D
:101EF0000E94DA2CFE01E553FF4F40E052EC61E016
:101F000070E04083518362837383C653DF4F4881FF
:101F100060E072EC81E090E0DF91CF910C94631F60
:101F200086539F4FFC0180810E94D71F40E060E0F4
:101F300084E490E10C94B52CEF92FF920F931F93E1
:101F4000CF93DF93EC01F62E82E0681709F48BC083
:101F5000861738F0662309F4C2C091E06913E8C01F
:101F60000BC084E0681709F48AC0681708F493C0AE
:101F700095E06913DDC0ACC08BE79EE00E941B2892
:101F8000E82EFE01E753FF4F8081853019F4CE0122
:101F90000E94730F61E08AE20E94ED1B60E08AE21A
:101FA0000E94061C68EC70E080E090E00E94AE2287
:101FB00061E08AE20E94061CCE010E94F30B13E04E
:101FC0000FC060E08AE20E94061C68EB7BE080E0C4
:101FD00090E00E94AE2261E08AE20E94061C11504D
:101FE0000FE08881811103C0111195C0A1C0112398
:101FF00009F49EC042EB52E06AEE72E0CE010E940C
:10200000940E42EB52E062EF72E0CE010E94940E19
:10201000E3E0F1E0259134918E010F5F1F4FB9018C
:10202000C8010E943F4227E932E042EB52E0B8018A
:10203000CE010E94560D9DE19E1508F461C066EB2D
:1020400071E08FE390E10E94402C6BEC71E08FE334
:1020500090E10E94402C60EE71E08FE390E10E94DD
:10206000402C83E056C0FE01E753FF4F808185304E
:1020700019F4CE010E94730FE3E0F1E017C0FE01F6
:10208000E753FF4F8081853019F4CE010E94730F12
:10209000E5E0F1E00BC0FE01E753FF4F80818530A2
:1020A00019F4CE010E94730FE7E0F1E0859194915D
:1020B0008E010F5F1F4FBC01C8010E943F4227E9FC
:1020C00032E042EB52E0B801CE010E94560D18C03A
:1020D000FE01E653FF4F80810E94D71F13C060E0CE
:1020E0008AE20E94061C68EE73E080E090E00E94A5
:1020F000AE22CE010E94F30B8881882319F018C00C
:10210000813029F4C753DF4FF88281E012C082305A
:1021100084F081950EC064EF71E080E090E00E9451
:10212000AE22CE010E94F30B015009F05ACF49CFE5
:1021300080E0DF91CF911F910F91FF90EF90089574
:102140001F93CF93DF93EC0160E00E949C0F182F48
:10215000CE010E94900F8091A610823051F48BE73F
:102160009EE00E94A72841E060E083E990E10E94A0
:102170000D31812FDF91CF911F910895CF93DF9380
:10218000EC0182E00E94C92483E00E94C92480916E
:10219000A61081110DC083E990E10E94B13583E959
:1021A00090E10E949B3583E990E10E94393104C09F
:1021B00083E990E10E949B35CE010E94730F61E09C
:1021C000CE01DF91CF910C949C0F2F923F924F92B2
:1021D0005F926F927F928F929F92AF92BF92CF92B7
:1021E000DF92EF92FF920F931F93CF93DF93CDB7C0
:1021F000DEB728970FB6F894DEBF0FBECDBF988725
:102200008F839A01AB01EFE6F1E0859194912F80E5
:1022100038846FEF261A360ABC01C1012B833C8338
:102220004D835E830E943F42E1E7F1E08591949106
:10223000CF80D884E5E1CE0ED11CBC01C6010E943E
:102240003F420E945C224B015C01A8EEB3E02B816F
:102250003C814D815E810E94E0402B013C018F81D9
:10226000988586539F4F9A838983EE24E394F12CBB
:1022700008EB1BE020E030E0A601B1018F819885DA
:102280000E941D0E182F813039F4E981FA81808176
:102290000E942120182F10530E945C226815790596
:1022A0008A059B0520F40E945C224B015C011230E0
:1022B00021F0143011F011111BC00E945C2268192A
:1022C00079098A099B09641575058605970568F2E1
:1022D0000FC0153081F40E945C22681979098A09BF
:1022E0009B09461657066806790628F081E005C066
:1022F000113079F7F0CF812F819528960FB6F89499
:10230000DEBF0FBECDBFDF91CF911F910F91FF9028
:10231000EF90DF90CF90BF90AF909F908F907F9085
:102320006F905F904F903F902F9008958F929F9263
:10233000AF92BF92CF92DF92EF92FF920F931F93D3
:10234000CF93DF93EC01F62EE72EEBE1F1E08591E0
:1023500094918E010F5F1F4FBC01C8010E943F4244
:102360004E0129EF820E911CEF92FF921F930F9363
:102370008AE193E09F938F9382E08F931F929F92C5
:102380008F920E948E42AA24A394B12C60EDC62E97
:1023900067E0D62EE12CF12C03EC12E027E932E0C5
:1023A00042EB52E0B401CE010E94320C2DB73EB791
:1023B000265F3F4F0FB6F8943EBF0FBE2DBF823051
:1023C0000CF08195DF91CF911F910F91FF90EF90CD
:1023D000DF90CF90BF90AF909F908F900895AF9275
:1023E000BF92CF92DF92EF92FF920F931F93CF9302
:1023F000DF93EC015A016B01E9E5F1E0259134919D
:102400007C018FEFE81AF80AB901C7010E943F4228
:102410008E0107501F4FDF92CF92BF92AF92FF9273
:10242000EF922AE035E03F932F9382E08F931F9243
:102430001F930F930E948E4223EC32E042EB52E056
:10244000B801CE010E94560D182F8DB79EB70C967D
:102450000FB6F8949EBF0FBE8DBF123051F01130F1
:1024600049F4C653DF4F4881B501C6010E94631F7E
:1024700001C01EEF812FDF91CF911F910F91FF902F
:10248000EF90DF90CF90BF90AF9008952F923F9242
:102490004F925F926F927F928F929F92AF92BF9274
:1024A000CF92DF92EF92FF920F931F93CF93DF9320
:1024B000CDB7DEB728970FB6F894DEBF0FBECDBFFD
:1024C0004C0168872C0129EF420E511C80E092E0FC
:1024D000D201FC011D923197E9F7940126533F4F39
:1024E0003B832A83D9018C910E942120612C712C7D
:1024F0002A803B80E6E9F1E0259134913D832C83ED
:10250000D4011196BF83AE836DC0F10180810E941A
:102510002120D1018C910E942120F10180810E9413
:102520002120D1018C910E942120F10180810E9403
:10253000212000E010E09AE09801929F8001939F93
:10254000100D1124992787FD9095C097080F191F2A
:10255000D1018C910E9421208D3069F7EA81FB81A5
:1025600080810E9421200E945C226B017C01D101AC
:102570008C910E9421208F3F81F06114B2E07B0694
:102580004CF4F401E60DF71DE750FF4F8083EFEFA9
:102590006E1A7E0A0150110906C061E070E080E009
:1025A00090E00E94AE220E945C226C157D058E0593
:1025B0009F0520F40E945C226B017C01101611061D
:1025C0000CF0EDC00E945C226C197D098E099F09F8
:1025D000603177428105910550F2E1C0D1018C91C3
:1025E0000E942120843409F490CF803309F0A0C0E8
:1025F000680C791CF301E850FF4F1082E9E5F1E027
:102600008591949184010F5F1F4FBC01C8010E9406
:102610003F426401B5E1CB0ED11C7401EBECEE0E30
:10262000F11CD70113968C9113978F9312968C916E
:1026300012978F9311968C9111978F938C918F9302
:102640001F930F938AE095E09F938F931F9284E1ED
:102650008F93DF92CF920E948E4223EC32E042EBC6
:1026600052E0B601C4010E94560D0FB6F894DEBFC9
:102670000FBECDBF823009F486C0813059F4F40119
:10268000E653FF4FD7016D917D918D919C914081D3
:102690000E94631FB885B13009F077C061E275E030
:1026A000C2010E947442892B09F471C068E275E08E
:1026B000C2010E947442009709F46BC07C01E0E102
:1026C000EE0EF11C6DE070E0C7010E945142AC01BA
:1026D0004E195F09B701C8010E946542CE010196FB
:1026E0009F938F9387EC93E09F938F931F930F9308
:1026F0000E94FA4264E975E0C2010E9474420F90A0
:102700000F900F900F900F900F90009709F443C017
:102710004981BC016C5F7F4F50E0C2010E9465425D
:102720008981880E911CF401E750FF4F10822DC063
:10273000882399F100E010E0EAE0DE2E7401FAEC63
:10274000EF0EF11C9801D29E8001D39E100D112432
:10275000992787FD9095C097080F191FD7018C9175
:102760000E9421208D3071F7F401E553FF4F408125
:10277000518162817381C4010E94EF11075D1109CB
:10278000802F819526C08CEF24C081E022C08FEE7F
:1027900020C08EEE1EC08DEE1CC08DEF1AC06C8165
:1027A0007D818E819F810E943F420E945C226B014D
:1027B0007C01A12CB12C08EC1FEA20E030E043ECB6
:1027C00052E06E817F81C4010E94A60B813029F7FF
:1027D00005CF28960FB6F894DEBF0FBECDBFDF91B0
:1027E000CF911F910F91FF90EF90DF90CF90BF900E
:1027F000AF909F908F907F906F905F904F903F90A1
:102800002F9008955F926F927F928F929F92AF92D6
:10281000BF92CF92DF92EF92FF920F931F93CF93CD
:10282000DF93EC01162FF72EE42ED52E5901502EF2
:102830004AE550E060E070E00E94A60E992787FD0F
:1028400090958130910531F0019609F4E9C0E0E0FE
:10285000F0E0E8C0CE010E946E0DE82FFF27E7FDF3
:10286000F095E130F10509F0DDC040E659E060E0A7
:1028700070E0CE010E94EF11CE010E94F30B3E01E9
:1028800039EF630E711C80E092E0F3019C0111921C
:1028900021503040E1F768EE73E080E090E00E9464
:1028A000AE22E2E9F1E0859194914E013FEF831A67
:1028B000930ABC01C4010E943F42DF92EF92FF9253
:1028C0001F939F928F928BED92E09F938F9382E064
:1028D0008F931F927F926F920E948E42E4E9F1E003
:1028E00085919491BC01C4010E943F42CC24C394C1
:1028F000D12C18ECE12E1FEAF12E00E010E027E9C0
:1029000032E0A401B301CE010E94CD0C90E0EDB7FE
:10291000FEB73C960FB6F894FEBF0FBEEDBF009712
:1029200069F4FE01E553FF4F40815181628173815B
:10293000CE010E94EF11EEEFFFEF74C0029769F431
:10294000FE01E553FF4F4081518162817381CE01C9
:102950000E94EF11E0EFFFEF65C068EE73E080E0EA
:1029600090E00E94AE22750165018E0106531F4F53
:1029700007C0F8016081F60181916F010E94E42097
:10298000F50101900020E9F73197EA19FB09C6012A
:102990008E199F098E179F0760F368EE73E080E041
:1029A00090E00E94AE22F80160818AE10E94E4205A
:1029B000E6E9F1E085919491BC01C4010E943F4297
:1029C0000E945C226B017C01A12CB12C08EC1FEA57
:1029D00020E030E043EC52E0B401CE010E94A60BAF
:1029E000813069F0FE01E553FF4F408151816281E2
:1029F0007381CE010E94EF11EDEFFFEF13C080E075
:102A000092E0F3019C01119221503040E1F7652DD5
:102A1000CE010E944612E82FFF27E7FDF09502C085
:102A2000ECEEFFEFCF01DF91CF911F910F91FF905F
:102A3000EF90DF90CF90BF90AF909F908F907F905E
:102A40006F905F9008950F9300E00E9402140F9121
:102A50000895CF92DF92EF92FF920F931F93CF933F
:102A6000DF93EC016A01790183579F4F24E1DC0178
:102A7000E22F1D92EA95E9F78E010F551F4FD801FD
:102A8000E22F1D92EA95E9F7CB54DF4FDE011D924C
:102A90002A95E9F7FB0101900020E9F7AF014150C9
:102AA0005109461B570B4531510510F044E150E0E8
:102AB0000E946542F60101900020E9F7AF01415004
:102AC00051094C195D094531510510F044E150E0C0
:102AD000B601C8010E946542D7010D900020E9F7B8
:102AE000AD01415051094E195F094531510510F0B2
:102AF00044E150E0B701CE01DF91CF911F910F91DA
:102B0000FF90EF90DF90CF900C946542CF93DF93CE
:102B1000EC0165EF71E08FE390E10E94B82BBE01FC
:102B200063577F4F8FE390E10E941D2C6BEF71E0A4
:102B30008FE390E10E94B82BBE016F557F4F8FE36A
:102B400090E10E941D2C63E072E08FE390E10E940F
:102B5000B82BBE016B547F4F8FE390E1DF91CF9193
:102B60000C941D2C88E997E00C941608FC01118246
:102B700081E0828387E0838340E050EC64EE70E084
:102B80004483558366837783128A148A138E8FE079
:102B90008087168A178A108E83E0818FE55EFE4F4C
:102BA00010828091331190913411A0913511B09120
:102BB0003611A2608093331190933411A093351194
:102BC000B0933611089582ED9AE00C94B6150895ED
:102BD000EF92FF920F93CF93DF93CDB7DEB7279796
:102BE0000FB6F894DEBF0FBECDBF7B0107E09E019C
:102BF0002F5F3F4F40E0FC01608185E490E10E943F
:102C00001230873009F59A8180E02B81822B9595CF
:102C1000879595958795F701918380839C8180E0C6
:102C20002D81822B959587959595879593838283A2
:102C30009E8180E02F81822B95958795959587952C
:102C40009583848380E001C081E027960FB6F894D5
:102C5000DEBF0FBECDBFDF91CF910F91FF90EF9000
:102C60000895EF92FF920F93CF93DF93CDB7DEB726
:102C700027970FB6F894DEBF0FBECDBF7C01613041
:102C800041F028F0623039F0633051F406C08EE133
:102C900005C08DE103C08CE101C08FE1F7018083A5
:102CA0001F8201E09E01295F3F4F4AE2F7016081E8
:102CB00085E490E10E94CD2F1F829E01295F3F4F46
:102CC0004EE0F701608185E490E10E94CD2F89E319
:102CD0008F839E01295F3F4F4AE2F701608185E4BF
:102CE00090E10E94CD2F82E18F839E01295F3F4FAB
:102CF0004BE2F701608185E490E10E94CD2F83E0F3
:102D00008F839E01295F3F4F4CE2F701608185E48C
:102D100090E10E94CD2FBE016F5F7F4FC7010E94DF
:102D2000E81527960FB6F894DEBF0FBECDBFDF9132
:102D3000CF910F91FF90EF9008952F923F924F9275
:102D40005F926F927F928F929F92AF92BF92CF923B
:102D5000DF92EF92FF920F931F93CF93DF93CDB744
:102D6000DEB729970FB6F894DEBF0FBECDBF7987C7
:102D7000688707E09E012F5F3F4F40E0FC016081C4
:102D800085E490E10E941230873009F0EAC07A8130
:102D900060E08B81682B7595679575956795882799
:102DA00077FD8095982F0E94373F20E43AED4FE75A
:102DB00059E30E9425402B013C017C8160E08D811C
:102DC000682B7595679575956795882777FD80952C
:102DD000982F0E94373F20E43AED4FE759E30E94D5
:102DE00025404B018C017E8160E08F81682B7595B9
:102DF000679575956795882777FD8095982F0E9430
:102E0000373F20E43AED4FE759E30E942540262F53
:102E1000372F482F592F0E9425401B015C01282D78
:102E2000392D402F512F682D792D802F912F0E9401
:102E30002540222D332D4A2D5B2D0E940C3E0E94F1
:102E40008C409B01AC01642D752D862D972D0E9421
:102E50009C3E0E94703E6B017C01242D352D462D39
:102E6000572D642D752D862D972D0E942540222DDE
:102E7000332D4A2D5B2D0E940C3E0E948C409B01FD
:102E8000AC01682D792D802F912F0E949C3E0E94CD
:102E9000703E4B015C0121EE3EE245E652E4C70183
:102EA000B6010E94254020E030E048EC52E40E9448
:102EB000254020E030E040E05FE30E940C3E0E94AD
:102EC000043F882777FD8095982F0E94373F2B017C
:102ED0003C0121EE3EE245E652E4C501B4010E9408
:102EE000254020E030E048EC52E40E94254020E0FC
:102EF00030E040E05FE30E940C3E0E94043F8827E0
:102F000077FD8095982F0E94373F6B017C0120E070
:102F100030E048EC52E4C301B2010E949C3E20E044
:102F200030E048EC52E40E9425400E94043FE885CE
:102F3000F9857183608320E030E048EC52E4C701FA
:102F4000B6010E949C3E20E030E048EC52E40E9432
:102F500025400E94043FE885F9857383628380E001
:102F600001C081E029960FB6F894DEBF0FBECDBF39
:102F7000DF91CF911F910F91FF90EF90DF90CF9055
:102F8000BF90AF909F908F907F906F905F904F9089
:102F90003F902F9008950F93CF93DF931F92CDB75B
:102FA000DEB7198201E09E012F5F3F4F4AE2FC012C
:102FB000608185E490E10E94CD2F0F90DF91CF9149
:102FC0000F9108950F931F93CF93DF9300D01F921B
:102FD000CDB7DEB78C010E94E715C80101960E94AB
:102FE000E715C80102960E94E715C80103960E94E2
:102FF000AC07C80104960E94AC07C80105960E9460
:10300000AC07CE0103960E94E715CE0102960E94FE
:10301000E715CE0101960E94E7150F900F900F90D3
:10302000DF91CF911F910F910895CF93DF93EC0122
:1030300060E087E00E94ED1B40E060E08BE79EE0EF
:103040000E94A02760ED77E080E090E00E94AE2231
:1030500060E0CE010E94311661E0CE0101960E942F
:10306000311662E0CE0102960E94311660E0CE0178
:1030700003960E94AD0761E0CE0104960E94AD0761
:1030800062E0CE0105960E94AD0768EE73E080E035
:1030900090E0DF91CF910C94AE22CF93DF93EC01BF
:1030A0000E94CB17CE0101960E94CB17CE0102964B
:1030B0000E94CB17CE0103960E94FE07CE01049614
:1030C0000E94FE07CE010596DF91CF910C94FE077A
:1030D0000C941518EF92FF920F931F93CF93DF93E9
:1030E000FA0180E090E07B0121E0E21AF1081AC0C9
:1030F0000196DF019C0112C012960D911C9113974D
:10310000C081D1810C171D0734F4118300831396FD
:10311000DC93CE9312972F5F3F4F129626173707F7
:1031200059F732968E159F051CF360FD27C077FF77
:1031300002C06F5F7F4FFB01F595E795DF01AA0F96
:10314000BB1FA40FB51F3197EE0FFF1FE40FF51F34
:103150006D917C9180819181680F791F882777FD1F
:103160008095982F0E94373F20E030E040E05FE3F9
:103170000E9425400E94043FCB010AC077FF02C095
:103180006F5F7F4FFB01EE7FE40FF51F8081918120
:10319000DF91CF911F910F91FF90EF900895AF9223
:1031A000BF92CF92DF92EF92FF920F931F93CF9334
:1031B000DF93CDB7DEB7EC970FB6F894DEBF0FBE46
:1031C000CDBF6C018B01EE24E394F12CEC0EFD1EBF
:1031D0005E018DE3A80EB11C87E00E94B021F701CB
:1031E000819391937F01EA15FB05B1F7AE014F5F23
:1031F0005F4F6EE170E0C6010E946A186FEF73E0E6
:10320000681B790B882777FD8095982F0E94373FA0
:1032100024EB38EC4EE350E40E9425400E94043F2A
:10322000F80171836083EC960FB6F894DEBF0FBE91
:10323000CDBFDF91CF911F910F91FF90EF90DF9065
:10324000CF90BF90AF900895DF92EF92FF920F93CF
:103250001F93CF93DF93CDB7DEB727970FB6F894C0
:10326000DEBF0FBECDBF7C018B01BE016F5F7F4F04
:103270000E949D1681110BC089819A81AB81BC810E
:10328000F80180839183A283B383D12C02C0DD2413
:10329000D394BE016F5F7F4FC70101960E949D16B8
:1032A00081110AC089819A81AB81BC81F801848334
:1032B0009583A683B78302C0DD24D394BE016F5FDC
:1032C0007F4FC70102960E949D1681110AC0498155
:1032D0005A816B817C81F8014087518762877387AF
:1032E00002C0DD24D394BE016B5F7F4FC7010E94F3
:1032F000CF188D819E81F801908B87878BE79EE0A8
:103300000E941B28F801828BBE01695F7F4FC701B5
:1033100003960E94D407811104C08F81F80184872D
:1033200002C062E0D62EBE01695F7F4FC7010496DE
:103330000E94D407811104C08F81F801858702C0E3
:1033400052E0D52EBE01695F7F4FC70105960E94EE
:10335000D407811104C08F81F801868702C042E042
:10336000D42EED2DE150E23028F4F0E0E550FA4F94
:10337000808101C080E027960FB6F894DEBF0FBEB3
:10338000CDBFDF91CF911F910F91FF90EF90DF9014
:103390000895CF93DF93CDB7DEB763970FB6F89458
:1033A000DEBF0FBECDBFBE016F5F7F4F0E942419ED
:1033B0008111BBC062E575E08FE390E10E94B82BFC
:1033C00069817A818FE390E10E948B2C64E373E042
:1033D0008FE390E10E941D2C6CE575E08FE390E196
:1033E0000E94B82B6B817C818FE390E10E948B2C33
:1033F00064E373E08FE390E10E941D2C65E675E0C5
:103400008FE390E10E94B82B6D817E818FE390E184
:103410000E948B2C64E373E08FE390E10E941D2CEB
:1034200060E775E08FE390E10E94B82B6F817885AB
:103430008FE390E10E948B2C64E373E08FE390E1D3
:103440000E941D2C6AE775E08FE390E10E94B82B83
:1034500069857A858FE390E10E948B2C64E373E0A9
:103460008FE390E10E941D2C65E875E08FE390E109
:103470000E94B82B6B857C858FE390E10E948B2C9A
:1034800064E373E08FE390E10E941D2C6FE875E028
:103490008FE390E10E94B82B688979898FE390E1EE
:1034A0000E948B2C64E373E08FE390E10E941D2C5B
:1034B00065E975E08FE390E10E94B82B6D85772771
:1034C00067FD70958FE390E10E948B2C64E373E0BD
:1034D0008FE390E10E941D2C6DE975E08FE390E190
:1034E0000E94B82B6E85772767FD70958FE390E17A
:1034F0000E948B2C64E373E08FE390E10E941D2C0B
:1035000064EA75E08FE390E10E94B82B6F8577271E
:1035100067FD70958FE390E10E948B2C64E373E06C
:103520008FE390E10E941D2C06C06BEA75E08FE3EB
:1035300090E10E94402C63960FB6F894DEBF0FBE58
:10354000CDBFDF91CF9108952DEF35E0FC013183A0
:10355000208322E036E033832283089560E276E020
:103560008FE390E10E941D2C28E935E0A90168E273
:1035700076E088E997E00E94291569E376E08FE319
:1035800090E10E941D2C88E997E00C948615CF925B
:10359000DF92EF92FF920F931F93CF93DF93CDB7FC
:1035A000DEB7CC5DD1090FB6F894DEBF0FBECDBF3C
:1035B0006C017B016EEB75E08FE390E10E94402C83
:1035C00088E997E00E94BE10182F63ED75E08FE345
:1035D00090E10E94402C113019F01D3F09F0E6C027
:1035E00064E476E08FE390E10E941D2C67EE75E0C5
:1035F0008FE390E10E94402CF6016081718188E99F
:1036000097E00E949611813019F46BEF75E002C0CB
:103610006DE076E08FE390E10E94402C44EB50E0B7
:1036200060E070E088E997E00E94E510813009F0E1
:10363000BAC060E276E08FE390E10E94402C66E43D
:1036400076E08FE390E10E94B82BF70181891F9209
:103650008F9387E596E09F938F938E0107531F4FBB
:103660001F930F930E94CB42F60183818F93828137
:103670008F93F7012685822F992787FD90959F9339
:103680002F932585822F992787FD90959F932F93C0
:103690002485822F992787FD90959F932F9380896A
:1036A0008F9387858F9383858F9382858F93818571
:1036B0008F9380858F9387818F9386818F93858168
:1036C0008F9384818F9383818F9382818F93818164
:1036D0008F9380818F9382891F928F931F930F9373
:1036E00082E696E09F938F938E010F5F1F4F1F938B
:1036F0000F930E94CB420FB6F894DEBF0FBECDBF32
:10370000B8018FE390E10E941D2CF6016281738164
:10371000980140E550E088E997E00E942315813048
:1037200071F465E676E08FE390E10E94402C61E958
:1037300078E08FE390E10E941D2C80E03EC0C82E0F
:10374000DD24C7FCD094ED2CFD2C823FECF46AE61E
:1037500076E08FE390E10E94B82B2AE030E0B701D9
:10376000A6018FE390E10E94E02B6FE776E08FE304
:1037700090E10E94B82B40918F085091900860E032
:1037800070E02AE030E00AC060E976E08FE390E183
:103790000E94B82B2AE030E0B701A6018FE390E148
:1037A0000E94E02B09C065EA76E002C060ED76E099
:1037B0008FE390E10E94402C81E0C452DF4F0FB6AE
:1037C000F894DEBF0FBECDBFDF91CF911F910F9157
:1037D000FF90EF90DF90CF90089590E0FC01E75EBE
:1037E000F84F2491FC01E45BF84FE491EE2369F07B
:1037F000F0E0E157F84FA491B0E08C91611103C063
:103800002095822301C0822B8C93089590E0FC01C7
:10381000EA51F94F2491FC01E75EF84F3491FC0125
:10382000E45BF84F84918823B1F1222331F12330F6
:1038300021F4909180009F7705C0243031F490915D
:1038400080009F7D9093800018C0213019F494B5BA
:103850009F7704C0223021F494B59F7D94BD0DC0A4
:10386000263021F49091B0009F7705C0273029F4CD
:103870009091B0009F7D9093B000E82FF0E0E95761
:10388000F84FA491B0E08C91611103C0309583236F
:1038900001C0832B8C93089590E0FC01EA51F94F0D
:1038A0002491FC01E75EF84F3491FC01E45BF84F92
:1038B0008491882399F1222331F1233021F49091CE
:1038C00080009F7705C0243031F4909180009F7D67
:1038D0009093800018C0213019F494B59F7704C0EC
:1038E000223021F494B59F7D94BD0DC0263021F483
:1038F0009091B0009F7705C0273029F49091B000D7
:103900009F7D9093B000E82FF0E0E158F84FE491EC
:10391000F0E08081832321E030E011F420E030E00A
:10392000C90108951092FB0DE4E6F0E080818F77E5
:103930008083589A599AE9EBF0E080818E7F8083EA
:1039400080818D7F808381E48093B80085E48093BB
:10395000BC0080E2ECEFFDE0DF01982F1D929A950C
:10396000E9F7ECE1FEE0DF01982F1D929A95E9F767
:10397000ECE3FEE0DF011D928A95E9F708956132DC
:1039800098F42091FB0D243089F46093F80DFC012C
:103990008CE19EE0DC0102C021912D932A2F281B8F
:1039A0002617D0F380E0089581E0089582E008951D
:1039B00085EC8093BC001092FB0D0895589859989F
:1039C0008091B90081608093B9008091B9008260D4
:1039D0008093B9008091BC0080688093BC00809186
:1039E000BC0080618093BC008091BC008F7B809381
:1039F000BC008091BC008F7D8093BC008091BC0096
:103A0000877F8093BC008091331190913411A091F5
:103A10003511B091361186FD14C08091331190910B
:103A20003411A0913511B091361190FD0AC08091EA
:103A3000331190913411A0913511B091361193FF4B
:103A400004C08091BC008B7F03C08091BC00846067
:103A50008093BC008091BC008E7F8093BC008091DD
:103A600064008068809364000895882349F0109270
:103A7000F20D1092F30D1092F40D1092F50D13C08B
:103A80008091F20D9091F30DA091F40DB091F50D90
:103A90000196A11DB11D8093F20D9093F30DA0939B
:103AA000F40DB093F50D8091F20D9091F30DA0916E
:103AB000F40DB091F50D803A9648A140B10560F043
:103AC0001092F20D1092F30D1092F40D1092F50D6C
:103AD0000E94921C81E0089580E0089585ED809316
:103AE000BC0081E00E94351D08C080E00E94351DA9
:103AF000882319F01092FB0D08958091BC0084FD7D
:103B0000F4CFF8CFFF920F931F93CF93DF93182F2B
:103B1000062FF72EC42FD22F81E0413208F051C07A
:103B20000E94351D15C080E00E94351D882381F05C
:103B300082E08093FB0D8FEF8093F60D1092FA0DCB
:103B4000C0935C0EE02FFF2D6CEF7DE0DB0107C022
:103B50008091FB0D8111E7CFEBCF81918D938A2F5F
:103B6000861B8C17D0F3812F90E0880F991F8093CC
:103B70005D0E85EE8093BC0081E00E94351DD11161
:103B800005C08091F60D8F3F59F414C08091FB0D54
:103B90008230B9F780E00E94351D81110DC0F6CF4B
:103BA0008091F60D803251F08091F60D803341F412
:103BB00083E007C080E005C085E003C082E001C06B
:103BC00084E0DF91CF911F910F91FF9008950F93A3
:103BD0001F93CF93DF93082FD62F172FC42F81E089
:103BE0004132E0F50E94351D1DC080E00E94351D68
:103BF0008823C1F081E08093FB0D8FEF8093F60D59
:103C00001092FA0DC0935C0E802F90E0880F991FE0
:103C1000816080935D0E85EE8093BC0081E00E9400
:103C2000351D10C08091FB0D8111DFCFE3CF80E007
:103C30000E94351D882331F08CEF9DE0ED2FF12F90
:103C4000DC0107C08091FB0D813089F3F5CF2D9108
:103C500021932A2F281B2C17D0F380E0DF91CF91DE
:103C60001F910F9108951F920F920FB60F9211247A
:103C70000BB60F922F933F934F935F936F937F9366
:103C80008F939F93AF93BF93CF93EF93FF93C09185
:103C9000B900C87FC03609F49FC058F5C83209F48E
:103CA0005BC090F4C03109F452C038F4CC2309F45D
:103CB000F2C0C83009F0F3C04AC0C83109F44CC0A2
:103CC000C03209F0ECC05DC0C03409F473C038F4F0
:103CD000C03309F45BC0C83309F0E1C05AC0C03535
:103CE00009F45CC0C83509F46AC0C83409F0D7C00B
:103CF000D4C0C83909F4C5C0A8F4C83709F46CC0E9
:103D000038F4C83609F468C0C03709F0C8C064C0C8
:103D1000C83809F4B6C0C03909F464C0C03809F025
:103D2000BEC060C0C03B09F484C038F4C03A09F496
:103D30006BC0C83A09F0B3C07CC0C03C09F4A5C050
:103D4000C83C09F4A2C0C83B09F0A9C087C0809153
:103D50005D0E8093BB0013C09091FA0D80915C0EB4
:103D6000981708F09AC08091FA0DE82FF0E0E4501F
:103D7000F24F90819093BB008F5F8093FA0D85EC9A
:103D800081C00E946E1DC093F60D89C0C093F60DD0
:103D900084C0C093F60D0E94D81C81C08091FA0D9A
:103DA0009091BB00E82FF0E0E450F24F90838F5FDA
:103DB0008093FA0D9091FA0D80915C0E5FC0809116
:103DC000FA0D9091BB00E82FF0E0E450F24F9083A1
:103DD0008F5F8093FA0D61C083E08093FB0D10929A
:103DE000F70DCDCF8091F70D803208F04AC0809159
:103DF000F70D9091BB00E82FF0E0E45CF14F908369
:103E00008F5F8093F70DBBCF8091F70D803230F438
:103E1000E091F70DF0E0E45CF14F10826091F70D56
:103E2000E0915E0EF0915F0E70E08CE39EE00995EC
:103E30002CC084E08093FB0D1092F90D1092F80DC8
:103E4000E091600EF091610E09958091F80D81115D
:103E500005C081E08093F80D10921C0E8091F90D41
:103E6000E82FF0E0E45EF14F90819093BB008F5F0C
:103E70008093F90D9091F90D8091F80D981708F441
:103E80007ECF85E88093BC000AC085EC8093BC009F
:103E90001092FB0D04C01092F60D0E946E1DFF9152
:103EA000EF91CF91BF91AF919F918F917F916F9142
:103EB0005F914F913F912F910F900BBE0F900FBECE
:103EC0000F901F901895CF92DF92EF92FF926B01A7
:103ED0007C01411134C088E00E945523C701B6011E
:103EE00022E030E040E050E00E944941305F414F25
:103EF0005F4FCA01B901A70196010E944941DA0149
:103F0000C9010197A109B109892F9A2FAB2FBB27AE
:103F1000A7FDBA958093C50021502093C4008091DD
:103F2000C10080618093C1008091C100886080934E
:103F3000C1008091C10080688093C10033C080E1DE
:103F40000E945523C701B60122E030E040E050E076
:103F50000E944941305F414F5F4FCA01B901A7013B
:103F600096010E944941DA01C9010197A109B109ED
:103F7000892F9A2FAB2FBB27A7FDBA958093CD0031
:103F800021502093CC008091C90080618093C900AA
:103F90008091C90088608093C9008091C9008068C1
:103FA0008093C900FF90EF90DF90CF90089581112A
:103FB0000EC088E00E948F238091C1008F7E809385
:103FC000C1008091C100877F8093C100089580E186
:103FD0000E948F238091C9008F7E8093C9008091B9
:103FE000C900877F8093C9000895611107C090912F
:103FF000C00095FFFCCF8093C60008959091C80043
:1040000095FFFCCF8093CE00089581110AC0809166
:10401000680E9091690E9E5F2091660E3091670E3A
:1040200009C08091640E9091650E9E5F2091620E92
:104030003091630E821B930B60E072E00E9413418B
:104040000895811119C08091660E9091670E20919C
:10405000680E3091690E2817390741F1FC01EB5BBE
:10406000FC4E2081019660E072E00E941341909323
:10407000670E8093660E18C08091620E9091630E59
:104080002091640E3091650E2817390779F0FC01F4
:10409000EB5BFE4E2081019660E072E00E941341CE
:1040A0009093630E8093620E30E002C02FEF3FEFDB
:1040B000C9010895811109C01092670E1092660E11
:1040C0001092690E1092680E08951092630E10926D
:1040D000620E1092650E1092640E08951F920F9258
:1040E0000FB60F9211242F933F934F935F936F93CB
:1040F0007F938F939F93AF93BF93EF93E091C6000D
:104100002091680E3091690EC901019660E072E05D
:104110000E9413414091660E5091670E84179507D7
:1041200041F0D901AB5BBC4EEC939093690E809348
:10413000680EEF91BF91AF919F918F917F916F9199
:104140005F914F913F912F910F900FBE0F901F9055
:1041500018951F920F920FB60F9211242F933F9331
:104160004F935F936F937F938F939F93AF93BF937F
:10417000EF93E091CE002091640E3091650EC9015D
:10418000019660E072E00E9413414091620E5091EE
:10419000630E8417950741F0D901AB5BBE4EEC93DB
:1041A0009093650E8093640EEF91BF91AF919F91B4
:1041B0008F917F916F915F914F913F912F910F90D0
:1041C0000FBE0F901F9018950C94F51FCF93C82F1A
:1041D000682F8DE00E94F51F6C2F8AE0CF910C9420
:1041E000F51F1F93CF93DF93162FEC0103C0612FB0
:1041F0000E94F51F89918111FACFDF91CF911F9114
:1042000008954F925F926F927F928F929F92AF929A
:10421000BF92CF92DF92EF92FF920F93CF93DF93F3
:10422000CDB7DEB7A0970FB6F894DEBF0FBECDBFF7
:1042300029013A016115710581059105C9F4602FC5
:1042400080E3A0960FB6F894DEBF0FBECDBFDF911E
:10425000CF910F91FF90EF90DF90CF90BF90AF90F4
:104260009F908F907F906F905F904F900C94F51F70
:10427000EE24E394F12CEC0EFD1E812C912C5401C4
:10428000A30192010E942741F70161937F01FFEF93
:104290008F1A9F0AAF0ABF0AB901CA0161157105D9
:1042A0008105910569F7CC24CA94DC2C7601C80CF1
:1042B000D91CEA1CFB1C14C0E1E0F0E0EC0FFD1F70
:1042C000EC0DFD1D80818A3010F4805D01C0895C99
:1042D000602F0E94F51F81E0C81AD108E108F1089B
:1042E000EFEFCE16DE06EE06FE0631F7A0960FB60D
:1042F000F894DEBF0FBECDBFDF91CF910F91FF903D
:10430000EF90DF90CF90BF90AF909F908F907F9075
:104310006F905F904F900895CF92DF92EF92FF924F
:104320000F936B017C01042F97FF0CC0642F8DE26B
:104330000E94F51FF094E094D094C094C11CD11C4D
:10434000E11CF11C2AE030E040E050E0C701B6017A
:104350000E9401210F91FF90EF90DF90CF90089580
:1043600090917C0020917A00206820937A009F70C1
:10437000981769F090917C008F70907F892B8093C3
:104380007C0061E070E080E090E00E94AE228091CD
:104390007A00806480937A0080917A0086FDFCCF59
:1043A0002091780030917900932F80E0AC01422B6E
:1043B0009A01C90108951F920F920FB60F9211240E
:1043C0000BB60F922F933F934F935F936F937F930F
:1043D0008F939F93AF93BF93EF93FF93F89481E0F4
:1043E00080930A02E0E6F0E080818068808380812B
:1043F0008F7B808360E083E00E94061C7894FF91AD
:10440000EF91BF91AF919F918F917F916F915F914C
:104410004F913F912F910F900BBE0F900FBE0F90B9
:104420001F9018951F920F920FB60F9211248F9321
:104430009F93AF93BF938091451590914615A0919E
:104440004715B09148150196A11DB11D80934515E2
:1044500090934615A0934715B0934815BF91AF911F
:104460009F918F910F900FBE0F901F9018951F92E4
:104470000F920FB60F9211248F939F93AF93BF9318
:104480008091491590914A15A0914B15B0914C150A
:104490000196A11DB11D8093491590934A15A093D3
:1044A0004B15B0934C15BF91AF919F918F910F9089
:1044B0000FBE0F901F9018958F929F92AF92BF9250
:1044C000CF92DF92EF92FF920F931F93CF93DF93E0
:1044D0002FB7F8948091451590914615A0914715F6
:1044E000B09148152FBF9C01AD0160E070E080E005
:1044F00090E001E00E94C4414901D42FC52FB62F9E
:10450000A72FF82FE92F02E00E94C44159016A0148
:104510007B018C0194014D2F5C2F6B2F7A2F8F2FF5
:104520009E2F0E94D341E9E0AE2EB12CC12CD12C9C
:10453000E12CF12C00E010E00E946741952FB901B9
:10454000842FDF91CF911F910F91FF90EF90DF901B
:10455000CF90BF90AF909F908F9008958F929F9231
:10456000AF92BF92CF92DF92EF92FF924B015C012C
:1045700007C00E945C226C157D058E059F0520F406
:104580000E945C226B017C010E945C226C197D09F7
:104590008E099F09681579058A059B0550F3FF90E0
:1045A000EF90DF90CF90BF90AF909F908F90089545
:1045B000BC01049768F080E090E00E94353F26E659
:1045C00036E646EE5FE30E9425400E94093F02C0A6
:1045D000660F771F6150710961F06150710949F0F0
:1045E000FB01EE0FFF1F31978FB7F8943197F1F76A
:1045F0008FBF0895789484B7877F84BF1092451544
:1046000010924615109247151092481584B5826095
:1046100084BD84B5816084BD85B5826085BD85B566
:10462000816085BDEEE6F0E0808181608083E1E815
:10463000F0E0808182608083808181608083E0E817
:10464000F0E0808181608083E1EBF0E08081846034
:104650008083E1E9F0E0808184608083E0EBF0E03A
:10466000808181608083E0E9F0E0808181608083E7
:10467000E4E6F0E080818E7F8083ECE7F0E08081EB
:104680008F778083808180648083EAE7F0E0808197
:104690008460808380818260808380818068808361
:1046A0001092C1001092C900089590916A0E982B43
:1046B00090936A0E80FF32C0809164008E7F809359
:1046C000640080917C008F7780937C0080917C00D7
:1046D000806480937C0080917A00846080937A006B
:1046E00080917A00826080937A0080917A0080685D
:1046F00080937A00809164008F778093640080912A
:1047000064008B7F80936400809164008D7F809330
:104710006400809165008E7F809365000895282F46
:10472000209590916A0E922390936A0E80FF1EC08E
:1047300080917A008F7780937A0080916400816005
:10474000809364008091640080688093640080910D
:104750006400846080936400809164008260809330
:104760006400809165008160809365000895F894ED
:1047700080913F119091401180FF18C086E20E9405
:104780004C1C892B99F0809141118F5F80934111CE
:1047900080914211909143118160909343118093D5
:1047A0004211809137118F5F8093371180913F11B3
:1047B0009091401181FF18C087E20E944C1C892B08
:1047C00099F0809141118F5F809341118091421146
:1047D0009091431182609093431180934211809194
:1047E00038118F5F8093381180913F119091401163
:1047F00083FF1CC088E00E944C1C892BB9F080917B
:1048000041118F5F8093411160E085E00E94061C9A
:10481000809142119091431188609093431180934D
:10482000421180913A118F5F80933A1180913F112C
:104830009091401187FF18C08DE20E944C1C892B7B
:1048400099F0809141118F5F8093411180914211C5
:10485000909143118068909343118093421180910D
:104860003D118F5F80933D1180913F1190914011D8
:1048700090FF18C082E10E944C1C892B99F0809116
:1048800041118F5F809341118091421190914311AA
:104890009160909343118093421180913E118F5FFC
:1048A00080933E1180913F119091401184FF18C078
:1048B00089E00E944C1C892B99F4809141118F5FF3
:1048C00080934111809142119091431180619093A6
:1048D00043118093421180913B118F5F80933B1174
:1048E00078940895E82FF0E0EE0FFF1FE559F14F9F
:1048F00071836083823029F130F4882351F0813054
:1049000009F046C010C0833059F1843009F040C02E
:1049100036C0E898809169008C7F842B8093690071
:10492000E09AE89A0895E99880916900440F551F2C
:10493000440F551F837F842B80936900E19AE99A85
:104940000895EA988091690024E0440F551F2A9544
:10495000E1F78F7C842B80936900E29AEA9A0895AC
:10496000EB988091690096E0440F551F9A95E1F706
:104970008F73842B80936900E39AEB9A0895EC98E7
:1049800080916A008C7F842B80936A00E49AEC9A71
:104990000895F894883018F5833091F020F4813030
:1049A00059F060F407C0863079F0873079F08430B0
:1049B00071F408C0E8980BC0E99809C0EA9807C0EC
:1049C000EB9805C0EC9803C0EE9801C0EF98E82F73
:1049D000F0E0EE0FFF1FE559F14F1182108278943D
:1049E00008951F920F920FB60F9211240BB60F92DB
:1049F0002F933F934F935F936F937F938F939F93E7
:104A0000AF93BF93EF93FF9380916B0E90916C0ED9
:104A1000892B29F0E0916B0EF0916C0E0995FF91B6
:104A2000EF91BF91AF919F918F917F916F915F9126
:104A30004F913F912F910F900BBE0F900FBE0F9093
:104A40001F9018951F920F920FB60F9211240BB65C
:104A50000F922F933F934F935F936F937F938F9317
:104A60009F93AF93BF93EF93FF9380916D0E9091BF
:104A70006E0E892B29F0E0916D0EF0916E0E099566
:104A8000FF91EF91BF91AF919F918F917F916F9126
:104A90005F914F913F912F910F900BBE0F900FBEE2
:104AA0000F901F9018951F920F920FB60F9211241E
:104AB0000BB60F922F933F934F935F936F937F9318
:104AC0008F939F93AF93BF93EF93FF9380916F0E5C
:104AD0009091700E892B29F0E0916F0EF091700E7D
:104AE0000995FF91EF91BF91AF919F918F917F9128
:104AF0006F915F914F913F912F910F900BBE0F904F
:104B00000FBE0F901F9018951F920F920FB60F9225
:104B100011240BB60F922F933F934F935F936F9394
:104B20007F938F939F93AF93BF93EF93FF93809166
:104B3000710E9091720E892B29F0E091710EF09117
:104B4000720E0995FF91EF91BF91AF919F918F9157
:104B50007F916F915F914F913F912F910F900BBE7D
:104B60000F900FBE0F901F9018951F920F920FB6C7
:104B70000F9211240BB60F922F933F934F935F9395
:104B80006F937F938F939F93AF93BF93EF93FF9315
:104B90008091730E9091740E892B29F0E091730E21
:104BA000F091740E0995FF91EF91BF91AF919F9194
:104BB0008F917F916F915F914F913F912F910F90C6
:104BC0000BBE0F900FBE0F901F9018951F920F9263
:104BD0000FB60F9211240BB60F922F933F934F9362
:104BE0005F936F937F938F939F93AF93BF93EF9355
:104BF000FF938091750E9091760E892B29F0E091AC
:104C0000750EF091760E0995FF91EF91BF91AF91DE
:104C10009F918F917F916F915F914F913F912F91D4
:104C20000F900BBE0F900FBE0F901F9018951F9204
:104C30000F920FB60F9211240BB60F922F933F9342
:104C40004F935F936F937F938F939F93AF93BF9394
:104C5000EF93FF938091770E9091780E892B29F036
:104C6000E091770EF091780E0995FF91EF91BF9149
:104C7000AF919F918F917F916F915F914F913F91F4
:104C80002F910F900BBE0F900FBE0F901F90189595
:104C90001F920F920FB60F9211240BB60F922F9303
:104CA0003F934F935F936F937F938F939F93AF93B4
:104CB000BF93EF93FF938091790E90917A0E892B99
:104CC00029F0E091790EF0917A0E0995FF91EF911C
:104CD000BF91AF919F918F917F916F915F914F9114
:104CE0003F912F910F900BBE0F900FBE0F901F9012
:104CF0001895CF92DF92EF92FF926B017C01809129
:104D00003F11909140118C299D29909340118093DF
:104D10003F11C0FE0FC060E08BE20E94ED1B60E01F
:104D200086E20E94ED1B43E050E067EB73E282E015
:104D30000E947224C1FE0FC060E08BE20E94ED1B56
:104D400060E087E20E94ED1B43E050E067EB73E216
:104D500082E00E947224C2FE0FC061E083E00E94E4
:104D6000ED1B61E083E00E94061C42E050E067E535
:104D700077E284E00E947224C3FE0FC060E08BE201
:104D80000E94ED1B60E088E00E94ED1B43E050E0D4
:104D900067EB73E282E00E947224C4FE0BC060E005
:104DA0008BE20E94ED1B43E050E067EB73E282E090
:104DB0000E947224C6FE0FC060E084E00E94ED1BDA
:104DC00060E08CE20E94ED1B42E050E067E577E294
:104DD00083E00E947224C7FE0FC060E08DE20E9453
:104DE000ED1B60E08BE20E94ED1B43E050E067EBBF
:104DF00073E282E00E947224D0FE13C060E08BE276
:104E00000E94ED1B60E082E10E94ED1B43E050E058
:104E100067EB73E282E0FF90EF90DF90CF900C940D
:104E20007224FF90EF90DF90CF900895CF92DF92A1
:104E3000EF92FF926B017C01F89460FF03C082E067
:104E40000E94C924C1FE03C082E00E94C924C2FEA0
:104E500003C084E00E94C924C3FE03C082E00E9414
:104E6000C924C4FE03C082E00E94C924C7FE03C057
:104E700082E00E94C924D0FE03C082E00E94C924BF
:104E8000C6FE03C083E00E94C92480913F11909127
:104E90004011C094D094C822D922D0924011C0921F
:104EA0003F117894FF90EF90DF90CF900895F894A1
:104EB00080913F119091401186FF1EC084E00E94B6
:104EC0004C1C892BC9F4809141118F5F8093411153
:104ED000809142119091431180649093431180938B
:104EE000421180913C118F5F80933C1160E470E02F
:104EF00080E090E00E94162780913F119091401130
:104F000082FF1CC083E00E944C1C892BB9F4809165
:104F100041118F5F80934111809142119091431113
:104F200084609093431180934211809139118F5F77
:104F30008093391161E083E00E94061C7894089503
:104F40001F93CF93DF931F92CDB7DEB7162F61E08B
:104F50008AE149830E94ED1B61E088E10E94ED1B1C
:104F60004981112321F0113009F048C020C04111BE
:104F70000EC061E08AE10E94061C8091331190917D
:104F80003411A0913511B091361182602FC041309B
:104F9000A9F560E08AE10E94061C8091331190918E
:104FA0003411A0913511B09136118D7F1FC0411180
:104FB0000EC061E088E10E94061C8091331190913F
:104FC0003411A0913511B091361181600FC041307C
:104FD000A9F460E088E10E94061C80913311909151
:104FE0003411A0913511B09136118E7F8093331119
:104FF00090933411A0933511B09336110F90DF9137
:10500000CF911F91089580917A00806880937A00F3
:1050100060FF10C061E08AE10E94ED1B61E08AE15F
:105020000E94061C61E088E10E94ED1B61E088E1BE
:105030000C94061C08950F931F93CF93DF9361E0A8
:1050400089E10E94ED1B61E089E10E94061C61E09C
:1050500070E080E090E00E94AE2280E00E94B021EB
:10506000BC01882777FD8095982F0E94373F8B01E0
:10507000D82FC92F20E030E040E054E4FE01712F2A
:105080008F2F9E2F0E94983E87FF06C060E089E127
:105090000E94061CC0E055C020E030EC42E254E41F
:1050A000FE01602F712F8F2F9E2F0E941A4018161D
:1050B00034F460E089E10E94061CC4E642C020E0AE
:1050C00030EC42E254E4FE01602F712F8F2F9E2FAF
:1050D0000E94983E1816ECF020E030EC47E054E4D3
:1050E000FE01602F712F8F2F9E2F0E941A401816DD
:1050F00084F425E535E545E55FE3FE01602F712F7A
:105100008F2F9E2F0E94254020E030E04DED53E48C
:105110000FC020E030E040EA5EE3FE01602F712F17
:105120008F2F9C2F0E94254020E030E040E253E486
:105130000E940B3E0E94093FC62F60E089E10E9459
:10514000061C8C2FDF91CF911F910F91089561E084
:1051500089E20E94ED1B61E088E20E94ED1B85E47C
:1051600090E10C947C2E0F931F93CF93DF93EC016F
:10517000162F61E081E30E94ED1B60E081E30E9455
:10518000061C61E089E20E94ED1B60E089E20E945A
:10519000061C61E088E20E94ED1B60E088E20E944C
:1051A000061C80917A008F7780937A0061E08DE110
:1051B0000E94ED1B60E08DE10E94061C61E08BE126
:1051C0000E94ED1B60E08BE10E94061C61E082E220
:1051D0000E94ED1B60E082E20E94061C012F01701C
:1051E00010FF0EC041E060E08BE79EE00E94A02728
:1051F00041E061E08BE79EE00E94A02710924C10F6
:1052000080E00E94D71F11FF19C061E086E10E9473
:10521000ED1B60E086E10E94061C40913311509125
:10522000341160913511709136114B7F40933311D9
:1052300050933411609335117093361181E00E94C0
:10524000D71F0023A1F08091331190913411A091C8
:105250003511B091361190FD0AC0809133119091B3
:105260003411A0913511B091361191FF72C083E9CC
:1052700090E10E94003161E080E30E94ED1B60E05C
:1052800080E30E94061CCE010E94A72861E089E10C
:105290000E94ED1B60E089E10E94061C40913311E1
:1052A00050913411609135117091361144FF15C041
:1052B00040E060E0CE010E94A02761E08AE00E9409
:1052C000ED1B61E089E00E94ED1B61E08AE00E9435
:1052D000061C61E089E00E94061C809133119091C8
:1052E0003411A0913511B091361186FF04C060E0F1
:1052F00089E00E94061C8091331190913411A09195
:105300003511B091361185FF18C060E084E00E942D
:10531000061C60E082E00E94061C60E087E00E94BC
:10532000061C60E08AE00E94061C60E086E00E94A5
:10533000061C60E08EE00E94061C60E08BE20E948A
:10534000ED1B60E08BE2DF91CF911F910F910C94E8
:10535000061C61E086E00E94ED1B60E086E00E9492
:10536000061C85CF61E08DE20E94ED1B60E08DE2BE
:105370000E94061C87E20E944C1C892B41F083E9A5
:1053800090E10E94B13583E990E10E949B3586E26D
:105390000E944C1C019721F58AE291E10E94F83DA0
:1053A00080912F11823071F018F48130C9F405C05A
:1053B000833069F08430A1F40FC08AE291E10E9449
:1053C000C53D0EC08AE291E10E94233D09C08AE2F8
:1053D00091E10E94B53C04C08AE291E10E947A3CCE
:1053E00060E08BE20E94ED1B60E08BE20C94061CF7
:1053F000FC01128A118E138EDC01A356BE4F89E187
:1054000011968C93119714961C92DF01AE55BE4FE6
:105410001C9212961C92E956FE4F1182108208953A
:105420008DE79EE00C94F82961E08EE10E94ED1B6F
:1054300061E08FE10E94ED1B61E08DE10E94ED1BB8
:1054400060E08EE10E94061C60E08FE10E94061C75
:1054500061E08DE10E94061C8CB580618CBD8CB52D
:1054600080648CBD08958CB58F7B8CBD08958111AF
:1054700003C08CB5806202C08CB58F7D8CBD089551
:105480009CB5937F982B9CBD08952CB5982F937055
:105490002C7F922B9CBD9DB580FB90F99DBD0895FE
:1054A000CF93C62F61E08DE10E94ED1B61E082E2A7
:1054B0000E94ED1B61E08DE10E94061C61E082E22A
:1054C0000E94061C8091331190913411A0913511E6
:1054D000B0913611A2FF08C061E088E00E94ED1B88
:1054E00061E088E00E94061C809133119091341194
:1054F000A0913511B091361196FF08C061E089E0A6
:105500000E94ED1B61E089E00E94061C809133112E
:1055100090913411A0913511B0913611A3FF08C0BC
:1055200061E082E00E94ED1B61E082E00E94061CC7
:105530008091331190913411A0913511B0913611B1
:10554000A4FF08C061E082E20E94ED1B61E082E2FC
:105550000E94061CC330C9F020F4C13061F070F421
:1055600007C0C53061F1F0F0C63009F067C033C044
:1055700060E08DE160C060E082E25DC084E490E1C3
:105580000E94DA2C60E08CE256C080913311909139
:105590003411A0913511B0913611A2FF4FC060E0D7
:1055A00088E049C08091331190913411A091351158
:1055B000B091361196FF42C060E089E03CC0809116
:1055C000331190913411A0913511B0913611A3FF90
:1055D00035C060E02FC061E08DE10E94061C61E0F3
:1055E00082E20E94061C8091331190913411A091A7
:1055F0003511B0913611A2FF04C061E088E00E942D
:10560000061C8091331190913411A0913511B09105
:10561000361196FF04C061E089E00E94061C80916B
:10562000331190913411A0913511B0913611A3FF2F
:1056300005C061E082E0CF910C94061CCF910895E3
:1056400010923A101092391010923B1010923C10A8
:1056500010923D1010923E100895FC01408160E0D0
:1056600072EC81E090E00E94631F61E087E10E949C
:10567000ED1B61E087E10E94061C61E08BE00E9467
:10568000ED1B60E08BE00E94061C61E08DE20E9451
:10569000ED1B60E08DE20C94061CFC0180810E94F1
:1056A000D71F61E087E10E94061C61E08BE00E9449
:1056B000061C61E08DE20E94ED1B60E08DE20C941F
:1056C000061CDC018091C50011968C931197809186
:1056D000C40012968C931297E2ECF0E0808113964E
:1056E0008C9313978091CA0014968C9314978081A1
:1056F0008F7D808380818F7E80838081877F808380
:105700004C9160E072EC81E090E00E94631F61E0E8
:1057100087E10E94061C60E08BE00C94061CCF938E
:10572000DF93EC01409133115091341160913511A8
:105730007091361163E070E080E090E042FF07C0B6
:105740000E94AE2261E08BE00E94061C02C00E9413
:10575000AE2289818093C5008A818093C4008B81A9
:105760008093C2008C818093CA00DF91CF9108950D
:10577000EF92FF920F931F93CF93DF938C01EB0176
:105780000E94612B7E0188E1E81A8CEFF80AFE0185
:1057900021968491882339F0F80160810E94E420E9
:1057A000CE15DF05A1F7C8010E948F2B60E070E0E5
:1057B000CB01DF91CF911F910F91FF90EF90089552
:1057C000AF92BF92DF92EF92FF920F931F93CF930E
:1057D000DF93EC01142FD52E7B0159010E94612B20
:1057E000A114B10429F46881812F0E94E42016C01D
:1057F0008AE0A816B10439F44881612F7D2DC701D4
:105800000E948C210BC09501442737FD4095542FF1
:105810000881612F7D2DC7010E94012188810E948E
:10582000E620CE01DF91CF911F910F91FF90EF9075
:10583000DF90BF90AF900C948F2B0F931F93CF935B
:10584000DF93EC018B010E94612B6881C8010E94EB
:10585000F12088810E94E620CE01DF91CF911F9137
:105860000F910C948F2BCF93DF93EC010E94612B4F
:1058700088810E94E620CE01DF91CF910C948F2B7E
:10588000EF92FF920F931F93CF93DF9300D0CDB78A
:10589000DEB77C010E94B82B8C01C70169837A8333
:1058A0000E94332C69817A81C8010F900F90DF919B
:1058B000CF911F910F91FF90EF900895CF92DF92BB
:1058C000EF92FF920F93CF93DF93EC016A017B017C
:1058D0000E94612BF7FE0CC068818DE20E94E420DB
:1058E000F094E094D094C094C11CD11CE11CF11C34
:1058F00008812AE030E040E050E0C701B6010E9494
:105900000121CE01DF91CF910F91FF90EF90DF90B9
:10591000CF900C948F2BAB01662757FD6095762FA7
:105920000C945E2C10923F1008951F93CF93DF9339
:105930001F92CDB7DEB7162F61E0812F49830E94F9
:10594000ED1B4981413011F461E003C0411108C0F1
:1059500060E0812F0F90DF91CF911F910C94061C76
:105960000F90DF91CF911F9108951F93CF93DF93F5
:105970001F92CDB7DEB7162F61E087E149830E9401
:10598000ED1B61E084E20E94ED1B61E085E20E9474
:10599000ED1B61E087E10E94061C612F84E20E94FA
:1059A000061C4981642F85E20F90DF91CF911F91F2
:1059B0000C94061C61E087E10E94ED1B61E084E22B
:1059C0000E94ED1B61E085E20E94ED1B61E087E132
:1059D0000E94061C61E084E20E94061C61E085E2F0
:1059E0000C94061C61E087E10E94ED1B61E08BE0F6
:1059F0000E94ED1B60E087E10E94061C60E08BE0E6
:105A00000E94061C60E084E20E94061C60E085E2C1
:105A10000C94061CCB010C94FD478F929F92AF9281
:105A2000BF92CF92DF92EF92FF920F931F93CF938B
:105A3000DF93CDB7DEB7C75FD1090FB6F894DEBFED
:105A40000FBECDBF8E0100511F4F580128E0A20E9E
:105A5000B11C7E0181E8E80EF11CCC24C394D12C4A
:105A6000CC0EDD1E6DE0CE018F519F4F0E94BE3BDC
:105A700040E06CE084E490E10E94952C40E06DE011
:105A800084E490E10E94952CF80110821182128228
:105A9000138261E08CE00E94ED1B61E08CE00E94CB
:105AA000061CCE018F519F4F0E949E3A41E06DE04F
:105AB00084E490E10E94952C6AE070E080E090E040
:105AC0000E94AE2240E063E3CE018F519F4F0E94BF
:105AD0006F3B62E370E080E090E00E94AE224701FD
