:100000000C9471030C9455230C9486230C94B72301
:100010000C94E8230C9419240C944A240C947B240B
:100020000C94AC240C94A0030C94A0030C94A00397
:100030000C9404260C94A0030C94A0030C9460264A
:100040000C94A0030C94A0030C94A0030C94A003A4
:100050000C94A0030C94A0030C94A0030C943B26D6
:100060000C94A0030C9452290C94A0030C94A003AC
:100070000C94A0030C94A0030C94A0030C94A00374
:100080000C94A0030C94A0030C94A0030C94A00364
:100090000C948D290C94A0030C94A0030C94EB20D9
:1000A0000C94A0030C94A0030C94A0030C94A00344
:1000B0000C94A0030C94A0030C94A0030C94A00334
:1000C0000C94A0030C94A0030C94A003084AD73B03
:1000D0003BCE016E84BCBFFDC12F3D6C74319ABD17
:1000E00056833DDA3D00C77F11BED9E4BB4C3E913B
:1000F0006BAAAABE000000803F07634236B79BD8B8
:10010000A71A39685618AEBAAB558C1D3CB7CC57F8
:1001100063BD6DEDFD753EF6177231BF00000080C6
:100120003F08000000BE922449123EABAAAA2ABE94
:10013000CDCCCC4C3E00000080BEABAAAAAA3E00AB
:10014000000000BF000000803F00000000000841E8
:1001500078D3BB4387D1133D190E3CC3BD4282AD5A
:100160002B3E68EC8276BED98FE1A93E4C80EFFF32
:10017000BE01C4FF7F3F0000000000536574746936
:100180006E67204368616E6E656C20746F0927315D
:1001900037270909207374617465200053657474EE
:1001A000696E67204865616465722020746F092755
:1001B0003127200909207374617465200053657428
:1001C00074696E67204D6F646520202020746F096C
:1001D00027332709092073746174652000536574FF
:1001E00074696E67204352432020202020746F09D9
:1001F0002731272009092073746174652000536535
:100200007474696E67205061636B657420746F202D
:10021000273139272E090920737461746520005332
:10022000657474696E6720506F7765722020207442
:100230006F09274C27200909207374617465200019
:1002400053657474696E6720494420202020202063
:10025000746F09000909207374617465200009092D
:10026000204C6F52613A204368616E6E656C20418C
:100270006374697669747920446574656374656430
:10028000000909204C6F52613A2064617461526523
:100290007175657374005061636B65742052656994
:1002A00063656976656420000909204C6F52613AE4
:1002B00020524543454956452073746174652000BA
:1002C000090920204C6F52613A2073656E644461C5
:1002D0007461000909204C6F52613A205061636BD0
:1002E00065742073656E74000909204C6F52613A81
:1002F0002053656E64696E67206661696C65643A57
:100300002000090909204C6F52613A20536574742A
:10031000696E677320646F6E65000909204C6F5227
:10032000613A205761697420466F72204465657098
:10033000536C65657020636F6D6D616E64000909B3
:100340002044656570536C65657020636F6D6D61E9
:100350006E64207265636569766564000909204CE6
:100360006F52613A2044656570536C656570206317
:100370006F6D6D616E64204E4F54207265636569C8
:10038000766564004143433170697463680041439A
:100390004331726F6C6C004143433270697463681F
:1003A0005F0041434332726F6C6C5F0041434333E3
:1003B00070697463685F0041434333726F6C6C5FB4
:1003C00000504F545F200054656D70315F20005421
:1003D000656D70325F0054656D70335F00457272F9
:1003E0006F7220726561642073656E736F72730043
:1003F000493243206572726F72004B045F048504BA
:10040000AC04CC04E404F204020517052D053E05F6
:100410004A0551056E058C05A205B005C005E3052A
:10042000E90557726F6E672074696D6520666F729B
:100430006D61742E204D7573742062652022646492
:100440003A68683A6D6D3A73732200416C61726D5F
:10045000204D6F6465206D61746368657320005B77
:10046000446179203A20686F757273203A206D6973
:100470006E75746573203A207365636F6E64735D87
:10048000202D3E20005B44617465203A20686F7522
:100490007273203A206D696E75746573203A20730B
:1004A00065636F6E64735D202D3E20005B486F7541
:1004B0007273203A206D696E75746573203A2073EB
:1004C00065636F6E64735D202D3E20005B4D696E29
:1004D00075746573203A207365636F6E64735D2075
:1004E0002D3E20005B5365636F6E64735D202D3E6F
:1004F00020004F6E636520706572207365636F6EB8
:100500006400496E636F727265637420616C61721E
:100510006D206D6F6465005B253032753A25303291
:10052000753A253032753A253032755D005B2530DD
:1005300032753A253032753A253032755D005B25CB
:100540003032753A253032755D005B253032755D8D
:10055000005B446179203A20686F757273203A20FD
:100560006D696E75746573205D202D3E20005B44BF
:10057000617465203A20686F757273203A206D6946
:100580006E75746573205D202D3E20005B486F758D
:100590007273203A206D696E757465735D202D3E0F
:1005A00020005B4D696E757465735D202D3E2000E3
:1005B0004F6E636520706572206D696E757465009D
:1005C00025732C20253032752F253032752F25309C
:1005D00032752C20253032753A253032753A253067
:1005E0003275006572726F72002530327525632591
:1005F00030327525632530327525632530327525F7
:1006000063253032752563253032752563253032F8
:100610007500000008090000000000000000000054
:1006200000000000000000000000000000000000CA
:1006300000000000000000000000000000000000BA
:100640000000000000010208101020408004081083
:100650002040020204081020408001028020400453
:10066000200101020408102001408040800102089E
:1006700004088004100402010505050503030303B3
:100680000101010404030606060606060606010427
:100690000501050103020202020202010202050530
:1006A0000404030404010304070707002023262988
:1006B0002C2F32002225282B2E3134002124272AEA
:1006C0002D30336364696E6F70737578585B00000A
:1006D000AE03330ADC1E633780374D39333B693F45
:1006E0009C4111241FBECFEFD1E2DEBFCDBF19E088
:1006F000A0E0B2E0E0EAFEE900E00BBF02C0079034
:100700000D92AA35B107D9F717E1AAE5B9E001C002
:100710001D92A437B107E1F716E0C2EED6E000E083
:1007200006C022970109FE010BBF0E944248C03D4E
:10073000D10780E00807A9F70E94B92A0C944E4F10
:100740000C9400008DEF92E10E945A398AE599E0FD
:100750000C9453068AE599E00C947E068AE599E0AC
:100760000C943E04089561E082E00C94242860E03B
:1007700082E00C94242861E088E00C94242860E056
:1007800088E00C942428CF93DF93EC0161E082E0B1
:100790000E940B2861E088E00E940B28CE010E9495
:1007A000B703CE01DF91CF910C94BF03CF93DF93BA
:1007B000EC010E94B3036CE271E080E090E00E94E3
:1007C000D726CE01DF91CF910C94B7031F93CF931F
:1007D000DF93EC0114E0CE010E94D6036CEB72E0D3
:1007E00080E090E00E94D7261150A9F7DF91CF91C9
:1007F0001F9108951F93CF93DF93EC01603570F044
:100800000E94BB0368E873E180E090E00E94D72675
:10081000CE01DF91CF911F910C94BF0315E0683298
:10082000A8F0CE010E94BB0364EF71E080E090E08D
:100830000E94D726CE010E94BF0364EF71E080E0E2
:1008400090E00E94D726115061F714C0CE010E949B
:10085000BB0364E670E080E090E00E94D726CE0102
:100860000E94BF0364E873E080E090E00E94D72616
:10087000115061F7DF91CF911F9108950F931F934E
:10088000CF93DF93CDB7DEB72A970FB6F894DEBFCC
:100890000FBECDBF8C01FC01178EBC0180960E945B
:1008A000FF06C801CE960E94320CC8018E5B9F4F96
:1008B0000E943C0CC801885B9F4F0E94B203CE018E
:1008C00001960E943C0CCE0107960E94320C2A969B
:1008D0000FB6F894DEBF0FBECDBFDF91CF911F9151
:1008E0000F910895FF920F931F93CF93DF93EC0125
:1008F0008C010E5B1F4FBC01C8010E947E0DF82EBB
:1009000089AD898BC8010E94230ECE0180960E947A
:1009100015088F2DDF91CF911F910F91FF900895B2
:10092000CF93DF93EC0180910A0290910B0281300A
:10093000910531F082309105E1F0892B81F12AC1D6
:100940006CE271E080E090E00E94D726CE018096B4
:100950000E94620881111EC182E090E090930B0218
:1009600080930A026FE072E08DEF92E10E94713A8B
:1009700011C1CE0180960E94720881110BC11092A4
:100980000B0210920A0263E272E08DEF92E10E9484
:10099000713ACE01885B9F4F0E94B303FBC0CE012A
:1009A00080960E94AA08811170C06AE372E08DEF00
:1009B00092E10E94713A81E090E090930B02809363
:1009C0000A022091AB093091AC094091AD095091D8
:1009D000AE096091AF097091B0098091B109909111
:1009E000B209A1E00E942A482093AB093093AC09D8
:1009F0004093AD095093AE096093AF097093B0096D
:100A00008093B1099093B20962E572E08DEF92E1B3
:100A10000E94713A6CE872E08DEF92E10E94713AA7
:100A200066E972E08DEF92E10E94203B4091AB09B4
:100A30005091AC096091AD097091AE092AE030E0A7
:100A40008DEF92E10E940D3A69EB72E08DEF92E139
:100A50000E94203B4091A3095091A4096091A509EF
:100A60007091A6092AE030E08DEF92E10E940D3AE4
:100A700062E572E08DEF92E10E94713ACE01885BEF
:100A80009F4F0E94E60380E087C02091B309309118
:100A9000B4094091B5095091B6096091B7097091B8
:100AA000B8098091B9099091BA09A1E00E942A4839
:100AB0002093B3093093B4094093B5095093B60914
:100AC0006093B7097093B8098093B9099093BA09F4
:100AD00067EB72E08DEF92E10E94203B4091A30909
:100AE0005091A4096091A5097091A6092AE030E00F
:100AF0008DEF92E10E940D3A2091B3093091B40933
:100B00004091B5095091B6096091B7097091B80943
:100B10008091B9099091BA09A1E00E943648D9F1B3
:100B2000D0F11092B3091092B4091092B509109245
:100B3000B6091092B7091092B8091092B90910922B
:100B4000BA092091A3093091A4094091A5095091B7
:100B5000A6096091A7097091A8098091A9099091AF
:100B6000AA090E942A482093A3093093A40940931C
:100B7000A5095093A6096093A7097093A8098093CB
:100B8000A9099093AA0982E090E090930B028093C8
:100B90000A0201C001C081E0DF91CF9108950F9357
:100BA0008E5B9F4F0E94A70C40E06CE082E093E1D7
:100BB0000E94363B40E06DE082E093E10E94363BCC
:100BC00002E020E040E066ED72E086EA90E10E94FB
:100BD0002D2E8091691390916A1381FF09C0809135
:100BE000691390916A138D7F90936A1380936913B0
:100BF0000F9108952091BB093091BC092115310551
:100C000021F02130310501F512C080960E94620862
:100C100081111AC081E090E09093BC098093BB09D8
:100C20006FE072E08DEF92E10E94713A0DC0809604
:100C30000E94A909811109C062EE72E08DEF92E174
:100C40000E94713A80E00895089581E00895CF935D
:100C5000DF93EC018E5B9F4F0E94C20CCE01809609
:100C6000DF91CF910C94DC08CF938DEF92E10E943D
:100C70007A3961E086E00E94242868EC70E080E028
:100C800090E00E94D72686EA90E10E94502CC82F5F
:100C900060E086E00E9424288DEF92E10E945A399C
:100CA0008C2FCF9108950F931F93CF93DF93EC0177
:100CB0008C01085B1F4FC8010E94C30360E089E0FC
:100CC0000E940B2860E087E00E940B2861E086E02C
:100CD0000E940B28CE010E943406682FC8010E9492
:100CE000FA03CE018E5B9F4F0E946F0CCE0180965F
:100CF000DF91CF911F910F910C941107CF93DF9348
:100D0000EC0120910C0230910D022230310541F1AD
:100D10004CF42115310509F456C02130310509F094
:100D20006BC008C023303105C1F12430310509F012
:100D300063C02CC08DEF92E10E94873A60EF72E0B1
:100D40008DEF92E10E94713A8DEF92E10E94873A15
:100D5000CE010E94720481114FC082E090E048C031
:100D60008DEF92E10E94873A63E073E08DEF92E1AC
:100D70000E94713A8DEF92E10E94873ACE010E9463
:100D80009004811139C084E090E032C00E94FA05DD
:100D9000811132C083E090E02BC08DEF92E10E9480
:100DA000873A6CE173E08DEF92E10E94713A8DEF2A
:100DB00092E10E94873ACE010E94CF0510920D0267
:100DC00010920C0219C08DEF92E10E94873A6DE2F9
:100DD00073E08DEF92E10E94713A8DEF92E10E94F3
:100DE000873ACE010E942706811106C081E090E07B
:100DF00090930D0280930C02DF91CF910895FC0136
:100E000081E0858B92E0968B178A118E94E6928F03
:100E1000748B638B858F838F83E0808F88E4848FCE
:100E200008951F93CF93DF93EC018DEF92E10E9421
:100E30005A3989EF9CE00E94961640E050E069ED37
:100E400070E089EF9CE00E94051511E0811101C05E
:100E500010E01F8A6BE771E08DEF92E10E94E539A7
:100E6000612F70E08DEF92E10E944A3A111109C0A2
:100E700089EF9CE00E94C70F11E0811103C010E0D0
:100E800001C011E081E08B8F6CE971E08DEF92E1A0
:100E90000E94E539612F70E08DEF92E10E944A3A9D
:100EA00011110AC063E089EF9CE00E94CA1211E0B0
:100EB000811103C010E001C011E083E0888F6DEB69
:100EC00071E08DEF92E10E94E539612F70E08DEFC6
:100ED00092E10E944A3A111109C089EF9CE00E94F8
:100EE0000F1011E0811103C010E001C011E081E09A
:100EF0008D8F6DED71E08DEF92E10E94E539612FEC
:100F000070E08DEF92E10E944A3A11110AC063E14C
:100F100089EF9CE00E94B81511E0811103C010E038
:100F200001C011E083E18A8F6EEF71E08DEF92E1F5
:100F30000E94E539612F70E08DEF92E10E944A3AFC
:100F400011110AC06CE489EF9CE00E947E1511E04B
:100F5000811103C010E001C011E08CE48C8F6FE1BF
:100F600072E08DEF92E10E94E539612F70E08DEF24
:100F700092E10E944A3A60E074E082E093E10E94CC
:100F8000863B898F11110AC0682F89EF9CE00E946F
:100F9000F71511E0811103C010E001C011E060E419
:100FA00072E08DEF92E10E94E539498D50E060E0FA
:100FB00070E02AE030E08DEF92E10E94B23A64E501
:100FC00072E08DEF92E10E94E53965E089EF9CE0E7
:100FD0000E94651688EA90E10E9497336AE473E004
:100FE00088EA90E10E945D34612F70E08DEF92E11C
:100FF0000E944A3A11110EC06EE573E08DEF92E146
:101000000E94713A41E06CE082E093E10E94363B3D
:1010100080E007C061E773E08DEF92E10E94713AD2
:1010200081E0DF91CF911F910895FC01A389B489DC
:1010300011968C91119780838C91818315968C9158
:101040001597828314968C911497838319968C91AB
:101050001997848318968C911897858313968C9191
:101060001397868312968C911297878317968C918B
:101070001797808716968C91169781871B968C916F
:101080001B9782871A968C911A97838750968C911A
:10109000509784871F968C911F97858752968C91C5
:1010A000529786871C968C911C9787871D968C91EA
:1010B0001D97808B1E968C911E97818B51968C91DB
:1010C000828B089589EF9CE00E949C1E882341F04A
:1010D0006EE572E08DEF92E10E94943A80E008950F
:1010E00081E008951F93CF93DF93EC0161E872E0F4
:1010F0008DEF92E10E94943A40E157E260E070E0A7
:1011000089EF9CE00E94571C182F9091190E8D8931
:1011100098131CC0111108C066E972E08DEF92E1CE
:101120000E94943A80E012C068EA72E08DEF92E18A
:101130000E94E539412F50E060E070E02AE030E0A5
:101140008DEF92E10E940D3A81E000C0DF91CF91D6
:101150001F910895CF93DF93EC0160EC72E08DEF67
:1011600092E10E94943A23E130E0AE0162E089EF1F
:101170009CE00E94AB1D8093BE09811108C063ED05
:1011800072E08DEF92E10E94943A80E012C068EE26
:1011900072E08DEF92E10E94E5394091BE0950E086
:1011A00060E070E02AE030E08DEF92E10E940D3ABD
:1011B00081E0DF91CF9108950F931F93CF93DF9339
:1011C000EC018DEF92E10E945A3989EF9CE00E9478
:1011D000961668EE73E080E090E00E94D72640E02B
:1011E00050E069ED70E089EF9CE00E94051501E098
:1011F000811101C000E0102F66E873E08DEF92E1ED
:101200000E94203B602F70E08DEF92E10E944A3AED
:101210008B8D813061F4011109C089EF9CE00E943F
:10122000C70F11E0811103C010E001C011E08B8DE8
:1012300081110CC0111109C089EF9CE00E94EF0FD1
:1012400011E0811103C010E001C011E011110AC0CA
:10125000688D89EF9CE00E94CA1291E0811103C061
:1012600090E001C091E0892F2D8D213069F491111A
:1012700009C089EF9CE00E940F1091E0811103C02A
:1012800090E001C091E0892F9D8D91110DC08111D9
:1012900009C089EF9CE00E94401091E0811103C0D9
:1012A00090E001C091E0892F811142C06A8D89EFE1
:1012B0009CE00E94B81581113BC033C065E089EF06
:1012C0009CE00E94651688EA90E10E9497336AE4E8
:1012D00073E088EA90E10E945D34C11114C041E0DE
:1012E0006CE082E093E10E94363B41E06DE082E0F9
:1012F00093E10E94363B62E073E08DEF92E10E9441
:10130000943A80E021C065EA73E08DEF92E10E949B
:10131000203B61E070E08DEF92E10E944A3A81E06B
:1013200013C06C8D89EF9CE00E947E15882311F01C
:10133000C1E0C4CF698D89EF9CE00E94F715C1E040
:101340008111BCCFC0E0BACFDF91CF911F910F9137
:101350000895CF93DF93EC016AE173E08DEF92E1A2
:101360000E94943A40E157E260E070E089EF9CE02F
:101370000E94571C8093BD0989EF9CE00E94D11DFB
:101380009091190E8E8998131FC08091BD0981110B
:1013900008C06EE373E08DEF92E10E94943A80E022
:1013A00013C06CE573E08DEF92E10E94E539409146
:1013B000BD0950E060E070E02AE030E08DEF92E19E
:1013C0000E940D3A81E000C0DF91CF910895CF9344
:1013D000DF93FC01E753FF4F21E02083FC01E5533D
:1013E000FF4F40E052EC61E070E040835183628344
:1013F0007383FC01E653FF4F2083DC011C92FC0148
:10140000EA50FF4F1082BC0163577F4F24E1EB018C
:10141000E22F1992EA95E9F7AF55BF4FED01E22FA0
:101420001992EA95E9F7EC01CB54DF4FFE011192D6
:101430002A95E9F721E630E74EE6FB012083318368
:10144000428325E0EDEBF3E001900D922A95E1F760
:1014500028E0E3ECF3E0DE0101900D922A95E1F73C
:10146000DF91CF9108958FEB99E00C94E7090895EF
:10147000EF92FF920F93CF93DF93CDB7DEB727970D
:101480000FB6F894DEBF0FBECDBF7B0107E09E0113
:101490002F5F3F4F40E0FC01608183E093E10E94B9
:1014A0008E3E873009F59A8180E02B81822B9595BD
:1014B000879595958795F701918380839C8180E03E
:1014C0002D81822B9595879595958795938382831A
:1014D0009E8180E02F81822B9595879595958795A4
:1014E0009583848380E001C081E027960FB6F8944D
:1014F000DEBF0FBECDBFDF91CF910F91FF90EF9078
:101500000895EF92FF920F93CF93DF93CDB7DEB79D
:1015100027970FB6F894DEBF0FBECDBF7C016130B8
:1015200041F028F0623039F0633051F406C08EE1AA
:1015300005C08DE103C08CE101C08FE1F70180831C
:101540001F8201E09E01295F3F4F4AE2F70160815F
:1015500083E093E10E94493E1F829E01295F3F4F35
:101560004EE0F701608183E093E10E94493E89E308
:101570008F839E01295F3F4F4AE2F701608183E03C
:1015800093E10E94493E82E18F839E01295F3F4F94
:101590004BE2F701608183E093E10E94493E83E0E2
:1015A0008F839E01295F3F4F4CE2F701608183E00A
:1015B00093E10E94493EBE016F5F7F4FC7010E94C9
:1015C000380A27960FB6F894DEBF0FBECDBFDF9165
:1015D000CF910F91FF90EF9008952F923F924F92ED
:1015E0005F926F927F928F929F92AF92BF92CF92B3
:1015F000DF92EF92FF920F931F93CF93DF93CDB7BC
:10160000DEB729970FB6F894DEBF0FBECDBF79873E
:10161000688707E09E012F5F3F4F40E0FC0160813B
:1016200083E093E10E948E3E873009F0EAC07A8120
:1016300060E08B81682B7595679575956795882710
:1016400077FD8095982F0E94284420E43AED4FE7DB
:1016500059E30E9448452B013C017C8160E08D816B
:10166000682B7595679575956795882777FD8095A3
:10167000982F0E94284420E43AED4FE759E30E9456
:1016800048454B018C017E8160E08F81682B759508
:10169000679575956795882777FD8095982F0E94A7
:1016A000284420E43AED4FE759E30E944845262FAD
:1016B000372F482F592F0E9448451B015C01282DC8
:1016C000392D402F512F682D792D802F912F0E9479
:1016D0004845222D332D4A2D5B2D0E94EA420E945F
:1016E000FB459B01AC01642D752D862D972D0E9425
:1016F0008D430E944E436B017C01242D352D462DD8
:10170000572D642D752D862D972D0E944845222D2D
:10171000332D4A2D5B2D0E94EA420E94FB459B011E
:10172000AC01682D792D802F912F0E948D430E944E
:101730004E434B015C0121EE3EE245E652E4C70117
:10174000B6010E94484520E030E048EC52E40E9497
:10175000484520E030E040E05FE30E94EA420E941A
:10176000F543882777FD8095982F0E9428442B0108
:101770003C0121EE3EE245E652E4C501B4010E947F
:10178000484520E030E048EC52E40E94484520E023
:1017900030E040E05FE30E94EA420E94F543882780
:1017A00077FD8095982F0E9428446B017C0120E0F2
:1017B00030E048EC52E4C301B2010E948D4320E0C6
:1017C00030E048EC52E40E9448450E94F543E88529
:1017D000F9857183608320E030E048EC52E4C70172
:1017E000B6010E948D4320E030E048EC52E40E94B4
:1017F00048450E94F543E885F9857383628380E05C
:1018000001C081E029960FB6F894DEBF0FBECDBFB0
:10181000DF91CF911F910F91FF90EF90DF90CF90CC
:10182000BF90AF909F908F907F906F905F904F9000
:101830003F902F9008950F93CF93DF931F92CDB7D2
:10184000DEB7198201E09E012F5F3F4F4AE2FC01A3
:10185000608183E093E10E94493E0F90DF91CF9138
:101860000F9108952EE237E0FC013183208323E3BA
:1018700037E03383228308950F931F93CF93DF9331
:1018800000D01F92CDB7DEB78C010E94370AC80185
:1018900001960E94370AC80102960E94370AC801C1
:1018A00003960E94E01EC80104960E94E01EC80133
:1018B00005960E94E01ECE0103960E94370ACE01D3
:1018C00002960E94370ACE0101960E94370A0F90B5
:1018D0000F900F90DF91CF911F910F910895CF93AB
:1018E000DF93EC0160E087E00E940B2840E060E0BD
:1018F00086EA90E10E94D52B60ED77E080E090E0F1
:101900000E94D72660E0CE010E94810A61E0CE01EC
:1019100001960E94810A62E0CE0102960E94810A2D
:1019200060E0CE0103960E94E11E61E0CE010496C4
:101930000E94E11E62E0CE0105960E94E11E68EE63
:1019400073E080E090E0DF91CF910C94D726CF93A5
:10195000DF93EC010E941B0CCE0101960E941B0C30
:10196000CE0102960E941B0CCE0103960E94321FEC
:10197000CE0104960E94321FCE010596DF91CF91D1
:101980000C94321F0C946F0CEF92FF920F931F93E5
:10199000CF93DF93FA0180E090E07B0121E0E21A2F
:1019A000F1081AC00196DF019C0112C012960D9138
:1019B0001C911397C081D1810C171D0734F411833A
:1019C00000831396DC93CE9312972F5F3F4F1296AE
:1019D0002617370759F732968E159F051CF360FDC1
:1019E00027C077FF02C06F5F7F4FFB01F595E7953A
:1019F000DF01AA0FBB1FA40FB51F3197EE0FFF1F0A
:101A0000E40FF51F6D917C9180819181680F791FA2
:101A1000882777FD8095982F0E94284420E030E0A9
:101A200040E05FE30E9448450E94F543CB010AC0B5
:101A300077FF02C06F5F7F4FFB01EE7FE40FF51F62
:101A400080819181DF91CF911F910F91FF90EF9055
:101A50000895AF92BF92CF92DF92EF92FF920F93D1
:101A60001F93CF93DF93CDB7DEB7EC970FB6F89403
:101A7000DEBF0FBECDBF6C018B01EE24E394F12CD1
:101A8000EC0EFD1E5E018DE3A80EB11C87E00E94E6
:101A9000E027F701819391937F01EA15FB05B1F7E8
:101AA000AE014F5F5F4F6EE170E0C6010E94C40C53
:101AB0006FEF73E0681B790B882777FD8095982F6F
:101AC0000E94284424EB38EC4EE350E40E94484541
:101AD0000E94F543F80171836083EC960FB6F89489
:101AE000DEBF0FBECDBFDF91CF911F910F91FF9051
:101AF000EF90DF90CF90BF90AF900895DF92EF927C
:101B0000FF920F931F93CF93DF93CDB7DEB7279745
:101B10000FB6F894DEBF0FBECDBF7C018B01BE01B6
:101B20006F5F7F4F0E94ED0A81110BC089819A81FE
:101B3000AB81BC81F80180839183A283B383D12CD4
:101B400002C0DD24D394BE016F5F7F4FC7010196B1
:101B50000E94ED0A81110AC089819A81AB81BC8102
:101B6000F80184839583A683B78302C0DD24D394D0
:101B7000BE016F5F7F4FC70102960E94ED0A81117F
:101B80000AC049815A816B817C81F8014087518765
:101B90006287738702C0DD24D394BE016B5F7F4FE1
:101BA000C7010E94290D8D819E81F801908B878746
:101BB00086EA90E10E94502CF801828BBE01695F99
:101BC0007F4FC70103960E94081F811104C08F81B7
:101BD000F801848702C062E0D62EBE01695F7F4FA4
:101BE000C70104960E94081F811104C08F81F8016B
:101BF000858702C052E0D52EBE01695F7F4FC701C5
:101C000005960E94081F811104C08F81F801868704
:101C100002C042E0D42EED2DE150E23028F4F0E095
:101C2000E45CF74F808101C080E027960FB6F894FE
:101C3000DEBF0FBECDBFDF91CF911F910F91FF90FF
:101C4000EF90DF900895CF93DF93CDB7DEB7639722
:101C50000FB6F894DEBF0FBECDBFBE016F5F7F4FE2
:101C60000E947E0D8111BBC064E873E08DEF92E1AC
:101C70000E94E53969817A818DEF92E10E94193BDA
:101C800069E674E08DEF92E10E94713A6EE873E0CC
:101C90008DEF92E10E94E5396B817C818DEF92E1BD
:101CA0000E94193B69E674E08DEF92E10E94713A5F
:101CB00067E973E08DEF92E10E94E5396D817E81E5
:101CC0008DEF92E10E94193B69E674E08DEF92E19D
:101CD0000E94713A62EA73E08DEF92E10E94E53969
:101CE0006F8178858DEF92E10E94193B69E674E07F
:101CF0008DEF92E10E94713A6CEA73E08DEF92E110
:101D00000E94E53969857A858DEF92E10E94193B41
:101D100069E674E08DEF92E10E94713A67EB73E03F
:101D20008DEF92E10E94E5396B857C858DEF92E124
:101D30000E94193B69E674E08DEF92E10E94713ACE
:101D400061EC73E08DEF92E10E94E5396889798951
:101D50008DEF92E10E94193B69E674E08DEF92E10C
:101D60000E94713A67EC73E08DEF92E10E94E539D1
:101D70006D85772767FD70958DEF92E10E94193B85
:101D800069E674E08DEF92E10E94713A6FEC73E0C6
:101D90008DEF92E10E94E5396E85772767FD70959A
:101DA0008DEF92E10E94193B69E674E08DEF92E1BC
:101DB0000E94713A66ED73E08DEF92E10E94E53981
:101DC0006F85772767FD70958DEF92E10E94193B33
:101DD00069E674E08DEF92E10E94713A06C06DED04
:101DE00073E08DEF92E10E94943A63960FB6F894F7
:101DF000DEBF0FBECDBFDF91CF910895FC011182F0
:101E000081E0828387E0838340E050EC64EE70E001
:101E10004483558366837783128A148A138E8FE0F6
:101E20008087168A178A108E83E0818FE55EFE4FC9
:101E3000108280915A1390915B13A0915C13B09122
:101E40005D13A26080935A1390935B13A0935C136D
:101E5000B0935D130895CF93C62F66E087EF92E1AC
:101E60000E94C03761E087EF92E10E94C03761E0D5
:101E700070E080E090E00E94D7268C2F8F770E9440
:101E80003C3980E0CF910C943C391F93CF93DF9382
:101E90001F92CDB7DEB7162F66E087EF92E1498338
:101EA0000E94C03761E087EF92E10E94C03761E095
:101EB00070E080E090E00E94D726812F80680E9429
:101EC0003C394981842F0E943C3966E087EF92E1DA
:101ED0000F90DF91CF911F910C94C0371F93CF9338
:101EE000DF93EC0161E00E942B0F182F8B8D813066
:101EF00041F441E861E0CE010E94450F4FEF62E1FD
:101F00000CC041E061E0CE010E94450F4FEF6EE34F
:101F1000CE010E94450F4FEF6FE3CE010E94450FA7
:101F2000412F61E0CE01DF91CF911F910C94450FBD
:101F3000CF93DF93EC0140E061E00E94450F40E861
:101F400061E0CE010E94450F41E861E0CE010E94B0
:101F5000450F4FEF63E2CE010E94450F48E06DE16F
:101F6000CE010E94450F44E76EE1CE010E94450F6D
:101F700061E0CE010E942B0F813821F481E08B8F2C
:101F800080E002C01B8E81E0DF91CF910895CF9356
:101F9000DF93EC018B8D8823E1F06DE1CE010E948F
:101FA0002B0F9B81963041F0482F4B7F6DE1CE0186
:101FB0000E94450F82E001C08FEF9B81963061F057
:101FC0006DE1CE010E942B0F82FD05C01A8A80E0D0
:101FD00003C08FEF01C081E0DF91CF910895CF93CF
:101FE000DF93EC018B8D8823A1F06DE1CE010E947F
:101FF0002B0F482F44606DE1CE010E94450F6DE12B
:10200000CE010E942B0F82FF06C081E08A8B80E008
:1020100003C08FEF01C081E0DF91CF9108951F933E
:10202000CF93DF93EC011B8D113089F46DE10E9499
:102030002B0F482F42606DE1CE010E94450F6DE1EC
:10204000CE010E942B0F81FF14C01C8B14C060E3D3
:102050000E942B0F482F406160E3CE010E94450F84
:1020600060E3CE010E942B0F84FF03C081E08C8BC4
:1020700002C081E001C080E0DF91CF911F910895FF
:10208000CF93DF93EC018B8D813089F46DE1CE012C
:102090000E942B0F482F4D7F6DE1CE010E94450F0E
:1020A0006DE1CE010E942B0F81FD13C010C060E3D3
:1020B000CE010E942B0F482F4F7E60E3CE010E947D
:1020C000450F60E3CE010E942B0F84FD02C01C8AE5
:1020D00002C081E001C080E0DF91CF910895CF93ED
:1020E000DF93EC018B8D882391F06EE1CE010E948D
:1020F0002B0F282F30E044E0359527954A95E1F7DE
:102100002B83265081E0273018F480E001C08FEF48
:10211000DF91CF910895CF93DF93EC018B8D8823CE
:1021200089F06DE1CE010E942B0F282F30E056E0A0
:10213000359527955A95E1F7298381E0233019F0E9
:1021400080E001C08FEFDF91CF910895EF92FF9271
:102150000F931F93CF93DF93EC01062F61E00E9452
:102160002B0FE82E8B8D811105C0CE010E94980F98
:10217000182FD3C041E861E0CE010E94450F6DE108
:10218000CE010E942B0FF82E6EE1CE010E942B0F84
:10219000182F0930B1F030F4073069F078F40630C8
:1021A00009F506C00B3099F078F00C30D9F415C061
:1021B0001F76106619C01F77106720C01F7810683F
:1021C0001DC01F7910691AC01F7A106A17C01F7BC3
:1021D000106BCE010E948B1002C01F7C106C81E03E
:1021E000F82A0CC0063051F4CE010E94EF0F45E0F2
:1021F00061E3CE010E94450F4CE006C043E061E37D
:10220000CE010E94450F4AE067E3CE010E94450FD0
:102210004F2D6DE1CE010E94450F412F47606EE1C9
:10222000CE010E94450F6DE1CE010E942B0F182FA9
:102230006EE1CE010E942B0F0930C1F138F4073056
:10224000F9F048F5063009F065C008C00B3009F414
:1022500045C0B8F10C3009F05DC04CC0282F30E00B
:1022600014E0359527951A95E1F72630310511F0E0
:1022700012E053C082FFFCCF8A898130C9F74CC07D
:10228000282F30E0B4E035952795BA95E1F727304F
:10229000310571F720C0282F30E0A4E0359527954F
:1022A000AA95E1F72830310519F715C0282F30E03D
:1022B000F4E035952795FA95E1F729303105C1F617
:1022C0000AC0282F30E0E4E035952795EA95E1F73C
:1022D0002A30310569F682FD1FC0CACF282F30E0B1
:1022E00074E0359527957A95E1F72B30310509F0A3
:1022F000BFCF0BC0282F30E064E0359527956A9555
:10230000E1F72C30310509F0B3CF82FFB1CF10FFD8
:10231000AFCF02C011E001C010E04E2D61E0CE0150
:102320000E94450F802F8650873010F40B8310E0F9
:10233000812FDF91CF911F910F91FF90EF90089522
:10234000CF92DF92EF92FF920F931F93CF93DF9381
:102350001F92CDB7DEB76C018B0161E00E942B0F9D
:10236000E82EF601838D811105C0C6010E94980FE9
:10237000F82E02C032E0F32E41E861E0C6010E946F
:10238000450F6DE1C6010E942B0F482F013011054A
:10239000A1F020F002301105A9F412C04F73C6015C
:1023A00049830E946F10F601938149819B3009F4A3
:1023B00002C09C3039F4416005C04F77406402C0D0
:1023C0004F7B40686DE1C6010E94450F6DE1C6017B
:1023D0000E942B0F01301105F1F020F002301105A1
:1023E00081F524C0682F70E026E0759567952A95E1
:1023F000E1F7672B69F5F60193819B3029F4F82EFC
:10240000F094F1E0FF2224C09C3009F5F82EF094FE
:1024100081E0F8221DC0282F30E096E03595279501
:102420009A95E1F72130310599F411C0282F30E059
:1024300086E0359527958A95E1F72230310541F4FC
:1024400006C00330110520F0FF24F39403C0F12CE3
:10245000F60101834E2D61E0C6010E94450F8F2DCC
:102460000F90DF91CF911F910F91FF90EF90DF9030
:10247000CF900895FF920F931F93CF93DF93EC01BA
:10248000162F61E00E942B0FF82E8B8D811105C055
:10249000CE010E94980F082F6AC041E861E0CE018A
:1024A0000E94450F6DE1CE010E942B0F123061F0AA
:1024B00018F4113089F405C0133049F0143061F478
:1024C00009C08F7C886008C0877D806105C08F7DD2
:1024D000886102C0877E8062482F6DE1CE010E9434
:1024E000450F6DE1CE010E942B0F1230B1F018F4B0
:1024F0001130D1F505C01330E9F01430A9F527C02B
:10250000282F30E0E3E035952795EA95E1F727702D
:1025100033272130310551F127C0282F30E073E0F7
:10252000359527957A95E1F72770332722303105C5
:10253000D9F41CC0282F30E063E0359527956A95C3
:10254000E1F7277033272330310571F40FC0282FAE
:1025500030E053E0359527955A95E1F727703327FA
:102560002430310509F402C002E001C000E0812FEF
:102570008150843010F001E001C01A834F2D61E0DA
:10258000CE010E94450F802FDF91CF911F910F91B7
:10259000FF9008950F931F93CF93DF93EC01062FC5
:1025A00061E00E942B0F182F8B8D811103C0CE018B
:1025B0000E94980F41E861E0CE010E94450F05306E
:1025C000D9F168F4023009F120F4013009F049C171
:1025D00016C0033001F1043009F043C127C00830B0
:1025E00009F441C030F4063069F1073009F039C10F
:1025F0002FC00930F1F10A3009F033C140C061E069
:10260000CE010E943A126CE00BC061E0CE010E9444
:102610003A126CE022C061E0CE010E943A126AE0F8
:10262000CE010E94A61060E070E033C061E0CE01F0
:102630000E943A126CE028C061E0CE010E943A127A
:102640006AE00BC061E0CE010E943A126BE01CC050
:1026500061E0CE010E943A1269E0CE010E94A6100C
:1026600061E070E016C061E0CE010E943A1269E0BC
:102670000BC061E0CE010E943A1268E005C061E043
:10268000CE010E943A1267E0CE010E94A61062E0DD
:1026900070E0CE010E94A011E8C0282F30E043E096
:1026A000359527954A95E1F72130310509F0DBC0D2
:1026B0006EE1CE010E942B0F90E024E09595879566
:1026C0002A95E1F701E00C9709F0F4C0C8C0282F63
:1026D00030E003E0359527950A95E1F7293031057B
:1026E00009F0C1C017C0282F30E0B3E03595279519
:1026F000BA95E1F72130310509F0B5C027C0282F80
:1027000030E0A3E035952795AA95E1F72131310511
:1027100009F0A9C06EE1CE010E942B0F282F30E0F6
:10272000F4E035952795FA95E1F701E02C30310575
:1027300009F0C0C094C0282F30E0E3E0359527951C
:10274000EA95E1F72930310509F08DC06EE1CE013F
:102750000E942B0F282F30E074E0359527957A954D
:10276000E1F701E02A30310509F0A4C078C0282F34
:1027700030E063E0359527956A95E1F72131310521
:1027800009F071C06EE1CE010E942B0F282F30E0BE
:1027900054E0359527955A95E1F701E02B30310546
:1027A00009F088C05CC0282F30E043E035952795BC
:1027B0004A95E1F72930310509F055C00BC0282FA3
:1027C00030E093E0359527959A95E1F72131310571
:1027D00009F049C06EE1CE010E942B0F282F30E096
:1027E00084E0359527958A95E1F701E02930310598
:1027F00009F060C034C0282F30E003E035952795FC
:102800000A95E1F72131310571F56EE1CE010E94A3
:102810002B0F282F30E0B4E035952795BA95E1F7D6
:1028200001E02830310509F045C019C0282F30E0FB
:10283000A3E035952795AA95E1F72131310599F463
:102840006EE1CE010E942B0F282F30E0F4E0359589
:102850002795FA95E1F701E02730310559F500E0B9
:1028600029C00FEF27C001E025C06DE1CE010E9415
:102870002B0F053009F45FCF68F4023009F427CF3D
:1028800018F4013081F709CF033009F42CCF04305C
:1028900051F735CF083009F492CF30F4063009F4FF
:1028A00066CF073001F77FCF093009F4A4CF0A3093
:1028B000D1F6BCCF412F61E0CE010E94450F802FA1
:1028C000DF91CF911F910F910895493989ED5807F4
:1028D00082EE6807710509F494C008F04EC04939CA
:1028E00089E9580788ED6807710509F48AC0F8F48A
:1028F000411580E6580788ED6807710509F481C025
:1029000038F44C3C5C44684D710509F07CC079C0DA
:10291000433383E7580788ED6807710509F471C0F0
:1029200046365648684D710509F06DC06AC04115BC
:10293000510589ED6807710509F463C078F44C3CD2
:102940008CEA580788ED6807710509F45AC04115EB
:10295000504C684D710509F056C053C04E3185EC9E
:10296000580781EE6807710509F44BC04C355F4488
:10297000624E710509F047C044C04F3882E05807E5
:1029800085EE68077105E9F1D8F444318EEE5807F9
:1029900083EE68077105A9F130F4473D5346634E55
:1029A000710589F52EC0413588E7580784EE680720
:1029B000710539F14115504C644E710521F521C066
:1029C000473481EA580786EE68077105D1F068F44C
:1029D0004C3C8CE8580785EE6807710591F04A3049
:1029E0005741664E710579F40CC045388BE25807A3
:1029F00087EE6807710529F0423C554B674E71051B
:102A000011F481E0089580E008957F928F929F9263
:102A1000AF92BF92CF92DF92EF92FF920F931F93EC
:102A2000CF93DF93EC016A017B0161E00E942B0FE1
:102A3000782E8B8D813011F441E801C041E061E0D6
:102A4000CE010E94450F4E2D66E0CE010E94450F3B
:102A50004D2D67E0CE010E94450F4C2D68E0CE0160
:102A60000E94450F66E0CE010E942B0F082F67E001
:102A7000CE010E942B0F182F902E812CA12CB12C4F
:102A8000BA2CA92C982C882468E0CE010E942B0F28
:102A9000712F60E0082F10E020E030E0060F171FD4
:102AA000211D311D080D191D2A1D3B1D0C151D056D
:102AB0002E053F0531F4CC82DD82EE82FF8210E0EC
:102AC00001C011E0B701A601CE010E946514811179
:102AD00001C01FEF472D61E0CE010E94450F812FFD
:102AE000DF91CF911F910F91FF90EF90DF90CF90EA
:102AF000BF90AF909F908F907F9008950F931F93FA
:102B0000CF93DF93EC01162F61E00E942B0F082F6B
:102B10008B8D813011F441E801C041E061E0CE01CC
:102B20000E94450F1C3439F01D3419F0183439F463
:102B300004C08FE003C0188602C087E088874885FC
:102B400069E0CE010E94450F69E0CE010E942B0F83
:102B500011E09885891301C010E0402F61E0CE019B
:102B60000E94450F812FDF91CF911F910F91089502
:102B70000F931F93CF93DF93EC01162F61E00E9418
:102B80002B0F082F1F8F8B8D813061F441E861E09E
:102B9000CE010E94450F4F8D62E2CE010E94450F8B
:102BA00062E20BC041E061E0CE010E94450F4F8D13
:102BB00062E3CE010E94450F62E3CE010E942B0F1B
:102BC00011E09F8D981301C010E0402F61E0CE010D
:102BD0000E94450F812FDF91CF911F910F91089592
:102BE000FC01678570896B5F7F4F0C94B8150F935C
:102BF0001F93CF93DF93EC01162F698B61E00E9446
:102C00002B0F082F9B8D9130F9F091111DC041E0E1
:102C100061E0CE010E94450F412F63E3CE010E9487
:102C2000450F40E064E3CE010E94450F63E3CE010F
:102C30000E942B0F182F402F61E0CE010E94450FFC
:102C400081E09989191301C080E0DF91CF911F9134
:102C50000F910895EF92FF920F931F93CF93DF93FD
:102C6000EC018B8D25E0E22EF12C00E010E08130AC
:102C700079F46BE1CE010E942B0F89588A87080FE7
:102C8000111D87FD1A9581E0E81AF10891F70FC030
:102C900061E1CE010E942B0F282F30E0359527955A
:102CA0002A87020F131F81E0E81AF10889F7C8018B
:102CB00065E070E00E9461476A8780E0DF91CF9114
:102CC0001F910F91FF90EF900895663020F4FC0162
:102CD000618F80E008958FEF08950F931F93CF9336
:102CE000DF93EC016C31E0F4062F006261E00E949A
:102CF0002B0F182F8B8D813011F441E801C041E07A
:102D000061E0CE010E94450F402F6BE0CE010E9492
:102D1000450F412F61E0CE010E94450F80E001C0C8
:102D20008FEFDF91CF911F910F910895CF93DF9394
:102D3000EC0161E086E10E940B2861E086E10E94DF
:102D4000242881E08093F7120E94843781E00E945A
:102D5000A73784E00E94B53780E00E94B0376BE16E
:102D6000CE010E946D16811105C0CE01DF91CF9179
:102D70000C94980F81E0DF91CF9108957F928F920C
:102D80009F92AF92BF92CF92DF92EF92FF920F93FA
:102D90001F93CF93DF93EC010E946E0F8B8D8130D8
:102DA00011F441E801C041E061E0CE010E94450F0D
:102DB00065E0CE010E94B815782E811165C08E01A4
:102DC000045E1D4F80E091E0D8019C011D922150CE
:102DD0003040E1F7FE01E35EFE4F8081D8018C9325
:102DE0004E01B3EE8B1ABDEF9B0AFE01E45EFE4F6F
:102DF0008081F40180835E01F2EEAF1AFDEFBF0A1D
:102E0000FE01E25EFE4F8081D5018C936E01B1EE32
:102E1000CB1ABDEFDB0AF60110827E01F0EEEF1A4D
:102E2000FDEFFF0A8F89D7018C9340E06DE0CE0162
:102E30000E94450F40E06EE0CE010E94450FF80170
:102E4000408160E0CE010E94450FD4014C9160E0CA
:102E5000CE010E94450FF501408160E0CE010E9445
:102E6000450FD6014C9160E0CE010E94450FF7015D
:102E7000408160E0CE010E94450F1F8A64EF71E03F
:102E800080E090E00E94D726872DDF91CF911F919F
:102E90000F91FF90EF90DF90CF90BF90AF909F90F9
:102EA0008F907F9008951F93CF93DF93EC01845E02
:102EB0009E4FFC0180E091E0DF019C011D922150BA
:102EC0003040E1F743E461E3CE010E94450F49E061
:102ED0006AE0CE010E94450F43E26CE0CE010E9401
:102EE000450F40E06DE0CE010E94450F4FEF6FE1CE
:102EF000CE010E94450F40E065E2CE010E94450FE1
:102F00008B8D813039F46FEFCE010E94B815182FE8
:102F100045E805C0CE010E94F015182F45E061E09C
:102F2000CE010E94450F812FDF91CF911F9108950F
:102F30008F929F92AF92BF92CF92DF92EF92FF92C9
:102F40001F93CF93DF93EC014A015B011B8A0E9420
:102F500085266B017C018B8D813061F562E1CE01AC
:102F60000E942B0F182F04C00E9485266B017C0144
:102F700014FD7DC00E9485266C197D098E099F096C
:102F8000681579058A059B0508F447C07BC00E9437
:102F900085266B017C0111116FC00E9485266C197A
:102FA0007D098E099F09681579058A059B0508F436
:102FB00042C018C06FE3CE010E942B0F182F04C02F
:102FC0000E9485266B017C0112FD54C00E9485265B
:102FD0006C197D098E099F09681579058A059B057D
:102FE000C0F150C08B89813089F48D899989891706
:102FF00091F0882381F08B8D813011F441E801C07C
:1030000041E061E0CE010E94450F03C08B8D81300D
:10301000B9F780E039C081E037C062E1CE010E949B
:103020002B0F182F0E9485266C157D058E059F0598
:1030300008F09ECF99CF65E2CE010E942B0F182F8A
:103040000E9485266C157D058E059F0508F0A3CF8F
:103050009ECF6FE3CE010E942B0F182F0E94852672
:103060006C157D058E059F0508F0AECFA9CF81E0D8
:103070008B8B93CF81E08B8B60E0CE010E942B0F76
:103080008D8BB0CF1B8AAECFDF91CF911F91FF9078
:10309000EF90DF90CF90BF90AF909F908F9008956A
:1030A00040E157E260E070E00C9498178F929F9295
:1030B000AF92BF92CF92DF92EF92FF920F931F9346
:1030C000CF93DF93EC014A015B010E9485266B01DF
:1030D0007C018B8D813039F562E1CE010E942B0F8E
:1030E000182F04C00E9485266B017C0116FDE4C0E8
:1030F0000E9485266C197D098E099F09681579053E
:103100008A059B0508F4BCC002C01F8A39C015FDA2
:1031100006C08C89813019F41F8A12E091C081E0C9
:103120008F8B13E08DC06FE3CE010E942B0F182F01
:1031300004C00E9485266B017C0112FDC0C00E9464
:1031400085266C197D098E099F09681579058A0500
:103150009B0508F4A3C000E005C08C89813021F4F0
:103160001F8A01E012E004C081E08F8B00E013E0D1
:1031700041E061E0CE010E94450F013009F060C0DE
:103180008B8D813069F440E06DE0CE010E94450FE7
:1031900060E0CE010E942B0FFE01E45EFE4F12C0E4
:1031A00060E3CE010E942B0F8E01045E1E4F82FD54
:1031B00007C081FD05C060E0CE010E942B0F01C059
:1031C0008D89F801808360E0CE010E942B0FFE0103
:1031D000E35EFE4F808360E0CE010E942B0FFE0174
:1031E000E25EFE4F808360E0CE010E942B0FFE0165
:1031F000E15EFE4F80839B8D913021F490E0059736
:10320000988B8F87E12CF12C0CC0CE010E942B0FE4
:10321000FE01EE0DFF1DE05EFE4F8083FFEFEF1A13
:10322000FF0A8F85988960E0E816F90670F3CE01F1
:103230000E942B0FFE01E55EFD4F808310E00CC065
:103240008F89813041F4888D998D891720F413304E
:1032500011F08F5F888F11E08B8D813029F440E071
:103260006DE0CE010E94450FCE010E946E0F81EEEF
:1032700088168EE29806A104B10420F11FEF22C047
:1032800062E1CE010E942B0F182F0E9485266C153B
:103290007D058E059F0508F029CF24CF6FE3CE0171
:1032A0000E942B0F182F0E9485266C157D058E0518
:1032B0009F0508F042CF3DCF15FF27CF28CF11FD46
:1032C0004CCF52CF812FDF91CF911F910F91FF9063
:1032D000EF90DF90CF90BF90AF909F908F90089528
:1032E00040E157E260E070E00C945618FC01658BF9
:1032F000648F8189858F8689868F8F5F868B80E03A
:1033000008952F923F924F925F926F927F928F9289
:103310009F92AF92BF92CF92DF92EF92FF920F9364
:103320001F93CF93DF93CDB7DEB72E970FB6F894E8
:10333000DEBF0FBECDBF2C018B01FC01638170E0AD
:1033400080E090E00E9426444B015C01F20162891A
:1033500070E080E090E00E9426446B837C838D8344
:103360009E83F201628170E080E090E00E9426443A
:103370006F83788789879A8720E030E040E251E4C4
:10338000682D792D8A2D9B2D0E943D4518163CF401
:10339000C12CD12CE0E8EE2EEFE3FE2E03C0C12CB1
:1033A000D12C76010115110559F0B8016B5F7F4FE3
:1033B00080E090E00E94264469837A833C0106C045
:1033C00019821A826FE7662E73E4772EF2018181EB
:1033D000882391F0813049F0823071F4212C312C16
:1033E0005AEF452E53E4552E0DC0212C312C4AE7BF
:1033F000442E43E4542E06C0212C312C3AEF432EA8
:1034000032E4532E282D392D4A2D5B2D60E070E0DB
:1034100080E090E40E94AB45A20191010E948D439F
:103420008B018E879D8720E030E044E451E4712FCA
:103430000E944845362E272E8B879C8720E030E05F
:1034400040E051E4B981AA816B2F7A2F862D972D08
:103450000E9448452B013C0120E030E040E850E468
:10346000682D792D8A2D9B2D0E9448459B01AC012A
:10347000C301B2010E94E94220E030E040EE51E495
:103480000E94EA4220E030E040E851E40E94EA4233
:103490002B013C0120E030E040EA51E4BB81AC81EB
:1034A000ED81FE816B2F7A2FCF010E9448459B0151
:1034B000AC01C301B2010E94E9422B013C01A7010A
:1034C0009601C701B6010E94EA429B01AC01682D3A
:1034D000792D8A2D9B2D0E94E94220E030E040E8C2
:1034E00050E40E9448459B01AC01C301B2010E9417
:1034F0008D430E9476436B017C0120E030E040E880
:1035000050E4BF81A885B984AA846B2F7A2F8B2DB4
:103510009A2D0E94EA429B01AC01C701B6010E94AC
:1035200048456B017C0120E030E0A9017D2D9F2DF5
:103530000E943D4518165CF420E030E040E051E484
:103540006C2D7D2D8E2D9F2D0E94EA4204C060E0DF
:1035500070E080E091E4FE85ED85202F312F4F2F24
:103560005E2F0E9448459B01AC01D101EB851C8573
:103570006B2F722D8E2F912F0E94EA422E960FB63E
:10358000F894DEBF0FBECDBFDF91CF911F910F9199
:10359000FF90EF90DF90CF90BF90AF909F908F9073
:1035A0007F906F905F904F903F902F900895FC0117
:1035B000678570890C948119AF92BF92CF92DF9288
:1035C000EF92FF920F931F93CF93DF938C01FC0137
:1035D000838DE801C25EDC4F813069F568817981B5
:1035E00080E090E00E9426442DEC3CEC4CEC5DE346
:1035F0000E94484520E030E040E85FE30E94EA4254
:103600000E94FA435B01C8010E94D71A6B017C013A
:103610000E9496488C01C701B6010E94FA439B01A3
:1036200028513C4FC801B5010E944D47280F391F52
:103630003983288304C080E197E29983888380E0FE
:10364000DF91CF911F910F91FF90EF90DF90CF907E
:10365000BF90AF900895FC01238D211109C02785EB
:1036600030892D33310520F02CE330E0308B278773
:10367000FC0147855089FB0120E030E008C06191E2
:10368000DC01A20FB31F90966C932F5F3F4F24175E
:103690003507A9F70C94F015EF92FF920F931F9343
:1036A000CF93DF93EC01F62E8A0161E00E942B0F8D
:1036B000E82ECE010E946E0F8B8D813011F441E80F
:1036C00001C041E061E0CE010E94450F1F8A888D54
:1036D00081110DC06F2DCE010E947619F82E811137
:1036E0000FC0B801CE010E942B1BF82E09C0CE01DD
:1036F0000E94F015F82EFE01E55EFE4F888D808356
:1037000040E06EE0CE010E94450F40E06DE0CE014A
:103710000E94450FF1102DC04C8D60E0CE010E943B
:10372000450F4D8D60E0CE010E94450F4E8D60E04B
:10373000CE010E94450F4F8D60E0CE010E94450FE3
:1037400000E010E009C0E00FF11F40A160E0CE01F1
:103750000E94450F0F5F1F4F2F853889FE0102170A
:10376000130788F3E55EFE4F408160E0CE010E94C2
:10377000450F4E2D61E0CE010E94450F8F2DDF9148
:10378000CF911F910F91FF90EF9008958F929F928C
:10379000AF92BF92CF92DF92EF92FF921F93CF939F
:1037A000DF93EC014A015B010E9485266B017C01DD
:1037B0008B8D813001F5CE010E946E0F43E861E0F0
:1037C000CE010E94450F62E1CE010E942B0F182FFF
:1037D00004C00E9485266B017C0113FD28C00E9455
:1037E00085266C197D098E099F09681579058A055A
:1037F0009B0530F11CC043E061E0CE010E94450F03
:103800006FE3CE010E942B0F182F04C00E94852663
:103810006B017C0113FD0BC00E9485266C197D098C
:103820008E099F09681579058A059B05B0F0CE01C0
:103830000E946E0F13FB882780F991E089271AC038
:1038400062E1CE010E942B0F182F0E9485266C1575
:103850007D058E059F0508F6BCCF6FE3CE010E9463
:103860002B0F182F0E9485266C157D058E059F0550
:1038700088F6CCCFDF91CF911F91FF90EF90DF9032
:10388000CF90BF90AF909F908F900895CF93DF938C
:10389000EC010E94DC1AFE01E25EFC4F4081518186
:1038A00060E070E0CE01DF91CF910C94C61B0F93C6
:1038B0001F93CF93DF9300D000D0CDB7DEB78C013C
:1038C00049835A836B837C830E94531749815A81B1
:1038D0006B817C8181111AC0C8010E9498178823CE
:1038E000A9F0C8010E947019882319F0833009F0EB
:1038F0000DC0C8010E94BE16811108C0C8010E94F7
:10390000461C91E0811103C090E001C091E0892F35
:103910000F900F900F900F90DF91CF911F910F910B
:103920000895CF93DF93EC012C3F310528F08BEF06
:1039300090E0988B8F8702C0388B2F87CE010E9432
:103940004C1B811105C0CE01DF91CF910C94461C18
:10395000DF91CF9108958F929F92AF92BF92CF92B5
:10396000DF92EF92FF920F931F93CF93DF93EC01BF
:103970004A015B010E9485266B017C018B8D8130A1
:10398000D9F462E1CE010E942B0F182F04C00E94CF
:1039900085266B017C01012F007416FD8DC00E94ED
:1039A00085266C197D098E099F09681579058A0598
:1039B0009B0508F473C080C06FE3CE010E942B0FFB
:1039C000182F04C00E9485266B017C01012F047012
:1039D00012FD86C00E9485266C197D098E099F09FB
:1039E000681579058A059B0508F46CC079C0112318
:1039F00009F448C04E0184EE881A8DEF980A8D892B
:103A0000F401808360E0CE010E942B0F5E01F3EE93
:103A1000AF1AFDEFBF0AF501808360E0CE010E947E
:103A20002B0F6E01F2EECF1AFDEFDF0AF601808355
:103A300060E0CE010E942B0F7E01F1EEEF1AFDEF48
:103A4000FF0AF701808360E0CE010E942B0FFE0188
:103A5000E05EFD4F8083F40120819D8D291314C009
:103A6000F50120819C8D291311C0F60120819E8DC6
:103A700029130EC0F701908191110CC081110CC067
:103A800010E038C018E036C017E034C016E032C08D
:103A900015E030C014E02EC013E02CC062E1CE016E
:103AA0000E942B0F182F0E9485266C157D058E0510
:103AB0009F0508F070CF6BCF11E0011101C010E03D
:103AC00041E813C06FE3CE010E942B0F182F0E9414
:103AD00085266C157D058E059F0508F077CF72CF82
:103AE00011E0011101C010E041E061E0CE010E944F
:103AF000450F7DCFCE010E946E0F812FDF91CF91B8
:103B00001F910F91FF90EF90DF90CF90BF90AF90FB
:103B10009F908F90089540E157E260E070E00C9430
:103B2000AB1CCF93DF93EC010E94911C811110C05C
:103B3000CE010E94531781110BC0CE010E94501874
:103B4000882329F0CE01DF91CF910C948B1D89E061
:103B5000DF91CF910895DF92EF92FF920F931F9321
:103B6000CF93DF93EC01D62E8A01790181E0288D75
:103B7000998D921710F4188E0CC09701A8016D2D25
:103B8000CE010E94911D988D9F5F988F882399F395
:103B9000EECFDF91CF911F910F91FF90EF90DF90CB
:103BA0000895CF92DF92EF92FF920F931F93CF93DE
:103BB000DF93EC01FC01E15EFE4F108115508DEFAB
:103BC00092E10E948E390EE1E02EF12C60E08DE34F
:103BD0000E94C82981E0E81AF108C1F760E083E992
:103BE00098E00E94D529FE01E45EFE4F608170E0FE
:103BF00080E090E000E02AE030E040E050E00E9409
:103C0000E52960E08CE998E00E94D529FE01E35E99
:103C1000FE4F608170E080E090E02AE030E040E01C
:103C200050E00E94E52960E084EA98E00E94D529EE
:103C3000FE01E25EFE4F608170E080E090E02AE0ED
:103C400030E040E050E00E94E52960E080EB98E041
:103C50000E94D529FE01E15EFE4F608170E080E0A8
:103C600090E02AE030E040E050E00E94E52960E08A
:103C70008BEB98E00E94D529FE01E55EFD4F608147
:103C800070E080E090E02AE030E040E050E00E9408
:103C9000E52960E085EC98E00E94D529E12CF12C23
:103CA000C12ED12C0CC0FE01EE0DFF1DE05EFE4FBB
:103CB00060E080810E94702A8FEFE81AF80AEC1405
:103CC000FD048CF360E087ED98E00E94D52900E0C8
:103CD00010E00BC0FE01E00FF11FE05EFE4F60E060
:103CE00080810E94C8290F5F1F4F0C151D0594F39A
:103CF00060E08DE00E94C82960E08AE00E94C82947
:103D0000CEE1D0E060E08DE30E94C8292197D1F791
:103D100060E08DE00E94C82960E08AE00E94C82926
:103D20008DEF92E1DF91CF911F910F91FF90EF9076
:103D3000DF90CF900C94BC39CF92DF92EF92FF923C
:103D4000CF93DF93EC010E9485266B017C0143E257
:103D50006CE089EF9CE00E94450F89EF9CE00E9497
:103D60006E0F89EF9CE00E942A168B8D813031F412
:103D700047E861E089EF9CE00E94450F62E189EF2E
:103D80009CE00E942B0FC82F82FF03C08C2F8170F4
:103D90000CC00E9485266C197D098E099F0960312F
:103DA00077428105910590F7E9CFDF91CF91FF90A0
:103DB000EF90DF90CF90089589EF9CE00C94FE0E79
:103DC00008950F93CF93DF931F92CDB7DEB7FC0119
:103DD000613041F028F0623039F0633049F406C0B8
:103DE00088E405C089E403C08AE401C08BE48083D1
:103DF000198201E09E012F5F3F4F41E0608183E027
:103E000093E10E94493E0F90DF91CF910F91089569
:103E1000EF92FF920F93CF93DF9300D0CDB7DEB731
:103E20007B0101E09E012F5F3F4F40E0FC0160817C
:103E300083E093E10E948E3E813029F48981F7016D
:103E4000808380E007C060EF73E08DEF92E10E9415
:103E5000E53981E00F900F90DF91CF910F91FF90A6
:103E6000EF9008950F93CF93DF931F92CDB7DEB7F6
:103E700021E0298301E09E012F5F3F4F41E0FC01DB
:103E8000608183E093E10E94493E0F90DF91CF91E2
:103E90000F91089510922210E4E6F0E080818F7770
:103EA0008083589A599AE9EBF0E080818E7F808375
:103EB00080818D7F80838FEF8093B80085E480932D
:103EC000BC0080E2E3E2F0E1DF01982F1D929A95B9
:103ED000E9F7E3E4F0E1DF01982F1D929A95E9F705
:103EE000E3E6F0E1DF011D928A95E9F7089561327A
:103EF00098F420912210243089F460931F10FC0163
:103F000083E490E1DC0102C021912D932A2F281B2C
:103F10002617D0F380E0089581E0089582E00895A7
:103F200085EC8093BC0010922210089558985998FF
:103F30008091B90081608093B9008091B90082605E
:103F40008093B9008091BC0080688093BC00809110
:103F5000BC0080618093BC008091BC008F7B80930B
:103F6000BC008091BC008F7D8093BC008091BC0020
:103F7000877F8093BC0080915A1390915B13A0912E
:103F80005C13B0915D1386FD14C080915A1390911B
:103F90005B13A0915C13B0915D1390FD0AC08091FA
:103FA0005A1390915B13A0915C13B0915D1393FF32
:103FB00004C08091BC008B7F03C08091BC008460F2
:103FC0008093BC008091BC008E7F8093BC00809168
:103FD00064008068809364000895882349F01092FB
:103FE000191010921A1010921B1010921C1013C06E
:103FF0008091191090911A10A0911B10B0911C1073
:104000000196A11DB11D8093191090931A10A093D1
:104010001B10B0931C108091191090911A10A09150
:104020001B10B0911C10803A9648A140B10560F079
:104030001092191010921A1010921B1010921C104E
:104040000E944A1F81E0089580E0089585ED8093E5
:10405000BC0081E00E94ED1F08C080E00E94ED1FBF
:10406000882319F01092221008958091BC0084FDDD
:10407000F4CFF8CFFF920F931F93CF93DF93182FB6
:10408000062FF72EC42FD22F81E0413208F051C005
:104090000E94ED1F15C080E00E94ED1F882381F073
:1040A00082E0809322108FEF80931D1010922110D8
:1040B000C0938310E02FFF2D63E270E1DB0107C0A6
:1040C000809122108111E7CFEBCF81918D938A2FC0
:1040D000861B8C17D0F3812F90E0880F991F809357
:1040E000841085EE8093BC0081E00E94ED1FD11109
:1040F00005C080911D108F3F59F414C0809122108B
:104100008230B9F780E00E94ED1F81110DC0F6CF1B
:1041100080911D10803251F080911D10803341F448
:1041200083E007C080E005C085E003C082E001C0F5
:1041300084E0DF91CF911F910F91FF9008950F932D
:104140001F93CF93DF93082FD62F172FC42F81E013
:104150004132E0F50E94ED1F1DC080E00E94ED1F7E
:104160008823C1F081E0809322108FEF80931D108F
:1041700010922110C0938310802F90E0880F991F18
:1041800081608093841085EE8093BC0081E00E9462
:10419000ED1F10C0809122108111DFCFE3CF80E0AE
:1041A0000E94ED1F882331F083E290E1ED2FF12F83
:1041B000DC0107C080912210813089F3F5CF2D9169
:1041C00021932A2F281B2C17D0F380E0DF91CF9169
:1041D0001F910F9108951F920F920FB60F92112405
:1041E0000BB60F922F933F934F935F936F937F93F1
:1041F0008F939F93AF93BF93CF93EF93FF93C09110
:10420000B900C87FC03609F49FC058F5C83209F418
:104210005BC090F4C03109F452C038F4CC2309F4E7
:10422000F2C0C83009F0F3C04AC0C83109F44CC02C
:10423000C03209F0ECC05DC0C03409F473C038F47A
:10424000C03309F45BC0C83309F0E1C05AC0C035BF
:1042500009F45CC0C83509F46AC0C83409F0D7C095
:10426000D4C0C83909F4C5C0A8F4C83709F46CC073
:1042700038F4C83609F468C0C03709F0C8C064C053
:10428000C83809F4B6C0C03909F464C0C03809F0B0
:10429000BEC060C0C03B09F484C038F4C03A09F421
:1042A0006BC0C83A09F0B3C07CC0C03C09F4A5C0DB
:1042B000C83C09F4A2C0C83B09F0A9C087C08091DE
:1042C00084108093BB0013C09091211080918310C3
:1042D000981708F09AC080912110E82FF0E0ED5D6A
:1042E000FF4E90819093BB008F5F8093211085ECEF
:1042F00081C00E942620C0931D1089C0C0931D104C
:1043000084C0C0931D100E94901F81C08091211015
:104310009091BB00E82FF0E0ED5DFF4E90838F5F42
:104320008093211090912110809183105FC0809123
:1043300021109091BB00E82FF0E0ED5DFF4E9083DF
:104340008F5F8093211061C083E0809322101092D0
:104350001E10CDCF80911E10803208F04AC080918F
:104360001E109091BB00E82FF0E0ED59FF4E9083B6
:104370008F5F80931E10BBCF80911E10803230F46F
:10438000E0911E10F0E0ED59FF4E108260911E107A
:10439000E0918510F091861070E083E690E1099538
:1043A0002CC084E0809322101092201010921F10D5
:1043B000E0918710F0918810099580911F1081116C
:1043C00005C081E080931F1010924310809120104F
:1043D000E82FF0E0ED5BFF4E90819093BB008F5F84
:1043E000809320109091201080911F10981708F44E
:1043F0007ECF85E88093BC000AC085EC8093BC002A
:104400001092221004C010921D100E942620FF91CD
:10441000EF91CF91BF91AF919F918F917F916F91CC
:104420005F914F913F912F910F900BBE0F900FBE58
:104430000F901F901895F8948091661390916713D0
:1044400080FF18C086E20E946A28892B99F080912B
:1044500068138F5F809368138091691390916A133A
:10446000816090936A138093691380915E138F5FCC
:1044700080935E13809166139091671381FF18C03B
:1044800087E20E946A28892B99F0809168138F5FD8
:10449000809368138091691390916A13826090935E
:1044A0006A138093691380915F138F5F80935F130A
:1044B000809166139091671383FF1CC088E00E946F
:1044C0006A28892BB9F0809168138F5F80936813F5
:1044D00060E085E00E9424288091691390916A131E
:1044E000886090936A1380936913809161138F5F42
:1044F00080936113809166139091671387FF18C0B2
:104500008DE20E946A28892B99F0809168138F5F51
:10451000809368138091691390916A1380689093D7
:104520006A1380936913809164138F5F809364137F
:10453000809166139091671390FF18C082E10E94EA
:104540006A28892B99F0809168138F5F8093681394
:104550008091691390916A13916090936A1380938C
:104560006913809165138F5F809365138091661343
:104570009091671384FF18C089E00E946A28892BF4
:1045800099F4809168138F5F809368138091691309
:1045900090916A13806190936A138093691380915C
:1045A00062138F5F8093621378940895E82FF0E090
:1045B000EE0FFF1FE757FF4E71836083823029F1B2
:1045C00030F4882351F0813009F046C010C08330A8
:1045D00059F1843009F040C036C0E89880916900F4
:1045E0008C7F842B80936900E09AE89A0895E9987B
:1045F00080916900440F551F440F551F837F842B02
:1046000080936900E19AE99A0895EA988091690097
:1046100024E0440F551F2A95E1F78F7C842B80936B
:104620006900E29AEA9A0895EB988091690096E011
:10463000440F551F9A95E1F78F73842B809369007F
:10464000E39AEB9A0895EC9880916A008C7F842B12
:1046500080936A00E49AEC9A0895F894883018F5EB
:10466000833091F020F4813059F060F407C0863037
:1046700079F0873079F0843071F408C0E8980BC085
:10468000E99809C0EA9807C0EB9805C0EC9803C008
:10469000EE9801C0EF98E82FF0E0EE0FFF1FE7570C
:1046A000FF4E11821082789408951F920F920FB6D8
:1046B0000F9211240BB60F922F933F934F935F935A
:1046C0006F937F938F939F93AF93BF93EF93FF93DA
:1046D0008091891090918A10892B29F0E09189109E
:1046E000F0918A100995FF91EF91BF91AF919F9141
:1046F0008F917F916F915F914F913F912F910F908B
:104700000BBE0F900FBE0F901F9018951F920F9227
:104710000FB60F9211240BB60F922F933F934F9326
:104720005F936F937F938F939F93AF93BF93EF9319
:10473000FF9380918B1090918C10892B29F0E09140
:104740008B10F0918C100995FF91EF91BF91AF9173
:104750009F918F917F916F915F914F913F912F9199
:104760000F900BBE0F900FBE0F901F9018951F92C9
:104770000F920FB60F9211240BB60F922F933F9307
:104780004F935F936F937F938F939F93AF93BF9359
:10479000EF93FF9380918D1090918E10892B29F0CB
:1047A000E0918D10F0918E100995FF91EF91BF91DE
:1047B000AF919F918F917F916F915F914F913F91B9
:1047C0002F910F900BBE0F900FBE0F901F9018955A
:1047D0001F920F920FB60F9211240BB60F922F93C8
:1047E0003F934F935F936F937F938F939F93AF9379
:1047F000BF93EF93FF9380918F1090919010892B2E
:1048000029F0E0918F10F09190100995FF91EF91B0
:10481000BF91AF919F918F917F916F915F914F91D8
:104820003F912F910F900BBE0F900FBE0F901F90D6
:1048300018951F920F920FB60F9211240BB60F927C
:104840002F933F934F935F936F937F938F939F9398
:10485000AF93BF93EF93FF9380919110909192103B
:10486000892B29F0E0919110F09192100995FF9118
:10487000EF91BF91AF919F918F917F916F915F91D8
:104880004F913F912F910F900BBE0F900FBE0F9045
:104890001F9018951F920F920FB60F9211240BB60E
:1048A0000F922F933F934F935F936F937F938F93C9
:1048B0009F93AF93BF93EF93FF9380919310909149
:1048C0009410892B29F0E0919310F09194100995A0
:1048D000FF91EF91BF91AF919F918F917F916F91D8
:1048E0005F914F913F912F910F900BBE0F900FBE94
:1048F0000F901F9018951F920F920FB60F921124D0
:104900000BB60F922F933F934F935F936F937F93C9
:104910008F939F93AF93BF93EF93FF9380919510E5
:1049200090919610892B29F0E0919510F0919610B6
:104930000995FF91EF91BF91AF919F918F917F91D9
:104940006F915F914F913F912F910F900BBE0F9000
:104950000FBE0F901F9018951F920F920FB60F92D7
:1049600011240BB60F922F933F934F935F936F9346
:104970007F938F939F93AF93BF93EF93FF93809118
:10498000971090919810892B29F0E0919710F09151
:1049900098100995FF91EF91BF91AF919F918F91E1
:1049A0007F916F915F914F913F912F910F900BBE2F
:1049B0000F900FBE0F901F901895CF92DF92EF923D
:1049C000FF926B017C0180916613909167138C2993
:1049D0009D299093671380936613C0FE0FC060E01B
:1049E0008BE20E940B2860E086E20E940B2843E0E5
:1049F00050E06BE172E282E00E94D622C1FE0FC05D
:104A000060E08BE20E940B2860E087E20E940B28A6
:104A100043E050E06BE172E282E00E94D622C2FEE7
:104A20000FC061E083E00E940B2861E083E00E94F8
:104A3000242842E050E06BEB75E284E00E94D6222D
:104A4000C3FE0FC060E08BE20E940B2860E088E0AC
:104A50000E940B2843E050E06BE172E282E00E948A
:104A6000D622C4FE0BC060E08BE20E940B2843E01C
:104A700050E06BE172E282E00E94D622C6FE0FC0D7
:104A800060E084E00E940B2860E08CE20E940B282A
:104A900042E050E06BEB75E283E00E94D622C7FE55
:104AA0000FC060E08DE20E940B2860E08BE20E9464
:104AB0000B2843E050E06BE172E282E00E94D622D4
:104AC000D0FE13C060E08BE20E940B2860E082E120
:104AD0000E940B2843E050E06BE172E282E0FF901D
:104AE000EF90DF90CF900C94D622FF90EF90DF9064
:104AF000CF900895CF92DF92EF92FF926B017C01ED
:104B0000F89460FF03C082E00E942D23C1FE03C021
:104B100082E00E942D23C2FE03C084E00E942D2368
:104B2000C3FE03C082E00E942D23C4FE03C082E0C6
:104B30000E942D23C7FE03C082E00E942D23D0FED9
:104B400003C082E00E942D23C6FE03C083E00E94C2
:104B50002D238091661390916713C094D094C8223E
:104B6000D922D0926713C09266137894FF90EF9089
:104B7000DF90CF900895F894809166139091671319
:104B800086FF1EC084E00E946A28892BC9F48091A8
:104B900068138F5F809368138091691390916A13F3
:104BA000806490936A1380936913809163138F5F7D
:104BB0008093631360E470E080E090E00E947A25C7
:104BC000809166139091671382FF1CC083E00E945E
:104BD0006A28892BB9F4809168138F5F80936813DA
:104BE0008091691390916A13846090936A13809303
:104BF0006913809160138F5F8093601361E083E09D
:104C00000E942428789408951F920F920FB60F9255
:104C100011240BB60F922F933F934F935F936F9393
:104C20007F938F939F93AF93BF93EF93FF93F894EA
:104C300081E080930E02E0E6F0E08081806880836E
:104C400080818F7B808360E083E00E9424287894B9
:104C5000FF91EF91BF91AF919F918F917F916F9154
:104C60005F914F913F912F910F900BBE0F900FBE10
:104C70000F901F9018951F920F920FB60F9211244C
:104C80008F939F93AF93BF9380916C1390916D130B
:104C9000A0916E13B0916F130196A11DB11D809369
:104CA0006C1390936D13A0936E13B0936F13BF9119
:104CB000AF919F918F910F900FBE0F901F901895FD
:104CC0001F920F920FB60F9211248F939F93AF9361
:104CD000BF938091701390917113A0917213B09152
:104CE00073130196A11DB11D8093701390937113DE
:104CF000A0937213B0937313BF91AF919F918F9153
:104D00000F900FBE0F901F9018958F929F92AF92A9
:104D1000BF92CF92DF92EF92FF920F931F93CF93A8
:104D2000DF932FB7F89480916C1390916D13A0913D
:104D30006E13B0916F132FBF9C01AD0160E070E066
:104D400080E090E001E00E9412484901D42FC52F75
:104D5000B62FA72FF82FE92F02E00E941248590121
:104D60006A017B018C0194014D2F5C2F6B2F7A2FF0
:104D70008F2F9E2F0E942148E9E0AE2EB12CC12C2E
:104D8000D12CE12CF12C00E010E00E94B547952FCA
:104D9000B901842FDF91CF911F910F91FF90EF9078
:104DA000DF90CF90BF90AF909F908F9008958F929B
:104DB0009F92AF92BF92CF92DF92EF92FF924B0100
:104DC0005C0107C00E9485266C157D058E059F0538
:104DD00020F40E9485266B017C010E9485266C19B7
:104DE0007D098E099F09681579058A059B0550F391
:104DF000FF90EF90DF90CF90BF90AF909F908F90FB
:104E00000895BC01049768F080E090E00E94264479
:104E100026E636E646EE5FE30E9448450E94FA43E6
:104E200002C0660F771F6150710961F0615071090E
:104E300049F0FB01EE0FFF1F31978FB7F8943197C0
:104E4000F1F78FBF0895789484B7877F84BF10925D
:104E50006C1310926D1310926E1310926F1384B531
:104E6000826084BD84B5816084BD85B5826085BD66
:104E700085B5816085BDEEE6F0E08081816080834C
:104E8000E1E8F0E0808182608083808181608083BE
:104E9000E0E8F0E0808181608083E1EBF0E08081F8
:104EA00084608083E1E9F0E0808184608083E0EBCE
:104EB000F0E0808181608083E0E9F0E080818160C2
:104EC0008083E4E6F0E080818E7F8083ECE7F0E091
:104ED00080818F778083808180648083EAE7F0E03F
:104EE000808184608083808182608083808180680B
:104EF00080831092C1001092C9000895909199107A
:104F0000982B9093991080FF32C0809164008E7F1F
:104F10008093640080917C008F7780937C008091E7
:104F20007C00806480937C0080917A008460809310
:104F30007A0080917A00826080937A0080917A0072
:104F4000806880937A00809164008F7780936400FA
:104F5000809164008B7F80936400809164008D7FDA
:104F600080936400809165008E7F80936500089532
:104F7000282F20959091991092239093991080FF5B
:104F80001EC080917A008F7780937A0080916400B0
:104F900081608093640080916400806880936400E5
:104FA00080916400846080936400809164008260DA
:104FB000809364008091650081608093650008950E
:104FC00090917C0020917A00206820937A009F7055
:104FD000981769F090917C008F70907F892B809357
:104FE0007C0061E070E080E090E00E94D726809134
:104FF0007A00806480937A0080917A0086FDFCCFED
:105000002091780030917900932F80E0AC01422B01
:105010009A01C901089590E0FC01EB5BF94F2491DE
:10502000FC01E858F94FE491EE2369F0F0E0E55413
:10503000F94FA491B0E08C91611103C020958223B7
:1050400001C0822B8C93089590E0FC01EE5EF94F35
:105050002491FC01EB5BF94F3491FC01E858F94FC6
:1050600084918823B1F1222331F1233021F49091EE
:1050700080009F7705C0243031F4909180009F7D9F
:105080009093800018C0213019F494B59F7704C024
:10509000223021F494B59F7D94BD0DC0263021F4BB
:1050A0009091B0009F7705C0273029F49091B0000F
:1050B0009F7D9093B000E82FF0E0ED54F94FA4915C
:1050C000B0E08C91611103C03095832301C0832B24
:1050D0008C93089590E0FC01EE5EF94F2491FC0161
:1050E000EB5BF94F3491FC01E858F94F8491882328
:1050F00099F1222331F1233021F4909180009F77A0
:1051000005C0243031F4909180009F7D9093800001
:1051100018C0213019F494B59F7704C0223021F4CF
:1051200094B59F7D94BD0DC0263021F49091B000C0
:105130009F7705C0273029F49091B0009F7D909310
:10514000B000E82FF0E0E555F94FE491F0E0808100
:10515000832321E030E011F420E030E0C90108951C
:10516000CF92DF92EF92FF926B017C01411134C02C
:1051700088E00E947E27C701B60122E030E040E0CF
:1051800050E00E949747305F414F5F4FCA01B9011D
:10519000A70196010E949747DA01C9010197A10969
:1051A000B109892F9A2FAB2FBB27A7FDBA95809302
:1051B000C50021502093C4008091C100806180937C
:1051C000C1008091C10088608093C1008091C100BE
:1051D00080688093C10033C080E10E947E27C701B0
:1051E000B60122E030E040E050E00E949747305F97
:1051F000414F5F4FCA01B901A70196010E9497472D
:10520000DA01C9010197A109B109892F9A2FAB2FA2
:10521000BB27A7FDBA958093CD0021502093CC00E9
:105220008091C90080618093C9008091C900886025
:105230008093C9008091C90080688093C900FF9065
:10524000EF90DF90CF90089581110EC088E00E940A
:10525000B8278091C1008F7E8093C1008091C100EA
:10526000877F8093C100089580E10E94B8278091D4
:10527000C9008F7E8093C9008091C900877F809389
:10528000C9000895611107C09091C00095FFFCCF3F
:105290008093C60008959091C80095FFFCCF80933D
:1052A000CE0008951F920F920FB60F9211242F93E4
:1052B0003F934F935F936F937F938F939F93AF939E
:1052C000BF93EF93E091C6002091A0103091A11000
:1052D000C901019660E072E00E94614740919E1012
:1052E00050919F108417950741F0D901AC58BA4EE0
:1052F000EC939093A1108093A010EF91BF91AF9188
:105300009F918F917F916F915F914F913F912F91DD
:105310000F900FBE0F901F9018951F920F920FB60F
:105320000F9211242F933F934F935F936F937F932B
:105330008F939F93AF93BF93EF93E091CE00209113
:105340009C1030919D10C901019660E072E00E94AE
:10535000614740919A1050919B108417950741F036
:10536000D901AC58BC4EEC9390939D1080939C1047
:10537000EF91BF91AF919F918F917F916F915F91CD
:105380004F913F912F910F900FBE0F901F90189546
:105390000C944229CF93C82F682F8DE00E94422998
:1053A0006C2F8AE0CF910C9442291F93CF93DF9307
:1053B000162FEC0103C0612F0E94422989918111AF
:1053C000FACFDF91CF911F9108954F925F926F9224
:1053D0007F928F929F92AF92BF92CF92DF92EF9285
:1053E000FF920F93CF93DF93CDB7DEB7A0970FB6A1
:1053F000F894DEBF0FBECDBF29013A0161157105DA
:1054000081059105C9F4602F80E3A0960FB6F8944A
:10541000DEBF0FBECDBFDF91CF910F91FF90EF9018
:10542000DF90CF90BF90AF909F908F907F906F90C4
:105430005F904F900C944229EE24E394F12CEC0EF3
:10544000FD1E812C912C5401A30192010E947547ED
:10545000F70161937F01FFEF8F1A9F0AAF0ABF0A1E
:10546000B901CA01611571058105910569F7CC245F
:10547000CA94DC2C7601C80CD91CEA1CFB1C14C095
:10548000E1E0F0E0EC0FFD1FEC0DFD1D80818A30A6
:1054900010F4805D01C0895C602F0E94422981E088
:1054A000C81AD108E108F108EFEFCE16DE06EE06C5
:1054B000FE0631F7A0960FB6F894DEBF0FBECDBF43
:1054C000DF91CF910F91FF90EF90DF90CF90BF9041
:1054D000AF909F908F907F906F905F904F900895C6
:1054E000CF93DF93C62F282F332727FD3095207FBA
:1054F000332764E0359527956A95E1F72A3014F053
:10550000295C01C0205D982F9F70D92F9A3014F02C
:10551000D95C01C0D05D6C2F822F0E9442296C2F74
:105520008D2FDF91CF910C944229CF92DF92EF9291
:10553000FF920F936B017C01042F97FF0CC0642F27
:105540008DE20E944229F094E094D094C094C11C52
:10555000D11CE11CF11C2AE030E040E050E0C70122
:10556000B6010E94E5290F91FF90EF90DF90CF9058
:1055700008950E94232782E093E10E94AA3C85348B
:1055800040F061E081E30E940B2861E081E30E942A
:10559000242861E070E082E093E10E94863B813044
:1055A000B1F480915A1390915B13A0915C13B09168
:1055B0005D13906880935A1390935B13A0935C13D0
:1055C000B0935D1360E081E090E00E941F4E87E29F
:1055D0000E946A28892B59F160E070E082E093E133
:1055E0000E94863B8A3019F5C1C06CE3629FA0011E
:1055F000639F500D1124840F951F0EC02115310596
:1056000059F06CE3629FA001639F500D11249A0131
:10561000205F314F820F931F039748F480916913E5
:1056200090916A13806290936A138093691388EA59
:1056300090E10E94973388EA90E10E94583388EA0B
:1056400090E10E94673388EA90E10E941F2F63E097
:1056500070E080E090E00E94D72680915A139091EC
:105660005B13A0915C13B0915D13A1FF5EC063E07A
:1056700070E080E090E00E94D72661E086E10E9421
:105680000B2863E070E080E090E00E94D72661E0A4
:1056900086E10E94242863E070E080E090E00E94B0
:1056A000D7260E94843763E070E080E090E00E949B
:1056B000D72681E00E94A73763E070E080E090E0A9
:1056C0000E94D72684E00E94B53763E070E080E056
:1056D00090E00E94D72680E00E94B03763E070E03F
:1056E00080E090E00E94D7260E94A33763E070E03C
:1056F00080E090E00E94D72666E087EF92E10E946A
:10570000C03763E070E080E090E00E94D72661E05F
:1057100086E10E940B2860E086E10E94242863E075
:1057200070E080E090E00E94D72663E070E080E0C7
:1057300090E00E94D72682E093E10E94843C60932F
:10574000A2107093A3108093A4109093A510809141
:10575000A2109091A310A091A410B091A5100E9446
:105760009A480E94A2030E94AA03FDCF88EA90E112
:105770000E94973388EA90E10E94E93188EA90E13B
:105780000E94DE318091C11090E02091C310821BF5
:1057900091092091C01030E04091C410241B3109C0
:1057A000121613060CF421CF29CF1F93CF93DF934A
:1057B0001F92CDB7DEB7162F61E08AE149830E94C0
:1057C0000B2861E088E10E940B284981112321F018
:1057D000113009F048C020C041110EC061E08AE1DB
:1057E0000E94242880915A1390915B13A0915C131E
:1057F000B0915D1382602FC04130A9F560E08AE16D
:105800000E94242880915A1390915B13A0915C13FD
:10581000B0915D138D7F1FC041110EC061E088E122
:105820000E94242880915A1390915B13A0915C13DD
:10583000B0915D1381600FC04130A9F460E088E150
:105840000E94242880915A1390915B13A0915C13BD
:10585000B0915D138E7F80935A1390935B13A09346
:105860005C13B0935D130F90DF91CF911F9108955A
:1058700080917A00806880937A0060FF10C061E0B8
:105880008AE10E940B2861E08AE10E94242861E0FD
:1058900088E10E940B2861E088E10C942428089597
:1058A0000F931F93CF93DF9361E089E10E940B2850
:1058B00061E089E10E94242861E070E080E090E0EE
:1058C0000E94D72680E00E94E027BC01882777FD50
:1058D0008095982F0E9428448B01D82FC92F20E053
:1058E00030E040E054E4FE01712F8F2F9E2F0E9484
:1058F000894387FF06C060E089E10E942428C0E058
:1059000055C020E030EC42E254E4FE01602F712FDC
:105910008F2F9E2F0E943D45181634F460E089E1D8
:105920000E942428C4E642C020E030EC42E254E465
:10593000FE01602F712F8F2F9E2F0E948943181612
:10594000ECF020E030EC47E054E4FE01602F712FD2
:105950008F2F9E2F0E943D45181684F425E535E5CE
:1059600045E55FE3FE01602F712F8F2F9E2F0E9470
:10597000484520E030E04DED53E40FC020E030E03A
:1059800040EA5EE3FE01602F712F8F2F9C2F0E9453
:10599000484520E030E040E253E40E94E9420E94A2
:1059A000FA43C62F60E089E10E9424288C2FDF9102
:1059B000CF911F910F91089561E089E20E940B2819
:1059C00061E088E20E940B2883E093E10C94F83CAC
:1059D0000F931F93CF93DF93EC01162F61E081E3C8
:1059E0000E940B2860E081E30E94242861E089E2A4
:1059F0000E940B2860E089E20E94242861E088E28E
:105A00000E940B2860E088E20E94242880917A009E
:105A10008F7780937A0061E08DE10E940B2860E02F
:105A20008DE10E94242861E08BE10E940B2860E058
:105A30008BE10E94242861E082E20E940B2860E052
:105A400082E20E942428012F017010FF0EC041E065
:105A500060E086EA90E10E94D52B41E061E086EAB1
:105A600090E10E94D52B10920A1380E00E94242915
:105A700011FF19C061E086E10E940B2860E086E119
:105A80000E94242840915A1350915B1360915C133B
:105A900070915D134B7F40935A1350935B13609347
:105AA0005C1370935D1381E00E9424290023A1F010
:105AB00080915A1390915B13A0915C13B0915D1388
:105AC00090FD0AC080915A1390915B13A0915C13D2
:105AD000B0915D1391FF72C088EA90E10E94E62EBA
