:100000000C94C9010C94FD150C942E160C945F16DB
:100010000C9490160C94C1160C94F2160C942317A1
:100020000C9454170C94F8010C94F8010C94F801FA
:100030000C94E7120C94F8010C94F8010C944313FF
:100040000C94F8010C94F8010C94F8010C94F8014C
:100050000C94F8010C94F8010C94F8010C941E1304
:100060000C94F8010C9447120C94F8010C94F801CC
:100070000C94F8010C94F8010C94F8010C94F8011C
:100080000C94F8010C94F8010C94F8010C94F8010C
:100090000C9482120C94F8010C94F8010C947510D5
:1000A0000C94F8010C94F8010C94F8010C94F801EC
:1000B0000C94F8010C94F8010C94F8010C94F801DC
:1000C0000C94F8010C94F8010C94F801506F7765CA
:1000D00072207465737400335633206F6E0033568C
:1000E00033206F6666000E01220148016F018F0107
:1000F000A701B501C501DA01F00101020D021402E8
:1001000031024F02650273028302A602AC02416C07
:1001100061726D204D6F6465206D617463686573F5
:1001200020005B446179203A20686F757273203A31
:10013000206D696E75746573203A207365636F6E08
:1001400064735D202D3E20005B44617465203A207D
:10015000686F757273203A206D696E7574657320CF
:100160003A207365636F6E64735D202D3E20005BE3
:10017000486F757273203A206D696E7574657320CF
:100180003A207365636F6E64735D202D3E20005BC3
:100190004D696E75746573203A207365636F6E6484
:1001A000735D202D3E20005B5365636F6E64735D4D
:1001B000202D3E20004F6E636520706572207365B0
:1001C000636F6E6400496E636F7272656374206161
:1001D0006C61726D206D6F6465005B253032753A1D
:1001E000253032753A253032753A253032755D004A
:1001F0005B253032753A253032753A253032755DDF
:10020000005B253032753A253032755D005B253054
:1002100032755D005B446179203A20686F757273B6
:10022000203A206D696E75746573205D202D3E2027
:10023000005B44617465203A20686F757273203AE0
:10024000206D696E75746573205D202D3E20005B06
:10025000486F757273203A206D696E757465735DB1
:10026000202D3E20005B4D696E757465735D202DF9
:100270003E20004F6E636520706572206D696E755B
:1002800074650025732C20253032752F253032758A
:100290002F253032752C20253032753A25303275B5
:1002A0003A25303275006572726F720025303275F2
:1002B0002563253032752563253032752563253059
:1002C00032752563253032752563253032752563F7
:1002D0002530327500000008090000000000000011
:1002E000000000000000000000000000000000000E
:1002F00000000000000000000000000000000000FE
:1003000000000000000000000102081010204080E2
:1003100004081020400202040810204080010280DE
:100320002040042001010204081020014080408088
:1003300001020804088004100402010505050503F4
:10034000030303010101040403060606060606066C
:100350000601040501050103020202020202010274
:100360000205050404030404010304070707002031
:100370002326292C2F32002225282B2E3134002130
:1003800024272A2D303319052F080E0D0A1C311C85
:10039000411D11241FBECFEFD1E2DEBFCDBF12E061
:1003A000A0E0B2E0E8EDF5E400E00BBF02C007908A
:1003B0000D92A034B107D9F719E0A0E4B2E001C072
:1003C0001D92AB39B107E1F713E0C2E9D3E000E0D9
:1003D00006C022970109FE010BBF0E94671FC638A5
:1003E000D10780E00807A9F70E94130D0C94EA22B8
:1003F0000C94000082E492E00E944F046CEC70E0E8
:1004000082E492E00C94FB0467ED70E082E492E0F9
:100410000E94FB0440E060E080E492E00E9422023F
:1004200040E069E080E492E00E94D6036EED70E067
:1004300082E492E00E94FB0443E069E080E492E001
:100440000C94D6031F93CF93DF931F92CDB7DEB7E3
:10045000162F61E08AE149830E942F0E61E088E156
:100460000E942F0E4981112321F0113009F048C05C
:1004700020C041110EC061E08AE10E94480E8091C7
:10048000810590918205A0918305B09184058260D9
:100490002FC04130A9F560E08AE10E94480E8091AA
:1004A000810590918205A0918305B09184058D7F8F
:1004B0001FC041110EC061E088E10E94480E80918A
:1004C000810590918205A0918305B091840581609A
:1004D0000FC04130A9F460E088E10E94480E80918D
:1004E000810590918205A0918305B09184058E7F4E
:1004F0008093810590938205A0938305B093840532
:100500000F90DF91CF911F91089561E089E20E94E1
:100510002F0E61E088E20E942F0E88E492E00C9496
:10052000DE060F931F93CF93DF93EC01162F61E04C
:1005300081E30E942F0E60E081E30E94480E61E09B
:1005400089E20E942F0E60E089E20E94480E61E07D
:1005500088E20E942F0E60E088E20E94480E80919F
:100560007A008F7780937A0061E08DE10E942F0EF0
:1005700060E08DE10E94480E61E08BE10E942F0E49
:1005800060E08BE10E94480E61E082E20E942F0E43
:1005900060E082E20E94480E012F017010FF0EC041
:1005A00041E060E080E492E00E94220241E061E0EC
:1005B00080E492E00E94220210924F0280E00E94AA
:1005C000191211FF19C061E086E10E942F0E60E050
:1005D00086E10E94480E409181055091820560910C
:1005E0008305709184054B7F40938105509382056C
:1005F000609383057093840581E00E9419120023A3
:10060000A1F08091810590918205A0918305B09120
:10061000840590FD0AC08091810590918205A0918A
:100620008305B091840591FF72C086E992E00E9433
:10063000420861E080E30E942F0E60E080E30E94A8
:10064000480ECE010E94850261E089E10E942F0ED2
:1006500060E089E10E94480E409181055091820539
:10066000609183057091840544FF15C040E060E00F
:10067000CE010E94220261E08AE00E942F0E61E01A
:1006800089E00E942F0E61E08AE00E94480E61E03E
:1006900089E00E94480E8091810590918205A09189
:1006A0008305B091840586FF04C060E089E00E9464
:1006B000480E8091810590918205A0918305B091AB
:1006C000840585FF18C060E084E00E94480E60E069
:1006D00082E00E94480E60E087E00E94480E60E0E1
:1006E0008AE00E94480E60E086E00E94480E60E0CA
:1006F0008EE00E94480E60E08BE20E942F0E60E0C8
:100700008BE2DF91CF911F910F910C94480E61E025
:1007100086E00E942F0E60E086E00E94480E85CFA2
:1007200061E08DE20E942F0E60E08DE20E94480E93
:1007300087E20E948E0E892B41F086E992E00E94AA
:10074000F30C86E992E00E94DD0C86E20E948E0E98
:10075000019721F586EB93E00E94061C8091BB0374
:10076000823071F018F48130C9F405C0833069F02B
:100770008430A1F40FC086EB93E00E94D31B0EC01F
:1007800086EB93E00E94311B09C086EB93E00E9448
:10079000C31A04C086EB93E00E94881A60E08BE2E3
:1007A0000E942F0E60E08BE20C94480EEF92FF92B5
:1007B0000F931F93CF93DF931F92CDB7DEB77C01CA
:1007C000162F87E492E049830E94540561E08DE290
:1007D0000E942F0E60E08DE20E94480E86E992E0B2
:1007E0000E94F30C86E992E00E947B084981642F05
:1007F000C7010E94910264E670E080E090E00E94F0
:10080000BA130BE00CC061E070E080E090E00E9461
:10081000BA1380E492E00E9490030150C1F18BE290
:100820000E948E0E019779F393B7917F946093BFE6
:1008300093B7916093BF64E070E080E090E00E9425
:100840008517812F0E94CA1283B7816083BF889564
:1008500083B78E7F83BF83B78E7F83BF80919005E0
:100860009091910581FF13C086E992E00E94F30CFC
:1008700086E992E00E94DD0C86E992E00F90DF911C
:10088000CF911F910F91FF90EF900C947B080F90E8
:10089000DF91CF911F910F91FF90EF900895FC0190
:1008A000408160E072EC81E090E00E94A51161E07F
:1008B00087E10E942F0E61E087E10E94480E61E00F
:1008C0008BE00E942F0E60E08BE00E94480E61E0FA
:1008D0008DE20E942F0E60E08DE20C94480EDC0148
:1008E0008091C50011968C9311978091C400129647
:1008F0008C931297E2ECF0E0808113968C9313971F
:100900008091CA0014968C93149780818F7D808388
:1009100080818F7E80838081877F80834C9160E09F
:1009200072EC81E090E00E94A51161E087E10E94F5
:10093000480E60E08BE00C94480ECF93DF93EC01FF
:1009400040918105509182056091830570918405E5
:1009500063E070E080E090E042FF07C00E94BA13BD
:1009600061E08BE00E94480E02C00E94BA138981A8
:100970008093C5008A818093C4008B818093C200DC
:100980008C818093CA00DF91CF910895EF92FF92FE
:100990000F931F93CF93DF938C01EB010E946F04A1
:1009A0007E0188E1E81A8CEFF80AFE012196849115
:1009B000882339F0F80160810E94BD12CE15DF0551
:1009C000A1F7C8010E949D0460E070E0CB01DF91B7
:1009D000CF911F910F91FF90EF900895CF93DF93E8
:1009E000EC010E946F0488810E94BF12CE01DF914A
:1009F000CF910C949D04EF92FF920F931F93CF938E
:100A0000DF9300D0CDB7DEB77C010E94C6048C0115
:100A1000C70169837A830E94EE0469817A81C801E3
:100A20000F900F90DF91CF911F910F91FF90EF905A
:100A300008951092420208951F93CF93DF931F925F
:100A4000CDB7DEB7162F61E0812F49830E942F0EAC
:100A50004981413011F461E003C0411108C060E0F8
:100A6000812F0F90DF91CF911F910C94480E0F9022
:100A7000DF91CF911F91089561E087E10E942F0ED1
:100A800061E084E20E942F0E61E085E20E942F0E59
:100A900061E087E10E94480E61E084E20E94480E16
:100AA00061E085E20C94480E61E087E10E942F0E20
:100AB00061E08BE00E942F0E60E087E10E94480E0B
:100AC00060E08BE00E94480E60E084E20E94480EE5
:100AD00060E085E20C94480ECB010C941E228F92AC
:100AE0009F92AF92BF92CF92DF92EF92FF920F93BD
:100AF0001F93CF93DF93CDB7DEB7C75FD1090FB692
:100B0000F894DEBF0FBECDBF8E0100511F4F5801BC
:100B100028E0A20EB11C7E0181E8E80EF11CCC2475
:100B2000C394D12CCC0EDD1E6DE0CE018F519F4FB2
:100B30000E94CC1940E06CE087E492E00E941C0522
:100B400040E06DE087E492E00E941C05F80110820D
:100B500011821282138261E08CE00E942F0E61E00C
:100B60008CE00E94480ECE018F519F4F0E94AC181E
:100B700041E06DE087E492E00E941C056AE070E0CD
:100B800080E090E00E94BA1340E063E3CE018F5111
:100B90009F4F0E947D1962E370E080E090E00E9428
:100BA000BA134701CE018F519F4F0E945219F2E0B4
:100BB0008F1A9108F4018083118261E070E080E077
:100BC00090E00E94BA138C149D0461F7FE017196A7
:100BD000D701C60180599F4F219131912D933D93AB
:100BE000E817F907C9F731EE832E912C8C0E9D1E64
:100BF00081E090E0A0E0B0E0F401329122914F0159
:100C00002130310569F4F80140815181628173819D
:100C1000480F591F6A1F7B1F408351836283738370
:100C2000880F991FAA1FBB1F8E149F0429F7F80174
:100C300080819181A281B3818F3F9F4FAF4FBF4F82
:100C400029F4F801108211821282138260E08CE094
:100C50000E94480E40E06CE087E492E00E941C0590
:100C600040E06DE087E492E00E941C050C5F1F4F9E
:100C70000A151B0509F058CFC051DF4F08811981B3
:100C80002A813B81C05FD040CC50DF4F8881998161
:100C9000AA81BB81C45FD040081719072A073B0708
:100CA00019F000E010E09801B801C901C950DF4F08
:100CB0000FB6F894DEBF0FBECDBFDF91CF911F916D
:100CC0000F91FF90EF90DF90CF90BF90AF909F90EB
:100CD0008F900895CF92DF92EF92FF920E946F055E
:100CE0006B017C01611571058105910591F483EE1D
:100CF00090E00E9426226A302AE07207820792075B
:100D000041F06F3F2FEF72078207920711F06B01DE
:100D10007C01B601C701FF90EF90DF90CF9008955E
:100D20008FED90E00E941E228F3F09F480E008952D
:100D3000CF93DF93EC0180E2E6E7F2E0DF01982F4A
:100D40001D929A95E9F71092750210927402E3E5EC
:100D5000F2E0DF011D928A95E9F71092520210929B
:100D600051020E94D40E81E08E8384E090E0DF91F6
:100D7000CF910C94E41381E080935002609373024E
:100D8000109252021092510208950C94BB06809169
:100D9000740290917502891B08959091750280915B
:100DA0007402981748F4E92FF0E0EA58FD4F80816B
:100DB0009F5F90937502089580E00895CF93DF932D
:100DC000EC010E94200F1E82DF91CF910895409187
:100DD0008105509182056091830570918405417071
:100DE000FC0140834091810550918205609183050B
:100DF0007091840576956795579547954170418325
:100E00008091810590918205A0918305B091840520
:100E100084FD49C08091810590918205A091830550
:100E2000B091840585FD3FC0809181059091820538
:100E3000A0918305B091840586FD35C08091810520
:100E400090918205A0918305B091840587FD2BC008
:100E50008091810590918205A0918305B0918405D0
:100E600090FD21C08091810590918205A09183051C
:100E7000B091840591FD17C0809181059091820504
:100E8000A0918305B091840593FD0DC0089540E0C5
:100E900060E080E492E00E94220240E061E080E4B1
:100EA00092E00C94220280914F02882381F30895EE
:100EB000CF93DF93EC018091810590918205A09101
:100EC0008305B091840584FD58C08091810590917F
:100ED0008205A0918305B091840585FD4EC0809167
:100EE000810590918205A0918305B091840586FDCE
:100EF00044C08091810590918205A0918305B091B5
:100F0000840587FD3AC08091810590918205A0916A
:100F10008305B091840590FD30C0409181055091CA
:100F20008205609183057091840551FD26C0409132
:100F3000810550918205609183057091840553FD70
:100F40001CC020C041E060E080E492E00E942202E8
:100F50000CC08981811106C041E060E080E492E02C
:100F60000E942202888181110DC041E061E080E48D
:100F700092E0DF91CF910C94220280914F02811177
:100F8000E8CFE0CFDF91CF910895CF93DF931F9209
:100F9000CDB7DEB7698380915002882389F08091B4
:100FA00051028032D0F480915202E82FF0E0ED5AE5
:100FB000FD4F60838F5F80935202809351020DC07A
:100FC00088E492E00E94E70661E0CE0101960E946B
:100FD000010F88E492E00E9458070F90DF91CF91B3
:100FE00008950C94C507CF9388E492E00E94E70629
:100FF00021E04091510263E572E0809173020E940A
:10100000C40FC82F10925202109251021092500237
:1010100088E492E00E9458078C2FCF910895CF93D7
:10102000DF93D62FC42F88E492E00E94E706C132F6
:1010300008F0C0E24C2F66E772E08D2F0E94291065
:10104000D82F10927502C093740288E492E00E9437
:1010500058078D2FDF91CF9108950C940F081092AF
:101060004F0210924802109249028AEF90E0A0E0ED
:10107000B0E080934A0290934B02A0934C02B0934D
:101080004D02089580914E02882341F08091BA0369
:10109000811104C080E492E00C94850208950F93BE
:1010A0001F93CF93DF93EC01042F68A761E080E3E7
:1010B0000E942F0E18A5112379F0113091F461E0F0
:1010C00080E30E94480E013019F482E08B8B09C046
:1010D000011107C01B8B05C060E080E30E94480E31
:1010E0001B8A6AE070E080E090E0DF91CF911F9171
:1010F0000F910C94BA13CF93DF93EC010E94420836
:1011000040E060E0CE01DF91CF910C944F08FC01EC
:10111000148A158A168A178A108E118E128E138ED3
:10112000148E158E168E178E10A211A212A213A263
:1011300014A215A216A217A20895EF92FF920F9380
:101140001F93CF93DF93CDB7DEB7EC970FB6F8942C
:10115000DEBF0FBECDBF8C01E8E0F1E08591949138
:10116000BC01EE24E394F12CEC0EFD1EC7010E949D
:10117000CA1FEAE0F1E085919491BC01CE01899605
:101180000E94CA1FF8018689843009F466C040F4C1
:10119000823029F108F04BC0813009F0B6C009C097
:1011A000863009F486C008F46EC0873009F0ADC0FF
:1011B00096C0F801818D1F928F93808D1F928F931F
:1011C00087891F928F93828D1F928F9385891F929B
:1011D0008F9384891F928F938BE092E015C0F80162
:1011E000818D1F928F93808D1F928F9387891F927D
:1011F0008F93828D1F928F9385891F928F938489FD
:101200001F928F938FE092E09F938F93FF92EF92C4
:101210001F9284E68F93C80189969F938F930E94B3
:10122000DC1F0FB6F894DEBF0FBECDBF81C0F80142
:10123000818D1F928F93808D1F928F9387891F922C
:101240008F93828D1F928F9385891F928F938489AC
:101250001F928F9383E192E0D7CFF801818D1F9287
:101260008F93808D1F928F9387891F928F93828D8A
:101270001F928F9385891F928F9384891F928F93DA
:1012800087E192E0C1CFF801818D1F928F93808D0D
:101290001F928F9387891F928F93828D1F928F93B6
:1012A00085891F928F9384891F928F938BE192E09F
:1012B000ABCFF801818D1F928F93808D1F928F93FA
:1012C00087891F928F93828D1F928F9385891F929A
:1012D0008F9384891F928F938FE192E095CFF801CD
:1012E000818D1F928F93808D1F928F9387891F927C
:1012F0008F93828D1F928F9385891F928F938489FC
:101300001F928F9383E292E07FCFCE0189969F93C5
:101310008F931F9284E68F93C80189969F938F9332
:101320000E94DC1F0F900F900F900F900F900F9066
:10133000075D1F4FC801EC960FB6F894DEBF0FBED5
:10134000CDBFDF91CF911F910F91FF90EF90089546
:10135000CF92DF92EF92FF920F931F93CF93DF9381
:101360008C01C62E80914E02811104C088E492E067
:101370000E94980668E670E088E492E00E94C50644
:1013800060E070E088E492E00E94F10788E492E077
:101390000E94F30743E150E068E670E088E492E0E1
:1013A0000E942D08E12CF12CC0E0D0E0D12CE4C04B
:1013B00088E492E00E94CD06F801EC0FFD1F8083C7
:1013C000C630D10509F467C098F4C230D10509F4DC
:1013D0003EC038F4209729F1C130D10509F0C7C0CB
:1013E0002BC0C430D10509F440C008F049C03AC050
:1013F000CA30D10509F484C048F4282F30E0C83041
:10140000D10509F461C008F06DC050C0CC30D105E1
:1014100009F492C008F482C0CD30D10509F0A7C00C
:1014200099C0982F92959F708F702AE0929F800D9F
:101430001124F801818F9BC0982F92959F708F7017
:10144000FAE09F9F800D1124F801808F90C0982FA3
:1014500092959F708F70FAE09F9F800D1124F80184
:10146000878B85C0F801868B82C0982F92959F70DC
:101470008F70FAE09F9F800D1124F801828F77C052
:10148000982F92959F708F70FAE09F9F800D112486
:10149000F801858B6CC0982F92959F708F70FAE041
:1014A0009F9F800D1124F801848B61C054E0359515
:1014B00027955A95E1F727708F70FAE02F9F800DDE
:1014C0001124F801838F53C044E0359527954A9540
:1014D000E1F727708F70FAE02F9F800D1124F8013B
:1014E000848F45C094E0359527959A95E1F7237050
:1014F0008F70FAE02F9F800D1124F801858F37C07F
:10150000282F2695269526952670922F990F990FAC
:10151000920F8F70980FF801968F29C0282F26956B
:10152000269526952E70922F990F990F920F8F70F6
:10153000980FF801978F1BC0282F26952695269582
:101540002670922F990F990F920F8F70980FF801B4
:1015500090A30DC0282F2695269526952670922FAC
:10156000990F990F920F8F70980FF80191A3219600
:1015700003C0FFEFEF1AFF0ACC16DD0658F02AE091
:10158000E216F10438F488E492E00E94C70688234A
:1015900081F30ECFDF91CF911F910F91FF90EF90CC
:1015A000DF90CF9008951F93CF93DF93EC01162F18
:1015B00080914E02811104C088E492E00E94980656
:1015C00068E670E088E492E00E94C506612F88E436
:1015D00092E00E94C507C10FD11D688188E492E0A6
:1015E0000E94C50788E492E0DF91CF911F910C948F
:1015F000F307FF920F931F93CF93DF938C01F62E87
:1016000080914E02811104C088E492E00E94980605
:1016100068E670E088E492E00E94C5066F2D88E4D9
:1016200092E00E94C50788E492E00E94F30741E03F
:1016300050E068E670E088E492E00E942D08CBE07C
:10164000D0E088E492E00E94C706811102C0219791
:10165000C1F788E492E00E94CD06F801EF0DF11D7C
:10166000808388E492E0DF91CF911F910F91FF90EA
:101670000C94F307CF93DF93EC0166E00E94A80976
:10168000CE01DF91CF910C949D08CF92DF92EF9223
:10169000FF920F931F93CF93DF93CDB7DEB7C85759
:1016A000D1090FB6F894DEBF0FBECDBF7C016AE052
:1016B0000E94A8098701075D1F4F84E6F801119277
:1016C0008A95E9F7E6EEF0E085919491BC01CE01B0
:1016D0008F5A9F4F0E94CA1FBE016F5A7F4FC80189
:1016E0000E94D11FF70182A1823009F46AC030F450
:1016F000882369F0813009F00BC122C0843009F4DD
:10170000C7C008F493C0853009F002C1F0C0E8EE0C
:10171000F0E085919491BC01CE018F5A9F4F0E94B9
:10172000CA1FBE016F5A7F4FC8010E94D11FE6EF4A
:10173000F0E0859194916E01F9E2CF0ED11C18C0B2
:10174000EAEEF0E085919491BC01CE018F5A9F4F53
:101750000E94CA1FBE016F5A7F4FC8010E94D11F4D
:10176000E6EFF0E0859194916E01E9E2CE0ED11C96
:10177000BC01C6010E94CA1FF701838D1F928F937F
:10178000848D1F928F93858D1F928F93868D1F92CC
:101790008F93DF92CF921F9288E28F93EE24E3948F
:1017A000F12CEC0EFD1EFF92EF920E94DC1FB701A0
:1017B000C8010E94D11F0FB6F894DEBF0FBECDBF87
:1017C000C2C0ECEEF0E085919491BC01CE018F5A3D
:1017D0009F4F0E94CA1FBE016F5A7F4FC8010E94CF
:1017E000D11FE8EFF0E0859194916E01E9E2CE0E11
:1017F000D11CBC01C6010E94CA1FF701838D1F9234
:101800008F93848D1F928F93858D1F928F93DF927C
:10181000CF921F9288E28F93EE24E394F12CEC0E8A
:10182000FD1EFF92EF920E94DC1FC1CFEEEEF0E0B2
:1018300085919491BC01CE018F5A9F4F0E94CA1F7F
:10184000BE016F5A7F4FC8010E94D11FEAEFF0E03E
:10185000859194916E01E9E2CE0ED11CBC01C601C6
:101860000E94CA1FF701838D1F928F93848D1F9250
:101870008F93DF92CF921F9288E28F93EE24E394AE
:10188000F12CEC0EFD1EFF92EF920E94DC1F8FCF19
:10189000E0EFF0E085919491BC01CE018F5A9F4F0B
:1018A0000E94CA1FBE016F5A7F4FC8010E94D11FFC
:1018B000ECEFF0E0859194916E01E9E2CE0ED11C3F
:1018C000BC01C6010E94CA1FF701838D1F928F932E
:1018D000DF92CF921F9288E28F93EE24E394F12C53
:1018E000EC0EFD1EFF92EF920E94DC1F60CFE2EF34
:1018F000F0E085919491BC01CE018F5A9F4F0E94D8
:10190000CA1FBE016F5A7F4FC8010E94D11F1BC062
:10191000E4EFF0E0859194917E01E1E5EE0EF11C9B
:10192000BC01C7010E94CA1FFF92EF921F9284E67A
:101930008F931F930F930E94DC1F0F900F900F90B7
:101940000F900F900F90C801C858DF4F0FB6F89452
:10195000DEBF0FBECDBFDF91CF911F910F91FF90E2
:10196000EF90DF90CF900895CF93DF93EC016EE07E
:101970000E94F90A8E858E7F8E876EE0CE01DF9100
:10198000CF910C94D30ACF93DF93EC016EE00E94C9
:10199000F90A8E858D7F8E876EE0CE01DF91CF9123
:1019A0000C94D30ACF93DF93EC016FE00E94F90A05
:1019B0008F858370DF91CF910895CF93DF93EC01F2
:1019C0000E94D20C882319F0CE56DF4F8883809175
:1019D000A5028C7F8093A5026FE086E992E0DF91FB
:1019E000CF910C94D30ACF93DF93EC0140E061E0F8
:1019F0000E944F08CE010E94DD0CCE010E94870894
:101A00006DE0CE010E94A80961E08BE20E942F0EDA
:101A100060E08BE2DF91CF910C94480E1092270387
:101A20001092A90208950E94061487E492E00E9491
:101A30009006853440F061E081E30E942F0E61E062
:101A400081E30E94480E61E070E087E492E00E942A
:101A50006C058130B1F48091810590918205A0914F
:101A60008305B091840590688093810590938205E9
:101A7000A0938305B093840560E081E090E00E942C
:101A80002C2287E20E948E0E892B59F160E070E0D3
:101A900087E492E00E946C058A3019F5C1C06CE3BE
:101AA000629FA001639F500D1124840F951F0EC0EB
:101AB0002115310559F06CE3629FA001639F500D21
:101AC00011249A01205F314F820F931F039748F42E
:101AD00080919005909191058062909391058093FB
:101AE000900586E992E00E94F30C86E992E00E945C
:101AF000B40C86E992E00E94C30C86E992E00E9451
:101B00007B0863E070E080E090E00E94BA1380916F
:101B1000810590918205A0918305B0918405A1FF74
:101B20005EC063E070E080E090E00E94BA1361E084
:101B300086E10E942F0E63E070E080E090E00E945A
:101B4000BA1361E086E10E94480E63E070E080E035
:101B500090E00E94BA130E94351C63E070E080E0C0
:101B600090E00E94BA1381E00E94581C63E070E08C
:101B700080E090E00E94BA1384E00E94661C63E05B
:101B800070E080E090E00E94BA1380E00E94611C47
:101B900063E070E080E090E00E94BA130E94541C61
:101BA00063E070E080E090E00E94BA1366E08BE7AB
:101BB00095E00E94711C63E070E080E090E00E947C
:101BC000BA1361E086E10E942F0E60E086E10E9478
:101BD000480E63E070E080E090E00E94BA1363E09A
:101BE00070E080E090E00E94BA1387E492E00E94E7
:101BF0006A066093290370932A0380932B039093C2
:101C00002C038091290390912A03A0912B03B0917A
:101C10002C030E94BF1F0E94FA010E940402FDCF04
:101C200086E992E00E94F30C86E992E00E94450B5F
:101C300086E992E00E943A0B8091AF0290E02091F9
:101C4000B102821B91092091AE0230E04091B202B4
:101C5000241B3109121613060CF421CF29CF90E072
:101C6000FC01E85FFC4F2491FC01E55CFC4FE49132
:101C7000EE2369F0F0E0E258FC4FA491B0E08C91C3
:101C8000611103C02095822301C0822B8C9308959B
:101C900090E0FC01EB52FD4F2491FC01E85FFC4F0A
:101CA0003491FC01E55CFC4F84918823B1F122233F
:101CB00031F1233021F4909180009F7705C02430CA
:101CC00031F4909180009F7D9093800018C0213066
:101CD00019F494B59F7704C0223021F494B59F7D08
:101CE00094BD0DC0263021F49091B0009F7705C0BF
:101CF000273029F49091B0009F7D9093B000E82F99
:101D0000F0E0EA58FC4FA491B0E08C91611103C05F
:101D10003095832301C0832B8C93089590E0FC01C0
:101D2000EB52FD4F2491FC01E85FFC4F3491FC0124
:101D3000E55CFC4F8491882399F1222331F1233013
:101D400021F4909180009F7705C0243031F4909168
:101D500080009F7D9093800018C0213019F494B5C5
:101D60009F7704C0223021F494B59F7D94BD0DC0AF
:101D7000263021F49091B0009F7705C0273029F4D8
:101D80009091B0009F7D9093B000E82FF0E0E25971
:101D9000FC4FE491F0E08081832321E030E011F4F6
:101DA00020E030E0C901089510923603E4E6F0E047
:101DB00080818F778083589A599AE9EBF0E080818F
:101DC0008E7F808380818D7F808381E48093B800C3
:101DD00085E48093BC0080E2E7E3F3E0DF01982F25
:101DE0001D929A95E9F7E7E5F3E0DF01982F1D9240
:101DF0009A95E9F7E7E7F3E0DF011D928A95E9F7A5
:101E00000895613298F420913603243089F4609368
:101E10003303FC0187E593E0DC0102C021912D939F
:101E20002A2F281B2617D0F380E0089581E008951B
:101E300082E0089585EC8093BC00109236030895EB
:101E4000589859988091B90081608093B900809129
:101E5000B90082608093B9008091BC008068809353
:101E6000BC008091BC0080618093BC008091BC006C
:101E70008F7B8093BC008091BC008F7D8093BC00E1
:101E80008091BC00877F8093BC00809181059091F8
:101E90008205A0918305B091840586FD14C08091D0
:101EA000810590918205A0918305B091840590FDF4
:101EB0000AC08091810590918205A0918305B0911F
:101EC000840593FF04C08091BC008B7F03C0809188
:101ED000BC0084608093BC008091BC008E7F8093A6
:101EE000BC0080916400806880936400089588231A
:101EF00049F010922D0310922E0310922F0310928E
:101F0000300313C080912D0390912E03A0912F03D5
:101F1000B09130030196A11DB11D80932D039093C4
:101F20002E03A0932F03B093300380912D03909143
:101F30002E03A0912F03B0913003803A9648A14020
:101F4000B10560F010922D0310922E0310922F0312
:101F5000109230030E94D40E81E0089580E008952D
:101F600085ED8093BC0081E00E94770F08C080E07F
:101F70000E94770F882319F01092360308958091FC
:101F8000BC0084FDF4CFF8CFFF920F931F93CF9343
:101F9000DF93182F062FF72EC42FD22F81E0413266
:101FA00008F051C00E94770F15C080E00E94770FA3
:101FB000882381F082E0809336038FEF8093310392
:101FC00010923503C0939703E02FFF2D67E373E072
:101FD000DB0107C0809136038111E7CFEBCF819100
:101FE0008D938A2F861B8C17D0F3812F90E0880F5A
:101FF000991F8093980385EE8093BC0081E00E9436
:10200000770FD11105C0809131038F3F59F414C06F
:10201000809136038230B9F780E00E94770F8111FA
:102020000DC0F6CF80913103803251F080913103A1
:10203000803341F483E007C080E005C085E003C041
:1020400082E001C084E0DF91CF911F910F91FF905A
:1020500008950F931F93CF93DF93082FD62F172F39
:10206000C42F81E04132E0F50E94770F1DC080E06F
:102070000E94770F8823C1F081E0809336038FEFB1
:102080008093310310923503C0939703802F90E023
:10209000880F991F81608093980385EE8093BC0020
:1020A00081E00E94770F10C0809136038111DFCF4D
:1020B000E3CF80E00E94770F882331F087E393E03D
:1020C000ED2FF12FDC0107C080913603813089F3B9
:1020D000F5CF2D9121932A2F281B2C17D0F380E0C8
:1020E000DF91CF911F910F9108951F920F920FB61C
:1020F0000F9211240BB60F922F933F934F935F9340
:102100006F937F938F939F93AF93BF93CF93EF93EF
:10211000FF93C091B900C87FC03609F49FC058F53D
:10212000C83209F45BC090F4C03109F452C038F4ED
:10213000CC2309F4F2C0C83009F0F3C04AC0C8315A
:1021400009F44CC0C03209F0ECC05DC0C03409F4E1
:1021500073C038F4C03309F45BC0C83309F0E1C080
:102160005AC0C03509F45CC0C83509F46AC0C83427
:1021700009F0D7C0D4C0C83909F4C5C0A8F4C8371D
:1021800009F46CC038F4C83609F468C0C03709F0E7
:10219000C8C064C0C83809F4B6C0C03909F464C006
:1021A000C03809F0BEC060C0C03B09F484C038F438
:1021B000C03A09F46BC0C83A09F0B3C07CC0C03C57
:1021C00009F4A5C0C83C09F4A2C0C83B09F0A9C0E5
:1021D00087C0809198038093BB0013C09091350312
:1021E00080919703981708F09AC080913503E82FE3
:1021F000F0E0E95CFC4F90819093BB008F5F80938F
:10220000350385EC81C00E94B00FC093310389C0B3
:10221000C093310384C0C09331030E941A0F81C060
:10222000809135039091BB00E82FF0E0E95CFC4F12
:1022300090838F5F8093350390913503809197034E
:102240005FC0809135039091BB00E82FF0E0E95C1E
:10225000FC4F90838F5F8093350361C083E0809350
:10226000360310923203CDCF80913203803208F0D2
:102270004AC0809132039091BB00E82FF0E0E9580A
:10228000FC4F90838F5F80933203BBCF80913203EA
:10229000803230F4E0913203F0E0E958FC4F1082D4
:1022A00060913203E0919903F0919A0370E087E71F
:1022B00093E009952CC084E0809336031092340398
:1022C00010923303E0919B03F0919C030995809158
:1022D0003303811105C081E08093330310925703CB
:1022E00080913403E82FF0E0E95AFC4F90819093FD
:1022F000BB008F5F8093340390913403809133034C
:10230000981708F47ECF85E88093BC000AC085EC5E
:102310008093BC001092360304C0109231030E94D7
:10232000B00FFF91EF91CF91BF91AF919F918F919E
:102330007F916F915F914F913F912F910F900BBEC5
:102340000F900FBE0F901F901895CF92DF92EF92D3
:10235000FF926B017C01411134C088E00E9461143E
:10236000C701B60122E030E040E050E00E94D41EF8
:10237000305F414F5F4FCA01B901A70196010E942A
:10238000D41EDA01C9010197A109B109892F9A2F39
:10239000AB2FBB27A7FDBA958093C5002150209392
:1023A000C4008091C10080618093C1008091C10010
:1023B00088608093C1008091C10080688093C100D3
:1023C00033C080E10E946114C701B60122E030E011
:1023D00040E050E00E94D41E305F414F5F4FCA0181
:1023E000B901A70196010E94D41EDA01C901019723
:1023F000A109B109892F9A2FAB2FBB27A7FDBA9549
:102400008093CD0021502093CC008091C900806141
:102410008093C9008091C90088608093C900809131
:10242000C90080688093C900FF90EF90DF90CF9043
:10243000089581110EC088E00E949B148091C10014
:102440008F7E8093C1008091C100877F8093C100FF
:10245000089580E10E949B148091C9008F7E809333
:10246000C9008091C900877F8093C90008956111D8
:1024700007C09091C00095FFFCCF8093C6000895DF
:102480009091C80095FFFCCF8093CE0008951F92D5
:102490000F920FB60F9211242F933F934F935F9398
:1024A0006F937F938F939F93AF93BF93EF93E0913D
:1024B000C6002091A3033091A403C901019660E0F6
:1024C00072E00E949E1E4091A1035091A2038417C6
:1024D000950741F0D901AD56B84FEC939093A40302
:1024E0008093A303EF91BF91AF919F918F917F91C3
:1024F0006F915F914F913F912F910F900FBE0F9071
:102500001F9018951F920F920FB60F9211242F93C0
:102510003F934F935F936F937F938F939F93AF936B
:10252000BF93EF93E091CE0020919F033091A003E1
:10253000C901019660E072E00E949E1E40919D03D9
:1025400050919E038417950741F0D901AD56BA4FBB
:10255000EC939093A00380939F03EF91BF91AF9171
:102560009F918F917F916F915F914F913F912F91AB
:102570000F900FBE0F901F9018950C943712CF93A9
:10258000C82F682F8DE00E9437126C2F8AE0CF9100
:102590000C943712F89410920A028A3008F089E0FD
:1025A000982F9770883008F09062906184B7877F89
:1025B00084BF809160008861809360009093600088
:1025C00080916000806480936000789408951F92E9
:1025D0000F920FB60F9211240BB60F922F933F93C9
:1025E0004F935F936F937F938F939F93AF93BF931B
:1025F000EF93FF93F89481E080930A02E0E6F0E025
:1026000080818068808380818F7B808360E083E02D
:102610000E94480E7894FF91EF91BF91AF919F91E6
:102620008F917F916F915F914F913F912F910F907B
:102630000BBE0F900FBE0F901F9018951F920F9218
:102640000FB60F9211248F939F93AF93BF938091F6
:10265000930990919409A0919509B09196090196DA
:10266000A11DB11D8093930990939409A09395099E
:10267000B0939609BF91AF919F918F910F900FBE2C
:102680000F901F9018951F920F920FB60F92112462
:102690008F939F93AF93BF938091970990919809DF
:1026A000A0919909B0919A090196A11DB11D80933D
:1026B000970990939809A0939909B0939A09BF91AB
:1026C000AF919F918F910F900FBE0F901F90189513
:1026D0008F929F92AF92BF92CF92DF92EF92FF9232
:1026E0000F931F93CF93DF932FB7F89480919309A3
:1026F00090919409A0919509B09196092FBF9C01E2
:10270000AD0160E070E080E090E001E00E944F1FCA
:102710004901D42FC52FB62FA72FF82FE92F02E09C
:102720000E944F1F59016A017B018C0194014D2FBA
:102730005C2F6B2F7A2F8F2F9E2F0E945E1FE9E058
:10274000AE2EB12CC12CD12CE12CF12C00E010E0EC
:102750000E94F21E952FB901842FDF91CF911F9116
:102760000F91FF90EF90DF90CF90BF90AF909F9030
:102770008F9008958F929F92AF92BF92CF92DF92E7
:10278000EF92FF924B015C0107C00E9468136C1529
:102790007D058E059F0520F40E9468136B017C0166
:1027A0000E9468136C197D098E099F0968157905C7
:1027B0008A059B0550F3FF90EF90DF90CF90BF907C
:1027C000AF909F908F900895BC01049768F080E0CF
:1027D00090E00E947A1D26E636E646EE5FE30E9410
:1027E000081E0E944E1D02C0660F771F61507109BE
:1027F00061F06150710949F0FB01EE0FFF1F319745
:102800008FB7F8943197F1F78FBF0895789484B714
:10281000877F84BF109293091092940910929509B2
:102820001092960984B5826084BD84B5816084BDB0
:1028300085B5826085BD85B5816085BDEEE6F0E039
:10284000808181608083E1E8F0E080818260808324
:10285000808181608083E0E8F0E080818160808316
:10286000E1EBF0E0808184608083E1E9F0E0808149
:1028700084608083E0EBF0E0808181608083E0E928
:10288000F0E0808181608083E4E6F0E080818E7FEB
:102890008083ECE7F0E080818F77808380818064A3
:1028A0008083EAE7F0E080818460808380818260B9
:1028B00080838081806880831092C1001092C9005B
:1028C00008959091A503982B9093A50380FF32C0A3
:1028D000809164008E7F8093640080917C008F776C
:1028E00080937C0080917C00806480937C00809148
:1028F0007A00846080937A0080917A00826080936D
:102900007A0080917A00806880937A0080916400D8
:102910008F7780936400809164008B7F8093640044
:10292000809164008D7F80936400809165008E7F2C
:10293000809365000895282F20959091A5039223F8
:102940009093A50380FF1EC080917A008F778093BB
:102950007A008091640081608093640080916400BB
:102960008068809364008091640084608093640038
:102970008091640082608093640080916500816032
:10298000809365000895F89480918D0590918E054F
:1029900080FF18C086E20E948E0E892B99F08091EC
:1029A0008F058F5F80938F058091900590919105A1
:1029B00081609093910580939005809185058F5F4C
:1029C0008093850580918D0590918E0581FF18C0BB
:1029D00087E20E948E0E892B99F080918F058F5F80
:1029E00080938F05809190059091910582609093DE
:1029F000910580939005809186058F5F8093860571
:102A000080918D0590918E0583FF1CC088E00E9407
:102A10008E0E892BB9F080918F058F5F80938F0583
:102A200060E085E00E94480E8091900590919105AC
:102A300088609093910580939005809188058F5FC1
:102A40008093880580918D0590918E0587FF18C031
:102A50008DE20E948E0E892B99F080918F058F5FF9
:102A600080938F0580919005909191058068909357
:102A700091058093900580918B058F5F80938B05E6
:102A800080918D0590918E0590FF18C082E10E9483
:102A90008E0E892B99F080918F058F5F80938F0523
:102AA000809190059091910591609093910580930C
:102AB000900580918C058F5F80938C0580918D05AA
:102AC00090918E0584FF18C089E00E948E0E892B9C
:102AD00099F480918F058F5F80938F058091900589
:102AE00090919105806190939105809390058091DC
:102AF00089058F5F8093890578940895E82FF0E029
:102B0000EE0FFF1FEA55FC4F71836083823029F17D
:102B100030F4882351F0813009F046C010C0833072
:102B200059F1843009F040C036C0E89880916900BE
:102B30008C7F842B80936900E09AE89A0895E99845
:102B400080916900440F551F440F551F837F842BCC
:102B500080936900E19AE99A0895EA988091690062
:102B600024E0440F551F2A95E1F78F7C842B809336
:102B70006900E29AEA9A0895EB988091690096E0DC
:102B8000440F551F9A95E1F78F73842B809369004A
:102B9000E39AEB9A0895EC9880916A008C7F842BDD
:102BA00080936A00E49AEC9A0895F894883018F5B6
:102BB000833091F020F4813059F060F407C0863002
:102BC00079F0873079F0843071F408C0E8980BC050
:102BD000E99809C0EA9807C0EB9805C0EC9803C0D3
:102BE000EE9801C0EF98E82FF0E0EE0FFF1FEA55D6
:102BF000FC4F11821082789408951F920F920FB6A5
:102C00000F9211240BB60F922F933F934F935F9324
:102C10006F937F938F939F93AF93BF93EF93FF93A4
:102C20008091A6039091A703892B29F0E091A60338
:102C3000F091A7030995FF91EF91BF91AF919F91FB
:102C40008F917F916F915F914F913F912F910F9055
:102C50000BBE0F900FBE0F901F9018951F920F92F2
:102C60000FB60F9211240BB60F922F933F934F93F1
:102C70005F936F937F938F939F93AF93BF93EF93E4
:102C8000FF938091A8039091A903892B29F0E091EB
:102C9000A803F091A9030995FF91EF91BF91AF911E
:102CA0009F918F917F916F915F914F913F912F9164
:102CB0000F900BBE0F900FBE0F901F9018951F9294
:102CC0000F920FB60F9211240BB60F922F933F93D2
:102CD0004F935F936F937F938F939F93AF93BF9324
:102CE000EF93FF938091AA039091AB03892B29F076
:102CF000E091AA03F091AB030995FF91EF91BF9189
:102D0000AF919F918F917F916F915F914F913F9183
:102D10002F910F900BBE0F900FBE0F901F90189524
:102D20001F920F920FB60F9211240BB60F922F9392
:102D30003F934F935F936F937F938F939F93AF9343
:102D4000BF93EF93FF938091AC039091AD03892BD8
:102D500029F0E091AC03F091AD030995FF91EF915B
:102D6000BF91AF919F918F917F916F915F914F91A3
:102D70003F912F910F900BBE0F900FBE0F901F90A1
:102D800018951F920F920FB60F9211240BB60F9247
:102D90002F933F934F935F936F937F938F939F9363
:102DA000AF93BF93EF93FF938091AE039091AF03E6
:102DB000892B29F0E091AE03F091AF030995FF91C3
:102DC000EF91BF91AF919F918F917F916F915F91A3
:102DD0004F913F912F910F900BBE0F900FBE0F9010
:102DE0001F9018951F920F920FB60F9211240BB6D9
:102DF0000F922F933F934F935F936F937F938F9394
:102E00009F93AF93BF93EF93FF938091B003909103
:102E1000B103892B29F0E091B003F091B10309953A
:102E2000FF91EF91BF91AF919F918F917F916F91A2
:102E30005F914F913F912F910F900BBE0F900FBE5E
:102E40000F901F9018951F920F920FB60F9211249A
:102E50000BB60F922F933F934F935F936F937F9394
:102E60008F939F93AF93BF93EF93FF938091B203A0
:102E70009091B303892B29F0E091B203F091B30351
:102E80000995FF91EF91BF91AF919F918F917F91A4
:102E90006F915F914F913F912F910F900BBE0F90CB
:102EA0000FBE0F901F9018951F920F920FB60F92A2
:102EB00011240BB60F922F933F934F935F936F9311
:102EC0007F938F939F93AF93BF93EF93FF938091E3
:102ED000B4039091B503892B29F0E091B403F091EC
:102EE000B5030995FF91EF91BF91AF919F918F919C
:102EF0007F916F915F914F913F912F910F900BBEFA
:102F00000F900FBE0F901F901895CF92DF92EF9207
:102F1000FF926B017C0180918D0590918E058C292B
:102F20009D2990938E0580938D05C0FE0FC060E0B3
:102F30008BE20E942F0E60E086E20E942F0E43E09B
:102F400050E063EC74E182E00E947E15C1FE0FC088
:102F500060E08BE20E942F0E60E087E20E942F0E5D
:102F600043E050E063EC74E182E00E947E15C2FE13
:102F70000FC061E083E00E942F0E61E083E00E94B9
:102F8000480E42E050E063E678E184E00E947E155E
:102F9000C3FE0FC060E08BE20E942F0E60E088E06D
:102FA0000E942F0E43E050E063EC74E182E00E9447
:102FB0007E15C4FE0BC060E08BE20E942F0E43E042
:102FC00050E063EC74E182E00E947E15C6FE0FC003
:102FD00060E084E00E942F0E60E08CE20E942F0EE1
:102FE00042E050E063E678E183E00E947E15C7FE90
:102FF0000FC060E08DE20E942F0E60E08BE20E9425
:103000002F0E43E050E063EC74E182E00E947E15F5
:10301000D0FE13C060E08BE20E942F0E60E082E1E0
:103020000E942F0E43E050E063EC74E182E0FF90D9
:10303000EF90DF90CF900C947E15FF90EF90DF9093
:10304000CF900895CF92DF92EF92FF926B017C01B7
:10305000F89460FF03C082E00E94D515C1FE03C052
:1030600082E00E94D515C2FE03C084E00E94D515FF
:10307000C3FE03C082E00E94D515C4FE03C082E0F7
:103080000E94D515C7FE03C082E00E94D515D0FE70
:1030900003C082E00E94D515C6FE03C083E00E94F3
:1030A000D51580918D0590918E05C094D094C8223D
:1030B000D922D0928E05C0928D057894FF90EF9022
:1030C000DF90CF900895F89480918D0590918E05B2
:1030D00086FF1EC084E00E948E0E892BC9F4809169
:1030E0008F058F5F80938F0580919005909191055A
:1030F0008064909391058093900580918A058F5FFD
:1031000080938A0560E470E080E090E00E942218DD
:1031100080918D0590918E0582FF1CC083E00E94F6
:103120008E0E892BB9F480918F058F5F80938F0568
:103130008091900590919105846090939105809382
:103140009005809187058F5F8093870561E083E01C
:103150000E94480E78940895CF92DF92EF92FF92EA
:103160001F93CF93DF93EC0160E08E850E942F0EBA
:103170000E9468136B017C011EE7115089F182E007
:1031800090E00E94E4130E9468136C157D058E0583
:103190009F0520F40E9468136B017C018E850E94BC
:1031A0008E0E892BF9F40E9468136C197D098E0923
:1031B0009F09643F714081059105F8F213C00E9498
:1031C00068136B017C011130C1F10E9468136C1906
:1031D0007D098E099F09643F714081059105D0F0FA
:1031E00010E02BC061E08E850E942F0E60E08E857E
:1031F0000E94480E84E591E00E94E4130E94681347
:103200006B017C018E850E948E0E11E0892BD9F214
:1032100010E0D9CF8E850E948E0E11E0892B09F027
:1032200010E089E090E00E94E4130E9468136C159E
:103230007D058E059F0538F6C2CF812FDF91CF9196
:103240001F91FF90EF90DF90CF9008951F93CF9341
:10325000DF93FC011081C181D281912F9095F89468
:103260008A8189238A838981812B898360FF0BC0AE
:1032700089E090E00E94E4138A81812B8A8378940C
:103280008FE290E00AC087E390E00E94E4138A8115
:10329000812B8A83789485E090E0DF91CF911F9114
:1032A0000C94E4130F931F93CF93DF93FC011081D1
:1032B000C181D281F8948981812B89838A81012FF0
:1032C000009580238A8382E090E00E94E413898144
:1032D0008023898387E090E00E94E413C88178947A
:1032E0008DE290E00E94E4131C2381E009F480E069
:1032F000DF91CF911F910F910895CF92DF92EF92BE
:10330000FF920F931F93CF93DF931F92CDB7DEB73A
:103310006C01E62E08E010E0FF24F3949F2D9E211F
:1033200061E009F460E0C60149830E942619FF0CA0
:103330000150110949810115110581F7411115C08D
:10334000F894D6011196ED91FC91129791818C9190
:103350008095892381831196ED91FC91129792813A
:103360008C9180958923828378940F90DF91CF91FF
:103370001F910F91FF90EF90DF90CF900895FC0187
:103380001386158614861286118610861782168279
:103390001582148213820895CF93DF93EC01862F58
:1033A0006E8760E00E942F0E8E8590E0FC01E85F42
:1033B000FC4FE491E883FC01E55CFC4FE491F0E014
:1033C000E259FC4FE491E9831A82CE01DF91CF915B
:1033D0000C94BF19FC019B018181843051F088302D
:1033E00061F0823081F484E0769567958A95E1F703
:1033F0000CC0CB016FE170E003C0CB016FE370E064
:103400000E948A1E02C086810895862F66833087B7
:10341000278308951F93CF93DF93EC01162F8A81A2
:103420008E7F8A8369E170E088E492E00E94C5069D
:10343000612F88E492E00E94C50788E492E00E9430
:10344000F30741E050E069E170E088E492E00E9417
:103450002D0888E492E00E94C706882339F088E4AA
:1034600092E00E94CD06282F30E005C08A8181605D
:103470008A832FEF3FEFC901DF91CF911F9108950C
:103480000F931F93CF93DF93EC01162F042F8A81A4
:103490008D7F8A8369E170E088E492E00E94C5062E
:1034A000612F88E492E00E94C507602F88E492E0D3
:1034B0000E94C50788E492E00E94F307612FCE01C5
:1034C0000E940A1A402F50E08417950729F08A813C
:1034D00082608A8380E001C081E0DF91CF911F91FB
:1034E0000F910895CF93DF93EC0140E062E20E94D8
:1034F000401A61E3CE010E940A1A61E070E080E0A8
:1035000090E00E9422181D828A81DF91CF91089558
:10351000CF93DF93EC010E94721A44E062E2CE0185
:103520000E94401A41E262E3CE010E94401A40E04C
:1035300063E3CE010E94401A4FEF60E3CE010E9488
:10354000401A61E070E080E090E00E94851784E01E
:103550008D838A81DF91CF910895CF93DF93EC0122
:1035600040E062E20E94401A61E3CE010E940A1A22
:1035700061E070E080E090E00E9422181D828A8164
:10358000DF91CF910895CF93DF93EC010E94AD1AA4
:1035900044E062E2CE010E94401A40E362E3CE01C1
:1035A0000E94401A40E063E3CE010E94401A4FE7B8
:1035B00060E3CE010E94401A61E070E080E090E09C
:1035C0000E94851783E08D838A81DF91CF910895D2
:1035D000CF93DF93EC0140E062E20E94401A61E386
:1035E000CE010E940A1A61E070E080E090E00E9443
:1035F00022181D828A81DF91CF9108950F931F9326
:10360000CF93DF93EC018B010E94E81A40E062E265
:10361000CE010E94401AB801CE010E94EA19482F3B
:1036200062E3CE010E94401A40E063E3CE010E94B3
:10363000401A44E061E2CE010E94401A4AE260E38F
:10364000CE010E94401A61E070E080E090E00E94AC
:10365000851782E08D838A81DF91CF911F910F9131
:103660000895FC01678170850C94FE1ACF93DF9357
:10367000EC0140E062E20E94401A61E3CE010E9448
:103680000A1A61E070E080E090E00E9422181D823A
:103690008A81DF91CF9108951F93CF93DF93EC013F
:1036A000162F68836430E1F030F4623081F0B0F4BA
:1036B000613021F506C06630B9F0A0F06730F1F452
:1036C00015C047E260E20E94401A1C8305C040E03A
:1036D00060E20E94401A1C8281E011C047E407C0EA
:1036E00047E605C047E803C047EA01C047EC60E28F
:1036F000CE010E94401A81E08C8301C080E0DF91FE
:10370000CF911F910895CF93DF93EC0140E861E2E0
:103710000E94401A61E070E080E090E00E94BA13DD
:1037200040E061E2CE01DF91CF910C94401A0F93FB
:103730001F93CF93DF93EC018B010E94831B64E600
:1037400070E080E090E00E94BA13CE010E94361B28
:1037500040E061E2CE010E94401A44E062E2CE0104
:103760000E94401AB801CE010E94EA19482F62E374
:10377000CE010E94401A43E063E3CE010E94401A4A
:1037800045E960E3CE010E94401A81E08D8361E04B
:1037900070E080E090E00E9485178A81DF91CF91F0
:1037A0001F910F910895FC01678170850C94971B00
:1037B0001F93CF93DF93EC01162F80914E0281115E
:1037C00004C088E492E00E94980681E0888361E06A
:1037D000CE010E944C1B1983143031F0183031F0A7
:1037E000123049F440E003C040E101C040E363E22D
:1037F000CE010E94401A61E08BE20E942F0E60E031
:103800008BE2DF91CF911F910C94480EFC016181F6
:103810000C94D81B1092BB0382E08093B7038CE119
:103820008093BC0380EC91E09093BE038093BD0332
:103830000895FC01128A118E138EDC01A356BE4F2F
:1038400089E111968C93119714961C92DF01AE5565
:10385000BE4F1C9212961C92E956FE4F11821082A6
:1038600008958FEB93E00C94191C61E08EE10E94A7
:103870002F0E61E08FE10E942F0E61E08DE10E942A
:103880002F0E60E08EE10E94480E60E08FE10E9402
:10389000480E61E08DE10E94480E8CB580618CBDC0
:1038A0008CB580648CBD08958CB58F7B8CBD0895DC
:1038B000811103C08CB5806202C08CB58F7D8CBD38
:1038C00008959CB5937F982B9CBD08952CB5982F97
:1038D00093702C7F922B9CBD9DB580FB90F99DBD74
:1038E0000895CF93C62F61E08DE10E942F0E61E015
:1038F00082E20E942F0E61E08DE10E94480E61E09D
:1039000082E20E94480E8091810590918205A091EB
:103910008305B0918405A2FF08C061E088E00E94A1
:103920002F0E61E088E00E94480E80918105909101
:103930008205A0918305B091840596FF08C061E0DF
:1039400089E00E942F0E61E089E00E94480E80917C
:10395000810590918205A0918305B0918405A3FF14
:1039600008C061E082E00E942F0E61E082E00E94C8
:10397000480E8091810590918205A0918305B091B8
:103980008405A4FF08C061E082E20E942F0E61E07E
:1039900082E20E94480EC330C9F020F4C13061F0C9
:1039A00070F407C0C53061F1F0F0C63009F067C0AF
:1039B00033C060E08DE160C060E082E25DC087E41A
:1039C00092E00E943C0560E08CE256C08091810547
:1039D00090918205A0918305B0918405A2FF4FC00C
:1039E00060E088E049C08091810590918205A091B6
:1039F0008305B091840596FF42C060E089E03CC039
:103A00008091810590918205A0918305B0918405F4
:103A1000A3FF35C060E02FC061E08DE10E94480E39
:103A200061E082E20E94480E8091810590918205BA
:103A3000A0918305B0918405A2FF04C061E088E0F5
:103A40000E94480E8091810590918205A091830586
:103A5000B091840596FF04C061E089E00E94480EA1
:103A60008091810590918205A0918305B091840594
:103A7000A3FF05C061E082E0CF910C94480ECF9186
:103A8000089510927C0510927B0510927D0510928E
:103A90007E0510927F0510928005089598D088F0D9
:103AA0009F5790F0B92F9927B751A0F0D1F0660F2A
:103AB000771F881F991F1AF0BA95C9F712C0B13045
:103AC00081F09FD0B1E008959CC0672F782F8827A0
:103AD000B85F39F0B93FCCF3869577956795B39584
:103AE000D9F73EF490958095709561957F4F8F4FF3
:103AF0009F4F0895E89409C097FB3EF490958095F8
:103B0000709561957F4F8F4F9F4F9923A9F0F92FA3
:103B100096E9BB279395F695879577956795B79521
:103B2000F111F8CFFAF4BB0F11F460FF1BC06F5F07
:103B30007F4F8F4F9F4F16C0882311F096E911C019
:103B4000772321F09EE8872F762F05C0662371F03A
:103B500096E8862F70E060E02AF09A95660F771F4E
:103B6000881FDAF7880F9695879597F9089597F942
:103B70009F6780E870E060E008959FEF80EC089513
:103B800000240A941616170618060906089500243C
:103B90000A9412161306140605060895092E0394B6
:103BA000000C11F4882352F0BB0F40F4BF2B11F42A
:103BB00060FF04C06F5F7F4F8F4F9F4F089557FD89
:103BC0009058440F551F59F05F3F71F04795880F8B
:103BD00097FB991F61F09F3F79F087950895121622
:103BE00013061406551FF2CF4695F1DF08C01616CE
:103BF00017061806991FF1CF86957105610508947F
:103C00000895E894BB2766277727CB0197F9089595
:103C10000BD0C4CFB5DF28F0BADF18F0952309F038
:103C2000A6CFABCF1124EECFCADFA0F3959FD1F37F
:103C3000950F50E0551F629FF001729FBB27F00D5A
:103C4000B11D639FAA27F00DB11DAA1F649F6627AF
:103C5000B00DA11D661F829F2227B00DA11D621FFE
:103C6000739FB00DA11D621F839FA00D611D221FB8
:103C7000749F3327A00D611D231F849F600D211D9C
:103C8000822F762F6A2F11249F5750408AF0E1F03F
:103C900088234AF0EE0FFF1FBB1F661F771F881F88
:103CA00091505040A9F79E3F510570F060CFAACFC8
:103CB0005F3FECF3983EDCF3869577956795B79573
:103CC000F795E7959F5FC1F7FE2B880F911D96959D
:103CD000879597F90895A29FB001B39FC001A39F54
:103CE00001D0B29F700D811D1124911D08950E9475
:103CF0006B1EA59F900DB49F900DA49F800D911DEC
:103D000011240895B7FF0C94771E0E94771E821B22
:103D1000930B0895AA1BBB1B51E107C0AA1FBB1F31
:103D2000A617B70710F0A61BB70B881F991F5A9547
:103D3000A9F780959095BC01CD01089597FB072EBA
:103D400016F4009407D077FD09D00E948A1E07FC64
:103D500005D03EF4909581959F4F0895709561959B
:103D60007F4F0895A1E21A2EAA1BBB1BFD010DC0B7
:103D7000AA1FBB1FEE1FFF1FA217B307E407F5071B
:103D800020F0A21BB30BE40BF50B661F771F881FF7
:103D9000991F1A9469F760957095809590959B018D
:103DA000AC01BD01CF010895052E97FB16F40094D8
:103DB00007D057FD0DD00E94B21E07FC09D07EF43B
:103DC00090958095709561957F4F8F4F9F4F089587
:103DD00050954095309521953F4F4F4F5F4F089537
:103DE000689401C0E8948F929F92CF93DF930E94D2
:103DF000FE1EDF91CF919F908F9008958824992483
:103E0000F401E401B0E49F93AA279A158B049C0463
:103E1000ED05FE05CF05D007A10798F4AD2FDC2FE7
:103E2000CF2FFE2FE92D982C892E982F872F762FB4
:103E3000652F542F432F322F2227B85031F7BF91CF
:103E400027C01B2EBF91BB27220F331F441F551FB6
:103E5000661F771F881F991F881C991CEE1FFF1F64
:103E6000CC1FDD1FAA1FBB1F8A149B04EC05FD0598
:103E7000CE05DF05A007B10748F08A189B08EC09BA
:103E8000FD09CE09DF09A00BB10B21601A94E1F600
:103E90002EF49401AF01BE01CD01000C08950F93E3
:103EA0000F7351F0220F331F441F551F661F771FDA
:103EB000881F991F0A95B1F70F9108952A0D3B1D90
:103EC0004C1D5D1D6E1D7F1D801F911F0895079065
:103ED000F691E02D09948F929F92AF92BF92CF926C
:103EE000DF92EF92FF92CF93DF93EC0168817981AB
:103EF0008A819B81611571058105910521F464E238
:103F000079ED8BE597E02DE133EF41E050E00E9441
:103F1000D41E49015A019B01AC01A7EAB1E40E94F9
:103F2000771E6B017C01ACEEB4EFA50194010E94F9
:103F3000851EC60ED71EE81EF91EF7FE06C081E0DC
:103F4000C81AD108E10880E8F80AC882D982EA8252
:103F5000FB82E894D7F8EE24FF24C601DF91CF91CD
:103F6000FF90EF90DF90CF90BF90AF909F908F9099
:103F700008950C946B1F86E092E00C946B1FA0E0F8
:103F8000B0E08093060290930702A0930802B093DA
:103F900009020895FB01DC0105900D920020E1F774
:103FA0000895FB01DC010D900020E9F711970190C5
:103FB0000D920020E1F708950F931F93CF93DF93A5
:103FC000CDB7DEB72E970FB6F894DEBF0FBECDBFCC
:103FD0000D891E898F89988D26E02C831A83098389
:103FE00097FF02C080E090E801979E838D83CE0109
:103FF0004B96AC01698D7A8DCE0101960E941920F5
:104000004D815E8157FD0AC02F81388542175307C5
:104010000CF49A01F801E20FF31F10822E960FB6EE
:10402000F894DEBF0FBECDBFDF91CF911F910F91EE
:1040300008952F923F924F925F926F927F928F924C
:104040009F92AF92BF92CF92DF92EF92FF920F9327
:104050001F93CF93DF93CDB7DEB72C970FB6F894AD
:10406000DEBF0FBECDBF7C016B018A01FC01178250
:104070001682838181FFC6C188248394912C8C0E83
:104080009D1EF7019381F60193FD859193FF819128
:104090006F01882309F4B2C1853239F493FD85910B
:1040A00093FF81916F01853229F4B70190E00E945E
:1040B0005022E7CF512C312C20E02032A8F48B3253
:1040C00061F028F4803251F0833271F40BC08D32EC
:1040D00039F0803349F4216028C02260246025C073
:1040E000286023C0206121C027FD27C0382F30530E
:1040F0003A3078F426FF06C0FAE05F9E300D1124B6
:10410000532E13C08AE0389E300D1124332E2062C6
:104110000CC08E3221F426FD71C1206406C08C369D
:1041200011F4206802C0883641F4F60193FD8591B0
:1041300093FF81916F018111C0CF982F95549330D7
:1041400018F09052933028F40C5F1F4FFFE3F9836F
:104150000DC0833631F0833771F0833509F05EC0CE
:1041600023C0F801808189830E5F1F4F442443944C
:10417000512C540115C03801F2E06F0E711CF8018A
:10418000A080B18026FF03C0652D70E002C06FEFF4
:104190007FEFC5012C870E9445222C0183012C85CD
:1041A0006FE7262E222218C03801F2E06F0E711C34
:1041B000F801A080B18026FF03C0652D70E002C029
:1041C0006FEF7FEFC5012C870E943A222C012C85CE
:1041D00050E8252E222A830123FC1CC006C0B7010B
:1041E00080E290E00E9450223A94832D90E048169D
:1041F0005906A8F30FC0F50127FC859127FE819190
:104200005F01B70190E00E94502231103A94F1E032
:104210004F1A51084114510471F7EDC0843611F062
:10422000893641F5F80127FF07C0608171818281DD
:1042300093810C5F1F4F08C060817181882777FDD3
:104240008095982F0E5F1F4F4FE6B42EB22297FF36
:1042500009C090958095709561957F4F8F4F9F4FC6
:10426000F0E8BF2A2AE030E0A4010E947C22A82EB8
:10427000A81843C0853731F43FEEB32EB2222AE0AE
:1042800030E024C099EFB92EB2228F36B9F020F475
:10429000883509F0B3C00DC0803721F0883709F0A8
:1042A000ADC002C020E1B22AB4FE0BC084E0B82A3F
:1042B00008C024FF09C0E6E0BE2A06C028E030E0BE
:1042C00005C020E130E002C020E132E0F801B7FE95
:1042D00007C060817181828193810C5F1F4F06C08E
:1042E0006081718180E090E00E5F1F4FA4010E9409
:1042F0007C22A82EA818FFE7BF22B6FE0BC02B2DEC
:104300002E7FA51450F4B4FE0AC0B2FC08C02B2DB9
:104310002E7E05C07A2C2B2D03C07A2C01C0752C63
:1043200024FF0DC0FE01EA0DF11D8081803311F4E0
:10433000297E09C022FF06C07394739404C0822FA3
:10434000867809F0739423FD14C020FF0FC05A2C07
:10435000731460F4530C5718732C08C0B70180E233
:1043600090E02C870E94502273942C857314B0F334
:1043700004C0731410F4371801C0312C24FF12C08C
:10438000B70180E390E02C870E9450222C8522FF09
:104390001EC021FF03C088E590E002C088E790E0DE
:1043A000B7010CC0822F867891F021FD02C080E217
:1043B00001C08BE227FD8DE2B70190E00E94502200
:1043C00006C0B70180E390E00E9450225A94A514E1
:1043D000C0F3AA94F401EA0DF11DB701808190E0C9
:1043E0000E945022A110F5CF06C0B70180E290E0F4
:1043F0000E9450223A943110F8CF43CEF701268123
:10440000378102C02FEF3FEFC9012C960FB6F89409
:10441000DEBF0FBECDBFDF91CF911F910F91FF90F7
:10442000EF90DF90CF90BF90AF909F908F907F9054
:104430006F905F904F903F902F900895F999FECF25
:1044400092BD81BDF89A992780B50895A6E1B0E0A4
:1044500044E050E00C94DC22262FF999FECF1FBADD
:1044600092BD81BD20BD0FB6F894FA9AF99A0FBE9D
:1044700001960895FC010590615070400110D8F735
:10448000809590958E0F9F1F0895FC01615070409C
:1044900001900110D8F7809590958E0F9F1F089579
:1044A0000F931F93CF93DF938C01EB018B8181FDE1
:1044B00003C00FEF1FEF1AC082FF0DC02E813F8196
:1044C0008C819D812817390764F4E881F981019373
:1044D000F983E88306C0E885F985802F0995892B43
:1044E00041F78E819F8101969F838E83C801DF9162
:1044F000CF911F910F910895FA01AA27283051F109
:10450000203181F1E8946F936E7F6E5F7F4F8F4F04
:104510009F4FAF4FB1E03ED0B4E03CD0670F781F63
:10452000891F9A1FA11D680F791F8A1F911DA11D48
:104530006A0F711D811D911DA11D20D009F4689481
:104540003F912AE0269F11243019305D3193DEF629
:10455000CF010895462F4770405D4193B3E00FD0DF
:10456000C9F7F6CF462F4F70405D4A3318F0495DCA
:1045700031FD4052419302D0A9F7EACFB4E0A695AD
:104580009795879577956795BA95C9F700976105CF
:10459000710508959B01AC010A2E06945795479525
:1045A00037952795BA95C9F7620F731F841F951F1A
:1045B000A01D0895DC01CB01FC01F999FECF06C0D6
:1045C000F2BDE1BDF89A319600B40D9241505040D1
:0845D000B8F70895F894FFCF3D
:1045D80000009B092000010000000153756E004D8A
:1045E8006F6E005475650057656400546875004621
:1045F80072690053617400496E76616C6964204782
:104608004D542076616C7565003A3A3A3A3A3A0068
:00000001FF
