:100000000C94BC010C94AD0F0C94DE0F0C940F10EB
:100010000C9440100C9471100C94A2100C94D310FA
:100020000C9404110C94EB010C94EB010C94EB0177
:100030000C9435110C94EB010C94EB010C94911180
:100040000C94EB010C94EB010C94EB010C94EB0180
:100050000C94EB010C94EB010C94EB010C946C11DF
:100060000C94EB010C9412140C94EB010C94EB0126
:100070000C94EB010C94EB010C94EB010C94EB0150
:100080000C94EB010C94EB010C94EB010C94EB0140
:100090000C944D140C94EB010C94EB010C947D0E1C
:1000A0000C94EB010C94EB010C94EB010C94EB0120
:1000B0000C94EB010C94EB010C94EB010C94EB0110
:1000C0000C94EB010C94EB010C94EB01F40008018F
:1000D0002E01550175018D019B01AB01C001D601B7
:1000E000E701F301FA01170235024B0259026902D6
:1000F0008C029202416C61726D204D6F6465206DBF
:1001000061746368657320005B446179203A2068FC
:100110006F757273203A206D696E75746573203A3D
:10012000207365636F6E64735D202D3E20005B4419
:10013000617465203A20686F757273203A206D698A
:100140006E75746573203A207365636F6E64735DBA
:10015000202D3E20005B486F757273203A206D6938
:100160006E75746573203A207365636F6E64735D9A
:10017000202D3E20005B4D696E75746573203A201A
:100180007365636F6E64735D202D3E20005B536565
:10019000636F6E64735D202D3E20004F6E6365209B
:1001A000706572207365636F6E6400496E636F7271
:1001B0007265637420616C61726D206D6F6465009F
:1001C0005B253032753A253032753A253032753A32
:1001D000253032755D005B253032753A2530327539
:1001E0003A253032755D005B253032753A25303264
:1001F000755D005B253032755D005B446179203AA6
:1002000020686F757273203A206D696E757465731E
:10021000205D202D3E20005B44617465203A2068FB
:100220006F757273203A206D696E75746573205D09
:10023000202D3E20005B486F757273203A206D6957
:100240006E757465735D202D3E20005B4D696E7583
:100250007465735D202D3E20004F6E6365207065D0
:1002600072206D696E7574650025732C20253032FF
:10027000752F253032752F253032752C20253032E0
:10028000753A253032753A25303275006572726FD5
:10029000720025303275256325303275256325308F
:1002A0003275256325303275256325303275256317
:1002B00025303275256325303275000000080900AD
:1002C000000000000000000000000000000000002E
:1002D000000000000000000000000000000000001E
:1002E000000000000000000000000000000001020B
:1002F000081010204080040810204002020408105A
:1003000020408001028020400420010102040810E6
:10031000200140804080010208040880041004028B
:100320000105050505030303030101010404030698
:10033000060606060606060104050105010302027B
:10034000020202020102020505040403040401037F
:100350000407070700202326292C2F3200222528F6
:100360002B2E3134002124272A2D3033F9070A0996
:10037000CB09C90C4415181711241FBECFEFD1E2C9
:10038000DEBFCDBF12E0A0E0B2E0E4E7F9E300E0B9
:100390000BBF02C007900D92A034B107D9F719E046
:1003A000A0E4B2E001C01D92A03AB107E1F713E06A
:1003B000C8E7D3E000E006C022970109FE010BBFA9
:1003C0000E943519CC36D10780E00807A9F70E94B2
:1003D00011020C94B81C0C94000082EE92E00E9472
:1003E000170984E68093440280914402909145026B
:1003F000A09146028093400290934102A093420252
:100400008093430290934402A09345022AE030E097
:1004100044E650E060E070E082EE92E00C948E09D9
:1004200008950E94541287EE92E00E942A0B8534B0
:1004300040F061E081E30E94E91261E081E30E9403
:10044000021361E070E087EE92E00E94060A8130BC
:10045000B1F48091860590918705A0918805B091AF
:10046000890590688093860590938705A0938805F9
:10047000B093890560E081E090E00E94FA1B87E27A
:100480000E944813892B59F160E070E087EE92E0FA
:100490000E94060A8A3019F5C1C06CE3629FA00170
:1004A000639F500D1124840F951F0EC02115310537
:1004B00059F06CE3629FA001639F500D11249A01D3
:1004C000205F314F820F931F039748F48091950569
:1004D000909196058062909396058093950589E4A6
:1004E00092E00E94DE0789E492E00E949F0789E47F
:1004F00092E00E94AE0789E492E00E94660363E006
:1005000070E080E090E00E94081280918605909152
:100510008705A0918805B0918905A1FF5EC063E0C1
:1005200070E080E090E00E94081261E086E10E94A5
:10053000E91263E070E080E090E00E94081261E060
:1005400086E10E94021363E070E080E090E00E9488
:1005500008120E94FE0763E070E080E090E00E94D5
:10056000081281E00E94210863E070E080E090E0E2
:100570000E94081284E00E942F0863E070E080E08F
:1005800090E00E94081280E00E942A0863E070E078
:1005900080E090E00E9408120E941D0863E070E075
:1005A00080E090E00E94081266E08CED92E00E94EC
:1005B0003A0863E070E080E090E00E94081261E099
:1005C00086E10E94E91260E086E10E94021363E086
:1005D00070E080E090E00E94081263E070E080E04C
:1005E00090E00E94081287EE92E00E94040B609354
:1005F000450270934602809347029093480280918F
:10060000450290914602A0914702B09148020E9493
:100610008D190E94ED010E941002FDCF89E492E045
:100620000E94DE0789E492E00E94300689E492E0AD
:100630000E9425068091620290E020916402821B54
:1006400091092091610230E040916502241B31093B
:10065000121613060CF421CF29CF8091EE028823C5
:1006600041F08091C303811104C088EC93E00C94A5
:10067000F41608950F931F93CF93DF93EC01042F8B
:1006800068A761E080E30E94E91218A5112379F0C0
:10069000113091F461E080E30E940213013019F4FB
:1006A00082E08B8B09C0011107C01B8B05C060E085
:1006B00080E30E9402131B8A6AE070E080E090E011
:1006C000DF91CF911F910F910C940812CF93DF937C
:1006D000EC010E942D0340E060E0CE01DF91CF915C
:1006E0000C943A03FC01148A158A168A178A108E14
:1006F000118E128E138E148E158E168E178E10A2DA
:1007000011A212A213A214A215A216A217A2089552
:10071000EF92FF920F931F93CF93DF93CDB7DEB786
:10072000EC970FB6F894DEBF0FBECDBF8C01EEEE96
:10073000F0E085919491BC01EE24E394F12CEC0E51
:10074000FD1EC7010E949819E0EFF0E08591949199
:10075000BC01CE0189960E949819F80186898430DF
:1007600009F466C040F4823029F108F04BC08130B2
:1007700009F0B6C009C0863009F486C008F46EC01E
:10078000873009F0ADC096C0F801818D1F928F931C
:10079000808D1F928F9387891F928F93828D1F92D6
:1007A0008F9385891F928F9384891F928F938BE0FB
:1007B00092E015C0F801818D1F928F93808D1F925A
:1007C0008F9387891F928F93828D1F928F93858934
:1007D0001F928F9384891F928F938FE092E09F9353
:1007E0008F93FF92EF921F9284E68F93C8018996B0
:1007F0009F938F930E94AA190FB6F894DEBF0FBE85
:10080000CDBF81C0F801818D1F928F93808D1F9283
:100810008F9387891F928F93828D1F928F938589E3
:100820001F928F9384891F928F9383E192E0D7CF99
:10083000F801818D1F928F93808D1F928F938789EE
:100840001F928F93828D1F928F9385891F928F9312
:1008500084891F928F9387E192E0C1CFF801818D47
:100860001F928F93808D1F928F9387891F928F93F2
:10087000828D1F928F9385891F928F9384891F92F7
:100880008F938BE192E0ABCFF801818D1F928F9314
:10089000808D1F928F9387891F928F93828D1F92D5
:1008A0008F9385891F928F9384891F928F938FE1F5
:1008B00092E095CFF801818D1F928F93808D1F92CA
:1008C0008F9387891F928F93828D1F928F93858933
:1008D0001F928F9384891F928F9383E292E07FCF40
:1008E000CE0189969F938F931F9284E68F93C801C0
:1008F00089969F938F930E94AA190F900F900F9043
:100900000F900F900F90075D1F4FC801EC960FB628
:10091000F894DEBF0FBECDBFDF91CF911F910F9135
:10092000FF90EF900895CF92DF92EF92FF920F9396
:100930001F93CF93DF938C01C62E8091EE0281111D
:1009400004C088EE92E00E94320B68E670E088EE08
:1009500092E00E945F0B60E070E088EE92E00E94FF
:100960008B0C88EE92E00E948D0C43E150E068E62B
:1009700070E088EE92E00E94C70CE12CF12CC0E000
:10098000D0E0D12CE4C088EE92E00E94670BF80121
:10099000EC0FFD1F8083C630D10509F467C098F4C1
:1009A000C230D10509F43EC038F4209729F1C13096
:1009B000D10509F0C7C02BC0C430D10509F440C02F
:1009C00008F049C03AC0CA30D10509F484C048F4DF
:1009D000282F30E0C830D10509F461C008F06DC09F
:1009E00050C0CC30D10509F492C008F482C0CD309B
:1009F000D10509F0A7C099C0982F92959F708F706C
:100A00002AE0929F800D1124F801818F9BC0982FBE
:100A100092959F708F70FAE09F9F800D1124F801CE
:100A2000808F90C0982F92959F708F70FAE09F9F53
:100A3000800D1124F801878B85C0F801868B82C058
:100A4000982F92959F708F70FAE09F9F800D1124D0
:100A5000F801828F77C0982F92959F708F70FAE07F
:100A60009F9F800D1124F801858B6CC0982F929563
:100A70009F708F70FAE09F9F800D1124F801848B86
:100A800061C054E0359527955A95E1F727708F702E
:100A9000FAE02F9F800D1124F801838F53C044E0AA
:100AA000359527954A95E1F727708F70FAE02F9FCB
:100AB000800D1124F801848F45C094E03595279569
:100AC0009A95E1F723708F70FAE02F9F800D112423
:100AD000F801858F37C0282F2695269526952670F4
:100AE000922F990F990F920F8F70980FF801968F90
:100AF00029C0282F2695269526952E70922F990F7E
:100B0000990F920F8F70980FF801978F1BC0282FA5
:100B10002695269526952670922F990F990F920F5C
:100B20008F70980FF80190A30DC0282F2695269559
:100B300026952670922F990F990F920F8F70980F0C
:100B4000F80191A3219603C0FFEFEF1AFF0ACC161C
:100B5000DD0658F02AE0E216F10438F488EE92E05F
:100B60000E94610B882381F30ECFDF91CF911F91FB
:100B70000F91FF90EF90DF90CF9008951F93CF9348
:100B8000DF93EC01162F8091EE02811104C088EEF4
:100B900092E00E94320B68E670E088EE92E00E94DC
:100BA0005F0B612F88EE92E00E945F0CC10FD11D98
:100BB000688188EE92E00E945F0C88EE92E0DF91FF
:100BC000CF911F910C948D0CFF920F931F93CF9395
:100BD000DF938C01F62E8091EE02811104C088EE25
:100BE00092E00E94320B68E670E088EE92E00E948C
:100BF0005F0B6F2D88EE92E00E945F0C88EE92E012
:100C00000E948D0C41E050E068E670E088EE92E0D2
:100C10000E94C70CCBE0D0E088EE92E00E94610B0E
:100C2000811102C02197C1F788EE92E00E94670B04
:100C3000F801EF0DF11D808388EE92E0DF91CF91F6
:100C40001F910F91FF900C948D0CCF93DF93EC01CB
:100C500066E00E949304CE01DF91CF910C9488034B
:100C6000CF92DF92EF92FF920F931F93CF93DF9378
:100C7000CDB7DEB7C857D1090FB6F894DEBF0FBEA7
:100C8000CDBF7C016AE00E9493048701075D1F4F7E
:100C900084E6F80111928A95E9F7ECECF0E0859191
:100CA0009491BC01CE018F5A9F4F0E949819BE01AA
:100CB0006F5A7F4FC8010E949F19F70182A18230AD
:100CC00009F46AC030F4882369F0813009F00BC15F
:100CD00022C0843009F4C7C008F493C0853009F0FD
:100CE00002C1F0C0EEECF0E085919491BC01CE0120
:100CF0008F5A9F4F0E949819BE016F5A7F4FC801AB
:100D00000E949F19ECEDF0E0859194916E01F9E25B
:100D1000CF0ED11C18C0E0EDF0E085919491BC019C
:100D2000CE018F5A9F4F0E949819BE016F5A7F4F74
:100D3000C8010E949F19ECEDF0E0859194916E013D
:100D4000E9E2CE0ED11CBC01C6010E949819F70140
:100D5000838D1F928F93848D1F928F93858D1F9209
:100D60008F93868D1F928F93DF92CF921F9288E28E
:100D70008F93EE24E394F12CEC0EFD1EFF92EF9284
:100D80000E94AA19B701C8010E949F190FB6F894D2
:100D9000DEBF0FBECDBFC2C0E2EDF0E08591949101
:100DA000BC01CE018F5A9F4F0E949819BE016F5A05
:100DB0007F4FC8010E949F19EEEDF0E0859194915C
:100DC0006E01E9E2CE0ED11CBC01C6010E94981949
:100DD000F701838D1F928F93848D1F928F93858D42
:100DE0001F928F93DF92CF921F9288E28F93EE240F
:100DF000E394F12CEC0EFD1EFF92EF920E94AA19D3
:100E0000C1CFE4EDF0E085919491BC01CE018F5A01
:100E10009F4F0E949819BE016F5A7F4FC8010E94D0
:100E20009F19E0EEF0E0859194916E01E9E2CE0E1B
:100E3000D11CBC01C6010E949819F701838D1F9235
:100E40008F93848D1F928F93DF92CF921F9288E2AF
:100E50008F93EE24E394F12CEC0EFD1EFF92EF92A3
:100E60000E94AA198FCFE6EDF0E085919491BC0124
:100E7000CE018F5A9F4F0E949819BE016F5A7F4F23
:100E8000C8010E949F19E2EEF0E0859194916E01F5
:100E9000E9E2CE0ED11CBC01C6010E949819F701EF
:100EA000838D1F928F93DF92CF921F9288E28F9350
:100EB000EE24E394F12CEC0EFD1EFF92EF920E94C3
:100EC000AA1960CFE8EDF0E085919491BC01CE01C4
:100ED0008F5A9F4F0E949819BE016F5A7F4FC801C9
:100EE0000E949F191BC0EAEDF0E0859194917E016C
:100EF000E1E5EE0EF11CBC01C7010E949819FF92BA
:100F0000EF921F9284E68F931F930F930E94AA196A
:100F10000F900F900F900F900F900F90C801C8582E
:100F2000DF4F0FB6F894DEBF0FBECDBFDF91CF917C
:100F30001F910F91FF90EF90DF90CF900895CF9386
:100F4000DF93EC016EE00E94E4058E858E7F8E8734
:100F50006EE0CE01DF91CF910C94BE05CF93DF936D
:100F6000EC016EE00E94E4058E858D7F8E876EE039
:100F7000CE01DF91CF910C94BE05CF93DF93EC01AE
:100F80006FE00E94E4058F858370DF91CF91089513
:100F9000CF93DF93EC010E94BD07882319F0CE5652
:100FA000DF4F8883809158028C7F809358026FE0D6
:100FB00089E492E0DF91CF910C94BE05CF93DF934B
:100FC000EC0140E061E00E943A03CE010E94C807B4
:100FD000CE010E9472036DE0CE010E94930461E095
:100FE0008BE20E94E91260E08BE2DF91CF910C94DA
:100FF00002131092DA0210925C02089561E08EE111
:101000000E94E91261E08FE10E94E91261E08DE146
:101010000E94E91260E08EE10E94021360E08FE11D
:101020000E94021361E08DE10E9402138CB5806181
:101030008CBD8CB580648CBD08958CB58F7B8CBDC8
:101040000895811103C08CB5806202C08CB58F7D7C
:101050008CBD08959CB5937F982B9CBD08952CB5AD
:10106000982F93702C7F922B9CBD9DB580FB90F99F
:101070009DBD0895CF93C62F61E08DE10E94E912D6
:1010800061E082E20E94E91261E08DE10E940213B8
:1010900061E082E20E9402138091860590918705AB
:1010A000A0918805B0918905A2FF08C061E088E0A1
:1010B0000E94E91261E088E00E9402138091860597
:1010C00090918705A0918805B091890596FF08C089
:1010D00061E089E00E94E91261E089E00E94021368
:1010E0008091860590918705A0918805B09189052A
:1010F000A3FF08C061E082E00E94E91261E082E0A3
:101100000E9402138091860590918705A091880521
:10111000B0918905A4FF08C061E082E20E94E91253
:1011200061E082E20E940213C330C9F020F4C130B2
:1011300061F070F407C0C53061F1F0F0C63009F01D
:1011400067C033C060E08DE160C060E082E25DC0F6
:1011500087EE92E00E94EE0960E08CE256C080913A
:10116000860590918705A0918805B0918905A2FF19
:101170004FC060E088E049C0809186059091870566
:10118000A0918805B091890596FF42C060E089E092
:101190003CC08091860590918705A0918805B0910B
:1011A0008905A3FF35C060E02FC061E08DE10E949A
:1011B000021361E082E20E94021380918605909101
:1011C0008705A0918805B0918905A2FF04C061E060
:1011D00088E00E9402138091860590918705A09176
:1011E0008805B091890596FF04C061E089E00E94FE
:1011F00002138091860590918705A0918805B09192
:101200008905A3FF05C061E082E0CF910C94021331
:10121000CF9108951092DD021092DC021092DE024E
:101220001092DF021092E0021092E1020895FC0198
:10123000408160E072EC81E090E00E948E1361E0FA
:1012400087E10E94E91261E087E10E94021361E0F8
:101250008BE00E94E91260E08BE00E94021361E0E3
:101260008DE20E94E91260E08DE20C940213DC0131
:101270008091C50011968C9311978091C4001296AD
:101280008C931297E2ECF0E0808113968C93139785
:101290008091CA0014968C93149780818F7D8083EF
:1012A00080818F7E80838081877F80834C9160E006
:1012B00072EC81E090E00E948E1361E087E10E9471
:1012C000021360E08BE00C940213CF93DF93EC01E8
:1012D0004091860550918705609188057091890538
:1012E00063E070E080E090E042FF07C00E940812D7
:1012F00061E08BE00E94021302C00E940812898103
:101300008093C5008A818093C4008B818093C20042
:101310008C818093CA00DF91CF910895AF92BF92E4
:10132000DF92EF92FF920F931F93CF93DF93EC0125
:10133000142FD52E7B0159010E943709A114B10445
:1013400029F46881812F0E94881416C08AE0A816AB
:10135000B10439F44881612F7D2DC7010E94201509
:101360000BC09501442737FD4095542F0881612F0C
:101370007D2DC7010E94951488810E948A14CE0198
:10138000DF91CF911F910F91FF90EF90DF90BF9071
:10139000AF900C9465091092E20208951F93CF93C9
:1013A000DF931F92CDB7DEB7162F61E0812F4983FF
:1013B0000E94E9124981413011F461E003C04111FA
:1013C00008C060E0812F0F90DF91CF911F910C94A6
:1013D00002130F90DF91CF911F91089561E087E193
:1013E0000E94E91261E084E20E94E91261E085E274
:1013F0000E94E91261E087E10E94021361E084E249
:101400000E94021361E085E20C940213CB010C945C
:10141000EC1B8F929F92AF92BF92CF92DF92EF928E
:10142000FF920F931F93CF93DF93CDB7DEB7C75FC4
:10143000D1090FB6F894DEBF0FBECDBF8E010051AB
:101440001F4F580128E0A20EB11C7E0181E8E80E72
:10145000F11CCC24C394D12CCC0EDD1E6DE0CE014A
:101460008F519F4F0E94731640E06CE087EE92E030
:101470000E94CE0940E06DE087EE92E00E94CE0926
:10148000F801108211821282138261E08CE00E94C6
:10149000E91261E08CE00E940213CE018F519F4F50
:1014A0000E94531541E06DE087EE92E00E94CE0964
:1014B0006AE070E080E090E00E94081240E063E3A0
:1014C000CE018F519F4F0E94241662E370E080E0AE
:1014D00090E00E9408124701CE018F519F4F0E9459
:1014E000F915F2E08F1A9108F4018083118261E00E
:1014F00070E080E090E00E9408128C149D0461F777
:10150000FE017196D701C60180599F4F21913191FB
:101510002D933D93E817F907C9F731EE832E912CEF
:101520008C0E9D1E81E090E0A0E0B0E0F4013291CD
:1015300022914F012130310569F4F8014081518138
:1015400062817381480F591F6A1F7B1F408351833B
:1015500062837383880F991FAA1FBB1F8E149F0479
:1015600029F7F80180819181A281B3818F3F9F4F3C
:10157000AF4FBF4F29F4F8011082118212821382FB
:1015800060E08CE00E94021340E06CE087EE92E0A5
:101590000E94CE0940E06DE087EE92E00E94CE0905
:1015A0000C5F1F4F0A151B0509F058CFC051DF4FC4
:1015B000088119812A813B81C05FD040CC50DF4F28
:1015C00088819981AA81BB81C45FD040081719071F
:1015D0002A073B0719F000E010E09801B801C901A3
:1015E000C950DF4F0FB6F894DEBF0FBECDBFDF91FD
:1015F000CF911F910F91FF90EF90DF90CF90BF9010
:10160000AF909F908F900895CF92DF92EF92FF92CC
:101610000E94090A6B017C01611571058105910524
:1016200091F483EE90E00E94F41B6A302AE0720786
:101630008207920741F06F3F2FEF720782079207F0
:1016400011F06B017C01B601C701FF90EF90DF90B4
:10165000CF9008958FED90E00E94EC1B8F3F09F42E
:1016600080E00895CF93DF93EC0180E2E6E1F3E0C0
:10167000DF01982F1D929A95E9F7109215031092A9
:101680001403E3EFF2E0DF011D928A95E9F710926F
:10169000F2021092F1020E94DC0C81E08E8384E061
:1016A00090E0DF91CF910C94321281E08093F002B0
:1016B000609313031092F2021092F10208950C94B9
:1016C000550B8091140390911503891B08959091F7
:1016D000150380911403981748F4E92FF0E0EA5EAF
:1016E000FC4F80819F5F90931503089580E00895DB
:1016F000CF93DF93EC010E94280D1E82DF91CF91E2
:1017000008954091860550918705609188057091F4
:1017100089054170FC014083409186055091870501
:1017200060918805709189057695679557954795DD
:10173000417041838091860590918705A09188052D
:10174000B091890584FD49C08091860590918705F7
:10175000A0918805B091890585FD3FC080918605DF
:1017600090918705A0918805B091890586FD35C0C7
:101770008091860590918705A0918805B091890593
:1017800087FD2BC08091860590918705A0918805E3
:10179000B091890590FD21C08091860590918705C3
:1017A000A0918805B091890591FD17C080918605AB
:1017B00090918705A0918805B091890593FD0DC092
:1017C000089540E060E088EC93E00E94911640E0CC
:1017D00061E088EC93E00C9491168091EF028823ED
:1017E00081F30895CF93DF93EC018091860590916A
:1017F0008705A0918805B091890584FD58C0809126
:10180000860590918705A0918805B091890585FD91
:101810004EC08091860590918705A0918805B09172
:10182000890586FD44C08091860590918705A09129
:101830008805B091890587FD3AC080918605909111
:101840008705A0918805B091890590FD30C0409131
:10185000860550918705609188057091890551FD35
:1018600026C040918605509187056091880570914A
:10187000890553FD1CC020C041E060E088EC93E086
:101880000E9491160CC08981811106C041E060E080
:1018900088EC93E00E949116888181110DC041E08F
:1018A00061E088EC93E0DF91CF910C9491168091E8
:1018B000EF028111E8CFE0CFDF91CF910895CF9370
:1018C000DF931F92CDB7DEB769838091F002882342
:1018D00089F08091F1028032D0F48091F202E82FF9
:1018E000F0E0ED50FD4F60838F5F8093F2028093B4
:1018F000F1020DC088EE92E00E94810B61E0CE0102
:1019000001960E94090D88EE92E00E94F20B0F9062
:10191000DF91CF9108950C945F0CCF9388EE92E005
:101920000E94810B21E04091F10263EF72E080910F
:1019300013030E94CC0DC82F1092F2021092F102F4
:101940001092F00288EE92E00E94F20B8C2FCF9161
:101950000895CF93DF93D62FC42F88EE92E00E9494
:10196000810BC13208F0C0E24C2F66E173E08D2F8D
:101970000E94310ED82F10921503C093140388EEE5
:1019800092E00E94F20B8D2FDF91CF9108950C947D
:10199000A90C1092EF021092E8021092E9028AEF6D
:1019A00090E0A0E0B0E08093EA029093EB02A09375
:1019B000EC02B093ED02089510923F03E4E6F0E0EC
:1019C00080818F778083589A599AE9EBF0E0808183
:1019D0008E7F808380818D7F808381E48093B800B7
:1019E00085E48093BC0080E2E0E4F3E0DF01982F1F
:1019F0001D929A95E9F7E0E6F3E0DF01982F1D923A
:101A00009A95E9F7E0E8F3E0DF011D928A95E9F79E
:101A10000895613298F420913F03243089F4609353
:101A20003C03FC0180E693E0DC0102C021912D9390
:101A30002A2F281B2617D0F380E0089581E008950F
:101A400082E0089585EC8093BC0010923F030895D6
:101A5000589859988091B90081608093B90080911D
:101A6000B90082608093B9008091BC008068809347
:101A7000BC008091BC0080618093BC008091BC0060
:101A80008F7B8093BC008091BC008F7D8093BC00D5
:101A90008091BC00877F8093BC00809186059091E7
:101AA0008705A0918805B091890586FD14C08091B5
:101AB000860590918705A0918805B091890590FDD4
:101AC0000AC08091860590918705A0918805B09104
:101AD000890593FF04C08091BC008B7F03C0809177
:101AE000BC0084608093BC008091BC008E7F80939A
:101AF000BC0080916400806880936400089588230E
:101B000049F0109236031092370310923803109266
:101B1000390313C08091360390913703A0913803A5
:101B2000B09139030196A11DB11D809336039093A6
:101B30003703A0933803B093390380913603909113
:101B40003703A0913803B0913903803A9648A140F9
:101B5000B10560F0109236031092370310923803EB
:101B6000109239030E94DC0C81E0089580E0089512
:101B700085ED8093BC0081E00E947F0D08C080E06D
:101B80000E947F0D882319F010923F0308958091E1
:101B9000BC0084FDF4CFF8CFFF920F931F93CF9337
:101BA000DF93182F062FF72EC42FD22F81E041325A
:101BB00008F051C00E947F0D15C080E00E947F0D8B
:101BC000882381F082E080933F038FEF80933A0374
:101BD00010923E03C093A003E02FFF2D60E473E05A
:101BE000DB0107C080913F038111E7CFEBCF8191EB
:101BF0008D938A2F861B8C17D0F3812F90E0880F4E
:101C0000991F8093A10385EE8093BC0081E00E9420
:101C10007F0DD11105C080913A038F3F59F414C054
:101C200080913F038230B9F780E00E947F0D8111DF
:101C30000DC0F6CF80913A03803251F080913A0383
:101C4000803341F483E007C080E005C085E003C035
:101C500082E001C084E0DF91CF911F910F91FF904E
:101C600008950F931F93CF93DF93082FD62F172F2D
:101C7000C42F81E04132E0F50E947F0D1DC080E05D
:101C80000E947F0D8823C1F081E080933F038FEF96
:101C900080933A0310923E03C093A003802F90E0FC
:101CA000880F991F81608093A10385EE8093BC000B
:101CB00081E00E947F0D10C080913F038111DFCF32
:101CC000E3CF80E00E947F0D882331F080E493E031
:101CD000ED2FF12FDC0107C080913F03813089F3A4
:101CE000F5CF2D9121932A2F281B2C17D0F380E0BC
:101CF000DF91CF911F910F9108951F920F920FB610
:101D00000F9211240BB60F922F933F934F935F9333
:101D10006F937F938F939F93AF93BF93CF93EF93E3
:101D2000FF93C091B900C87FC03609F49FC058F531
:101D3000C83209F45BC090F4C03109F452C038F4E1
:101D4000CC2309F4F2C0C83009F0F3C04AC0C8314E
:101D500009F44CC0C03209F0ECC05DC0C03409F4D5
:101D600073C038F4C03309F45BC0C83309F0E1C074
:101D70005AC0C03509F45CC0C83509F46AC0C8341B
:101D800009F0D7C0D4C0C83909F4C5C0A8F4C83711
:101D900009F46CC038F4C83609F468C0C03709F0DB
:101DA000C8C064C0C83809F4B6C0C03909F464C0FA
:101DB000C03809F0BEC060C0C03B09F484C038F42C
:101DC000C03A09F46BC0C83A09F0B3C07CC0C03C4B
:101DD00009F4A5C0C83C09F4A2C0C83B09F0A9C0D9
:101DE00087C08091A1038093BB0013C090913E03F4
:101DF0008091A003981708F09AC080913E03E82FC5
:101E0000F0E0E05CFC4F90819093BB008F5F80938B
:101E10003E0385EC81C00E94B80DC0933A0389C08F
:101E2000C0933A0384C0C0933A030E94220D81C03C
:101E300080913E039091BB00E82FF0E0E05CFC4F06
:101E400090838F5F80933E0390913E038091A00327
:101E50005FC080913E039091BB00E82FF0E0E05C12
:101E6000FC4F90838F5F80933E0361C083E080933B
:101E70003F0310923B03CDCF80913B03803208F0AB
:101E80004AC080913B039091BB00E82FF0E0E058FE
:101E9000FC4F90838F5F80933B03BBCF80913B03CC
:101EA000803230F4E0913B03F0E0E058FC4F1082C8
:101EB00060913B03E091A203F091A30370E080E8FE
:101EC00093E009952CC084E080933F0310923D037A
:101ED00010923C03E091A403F091A5030995809131
:101EE0003C03811105C081E080933C0310926003A4
:101EF00080913D03E82FF0E0E05AFC4F90819093F1
:101F0000BB008F5F80933D0390913D0380913C0324
:101F1000981708F47ECF85E88093BC000AC085EC52
:101F20008093BC0010923F0304C010923A030E94B9
:101F3000B80DFF91EF91CF91BF91AF919F918F918C
:101F40007F916F915F914F913F912F910F900BBEB9
:101F50000F900FBE0F901F9018951F920F920FB603
:101F60000F9211240BB60F922F933F934F935F93D1
:101F70006F937F938F939F93AF93BF93EF93FF9351
:101F80008091A6039091A703892B29F0E091A603E5
:101F9000F091A7030995FF91EF91BF91AF919F91A8
:101FA0008F917F916F915F914F913F912F910F9002
:101FB0000BBE0F900FBE0F901F9018951F920F929F
:101FC0000FB60F9211240BB60F922F933F934F939E
:101FD0005F936F937F938F939F93AF93BF93EF9391
:101FE000FF938091A8039091A903892B29F0E09198
:101FF000A803F091A9030995FF91EF91BF91AF91CB
:102000009F918F917F916F915F914F913F912F9110
:102010000F900BBE0F900FBE0F901F9018951F9240
:102020000F920FB60F9211240BB60F922F933F937E
:102030004F935F936F937F938F939F93AF93BF93D0
:10204000EF93FF938091AA039091AB03892B29F022
:10205000E091AA03F091AB030995FF91EF91BF9135
:10206000AF919F918F917F916F915F914F913F9130
:102070002F910F900BBE0F900FBE0F901F901895D1
:102080001F920F920FB60F9211240BB60F922F933F
:102090003F934F935F936F937F938F939F93AF93F0
:1020A000BF93EF93FF938091AC039091AD03892B85
:1020B00029F0E091AC03F091AD030995FF91EF9108
:1020C000BF91AF919F918F917F916F915F914F9150
:1020D0003F912F910F900BBE0F900FBE0F901F904E
:1020E00018951F920F920FB60F9211240BB60F92F4
:1020F0002F933F934F935F936F937F938F939F9310
:10210000AF93BF93EF93FF938091AE039091AF0392
:10211000892B29F0E091AE03F091AF030995FF916F
:10212000EF91BF91AF919F918F917F916F915F914F
:102130004F913F912F910F900BBE0F900FBE0F90BC
:102140001F9018951F920F920FB60F9211240BB685
:102150000F922F933F934F935F936F937F938F9340
:102160009F93AF93BF93EF93FF938091B0039091B0
:10217000B103892B29F0E091B003F091B1030995E7
:10218000FF91EF91BF91AF919F918F917F916F914F
:102190005F914F913F912F910F900BBE0F900FBE0B
:1021A0000F901F9018951F920F920FB60F92112447
:1021B0000BB60F922F933F934F935F936F937F9341
:1021C0008F939F93AF93BF93EF93FF938091B2034D
:1021D0009091B303892B29F0E091B203F091B303FE
:1021E0000995FF91EF91BF91AF919F918F917F9151
:1021F0006F915F914F913F912F910F900BBE0F9078
:102200000FBE0F901F9018951F920F920FB60F924E
:1022100011240BB60F922F933F934F935F936F93BD
:102220007F938F939F93AF93BF93EF93FF9380918F
:10223000B4039091B503892B29F0E091B403F09198
:10224000B5030995FF91EF91BF91AF919F918F9148
:102250007F916F915F914F913F912F910F900BBEA6
:102260000F900FBE0F901F9018951F920F920FB6F0
:102270000F9211240BB60F922F933F934F935F93BE
:102280006F937F938F939F93AF93BF93EF93FF933E
:10229000F89481E080930A02E0E6F0E080818068B3
:1022A000808380818F7B808360E083E00E940213C3
:1022B0007894FF91EF91BF91AF919F918F917F9112
:1022C0006F915F914F913F912F910F900BBE0F90A7
:1022D0000FBE0F901F9018951F920F920FB60F927E
:1022E00011248F939F93AF93BF9380919805909102
:1022F0009905A0919A05B0919B050196A11DB11D6C
:102300008093980590939905A0939A05B0939B05A7
:10231000BF91AF919F918F910F900FBE0F901F9023
:1023200018951F920F920FB60F9211248F939F93BF
:10233000AF93BF9380919C0590919D05A0919E05C0
:10234000B0919F050196A11DB11D80939C059093AE
:102350009D05A0939E05B0939F05BF91AF919F915E
:102360008F910F900FBE0F901F9018958F929F9294
:10237000AF92BF92CF92DF92EF92FF920F931F9393
:10238000CF93DF932FB7F89480919805909199059A
:10239000A0919A05B0919B052FBF9C01AD0160E013
:1023A00070E080E090E001E00E941D194901D42F07
:1023B000C52FB62FA72FF82FE92F02E00E941D1975
:1023C00059016A017B018C0194014D2F5C2F6B2F09
:1023D0007A2F8F2F9E2F0E942C19E9E0AE2EB12C60
:1023E000C12CD12CE12CF12C00E010E00E94C0188F
:1023F000952FB901842FDF91CF911F910F91FF90FD
:10240000EF90DF90CF90BF90AF909F908F90089506
:102410008F929F92AF92BF92CF92DF92EF92FF92F4
:102420004B015C0107C00E94B6116C157D058E053D
:102430009F0520F40E94B6116B017C010E94B61129
:102440006C197D098E099F09681579058A059B0518
:1024500050F3FF90EF90DF90CF90BF90AF909F90A0
:102460008F900895BC01049768F080E090E00E948E
:10247000481726E636E646EE5FE30E94D6170E942E
:102480001C1702C0660F771F6150710961F061501F
:10249000710949F0FB01EE0FFF1F31978FB7F894D8
:1024A0003197F1F78FBF0895789484B7877F84BF01
:1024B000109298051092990510929A0510929B051A
:1024C00084B5826084BD84B5816084BD85B5826039
:1024D00085BD85B5816085BDEEE6F0E080818160D7
:1024E0008083E1E8F0E08081826080838081816088
:1024F0008083E0E8F0E0808181608083E1EBF0E0C0
:10250000808184608083E1E9F0E080818460808361
:10251000E0EBF0E0808181608083E0E9F0E08081A1
:1025200081608083E4E6F0E080818E7F8083ECE749
:10253000F0E080818F778083808180648083EAE708
:10254000F0E08081846080838081826080838081EC
:10255000806880831092C1001092C9000895909104
:10256000B603982B9093B60380FF32C0809164002D
:102570008E7F8093640080917C008F7780937C00B5
:1025800080917C00806480937C0080917A008460DC
:1025900080937A0080917A00826080937A008091A3
:1025A0007A00806880937A00809164008F778093AE
:1025B0006400809164008B7F80936400809164004C
:1025C0008D7F80936400809165008E7F809365008D
:1025D000089590E0FC01E251FD4F2491FC01EF5D74
:1025E000FC4FE491EE2369F0F0E0EC59FC4FA4912C
:1025F000B0E08C91611103C02095822301C0822B31
:102600008C93089590E0FC01E554FD4F2491FC016A
:10261000E251FD4F3491FC01EF5DFC4F8491882322
:10262000B1F1222331F1233021F4909180009F7782
:1026300005C0243031F4909180009F7D90938000FC
:1026400018C0213019F494B59F7704C0223021F4CA
:1026500094B59F7D94BD0DC0263021F49091B000BB
:102660009F7705C0273029F49091B0009F7D90930B
:10267000B000E82FF0E0E45AFC4FA491B0E08C9158
:10268000611103C03095832301C0832B8C9308957F
:1026900090E0FC01E554FD4F2491FC01E251FD4F17
:1026A0003491FC01EF5DFC4F8491882399F1222342
:1026B00031F1233021F4909180009F7705C02430C0
:1026C00031F4909180009F7D9093800018C021305C
:1026D00019F494B59F7704C0223021F494B59F7DFE
:1026E00094BD0DC0263021F49091B0009F7705C0B5
:1026F000273029F49091B0009F7D9093B000E82F8F
:10270000F0E0EC5AFC4FE491F0E08081832321E07B
:1027100030E011F420E030E0C9010895CF92DF925B
:10272000EF92FF926B017C01411134C088E00E945E
:10273000AF12C701B60122E030E040E050E00E9455
:10274000A218305F414F5F4FCA01B901A70196013E
:102750000E94A218DA01C9010197A109B109892FC4
:102760009A2FAB2FBB27A7FDBA958093C5002150A8
:102770002093C4008091C10080618093C10080914A
:10278000C10088608093C1008091C10080688093FF
:10279000C10033C080E10E94AF12C701B60122E040
:1027A00030E040E050E00E94A218305F414F5F4FA0
:1027B000CA01B901A70196010E94A218DA01C90154
:1027C0000197A109B109892F9A2FAB2FBB27A7FD2C
:1027D000BA958093CD0021502093CC008091C90000
:1027E00080618093C9008091C90088608093C9008E
:1027F0008091C90080688093C900FF90EF90DF90BE
:10280000CF900895611107C09091C00095FFFCCF53
:102810008093C60008959091C80095FFFCCF8093E7
:10282000CE0008951F920F920FB60F9211242F938E
:102830003F934F935F936F937F938F939F93AF9348
:10284000BF93EF93E091C6002091BD033091BE038A
:10285000C901019660E072E00E946C184091BB03D0
:102860005091BC038417950741F0D901A056B84F89
:10287000EC939093BE038093BD03EF91BF91AF9112
:102880009F918F917F916F915F914F913F912F9188
:102890000F900FBE0F901F9018951F920F920FB6BA
:1028A0000F9211242F933F934F935F936F937F93D6
:1028B0008F939F93AF93BF93EF93E091CE002091BE
:1028C000B9033091BA03C901019660E072E00E9439
:1028D0006C184091B7035091B8038417950741F0E5
:1028E000D901A056BA4FEC939093BA038093B903E1
:1028F000EF91BF91AF919F918F917F916F915F9178
:102900004F913F912F910F900FBE0F901F901895F0
:102910000C940214CF93C82F682F8DE00E940214EC
:102920006C2F8AE0CF910C9402144F925F926F92B9
:102930007F928F929F92AF92BF92CF92DF92EF924F
:10294000FF920F93CF93DF93CDB7DEB7A0970FB66B
:10295000F894DEBF0FBECDBF29013A0161157105A4
:1029600081059105C9F4602F80E3A0960FB6F89415
:10297000DEBF0FBECDBFDF91CF910F91FF90EF90E3
:10298000DF90CF90BF90AF909F908F907F906F908F
:102990005F904F900C940214EE24E394F12CEC0E13
:1029A000FD1E812C912C5401A30192010E948018DC
:1029B000F70161937F01FFEF8F1A9F0AAF0ABF0AE9
:1029C000B901CA01611571058105910569F7CC242A
:1029D000CA94DC2C7601C80CD91CEA1CFB1C14C060
:1029E000E1E0F0E0EC0FFD1FEC0DFD1D80818A3071
:1029F00010F4805D01C0895C602F0E94021481E0A8
:102A0000C81AD108E108F108EFEFCE16DE06EE068F
:102A1000FE0631F7A0960FB6F894DEBF0FBECDBF0D
:102A2000DF91CF910F91FF90EF90DF90CF90BF900B
:102A3000AF909F908F907F906F905F904F90089590
:102A4000CF92DF92EF92FF920F936B017C01042FE4
:102A500097FF0CC0642F8DE20E940214F094E09462
:102A6000D094C094C11CD11CE11CF11C2AE030E0C0
:102A700040E050E0C701B6010E9495140F91FF900D
:102A8000EF90DF90CF9008951092C40382E080937E
:102A9000C0038CE18093C50380EC91E09093C70361
:102AA0008093C6030895CF92DF92EF92FF921F9317
:102AB000CF93DF93EC0160E08E850E94E9120E94C3
:102AC000B6116B017C011EE7115089F182E090E0A4
:102AD0000E9432120E94B6116C157D058E059F056D
:102AE00020F40E94B6116B017C018E850E94481370
:102AF000892BF9F40E94B6116C197D098E099F0982
:102B0000643F714081059105F8F213C00E94B6112F
:102B10006B017C011130C1F10E94B6116C197D0965
:102B20008E099F09643F714081059105D0F010E046
:102B30002BC061E08E850E94E91260E08E850E94C4
:102B4000021384E591E00E9432120E94B6116B01DB
:102B50007C018E850E94481311E0892BD9F210E088
:102B6000D9CF8E850E94481311E0892B09F010E01F
:102B700089E090E00E9432120E94B6116C157D052A
:102B80008E059F0538F6C2CF812FDF91CF911F911F
:102B9000FF90EF90DF90CF9008951F93CF93DF9336
:102BA000FC011081C181D281912F9095F8948A8186
:102BB00089238A838981812B898360FF0BC089E007
:102BC00090E00E9432128A81812B8A8378948FE26E
:102BD00090E00AC087E390E00E9432128A81812B44
:102BE0008A83789485E090E0DF91CF911F910C94D7
:102BF00032120F931F93CF93DF93FC011081C18199
:102C0000D281F8948981812B89838A81012F009553
:102C100080238A8382E090E00E943212898180239F
:102C2000898387E090E00E943212C88178948DE217
:102C300090E00E9432121C2381E009F480E0DF91D1
:102C4000CF911F910F910895CF92DF92EF92FF9253
:102C50000F931F93CF93DF931F92CDB7DEB76C0115
:102C6000E62E08E010E0FF24F3949F2D9E2161E002
:102C700009F460E0C60149830E94CD15FF0C0150A4
:102C8000110949810115110581F7411115C0F89409
:102C9000D6011196ED91FC91129791818C918095BE
:102CA000892381831196ED91FC91129792818C91E9
:102CB00080958923828378940F90DF91CF911F9123
:102CC0000F91FF90EF90DF90CF900895FC01138655
:102CD0001586148612861186108617821682158232
:102CE000148213820895CF93DF93EC01862F6E87B1
:102CF00060E00E94E9128E8590E0FC01E251FD4FF8
:102D0000E491E883FC01EF5DFC4FE491F0E0EC5AC4
:102D1000FC4FE491E9831A82CE01DF91CF910C94AC
:102D200066161F93CF93DF931F92CDB7DEB7162F92
:102D300061E08AE149830E94E91261E088E10E9432
:102D4000E9124981112321F0113009F048C020C057
:102D500041110EC061E08AE10E9402138091860554
:102D600090918705A0918805B091890582602FC058
:102D70004130A9F560E08AE10E9402138091860546
:102D800090918705A0918805B09189058D7F1FC01E
:102D900041110EC061E088E10E9402138091860516
:102DA00090918705A0918805B091890581600FC039
:102DB0004130A9F460E088E10E9402138091860509
:102DC00090918705A0918805B09189058E7F8093A9
:102DD000860590938705A0938805B09389050F9089
:102DE000DF91CF911F91089561E089E20E94E9127D
:102DF00061E088E20E94E91288EE92E00C94780B80
:102E0000FC01128A118E138EDC01A356BE4F89E19C
:102E100011968C93119714961C92DF01AE55BE4FFC
:102E20001C9212961C92E956FE4F11821082089550
:102E30008AEC93E00C94001798D088F09F5790F09C
:102E4000B92F9927B751A0F0D1F0660F771F881FCF
:102E5000991F1AF0BA95C9F712C0B13081F09FD00E
:102E6000B1E008959CC0672F782F8827B85F39F0AC
:102E7000B93FCCF3869577956795B395D9F73EF42E
:102E800090958095709561957F4F8F4F9F4F0895D6
:102E9000E89409C097FB3EF49095809570956195F4
:102EA0007F4F8F4F9F4F9923A9F0F92F96E9BB27AA
:102EB0009395F695879577956795B795F111F8CF26
:102EC000FAF4BB0F11F460FF1BC06F5F7F4F8F4F91
:102ED0009F4F16C0882311F096E911C0772321F087
:102EE0009EE8872F762F05C0662371F096E8862F1F
:102EF00070E060E02AF09A95660F771F881FDAF776
:102F0000880F9695879597F9089597F99F6780E8B8
:102F100070E060E008959FEF80EC089500240A942B
:102F20001616170618060906089500240A941216A4
:102F30001306140605060895092E0394000C11F4D7
:102F4000882352F0BB0F40F4BF2B11F460FF04C084
:102F50006F5F7F4F8F4F9F4F089557FD9058440FDD
:102F6000551F59F05F3F71F04795880F97FB991FE8
:102F700061F09F3F79F087950895121613061406A5
:102F8000551FF2CF4695F1DF08C016161706180632
:102F9000991FF1CF86957105610508940895E8940D
:102FA000BB2766277727CB0197F908950BD0C4CFAD
:102FB000B5DF28F0BADF18F0952309F0A6CFABCF24
:102FC0001124EECFCADFA0F3959FD1F3950F50E007
:102FD000551F629FF001729FBB27F00DB11D639FCB
:102FE000AA27F00DB11DAA1F649F6627B00DA11D71
:102FF000661F829F2227B00DA11D621F739FB00D17
:10300000A11D621F839FA00D611D221F749F332786
:10301000A00D611D231F849F600D211D822F762F1F
:103020006A2F11249F5750408AF0E1F088234AF01C
:10303000EE0FFF1FBB1F661F771F881F9150504068
:10304000A9F79E3F510570F060CFAACF5F3FECF328
:10305000983EDCF3869577956795B795F795E79554
:103060009F5FC1F7FE2B880F911D9695879597F965
:103070000895A29FB001B39FC001A39F01D0B29F4A
:10308000700D811D1124911D08950E943918A59F6E
:10309000900DB49F900DA49F800D911D1124089553
:1030A000B7FF0C9445180E944518821B930B089596
:1030B000AA1BBB1B51E107C0AA1FBB1FA617B7075E
:1030C00010F0A61BB70B881F991F5A95A9F780957A
:1030D0009095BC01CD01089597FB072E16F400943E
:1030E00007D077FD09D00E94581807FC05D03EF4A0
:1030F000909581959F4F0895709561957F4F0895A4
:10310000A1E21A2EAA1BBB1BFD010DC0AA1FBB1FEB
:10311000EE1FFF1FA217B307E407F50720F0A21B5D
:10312000B30BE40BF50B661F771F881F991F1A94CA
:1031300069F760957095809590959B01AC01BD01F4
:10314000CF010895052E97FB16F4009407D057FD84
:103150000DD00E94801807FC09D07EF490958095D0
:10316000709561957F4F8F4F9F4F08955095409573
:10317000309521953F4F4F4F5F4F0895689401C0A0
:10318000E8948F929F92CF93DF930E94CC18DF91A7
:10319000CF919F908F90089588249924F401E401A1
:1031A000B0E49F93AA279A158B049C04ED05FE05B5
:1031B000CF05D007A10798F4AD2FDC2FCF2FFE2F1E
:1031C000E92D982C892E982F872F762F652F542F35
:1031D000432F322F2227B85031F7BF9127C01B2E23
:1031E000BF91BB27220F331F441F551F661F771F38
:1031F000881F991F881C991CEE1FFF1FCC1FDD1F05
:10320000AA1FBB1F8A149B04EC05FD05CE05DF0534
:10321000A007B10748F08A189B08EC09FD09CE0900
:10322000DF09A00BB10B21601A94E1F62EF4940192
:10323000AF01BE01CD01000C08950F930F7351F043
:10324000220F331F441F551F661F771F881F991FAA
:103250000A95B1F70F9108952A0D3B1D4C1D5D1D78
:103260006E1D7F1D801F911F08950790F691E02D20
:1032700009948F929F92AF92BF92CF92DF92EF927A
:10328000FF92CF93DF93EC01688179818A819B81E2
:10329000611571058105910521F464E279ED8BE5F5
:1032A00097E02DE133EF41E050E00E94A218490180
:1032B0005A019B01AC01A7EAB1E40E9445186B01D9
:1032C0007C01ACEEB4EFA50194010E945318C60E28
:1032D000D71EE81EF91EF7FE06C081E0C81AD10805
:1032E000E10880E8F80AC882D982EA82FB82E89481
:1032F000D7F8EE24FF24C601DF91CF91FF90EF9025
:10330000DF90CF90BF90AF909F908F9008950C94D6
:10331000391986E092E00C943919A0E0B0E080936E
:10332000060290930702A0930802B0930902089541
:10333000FB01DC0105900D920020E1F70895FB01EF
:10334000DC010D900020E9F7119701900D9200200B
:10335000E1F708950F931F93CF93DF93CDB7DEB7B7
:103360002E970FB6F894DEBF0FBECDBF0D891E8914
:103370008F89988D26E02C831A83098397FF02C0DA
:1033800080E090E801979E838D83CE014B96AC013F
:10339000698D7A8DCE0101960E94E7194D815E817B
:1033A00057FD0AC02F813885421753070CF49A0144
:1033B000F801E20FF31F10822E960FB6F894DEBFCD
:1033C0000FBECDBFDF91CF911F910F9108952F9226
:1033D0003F924F925F926F927F928F929F92AF92A5
:1033E000BF92CF92DF92EF92FF920F931F93CF93F2
:1033F000DF93CDB7DEB72C970FB6F894DEBF0FBEC4
:10340000CDBF7C016B018A01FC011782168283818A
:1034100081FFC6C188248394912C8C0E9D1EF701D8
:103420009381F60193FD859193FF81916F0188232C
:1034300009F4B2C1853239F493FD859193FF8191EE
:103440006F01853229F4B70190E00E941E1CE7CF7E
:10345000512C312C20E02032A8F48B3261F028F47A
:10346000803251F0833271F40BC08D3239F08033E9
:1034700049F4216028C02260246025C0286023C050
:10348000206121C027FD27C0382F30533A3078F40F
:1034900026FF06C0FAE05F9E300D1124532E13C0A4
:1034A0008AE0389E300D1124332E20620CC08E32FB
:1034B00021F426FD71C1206406C08C3611F4206809
:1034C00002C0883641F4F60193FD859193FF819106
:1034D0006F018111C0CF982F9554933018F09052FE
:1034E000933028F40C5F1F4FFFE3F9830DC0833640
:1034F00031F0833771F0833509F05EC023C0F801E5
:10350000808189830E5F1F4F44244394512C5401C2
:1035100015C03801F2E06F0E711CF801A080B18077
:1035200026FF03C0652D70E002C06FEF7FEFC5017D
:103530002C870E94131C2C0183012C856FE7262EFB
:10354000222218C03801F2E06F0E711CF801A08031
:10355000B18026FF03C0652D70E002C06FEF7FEFE2
:10356000C5012C870E94081C2C012C8550E8252EB3
:10357000222A830123FC1CC006C0B70180E290E030
:103580000E941E1C3A94832D90E048165906A8F319
:103590000FC0F50127FC859127FE81915F01B701DE
:1035A00090E00E941E1C31103A94F1E04F1A51082D
:1035B0004114510471F7EDC0843611F0893641F59C
:1035C000F80127FF07C060817181828193810C5FC0
:1035D0001F4F08C060817181882777FD8095982FE3
:1035E0000E5F1F4F4FE6B42EB22297FF09C0909591
:1035F0008095709561957F4F8F4F9F4FF0E8BF2A60
:103600002AE030E0A4010E944A1CA82EA81843C05A
:10361000853731F43FEEB32EB2222AE030E024C0E9
:1036200099EFB92EB2228F36B9F020F4883509F01F
:10363000B3C00DC0803721F0883709F0ADC002C09B
:1036400020E1B22AB4FE0BC084E0B82A08C024FFEF
:1036500009C0E6E0BE2A06C028E030E005C020E14F
:1036600030E002C020E132E0F801B7FE07C060811F
:103670007181828193810C5F1F4F06C060817181CF
:1036800080E090E00E5F1F4FA4010E944A1CA82E0C
:10369000A818FFE7BF22B6FE0BC02B2D2E7FA51466
:1036A00050F4B4FE0AC0B2FC08C02B2D2E7E05C01B
:1036B0007A2C2B2D03C07A2C01C0752C24FF0DC051
:1036C000FE01EA0DF11D8081803311F4297E09C0CD
:1036D00022FF06C07394739404C0822F867809F089
:1036E000739423FD14C020FF0FC05A2C731460F490
:1036F000530C5718732C08C0B70180E290E02C8758
:103700000E941E1C73942C857314B0F304C07314B0
:1037100010F4371801C0312C24FF12C0B70180E328
:1037200090E02C870E941E1C2C8522FF1EC021FFCA
:1037300003C088E590E002C088E790E0B7010CC0C4
:10374000822F867891F021FD02C080E201C08BE2D9
:1037500027FD8DE2B70190E00E941E1C06C0B70154
:1037600080E390E00E941E1C5A94A514C0F3AA9412
:10377000F401EA0DF11DB701808190E00E941E1C4A
:10378000A110F5CF06C0B70180E290E00E941E1C98
:103790003A943110F8CF43CEF7012681378102C029
:1037A0002FEF3FEFC9012C960FB6F894DEBF0FBE86
:1037B000CDBFDF91CF911F910F91FF90EF90DF90E0
:1037C000CF90BF90AF909F908F907F906F905F90C1
:1037D0004F903F902F900895F999FECF92BD81BDF3
:1037E000F89A992780B50895A6E1B0E044E050E04A
:1037F0000C94AA1C262FF999FECF1FBA92BD81BD49
:1038000020BD0FB6F894FA9AF99A0FBE0196089562
:10381000FC010590615070400110D8F7809590959B
:103820008E0F9F1F0895FC016150704001900110A0
:10383000D8F7809590958E0F9F1F08950F931F9333
:10384000CF93DF938C01EB018B8181FD03C00FEFE0
:103850001FEF1AC082FF0DC02E813F818C819D8198
:103860002817390764F4E881F9810193F983E88323
:1038700006C0E885F985802F0995892B41F78E814F
:103880009F8101969F838E83C801DF91CF911F9105
:103890000F910895FA01AA27283051F1203181F1C2
:1038A000E8946F936E7F6E5F7F4F8F4F9F4FAF4F48
:1038B000B1E03ED0B4E03CD0670F781F891F9A1F5B
:1038C000A11D680F791F8A1F911DA11D6A0F711D0F
:1038D000811D911DA11D20D009F468943F912AE01B
:1038E000269F11243019305D3193DEF6CF01089503
:1038F000462F4770405D4193B3E00FD0C9F7F6CF34
:10390000462F4F70405D4A3318F0495D31FD4052FB
:10391000419302D0A9F7EACFB4E0A6959795879591
:1039200077956795BA95C9F7009761057105089570
:103930009B01AC010A2E069457954795379527951C
:10394000BA95C9F7620F731F841F951FA01D0895B4
:10395000DC01CB01FC01F999FECF06C0F2BDE1BD4F
:10396000F89A319600B40D9241505040B8F708953E
:04397000F894FFCFF9
:103974000000A0092000010000000153756E004DF5
:103984006F6E005475650057656400546875004691
:1039940072690053617400496E76616C69642047F2
:1039A4004D542076616C7565003A3A3A3A3A3A00D9
:00000001FF
