:100000000C942A030C942E240C945F240C949024BA
:100010000C94C1240C94F2240C9423250C945425A4
:100020000C9485250C9459030C9459030C94590392
:100030000C94F7130C9459030C9459030C94531417
:100040000C9459030C9459030C9459030C945903C0
:100050000C9459030C9459030C9459030C942E14CA
:100060000C9459030C94D4160C9459030C94590312
:100070000C9459030C9459030C9459030C94590390
:100080000C9459030C9459030C9459030C94590380
:100090000C940F170C9459030C9459030C94C71229
:1000A0000C9459030C9459030C9459030C94590360
:1000B0000C9459030C9459030C9459030C94590350
:1000C0000C9459030C9459030C945903076342365A
:1000D000B79BD8A71A39685618AEBAAB558C1D3CD9
:1000E000B7CC5763BD6DEDFD753EF6177231BF009D
:1000F0000000803F08000000BE922449123EABAAD7
:10010000AA2ABECDCCCC4C3E00000080BEABAAAA31
:10011000AA3E00000000BF000000803F0000000079
:1001200000084178D3BB4387D1133D190E3CC3BDB2
:100130004282AD2B3E68EC8276BED98FE1A93E4C5F
:1001400080EFFFBE01C4FF7F3F0000000000535856
:100150005F303261206578616D706C650053656D4C
:100160007465636820535831323732206D6F64757F
:100170006C6520545820696E204C6F5261002D2D03
:100180002D2D2D2D2D2D2D2D2D2D2D2D2D2D2D2D9F
:100190002D2D2D2D2D2D2D2D2D2D2D2D2D2D2D2D8F
:1001A0002D2D2D2D2D2D0053657474696E672063E0
:1001B0006F6E66696775726174696F6E3A002D2D96
:1001C0002D2D2D2D2D2D2D2D2D2D2D2D2D2D2D2D5F
:1001D0002D2D2D2D2D2D2D2D2D2D2D2D2D2D2D2D4F
:1001E0002D2D2D2D2D2D0053657474696E672043C0
:1001F00068616E6E656C2043485F31375F38363812
:100200002E09207374617465200053657474696EDF
:100210006720486561646572204F4E2E090920737E
:1002200074617465200053657474696E67204D6F46
:100230006465202731272E090920737461746520B5
:100240000053657474696E6720435243204F4E2EED
:100250000909092073746174652000536574746919
:100260006E6720506F77657220746F20274C272EA1
:100270000909207374617465200053657474696E94
:1002800067204E6F646520416464726573732074E7
:100290006F202732272E0920737461746520002D8A
:1002A0002D2D2D2D2D2D2D2D2D2D2D2D2D2D2D2D7E
:1002B0002D2D2D2D2D2D2D2D2D2D2D2D2D2D2D2D6E
:1002C0002D2D2D2D2D2D2D0053656E64696E673AF1
:1002D000002D2D2D2D2D2D2D2D2D2D2D2D2D2D2D7B
:1002E0002D2D2D2D2D2D2D2D2D2D2D2D2D2D2D2D3E
:1002F0002D2D2D2D2D2D2D2D2D0073656E6420702F
:1003000061636B657420746F2049442000526563FB
:1003100065697665642041434B2066726F6D20529B
:10032000656365697665720A005061636B65742068
:1003300073656E74204F4B004572726F7220736547
:100340006E64696E6720746865207061636B6574A4
:100350000073746174653A2000526563656976655F
:10036000642041434B2066726F6D2052656365695E
:100370007665720A005061636B65742073656E74F4
:10038000204F4B004572726F722073656E64696E08
:100390006720746865207061636B657400737461B5
:1003A00074653A2000CD03E10307042E044E046671
:1003B00004740484049904AF04C004CC04D304F08E
:1003C000040E0524053205420565056B05416C6187
:1003D000726D204D6F6465206D6174636865732074
:1003E000005B446179203A20686F757273203A206F
:1003F0006D696E75746573203A207365636F6E6402
:10040000735D202D3E20005B44617465203A2068B6
:100410006F757273203A206D696E75746573203A3A
:10042000207365636F6E64735D202D3E20005B4812
:100430006F757273203A206D696E75746573203A1A
:10044000207365636F6E64735D202D3E20005B4DED
:10045000696E75746573203A207365636F6E64739B
:100460005D202D3E20005B5365636F6E64735D20DD
:100470002D3E20004F6E63652070657220736563AA
:100480006F6E6400496E636F727265637420616C95
:1004900061726D206D6F6465005B253032753A25A1
:1004A0003032753A253032753A253032755D005B51
:1004B000253032753A253032753A253032755D0077
:1004C0005B253032753A253032755D005B25303260
:1004D000755D005B446179203A20686F7572732006
:1004E0003A206D696E75746573205D202D3E200085
:1004F0005B44617465203A20686F757273203A20FE
:100500006D696E75746573205D202D3E20005B481B
:100510006F757273203A206D696E757465735D2016
:100520002D3E20005B4D696E757465735D202D3E18
:1005300020004F6E636520706572206D696E757462
:10054000650025732C20253032752F253032752F0C
:10055000253032752C20253032753A253032753AE7
:1005600025303275006572726F7200253032752544
:100570006325303275256325303275256325303289
:100580007525632530327525632530327525632541
:100590003032750000000809000000000000000073
:1005A000000000000000000000000000000000004B
:1005B000000000000000000000000000000000003B
:1005C000000000000000000102081010204080041C
:1005D0000810204002020408102040800102802000
:1005E00040042001010204081020014080408001E5
:1005F0000208040880041004020105050505030330
:1006000003030101010404030606060606060606A6
:1006100001040501050103020202020202010202B5
:10062000050504040304040103040707070020234D
:1006300026292C2F32002225282B2E31340021246C
:10064000272A2D3033002211FE1DCC1F1D211B2413
:10065000B6258A2711241FBECFEFD1E2DEBFCDBF62
:1006600012E0A0E0B2E0E6E9FFE500E00BBF02C067
:1006700007900D92A837B107D9F71DE0A8E7B2E0BF
:1006800001C01D92A430B107E1F716E0C4E5D6E041
:1006900000E006C022970109FE010BBF0E94462C14
:1006A000C634D10780E00807A9F70E9416180C94F9
:1006B000C92F0C940000CF938FEB96E00E94D91FB6
:1006C0006EE471E08FEB96E00E94FF206DE571E033
:1006D0008FEB96E00E94FF206EE771E08FEB96E0D3
:1006E0000E94FF2067EA71E08FEB96E00E94FF20F6
:1006F0006EEB71E08FEB96E00E94FF2089E892E0BC
:100700000E94FF0B40E050E069ED70E089E892E064
:100710000E94B10A80937A0267EE71E08FEB96E057
:100720000E94502060917A02772767FD70958FEBC9
:1007300096E00E94B52089E892E00E94A20580938D
:100740007A02C1E0C09387026AE072E08FEB96E024
:100750000E94502060917A02772767FD70958FEB99
:1007600096E00E94B5206AE089E892E00E9476084F
:1007700080937A028AE08093850266E272E08FEBD2
:1007800096E00E94502060917A02772767FD70956D
:100790008FEB96E00E94B52089E892E00E94EA057E
:1007A00080937A02C093860261E472E08FEB96E058
:1007B0000E94502060917A02772767FD70958FEB39
:1007C00096E00E94B5206CE489E892E00E942A0B32
:1007D00080937A026BE572E08FEB96E00E945020E6
:1007E00060917A02772767FD70958FEB96E00E9403
:1007F000B52062E089E892E00E94A30B80937A0220
:1008000083E0809388026AE772E08FEB96E00E94B3
:10081000502060917A02772767FD70958FEB96E004
:100820000E94B5208FEB96E00E94F2206FE972E003
:100830008FEB96E00E94FF2068EC72E08FEB96E071
:100840000E94FF2061ED72E08FEB96E0CF910C9457
:10085000FF2080917902813009F05AC0E09178023E
:10086000FF27E7FDF095E65FFD4F4EE052E0608127
:1008700089E892E00E94081180937A026AEF72E0A0
:100880008FEB96E00E945020E0917802FF27E7FD71
:10089000F095E65FFD4F408150E060E070E02AE0B7
:1008A00030E08FEB96E00E94782080917A028111EF
:1008B00016C06DE073E08FEB96E00E94FF2069E2C6
:1008C00073E08FEB96E00E94FF20809178028230E7
:1008D0001CF48F5F809378021092790219C068E34C
:1008E00073E08FEB96E00E94FF2061E573E08FEBF1
:1008F00096E00E94502040917A02552747FD50957E
:10090000652F752F2AE030E08FEB96E00E9478206B
:1009100080917902811149C08AE0E5E8F2E0ABE715
:10092000B2E001900D928A95E1F74BE752E06091B9
:100930000C0289E892E00E94081180937A026EE22C
:1009400072E08FEB96E00E94DC2080917A028111A8
:1009500013C081E08093790269E573E08FEB96E044
:100960000E94FF2065E773E08FEB96E00E94FF2076
:1009700084E08093880219C064E873E08FEB96E00E
:100980000E94FF206DE973E08FEB96E00E945020FB
:1009900040917A02552747FD5095652F752F2AE023
:1009A00030E08FEB96E00E9478208FEB96E00C947D
:1009B000F220FC01118281E0828387E0838340E0A2
:1009C00050EC64EE70E04483558366837783128A2B
:1009D000148A138E8FE08087168A178A108E83E020
:1009E000818FE55EFE4F10828091EA089091EB08BE
:1009F000A091EC08B091ED08A2608093EA08909372
:100A0000EB08A093EC08B093ED080895CF93C62FA0
:100A100066E089EB96E00E943F1E61E089EB96E07C
:100A20000E943F1E61E070E080E090E00E94CA14E6
:100A30008C2F8F770E94BB1F80E0CF910C94BB1F3F
:100A40001F93CF93DF931F92CDB7DEB7162F66E0CB
:100A500089EB96E049830E943F1E61E089EB96E0B6
:100A60000E943F1E61E070E080E090E00E94CA14A6
:100A7000812F80680E94BB1F4981842F0E94BB1F69
:100A800066E089EB96E00F90DF91CF911F910C9477
:100A90003F1E1F93CF93DF93EC0161E00E94060598
:100AA000182F8B8D813041F441E861E0CE010E9426
:100AB00020054FEF62E10CC041E061E0CE010E94F1
:100AC00020054FEF6EE3CE010E9420054FEF6FE34C
:100AD000CE010E942005412F61E0CE01DF91CF9130
:100AE0001F910C942005CF93DF93EC0140E061E06F
:100AF0000E94200540E861E0CE010E94200541E807
:100B000061E0CE010E9420054FEF63E2CE010E941A
:100B1000200548E06DE1CE010E94200544E76EE12A
:100B2000CE010E94200561E0CE010E9406058138B9
:100B300021F481E08B8F80E002C01B8E81E0DF9189
:100B4000CF910895CF93DF93EC018B8D8823E1F053
:100B50006DE1CE010E9406059B81963041F0482F41
:100B60004B7F6DE1CE010E94200582E001C08FEF36
:100B70009B81963061F06DE1CE010E94060582FDF9
:100B800005C01A8A80E003C08FEF01C081E0DF91C9
:100B9000CF910895CF93DF93EC018B8D8823A1F043
:100BA0006DE1CE010E940605482F44606DE1CE0143
:100BB0000E9420056DE1CE010E94060582FF06C05D
:100BC00081E08A8B80E003C08FEF01C081E0DF917C
:100BD000CF9108951F93CF93DF93EC011B8D1130BC
:100BE00089F46DE10E940605482F42606DE1CE0157
:100BF0000E9420056DE1CE010E94060581FF14C010
:100C00001C8B14C060E30E940605482F406160E31E
:100C1000CE010E94200560E3CE010E94060584FFFC
:100C200003C081E08C8B02C081E001C080E0DF91D5
:100C3000CF911F910895CF93DF93EC018B8D882383
:100C400091F06EE1CE010E940605282F30E044E0CD
:100C5000359527954A95E1F72B83265081E027307B
:100C600018F480E001C08FEFDF91CF910895CF930A
:100C7000DF93EC018B8D882389F06DE1CE010E941A
:100C80000605282F30E056E0359527955A95E1F76F
:100C9000298381E0233019F080E001C08FEFDF91DC
:100CA000CF910895EF92FF920F931F93CF93DF930D
:100CB000EC01062F61E00E940605E82E8B8D811164
:100CC00005C0CE010E947305182FD3C041E861E032
:100CD000CE010E9420056DE1CE010E940605F82E8E
:100CE0006EE1CE010E940605182F0930B1F030F4F4
:100CF000073069F078F4063009F506C00B3099F03A
:100D000078F00C30D9F415C01F76106619C01F7723
:100D1000106720C01F7810681DC01F7910691AC0A5
:100D20001F7A106A17C01F7B106BCE010E94370616
:100D300002C01F7C106C81E0F82A0CC0063051F410
:100D4000CE010E94CA0545E061E3CE010E94200564
:100D50004CE006C043E061E3CE010E9420054AE07A
:100D600067E3CE010E9420054F2D6DE1CE010E9468
:100D70002005412F47606EE1CE010E9420056DE104
:100D8000CE010E940605182F6EE1CE010E940605D5
:100D90000930C1F138F40730F9F048F5063009F0B0
:100DA00065C008C00B3009F445C0B8F10C3009F03B
:100DB0005DC04CC0282F30E014E0359527951A957A
:100DC000E1F72630310511F012E053C082FFFCCF6D
:100DD0008A898130C9F74CC0282F30E0B4E03595BE
:100DE0002795BA95E1F72730310571F720C0282FF4
:100DF00030E0A4E035952795AA95E1F72830310534
:100E000019F715C0282F30E0F4E035952795FA95AD
:100E1000E1F729303105C1F60AC0282F30E0E4E0BF
:100E200035952795EA95E1F72A30310569F682FD77
:100E30001FC0CACF282F30E074E0359527957A95EA
:100E4000E1F72B30310509F0BFCF0BC0282F30E080
:100E500064E0359527956A95E1F72C30310509F066
:100E6000B3CF82FFB1CF10FFAFCF02C011E001C0FE
:100E700010E04E2D61E0CE010E942005802F8650AB
:100E8000873010F40B8310E0812FDF91CF911F91F9
:100E90000F91FF90EF900895CF92DF92EF92FF9223
:100EA0000F931F93CF93DF931F92CDB7DEB76C01E3
:100EB0008B0161E00E940605E82EF601838D811109
:100EC00005C0C6010E947305F82E02C032E0F32E61
:100ED00041E861E0C6010E9420056DE1C6010E9463
:100EE0000605482F01301105A1F020F00230110550
:100EF000A9F412C04F73C60149830E941B06F60174
:100F0000938149819B3009F402C09C3039F44160DF
:100F100005C04F77406402C04F7B40686DE1C60159
:100F20000E9420056DE1C6010E94060501301105F1
:100F3000F1F020F00230110581F524C0682F70E037
:100F400026E0759567952A95E1F7672B69F5F60117
:100F500093819B3029F4F82EF094F1E0FF2224C015
:100F60009C3009F5F82EF09481E0F8221DC0282F5E
:100F700030E096E0359527959A95E1F721303105D7
:100F800099F411C0282F30E086E0359527958A9591
:100F9000E1F72230310541F406C00330110520F09D
:100FA000FF24F39403C0F12CF60101834E2D61E080
:100FB000C6010E9420058F2D0F90DF91CF911F91C8
:100FC0000F91FF90EF90DF90CF900895FF920F93D5
:100FD0001F93CF93DF93EC01162F61E00E9406056B
:100FE000F82E8B8D811105C0CE010E947305082F4C
:100FF0006AC041E861E0CE010E9420056DE1CE01AA
:101000000E940605123061F018F4113089F405C011
:10101000133049F0143061F409C08F7C886008C037
:10102000877D806105C08F7D886102C0877E806278
:10103000482F6DE1CE010E9420056DE1CE010E9496
:1010400006051230B1F018F41130D1F505C0133097
:10105000E9F01430A9F527C0282F30E0E3E03595FA
:101060002795EA95E1F7277033272130310551F1B3
:1010700027C0282F30E073E0359527957A95E1F762
:101080002770332722303105D9F41CC0282F30E0D7
:1010900063E0359527956A95E1F72770332723306C
:1010A000310571F40FC0282F30E053E035952795B6
:1010B0005A95E1F7277033272430310509F402C02F
:1010C00002E001C000E0812F8150843010F001E087
:1010D00001C01A834F2D61E0CE010E942005802FB0
:1010E000DF91CF911F910F91FF9008950F931F9360
:1010F000CF93DF93EC01062F61E00E940605182FC5
:101100008B8D811103C0CE010E94730541E861E01F
:10111000CE010E9420050530D9F168F4023009F1B2
:1011200020F4013009F049C116C0033001F1043048
:1011300009F043C127C0083009F441C030F406303B
:1011400069F1073009F039C12FC00930F1F10A30D7
:1011500009F033C140C061E0CE010E94E6076CE0B7
:101160000BC061E0CE010E94E6076CE022C061E0A6
:10117000CE010E94E6076AE0CE010E94520660E0BE
:1011800070E033C061E0CE010E94E6076CE028C049
:1011900061E0CE010E94E6076AE00BC061E0CE018B
:1011A0000E94E6076BE01CC061E0CE010E94E607EA
:1011B00069E0CE010E94520661E070E016C061E075
:1011C000CE010E94E60769E00BC061E0CE010E94FB
:1011D000E60768E005C061E0CE010E94E60767E02F
:1011E000CE010E94520662E070E0CE010E944C07E0
:1011F000E8C0282F30E043E0359527954A95E1F780
:101200002130310509F0DBC06EE1CE010E940605F8
:1012100090E024E0959587952A95E1F701E00C97F9
:1012200009F0F4C0C8C0282F30E003E035952795B9
:101230000A95E1F72930310509F0C1C017C0282F00
:1012400030E0B3E035952795BA95E1F721303105C7
:1012500009F0B5C027C0282F30E0A3E035952795C9
:10126000AA95E1F72131310509F0A9C06EE1CE015F
:101270000E940605282F30E0F4E035952795FA9571
:10128000E1F701E02C30310509F0C0C094C0282FEF
:1012900030E0E3E035952795EA95E1F7293031050F
:1012A00009F08DC06EE1CE010E940605282F30E0C6
:1012B00074E0359527957A95E1F701E02A303105FC
:1012C00009F0A4C078C0282F30E063E03595279559
:1012D0006A95E1F72131310509F071C06EE1CE0167
:1012E0000E940605282F30E054E0359527955A9541
:1012F000E1F701E02B30310509F088C05CC0282FF0
:1013000030E043E0359527954A95E1F729303105DE
:1013100009F055C00BC0282F30E093E03595279594
:101320009A95E1F72131310509F049C06EE1CE010E
:101330000E940605282F30E084E0359527958A9590
:10134000E1F701E02930310509F060C034C0282FF1
:1013500030E003E0359527950A95E1F72131310515
:1013600071F56EE1CE010E940605282F30E0B4E051
:1013700035952795BA95E1F701E02830310509F058
:1013800045C019C0282F30E0A3E035952795AA95D0
:10139000E1F72131310599F46EE1CE010E94060595
:1013A000282F30E0F4E035952795FA95E1F701E034
:1013B0002730310559F500E029C00FEF27C001E0C3
:1013C00025C06DE1CE010E940605053009F45FCF0E
:1013D00068F4023009F427CF18F4013081F709CFFF
:1013E000033009F42CCF043051F735CF083009F41D
:1013F00092CF30F4063009F466CF073001F77FCF83
:10140000093009F4A4CF0A30D1F6BCCF412F61E0F6
:10141000CE010E942005802FDF91CF911F910F9167
:101420000895493989ED580782EE6807710509F476
:1014300094C008F04EC0493989E9580788ED68071B
:10144000710509F48AC0F8F4411580E6580788ED63
:101450006807710509F481C038F44C3C5C44684D60
:10146000710509F07CC079C0433383E7580788EDE4
:101470006807710509F471C046365648684D710514
:1014800009F06DC06AC04115510589ED6807710505
:1014900009F463C078F44C3C8CEA580788ED68077F
:1014A000710509F45AC04115504C684D710509F099
:1014B00056C053C04E3185EC580781EE6807710560
:1014C00009F44BC04C355F44624E710509F047C0CA
:1014D00044C04F3882E0580785EE68077105E9F18E
:1014E000D8F444318EEE580783EE68077105A9F1F0
:1014F00030F4473D5346634E710589F52EC04135A2
:1015000088E7580784EE6807710539F14115504C9A
:10151000644E710521F521C0473481EA580786EEF3
:1015200068077105D1F068F44C3C8CE8580785EEEB
:101530006807710591F04A305741664E710579F49C
:101540000CC045388BE2580787EE6807710529F013
:10155000423C554B674E710511F481E0089580E0DF
:1015600008957F928F929F92AF92BF92CF92DF9217
:10157000EF92FF920F931F93CF93DF93EC016A01D9
:101580007B0161E00E940605782E8B8D813011F47D
:1015900041E801C041E061E0CE010E9420054E2DEE
:1015A00066E0CE010E9420054D2D67E0CE010E942D
:1015B00020054C2D68E0CE010E94200566E0CE019A
:1015C0000E940605082F67E0CE010E940605182F2D
:1015D000902E812CA12CB12CBA2CA92C982C8824CB
:1015E00068E0CE010E940605712F60E0082F10E030
:1015F00020E030E0060F171F211D311D080D191DB9
:101600002A1D3B1D0C151D052E053F0531F4CC820E
:10161000DD82EE82FF8210E001C011E0B701A60179
:10162000CE010E94110A811101C01FEF472D61E018
:10163000CE010E942005812FDF91CF911F910F9144
:10164000FF90EF90DF90CF90BF90AF909F908F90E2
:101650007F9008950F931F93CF93DF93EC01162F84
:1016600061E00E940605082F8B8D813011F441E85E
:1016700001C041E061E0CE010E9420051C3439F038
:101680001D3419F0183439F404C08FE003C01886F3
:1016900002C087E08887488569E0CE010E94200566
:1016A00069E0CE010E94060511E09885891301C00A
:1016B00010E0402F61E0CE010E942005812FDF91D4
:1016C000CF911F910F9108950F931F93CF93DF93A5
:1016D000EC01162F61E00E940605082F1F8F8B8DED
:1016E000813061F441E861E0CE010E9420054F8D18
:1016F00062E2CE010E94200562E20BC041E061E09F
:10170000CE010E9420054F8D62E3CE010E9420058C
:1017100062E3CE010E94060511E09F8D981301C07F
:1017200010E0402F61E0CE010E942005812FDF9163
:10173000CF911F910F910895FC01678570896B5FB0
:101740007F4F0C94640B0F931F93CF93DF93EC01A7
:10175000162F698B61E00E940605082F9B8D913042
:10176000F9F091111DC041E061E0CE010E94200519
:10177000412F63E3CE010E94200540E064E3CE01E7
:101780000E94200563E3CE010E940605182F402F1A
:1017900061E0CE010E94200581E09989191301C002
:1017A00080E0DF91CF911F910F9108950F931F93C8
:1017B000CF93DF93EC016C31E0F4062F006261E01F
:1017C0000E940605182F8B8D813011F441E801C06D
:1017D00041E061E0CE010E942005402F6BE0CE0188
:1017E0000E942005412F61E0CE010E94200580E08B
:1017F00001C08FEFDF91CF911F910F910895CF938B
:10180000DF93EC0161E086E10E94AB1561E086E1C7
:101810000E94C41581E08093B9060E94031E81E0F6
:101820000E94261E84E00E94341E80E00E942F1E2B
:101830006BE1CE010E94D60B811105C0CE01DF9174
:10184000CF910C94730581E0DF91CF9108951F93A0
:10185000CF93DF93EC01845E9E4FFC0180E091E02A
:10186000DF019C011D9221503040E1F743E461E328
:10187000CE010E94200549E06AE0CE010E942005C9
:1018800043E26CE0CE010E94200540E06DE0CE0115
:101890000E9420054FEF6FE1CE010E94200540E03D
:1018A00065E2CE010E9420058B8D813039F46FEF07
:1018B000CE010E94640B182F45E805C0CE010E949E
:1018C0009C0B182F45E061E0CE010E942005812F7E
:1018D000DF91CF911F9108958F929F92AF92BF9207
:1018E000CF92DF92EF92FF921F93CF93DF93EC01A1
:1018F0004A015B011B8A0E9478146B017C018B8D6D
:10190000813061F562E1CE010E940605182F04C006
:101910000E9478146B017C0114FD7DC00E94781434
:101920006C197D098E099F09681579058A059B0543
:1019300008F447C07BC00E9478146B017C01111130
:101940006FC00E9478146C197D098E099F09681573
:1019500079058A059B0508F442C018C06FE3CE01E3
:101960000E940605182F04C00E9478146B017C01A8
:1019700012FD54C00E9478146C197D098E099F09CC
:10198000681579058A059B05C0F150C08B898130A7
:1019900089F48D899989891791F0882381F08B8D3D
:1019A000813011F441E801C041E061E0CE010E94C4
:1019B000200503C08B8D8130B9F780E039C081E00C
:1019C00037C062E1CE010E940605182F0E947814EC
:1019D0006C157D058E059F0508F09ECF99CF65E2B9
:1019E000CE010E940605182F0E9478146C157D0503
:1019F0008E059F0508F0A3CF9ECF6FE3CE010E9416
:101A00000605182F0E9478146C157D058E059F051C
:101A100008F0AECFA9CF81E08B8B93CF81E08B8B89
:101A200060E0CE010E9406058D8BB0CF1B8AAECF41
:101A3000DF91CF911F91FF90EF90DF90CF90BF90FB
:101A4000AF909F908F90089540E157E260E070E082
:101A50000C946C0CFC01658B648F8189858F868961
:101A6000868F8F5F868B80E008952F923F924F92F2
:101A70005F926F927F928F929F92AF92BF92CF921E
:101A8000DF92EF92FF920F931F93CF93DF93CDB727
:101A9000DEB72E970FB6F894DEBF0FBECDBF2C0178
:101AA0008B01FC01638170E080E090E00E949A2845
:101AB0004B015C01F201628970E080E090E00E94DD
:101AC0009A286B837C838D839E83F201628170E010
:101AD00080E090E00E949A286F83788789879A87B0
:101AE00020E030E040E251E4682D792D8A2D9B2DD5
:101AF0000E948C2918163CF4C12CD12CE0E8EE2E63
:101B0000EFE3FE2E03C0C12CD12C76010115110587
:101B100059F0B8016B5F7F4F80E090E00E949A28F7
:101B200069837A833C0106C019821A826FE7662EA8
:101B300073E4772EF2018181882391F0813049F09E
:101B4000823071F4212C312C5AEF452E53E4552E5E
:101B50000DC0212C312C4AE7442E43E4542E06C0FC
:101B6000212C312C3AEF432E32E4532E282D392DDF
:101B70004A2D5B2D60E070E080E090E40E94F32944
:101B8000A20191010E9406288B018E879D8720E08B
:101B900030E044E451E4712F0E949029362E272E24
:101BA0008B879C8720E030E040E051E4B981AA8136
:101BB0006B2F7A2F862D972D0E9490292B013C01A7
:101BC00020E030E040E850E4682D792D8A2D9B2DEF
:101BD0000E9490299B01AC01C301B2010E948E2793
:101BE00020E030E040EE51E40E948F2720E030E01A
:101BF00040E851E40E948F272B013C0120E030E0B7
:101C000040EA51E4BB81AC81ED81FE816B2F7A2FDC
:101C1000CF010E9490299B01AC01C301B2010E9437
:101C20008E272B013C01A7019601C701B6010E9436
:101C30008F279B01AC01682D792D8A2D9B2D0E9449
:101C40008E2720E030E040E850E40E9490299B017C
:101C5000AC01C301B2010E9406280E94F3276B0168
:101C60007C0120E030E040E850E4BF81A885B984E1
:101C7000AA846B2F7A2F8B2D9A2D0E948F279B0180
:101C8000AC01C701B6010E9490296B017C0120E0E4
:101C900030E0A9017D2D9F2D0E948C2918165CF43F
:101CA00020E030E040E051E46C2D7D2D8E2D9F2D05
:101CB0000E948F2704C060E070E080E091E4FE8520
:101CC000ED85202F312F4F2F5E2F0E9490299B01F1
:101CD000AC01D101EB851C856B2F722D8E2F912FBE
:101CE0000E948F272E960FB6F894DEBF0FBECDBF91
:101CF000DF91CF911F910F91FF90EF90DF90CF90E8
:101D0000BF90AF909F908F907F906F905F904F901B
:101D10003F902F900895FC01678570890C94350DD4
:101D2000AF92BF92CF92DF92EF92FF920F931F93E9
:101D3000CF93DF938C01FC01838DE801C25EDC4F01
:101D4000813069F56881798180E090E00E949A286D
:101D50002DEC3CEC4CEC5DE30E94902920E030E05F
:101D600040E85FE30E948F270E946E285B01C80154
:101D70000E948B0E6B017C010E949A2C8C01C70182
:101D8000B6010E946E289B0128513C4FC801B50145
:101D90000E94692B280F391F3983288304C080E1F2
:101DA00097E29983888380E0DF91CF911F910F9113
:101DB000FF90EF90DF90CF90BF90AF900895CF93BA
:101DC000DF93FC01C62FD72FDE010D900020E9F72D
:101DD0001197AC1BBD0BAC3FB10528F08BEF90E029
:101DE000908B878702C0B08BA78727853089DB015E
:101DF00080E090E006C04D91EF01C80FD91F48A3C5
:101E0000019682179307B9F7238D211106C0CD974C
:101E100020F08CE390E0908B8787CF01DF91CF910A
:101E20000C949C0BEF92FF920F931F93CF93DF9331
:101E3000EC01F62E8A0161E00E940605E82ECE0133
:101E40000E9449051F8A888D81110DC06F2DCE011A
:101E50000E942A0DF82E81110FC0B801CE010E94F8
:101E6000DF0EF82E09C0CE010E949C0BF82EFE0159
:101E7000E55EFE4F888D808340E06EE0CE010E94DB
:101E8000200540E06DE0CE010E942005F1102DC03C
:101E90004C8D60E0CE010E9420054D8D60E0CE01AA
:101EA0000E9420054E8D60E0CE010E9420054F8DDE
:101EB00060E0CE010E94200500E010E009C0E00FC4
:101EC000F11F40A160E0CE010E9420050F5F1F4F6F
:101ED0002F853889FE010217130788F3E55EFE4F50
:101EE000408160E0CE010E9420054E2D61E0CE01D0
:101EF0000E9420058F2DDF91CF911F910F91FF90B0
:101F0000EF9008958F929F92AF92BF92CF92DF92FF
:101F1000EF92FF921F93CF93DF93EC014A015B0195
:101F20000E9478146B017C018B8D813001F5CE010C
:101F30000E94490543E861E0CE010E94200562E16C
:101F4000CE010E940605182F04C00E9478146B0170
:101F50007C0113FD28C00E9478146C197D098E093C
:101F60009F09681579058A059B0530F11CC043E07F
:101F700061E0CE010E9420056FE3CE010E940605BC
:101F8000182F04C00E9478146B017C0113FD0BC054
:101F90000E9478146C197D098E099F0968157905CE
:101FA0008A059B05B0F0CE010E94490513FB8827E6
:101FB00080F991E089271AC062E1CE010E940605EE
:101FC000182F0E9478146C157D058E059F0508F664
:101FD000BCCF6FE3CE010E940605182F0E94781433
:101FE0006C157D058E059F0588F6CCCFDF91CF91CE
:101FF0001F91FF90EF90DF90CF90BF90AF909F9098
:102000008F900895CF93DF93EC010E94900EFE0114
:10201000E25EFC4F4081518160E070E0CE01DF91D3
:10202000CF910C94820FCF93DF93EC010E94120F9B
:10203000811105C0CE01DF91CF910C940210DF9188
:10204000CF9108958F929F92AF92BF92CF92DF92DD
:10205000EF92FF920F931F93CF93DF93EC014A010E
:102060005B010E9478146B017C018B8D8130D9F467
:1020700062E1CE010E940605182F04C00E94781468
:102080006B017C01012F007416FD8DC00E94781435
:102090006C197D098E099F09681579058A059B05CC
:1020A00008F473C080C06FE3CE010E940605182FAC
:1020B00004C00E9478146B017C01012F047012FD92
:1020C00086C00E9478146C197D098E099F096815D5
:1020D00079058A059B0508F46CC079C0112309F4C1
:1020E00048C04E0184EE881A8DEF980A8D89F4015C
:1020F000808360E0CE010E9406055E01F3EEAF1A18
:10210000FDEFBF0AF501808360E0CE010E94060565
:102110006E01F2EECF1AFDEFDF0AF601808360E078
:10212000CE010E9406057E01F1EEEF1AFDEFFF0AD7
:10213000F701808360E0CE010E940605FE01E05EAB
:10214000FD4F8083F40120819D8D291314C0F5017A
:1021500020819C8D291311C0F60120819E8D2913A9
:102160000EC0F701908191110CC081110CC010E0DC
:1021700038C018E036C017E034C016E032C015E0B1
:1021800030C014E02EC013E02CC062E1CE010E94EA
:102190000605182F0E9478146C157D058E059F0585
:1021A00008F070CF6BCF11E0011101C010E041E8E1
:1021B00013C06FE3CE010E940605182F0E94781409
:1021C0006C157D058E059F0508F077CF72CF11E065
:1021D000011101C010E041E061E0CE010E94200544
:1021E0007DCFCE010E944905812FDF91CF911F91B4
:1021F0000F91FF90EF90DF90CF90BF90AF909F90A6
:102200008F90089540E157E260E070E00C94221056
:10221000CF93DF93EC010E941310811110C0CE0107
:102220000E94270C81110BC0CE010E94240D88232F
:1022300029F0CE01DF91CF910C94021189E0DF915A
:10224000CF91089589E892E00C94D9041092B205D8
:10225000E4E6F0E080818F778083589A599AE9EB21
:10226000F0E080818E7F808380818D7F808381E418
:102270008093B80085E48093BC0080E2E3EBF5E056
:10228000DF01982F1D929A95E9F7E3EDF5E0DF0164
:10229000982F1D929A95E9F7E3EFF5E0DF011D9283
:1022A0008A95E9F70895613298F42091B2052430B7
:1022B00089F46093AF05FC0183ED95E0DC0102C079
:1022C00021912D932A2F281B2617D0F380E0089503
:1022D00081E0089582E0089585EC8093BC0010921F
:1022E000B2050895589859988091B90081608093FB
:1022F000B9008091B90082608093B9008091BC00E0
:1023000080688093BC008091BC0080618093BC0099
:102310008091BC008F7B8093BC008091BC008F7D3E
:102320008093BC008091BC00877F8093BC0080912B
:10233000EA089091EB08A091EC08B091ED0886FDB9
:1023400014C08091EA089091EB08A091EC08B0913C
:10235000ED0890FD0AC08091EA089091EB08A091E9
:10236000EC08B091ED0893FF04C08091BC008B7F16
:1023700003C08091BC0084608093BC008091BC004D
:102380008E7F8093BC00809164008068809364009D
:102390000895882349F01092A9051092AA05109279
:1023A000AB051092AC0513C08091A9059091AA05C8
:1023B000A091AB05B091AC050196A11DB11D809314
:1023C000A9059093AA05A093AB05B093AC058091A5
:1023D000A9059091AA05A091AB05B091AC05803AF2
:1023E0009648A140B10560F01092A9051092AA0587
:1023F0001092AB051092AC050E94261181E0089561
:1024000080E0089585ED8093BC0081E00E94C911B1
:1024100008C080E00E94C911882319F01092B2050B
:1024200008958091BC0084FDF4CFF8CFFF920F9304
:102430001F93CF93DF93182F062FF72EC42FD22F81
:1024400081E0413208F051C00E94C91115C080E0FE
:102450000E94C911882381F082E08093B2058FEF3A
:102460008093AD051092B105C0931306E02FFF2DA8
:1024700063EB75E0DB0107C08091B2058111E7CF06
:10248000EBCF81918D938A2F861B8C17D0F3812FF0
:1024900090E0880F991F8093140685EE8093BC000E
:1024A00081E00E94C911D11105C08091AD058F3F17
:1024B00059F414C08091B2058230B9F780E00E94CF
:1024C000C91181110DC0F6CF8091AD05803251F058
:1024D0008091AD05803341F483E007C080E005C002
:1024E00085E003C082E001C084E0DF91CF911F91BD
:1024F0000F91FF9008950F931F93CF93DF93082FB1
:10250000D62F172FC42F81E04132E0F50E94C91168
:102510001DC080E00E94C9118823C1F081E0809332
:10252000B2058FEF8093AD051092B105C0931306ED
:10253000802F90E0880F991F81608093140685EEAC
:102540008093BC0081E00E94C91110C08091B20547
:102550008111DFCFE3CF80E00E94C911882331F0E1
:1025600083EB95E0ED2FF12FDC0107C08091B205E0
:10257000813089F3F5CF2D9121932A2F281B2C1719
:10258000D0F380E0DF91CF911F910F9108951F92BA
:102590000F920FB60F9211240BB60F922F933F9309
:1025A0004F935F936F937F938F939F93AF93BF935B
:1025B000CF93EF93FF93C091B900C87FC03609F461
:1025C0009FC058F5C83209F45BC090F4C03109F4DB
:1025D00052C038F4CC2309F4F2C0C83009F0F3C07B
:1025E0004AC0C83109F44CC0C03209F0ECC05DC02B
:1025F000C03409F473C038F4C03309F45BC0C83385
:1026000009F0E1C05AC0C03509F45CC0C83509F40E
:102610006AC0C83409F0D7C0D4C0C83909F4C5C0ED
:10262000A8F4C83709F46CC038F4C83609F468C097
:10263000C03709F0C8C064C0C83809F4B6C0C03992
:1026400009F464C0C03809F0BEC060C0C03B09F4E2
:1026500084C038F4C03A09F46BC0C83A09F0B3C07A
:102660007CC0C03C09F4A5C0C83C09F4A2C0C83B6A
:1026700009F0A9C087C0809114068093BB0013C0E5
:102680009091B10580911306981708F09AC0809137
:10269000B105E82FF0E0ED54FA4F90819093BB0024
:1026A0008F5F8093B10585EC81C00E940212C093B8
:1026B000AD0589C0C093AD0584C0C093AD050E942F
:1026C0006C1181C08091B1059091BB00E82FF0E0C2
:1026D000ED54FA4F90838F5F8093B1059091B105CF
:1026E000809113065FC08091B1059091BB00E82FE7
:1026F000F0E0ED54FA4F90838F5F8093B10561C095
:1027000083E08093B2051092AE05CDCF8091AE05E7
:10271000803208F04AC08091AE059091BB00E82F4E
:10272000F0E0ED50FA4F90838F5F8093AE05BBCF02
:102730008091AE05803230F4E091AE05F0E0ED50CE
:10274000FA4F10826091AE05E0911506F0911606E1
:1027500070E083EF95E009952CC084E08093B2058A
:102760001092B0051092AF05E0911706F09118068F
:1027700009958091AF05811105C081E08093AF0577
:102780001092D3058091B005E82FF0E0ED52FA4F9A
:1027900090819093BB008F5F8093B0059091B005BE
:1027A0008091AF05981708F47ECF85E88093BC0030
:1027B0000AC085EC8093BC001092B20504C0109250
:1027C000AD050E940212FF91EF91CF91BF91AF91A1
:1027D0009F918F917F916F915F914F913F912F9139
:1027E0000F900BBE0F900FBE0F901F9018951F9269
:1027F0000F920FB60F9211240BB60F922F933F93A7
:102800004F935F936F937F938F939F93AF93BF93F8
:10281000EF93FF93F89481E080930D02E0E6F0E0FF
:1028200080818068808380818F7B808360E083E00B
:102830000E94C4157894FF91EF91BF91AF919F9141
:102840008F917F916F915F914F913F912F910F9059
:102850000BBE0F900FBE0F901F9018951F920F92F6
:102860000FB60F9211248F939F93AF93BF938091D4
:10287000FC089091FD08A091FE08B091FF08019618
:10288000A11DB11D8093FC089093FD08A093FE0844
:10289000B093FF08BF91AF919F918F910F900FBEA2
:1028A0000F901F9018951F920F920FB60F92112440
:1028B0008F939F93AF93BF938091000990910109EB
:1028C000A0910209B09103090196A11DB11D809349
:1028D000000990930109A0930209B0930309BF91E5
:1028E000AF919F918F910F900FBE0F901F901895F1
:1028F0008F929F92AF92BF92CF92DF92EF92FF9210
:102900000F931F93CF93DF932FB7F8948091FC0818
:102910009091FD08A091FE08B091FF082FBF9C0187
:10292000AD0160E070E080E090E001E00E942E2CBC
:102930004901D42FC52FB62FA72FF82FE92F02E07A
:102940000E942E2C59016A017B018C0194014D2FAC
:102950005C2F6B2F7A2F8F2F9E2F0E943D2CE9E04A
:10296000AE2EB12CC12CD12CE12CF12C00E010E0CA
:102970000E94D12B952FB901842FDF91CF911F9108
:102980000F91FF90EF90DF90CF90BF90AF909F900E
:102990008F9008958F929F92AF92BF92CF92DF92C5
:1029A000EF92FF924B015C0107C00E9478146C15F6
:1029B0007D058E059F0520F40E9478146B017C0133
:1029C0000E9478146C197D098E099F096815790594
:1029D0008A059B0550F3FF90EF90DF90CF90BF905A
:1029E000AF909F908F900895BC01049768F080E0AD
:1029F00090E00E949A2826E636E646EE5FE30E94C3
:102A000090290E946E2802C0660F771F61507109DD
:102A100061F06150710949F0FB01EE0FFF1F319722
:102A20008FB7F8943197F1F78FBF0895789484B7F2
:102A3000877F84BF1092FC081092FD081092FE0858
:102A40001092FF0884B5826084BD84B5816084BD26
:102A500085B5826085BD85B5816085BDEEE6F0E017
:102A6000808181608083E1E8F0E080818260808302
:102A7000808181608083E0E8F0E0808181608083F4
:102A8000E1EBF0E0808184608083E1E9F0E0808127
:102A900084608083E0EBF0E0808181608083E0E906
:102AA000F0E0808181608083E4E6F0E080818E7FC9
:102AB0008083ECE7F0E080818F7780838081806481
:102AC0008083EAE7F0E08081846080838081826097
:102AD00080838081806880831092C1001092C90039
:102AE000089590911906982B9093190680FF32C093
:102AF000809164008E7F8093640080917C008F774A
:102B000080937C0080917C00806480937C00809125
:102B10007A00846080937A0080917A00826080934A
:102B20007A0080917A00806880937A0080916400B6
:102B30008F7780936400809164008B7F8093640022
:102B4000809164008D7F80936400809165008E7F0A
:102B500080936500089590E0FC01E953FA4F2491B9
:102B6000FC01E650FA4FE491EE2369F0F0E0E35CFB
:102B7000F94FA491B0E08C91611103C0209582239C
:102B800001C0822B8C93089590E0FC01EC56FA4F23
:102B90002491FC01E953FA4F3491FC01E650FA4FBD
:102BA00084918823B1F1222331F1233021F49091D3
:102BB00080009F7705C0243031F4909180009F7D84
:102BC0009093800018C0213019F494B59F7704C009
:102BD000223021F494B59F7D94BD0DC0263021F4A0
:102BE0009091B0009F7705C0273029F49091B000F4
:102BF0009F7D9093B000E82FF0E0EB5CF94FA4913B
:102C0000B0E08C91611103C03095832301C0832B08
:102C10008C93089590E0FC01EC56FA4F2491FC014E
:102C2000E953FA4F3491FC01E650FA4F849188231E
:102C300099F1222331F1233021F4909180009F7784
:102C400005C0243031F4909180009F7D90938000E6
:102C500018C0213019F494B59F7704C0223021F4B4
:102C600094B59F7D94BD0DC0263021F49091B000A5
:102C70009F7705C0273029F49091B0009F7D9093F5
:102C8000B000E82FF0E0E35DF94FE491F0E08081DF
:102C9000832321E030E011F420E030E0C901089501
:102CA000CF92DF92EF92FF926B017C01411134C011
:102CB00088E00E947115C701B60122E030E040E0D3
:102CC00050E00E94B32B305F414F5F4FCA01B90102
:102CD000A70196010E94B32BDA01C9010197A1094E
:102CE000B109892F9A2FAB2FBB27A7FDBA958093E7
:102CF000C50021502093C4008091C1008061809361
:102D0000C1008091C10088608093C1008091C100A2
:102D100080688093C10033C080E10E947115C701B3
:102D2000B60122E030E040E050E00E94B32B305F7B
:102D3000414F5F4FCA01B901A70196010E94B32B11
:102D4000DA01C9010197A109B109892F9A2FAB2F87
:102D5000BB27A7FDBA958093CD0021502093CC00CE
:102D60008091C90080618093C9008091C90088600A
:102D70008093C9008091C90080688093C900FF904A
:102D8000EF90DF90CF900895611107C09091C0003F
:102D900095FFFCCF8093C60008959091C80095FFE1
:102DA000FCCF8093CE0008951F920F920FB60F9222
:102DB00011242F933F934F935F936F937F938F9340
:102DC0009F93AF93BF93EF93E091C60020912006AD
:102DD00030912106C901019660E072E00E947D2BCE
:102DE00040911E0650911F068417950741F0D901A6
:102DF000AC5FB44FEC939093210680932006EF9143
:102E0000BF91AF919F918F917F916F915F914F9102
:102E10003F912F910F900FBE0F901F9018951F920A
:102E20000F920FB60F9211242F933F934F935F93FE
:102E30006F937F938F939F93AF93BF93EF93E091A3
:102E4000CE0020911C0630911D06C901019660E05C
:102E500072E00E947D2B40911A0650911B06841748
:102E6000950741F0D901AC5FB64FEC9390931D06E6
:102E700080931C06EF91BF91AF919F918F917F91AD
:102E80006F915F914F913F912F910F900FBE0F90D7
:102E90001F9018950C94C416CF93C82F682F8DE0FF
:102EA0000E94C4166C2F8AE0CF910C94C4161F9315
:102EB000CF93DF93162FEC0103C0612F0E94C4163D
:102EC00089918111FACFDF91CF911F9108954F928F
:102ED0005F926F927F928F929F92AF92BF92CF92AA
:102EE000DF92EF92FF920F93CF93DF93CDB7DEB7D0
:102EF000A0970FB6F894DEBF0FBECDBF29013A01EF
:102F00006115710581059105C9F4602F80E3A096D4
:102F10000FB6F894DEBF0FBECDBFDF91CF910F91FA
:102F2000FF90EF90DF90CF90BF90AF909F908F90E9
:102F30007F906F905F904F900C94C416EE24E394B2
:102F4000F12CEC0EFD1E812C912C5401A301920159
:102F50000E94912BF70161937F01FFEF8F1A9F0A67
:102F6000AF0ABF0AB901CA01611571058105910552
:102F700069F7CC24CA94DC2C7601C80CD91CEA1C55
:102F8000FB1C14C0E1E0F0E0EC0FFD1FEC0DFD1D9B
:102F900080818A3010F4805D01C0895C602F0E94BE
:102FA000C41681E0C81AD108E108F108EFEFCE1687
:102FB000DE06EE06FE0631F7A0960FB6F894DEBFE9
:102FC0000FBECDBFDF91CF910F91FF90EF90DF90BB
:102FD000CF90BF90AF909F908F907F906F905F90B9
:102FE0004F900895CF92DF92EF92FF920F936B0173
:102FF0007C01042F97FF0CC0642F8DE20E94C41641
:10300000F094E094D094C094C11CD11CE11CF11C3C
:103010002AE030E040E050E0C701B6010E946717A7
:103020000F91FF90EF90DF90CF9008950E941615BA
:1030300084EC96E00E947C22853440F061E081E3DC
:103040000E94AB1561E081E30E94C41561E070E06D
:1030500084EC96E00E9458218130B1F48091EA0816
:103060009091EB08A091EC08B091ED0890688093E6
:10307000EA089093EB08A093EC08B093ED0860E0A9
:1030800081E090E00E940B2F87E20E940A16892BB4
:1030900059F160E070E084EC96E00E9458218A309B
:1030A00019F5C1C06CE3629FA001639F500D11240C
:1030B000840F951F0EC02115310559F06CE3629FF6
:1030C000A001639F500D11249A01205F314F820FA0
:1030D000931F039748F48091F9089091FA08806251
:1030E0009093FA088093F90886E296E00E94E31D27
:1030F00086E296E00E94A41D86E296E00E94B31D3F
:1031000086E296E00E946B1963E070E080E090E058
:103110000E94CA148091EA089091EB08A091EC08F3
:10312000B091ED08A1FF5EC063E070E080E090E048
:103130000E94CA1461E086E10E94AB1563E070E072
:1031400080E090E00E94CA1461E086E10E94C4150C
:1031500063E070E080E090E00E94CA140E94031EC9
:1031600063E070E080E090E00E94CA1481E00E9479
:10317000261E63E070E080E090E00E94CA1484E0C4
:103180000E94341E63E070E080E090E00E94CA1468
:1031900080E00E942F1E63E070E080E090E00E94DB
:1031A000CA140E94221E63E070E080E090E00E945A
:1031B000CA1466E089EB96E00E943F1E63E070E06F
:1031C00080E090E00E94CA1461E086E10E94AB15A5
:1031D00060E086E10E94C41563E070E080E090E06A
:1031E0000E94CA1463E070E080E090E00E94CA147C
:1031F00084EC96E00E945622609322067093230688
:1032000080932406909325068091220690912306B0
:10321000A0912406B09125060E949E2C0E945B037B
:103220000E942904FDCF86E296E00E94E31D86E21B
:1032300096E00E94351C86E296E00E942A1C80914E
:103240003F0690E020914106821B910920913E06A5
:1032500030E040914206241B3109121613060CF48B
:1032600021CF29CF8091CB06882341F08091270779
:10327000811104C08CE297E00C94662708950F93A7
:103280001F93CF93DF93EC01042F68A761E080E3E5
:103290000E94AB1518A5112379F0113091F461E06B
:1032A00080E30E94C415013019F482E08B8B09C0C1
:1032B000011107C01B8B05C060E080E30E94C415AC
:1032C0001B8A6AE070E080E090E0DF91CF911F916F
:1032D0000F910C94CA14CF93DF93EC010E94321922
:1032E00040E060E0CE01DF91CF910C943F19FC01EA
:1032F000148A158A168A178A108E118E128E138ED2
:10330000148E158E168E178E10A211A212A213A261
:1033100014A215A216A217A20895EF92FF920F937E
:103320001F93CF93DF93CDB7DEB7EC970FB6F8942A
:10333000DEBF0FBECDBF8C01E7ECF3E08591949129
:10334000BC01EE24E394F12CEC0EFD1EC7010E949B
:10335000A92CE9ECF3E085919491BC01CE0189960A
:103360000E94A92CF8018689843009F466C040F4D3
:10337000823029F108F04BC0813009F0B6C009C095
:10338000863009F486C008F46EC0873009F0ADC0FD
:1033900096C0F801818D1F928F93808D1F928F931D
:1033A00087891F928F93828D1F928F9385891F9299
:1033B0008F9384891F928F9382E492E015C0F80165
:1033C000818D1F928F93808D1F928F9387891F927B
:1033D0008F93828D1F928F9385891F928F938489FB
:1033E0001F928F9386E492E09F938F93FF92EF92C8
:1033F0001F9284E68F93C80189969F938F930E94B2
:10340000BB2C0FB6F894DEBF0FBECDBF81C0F80154
:10341000818D1F928F93808D1F928F9387891F922A
:103420008F93828D1F928F9385891F928F938489AA
:103430001F928F938AE492E0D7CFF801818D1F927B
:103440008F93808D1F928F9387891F928F93828D88
:103450001F928F9385891F928F9384891F928F93D8
:103460008EE492E0C1CFF801818D1F928F93808D01
:103470001F928F9387891F928F93828D1F928F93B4
:1034800085891F928F9384891F928F9382E592E0A2
:10349000ABCFF801818D1F928F93808D1F928F93F8
:1034A00087891F928F93828D1F928F9385891F9298
:1034B0008F9384891F928F9386E592E095CFF801D0
:1034C000818D1F928F93808D1F928F9387891F927A
:1034D0008F93828D1F928F9385891F928F938489FA
:1034E0001F928F938AE592E07FCFCE0189969F93BA
:1034F0008F931F9284E68F93C80189969F938F9331
:103500000E94BB2C0F900F900F900F900F900F9078
:10351000075D1F4FC801EC960FB6F894DEBF0FBED3
:10352000CDBFDF91CF911F910F91FF90EF90089544
:10353000CF92DF92EF92FF920F931F93CF93DF937F
:103540008C01C62E8091CB06811104C085EC96E0DB
:103550000E94842268E670E085EC96E00E94B12229
:1035600060E070E085EC96E00E94DD2385EC96E05B
:103570000E94DF2343E150E068E670E085EC96E0CE
:103580000E941924E12CF12CC0E0D0E0D12CE4C041
:1035900085EC96E00E94B922F801EC0FFD1F8083B4
:1035A000C630D10509F467C098F4C230D10509F4DA
:1035B0003EC038F4209729F1C130D10509F0C7C0C9
:1035C0002BC0C430D10509F440C008F049C03AC04E
:1035D000CA30D10509F484C048F4282F30E0C8303F
:1035E000D10509F461C008F06DC050C0CC30D105E0
:1035F00009F492C008F482C0CD30D10509F0A7C00B
:1036000099C0982F92959F708F702AE0929F800D9D
:103610001124F801818F9BC0982F92959F708F7015
:10362000FAE09F9F800D1124F801808F90C0982FA1
:1036300092959F708F70FAE09F9F800D1124F80182
:10364000878B85C0F801868B82C0982F92959F70DA
:103650008F70FAE09F9F800D1124F801828F77C050
:10366000982F92959F708F70FAE09F9F800D112484
:10367000F801858B6CC0982F92959F708F70FAE03F
:103680009F9F800D1124F801848B61C054E0359513
:1036900027955A95E1F727708F70FAE02F9F800DDC
:1036A0001124F801838F53C044E0359527954A953E
:1036B000E1F727708F70FAE02F9F800D1124F80139
:1036C000848F45C094E0359527959A95E1F723704E
:1036D0008F70FAE02F9F800D1124F801858F37C07D
:1036E000282F2695269526952670922F990F990FAB
:1036F000920F8F70980FF801968F29C0282F26956A
:10370000269526952E70922F990F990F920F8F70F4
:10371000980FF801978F1BC0282F26952695269580
:103720002670922F990F990F920F8F70980FF801B2
:1037300090A30DC0282F2695269526952670922FAA
:10374000990F990F920F8F70980FF80191A32196FE
:1037500003C0FFEFEF1AFF0ACC16DD0658F02AE08F
:10376000E216F10438F485EC96E00E94B322882337
:1037700081F30ECFDF91CF911F910F91FF90EF90CA
:10378000DF90CF9008951F93CF93DF93EC01162F16
:103790008091CB06811104C085EC96E00E948422C2
:1037A00068E670E085EC96E00E94B122612F85EC1E
:1037B00096E00E94B123C10FD11D688185EC96E08F
:1037C0000E94B12385EC96E0DF91CF911F910C947C
:1037D000DF23FF920F931F93CF93DF938C01F62E7D
:1037E0008091CB06811104C085EC96E00E94842272
:1037F00068E670E085EC96E00E94B1226F2D85ECC2
:1038000096E00E94B12385EC96E00E94DF2341E020
:1038100050E068E670E085EC96E00E941924CBE069
:10382000D0E085EC96E00E94B322811102C021977E
:10383000C1F785EC96E00E94B922F801EF0DF11D69
:10384000808385EC96E0DF91CF911F910F91FF90DF
:103850000C94DF23CF93DF93EC0166E00E94981A6B
:10386000CE01DF91CF910C948D19CF92DF92EF9220
:10387000FF920F931F93CF93DF93CDB7DEB7C85757
:10388000D1090FB6F894DEBF0FBECDBF7C016AE050
:103890000E94981A8701075D1F4F84E6F801119274
:1038A0008A95E9F7E5EAF3E085919491BC01CE01B0
:1038B0008F5A9F4F0E94A92CBE016F5A7F4FC8019B
:1038C0000E94B02CF70182A1823009F46AC030F462
:1038D000882369F0813009F00BC122C0843009F4DB
:1038E000C7C008F493C0853009F002C1F0C0E7EA10
:1038F000F3E085919491BC01CE018F5A9F4F0E94B5
:10390000A92CBE016F5A7F4FC8010E94B02CE5EB75
:10391000F3E0859194916E01F9E2CF0ED11C18C0AD
:10392000E9EAF3E085919491BC01CE018F5A9F4F53
:103930000E94A92CBE016F5A7F4FC8010E94B02C73
:10394000E5EBF3E0859194916E01E9E2CE0ED11C96
:10395000BC01C6010E94A92CF701838D1F928F9391
:10396000848D1F928F93858D1F928F93868D1F92CA
:103970008F93DF92CF921F9288E28F93EE24E3948D
:10398000F12CEC0EFD1EFF92EF920E94BB2CB701B2
:10399000C8010E94B02C0FB6F894DEBF0FBECDBF99
:1039A000C2C0EBEAF3E085919491BC01CE018F5A3D
:1039B0009F4F0E94A92CBE016F5A7F4FC8010E94E1
:1039C000B02CE7EBF3E0859194916E01E9E2CE0E25
:1039D000D11CBC01C6010E94A92CF701838D1F9246
:1039E0008F93848D1F928F93858D1F928F93DF927B
:1039F000CF921F9288E28F93EE24E394F12CEC0E89
:103A0000FD1EFF92EF920E94BB2CC1CFEDEAF3E0C6
:103A100085919491BC01CE018F5A9F4F0E94A92C91
:103A2000BE016F5A7F4FC8010E94B02CE9EBF3E052
:103A3000859194916E01E9E2CE0ED11CBC01C601C4
:103A40000E94A92CF701838D1F928F93848D1F9262
:103A50008F93DF92CF921F9288E28F93EE24E394AC
:103A6000F12CEC0EFD1EFF92EF920E94BB2C8FCF2B
:103A7000EFEAF3E085919491BC01CE018F5A9F4FFC
:103A80000E94A92CBE016F5A7F4FC8010E94B02C22
:103A9000EBEBF3E0859194916E01E9E2CE0ED11C3F
:103AA000BC01C6010E94A92CF701838D1F928F9340
:103AB000DF92CF921F9288E28F93EE24E394F12C51
:103AC000EC0EFD1EFF92EF920E94BB2C60CFE1EB4B
:103AD000F3E085919491BC01CE018F5A9F4F0E94D3
:103AE000A92CBE016F5A7F4FC8010E94B02C1BC089
:103AF000E3EBF3E0859194917E01E1E5EE0EF11C9C
:103B0000BC01C7010E94A92CFF92EF921F9284E68C
:103B10008F931F930F930E94BB2C0F900F900F90C9
:103B20000F900F900F90C801C858DF4F0FB6F89450
:103B3000DEBF0FBECDBFDF91CF911F910F91FF90E0
:103B4000EF90DF90CF900895CF93DF93EC016EE07C
:103B50000E94E91B8E858E7F8E876EE0CE01DF91FD
:103B6000CF910C94C31BCF93DF93EC016EE00E94C6
:103B7000E91B8E858D7F8E876EE0CE01DF91CF9120
:103B80000C94C31BCF93DF93EC016FE00E94E91B01
:103B90008F858370DF91CF910895CF93DF93EC01F0
:103BA0000E94C21D882319F0CE56DF4F8883809172
:103BB00035068C7F809335066FE086E296E0DF91D4
:103BC000CF910C94C31BCF93DF93EC0140E061E0F5
:103BD0000E943F19CE010E94CD1DCE010E9477198F
:103BE0006DE0CE010E94981A61E08BE20E94AB1555
:103BF00060E08BE2DF91CF910C94C4151092B70670
:103C000010923906089561E08EE10E94AB1561E0E3
:103C10008FE10E94AB1561E08DE10E94AB1560E081
:103C20008EE10E94C41560E08FE10E94C41561E03E
:103C30008DE10E94C4158CB580618CBD8CB580640B
:103C40008CBD08958CB58F7B8CBD0895811103C008
:103C50008CB5806202C08CB58F7D8CBD08959CB5FB
:103C6000937F982B9CBD08952CB5982F93702C7F33
:103C7000922B9CBD9DB580FB90F99DBD0895CF937F
:103C8000C62F61E08DE10E94AB1561E082E20E94E7
:103C9000AB1561E08DE10E94C41561E082E20E94F3
:103CA000C4158091EA089091EB08A091EC08B091BE
:103CB000ED08A2FF08C061E088E00E94AB1561E05A
:103CC00088E00E94C4158091EA089091EB08A091C9
:103CD000EC08B091ED0896FF08C061E089E00E9411
:103CE000AB1561E089E00E94C4158091EA089091CB
:103CF000EB08A091EC08B091ED08A3FF08C061E0CB
:103D000082E00E94AB1561E082E00E94C4158091C0
:103D1000EA089091EB08A091EC08B091ED08A4FF9F
:103D200008C061E082E20E94AB1561E082E20E947D
:103D3000C415C330C9F020F4C13061F070F407C07D
:103D4000C53061F1F0F0C63009F067C033C060E003
:103D50008DE160C060E082E25DC084EC96E00E948C
:103D6000402160E08CE256C08091EA089091EB0817
:103D7000A091EC08B091ED08A2FF4FC060E088E090
:103D800049C08091EA089091EB08A091EC08B091AD
:103D9000ED0896FF42C060E089E03CC08091EA08EF
:103DA0009091EB08A091EC08B091ED08A3FF35C00D
:103DB00060E02FC061E08DE10E94C41561E082E205
:103DC0000E94C4158091EA089091EB08A091EC083C
:103DD000B091ED08A2FF04C061E088E00E94C41524
:103DE0008091EA089091EB08A091EC08B091ED0861
:103DF00096FF04C061E089E00E94C4158091EA0842
:103E00009091EB08A091EC08B091ED08A3FF05C0DC
:103E100061E082E0CF910C94C415CF910895809118
:103E2000EA089091EB08A091EC08B091ED08A2FF90
:103E30000EC08091EA089091EB08A091EC08B09137
:103E4000ED0881FF04C08091BB068823C1F18091F9
:103E5000EA089091EB08A091EC08B091ED08A1FF61
:103E60000CC08091B906811108C061E086E10E9412
:103E7000AB1561E086E10E94C4158091BA068111FC
:103E800008C061E08BE10E94AB1561E08BE10E940C
:103E9000C4158091EA089091EB08A091EC08B091CC
:103EA000ED08A4FF11C08091BE0681110DC061E034
:103EB00086E10E94AB1561E086E10C94C41561E0D7
:103EC00082E00E94C415C3CF08958091EA089091C2
:103ED000EB08A091EC08B091ED08A2FF0EC0809114
:103EE000EA089091EB08A091EC08B091ED0881FFF1
:103EF00004C08091BB068823C1F18091EA089091AB
:103F0000EB08A091EC08B091ED08A1FF0CC08091E6
:103F1000B906811108C061E086E10E94AB1560E03E
:103F200086E10E94C4158091BA06811108C061E043
:103F30008BE10E94AB1560E08BE10E94C41580917B
:103F4000EA089091EB08A091EC08B091ED08A4FF6D
:103F500011C08091BE0681110DC061E086E10E9412
:103F6000AB1560E086E10C94C41560E082E00E942D
:103F7000C415C3CF0895CF93C82F89EB96E00E9454
:103F80000F1FCEBD0DB407FEFDCF89EB96E00E945A
:103F9000651F8EB5CF9108951092BA061092B9069A
:103FA0001092BB061092BC061092BD061092BE067F
:103FB0000895FC01408160E072EC81E090E00E9495
:103FC000501661E087E10E94AB1561E087E10E9435
:103FD000C41561E08BE00E94AB1560E08BE00E94AD
:103FE000C41561E08DE20E94AB1560E08DE20C9497
:103FF000C415DC018091C50011968C9311978091B6
:10400000C40012968C931297E2ECF0E08081139634
:104010008C9313978091CA0014968C931497808187
:104020008F7D808380818F7E80838081877F808366
:104030004C9160E072EC81E090E00E94501661E0EB
:1040400087E10E94C41560E08BE00C94C415CF9307
:10405000DF93EC014091EA085091EB086091EC0885
:104060007091ED0863E070E080E090E042FF07C0EF
:104070000E94CA1461E08BE00E94C41502C00E9435
:10408000CA1489818093C5008A818093C4008B8182
:104090008093C2008C818093CA00DF91CF910895F4
:1040A000EF92FF920F931F93CF93DF938C01EB015D
:1040B0000E94F91F7E0188E1E81A8CEFF80AFE01E0
:1040C00021968491882339F0F80160810E944A1773
:1040D000CE15DF05A1F7C8010E94272060E070E03F
:1040E000CB01DF91CF911F910F91FF90EF90089539
:1040F000AF92BF92DF92EF92FF920F931F93CF93F5
:10410000DF93EC01142FD52E7B0159010E94F91F7A
:10411000A114B10429F46881812F0E944A1716C0A6
:104120008AE0A816B10439F44881612F7D2DC701BA
:104130000E94F2170BC09501442737FD4095542F7C
:104140000881612F7D2DC7010E94671788810E9419
:104150004C17CE01DF91CF911F910F91FF90EF90FF
:10416000DF90BF90AF900C9427200F931F93CF93B5
:10417000DF93EC018B010E94F91F17FF07C06881D4
:104180008DE20E944A17119501951109B8018827FF
:1041900077FD8095982F08812AE030E040E050E0DC
:1041A0000E94671788810E944C17CE01DF91CF9142
:1041B0001F910F910C9427200F931F93CF93DF93A0
:1041C000EC018B010E94F91F6881C8010E945717FA
:1041D00088810E944C17CE01DF91CF911F910F91E2
:1041E0000C942720CF93DF93EC010E94F91F888164
:1041F0000E944C17CE01DF91CF910C942720EF92B3
:10420000FF920F931F93CF93DF9300D0CDB7DEB70C
:104210007C010E9450208C01C70169837A830E942F
:10422000F22069817A81C8010F900F90DF91CF91C0
:104230001F910F91FF90EF9008951092BF0608957F
:104240001F93CF93DF931F92CDB7DEB7162F61E098
:10425000812F49830E94AB154981413011F461E0FF
:1042600003C0411108C060E0812F0F90DF91CF9112
:104270001F910C94C4150F90DF91CF911F91089559
:1042800061E087E10E94AB1561E084E20E94AB151A
:1042900061E085E20E94AB1561E087E10E94C415F0
:1042A00061E084E20E94C41561E085E20C94C415CB
:1042B000CB010C94FD2E8F929F92AF92BF92CF9222
:1042C000DF92EF92FF920F931F93CF93DF93CDB7BF
:1042D000DEB7C75FD1090FB6F894DEBF0FBECDBF02
:1042E0008E0100511F4F580128E0A20EB11C7E0123
:1042F00081E8E80EF11CCC24C394D12CCC0EDD1E39
:104300006DE0CE018F519F4F0E94E52640E06CE0AA
:1043100084EC96E00E94202140E06DE084EC96E081
:104320000E942021F801108211821282138261E022
:104330008CE00E94AB1561E08CE00E94C415CE01B8
:104340008F519F4F0E94C52541E06DE084EC96E0BF
:104350000E9420216AE070E080E090E00E94CA1490
:1043600040E063E3CE018F519F4F0E94962662E3A7
:1043700070E080E090E00E94CA144701CE018F51A6
:104380009F4F0E946B26F2E08F1A9108F401808300
:10439000118261E070E080E090E00E94CA148C1409
:1043A0009D0461F7FE017196D701C60180599F4FA8
:1043B000219131912D933D93E817F907C9F731EE1B
:1043C000832E912C8C0E9D1E81E090E0A0E0B0E049
:1043D000F401329122914F012130310569F4F80145
:1043E0004081518162817381480F591F6A1F7B1F71
:1043F0004083518362837383880F991FAA1FBB1F59
:104400008E149F0429F7F80180819181A281B381E4
:104410008F3F9F4FAF4FBF4F29F4F8011082118299
:104420001282138260E08CE00E94C41540E06CE0D0
:1044300084EC96E00E94202140E06DE084EC96E060
:104440000E9420210C5F1F4F0A151B0509F058CF51
:10445000C051DF4F088119812A813B81C05FD04064
:10446000CC50DF4F88819981AA81BB81C45FD04045
:10447000081719072A073B0719F000E010E0980118
:10448000B801C901C950DF4F0FB6F894DEBF0FBEA7
:10449000CDBFDF91CF911F910F91FF90EF90DF90F3
:1044A000CF90BF90AF909F908F900895CF92DF9262
:1044B000EF92FF920E945B216B017C0161157105F7
:1044C0008105910591F483EE90E00E94052F6A30FA
:1044D0002AE072078207920741F06F3F2FEF7207C1
:1044E0008207920711F06B017C01B601C701FF90B2
:1044F000EF90DF90CF9008958FED90E00E94FD2E19
:104500008F3F09F480E00895CF93DF93EC0180E2C0
:10451000E3EFF6E0DF01982F1D929A95E9F71092EC
:10452000F2061092F106E0EDF6E0DF011D928A95A9
:10453000E9F71092CF061092CE060E94261181E074
:104540008E8384E090E0DF91CF910C94F41481E0AD
:104550008093CD066093F0061092CF061092CE069F
:1045600008950C94A7228091F1069091F206891B80
:1045700008959091F2068091F106981748F4E92F7A
:10458000F0E0ED50F94F80819F5F9093F20608951F
:1045900080E00895CF93DF93EC010E9472111E8298
:1045A000DF91CF9108954091EA085091EB08609116
:1045B000EC087091ED084170FC0140834091EA08DD
:1045C0005091EB086091EC087091ED087695679535
:1045D00057954795417041838091EA089091EB0887
:1045E000A091EC08B091ED0884FD49C08091EA08E3
:1045F0009091EB08A091EC08B091ED0885FD3FC0CB
:104600008091EA089091EB08A091EC08B091ED0838
:1046100086FD35C08091EA089091EB08A091EC08E6
:10462000B091ED0887FD2BC08091EA089091EB08CE
:10463000A091EC08B091ED0890FD21C08091EA08AE
:104640009091EB08A091EC08B091ED0891FD17C096
:104650008091EA089091EB08A091EC08B091ED08E8
:1046600093FD0DC0089540E060E08CE297E00E9469
:10467000032740E061E08CE297E00C9403278091EF
:10468000CC06882381F30895CF93DF93EC018091CA
:10469000EA089091EB08A091EC08B091ED0884FD38
:1046A00058C08091EA089091EB08A091EC08B09175
:1046B000ED0885FD4EC08091EA089091EB08A0912D
:1046C000EC08B091ED0886FD44C08091EA08909115
:1046D000EB08A091EC08B091ED0887FD3AC08091FD
:1046E000EA089091EB08A091EC08B091ED0890FDDC
:1046F00030C04091EA085091EB086091EC0870914D
:10470000ED0851FD26C04091EA085091EB086091F8
:10471000EC087091ED0853FD1CC020C041E060E042
:104720008CE297E00E9403270CC08981811106C0AA
:1047300041E060E08CE297E00E94032788818111CC
:104740000DC041E061E08CE297E0DF91CF910C94E5
:1047500003278091CC068111E8CFE0CFDF91CF9184
:104760000895CF93DF931F92CDB7DEB76983809111
:10477000CD06882389F08091CE068032D0F48091D6
:10478000CF06E82FF0E0E053F94F60838F5F80930E
:10479000CF068093CE060DC085EC96E00E94D32212
:1047A00061E0CE0101960E94531185EC96E00E94D3
:1047B00044230F90DF91CF9108950C94B123CF93B0
:1047C00085EC96E00E94D32221E04091CE0660ED78
:1047D00076E08091F0060E941612C82F1092CF0644
:1047E0001092CE061092CD0685EC96E00E944423EE
:1047F0008C2FCF910895CF93DF93D62FC42F85ECC4
:1048000096E00E94D322C13208F0C0E24C2F63EF41
:1048100076E08D2F0E947B12D82F1092F206C09363
:10482000F10685EC96E00E9444238D2FDF91CF9115
:1048300008950C94FB231092CC061092C50610929A
:10484000C6068AEF90E0A0E0B0E08093C7069093A0
:10485000C806A093C906B093CA0608951F920F9286
:104860000FB60F9211240BB60F922F933F934F93D5
:104870005F936F937F938F939F93AF93BF93EF93C8
:10488000FF938091130790911407892B29F0E091F1
:104890001307F09114070995FF91EF91BF91AF9124
:1048A0009F918F917F916F915F914F913F912F9148
:1048B0000F900BBE0F900FBE0F901F9018951F9278
:1048C0000F920FB60F9211240BB60F922F933F93B6
:1048D0004F935F936F937F938F939F93AF93BF9308
:1048E000EF93FF938091150790911607892B29F07C
:1048F000E0911507F09116070995FF91EF91BF918F
:10490000AF919F918F917F916F915F914F913F9167
:104910002F910F900BBE0F900FBE0F901F90189508
:104920001F920F920FB60F9211240BB60F922F9376
:104930003F934F935F936F937F938F939F93AF9327
:10494000BF93EF93FF938091170790911807892BDE
:1049500029F0E0911707F09118070995FF91EF9161
:10496000BF91AF919F918F917F916F915F914F9187
:104970003F912F910F900BBE0F900FBE0F901F9085
:1049800018951F920F920FB60F9211240BB60F922B
:104990002F933F934F935F936F937F938F939F9347
:1049A000AF93BF93EF93FF938091190790911A07EC
:1049B000892B29F0E0911907F0911A070995FF91C9
:1049C000EF91BF91AF919F918F917F916F915F9187
:1049D0004F913F912F910F900BBE0F900FBE0F90F4
:1049E0001F9018951F920F920FB60F9211240BB6BD
:1049F0000F922F933F934F935F936F937F938F9378
:104A00009F93AF93BF93EF93FF9380911B07909178
:104A10001C07892B29F0E0911B07F0911C070995D1
:104A2000FF91EF91BF91AF919F918F917F916F9186
:104A30005F914F913F912F910F900BBE0F900FBE42
:104A40000F901F9018951F920F920FB60F9211247E
:104A50000BB60F922F933F934F935F936F937F9378
:104A60008F939F93AF93BF93EF93FF9380911D0715
:104A700090911E07892B29F0E0911D07F0911E07E8
:104A80000995FF91EF91BF91AF919F918F917F9188
:104A90006F915F914F913F912F910F900BBE0F90AF
:104AA0000FBE0F901F9018951F920F920FB60F9286
:104AB00011240BB60F922F933F934F935F936F93F5
:104AC0007F938F939F93AF93BF93EF93FF938091C7
:104AD0001F0790912007892B29F0E0911F07F09183
:104AE00020070995FF91EF91BF91AF919F918F9111
:104AF0007F916F915F914F913F912F910F900BBEDE
:104B00000F900FBE0F901F9018951F920F920FB627
:104B10000F9211240BB60F922F933F934F935F93F5
:104B20006F937F938F939F93AF93BF93EF93FF9375
:104B30008091210790912207892B29F0E09121078C
:104B4000F09122070995FF91EF91BF91AF919F914D
:104B50008F917F916F915F914F913F912F910F9026
:104B60000BBE0F900FBE0F901F9018951092280744
:104B700082E0809324078CE18093290780EC91E008
:104B800090932B0780932A070895CF92DF92EF929C
:104B9000FF921F93CF93DF93EC0160E08E850E941C
:104BA000AB150E9478146B017C011EE7115089F14E
:104BB00082E090E00E94F4140E9478146C157D0548
:104BC0008E059F0520F40E9478146B017C018E8570
:104BD0000E940A16892BF9F40E9478146C197D0939
:104BE0008E099F09643F714081059105F8F213C059
:104BF0000E9478146B017C011130C1F10E9478147D
:104C00006C197D098E099F09643F714081059105EA
:104C1000D0F010E02BC061E08E850E94AB1560E003
:104C20008E850E94C41584E591E00E94F4140E94D0
:104C300078146B017C018E850E940A1611E0892B85
:104C4000D9F210E0D9CF8E850E940A1611E0892B87
:104C500009F010E089E090E00E94F4140E947814BA
:104C60006C157D058E059F0538F6C2CF812FDF912B
:104C7000CF911F91FF90EF90DF90CF9008951F93F9
:104C8000CF93DF93FC011081C181D281912F909548
:104C9000F8948A8189238A838981812B898360FFA3
:104CA0000BC089E090E00E94F4148A81812B8A83F2
:104CB00078948FE290E00AC087E390E00E94F414B9
:104CC0008A81812B8A83789485E090E0DF91CF916F
:104CD0001F910C94F4140F931F93CF93DF93FC0157
:104CE0001081C181D281F8948981812B89838A8145
:104CF000012F009580238A8382E090E00E94F414C3
:104D000089818023898387E090E00E94F414C88120
:104D100078948DE290E00E94F4141C2381E009F461
:104D200080E0DF91CF911F910F910895CF92DF9294
:104D3000EF92FF920F931F93CF93DF931F92CDB704
:104D4000DEB76C01E62E08E010E0FF24F3949F2DFF
:104D50009E2161E009F460E0C60149830E943F267C
:104D6000FF0C0150110949810115110581F741110D
:104D700015C0F894D6011196ED91FC91129791818E
:104D80008C918095892381831196ED91FC911297E6
:104D900092818C9180958923828378940F90DF9102
:104DA000CF911F910F91FF90EF90DF90CF900895DA
:104DB000FC011386158614861286118610861782CA
:104DC00016821582148213820895CF93DF93EC012B
:104DD000862F6E8760E00E94AB158E8590E0FC0107
:104DE000E953FA4FE491E883FC01E650FA4FE4916D
:104DF000F0E0E35DF94FE491E9831A82CE01DF919F
:104E0000CF910C94D8261F93CF93DF931F92CDB7E9
:104E1000DEB7162F61E08AE149830E94AB1561E09D
:104E200088E10E94AB154981112321F0113009F06E
:104E300048C020C041110EC061E08AE10E94C41543
:104E40008091EA089091EB08A091EC08B091ED08F0
:104E500082602FC04130A9F560E08AE10E94C4154C
:104E60008091EA089091EB08A091EC08B091ED08D0
:104E70008D7F1FC041110EC061E088E10E94C41502
:104E80008091EA089091EB08A091EC08B091ED08B0
:104E900081600FC04130A9F460E088E10E94C41530
:104EA0008091EA089091EB08A091EC08B091ED0890
:104EB0008E7F8093EA089093EB08A093EC08B09360
:104EC000ED080F90DF91CF911F91089561E089E285
:104ED0000E94AB1561E088E20E94AB1585EC96E07C
:104EE0000C94CA22FC01128A118E138EDC01A35687
:104EF000BE4F89E111968C93119714961C92DF0195
:104F0000AE55BE4F1C9212961C92E956FE4F11826E
:104F1000108208958EE297E00C9472275058BB27B8
:104F2000AA270ED0A8C199D130F09ED120F031F43B
:104F30009F3F11F41EF48EC10EF4E095E7FB5BC1B8
:104F4000E92FAAD180F3BA17620773078407950780
:104F500018F071F49EF5D9C10EF4E0950B2EBA2F1E
:104F6000A02D0B01B90190010C01CA01A00111246F
:104F7000FF27591B99F0593F50F4503E68F11A161B
:104F8000F040A22F232F342F4427585FF3CF4695AC
:104F900037952795A795F0405395C9F77EF41F16CE
:104FA000BA0B620B730B840BBAF09150A1F0FF0F98
:104FB000BB1F661F771F881FC2F70EC0BA0F621F84
:104FC000731F841F48F4879577956795B795F79574
:104FD0009E3F08F0B3CF9395880F08F09927EE0F06
:104FE0009795879508957AD180F09F3740F4911175
:104FF0000EF48CC160E070E080E89FE3089526F035
:105000001B16611D711D811DFCC016C10CD033C162
:105010002BD140F022D130F021F45F3F19F0EBC0EA
:10502000511174C117C138D198F39923C9F355238D
:10503000B1F3951B550BBB27AA276217730784078B
:1050400038F09F5F5F4F220F331F441FAA1FA9F341
:1050500033D00E2E3AF0E0E830D091505040E69533
:10506000001CCAF729D0FE2F27D0660F771F881F94
:10507000BB1F261737074807AB07B0E809F0BB0B83
:10508000802DBF01FF2793585F4F2AF09E3F5105A7
:1050900068F0B1C03BC15F3FECF3983EDCF386950E
:1050A00077956795B795F7959F5FC9F7880F911D1D
:1050B0009695879597F90895E1E0660F771F881F09
:1050C000BB1F621773078407BA0720F0621B730BBC
:1050D000840BBA0BEE1F88F7E0950895E5D088F0B1
:1050E0009F5790F0B92F9927B751A0F0D1F0660FD4
:1050F000771F881F991F1AF0BA95C9F712C0B130EF
:1051000081F003D1B1E0089500C1672F782F88277F
:10511000B85F39F0B93FCCF3869577956795B3952D
:10512000D9F73EF490958095709561957F4F8F4F9C
:105130009F4F0895E89409C097FB3EF490958095A1
:10514000709561957F4F8F4F9F4F9923A9F0F92F4D
:1051500096E9BB279395F695879577956795B795CB
:10516000F111F8CFFAF4BB0F11F460FF1BC06F5FB1
:105170007F4F8F4F9F4F16C0882311F096E911C0C3
:10518000772321F09EE8872F762F05C0662371F0E4
:1051900096E8862F70E060E02AF09A95660F771FF8
:1051A000881FDAF7880F9695879597F90895990FD4
:1051B0000008550FAA0BE0E8FEEF16161706E807E1
:1051C000F907C0F012161306E407F50798F0621B02
:1051D000730B840B950B39F40A2661F0232B242BD7
:1051E000252B21F408950A2609F4A140A6958FEFF6
:1051F000811D811D089597F99F6780E870E060E048
:105200000895882371F4772321F09850872B762F07
:1052100007C0662311F499270DC09051862B70E0CA
:1052200060E02AF09A95660F771F881FDAF7880FDB
:105230009695879597F908959F3F31F0915020F406
:10524000879577956795B795880F911D9695879562
:1052500097F908959FEF80EC089500240A9416169C
:10526000170618060906089500240A941216130654
:10527000140605060895092E0394000C11F48823E2
:1052800052F0BB0F40F4BF2B11F460FF04C06F5FFE
:105290007F4F8F4F9F4F089557FD9058440F551FD4
:1052A00059F05F3F71F04795880F97FB991F61F0A8
:1052B0009F3F79F087950895121613061406551F1F
:1052C000F2CF4695F1DF08C0161617061806991F8B
:1052D000F1CF86957105610508940895E5DFA0F08A
:1052E000BEE7B91788F4BB279F3860F41616B11DC6
:1052F000672F782F8827985FF7CF869577956795E2
:10530000B11D93959639C8F30895E894BB27662795
:105310007727CB0197F908954ADF08F48FEF0895B6
:105320000BD0A9CF9ADF28F09FDF18F0952309F062
:1053300062CF90CF1124EACFAFDFA0F3959FD1F3D6
:10534000950F50E0551F629FF001729FBB27F00D33
:10535000B11D639FAA27F00DB11DAA1F649F662788
:10536000B00DA11D661F829F2227B00DA11D621FD7
:10537000739FB00DA11D621F839FA00D611D221F91
:10538000749F3327A00D611D231F849F600D211D75
:10539000822F762F6A2F11249F5750408AF0E1F018
:1053A00088234AF0EE0FFF1FBB1F661F771F881F61
:1053B00091505040A9F79E3F510570F01CCFA6CFE9
:1053C0005F3FECF3983EDCF3869577956795B7954C
:1053D000F795E7959F5FC1F7FE2B880F911D969576
:1053E000879597F90895FA01EE0FFF1F3096210572
:1053F000310599F16115710561F48038BFE39B07B0
:1054000049F168949038810561F08038BFEF9B07BF
:1054100041F0992342F5FF3FE1053105210511F1E6
:10542000E8940894E795D901AA2329F4AB2FBE2F5D
:10543000F85FD0F310C0FF5F70F4A695E0F7F7397E
:1054400050F019F0FF3A38F49F779F930CD00F90EB
:1054500007FC905808953EF0FDCE60E070E080E8D3
:105460009FE308954FE79F775F934F933F932F9369
:105470009ED02F913F914F915F9152DF05C019F45B
:105480000EF0B9CE42CFE6CE0FDFC8F39638C0F7A4
:1054900007F80F92E8942BE33AEA48EB5FE74EDF18
:1054A0000F920F920F924DB75EB70F92C0D0ECECF7
:1054B000F0E016D04F915F91EF91FF91E595EE1FCF
:1054C000FF1F49F0FE57E0684427EE0F441FFA958E
:1054D000E1F74195550B32D00F9007FE26C0089595
:1054E000DF93CF931F930F93FF92EF92DF927B0195
:1054F0008C01689405C0DA2EEF011EDFFE01E894EE
:10550000A5912591359145915591AEF3EF0118DDA7
:10551000FE019701A801DA9479F7DF90EF90FF90F0
:105520000F911F91CF91DF9108959B01AC0160E035
:1055300070E080E89FE36ACD5ECE7ECEB5DEE8F314
:105540009923D9F3940F511DBBF39150504094F01F
:1055500059F0882332F0660F771F881F9150504012
:10556000C1F79E3F510544F7880F911D9695879589
:1055700097F908955F3FACF0983E9CF0BB27869565
:1055800077956795B79508F4B1609395C1F7BB0F10
:1055900058F711F460FFE8CF6F5F7F4F8F4F9F4F39
:1055A000E3CFB4CE0EF048CE55CE689424CE7CDE48
:1055B000C8F39923D1F3C6F3DF93CF931F930F93CF
:1055C000FF92C92FDD2788232AF02197660F771FC6
:1055D000881FDAF720E030E040E85FEB9FE388398E
:1055E00020F0803E30F021968F7799DCE4EFF0E0F8
:1055F00003C095DCE1E2F1E073DF8B01BE01EC0159
:10560000FB2E6F5771097595771F880B990B94DDE9
:1056100028E132E741E35FE38FDEAF2D9801AE0171
:10562000FF900F911F91CF91DF918ADC24CEFA0178
:10563000DC01AA0FBB1F9B01AC01BF5728F4222736
:105640003327442750781FC0B75188F4AB2F00246C
:10565000469537952795011CA395D2F3002069F054
:10566000220F331F441FB395DAF30DD057CC6130AE
:105670007105A0E88A07B94630F49B01AC016627A2
:10568000772788279078309621F0208331834283D2
:1056900053830895A29FB001B39FC001A39F01D07F
:1056A000B29F700D811D1124911D08950E944A2BF7
:1056B000A59F900DB49F900DA49F800D911D112466
:1056C0000895B7FF0C94562B0E94562B821B930B08
:1056D0000895AA1BBB1B51E107C0AA1FBB1FA61739
:1056E000B70710F0A61BB70B881F991F5A95A9F78B
:1056F00080959095BC01CD01089597FB072E16F477
:10570000009407D077FD09D00E94692B07FC05D0D3
:105710003EF4909581959F4F0895709561957F4FC8
:105720000895A1E21A2EAA1BBB1BFD010DC0AA1FE2
:10573000BB1FEE1FFF1FA217B307E407F50720F0FA
:10574000A21BB30BE40BF50B661F771F881F991F75
:105750001A9469F760957095809590959B01AC01BE
:10576000BD01CF010895052E97FB16F4009407D0D4
:1057700057FD0DD00E94912B07FC09D07EF4909527
:105780008095709561957F4F8F4F9F4F08955095ED
:105790004095309521953F4F4F4F5F4F0895689446
:1057A00001C0E8948F929F92CF93DF930E94DD2BEC
:1057B000DF91CF919F908F90089588249924F401D0
:1057C000E401B0E49F93AA279A158B049C04ED058D
:1057D000FE05CF05D007A10798F4AD2FDC2FCF2F02
:1057E000FE2FE92D982C892E982F872F762F652F45
:1057F000542F432F322F2227B85031F7BF9127C0A3
:105800001B2EBF91BB27220F331F441F551F661F3E
:10581000771F881F991F881C991CEE1FFF1FCC1F24
:10582000DD1FAA1FBB1F8A149B04EC05FD05CE05D6
:10583000DF05A007B10748F08A189B08EC09FD09AD
:10584000CE09DF09A00BB10B21601A94E1F62EF40A
:105850009401AF01BE01CD01000C08950F930F73A9
:1058600051F0220F331F441F551F661F771F881FDB
:10587000991F0A95B1F70F9108952A0D3B1D4C1DF4
:105880005D1D6E1D7F1D801F911F08950790F6916D
:10589000E02D09948F929F92AF92BF92CF92DF92A8
:1058A000EF92FF92CF93DF93EC01688179818A8137
:1058B0009B81611571058105910521F464E279ED03
:1058C0008BE597E02DE133EF41E050E00E94B32BF0
:1058D00049015A019B01AC01A7EAB1E40E94562B91
:1058E0006B017C01ACEEB4EFA50194010E94642B26
:1058F000C60ED71EE81EF91EF7FE06C081E0C81AC4
:10590000D108E10880E8F80AC882D982EA82FB82DD
:10591000E894D7F8EE24FF24C601DF91CF91FF90E1
:10592000EF90DF90CF90BF90AF909F908F900895B1
:105930000C944A2C86E092E00C944A2CA0E0B0E053
:105940008093060290930702A0930802B093090285
:105950000895FB01DC0105900D920020E1F7089508
:10596000FB01DC010D900020E9F7119701900D92E9
:105970000020E1F708950F931F93CF93DF93CDB7E6
:10598000DEB72E970FB6F894DEBF0FBECDBF0D89E0
:105990001E898F89988D26E02C831A83098397FFAF
:1059A00002C080E090E801979E838D83CE014B96E4
:1059B000AC01698D7A8DCE0101960E94F82C4D8143
:1059C0005E8157FD0AC02F813885421753070CF4BA
:1059D0009A01F801E20FF31F10822E960FB6F89489
:1059E000DEBF0FBECDBFDF91CF911F910F91089504
:1059F0002F923F924F925F926F927F928F929F92DF
:105A0000AF92BF92CF92DF92EF92FF920F931F93CC
:105A1000CF93DF93CDB7DEB72C970FB6F894DEBFE8
:105A20000FBECDBF7C016B018A01FC01178216827B
:105A3000838181FFC6C188248394912C8C0E9D1E86
:105A4000F7019381F60193FD859193FF81916F0199
:105A5000882309F4B2C1853239F493FD859193FF0F
:105A600081916F01853229F4B70190E00E942F2FB8
:105A7000E7CF512C312C20E02032A8F48B3261F09A
:105A800028F4803251F0833271F40BC08D3239F03A
:105A9000803349F4216028C02260246025C028603A
:105AA00023C0206121C027FD27C0382F30533A3052
:105AB00078F426FF06C0FAE05F9E300D1124532EC5
:105AC00013C08AE0389E300D1124332E20620CC0A2
:105AD0008E3221F426FD71C1206406C08C3611F48B
