:100000000C940A040C943F210C9470210C94A121AF
:100010000C94D2210C9403220C9434220C9465226B
:100020000C9496220C9439040C9439040C943904E1
:100030000C94F8100C9439040C9439040C94541159
:100040000C9439040C9439040C9439040C9439043C
:100050000C9439040C9439040C9439040C942F1129
:100060000C9439040C94D5130C9439040C94390471
:100070000C9439040C9439040C9439040C9439040C
:100080000C9439040C9439040C9439040C943904FC
:100090000C9410140C9439040C9439040C94C80F6B
:1000A0000C9439040C9439040C9439040C943904DC
:1000B0000C9439040C9439040C9439040C943904CC
:1000C0000C9439040C9439040C94390453585F305F
:1000D00031206578616D706C65005358313237326C
:1000E000206D6F64756C6520636F6E6669677572ED
:1000F0006174696F6E20696E204C6F52612C2063B1
:100100006F6D706C657465206578616D706C6500ED
:100110002D2D2D2D2D2D2D2D2D2D2D2D2D2D2D2D0F
:100120002D2D2D2D2D2D2D2D2D2D2D2D2D2D2D2DFF
:100130002D2D2D2D2D2D2D2D0053657474696E6779
:1001400020636F6E66696775726174696F6E3A00DD
:100150002D2D2D2D2D2D2D2D2D2D2D2D2D2D2D2DCF
:100160002D2D2D2D2D2D2D2D2D2D2D2D2D2D2D2DBF
:100170002D2D2D2D2D2D2D2D0053657474696E6739
:10018000204368616E6E656C2043485F30365F398E
:1001900030302E09207374617465200053657474C7
:1001A000696E67205061796C6F6164204C656E6781
:1001B000746820746F20273833272E0920737461E8
:1001C0007465200053657474696E672048656164C6
:1001D0006572204F46462E090920737461746520AC
:1001E0000053657474696E67204D6F646520273213
:1001F000272E090920737461746520005365747497
:10020000696E6720506F77657220746F20274827CA
:100210002E09092073746174652000536574746934
:100220006E6720435243204F46462E0909207374BF
:10023000617465200053657474696E67204E6F6445
:1002400065204164647265737320746F20273927B9
:100250002E0920737461746520002D2D2D2D2D2DF8
:100260002D2D2D2D2D2D2D2D2D2D2D2D2D2D2D2DBE
:100270002D2D2D2D2D2D2D2D2D2D2D2D2D2D2D2DAE
:100280002D2D0052656164696E6720636F6E66692B
:100290006775726174696F6E20696E206D6F647529
:1002A0006C653A002D2D2D2D2D2D2D2D2D2D2D2D27
:1002B0002D2D2D2D2D2D2D2D2D2D2D2D2D2D2D2D6E
:1002C0002D2D2D2D2D2D2D2D2D2D2D2D00476574F2
:1002D00074696E67204368616E6E656C20092D2D10
:1002E0003E204F4B2E20004368616E6E656C206986
:1002F000733A2030780047657474696E67204368EC
:10030000616E6E656C202D2D3E204552524F52007D
:1003100047657474696E67205061796C6F61642001
:100320004C656E67746820092D2D3E204F4B2E20A2
:10033000005061796C6F6164204C656E6774682051
:1003400069733A200047657474696E67205061795B
:100350006C6F6164204C656E677468202D2D3E20A3
:100360004552524F520047657474696E6720486564
:10037000616465722009092D2D3E204F4B2E20000F
:1003800048656164657220284865616465724F4EF6
:10039000203D20303B204865616465724F46462011
:1003A0003D2031293A200047657474696E67204802
:1003B0006561646572202D2D3E204552524F5200DA
:1003C00047657474696E6720506F776572200909FC
:1003D0002D2D3E204F4B2E2000506F7765722069E7
:1003E000732028274D273D307830463B20274C2767
:1003F0003D307830303B202748273D307830372952
:100400003A2030780047657474696E6720506F77C2
:100410006572202D2D3E204552524F520047657483
:1004200074696E67204352432009092D2D3E204FE9
:100430004B2E200043524320284352435F4F4E3DF2
:10044000313B204352435F4F46463D30293A20001E
:1004500047657474696E6720435243202D2D3E20FA
:100460004552524F520047657474696E67204E6F53
:100470006465204164647265737320092D2D3E20EC
:100480004F4B2E20004E6F6465204164647265738B
:10049000732069733A200047657474696E67204E53
:1004A0006F64652041646472657373202D2D3E2056
:1004B0004552524F520047657474696E67204D6F04
:1004C00064652009092D2D3E204F4B2E20004261EE
:1004D0006E647769647468206973202842575F31BD
:1004E00032353D303B2042575F3235303D313B2085
:1004F00042575F3530303D32293A20000909090959
:10050000537072656164696E6720466163746F72CF
:100510002069733A200009090909436F64696E670D
:10052000205261746520697320282043525F353D55
:1005300031203B2043525F363D323B2043525F37F0
:100540003D333B2043525F383D343B293A2000473E
:10055000657474696E67204D6F6465202D2D3E2093
:100560004552524F52008E05A205C805EF050F06F1
:100570002706350645065A06700681068D0694063E
:10058000B106CF06E506F306030726072C07416CE4
:1005900061726D204D6F6465206D61746368657371
:1005A00020005B446179203A20686F757273203AAD
:1005B000206D696E75746573203A207365636F6E84
:1005C00064735D202D3E20005B44617465203A20F9
:1005D000686F757273203A206D696E75746573204B
:1005E0003A207365636F6E64735D202D3E20005B5F
:1005F000486F757273203A206D696E75746573204B
:100600003A207365636F6E64735D202D3E20005B3E
:100610004D696E75746573203A207365636F6E64FF
:10062000735D202D3E20005B5365636F6E64735DC8
:10063000202D3E20004F6E6365207065722073652B
:10064000636F6E6400496E636F72726563742061DC
:100650006C61726D206D6F6465005B253032753A98
:10066000253032753A253032753A253032755D00C5
:100670005B253032753A253032753A253032755D5A
:10068000005B253032753A253032755D005B2530D0
:1006900032755D005B446179203A20686F75727332
:1006A000203A206D696E75746573205D202D3E20A3
:1006B000005B44617465203A20686F757273203A5C
:1006C000206D696E75746573205D202D3E20005B82
:1006D000486F757273203A206D696E757465735D2D
:1006E000202D3E20005B4D696E757465735D202D75
:1006F0003E20004F6E636520706572206D696E75D7
:1007000074650025732C20253032752F2530327505
:100710002F253032752C20253032753A2530327530
:100720003A25303275006572726F7200253032756D
:1007300025632530327525632530327525632530D4
:100740003275256325303275256325303275256372
:10075000253032750000000809000000000000008C
:100760000000000000000000000000000000000089
:100770000000000000000000000000000000000079
:10078000000000000000000001020810102040805E
:10079000040810204002020408102040800102805A
:1007A0002040042001010204081020014080408004
:1007B0000102080408800410040201050505050370
:1007C00003030301010104040306060606060606E8
:1007D00006010405010501030202020202020102F0
:1007E00002050504040304040103040707070020AD
:1007F0002326292C2F32002225282B2E31340021AC
:1008000024272A2D3033230E141BE21C2E1E2C21EC
:10081000C7229B2411241FBECFEFD1E2DEBFCDBF84
:1008200012E0A0E0B2E0EAE7F4E500E00BBF02C0AE
:1008300007900D92A034B107D9F71CE0A0E4B2E014
:1008400001C01D92AC3BB107E1F718E0C4E1D8E06C
:1008500000E006C022970109FE010BBF0E94B826E6
:10086000C630D10780E00807A9F70E942C150C9428
:100870003B2A0C94000087E796E00E94EF1C6CEC8A
:1008800070E087E796E00E94FF1D6AED70E087E761
:1008900096E00E94FF1D60E171E087E796E00E940C
:1008A000FF1D69E371E087E796E00E94FF1D60E5A8
:1008B00071E087E796E00E94FF1D81E492E00E94CC
:1008C000FB0D40E050E069ED70E081E492E00E94B1
:1008D000730C8093400269E771E087E796E00E941D
:1008E000661D60914002772767FD709587E796E067
:1008F0000E94CB1D63E581E492E00E94470D809346
:1009000040026CE971E087E796E00E94661D609105
:100910004002772767FD709587E796E00E94CB1D20
:1009200081E492E00E943A078093400264EC71E017
:1009300087E796E00E94661D60914002772767FD79
:10094000709587E796E00E94CB1D62E081E492E01B
:100950000E94000A8093400261EE71E087E796E012
:100960000E94661D60914002772767FD709587E7BA
:1009700096E00E94CB1D68E481E492E00E94FB0CAB
:10098000809340026CEF71E087E796E00E94661D5D
:1009900060914002772767FD709587E796E00E9497
:1009A000CB1D81E492E00E947607809340026BE1C8
:1009B00072E087E796E00E94661D6091400277270B
:1009C00067FD709587E796E00E94CB1D69E081E4A2
:1009D00092E00E949F0D8093400265E372E087E7FA
:1009E00096E00E94661D60914002772767FD709532
:1009F00087E796E00E94CB1D87E796E00E94F21DF4
:100A000068EE73E080E090E00C94CB116AE572E050
:100A100087E796E00E94FF1D63E872E087E796E0B3
:100A20000E94FF1D64EA72E087E796E00E94FF1DC6
:100A300081E492E00E943B0C8093400281111BC034
:100A40006DEC72E087E796E00E94661D67EE72E04B
:100A500087E796E00E94661D40914502509146024C
:100A6000609147027091480220E130E087E796E00C
:100A70000E948E1D06C066EF72E087E796E00E9436
:100A8000FF1D81E492E00E94350D809340028111A8
:100A900019C060E173E087E796E00E94661D61E39C
:100AA00073E087E796E00E94661D409150025091E6
:100AB000510260E070E02AE030E087E796E00E94B3
:100AC0008E1D06C065E473E087E796E00E94FF1D77
:100AD00081E492E00E94350780934002811118C0A2
:100AE00066E673E087E796E00E94661D60E873E0C3
:100AF00087E796E00E94661D4091530250E060E057
:100B000070E02AE030E087E796E00E948E1D06C084
:100B100067EA73E087E796E00E94FF1D81E492E0B8
:100B20000E94EC0C80934002811117C060EC73E0CE
:100B300087E796E00E94661D69ED73E087E796E01F
:100B40000E94661D6091490287E796E00E941D1E83
:100B500087E796E00E94F21D06C065E074E087E733
:100B600096E00E94FF1D81E492E00E945A07809364
:100B70004002811118C06DE174E087E796E00E94A1
:100B8000661D64E374E087E796E00E94661D40916D
:100B9000550250E060E070E02AE030E087E796E040
:100BA0000E948E1D06C060E574E087E796E00E9413
:100BB000FF1D81E492E00E947F0D8093400281112D
:100BC00018C066E674E087E796E00E94661D65E857
:100BD00074E087E796E00E94661D4091520250E063
:100BE00060E070E02AE030E087E796E00E948E1D2A
:100BF00006C067E974E087E796E00E94FF1D81E484
:100C000092E00E94F0068093400281113AC066EBA8
:100C100074E087E796E00E94661D6EEC74E087E75B
:100C200096E00E94661D4091420250E060E070E054
:100C300020E130E087E796E00E948E1D6CEF74E0C3
:100C400087E796E00E94661D4091440250E060E014
:100C500070E02AE030E087E796E00E948E1D66E1B2
:100C600075E087E796E00E94661D4091430250E0E0
:100C700060E070E020E130E087E796E00E948E1DA2
:100C800006C06FE475E087E796E00E94FF1D87E7E6
:100C900096E00E94F21D68E873E180E090E00C9419
:100CA000CB11FC01118281E0828387E0838340E0E5
:100CB00050EC64EE70E04483558366837783128A38
:100CC000148A138E8FE08087168A178A108E83E02D
:100CD000818FE55EFE4F10828091A2089091A3085B
:100CE000A091A408B091A508A2608093A208909357
:100CF000A308A093A408B093A5080895CF93C62F86
:100D000066E081E796E00E94551B61E081E796E08E
:100D10000E94551B61E070E080E090E00E94CB11E2
:100D20008C2F8F770E94D11C80E0CF910C94D11C26
:100D30001F93CF93DF931F92CDB7DEB7162F66E0D8
:100D400081E796E049830E94551B61E081E796E0C8
:100D50000E94551B61E070E080E090E00E94CB11A2
:100D6000812F80680E94D11C4981842F0E94D11C50
:100D700066E081E796E00F90DF91CF911F910C9490
:100D8000551BCF93DF93EC0140E061E00E94980691
:100D900040E861E0CE010E94980641E861E0CE01A2
:100DA0000E9498064FEF63E2CE010E94980648E049
:100DB0006DE1CE010E94980644E76EE1CE010E94EB
:100DC000980661E0CE010E947E06813821F481E020
:100DD0008B8F80E002C01B8E81E0DF91CF91089560
:100DE0000F931F93CF93DF93EC0161E00E947E0687
:100DF000082F8B8D811103C0CE010E94C1066DE1C9
:100E0000CE010E947E06282F30E0B90186E075955C
:100E100067958A95E1F7698393E0359527959A95CB
:100E2000E1F7277033272A836EE1CE010E947E0608
:100E3000282F22952F702B838981833010F011E0A9
:100E400009C09A8191509430D0F7265011E0273094
:100E500008F410E0402F61E0CE010E949806812F37
:100E6000DF91CF911F910F91089521E0FC01228B1A
:100E700080E00895CF93DF93EC018B8D8823A1F060
:100E80006DE1CE010E947E06482F44606DE1CE01E7
:100E90000E9498066DE1CE010E947E0682FF06C088
:100EA00081E08A8B80E003C08FEF01C081E0DF9199
:100EB000CF9108951F93CF93DF93EC011B8D1130D9
:100EC00039F46DE10E947E0681FF07C01C8B09C0CA
:100ED00060E30E947E0684FD02C01C8A02C081E09D
:100EE0008C8B80E0DF91CF911F910895CF93DF939A
:100EF000EC018B8D813089F46DE1CE010E947E067C
:100F0000482F4D7F6DE1CE010E9498066DE1CE0124
:100F10000E947E0681FD13C010C060E3CE010E94D6
:100F20007E06482F4F7E60E3CE010E94980660E364
:100F3000CE010E947E0684FD02C01C8A02C081E0B0
:100F400001C080E0DF91CF910895CF93DF93EC0152
:100F50008B8D882391F06EE1CE010E947E06282FB2
:100F600030E044E0359527954A95E1F72B832650EC
:100F700081E0273018F480E001C08FEFDF91CF913E
:100F80000895CF93DF93EC018B8D882389F06DE179
:100F9000CE010E947E06282F30E056E03595279539
:100FA0005A95E1F7298381E0233019F080E001C0F0
:100FB0008FEFDF91CF910895EF92FF920F931F93E0
:100FC000CF93DF93EC01062F61E00E947E06E82EAE
:100FD0008B8D811105C0CE010E94C106182FD3C090
:100FE00041E861E0CE010E9498066DE1CE010E94C9
:100FF0007E06F82E6EE1CE010E947E06182F093083
:10100000B1F030F4073069F078F4063009F506C025
:101010000B3099F078F00C30D9F415C01F761066BB
:1010200019C01F77106720C01F7810681DC01F7976
:1010300010691AC01F7A106A17C01F7B106BCE018F
:101040000E94C10702C01F7C106C81E0F82A0CC00E
:10105000063051F4CE010E943A0745E061E3CE012B
:101060000E9498064CE006C043E061E3CE010E9476
:1010700098064AE067E3CE010E9498064F2D6DE185
:10108000CE010E949806412F47606EE1CE010E947A
:1010900098066DE1CE010E947E06182F6EE1CE010A
:1010A0000E947E060930C1F138F40730F9F048F5A6
:1010B000063009F065C008C00B3009F445C0B8F12E
:1010C0000C3009F05DC04CC0282F30E014E035959D
:1010D00027951A95E1F72630310511F012E053C03B
:1010E00082FFFCCF8A898130C9F74CC0282F30E0BD
:1010F000B4E035952795BA95E1F72730310571F7BA
:1011000020C0282F30E0A4E035952795AA95E1F777
:101110002830310519F715C0282F30E0F4E0359557
:101120002795FA95E1F729303105C1F60AC0282F35
:1011300030E0E4E035952795EA95E1F72A3031056E
:1011400069F682FD1FC0CACF282F30E074E03595C4
:1011500027957A95E1F72B30310509F0BFCF0BC009
:10116000282F30E064E0359527956A95E1F72C301B
:10117000310509F0B3CF82FFB1CF10FFAFCF02C06E
:1011800011E001C010E04E2D61E0CE010E949806F2
:10119000802F8650873010F40B8310E0812FDF9171
:1011A000CF911F910F91FF90EF900895CF92DF9212
:1011B000EF92FF920F931F93CF93DF931F92CDB7C0
:1011C000DEB76C018B0161E00E947E06E82EF6011D
:1011D000838D811105C0C6010E94C106F82E02C090
:1011E00032E0F32E41E861E0C6010E9498066DE10D
:1011F000C6010E947E06482F01301105A1F020F0A3
:1012000002301105A9F412C04F73C60149830E9430
:10121000A507F601938149819B3009F402C09C30F7
:1012200039F4416005C04F77406402C04F7B40688D
:101230006DE1C6010E9498066DE1C6010E947E061E
:1012400001301105F1F020F00230110581F524C0C4
:10125000682F70E026E0759567952A95E1F7672B72
:1012600069F5F60193819B3029F4F82EF094F1E0B2
:10127000FF2224C09C3009F5F82EF09481E0F8227A
:101280001DC0282F30E096E0359527959A95E1F717
:101290002130310599F411C0282F30E086E03595D2
:1012A00027958A95E1F72230310541F406C00330D5
:1012B000110520F0FF24F39403C0F12CF601018303
:1012C0004E2D61E0C6010E9498068F2D0F90DF9190
:1012D000CF911F910F91FF90EF90DF90CF900895E5
:1012E000FF920F931F93CF93DF93EC01162F61E0D2
:1012F0000E947E06F82E8B8D811105C0CE010E94C2
:10130000C106082F6AC041E861E0CE010E9498063C
:101310006DE1CE010E947E06123061F018F41130AA
:1013200089F405C0133049F0143061F409C08F7C92
:10133000886008C0877D806105C08F7D886102C09C
:10134000877E8062482F6DE1CE010E9498066DE194
:10135000CE010E947E061230B1F018F41130D1F5A2
:1013600005C01330E9F01430A9F527C0282F30E06C
:10137000E3E035952795EA95E1F72770332721308B
:10138000310551F127C0282F30E073E035952795BE
:101390007A95E1F72770332722303105D9F41CC044
:1013A000282F30E063E0359527956A95E1F727709F
:1013B00033272330310571F40FC0282F30E053E07C
:1013C000359527955A95E1F7277033272430310555
:1013D00009F402C002E001C000E0812F8150843096
:1013E00010F001E001C01A834F2D61E0CE010E9490
:1013F0009806802FDF91CF911F910F91FF90089554
:101400000F931F93CF93DF93EC01062F61E00E94AF
:101410007E06182F8B8D811103C0CE010E94C1065C
:1014200041E861E0CE010E9498060530D9F168F4E8
:10143000023009F120F4013009F049C116C003302F
:1014400001F1043009F043C127C0083009F441C05C
:1014500030F4063069F1073009F039C12FC0093086
:10146000F1F10A3009F033C140C061E0CE010E94C1
:1014700070096CE00BC061E0CE010E9470096CE065
:1014800022C061E0CE010E9470096AE0CE010E9494
:10149000DC0760E070E033C061E0CE010E947009BB
:1014A0006CE028C061E0CE010E9470096AE00BC0C8
:1014B00061E0CE010E9470096BE01CC061E0CE01CA
:1014C0000E94700969E0CE010E94DC0761E070E0D3
:1014D00016C061E0CE010E94700969E00BC061E0B6
:1014E000CE010E94700968E005C061E0CE010E9453
:1014F000700967E0CE010E94DC0762E070E0CE0177
:101500000E94D608E8C0282F30E043E035952795A3
:101510004A95E1F72130310509F0DBC06EE1CE01DB
:101520000E947E0690E024E0959587952A95E1F744
:1015300001E00C9709F0F4C0C8C0282F30E003E0A8
:10154000359527950A95E1F72930310509F0C1C095
:1015500017C0282F30E0B3E035952795BA95E1F70D
:101560002130310509F0B5C027C0282F30E0A3E0B5
:1015700035952795AA95E1F72131310509F0A9C0E4
:101580006EE1CE010E947E06282F30E0F4E0359512
:101590002795FA95E1F701E02C30310509F0C0C03C
:1015A00094C0282F30E0E3E035952795EA95E1F7E0
:1015B0002930310509F08DC06EE1CE010E947E0612
:1015C000282F30E074E0359527957A95E1F701E012
:1015D0002A30310509F0A4C078C0282F30E063E03C
:1015E000359527956A95E1F72131310509F071C0EC
:1015F0006EE1CE010E947E06282F30E054E0359542
:1016000027955A95E1F701E02B30310509F088C0A4
:101610005CC0282F30E043E0359527954A95E1F7E7
:101620002930310509F055C00BC0282F30E093E078
:10163000359527959A95E1F72131310509F049C093
:101640006EE1CE010E947E06282F30E084E03595C1
:1016500027958A95E1F701E02930310509F060C04E
:1016600034C0282F30E003E0359527950A95E1F73F
:101670002131310571F56EE1CE010E947E06282FE1
:1016800030E0B4E035952795BA95E1F701E02830D0
:10169000310509F045C019C0282F30E0A3E0359589
:1016A0002795AA95E1F72131310599F46EE1CE0134
:1016B0000E947E06282F30E0F4E035952795FA95B4
:1016C000E1F701E02730310559F500E029C00FEFBF
:1016D00027C001E025C06DE1CE010E947E060530E5
:1016E00009F45FCF68F4023009F427CF18F4013011
:1016F00081F709CF033009F42CCF043051F735CFEF
:10170000083009F492CF30F4063009F466CF073080
:1017100001F77FCF093009F4A4CF0A30D1F6BCCF4E
:10172000412F61E0CE010E949806802FDF91CF917A
:101730001F910F910895493989ED580782EE680786
:10174000710509F494C008F04EC0493989E9580779
:1017500088ED6807710509F48AC0F8F4411580E640
:10176000580788ED6807710509F481C038F44C3CCE
:101770005C44684D710509F07CC079C0433383E750
:10178000580788ED6807710509F471C04636564858
:10179000684D710509F06DC06AC04115510589EDAC
:1017A0006807710509F463C078F44C3C8CEA58076B
:1017B00088ED6807710509F45AC04115504C684D11
:1017C000710509F056C053C04E3185EC580781EEC3
:1017D0006807710509F44BC04C355F44624E7105D2
:1017E00009F047C044C04F3882E0580785EE6807CB
:1017F0007105E9F1D8F444318EEE580783EE68079D
:101800007105A9F130F4473D5346634E710589F5E2
:101810002EC0413588E7580784EE6807710539F115
:101820004115504C644E710521F521C0473481EAC1
:10183000580786EE68077105D1F068F44C3C8CE8D7
:10184000580785EE6807710591F04A305741664E9A
:10185000710579F40CC045388BE2580787EE6807AC
:10186000710529F0423C554B674E710511F481E03A
:10187000089580E008950F931F93CF93DF93EC01B9
:1018800066E00E947E06182F67E0CE010E947E0669
:10189000082F68E0CE010E947E06412F50E060E0F4
:1018A00070E0BA015527442710E020E030E0322FE5
:1018B000212F102F0027400F511F621F731F480F49
:1018C000511D611D711D4C835D836E837F83CE012D
:1018D0000E949B0B91E0811190E0892FDF91CF91C5
:1018E0001F910F9108957F928F929F92AF92BF9216
:1018F000CF92DF92EF92FF920F931F93CF93DF93DC
:10190000EC016A017B0161E00E947E06782E8B8DDE
:10191000813011F441E801C041E061E0CE010E9454
:1019200098064E2D66E0CE010E9498064D2D67E088
:10193000CE010E9498064C2D68E0CE010E949806C8
:1019400066E0CE010E947E06082F67E0CE010E946D
:101950007E06182F902E812CA12CB12CBA2CA92CEC
:10196000982C882468E0CE010E947E06712F60E0EA
:10197000082F10E020E030E0060F171F211D311D59
:10198000080D191D2A1D3B1D0C151D052E053F05B3
:1019900031F4CC82DD82EE82FF8210E001C011E0E2
:1019A000B701A601CE010E949B0B811101C01FEF60
:1019B000472D61E0CE010E949806812FDF91CF91E3
:1019C0001F910F91FF90EF90DF90CF90BF90AF905D
:1019D0009F908F907F900895CF93DF93EC0169E003
:1019E0000E947E06982F888781E0903108F480E07D
:1019F000DF91CF9108950F931F93CF93DF93EC0165
:101A0000162F61E00E947E06082F8B8D813011F425
:101A100041E801C041E061E0CE010E9498061C341B
:101A200039F01D3419F0183439F404C08FE003C0C4
:101A3000188602C087E08887488569E0CE010E9449
:101A4000980669E0CE010E947E0611E09885891310
:101A500001C010E0402F61E0CE010E949806812F66
:101A6000DF91CF911F910F910895CF93DF93EC01F8
:101A70008B8D813011F462E201C062E3CE010E94DD
:101A80007E068F87188A80E0DF91CF9108950F93AB
:101A90001F93CF93DF93EC01162F61E00E947E0627
:101AA000082F1F8F8B8D813061F441E861E0CE01FA
:101AB0000E9498064F8D62E2CE010E94980662E273
:101AC0000BC041E061E0CE010E9498064F8D62E3B9
:101AD000CE010E94980662E3CE010E947E0611E0CC
:101AE0009F8D981301C010E0402F61E0CE010E944D
:101AF0009806812FDF91CF911F910F9108951F9329
:101B0000CF93DF93EC018B8D8130A1F061E0CE01AA
:101B10000E947E06182F41EC61E0CE010E949806DB
:101B200063E3CE010E947E06898B412F61E0CE01E6
:101B30000E94980680E0DF91CF911F9108950F9346
:101B40001F93CF93DF93EC01162F698B61E00E9406
:101B50007E06082F9B8D9130F9F091111DC041E058
:101B600061E0CE010E949806412F63E3CE010E94FE
:101B7000980640E064E3CE010E94980663E3CE013C
:101B80000E947E06182F402F61E0CE010E94980629
:101B900081E09989191301C080E0DF91CF911F91F5
:101BA0000F9108950F931F93CF93DF93EC016C3146
:101BB000E0F4062F006261E00E947E06182F8B8DF4
:101BC000813011F441E801C041E061E0CE010E94A2
:101BD0009806402F6BE0CE010E949806412F61E0ED
:101BE000CE010E94980680E001C08FEFDF91CF9177
:101BF0001F910F910895CF93DF93EC0161E086E18F
:101C00000E94AC1261E086E10E94C51281E08093DF
:101C100071060E94191B81E00E943C1B84E00E9417
:101C20004A1B80E00E94451B6BE1CE010E94D20D51
:101C3000811105C0CE01DF91CF910C94C10681E0E6
:101C4000DF91CF91089581E492E00C9451061092B7
:101C50006A05E4E6F0E080818F778083589A599A8C
:101C6000E9EBF0E080818E7F808380818D7F8083AF
:101C700081E48093B80085E48093BC0080E2EBE6C9
:101C8000F5E0DF01982F1D929A95E9F7EBE8F5E072
:101C9000DF01982F1D929A95E9F7EBEAF5E0DF0155
:101CA0001D928A95E9F70895613298F420916A05AA
:101CB000243089F460936705FC018BE895E0DC0132
:101CC00002C021912D932A2F281B2617D0F380E0E4
:101CD000089581E0089582E0089585EC8093BC002A
:101CE00010926A050895589859988091B9008160BA
:101CF0008093B9008091B90082608093B90080918F
:101D0000BC0080688093BC008091BC00806180939F
:101D1000BC008091BC008F7B8093BC008091BC0094
:101D20008F7D8093BC008091BC00877F8093BC0036
:101D30008091A2089091A308A091A408B091A50851
:101D400086FD14C08091A2089091A308A091A408D8
:101D5000B091A50890FD0AC08091A2089091A308B7
:101D6000A091A408B091A50893FF04C08091BC0085
:101D70008B7F03C08091BC0084608093BC00809105
:101D8000BC008E7F8093BC0080916400806880934B
:101D900064000895882349F010926105109262054D
:101DA000109263051092640513C0809161059091B3
:101DB0006205A0916305B09164050196A11DB11D56
:101DC0008093610590936205A0936305B0936405C9
:101DD0008091610590916205A0916305B0916405C1
:101DE000803A9648A140B10560F0109261051092CA
:101DF000620510926305109264050E94270E81E02F
:101E0000089580E0089585ED8093BC0081E00E94F4
:101E1000CA0E08C080E00E94CA0E882319F01092F2
:101E20006A0508958091BC0084FDF4CFF8CFFF923D
:101E30000F931F93CF93DF93182F062FF72EC42FE6
:101E4000D22F81E0413208F051C00E94CA0E15C065
:101E500080E00E94CA0E882381F082E080936A05A8
:101E60008FEF8093650510926905C093CB05E02F35
:101E7000FF2D6BE675E0DB0107C080916A058111DB
:101E8000E7CFEBCF81918D938A2F861B8C17D0F3F0
:101E9000812F90E0880F991F8093CC0585EE809369
:101EA000BC0081E00E94CA0ED11105C08091650579
:101EB0008F3F59F414C080916A058230B9F780E0F1
:101EC0000E94CA0E81110DC0F6CF80916505803247
:101ED00051F080916505803341F483E007C080E0D4
:101EE00005C085E003C082E001C084E0DF91CF91AE
:101EF0001F910F91FF9008950F931F93CF93DF933E
:101F0000082FD62F172FC42F81E04132E0F50E9411
:101F1000CA0E1DC080E00E94CA0E8823C1F081E075
:101F200080936A058FEF8093650510926905C093D1
:101F3000CB05802F90E0880F991F81608093CC059E
:101F400085EE8093BC0081E00E94CA0E10C0809193
:101F50006A058111DFCFE3CF80E00E94CA0E88239B
:101F600031F08BE695E0ED2FF12FDC0107C0809179
:101F70006A05813089F3F5CF2D9121932A2F281BF3
:101F80002C17D0F380E0DF91CF911F910F9108952E
:101F90001F920F920FB60F9211240BB60F922F9330
:101FA0003F934F935F936F937F938F939F93AF93E1
:101FB000BF93CF93EF93FF93C091B900C87FC03612
:101FC00009F49FC058F5C83209F45BC090F4C031E1
:101FD00009F452C038F4CC2309F4F2C0C83009F037
:101FE000F3C04AC0C83109F44CC0C03209F0ECC09B
:101FF0005DC0C03409F473C038F4C03309F45BC069
:10200000C83309F0E1C05AC0C03509F45CC0C83516
:1020100009F46AC0C83409F0D7C0D4C0C83909F47B
:10202000C5C0A8F4C83709F46CC038F4C83609F440
:1020300068C0C03709F0C8C064C0C83809F4B6C069
:10204000C03909F464C0C03809F0BEC060C0C03BEC
:1020500009F484C038F4C03A09F46BC0C83A09F0F6
:10206000B3C07CC0C03C09F4A5C0C83C09F4A2C000
:10207000C83B09F0A9C087C08091CC058093BB0004
:1020800013C0909169058091CB05981708F09AC00C
:1020900080916905E82FF0E0E559FA4F908190931F
:1020A000BB008F5F8093690585EC81C00E94030FA0
:1020B000C093650589C0C093650584C0C09365055C
:1020C0000E946D0E81C0809169059091BB00E82F40
:1020D000F0E0E559FA4F90838F5F80936905909106
:1020E00069058091CB055FC0809169059091BB0027
:1020F000E82FF0E0E559FA4F90838F5F80936905F0
:1021000061C083E080936A0510926605CDCF80910F
:102110006605803208F04AC0809166059091BB0048
:10212000E82FF0E0E555FA4F90838F5F80936605C6
:10213000BBCF80916605803230F4E0916605F0E017
:10214000E555FA4F108260916605E091CD05F0915A
:10215000CE0570E08BEA95E009952CC084E0809371
:102160006A051092680510926705E091CF05F0911D
:10217000D005099580916705811105C081E08093A4
:10218000670510928B0580916805E82FF0E0E55710
:10219000FA4F90819093BB008F5F80936805909178
:1021A000680580916705981708F47ECF85E88093CD
:1021B000BC000AC085EC8093BC0010926A0504C084
:1021C000109265050E94030FFF91EF91CF91BF918F
:1021D000AF919F918F917F916F915F914F913F91BF
:1021E0002F910F900BBE0F900FBE0F901F90189560
:1021F0001F920F920FB60F9211240BB60F922F93CE
:102200003F934F935F936F937F938F939F93AF937E
:10221000BF93EF93FF93F89481E080930A02E0E686
:10222000F0E080818068808380818F7B808360E0A4
:1022300083E00E94C5127894FF91EF91BF91AF9116
:102240009F918F917F916F915F914F913F912F91CE
:102250000F900BBE0F900FBE0F901F9018951F92FE
:102260000F920FB60F9211248F939F93AF93BF934A
:102270008091B4089091B508A091B608B091B708C4
:102280000196A11DB11D8093B4089093B508A09349
:10229000B608B093B708BF91AF919F918F910F90FF
:1022A0000FBE0F901F9018951F920F920FB60F92AE
:1022B00011248F939F93AF93BF938091B80890910F
:1022C000B908A091BA08B091BB080196A11DB11D33
:1022D0008093B8089093B908A093BA08B093BB084C
:1022E000BF91AF919F918F910F900FBE0F901F9054
:1022F00018958F929F92AF92BF92CF92DF92EF92FA
:10230000FF920F931F93CF93DF932FB7F894809191
:10231000B4089091B508A091B608B091B7082FBF46
:102320009C01AD0160E070E080E090E001E00E947F
:10233000A0264901D42FC52FB62FA72FF82FE92F9C
:1023400002E00E94A02659016A017B018C019401E0
:102350004D2F5C2F6B2F7A2F8F2F9E2F0E94AF2631
:10236000E9E0AE2EB12CC12CD12CE12CF12C00E0F7
:1023700010E00E944326952FB901842FDF91CF9161
:102380001F910F91FF90EF90DF90CF90BF90AF9093
:102390009F908F9008958F929F92AF92BF92CF920D
:1023A000DF92EF92FF924B015C0107C00E9479110E
:1023B0006C157D058E059F0520F40E9479116B0137
:1023C0007C010E9479116C197D098E099F0968159D
:1023D00079058A059B0550F3FF90EF90DF90CF9031
:1023E000BF90AF909F908F900895BC01049768F0C4
:1023F00080E090E00E94CB2426E636E646EE5FE3DE
:102400000E9459250E949F2402C0660F771F6150C9
:10241000710961F06150710949F0FB01EE0FFF1F76
:1024200031978FB7F8943197F1F78FBF089578946B
:1024300084B7877F84BF1092B4081092B5081092B9
:10244000B6081092B70884B5826084BD84B58160F7
:1024500084BD85B5826085BD85B5816085BDEEE6AC
:10246000F0E0808181608083E1E8F0E0808182603B
:102470008083808181608083E0E8F0E080818160FA
:102480008083E1EBF0E0808184608083E1E9F0E02B
:10249000808184608083E0EBF0E0808181608083D4
:1024A000E0E9F0E0808181608083E4E6F0E0808113
:1024B0008E7F8083ECE7F0E080818F77808380815E
:1024C00080648083EAE7F0E080818460808380819B
:1024D000826080838081806880831092C100109226
:1024E000C90008959091D105982B9093D10580FF54
:1024F00032C0809164008E7F8093640080917C0064
:102500008F7780937C0080917C00806480937C0036
:1025100080917A00846080937A0080917A00826052
:1025200080937A0080917A00806880937A0080910D
:1025300064008F7780936400809164008B7F809328
:102540006400809164008D7F8093640080916500B9
:102550008E7F80936500089590E0FC01E857F84F66
:102560002491FC01E554F84FE491EE2369F0F0E08A
:10257000E250F84FA491B0E08C91611103C0209516
:10258000822301C0822B8C93089590E0FC01EB5ACA
:10259000F84F2491FC01E857F84F3491FC01E554C1
:1025A000F84F84918823B1F1222331F1233021F4B3
:1025B000909180009F7705C0243031F49091800085
:1025C0009F7D9093800018C0213019F494B59F77B7
:1025D00004C0223021F494B59F7D94BD0DC02630F7
:1025E00021F49091B0009F7705C0273029F4909195
:1025F000B0009F7D9093B000E82FF0E0EA50F84FD4
:10260000A491B0E08C91611103C03095832301C087
:10261000832B8C93089590E0FC01EB5AF84F2491A2
:10262000FC01E857F84F3491FC01E554F84F8491D0
:10263000882399F1222331F1233021F490918000F5
:102640009F7705C0243031F4909180009F7D909356
:10265000800018C0213019F494B59F7704C022304F
:1026600021F494B59F7D94BD0DC0263021F4909146
:10267000B0009F7705C0273029F49091B0009F7D6E
:102680009093B000E82FF0E0E251F84FE491F0E0D1
:102690008081832321E030E011F420E030E0C901A3
:1026A0000895CF92DF92EF92FF926B017C0141116E
:1026B00034C088E00E947212C701B60122E030E007
:1026C00040E050E00E942526305F414F5F4FCA0135
:1026D000B901A70196010E942526DA01C9010197D7
:1026E000A109B109892F9A2FAB2FBB27A7FDBA9556
:1026F0008093C50021502093C4008091C100806167
:102700008093C1008091C10088608093C100809156
:10271000C10080688093C10033C080E10E947212C2
:10272000C701B60122E030E040E050E00E942526DB
:10273000305F414F5F4FCA01B901A70196010E9466
:102740002526DA01C9010197A109B109892F9A2F1C
:10275000AB2FBB27A7FDBA958093CD0021502093C6
:10276000CC008091C90080618093C9008091C9002C
:1027700088608093C9008091C90080688093C900F7
:10278000FF90EF90DF90CF900895611107C0909176
:10279000C00095FFFCCF8093C60008959091C800BB
:1027A00095FFFCCF8093CE0008951F920F920FB635
:1027B0000F9211242F933F934F935F936F937F93C7
:1027C0008F939F93AF93BF93EF93E091C6002091B7
:1027D000D8053091D905C901019660E072E00E94E8
:1027E000EF254091D6055091D7058417950741F004
:1027F000D901A454B54FEC939093D9058093D80593
:10280000EF91BF91AF919F918F917F916F915F9168
:102810004F913F912F910F900FBE0F901F901895E1
:102820001F920F920FB60F9211242F933F934F9345
:102830005F936F937F938F939F93AF93BF93EF9328
:10284000E091CE002091D4053091D505C9010196C3
:1028500060E072E00E94EF254091D2055091D305CF
:102860008417950741F0D901A454B74FEC93909386
:10287000D5058093D405EF91BF91AF919F918F9132
:102880007F916F915F914F913F912F910F900FBE6C
:102890000F901F9018950C94C513CF93C82F682FD5
:1028A0008DE00E94C5136C2F8AE0CF910C94C51364
:1028B0004F925F926F927F928F929F92AF92BF9250
:1028C000CF92DF92EF92FF920F93CF93DF93CDB72A
:1028D000DEB7A0970FB6F894DEBF0FBECDBF2901BB
:1028E0003A016115710581059105C9F4602F80E3F6
:1028F000A0960FB6F894DEBF0FBECDBFDF91CF918B
:102900000F91FF90EF90DF90CF90BF90AF909F908E
:102910008F907F906F905F904F900C94C513EE2432
:10292000E394F12CEC0EFD1E812C912C5401A3019B
:1029300092010E940326F70161937F01FFEF8F1A36
:102940009F0AAF0ABF0AB901CA0161157105810565
:10295000910569F7CC24CA94DC2C7601C80CD91CEB
:10296000EA1CFB1C14C0E1E0F0E0EC0FFD1FEC0DD5
:10297000FD1D80818A3010F4805D01C0895C602F6C
:102980000E94C51381E0C81AD108E108F108EFEFF1
:10299000CE16DE06EE06FE0631F7A0960FB6F894C8
:1029A000DEBF0FBECDBFDF91CF910F91FF90EF90B3
:1029B000DF90CF90BF90AF909F908F907F906F905F
:1029C0005F904F900895CF93DF93C62F282F332722
:1029D00027FD3095207F332764E0359527956A954C
:1029E000E1F72A3014F0295C01C0205D982F9F7018
:1029F000D92F9A3014F0D95C01C0D05D6C2F822F92
:102A00000E94C5136C2F8D2FDF91CF910C94C513AD
:102A1000CF92DF92EF92FF920F936B017C01042F14
:102A200097FF0CC0642F8DE20E94C513F094E094D0
:102A3000D094C094C11CD11CE11CF11C2AE030E0F0
:102A400040E050E0C701B6010E9458140F91FF907A
:102A5000EF90DF90CF9008950E9417128CE796E0D8
:102A60000E948D1F853440F061E081E30E94AC122A
:102A700061E081E30E94C51261E070E08CE796E0BE
:102A80000E94691E8130B1F48091A2089091A30840
:102A9000A091A408B091A50890688093A208909393
:102AA000A308A093A408B093A50860E081E090E09B
:102AB0000E947D2987E20E940B13892B59F160E067
:102AC00070E08CE796E00E94691E8A3019F5C1C05B
:102AD0006CE3629FA001639F500D1124840F951F2A
:102AE0000EC02115310559F06CE3629FA001639F70
:102AF000500D11249A01205F314F820F931F0397CD
:102B000048F48091B1089091B20880629093B20825
:102B10008093B1088EED95E00E94F91A8EED95E054
:102B20000E94BA1A8EED95E00E94C91A8EED95E0CA
:102B30000E94811663E070E080E090E00E94CB117B
:102B40008091A2089091A308A091A408B091A50833
:102B5000A1FF5EC063E070E080E090E00E94CB11D6
:102B600061E086E10E94AC1263E070E080E090E0FA
:102B70000E94CB1161E086E10E94C51263E070E023
:102B800080E090E00E94CB110E94191B63E070E08E
:102B900080E090E00E94CB1181E00E943C1B63E04A
:102BA00070E080E090E00E94CB1184E00E944A1B1C
:102BB00063E070E080E090E00E94CB1180E00E9432
:102BC000451B63E070E080E090E00E94CB110E9422
:102BD000381B63E070E080E090E00E94CB1166E07B
:102BE00081E796E00E94551B63E070E080E090E092
:102BF0000E94CB1161E086E10E94AC1260E086E1A8
:102C00000E94C51263E070E080E090E00E94CB116A
:102C100063E070E080E090E00E94CB118CE796E0EA
:102C20000E94671F6093DA057093DB058093DC05D3
:102C30009093DD058091DA059091DB05A091DC058C
:102C4000B091DD050E9410270E943B040E940605FA
:102C5000FDCF8EED95E00E94F91A8EED95E00E9471
:102C60004B198EED95E00E9440198091F70590E098
:102C70002091F905821B91092091F60530E04091E1
:102C8000FA05241B3109121613060CF421CF29CFA3
:102C900080918306882341F08091DF06811104C072
:102CA00084EE96E00C94772408950F931F93CF93AE
:102CB000DF93EC01042F68A761E080E30E94AC126F
:102CC00018A5112379F0113091F461E080E30E949E
:102CD000C512013019F482E08B8B09C0011107C0C5
:102CE0001B8B05C060E080E30E94C5121B8A6AE06E
:102CF00070E080E090E0DF91CF911F910F910C94F4
:102D0000CB11CF93DF93EC010E94481640E060E0C6
:102D1000CE01DF91CF910C945516FC01148A158ACF
:102D2000168A178A108E118E128E138E148E158E9F
:102D3000168E178E10A211A212A213A214A215A20F
:102D400016A217A20895EF92FF920F931F93CF93AD
:102D5000DF93CDB7DEB7EC970FB6F894DEBF0FBEAA
:102D6000CDBF8C01E8E8F5E085919491BC01EE249B
:102D7000E394F12CEC0EFD1EC7010E941B27EAE82C
:102D8000F5E085919491BC01CE0189960E941B27A4
:102D9000F8018689843009F466C040F4823029F154
:102DA00008F04BC0813009F0B6C009C0863009F484
:102DB00086C008F46EC0873009F0ADC096C0F80137
:102DC000818D1F928F93808D1F928F9387891F9281
:102DD0008F93828D1F928F9385891F928F93848901
:102DE0001F928F938BE092E015C0F801818D1F92A6
:102DF0008F93808D1F928F9387891F928F93828DDF
:102E00001F928F9385891F928F9384891F928F932E
:102E10008FE092E09F938F93FF92EF921F9284E650
:102E20008F93C80189969F938F930E942D270FB689
:102E3000F894DEBF0FBECDBF81C0F801818D1F9217
:102E40008F93808D1F928F9387891F928F93828D8E
:102E50001F928F9385891F928F9384891F928F93DE
:102E600083E192E0D7CFF801818D1F928F93808DFF
:102E70001F928F9387891F928F93828D1F928F93BA
:102E800085891F928F9384891F928F9387E192E0A7
:102E9000C1CFF801818D1F928F93808D1F928F93E8
:102EA00087891F928F93828D1F928F9385891F929E
:102EB0008F9384891F928F938BE192E0ABCFF801BF
:102EC000818D1F928F93808D1F928F9387891F9280
:102ED0008F93828D1F928F9385891F928F93848900
:102EE0001F928F938FE192E095CFF801818D1F9211
:102EF0008F93808D1F928F9387891F928F93828DDE
:102F00001F928F9385891F928F9384891F928F932D
:102F100083E292E07FCFCE0189969F938F931F9299
:102F200084E68F93C80189969F938F930E942D27E3
:102F30000F900F900F900F900F900F90075D1F4F05
:102F4000C801EC960FB6F894DEBF0FBECDBFDF917F
:102F5000CF911F910F91FF90EF900895CF92DF9244
:102F6000EF92FF920F931F93CF93DF938C01C62EA6
:102F700080918306811104C08DE796E00E94951F21
:102F800068E670E08DE796E00E94C21F60E070E0A6
:102F90008DE796E00E94EE208DE796E00E94F020FB
:102FA00043E150E068E670E08DE796E00E942A2158
:102FB000E12CF12CC0E0D0E0D12CE4C08DE796E00C
:102FC0000E94CA1FF801EC0FFD1F8083C630D10597
:102FD00009F467C098F4C230D10509F43EC038F452
:102FE000209729F1C130D10509F0C7C02BC0C430EA
:102FF000D10509F440C008F049C03AC0CA30D10533
:1030000009F484C048F4282F30E0C830D10509F411
:1030100061C008F06DC050C0CC30D10509F492C039
:1030200008F482C0CD30D10509F0A7C099C0982F0F
:1030300092959F708F702AE0929F800D1124F80165
:10304000818F9BC0982F92959F708F70FAE09F9F01
:10305000800D1124F801808F90C0982F92959F7059
:103060008F70FAE09F9F800D1124F801878B85C037
:10307000F801868B82C0982F92959F708F70FAE02E
:103080009F9F800D1124F801828F77C0982F929511
:103090009F708F70FAE09F9F800D1124F801858B3F
:1030A0006CC0982F92959F708F70FAE09F9F800D53
:1030B0001124F801848B61C054E0359527955A9509
:1030C000E1F727708F70FAE02F9F800D1124F8012F
:1030D000838F53C044E0359527954A95E1F72770D3
:1030E0008F70FAE02F9F800D1124F801848F45C066
:1030F00094E0359527959A95E1F723708F70FAE063
:103100002F9F800D1124F801858F37C0282F269519
:10311000269526952670922F990F990F920F8F70F2
:10312000980FF801968F29C0282F26952695269569
:103130002E70922F990F990F920F8F70980FF801A0
:10314000978F1BC0282F2695269526952670922F9F
:10315000990F990F920F8F70980FF80190A30DC0DF
:10316000282F2695269526952670922F990F990F30
:10317000920F8F70980FF80191A3219603C0FFEF73
:10318000EF1AFF0ACC16DD0658F02AE0E216F10429
:1031900038F48DE796E00E94C41F882381F30ECF98
:1031A000DF91CF911F910F91FF90EF90DF90CF9023
:1031B00008951F93CF93DF93EC01162F8091830620
:1031C000811104C08DE796E00E94951F68E670E0CB
:1031D0008DE796E00E94C21F612F8DE796E00E9466
:1031E000C220C10FD11D68818DE796E00E94C220E8
:1031F0008DE796E0DF91CF911F910C94F020FF9224
:103200000F931F93CF93DF938C01F62E809183064B
:10321000811104C08DE796E00E94951F68E670E07A
:103220008DE796E00E94C21F6F2D8DE796E00E9409
:10323000C2208DE796E00E94F02041E050E068E671
:1032400070E08DE796E00E942A21CBE0D0E08DE788
:1032500096E00E94C41F811102C02197C1F78DE73B
:1032600096E00E94CA1FF801EF0DF11D80838DE7E3
:1032700096E0DF91CF911F910F91FF900C94F02079
:10328000CF93DF93EC0166E00E94AE17CE01DF9191
:10329000CF910C94A316CF92DF92EF92FF920F93EF
:1032A0001F93CF93DF93CDB7DEB7C857D1090FB6C1
:1032B000F894DEBF0FBECDBF7C016AE00E94AE175E
:1032C0008701075D1F4F84E6F80111928A95E9F79F
:1032D000E6E6F5E085919491BC01CE018F5A9F4FAF
:1032E0000E941B27BE016F5A7F4FC8010E942227F0
:1032F000F70182A1823009F46AC030F4882369F0B2
:10330000813009F00BC122C0843009F4C7C008F431
:1033100093C0853009F002C1F0C0E8E6F5E0859180
:103320009491BC01CE018F5A9F4F0E941B27BE0172
:103330006F5A7F4FC8010E942227E6E7F5E085918A
:1033400094916E01F9E2CF0ED11C18C0EAE6F5E0C7
:1033500085919491BC01CE018F5A9F4F0E941B27EB
:10336000BE016F5A7F4FC8010E942227E6E7F5E0B1
:10337000859194916E01E9E2CE0ED11CBC01C6018B
:103380000E941B27F701838D1F928F93848D1F92BC
:103390008F93858D1F928F93868D1F928F93DF92CF
:1033A000CF921F9288E28F93EE24E394F12CEC0EDF
:1033B000FD1EFF92EF920E942D27B701C8010E94C7
:1033C00022270FB6F894DEBF0FBECDBFC2C0ECE619
:1033D000F5E085919491BC01CE018F5A9F4F0E94D8
:1033E0001B27BE016F5A7F4FC8010E942227E8E7C2
:1033F000F5E0859194916E01E9E2CE0ED11CBC01FD
:10340000C6010E941B27F701838D1F928F93848D25
:103410001F928F93858D1F928F93DF92CF921F9271
:1034200088E28F93EE24E394F12CEC0EFD1EFF92C4
:10343000EF920E942D27C1CFEEE6F5E085919491A1
:10344000BC01CE018F5A9F4F0E941B27BE016F5AAD
:103450007F4FC8010E942227EAE7F5E08591949109
:103460006E01E9E2CE0ED11CBC01C6010E941B27F1
:10347000F701838D1F928F93848D1F928F93DF921C
:10348000CF921F9288E28F93EE24E394F12CEC0EFE
:10349000FD1EFF92EF920E942D278FCFE0E7F5E00F
:1034A00085919491BC01CE018F5A9F4F0E941B279A
:1034B000BE016F5A7F4FC8010E942227ECE7F5E05A
:1034C000859194916E01E9E2CE0ED11CBC01C6013A
:1034D0000E941B27F701838D1F928F93DF92CF925B
:1034E0001F9288E28F93EE24E394F12CEC0EFD1EE4
:1034F000FF92EF920E942D2760CFE2E7F5E08591E1
:103500009491BC01CE018F5A9F4F0E941B27BE0190
:103510006F5A7F4FC8010E9422271BC0E4E7F5E0E5
:10352000859194917E01E1E5EE0EF11CBC01C7018D
:103530000E941B27FF92EF921F9284E68F931F93A6
:103540000F930E942D270F900F900F900F900F90C8
:103550000F90C801C858DF4F0FB6F894DEBF0FBEFA
:10356000CDBFDF91CF911F910F91FF90EF90DF9032
:10357000CF900895CF93DF93EC016EE00E94FF1887
:103580008E858E7F8E876EE0CE01DF91CF910C9479
:10359000D918CF93DF93EC016EE00E94FF188E855F
:1035A0008D7F8E876EE0CE01DF91CF910C94D9187C
:1035B000CF93DF93EC016FE00E94FF188F8583703B
:1035C000DF91CF910895CF93DF93EC010E94D81A39
:1035D000882319F0CE56DF4F88838091ED058C7FCC
:1035E0008093ED056FE08EED95E0DF91CF910C9427
:1035F000D918CF93DF93EC0140E061E00E945516AB
:10360000CE010E94E31ACE010E948D166DE0CE011C
:103610000E94AE1761E08BE20E94AC1260E08BE288
:10362000DF91CF910C94C51210926F061092F105A4
:10363000089561E08EE10E94AC1261E08FE10E948A
:10364000AC1261E08DE10E94AC1260E08EE10E945C
:10365000C51260E08FE10E94C51261E08DE10E9419
:10366000C5128CB580618CBD8CB580648CBD08950D
:103670008CB58F7B8CBD0895811103C08CB58062A1
:1036800002C08CB58F7D8CBD08959CB5937F982B1F
:103690009CBD08952CB5982F93702C7F922B9CBDC8
:1036A0009DB580FB90F99DBD0895CF93C62F61E035
:1036B0008DE10E94AC1261E082E20E94AC1261E0F6
:1036C0008DE10E94C51261E082E20E94C5128091E4
:1036D000A2089091A308A091A408B091A508A2FF08
:1036E00008C061E088E00E94AC1261E088E00E94BE
:1036F000C5128091A2089091A308A091A408B0914E
:10370000A50896FF08C061E089E00E94AC1261E064
:1037100089E00E94C5128091A2089091A308A0910F
:10372000A408B091A508A3FF08C061E082E00E9450
:10373000AC1261E082E00E94C5128091A2089091D3
:10374000A308A091A408B091A508A4FF08C061E057
:1037500082E20E94AC1261E082E20E94C512C33094
:10376000C9F020F4C13061F070F407C0C53061F1D8
:10377000F0F0C63009F067C033C060E08DE160C092
:1037800060E082E25DC08CE796E00E94511E60E03E
:103790008CE256C08091A2089091A308A091A40841
:1037A000B091A508A2FF4FC060E088E049C08091B9
:1037B000A2089091A308A091A408B091A50896FF33
:1037C00042C060E089E03CC08091A2089091A308CB
:1037D000A091A408B091A508A3FF35C060E02FC058
:1037E00061E08DE10E94C51261E082E20E94C51293
:1037F0008091A2089091A308A091A408B091A50877
:10380000A2FF04C061E088E00E94C5128091A20876
:103810009091A308A091A408B091A50896FF04C0B8
:1038200061E089E00E94C5128091A2089091A308EE
:10383000A091A408B091A508A3FF05C061E082E0B3
:10384000CF910C94C512CF9108958091A2089091C8
:10385000A308A091A408B091A508A2FF0EC0809172
:10386000A2089091A308A091A408B091A50881FF97
:1038700004C0809173068823C1F18091A2089091C1
:10388000A308A091A408B091A508A1FF0CC0809145
:103890007106811108C061E086E10E94AC1261E00E
:1038A00086E10E94C51280917206811108C061E014
:1038B0008BE10E94AC1261E08BE10E94C512809105
:1038C000A2089091A308A091A408B091A508A4FF14
:1038D00011C08091760681110DC061E086E10E94E1
:1038E000AC1261E086E10C94C51261E082E00E94B6
:1038F000C512C3CF08958091A2089091A308A0910A
:10390000A408B091A508A2FF0EC08091A2089091D2
:10391000A308A091A408B091A50881FF04C08091DC
:1039200073068823C1F18091A2089091A308A09109
:10393000A408B091A508A1FF0CC080917106811167
:1039400008C061E086E10E94AC1260E086E10E945E
:10395000C51280917206811108C061E08BE10E945E
:10396000AC1260E08BE10E94C5128091A208909198
:10397000A308A091A408B091A508A4FF11C080914C
:10398000760681110DC061E086E10E94AC1260E014
:1039900086E10C94C51260E082E00E94C512C3CF9C
:1039A0000895CF93C82F81E796E00E94251CCEBDD5
:1039B0000DB407FEFDCF81E796E00E947B1C8EB51B
:1039C000CF910895109272061092710610927306AC
:1039D0001092740610927506109276060895FC01F6
:1039E000408160E072EC81E090E00E94511361E060
:1039F00087E10E94AC1261E087E10E94C51261E09C
:103A00008BE00E94AC1260E08BE00E94C51261E086
:103A10008DE20E94AC1260E08DE20C94C512DC01D4
:103A20008091C50011968C9311978091C4001296D5
:103A30008C931297E2ECF0E0808113968C931397AD
:103A40008091CA0014968C93149780818F7D808317
:103A500080818F7E80838081877F80834C9160E02E
:103A600072EC81E090E00E94511361E087E10E94D6
:103A7000C51260E08BE00C94C512CF93DF93EC018C
:103A80004091A2085091A3086091A4087091A508E4
:103A900063E070E080E090E042FF07C00E94CB113D
:103AA00061E08BE00E94C51202C00E94CB118981A7
:103AB0008093C5008A818093C4008B818093C2006B
:103AC0008C818093CA00DF91CF910895EF92FF928D
:103AD0000F931F93CF93DF938C01EB010E940F1D77
:103AE0007E0188E1E81A8CEFF80AFE0121968491A4
:103AF000882339F0F80160810E944B14CE15DF0550
:103B0000A1F7C8010E943D1D60E070E0CB01DF918C
:103B1000CF911F910F91FF90EF900895AF92BF92B8
:103B2000DF92EF92FF920F931F93CF93DF93EC01FD
:103B3000142FD52E7B0159010E940F1DA114B10431
:103B400029F46881812F0E944B1416C08AE0A816C0
:103B5000B10439F44881612F7D2DC7010E940815F9
:103B60000BC09501442737FD4095542F0881612FE4
:103B70007D2DC7010E94581488810E944D14CE01EA
:103B8000DF91CF911F910F91FF90EF90DF90BF9049
:103B9000AF900C943D1D0F931F93CF93DF93EC01D7
:103BA0008B010E940F1D17FF07C068818DE20E94E4
:103BB0004B14119501951109B801882777FD80955F
:103BC000982F08812AE030E040E050E00E9458142D
:103BD00088810E944D14CE01DF91CF911F910F91EA
:103BE0000C943D1DCF93DF93EC010E940F1D888143
:103BF0000E944D14CE01DF91CF910C943D1DEF92A8
:103C0000FF920F931F93CF93DF9300D0CDB7DEB712
:103C10007C010E94661D8C01C70169837A830E9422
:103C2000F21D69817A81C8010F900F90DF91CF91C9
:103C30001F910F91FF90EF9008951F93CF93DF9303
:103C4000EC01162F0E940F1D60E0812F0E94E314EB
:103C5000CE01DF91CF911F910C943D1D10927706FC
:103C600008951F93CF93DF931F92CDB7DEB7162F22
:103C700061E0812F49830E94AC124981413011F4E7
:103C800061E003C0411108C060E0812F0F90DF9117
:103C9000CF911F910C94C5120F90DF91CF911F917E
:103CA000089561E087E10E94AC1261E084E20E9425
:103CB000AC1261E085E20E94AC1261E087E10E94F3
:103CC000C51261E084E20E94C51261E085E20C94B5
:103CD000C512CB010C946F298F929F92AF92BF9225
:103CE000CF92DF92EF92FF920F931F93CF93DF93C8
:103CF000CDB7DEB7C75FD1090FB6F894DEBF0FBEF0
:103D0000CDBF8E0100511F4F580128E0A20EB11CFB
:103D10007E0181E8E80EF11CCC24C394D12CCC0E9A
:103D2000DD1E6DE0CE018F519F4F0E94F62340E0D3
:103D30006CE08CE796E00E94311E40E06DE08CE77D
:103D400096E00E94311EF8011082118212821382C5
:103D500061E08CE00E94AC1261E08CE00E94C51230
:103D6000CE018F519F4F0E94D62241E06DE08CE73B
:103D700096E00E94311E6AE070E080E090E00E94D0
:103D8000CB1140E063E3CE018F519F4F0E94A723E8
:103D900062E370E080E090E00E94CB114701CE0129
:103DA0008F519F4F0E947C23F2E08F1A9108F401FB
:103DB0008083118261E070E080E090E00E94CB118E
:103DC0008C149D0461F7FE017196D701C6018059DC
:103DD0009F4F219131912D933D93E817F907C9F732
:103DE00031EE832E912C8C0E9D1E81E090E0A0E0A0
:103DF000B0E0F401329122914F012130310569F494
:103E0000F8014081518162817381480F591F6A1FF7
:103E10007B1F4083518362837383880F991FAA1F7E
:103E2000BB1F8E149F0429F7F80180819181A28124
:103E3000B3818F3F9F4FAF4FBF4F29F4F8011082DE
:103E400011821282138260E08CE00E94C51240E071
:103E50006CE08CE796E00E94311E40E06DE08CE75C
:103E600096E00E94311E0C5F1F4F0A151B0509F0DA
:103E700058CFC051DF4F088119812A813B81C05F33
:103E8000D040CC50DF4F88819981AA81BB81C45F2B
:103E9000D040081719072A073B0719F000E010E087
:103EA0009801B801C901C950DF4F0FB6F894DEBFC1
:103EB0000FBECDBFDF91CF911F910F91FF90EF907B
:103EC000DF90CF90BF90AF909F908F900895CF924A
:103ED000DF92EF92FF920E946C1E6B017C016115D4
:103EE00071058105910591F483EE90E00E94772998
:103EF0006A302AE072078207920741F06F3F2FEF86
:103F000072078207920711F06B017C01B601C701AD
:103F1000FF90EF90DF90CF9008958FED90E00E949A
:103F20006F298F3F09F480E00895CF93DF93EC0170
:103F300080E2EBEAF6E0DF01982F1D929A95E9F70F
:103F40001092AA061092A906E8E8F6E0DF011D9299
:103F50008A95E9F710928706109286060E94270E2E
:103F600081E08E8384E090E0DF91CF910C94F51195
:103F700081E0809385066093A806109287061092D0
:103F8000860608950C94B81F8091A9069091AA0600
:103F9000891B08959091AA068091A906981748F464
:103FA000E92FF0E0E555F94F80819F5F9093AA06D5
:103FB000089580E00895CF93DF93EC010E94730E83
:103FC0001E82DF91CF9108954091A2085091A308DD
:103FD0006091A4087091A5084170FC014083409154
:103FE000A2085091A3086091A4087091A508769545
:103FF000679557954795417041838091A2089091AC
:10400000A308A091A408B091A50884FD49C080919F
:10401000A2089091A308A091A408B091A50885FDDD
:104020003FC08091A2089091A308A091A408B091EC
:10403000A50886FD35C08091A2089091A308A091A3
:10404000A408B091A50887FD2BC08091A20890918B
:10405000A308A091A408B091A50890FD21C080916B
:10406000A2089091A308A091A408B091A50891FD81
:1040700017C08091A2089091A308A091A408B091C4
:10408000A50893FD0DC0089540E060E084EE96E041
:104090000E94142440E061E084EE96E00C94142425
:1040A00080918406882381F30895CF93DF93EC01F8
:1040B0008091A2089091A308A091A408B091A508AE
:1040C00084FD58C08091A2089091A308A091A408F3
:1040D000B091A50885FD4EC08091A2089091A308DB
:1040E000A091A408B091A50886FD44C08091A208C3
:1040F0009091A308A091A408B091A50887FD3AC0AB
:104100008091A2089091A308A091A408B091A5085D
:1041100090FD30C04091A2085091A3086091A4087E
:104120007091A50851FD26C04091A2085091A308A6
:104130006091A4087091A50853FD1CC020C041E007
:1041400060E084EE96E00E9414240CC08981811105
:1041500006C041E060E084EE96E00E94142488816D
:1041600081110DC041E061E084EE96E0DF91CF91D6
:104170000C941424809184068111E8CFE0CFDF9164
:10418000CF910895CF93DF931F92CDB7DEB76983A8
:1041900080918506882389F0809186068032D0F44C
:1041A00080918706E82FF0E0E857F94F60838F5F32
:1041B00080938706809386060DC08DE796E00E9467
:1041C000E41F61E0CE0101960E94540E8DE796E057
:1041D0000E9455200F90DF91CF9108950C94C2203A
:1041E000CF938DE796E00E94E41F21E04091860680
:1041F00068E876E08091A8060E94170FC82F1092F9
:10420000870610928606109285068DE796E00E943A
:1042100055208C2FCF910895CF93DF93D62FC42FA5
:104220008DE796E00E94E41FC13208F0C0E24C2FF7
:104230006BEA76E08D2F0E947C0FD82F1092AA0691
:10424000C093A9068DE796E00E9455208D2FDF913F
:10425000CF9108950C940C211092840610927D0643
:1042600010927E068AEF90E0A0E0B0E080937F0697
:1042700090938006A0938106B093820608951F92C2
:104280000F920FB60F9211240BB60F922F933F93FC
:104290004F935F936F937F938F939F93AF93BF934E
:1042A000EF93FF938091CB069091CC06892B29F058
:1042B000E091CB06F091CC060995FF91EF91BF916B
:1042C000AF919F918F917F916F915F914F913F91AE
:1042D0002F910F900BBE0F900FBE0F901F9018954F
:1042E0001F920F920FB60F9211240BB60F922F93BD
:1042F0003F934F935F936F937F938F939F93AF936E
:10430000BF93EF93FF938091CD069091CE06892BBA
:1043100029F0E091CD06F091CE060995FF91EF913D
:10432000BF91AF919F918F917F916F915F914F91CD
:104330003F912F910F900BBE0F900FBE0F901F90CB
:1043400018951F920F920FB60F9211240BB60F9271
:104350002F933F934F935F936F937F938F939F938D
:10436000AF93BF93EF93FF938091CF069091D006C8
:10437000892B29F0E091CF06F091D0060995FF91A5
:10438000EF91BF91AF919F918F917F916F915F91CD
:104390004F913F912F910F900BBE0F900FBE0F903A
:1043A0001F9018951F920F920FB60F9211240BB603
:1043B0000F922F933F934F935F936F937F938F93BE
:1043C0009F93AF93BF93EF93FF938091D10690910A
:1043D000D206892B29F0E091D106F091D2060995F9
:1043E000FF91EF91BF91AF919F918F917F916F91CD
:1043F0005F914F913F912F910F900BBE0F900FBE89
:104400000F901F9018951F920F920FB60F921124C4
:104410000BB60F922F933F934F935F936F937F93BE
:104420008F939F93AF93BF93EF93FF938091D306A6
:104430009091D406892B29F0E091D306F091D4060F
:104440000995FF91EF91BF91AF919F918F917F91CE
:104450006F915F914F913F912F910F900BBE0F90F5
:104460000FBE0F901F9018951F920F920FB60F92CC
:1044700011240BB60F922F933F934F935F936F933B
:104480007F938F939F93AF93BF93EF93FF9380910D
:10449000D5069091D606892B29F0E091D506F091AA
:1044A000D6060995FF91EF91BF91AF919F918F91A2
:1044B0007F916F915F914F913F912F910F900BBE24
:1044C0000F900FBE0F901F9018951F920F920FB66E
:1044D0000F9211240BB60F922F933F934F935F933C
:1044E0006F937F938F939F93AF93BF93EF93FF93BC
:1044F0008091D7069091D806892B29F0E091D706B4
:10450000F091D8060995FF91EF91BF91AF919F91DE
:104510008F917F916F915F914F913F912F910F906C
:104520000BBE0F900FBE0F901F9018951F920F9209
:104530000FB60F9211240BB60F922F933F934F9308
:104540005F936F937F938F939F93AF93BF93EF93FB
:10455000FF938091D9069091DA06892B29F0E0919A
:10456000D906F091DA060995FF91EF91BF91AF91CD
:104570009F918F917F916F915F914F913F912F917B
:104580000F900BBE0F900FBE0F901F9018951092BA
:10459000E00682E08093DC068CE18093E10680EC0B
:1045A00091E09093E3068093E2060895CF92DF9224
:1045B000EF92FF921F93CF93DF93EC0160E08E8523
:1045C0000E94AC120E9479116B017C011EE7115010
:1045D00089F182E090E00E94F5110E9479116C153A
:1045E0007D058E059F0520F40E9479116B017C01E9
:1045F0008E850E940B13892BF9F40E9479116C1996
:104600007D098E099F09643F714081059105F8F28B
:1046100013C00E9479116B017C011130C1F10E941D
:1046200079116C197D098E099F09643F71408105DC
:104630009105D0F010E02BC061E08E850E94AC1295
:1046400060E08E850E94C51284E591E00E94F5111C
:104650000E9479116B017C018E850E940B1311E081
:10466000892BD9F210E0D9CF8E850E940B1311E06F
:10467000892B09F010E089E090E00E94F5110E947A
:1046800079116C157D058E059F0538F6C2CF812FF7
:10469000DF91CF911F91FF90EF90DF90CF90089521
:1046A0001F93CF93DF93FC011081C181D281912FA1
:1046B0009095F8948A8189238A838981812B8983C3
:1046C00060FF0BC089E090E00E94F5118A81812B88
:1046D0008A8378948FE290E00AC087E390E00E949A
:1046E000F5118A81812B8A83789485E090E0DF91AF
:1046F000CF911F910C94F5110F931F93CF93DF93DC
:10470000FC011081C181D281F8948981812B898338
:104710008A81012F009580238A8382E090E00E94A5
:10472000F51189818023898387E090E00E94F5114B
:10473000C88178948DE290E00E94F5111C2381E0FD
:1047400009F480E0DF91CF911F910F910895CF92EE
:10475000DF92EF92FF920F931F93CF93DF931F92FD
:10476000CDB7DEB76C01E62E08E010E0FF24F3942D
:104770009F2D9E2161E009F460E0C60149830E94FB
:104780005023FF0C0150110949810115110581F7D2
:10479000411115C0F894D6011196ED91FC91129734
:1047A00091818C918095892381831196ED91FC9163
:1047B000129792818C9180958923828378940F90AF
:1047C000DF91CF911F910F91FF90EF90DF90CF90ED
:1047D0000895FC01138615861486128611861086AC
:1047E000178216821582148213820895CF93DF9365
:1047F000EC01862F6E8760E00E94AC128E8590E0FF
:10480000FC01E857F84FE491E883FC01E554F84FC8
:10481000E491F0E0E251F84FE491E9831A82CE018D
:10482000DF91CF910C94E9231F93CF93DF931F92D5
:10483000CDB7DEB7162F61E08AE149830E94AC1242
:1048400061E088E10E94AC124981112321F011300E
:1048500009F048C020C041110EC061E08AE10E9409
:10486000C5128091A2089091A308A091A408B091CC
:10487000A50882602FC04130A9F560E08AE10E945E
:10488000C5128091A2089091A308A091A408B091AC
:10489000A5088D7F1FC041110EC061E088E10E9414
:1048A000C5128091A2089091A308A091A408B0918C
:1048B000A50881600FC04130A9F460E088E10E9442
:1048C000C5128091A2089091A308A091A408B0916C
:1048D000A5088E7F8093A2089093A308A093A408B4
:1048E000B093A5080F90DF91CF911F91089561E0DB
:1048F00089E20E94AC1261E088E20E94AC128DE76E
:1049000096E00C94DB1FFC01128A118E138EDC01E1
:10491000A356BE4F89E111968C93119714961C9261
:10492000DF01AE55BE4F1C9212961C92E956FE4F07
:1049300011821082089586EE96E00C94832498D01C
:1049400088F09F5790F0B92F9927B751A0F0D1F078
:10495000660F771F881F991F1AF0BA95C9F712C002
:10496000B13081F09FD0B1E008959CC0672F782FBF
:104970008827B85F39F0B93FCCF38695779567956E
:10498000B395D9F73EF490958095709561957F4FDA
:104990008F4F9F4F0895E89409C097FB3EF4909580
:1049A0008095709561957F4F8F4F9F4F9923A9F008
:1049B000F92F96E9BB279395F69587957795679597
:1049C000B795F111F8CFFAF4BB0F11F460FF1BC0DB
:1049D0006F5F7F4F8F4F9F4F16C0882311F096E96E
:1049E00011C0772321F09EE8872F762F05C066231C
:1049F00071F096E8862F70E060E02AF09A95660FD5
:104A0000771F881FDAF7880F9695879597F908958D
:104A100097F99F6780E870E060E008959FEF80EC71
:104A2000089500240A941616170618060906089514
:104A300000240A9412161306140605060895092E7A
:104A40000394000C11F4882352F0BB0F40F4BF2BE9
:104A500011F460FF04C06F5F7F4F8F4F9F4F089529
:104A600057FD9058440F551F59F05F3F71F047951F
:104A7000880F97FB991F61F09F3F79F08795089504
:104A8000121613061406551FF2CF4695F1DF08C023
:104A9000161617061806991FF1CF86957105610540
:104AA00008940895E894BB2766277727CB0197F9E8
:104AB00008950BD0C4CFB5DF28F0BADF18F09523E6
:104AC00009F0A6CFABCF1124EECFCADFA0F3959F9C
:104AD000D1F3950F50E0551F629FF001729FBB27E5
:104AE000F00DB11D639FAA27F00DB11DAA1F649F91
:104AF0006627B00DA11D661F829F2227B00DA11D44
:104B0000621F739FB00DA11D621F839FA00D611DC9
:104B1000221F749F3327A00D611D231F849F600DEA
:104B2000211D822F762F6A2F11249F5750408AF023
:104B3000E1F088234AF0EE0FFF1FBB1F661F771FAF
:104B4000881F91505040A9F79E3F510570F060CFEB
:104B5000AACF5F3FECF3983EDCF386957795679597
:104B6000B795F795E7959F5FC1F7FE2B880F911DCD
:104B70009695879597F90895A29FB001B39FC001BC
:104B8000A39F01D0B29F700D811D1124911D089526
:104B90000E94BC25A59F900DB49F900DA49F800DF1
:104BA000911D11240895B7FF0C94C8250E94C825B3
:104BB000821B930B0895AA1BBB1B51E107C0AA1FC0
:104BC000BB1FA617B70710F0A61BB70B881F991FAE
:104BD0005A95A9F780959095BC01CD01089597FB52
:104BE000072E16F4009407D077FD09D00E94DB252C
:104BF00007FC05D03EF4909581959F4F08957095E0
:104C000061957F4F0895A1E21A2EAA1BBB1BFD01DF
:104C10000DC0AA1FBB1FEE1FFF1FA217B307E4079B
:104C2000F50720F0A21BB30BE40BF50B661F771FF3
:104C3000881F991F1A9469F76095709580959095D3
:104C40009B01AC01BD01CF010895052E97FB16F421
:104C5000009407D057FD0DD00E94032607FC09D011
:104C60007EF490958095709561957F4F8F4F9F4F03
:104C7000089550954095309521953F4F4F4F5F4F88
:104C80000895689401C0E8948F929F92CF93DF9328
:104C90000E944F26DF91CF919F908F900895882496
:104CA0009924F401E401B0E49F93AA279A158B0498
:104CB0009C04ED05FE05CF05D007A10798F4AD2FA4
:104CC000DC2FCF2FFE2FE92D982C892E982F872FA0
:104CD000762F652F542F432F322F2227B85031F7CC
:104CE000BF9127C01B2EBF91BB27220F331F441F2C
:104CF000551F661F771F881F991F881C991CEE1F60
:104D0000FF1FCC1FDD1FAA1FBB1F8A149B04EC05CD
:104D1000FD05CE05DF05A007B10748F08A189B08FE
:104D2000EC09FD09CE09DF09A00BB10B21601A9433
:104D3000E1F62EF49401AF01BE01CD01000C0895FF
:104D40000F930F7351F0220F331F441F551F661F1F
:104D5000771F881F991F0A95B1F70F9108952A0DA3
:104D60003B1D4C1D5D1D6E1D7F1D801F911F0895F5
:104D70000790F691E02D09948F929F92AF92BF9287
:104D8000CF92DF92EF92FF92CF93DF93EC01688195
:104D900079818A819B81611571058105910521F4D5
:104DA00064E279ED8BE597E02DE133EF41E050E0EF
:104DB0000E94252649015A019B01AC01A7EAB1E4F2
:104DC0000E94C8256B017C01ACEEB4EFA5019401F3
:104DD0000E94D625C60ED71EE81EF91EF7FE06C095
:104DE00081E0C81AD108E10880E8F80AC882D982AF
:104DF000EA82FB82E894D7F8EE24FF24C601DF9113
:104E0000CF91FF90EF90DF90CF90BF90AF909F90A9
:104E10008F9008950C94BC2686E092E00C94BC26FA
:104E2000A0E0B0E08093060290930702A0930802EE
:104E3000B09309020895FB01DC0105900D9200205A
:104E4000E1F70895FB01DC010D900020E9F71197CF
:104E500001900D920020E1F708950F931F93CF93D7
:104E6000DF93CDB7DEB72E970FB6F894DEBF0FBE37
:104E7000CDBF0D891E898F89988D26E02C831A83DA
:104E8000098397FF02C080E090E801979E838D839D
:104E9000CE014B96AC01698D7A8DCE0101960E94B0
:104EA0006A274D815E8157FD0AC02F8138854217E0
:104EB00053070CF49A01F801E20FF31F10822E96AB
:104EC0000FB6F894DEBF0FBECDBFDF91CF911F911B
:104ED0000F9108952F923F924F925F926F927F921F
:104EE0008F929F92AF92BF92CF92DF92EF92FF92FA
:104EF0000F931F93CF93DF93CDB7DEB72C970FB6E9
:104F0000F894DEBF0FBECDBF7C016B018A01FC01AE
:104F100017821682838181FFC6C188248394912CD5
:104F20008C0E9D1EF7019381F60193FD859193FFF1
:104F300081916F01882309F4B2C1853239F493FD60
:104F4000859193FF81916F01853229F4B70190E03B
:104F50000E94A129E7CF512C312C20E02032A8F467
:104F60008B3261F028F4803251F0833271F40BC03F
:104F70008D3239F0803349F4216028C022602460EA
:104F800025C0286023C0206121C027FD27C0382FFD
:104F900030533A3078F426FF06C0FAE05F9E300DB9
:104FA0001124532E13C08AE0389E300D1124332E65
:104FB00020620CC08E3221F426FD71C1206406C02F
:104FC0008C3611F4206802C0883641F4F60193FD56
:104FD000859193FF81916F018111C0CF982F9554D6
:104FE000933018F09052933028F40C5F1F4FFFE37A
:104FF000F9830DC0833631F0833771F0833509F0C2
:105000005EC023C0F801808189830E5F1F4F442456
:105010004394512C540115C03801F2E06F0E711CFD
:10502000F801A080B18026FF03C0652D70E002C0AA
:105030006FEF7FEFC5012C870E9496292C01830119
:105040002C856FE7262E222218C03801F2E06F0E61
:10505000711CF801A080B18026FF03C0652D70E0AF
:1050600002C06FEF7FEFC5012C870E948B292C01B6
:105070002C8550E8252E222A830123FC1CC006C063
:10508000B70180E290E00E94A1293A94832D90E03C
:1050900048165906A8F30FC0F50127FC859127FE95
:1050A00081915F01B70190E00E94A12931103A94EB
:1050B000F1E04F1A51084114510471F7EDC08436E4
:1050C00011F0893641F5F80127FF07C06081718131
:1050D000828193810C5F1F4F08C060817181882796
:1050E00077FD8095982F0E5F1F4F4FE6B42EB222AA
:1050F00097FF09C090958095709561957F4F8F4F70
:105100009F4FF0E8BF2A2AE030E0A4010E94CD2999
:10511000A82EA81843C0853731F43FEEB32EB22233
:105120002AE030E024C099EFB92EB2228F36B9F0D0
:1051300020F4883509F0B3C00DC0803721F08837DE
:1051400009F0ADC002C020E1B22AB4FE0BC084E079
:10515000B82A08C024FF09C0E6E0BE2A06C028E03D
:1051600030E005C020E130E002C020E132E0F8018B
:10517000B7FE07C060817181828193810C5F1F4FF0
:1051800006C06081718180E090E00E5F1F4FA40136
:105190000E94CD29A82EA818FFE7BF22B6FE0BC09B
:1051A0002B2D2E7FA51450F4B4FE0AC0B2FC08C00B
:1051B0002B2D2E7E05C07A2C2B2D03C07A2C01C0FE
:1051C000752C24FF0DC0FE01EA0DF11D8081803396
:1051D00011F4297E09C022FF06C07394739404C0A1
:1051E000822F867809F0739423FD14C020FF0FC02E
:1051F0005A2C731460F4530C5718732C08C0B70161
:1052000080E290E02C870E94A12973942C8573146E
:10521000B0F304C0731410F4371801C0312C24FF0C
:1052200012C0B70180E390E02C870E94A1292C8551
:1052300022FF1EC021FF03C088E590E002C088E77E
:1052400090E0B7010CC0822F867891F021FD02C05A
:1052500080E201C08BE227FD8DE2B70190E00E9461
:10526000A12906C0B70180E390E00E94A1295A94C9
:10527000A514C0F3AA94F401EA0DF11DB7018081D1
:1052800090E00E94A129A110F5CF06C0B70180E2ED
:1052900090E00E94A1293A943110F8CF43CEF70153
:1052A0002681378102C02FEF3FEFC9012C960FB640
:1052B000F894DEBF0FBECDBFDF91CF911F910F914C
:1052C000FF90EF90DF90CF90BF90AF909F908F9026
:1052D0007F906F905F904F903F902F900895F99935
:1052E000FECF92BD81BDF89A992780B50895A6E1B9
:1052F000B0E044E050E00C942D2A262FF999FECF1F
:105300001FBA92BD81BD20BD0FB6F894FA9AF99AE2
:105310000FBE01960895FC01059061507040011088
:10532000D8F7809590958E0F9F1F0895FC016150CE
:10533000704001900110D8F7809590958E0F9F1FB7
:1053400008950F931F93CF93DF938C01EB018B8113
:1053500081FD03C00FEF1FEF1AC082FF0DC02E8129
:105360003F818C819D812817390764F4E881F98198
:105370000193F983E88306C0E885F985802F0995B4
:10538000892B41F78E819F8101969F838E83C8016F
:10539000DF91CF911F910F910895FA01AA2728302C
:1053A00051F1203181F1E8946F936E7F6E5F7F4FF2
:1053B0008F4F9F4FAF4FB1E03ED0B4E03CD0670F6E
:1053C000781F891F9A1FA11D680F791F8A1F911DC1
:1053D000A11D6A0F711D811D911DA11D20D009F411
:1053E00068943F912AE0269F11243019305D319353
:1053F000DEF6CF010895462F4770405D4193B3E03C
:105400000FD0C9F7F6CF462F4F70405D4A3318F0E2
:10541000495D31FD4052419302D0A9F7EACFB4E093
:10542000A6959795879577956795BA95C9F700974B
:105430006105710508959B01AC010A2E06945795EC
:10544000479537952795BA95C9F7620F731F841F43
:10545000951FA01D0895DC01CB01FC01F999FECF39
:1054600006C0F2BDE1BDF89A319600B40D924150EC
:0A5470005040B8F70895F894FFCFFC
:10547A000000BC0C2000010000000153756E004DB5
:10548A006F6E005475650057656400546875004670
:10549A0072690053617400496E76616C69642047D1
:1054AA004D542076616C7565003A3A3A3A3A3A00B8
:00000001FF
