:100000000C94F2020C944B230C947C230C94AD239F
:100010000C94DE230C940F240C9440240C94712433
:100020000C94A2240C9421030C9421030C9421031E
:100030000C943A130C9421030C9421030C94961302
:100040000C9421030C9421030C9421030C942103A0
:100050000C9421030C9421030C9421030C94711330
:100060000C9421030C9417160C9421030C94210377
:100070000C9421030C9421030C9421030C94210370
:100080000C9421030C9421030C9421030C94210360
:100090000C9452160C9421030C9421030C940A1214
:1000A0000C9421030C9421030C9421030C94210340
:1000B0000C9421030C9421030C9421030C94210330
:1000C0000C9421030C9421030C9421030763423602
:1000D000B79BD8A71A39685618AEBAAB558C1D3CD9
:1000E000B7CC5763BD6DEDFD753EF6177231BF009D
:1000F0000000803F08000000BE922449123EABAAD7
:10010000AA2ABECDCCCC4C3E00000080BEABAAAA31
:10011000AA3E00000000BF000000803F0000000079
:1001200000084178D3BB4387D1133D190E3CC3BDB2
:100130004282AD2B3E68EC8276BED98FE1A93E4C5F
:1001400080EFFFBE01C4FF7F3F0000000000535856
:100150005F303361206578616D706C650053656D4B
:100160007465636820535831323732206D6F64757F
:100170006C6520545820696E204C6F52612077695D
:1001800074682041434B73002D2D2D2D2D2D2D2DC9
:100190002D2D2D2D2D2D2D2D2D2D2D2D2D2D2D2D8F
:1001A0002D2D2D2D2D2D2D2D2D2D2D2D2D2D2D2D7F
:1001B0000053657474696E6720636F6E6669677556
:1001C000726174696F6E3A002D2D2D2D2D2D2D2D00
:1001D0002D2D2D2D2D2D2D2D2D2D2D2D2D2D2D2D4F
:1001E0002D2D2D2D2D2D2D2D2D2D2D2D2D2D2D2D3F
:1001F0000053657474696E67204368616E6E656C48
:100200002043485F31345F3836382E0920737461DB
:100210007465200053657474696E67204865616475
:100220006572204F4E2E0909207374617465200099
:1002300053657474696E67204D6F64652027313093
:10024000272E090920737461746520005365747446
:10025000696E6720435243204F4E2E0909092073CF
:1002600074617465200053657474696E6720506F03
:1002700077657220746F202748272E090920737430
:10028000617465200053657474696E67204E6F64F5
:1002900065204164647265737320746F202737276B
:1002A0002E0920737461746520002D2D2D2D2D2DA8
:1002B0002D2D2D2D2D2D2D2D2D2D2D2D2D2D2D2D6E
:1002C0002D2D2D2D2D2D2D2D2D2D2D2D2D2D2D2D5E
:1002D0002D2D0053656E64696E673A002D2D2D2D0E
:1002E0002D2D2D2D2D2D2D2D2D2D2D2D2D2D2D2D3E
:1002F0002D2D2D2D2D2D2D2D2D2D2D2D2D2D2D2D2E
:100300002D2D2D2D005061636B65742073656E7407
:10031000204F4B004572726F722073656E64696E78
:100320006720746865207061636B65742E00737458
:100330006174653A20005E0372039803BF03DF0314
:10034000F703050415042A04400451045D04640401
:1003500081049F04B504C304D304F604FC04416C77
:1003600061726D204D6F6465206D617463686573A3
:1003700020005B446179203A20686F757273203ADF
:10038000206D696E75746573203A207365636F6EB6
:1003900064735D202D3E20005B44617465203A202B
:1003A000686F757273203A206D696E75746573207D
:1003B0003A207365636F6E64735D202D3E20005B91
:1003C000486F757273203A206D696E75746573207D
:1003D0003A207365636F6E64735D202D3E20005B71
:1003E0004D696E75746573203A207365636F6E6432
:1003F000735D202D3E20005B5365636F6E64735DFB
:10040000202D3E20004F6E6365207065722073655D
:10041000636F6E6400496E636F727265637420610E
:100420006C61726D206D6F6465005B253032753ACA
:10043000253032753A253032753A253032755D00F7
:100440005B253032753A253032753A253032755D8C
:10045000005B253032753A253032755D005B253002
:1004600032755D005B446179203A20686F75727364
:10047000203A206D696E75746573205D202D3E20D5
:10048000005B44617465203A20686F757273203A8E
:10049000206D696E75746573205D202D3E20005BB4
:1004A000486F757273203A206D696E757465735D5F
:1004B000202D3E20005B4D696E757465735D202DA7
:1004C0003E20004F6E636520706572206D696E7509
:1004D00074650025732C20253032752F2530327538
:1004E0002F253032752C20253032753A2530327563
:1004F0003A25303275006572726F720025303275A0
:100500002563253032752563253032752563253006
:1005100032752563253032752563253032752563A4
:1005200025303275000000080900000000000000BE
:1005300000000000000000000000000000000000BB
:1005400000000000000000000000000000000000AB
:100550000000000000000000010208101020408090
:10056000040810204002020408102040800102808C
:100570002040042001010204081020014080408036
:1005800001020804088004100402010505050503A2
:10059000030303010101040403060606060606061A
:1005A0000601040501050103020202020202010222
:1005B00002050504040304040103040707070020DF
:1005C0002326292C2F32002225282B2E31340021DE
:1005D00024272A2D30336510311DFF1E3A20382381
:1005E000D324A72611241FBECFEFD1E2DEBFCDBF9B
:1005F00012E0A0E0B2E0E0EDFDE500E00BBF02C0DC
:1006000007900D92AA35B107D9F71CE0AAE5B2E030
:1006100001C01D92A63DB107E1F715E0C4EED5E09B
:1006200000E006C022970109FE010BBF0E94632B68
:10063000C63DD10780E00807A9F70E9449170C942E
:10064000E62E0C94000081E996E00E940C1F6EE4F7
:1006500071E081E996E00E941C206DE571E081E97E
:1006600096E00E941C2068E871E081E996E00E9413
:100670001C2061EB71E081E996E00E941C2068EC8F
:1006800071E081E996E00E941C208BE592E00E94D7
:10069000420B49E959E968ED70E08BE592E00E9470
:1006A000F40980935A0261EF71E081E996E00E94BB
:1006B000831F60915A02772767FD709581E996E064
:1006C0000E94E81F8BE592E00E94E50480935A02A5
:1006D00064E172E081E996E00E94831F60915A0212
:1006E000772767FD709581E996E00E94E81F6AE030
:1006F0008BE592E00E94B90780935A0260E372E0B2
:1007000081E996E00E94831F60915A02772767FD76
:10071000709581E996E00E94E81F8BE592E00E94C7
:100720002D0580935A026CE472E081E996E00E9404
:10073000831F60915A02772767FD709581E996E0E3
:100740000E94E81F68E48BE592E00E946D0A8093A6
:100750005A0266E672E081E996E00E94831F60918A
:100760005A02772767FD709581E996E00E94E81F9D
:1007700067E08BE592E00E94E60A80935A0265E802
:1007800072E081E996E00E94831F60915A02772708
:1007900067FD709581E996E00E94E81F81E996E087
:1007A0000E940F2068EE73E080E090E00E940D143C
:1007B0006AEA72E081E996E00E941C2063ED72E033
:1007C00081E996E00E941C206CED72E081E996E0E0
:1007D0000C941C204CE052E060910A028BE592E000
:1007E0000E944B1080935A02811107C065E073E0AC
:1007F00081E996E00E941C2019C064E173E081E960
:1008000096E00E94831F6EE273E081E996E00E9409
:10081000831F40915A02552747FD5095652F752F2C
:100820002AE030E081E996E00E94AB1F68EE73E0B9
:1008300080E090E00C940D14FC01118281E0828331
:1008400087E0838340E050EC64EE70E0448355839E
:1008500066837783128A148A138E8FE08087168AC4
:10086000178A108E83E0818FE55EFE4F10828091A3
:10087000BC089091BD08A091BE08B091BF08A260CD
:100880008093BC089093BD08A093BE08B093BF08A6
:100890000895CF93C62F66E08BE896E00E94721D04
:1008A00061E08BE896E00E94721D61E070E080E0FC
:1008B00090E00E940D148C2F8F770E94EE1E80E036
:1008C000CF910C94EE1E1F93CF93DF931F92CDB761
:1008D000DEB7162F66E08BE896E049830E94721D12
:1008E00061E08BE896E00E94721D61E070E080E0BC
:1008F00090E00E940D14812F80680E94EE1E4981B5
:10090000842F0E94EE1E66E08BE896E00F90DF9148
:10091000CF911F910C94721D1F93CF93DF93EC0125
:1009200061E00E944904182F8B8D813041F441E829
:1009300061E0CE010E9463044FEF62E10CC041E030
:1009400061E0CE010E9463044FEF6EE3CE010E948E
:1009500063044FEF6FE3CE010E946304412F61E017
:10096000CE01DF91CF911F910C946304CF93DF935D
:10097000EC0140E061E00E94630440E861E0CE01E8
:100980000E94630441E861E0CE010E9463044FEFDE
:1009900063E2CE010E94630448E06DE1CE010E9453
:1009A000630444E76EE1CE010E94630461E0CE017E
:1009B0000E944904813821F481E08B8F80E002C0DD
:1009C0001B8E81E0DF91CF910895CF93DF93EC01EF
:1009D0008B8D8823E1F06DE1CE010E9449049B815B
:1009E000963041F0482F4B7F6DE1CE010E946304A9
:1009F00082E001C08FEF9B81963061F06DE1CE0106
:100A00000E94490482FD05C01A8A80E003C08FEF6E
:100A100001C081E0DF91CF910895CF93DF93EC0186
:100A20008B8D8823A1F06DE1CE010E944904482FEF
:100A300044606DE1CE010E9463046DE1CE010E942D
:100A4000490482FF06C081E08A8B80E003C08FEFFB
:100A500001C081E0DF91CF9108951F93CF93DF9381
:100A6000EC011B8D113089F46DE10E944904482F7F
:100A700042606DE1CE010E9463046DE1CE010E94EF
:100A8000490481FF14C01C8B14C060E30E94490418
:100A9000482F406160E3CE010E94630460E3CE0111
:100AA0000E94490484FF03C081E08C8B02C081E076
:100AB00001C080E0DF91CF911F910895CF93DF9324
:100AC000EC018B8D882391F06EE1CE010E944904E8
:100AD000282F30E044E0359527954A95E1F72B83A0
:100AE000265081E0273018F480E001C08FEFDF91BD
:100AF000CF910895CF93DF93EC018B8D882389F0FC
:100B00006DE1CE010E944904282F30E056E0359572
:100B100027955A95E1F7298381E0233019F080E089
:100B200001C08FEFDF91CF910895EF92FF920F9365
:100B30001F93CF93DF93EC01062F61E00E944904DD
:100B4000E82E8B8D811105C0CE010E94B604182FAE
:100B5000D3C041E861E0CE010E9463046DE1CE01A3
:100B60000E944904F82E6EE1CE010E944904182F1C
:100B70000930B1F030F4073069F078F4063009F547
:100B800006C00B3099F078F00C30D9F415C01F7600
:100B9000106619C01F77106720C01F7810681DC02D
:100BA0001F7910691AC01F7A106A17C01F7B106B5B
:100BB000CE010E947A0502C01F7C106C81E0F82AE9
:100BC0000CC0063051F4CE010E940D0545E061E3F2
:100BD000CE010E9463044CE006C043E061E3CE0115
:100BE0000E9463044AE067E3CE010E9463044F2D34
:100BF0006DE1CE010E946304412F47606EE1CE019A
:100C00000E9463046DE1CE010E944904182F6EE139
:100C1000CE010E9449040930C1F138F40730F9F0DF
:100C200048F5063009F065C008C00B3009F445C02E
:100C3000B8F10C3009F05DC04CC0282F30E014E052
:100C4000359527951A95E1F72630310511F012E018
:100C500053C082FFFCCF8A898130C9F74CC0282F4E
:100C600030E0B4E035952795BA95E1F727303105A6
:100C700071F720C0282F30E0A4E035952795AA957C
:100C8000E1F72830310519F715C0282F30E0F4E0DE
:100C900035952795FA95E1F729303105C1F60AC057
:100CA000282F30E0E4E035952795EA95E1F72A30E2
:100CB000310569F682FD1FC0CACF282F30E074E0ED
:100CC000359527957A95E1F72B30310509F0BFCF9F
:100CD0000BC0282F30E064E0359527956A95E1F741
:100CE0002C30310509F0B3CF82FFB1CF10FFAFCF69
:100CF00002C011E001C010E04E2D61E0CE010E9463
:100D00006304802F8650873010F40B8310E0812F0E
:100D1000DF91CF911F910F91FF90EF900895CF92A7
:100D2000DF92EF92FF920F931F93CF93DF931F9267
:100D3000CDB7DEB76C018B0161E00E944904E82E5B
:100D4000F601838D811105C0C6010E94B604F82EFC
:100D500002C032E0F32E41E861E0C6010E94630464
:100D60006DE1C6010E944904482F01301105A1F030
:100D700020F002301105A9F412C04F73C601498357
:100D80000E945E05F601938149819B3009F402C0FF
:100D90009C3039F4416005C04F77406402C04F7BFE
:100DA00040686DE1C6010E9463046DE1C6010E94C6
:100DB000490401301105F1F020F00230110581F5F0
:100DC00024C0682F70E026E0759567952A95E1F7B5
:100DD000672B69F5F60193819B3029F4F82EF09486
:100DE000F1E0FF2224C09C3009F5F82EF09481E058
:100DF000F8221DC0282F30E096E0359527959A956A
:100E0000E1F72130310599F411C0282F30E086E058
:100E1000359527958A95E1F72230310541F406C0D2
:100E20000330110520F0FF24F39403C0F12CF601E8
:100E300001834E2D61E0C6010E9463048F2D0F9047
:100E4000DF91CF911F910F91FF90EF90DF90CF90A6
:100E50000895FF920F931F93CF93DF93EC01162F0A
:100E600061E00E944904F82E8B8D811105C0CE01EE
:100E70000E94B604082F6AC041E861E0CE010E94DA
:100E800063046DE1CE010E944904123061F018F450
:100E9000113089F405C0133049F0143061F409C0F1
:100EA0008F7C886008C0877D806105C08F7D8861E8
:100EB00002C0877E8062482F6DE1CE010E946304EC
:100EC0006DE1CE010E9449041230B1F018F41130E6
:100ED000D1F505C01330E9F01430A9F527C0282F4B
:100EE00030E0E3E035952795EA95E1F72770332761
:100EF0002130310551F127C0282F30E073E03595BE
:100F000027957A95E1F72770332722303105D9F4F8
:100F10001CC0282F30E063E0359527956A95E1F7EE
:100F2000277033272330310571F40FC0282F30E0AC
:100F300053E0359527955A95E1F7277033272430EC
:100F4000310509F402C002E001C000E0812F8150A8
:100F5000843010F001E001C01A834F2D61E0CE0112
:100F60000E946304802FDF91CF911F910F91FF901A
:100F700008950F931F93CF93DF93EC01062F61E049
:100F80000E944904182F8B8D811103C0CE010E944D
:100F9000B60441E861E0CE010E9463040530D9F156
:100FA00068F4023009F120F4013009F049C116C09B
:100FB000033001F1043009F043C127C0083009F4BF
:100FC00041C030F4063069F1073009F039C12FC053
:100FD0000930F1F10A3009F033C140C061E0CE01BF
:100FE0000E9429076CE00BC061E0CE010E94290736
:100FF0006CE022C061E0CE010E9429076AE0CE01C8
:101000000E94950560E070E033C061E0CE010E946F
:1010100029076CE028C061E0CE010E9429076AE040
:101020000BC061E0CE010E9429076BE01CC061E0AB
:10103000CE010E94290769E0CE010E94950561E07A
:1010400070E016C061E0CE010E94290769E00BC084
:1010500061E0CE010E94290768E005C061E0CE0191
:101060000E94290767E0CE010E94950562E070E0CA
:10107000CE010E948F06E8C0282F30E043E035956E
:1010800027954A95E1F72130310509F0DBC06EE183
:10109000CE010E94490490E024E0959587952A9519
:1010A000E1F701E00C9709F0F4C0C8C0282F30E048
:1010B00003E0359527950A95E1F72930310509F0C8
:1010C000C1C017C0282F30E0B3E035952795BA95F9
:1010D000E1F72130310509F0B5C027C0282F30E0F5
:1010E000A3E035952795AA95E1F72131310509F05F
:1010F000A9C06EE1CE010E944904282F30E0F4E03F
:1011000035952795FA95E1F701E02C30310509F086
:10111000C0C094C0282F30E0E3E035952795EA95CC
:10112000E1F72930310509F08DC06EE1CE010E9452
:101130004904282F30E074E0359527957A95E1F73A
:1011400001E02A30310509F0A4C078C0282F30E032
:1011500063E0359527956A95E1F72131310509F06E
:1011600071C06EE1CE010E944904282F30E054E0A6
:10117000359527955A95E1F701E02B30310509F0B7
:1011800088C05CC0282F30E043E0359527954A950C
:10119000E1F72930310509F055C00BC0282F30E0A8
:1011A00093E0359527959A95E1F72131310509F0BE
:1011B00049C06EE1CE010E944904282F30E084E04E
:1011C000359527958A95E1F701E02930310509F039
:1011D00060C034C0282F30E003E0359527950A958C
:1011E000E1F72131310571F56EE1CE010E9449042C
:1011F000282F30E0B4E035952795BA95E1F701E066
:101200002830310509F045C019C0282F30E0A3E08F
:1012100035952795AA95E1F72131310599F46EE1CD
:10122000CE010E944904282F30E0F4E0359527953F
:10123000FA95E1F701E02730310559F500E029C0C2
:101240000FEF27C001E025C06DE1CE010E944904E7
:10125000053009F45FCF68F4023009F427CF18F4A1
:10126000013081F709CF033009F42CCF043051F756
:1012700035CF083009F492CF30F4063009F466CF48
:10128000073001F77FCF093009F4A4CF0A30D1F637
:10129000BCCF412F61E0CE010E946304802FDF911B
:1012A000CF911F910F910895493989ED580782EE2A
:1012B0006807710509F494C008F04EC0493989E9FE
:1012C000580788ED6807710509F48AC0F8F44115DC
:1012D00080E6580788ED6807710509F481C038F485
:1012E0004C3C5C44684D710509F07CC079C04333C7
:1012F00083E7580788ED6807710509F471C0463621
:101300005648684D710509F06DC06AC04115510518
:1013100089ED6807710509F463C078F44C3C8CEAE8
:10132000580788ED6807710509F45AC04115504CFB
:10133000684D710509F056C053C04E3185EC580711
:1013400081EE6807710509F44BC04C355F44624E6D
:10135000710509F047C044C04F3882E0580785EE58
:1013600068077105E9F1D8F444318EEE580783EE31
:1013700068077105A9F130F4473D5346634E710586
:1013800089F52EC0413588E7580784EE6807710556
:1013900039F14115504C644E710521F521C0473497
:1013A00081EA580786EE68077105D1F068F44C3C75
:1013B0008CE8580785EE6807710591F04A3057416F
:1013C000664E710579F40CC045388BE2580787EEFC
:1013D0006807710529F0423C554B674E710511F4C1
:1013E00081E0089580E008957F928F929F92AF925E
:1013F000BF92CF92DF92EF92FF920F931F93CF9302
:10140000DF93EC016A017B0161E00E944904782EC0
:101410008B8D813011F441E801C041E061E0CE01E3
:101420000E9463044E2D66E0CE010E9463044D2DA0
:1014300067E0CE010E9463044C2D68E0CE010E945B
:10144000630466E0CE010E944904082F67E0CE01E4
:101450000E944904182F902E812CA12CB12CBA2C5B
:10146000A92C982C882468E0CE010E944904712F91
:1014700060E0082F10E020E030E0060F171F211D6C
:10148000311D080D191D2A1D3B1D0C151D052E05AE
:101490003F0531F4CC82DD82EE82FF8210E001C094
:1014A00011E0B701A601CE010E945409811101C0CB
:1014B0001FEF472D61E0CE010E946304812FDF9171
:1014C000CF911F910F91FF90EF90DF90CF90BF9041
:1014D000AF909F908F907F9008950F931F93CF931D
:1014E000DF93EC01162F61E00E944904082F8B8DD9
:1014F000813011F441E801C041E061E0CE010E9479
:1015000063041C3439F01D3419F0183439F404C064
:101510008FE003C0188602C087E08887488569E0AD
:10152000CE010E94630469E0CE010E94490411E0EB
:101530009885891301C010E0402F61E0CE010E9420
:101540006304812FDF91CF911F910F9108950F9325
:101550001F93CF93DF93EC01162F61E00E944904A3
:10156000082F1F8F8B8D813061F441E861E0CE013F
:101570000E9463044F8D62E2CE010E94630462E226
:101580000BC041E061E0CE010E9463044F8D62E335
:10159000CE010E94630462E3CE010E94490411E07F
:1015A0009F8D981301C010E0402F61E0CE010E9492
:1015B0006304812FDF91CF911F910F910895FC015A
:1015C000678570896B5F7F4F0C94A70A0F931F93F9
:1015D000CF93DF93EC01162F698B61E00E944904E1
:1015E000082F9B8D9130F9F091111DC041E061E011
:1015F000CE010E946304412F63E3CE010E94630485
:1016000040E064E3CE010E94630463E3CE010E94E4
:101610004904182F402F61E0CE010E94630481E04D
:101620009989191301C080E0DF91CF911F910F912B
:1016300008950F931F93CF93DF93EC016C31E0F487
:10164000062F006261E00E944904182F8B8D8130C3
:1016500011F441E801C041E061E0CE010E94630461
:10166000402F6BE0CE010E946304412F61E0CE0168
:101670000E94630480E001C08FEFDF91CF911F9142
:101680000F910895CF93DF93EC0161E086E10E9412
:10169000EE1461E086E10E94071581E080938B06DD
:1016A0000E94361D81E00E94591D84E00E94671D42
:1016B00080E00E94621D6BE1CE010E94190B811136
:1016C00005C0CE01DF91CF910C94B60481E0DF918B
:1016D000CF9108951F93CF93DF93EC01845E9E4FCB
:1016E000FC0180E091E0DF019C011D92215030401F
:1016F000E1F743E461E3CE010E94630449E06AE05C
:10170000CE010E94630443E26CE0CE010E946304B8
:1017100040E06DE0CE010E9463044FEF6FE1CE0127
:101720000E94630440E065E2CE010E9463048B8D59
:10173000813039F46FEFCE010E94A70A182F45E8D7
:1017400005C0CE010E94DF0A182F45E061E0CE01FE
:101750000E946304812FDF91CF911F9108958F9292
:101760009F92AF92BF92CF92DF92EF92FF921F9320
:10177000CF93DF93EC014A015B011B8A0E94BB13EC
:101780006B017C018B8D813061F562E1CE010E949D
:101790004904182F04C00E94BB136B017C0114FD87
:1017A0007DC00E94BB136C197D098E099F096815C5
:1017B00079058A059B0508F447C07BC00E94BB13CE
:1017C0006B017C0111116FC00E94BB136C197D0964
:1017D0008E099F09681579058A059B0508F442C0A2
:1017E00018C06FE3CE010E944904182F04C00E9464
:1017F000BB136B017C0112FD54C00E94BB136C191A
:101800007D098E099F09681579058A059B05C0F138
:1018100050C08B89813089F48D899989891791F01D
:10182000882381F08B8D813011F441E801C041E0C3
:1018300061E0CE010E94630403C08B8D8130B9F753
:1018400080E039C081E037C062E1CE010E944904E6
:10185000182F0E94BB136C157D058E059F0508F09F
:101860009ECF99CF65E2CE010E944904182F0E94B5
:10187000BB136C157D058E059F0508F0A3CF9ECF89
:101880006FE3CE010E944904182F0E94BB136C1510
:101890007D058E059F0508F0AECFA9CF81E08B8B2B
:1018A00093CF81E08B8B60E0CE010E9449048D8B49
:1018B000B0CF1B8AAECFDF91CF911F91FF90EF90F9
:1018C000DF90CF90BF90AF909F908F90089540E1B0
:1018D00057E260E070E00C94AF0BFC01658B648F05
:1018E0008189858F8689868F8F5F868B80E00895BA
:1018F0002F923F924F925F926F927F928F929F9220
:10190000AF92BF92CF92DF92EF92FF920F931F930D
:10191000CF93DF93CDB7DEB72E970FB6F894DEBF27
:101920000FBECDBF2C018B01FC01638170E080E014
:1019300090E00E94B7274B015C01F201628970E0E0
:1019400080E090E00E94B7276B837C838D839E8329
:10195000F201628170E080E090E00E94B7276F831F
:10196000788789879A8720E030E040E251E4682D4B
:10197000792D8A2D9B2D0E94A92818163CF4C12C84
:10198000D12CE0E8EE2EEFE3FE2E03C0C12CD12CCB
:1019900076010115110559F0B8016B5F7F4F80E0AA
:1019A00090E00E94B72769837A833C0106C01982C0
:1019B0001A826FE7662E73E4772EF2018181882305
:1019C00091F0813049F0823071F4212C312C5AEFA2
:1019D000452E53E4552E0DC0212C312C4AE7442EC0
:1019E00043E4542E06C0212C312C3AEF432E32E42E
:1019F000532E282D392D4A2D5B2D60E070E080E0BC
:101A000090E40E941029A20191010E9423278B01DA
:101A10008E879D8720E030E044E451E4712F0E94DE
:101A2000AD28362E272E8B879C8720E030E040E0C3
:101A300051E4B981AA816B2F7A2F862D972D0E94B0
:101A4000AD282B013C0120E030E040E850E4682D57
:101A5000792D8A2D9B2D0E94AD289B01AC01C301DD
:101A6000B2010E94AB2620E030E040EE51E40E943B
:101A7000AC2620E030E040E851E40E94AC262B0187
:101A80003C0120E030E040EA51E4BB81AC81ED81D3
:101A9000FE816B2F7A2FCF010E94AD289B01AC01F4
:101AA000C301B2010E94AB262B013C01A7019601A4
:101AB000C701B6010E94AC269B01AC01682D792DAF
:101AC0008A2D9B2D0E94AB2620E030E040E850E4B8
:101AD0000E94AD289B01AC01C301B2010E942327E3
:101AE0000E9410276B017C0120E030E040E850E4C8
:101AF000BF81A885B984AA846B2F7A2F8B2D9A2D4C
:101B00000E94AC269B01AC01C701B6010E94AD2822
:101B10006B017C0120E030E0A9017D2D9F2D0E940A
:101B2000A92818165CF420E030E040E051E46C2D68
:101B30007D2D8E2D9F2D0E94AC2604C060E070E0AC
:101B400080E091E4FE85ED85202F312F4F2F5E2F11
:101B50000E94AD289B01AC01D101EB851C856B2F48
:101B6000722D8E2F912F0E94AC262E960FB6F894D0
:101B7000DEBF0FBECDBFDF91CF911F910F91FF90C0
:101B8000EF90DF90CF90BF90AF909F908F907F901D
:101B90006F905F904F903F902F900895FC01678564
:101BA00070890C94780CAF92BF92CF92DF92EF9233
:101BB000FF920F931F93CF93DF938C01FC01838DD2
:101BC000E801C25EDC4F813069F56881798180E08F
:101BD00090E00E94B7272DEC3CEC4CEC5DE30E94BA
:101BE000AD2820E030E040E85FE30E94AC260E9490
:101BF0008B275B01C8010E94CE0D6B017C010E9406
:101C0000B72B8C01C701B6010E948B279B0128517D
:101C10003C4FC801B5010E94862A280F391F39831D
:101C2000288304C080E197E29983888380E0DF9174
:101C3000CF911F910F91FF90EF90DF90CF90BF90C9
:101C4000AF900895CF93DF93FC01C62FD72FDE010D
:101C50000D900020E9F71197AC1BBD0BAC3FB1050F
:101C600028F08BEF90E0908B878702C0B08BA7871E
:101C700027853089DB0180E090E006C04D91EF01BF
:101C8000C80FD91F48A3019682179307B9F7238D70
:101C9000211106C0CD9720F08CE390E0908B8787D0
:101CA000CF01DF91CF910C94DF0AEF92FF920F9357
:101CB0001F93CF93DF93EC01F62E8A0161E00E941F
:101CC0004904E82ECE010E948C041F8A888D811160
:101CD0000DC06F2DCE010E946D0CF82E81110FC02A
:101CE000B801CE010E94220EF82E09C0CE010E943A
:101CF000DF0AF82EFE01E55EFE4F888D808340E00E
:101D00006EE0CE010E94630440E06DE0CE010E94CF
:101D10006304F1102DC04C8D60E0CE010E9463047D
:101D20004D8D60E0CE010E9463044E8D60E0CE01D7
:101D30000E9463044F8D60E0CE010E94630400E0C6
:101D400010E009C0E00FF11F40A160E0CE010E9449
:101D500063040F5F1F4F2F853889FE010217130799
:101D600088F3E55EFE4F408160E0CE010E9463048F
:101D70004E2D61E0CE010E9463048F2DDF91CF9143
:101D80001F910F91FF90EF9008958F929F92AF92C5
:101D9000BF92CF92DF92EF92FF921F93CF93DF9388
:101DA000EC014A015B010E94BB136B017C018B8D2E
:101DB000813001F5CE010E948C0443E861E0CE0140
:101DC0000E94630462E1CE010E944904182F04C0FE
:101DD0000E94BB136B017C0113FD28C00E94BB1342
:101DE0006C197D098E099F09681579058A059B057F
:101DF00030F11CC043E061E0CE010E9463046FE358
:101E0000CE010E944904182F04C00E94BB136B012D
:101E10007C0113FD0BC00E94BB136C197D098E0958
:101E20009F09681579058A059B05B0F0CE010E94CF
:101E30008C0413FB882780F991E089271AC062E19E
:101E4000CE010E944904182F0E94BB136C157D051A
:101E50008E059F0508F6BCCF6FE3CE010E944904B2
:101E6000182F0E94BB136C157D058E059F0588F603
:101E7000CCCFDF91CF911F91FF90EF90DF90CF906B
:101E8000BF90AF909F908F900895CF93DF93EC0118
:101E90000E94D30DFE01E25EFC4F4081518160E063
:101EA00070E0CE01DF91CF910C94C50ECF93DF93FC
:101EB000EC010E94550E811105C0CE01DF91CF913A
:101EC0000C94450FDF91CF9108958F929F92AF921E
:101ED000BF92CF92DF92EF92FF920F931F93CF9317
:101EE000DF93EC014A015B010E94BB136B017C0193
:101EF0008B8D8130D9F462E1CE010E944904182F04
:101F000004C00E94BB136B017C01012F007416FDFD
:101F10008DC00E94BB136C197D098E099F0968153D
:101F200079058A059B0508F473C080C06FE3CE0174
:101F30000E944904182F04C00E94BB136B017C014E
:101F4000012F047012FD86C00E94BB136C197D091D
:101F50008E099F09681579058A059B0508F46CC0F0
:101F600079C0112309F448C04E0184EE881A8DEF20
:101F7000980A8D89F401808360E0CE010E944904B3
:101F80005E01F3EEAF1AFDEFBF0AF501808360E05A
:101F9000CE010E9449046E01F2EECF1AFDEFDF0A76
:101FA000F601808360E0CE010E9449047E01F1EEDB
:101FB000EF1AFDEFFF0AF701808360E0CE010E9477
:101FC0004904FE01E05EFD4F8083F40120819D8D78
:101FD000291314C0F50120819C8D291311C0F6012D
:101FE00020819E8D29130EC0F701908191110CC0A4
:101FF00081110CC010E038C018E036C017E034C0C2
:1020000016E032C015E030C014E02EC013E02CC042
:1020100062E1CE010E944904182F0E94BB136C1587
:102020007D058E059F0508F070CF6BCF11E0011183
:1020300001C010E041E813C06FE3CE010E944904E3
:10204000182F0E94BB136C157D058E059F0508F0A7
:1020500077CF72CF11E0011101C010E041E061E0E3
:10206000CE010E9463047DCFCE010E948C04812F9B
:10207000DF91CF911F910F91FF90EF90DF90CF9064
:10208000BF90AF909F908F90089540E157E260E03D
:1020900070E00C94650FCF93DF93EC010E94560F14
:1020A000811110C0CE010E946A0B81110BC0CE01BC
:1020B0000E94670C882329F0CE01DF91CF910C9408
:1020C000451089E0DF91CF9108958BE592E00C9463
:1020D0001C0410928405E4E6F0E080818F77808311
:1020E000589A599AE9EBF0E080818E7F8083808155
:1020F0008D7F808381E48093B80085E48093BC0069
:1021000080E2E5E8F5E0DF01982F1D929A95E9F766
:10211000E5EAF5E0DF01982F1D929A95E9F7E5ECE5
:10212000F5E0DF011D928A95E9F70895613298F490
:1021300020918405243089F460938105FC0185EAAF
:1021400095E0DC0102C021912D932A2F281B261730
:10215000D0F380E0089581E0089582E0089585EC51
:102160008093BC00109284050895589859988091E6
:10217000B90081608093B9008091B900826080933A
:10218000B9008091BC0080688093BC008091BC0045
:1021900080618093BC008091BC008F7B8093BC00E9
:1021A0008091BC008F7D8093BC008091BC00877FB4
:1021B0008093BC008091BC089091BD08A091BE089E
:1021C000B091BF0886FD14C08091BC089091BD08F5
:1021D000A091BE08B091BF0890FD0AC08091BC08D4
:1021E0009091BD08A091BE08B091BF0893FF04C0B4
:1021F0008091BC008B7F03C08091BC008460809381
:10220000BC008091BC008E7F8093BC0080916400F4
:102210008068809364000895882349F010927B05BC
:1022200010927C0510927D0510927E0513C080915E
:102230007B0590917C05A0917D05B0917E0501966E
:10224000A11DB11D80937B0590937C05A0937D0516
:10225000B0937E0580917B0590917C05A0917D05D2
:10226000B0917E05803A9648A140B10560F0109289
:102270007B0510927C0510927D0510927E050E94D0
:10228000691081E0089580E0089585ED8093BC0099
:1022900081E00E940C1108C080E00E940C1188238C
:1022A00019F01092840508958091BC0084FDF4CF4C
:1022B000F8CFFF920F931F93CF93DF93182F062F22
:1022C000F72EC42FD22F81E0413208F051C00E9476
:1022D0000C1115C080E00E940C11882381F082E06F
:1022E000809384058FEF80937F0510928305C093C0
:1022F000E505E02FFF2D65E875E0DB0107C0809163
:1023000084058111E7CFEBCF81918D938A2F861BB6
:102310008C17D0F3812F90E0880F991F8093E605EA
:1023200085EE8093BC0081E00E940C11D11105C0A4
:1023300080917F058F3F59F414C0809184058230CD
:10234000B9F780E00E940C1181110DC0F6CF809189
:102350007F05803251F080917F05803341F483E026
:1023600007C080E005C085E003C082E001C084E0D2
:10237000DF91CF911F910F91FF9008950F931F93BD
:10238000CF93DF93082FD62F172FC42F81E0413230
:10239000E0F50E940C111DC080E00E940C11882302
:1023A000C1F081E0809384058FEF80937F051092C8
:1023B0008305C093E505802F90E0880F991F816009
:1023C0008093E60585EE8093BC0081E00E940C11AD
:1023D00010C0809184058111DFCFE3CF80E00E949F
:1023E0000C11882331F085E895E0ED2FF12FDC0109
:1023F00007C080918405813089F3F5CF2D91219319
:102400002A2F281B2C17D0F380E0DF91CF911F914A
:102410000F9108951F920F920FB60F9211240BB6D1
:102420000F922F933F934F935F936F937F938F936D
:102430009F93AF93BF93CF93EF93FF93C091B90056
:10244000C87FC03609F49FC058F5C83209F45BC094
:1024500090F4C03109F452C038F4CC2309F4F2C02E
:10246000C83009F0F3C04AC0C83109F44CC0C032CA
:1024700009F0ECC05DC0C03409F473C038F4C03357
:1024800009F45BC0C83309F0E1C05AC0C03509F493
:102490005CC0C83509F46AC0C83409F0D7C0D4C0DC
:1024A000C83909F4C5C0A8F4C83709F46CC038F4B9
:1024B000C83609F468C0C03709F0C8C064C0C8385D
:1024C00009F4B6C0C03909F464C0C03809F0BEC010
:1024D00060C0C03B09F484C038F4C03A09F46BC052
:1024E000C83A09F0B3C07CC0C03C09F4A5C0C83CE0
:1024F00009F4A2C0C83B09F0A9C087C08091E605D5
:102500008093BB0013C0909183058091E5059817D7
:1025100008F09AC080918305E82FF0E0EB57FA4F5E
:1025200090819093BB008F5F8093830585EC81C081
:102530000E944511C0937F0589C0C0937F0584C068
:10254000C0937F050E94AF1081C080918305909158
:10255000BB00E82FF0E0EB57FA4F90838F5F80933A
:102560008305909183058091E5055FC08091830587
:102570009091BB00E82FF0E0EB57FA4F90838F5F0C
:102580008093830561C083E0809384051092800569
:10259000CDCF80918005803208F04AC080918005BF
:1025A0009091BB00E82FF0E0EB53FA4F90838F5FE0
:1025B00080938005BBCF80918005803230F4E0911C
:1025C0008005F0E0EB53FA4F108260918005E091B6
:1025D000E705F091E80570E085EC95E009952CC0E1
:1025E00084E0809384051092820510928105E09129
:1025F000E905F091EA05099580918105811105C0F1
:1026000081E0809381051092A50580918205E82FD5
:10261000F0E0EB55FA4F90819093BB008F5F809371
:1026200082059091820580918105981708F47ECFEC
:1026300085E88093BC000AC085EC8093BC001092B2
:10264000840504C010927F050E944511FF91EF910F
:10265000CF91BF91AF919F918F917F916F915F913A
:102660004F913F912F910F900BBE0F900FBE0F9087
:102670001F9018951F920F920FB60F9211240BB650
:102680000F922F933F934F935F936F937F938F930B
:102690009F93AF93BF93EF93FF93F89481E0809360
:1026A0000B02E0E6F0E080818068808380818F7B90
:1026B000808360E083E00E9407157894FF91EF919A
:1026C000BF91AF919F918F917F916F915F914F914A
:1026D0003F912F910F900BBE0F900FBE0F901F9048
:1026E00018951F920F920FB60F9211248F939F93FC
:1026F000AF93BF938091CE089091CF08A091D0085E
:10270000B091D1080196A11DB11D8093CE08909380
:10271000CF08A093D008B093D108BF91AF919F91FB
:102720008F910F900FBE0F901F9018951F920F92D0
:102730000FB60F9211248F939F93AF93BF93809105
:10274000D2089091D308A091D408B091D5080196F1
:10275000A11DB11D8093D2089093D308A093D408F3
:10276000B093D508BF91AF919F918F910F900FBEFD
:102770000F901F9018958F929F92AF92BF92CF9219
:10278000DF92EF92FF920F931F93CF93DF932FB7B8
:10279000F8948091CE089091CF08A091D008B09184
:1027A000D1082FBF9C01AD0160E070E080E090E0B7
:1027B00001E00E944B2B4901D42FC52FB62FA72F24
:1027C000F82FE92F02E00E944B2B59016A017B018F
:1027D0008C0194014D2F5C2F6B2F7A2F8F2F9E2F02
:1027E0000E945A2BE9E0AE2EB12CC12CD12CE12C49
:1027F000F12C00E010E00E94EE2A952FB901842F01
:10280000DF91CF911F910F91FF90EF90DF90CF90CC
:10281000BF90AF909F908F9008958F929F92AF92AC
:10282000BF92CF92DF92EF92FF924B015C0107C003
:102830000E94BB136C157D058E059F0520F40E9438
:10284000BB136B017C010E94BB136C197D098E09BF
:102850009F09681579058A059B0550F3FF90EF9055
:10286000DF90CF90BF90AF909F908F900895BC0164
:10287000049768F080E090E00E94B72726E636E6ED
:1028800046EE5FE30E94AD280E948B2702C0660FD0
:10289000771F6150710961F06150710949F0FB01C6
:1028A000EE0FFF1F31978FB7F8943197F1F78FBF75
:1028B0000895789484B7877F84BF1092CE081092D1
:1028C000CF081092D0081092D10884B5826084BDE0
:1028D00084B5816084BD85B5826085BD85B5816024
:1028E00085BDEEE6F0E0808181608083E1E8F0E084
:1028F000808182608083808181608083E0E8F0E075
:10290000808181608083E1EBF0E08081846080835E
:10291000E1E9F0E0808184608083E0EBF0E0808199
:1029200081608083E0E9F0E0808181608083E4E67B
:10293000F0E080818E7F8083ECE7F0E080818F770C
:102940008083808180648083EAE7F0E08081846016
:102950008083808182608083808180688083109200
:10296000C1001092C90008959091EB05982B9093A7
:10297000EB0580FF32C0809164008E7F80936400FD
:1029800080917C008F7780937C0080917C008064B4
:1029900080937C0080917A00846080937A0080919B
:1029A0007A00826080937A0080917A0080688093B8
:1029B0007A00809164008F77809364008091640036
:1029C0008B7F80936400809164008D7F809364008E
:1029D000809165008E7F80936500089590E0FC01F2
:1029E000E85AFA4F2491FC01E557FA4FE491EE239F
:1029F00069F0F0E0E253FA4FA491B0E08C916111DC
:102A000003C02095822301C0822B8C93089590E00F
:102A1000FC01EB5DFA4F2491FC01E85AFA4F349126
:102A2000FC01E557FA4F84918823B1F1222331F15B
:102A3000233021F4909180009F7705C0243031F439
:102A4000909180009F7D9093800018C0213019F4F0
:102A500094B59F7704C0223021F494B59F7D94BD36
:102A60000DC0263021F49091B0009F7705C027302B
:102A700029F49091B0009F7D9093B000E82FF0E092
:102A8000EA53FA4FA491B0E08C91611103C03095E4
:102A9000832301C0832B8C93089590E0FC01EB5DB0
:102AA000FA4F2491FC01E85AFA4F3491FC01E557A2
:102AB000FA4F8491882399F1222331F1233021F4B4
:102AC000909180009F7705C0243031F49091800070
:102AD0009F7D9093800018C0213019F494B59F77A2
:102AE00004C0223021F494B59F7D94BD0DC02630E2
:102AF00021F49091B0009F7705C0273029F4909180
:102B0000B0009F7D9093B000E82FF0E0E254FA4FC0
:102B1000E491F0E08081832321E030E011F420E0B3
:102B200030E0C9010895CF92DF92EF92FF926B01DE
:102B30007C01411134C088E00E94B414C701B60181
:102B400022E030E040E050E00E94D02A305F414F68
:102B50005F4FCA01B901A70196010E94D02ADA018C
:102B6000C9010197A109B109892F9A2FAB2FBB2762
:102B7000A7FDBA958093C50021502093C400809191
:102B8000C10080618093C1008091C1008860809302
:102B9000C1008091C10080688093C10033C080E192
:102BA0000E94B414C701B60122E030E040E050E0DA
:102BB0000E94D02A305F414F5F4FCA01B901A7017F
:102BC00096010E94D02ADA01C9010197A109B10931
:102BD000892F9A2FAB2FBB27A7FDBA958093CD00E5
:102BE00021502093CC008091C90080618093C9005E
:102BF0008091C90088608093C9008091C900806875
:102C00008093C900FF90EF90DF90CF9008956111FD
:102C100007C09091C00095FFFCCF8093C600089537
:102C20009091C80095FFFCCF8093CE0008951F922D
:102C30000F920FB60F9211242F933F934F935F93F0
:102C40006F937F938F939F93AF93BF93EF93E09195
:102C5000C6002091F2053091F305C901019660E0AC
:102C600072E00E949A2A4091F0055091F105841774
:102C7000950741F0D901AA52B54FEC939093F30513
:102C80008093F205EF91BF91AF919F918F917F91CA
:102C90006F915F914F913F912F910F900FBE0F90C9
:102CA0001F9018951F920F920FB60F9211242F9319
:102CB0003F934F935F936F937F938F939F93AF93C4
:102CC000BF93EF93E091CE002091EE053091EF0598
:102CD000C901019660E072E00E949A2A4091EC05D9
:102CE0005091ED058417950741F0D901AA52B74FCD
:102CF000EC939093EF058093EE05EF91BF91AF9128
:102D00009F918F917F916F915F914F913F912F9103
:102D10000F900FBE0F901F9018950C940716CF932D
:102D2000C82F682F8DE00E9407166C2F8AE0CF9184
:102D30000C9407164F925F926F927F928F929F92A0
:102D4000AF92BF92CF92DF92EF92FF920F93CF9309
:102D5000DF93CDB7DEB7A0970FB6F894DEBF0FBEF6
:102D6000CDBF29013A016115710581059105C9F4AD
:102D7000602F80E3A0960FB6F894DEBF0FBECDBFE4
:102D8000DF91CF910F91FF90EF90DF90CF90BF90A8
:102D9000AF909F908F907F906F905F904F900C942A
:102DA0000716EE24E394F12CEC0EFD1E812C912CE1
:102DB0005401A30192010E94AE2AF70161937F01A1
:102DC000FFEF8F1A9F0AAF0ABF0AB901CA01611546
:102DD00071058105910569F7CC24CA94DC2C760134
:102DE000C80CD91CEA1CFB1C14C0E1E0F0E0EC0F9D
:102DF000FD1FEC0DFD1D80818A3010F4805D01C047
:102E0000895C602F0E94071681E0C81AD108E1088A
:102E1000F108EFEFCE16DE06EE06FE0631F7A096BD
:102E20000FB6F894DEBF0FBECDBFDF91CF910F91EB
:102E3000FF90EF90DF90CF90BF90AF909F908F90DA
:102E40007F906F905F904F900895CF92DF92EF92B6
:102E5000FF920F936B017C01042F97FF0CC0642F2E
:102E60008DE20E940716F094E094D094C094C11CA7
:102E7000D11CE11CF11C2AE030E040E050E0C70129
:102E8000B6010E949A160F91FF90EF90DF90CF90BD
:102E900008950E94591486E996E00E94992185348C
:102EA00040F061E081E30E94EE1461E081E30E9462
:102EB000071561E070E086E996E00E947520813098
:102EC000B1F48091BC089091BD08A091BE08B0916A
:102ED000BF0890688093BC089093BD08A093BE087B
:102EE000B093BF0860E081E090E00E94282E87E266
:102EF0000E944D15892B59F160E070E086E996E05B
:102F00000E9475208A3019F5C1C06CE3629FA00150
:102F1000639F500D1124840F951F0EC0211531059C
:102F200059F06CE3629FA001639F500D11249A0138
:102F3000205F314F820F931F039748F48091CB0895
:102F40009091CC0880629093CC088093CB0888EF56
:102F500095E00E94161D88EF95E00E94D71C88EF2F
:102F600095E00E94E61C88EF95E00E949E1863E0C1
:102F700070E080E090E00E940D148091BC08909178
:102F8000BD08A091BE08B091BF08A1FF5EC063E07C
:102F900070E080E090E00E940D1461E086E10E9404
:102FA000EE1463E070E080E090E00E940D1461E0B8
:102FB00086E10E94071563E070E080E090E00E94E7
:102FC0000D140E94361D63E070E080E090E00E94E6
:102FD0000D1481E00E94591D63E070E080E090E0F4
:102FE0000E940D1484E00E94671D63E070E080E0A1
:102FF00090E00E940D1480E00E94621D63E070E08A
:1030000080E090E00E940D140E94551D63E070E086
:1030100080E090E00E940D1466E08BE896E00E944C
:10302000721D63E070E080E090E00E940D1461E0AA
:1030300086E10E94EE1460E086E10E94071563E0DD
:1030400070E080E090E00E940D1463E070E080E0AA
:1030500090E00E940D1486E996E00E94732160932F
:10306000F4057093F5058093F6059093F70580912C
:10307000F4059091F505A091F605B091F7050E9431
:10308000BB2B0E9423030E94EA03FDCF88EF95E04B
:103090000E94161D88EF95E00E94681B88EF95E05E
:1030A0000E945D1B8091110690E020911306821B07
:1030B00091092091100630E040911406241B31093B
:1030C000121613060CF421CF29CF80919D06882378
:1030D00041F08091F906811104C08EEF96E00C94C6
:1030E000832608950F931F93CF93DF93EC01042F52
:1030F00068A761E080E30E94EE1418A5112379F01F
:10310000113091F461E080E30E940715013019F459
:1031100082E08B8B09C0011107C01B8B05C060E0EA
:1031200080E30E9407151B8A6AE070E080E090E06F
:10313000DF91CF911F910F910C940D14CF93DF93DA
:10314000EC010E94651840E060E0CE01DF91CF9174
:103150000C947218FC01148A158A168A178A108E2C
:10316000118E128E138E148E158E168E178E10A23F
:1031700011A212A213A214A215A216A217A20895B8
:10318000EF92FF920F931F93CF93DF93CDB7DEB7EC
:10319000EC970FB6F894DEBF0FBECDBF8C01E8E50B
:1031A000F3E085919491BC01EE24E394F12CEC0EB4
:1031B000FD1EC7010E94C62BEAE5F3E085919491BC
:1031C000BC01CE0189960E94C62BF8018689843005
:1031D00009F466C040F4823029F108F04BC0813018
:1031E00009F0B6C009C0863009F486C008F46EC084
:1031F000873009F0ADC096C0F801818D1F928F9382
:10320000808D1F928F9387891F928F93828D1F923B
:103210008F9385891F928F9384891F928F9385E264
:1032200092E015C0F801818D1F928F93808D1F92BF
:103230008F9387891F928F93828D1F928F93858999
:103240001F928F9384891F928F9389E292E09F93BC
:103250008F93FF92EF921F9284E68F93C801899615
:103260009F938F930E94D82B0FB6F894DEBF0FBEAA
:10327000CDBF81C0F801818D1F928F93808D1F92E9
:103280008F9387891F928F93828D1F928F93858949
:103290001F928F9384891F928F938DE292E0D7CFF4
:1032A000F801818D1F928F93808D1F928F93878954
:1032B0001F928F93828D1F928F9385891F928F9378
:1032C00084891F928F9381E392E0C1CFF801818DB1
:1032D0001F928F93808D1F928F9387891F928F9358
:1032E000828D1F928F9385891F928F9384891F925D
:1032F0008F9385E392E0ABCFF801818D1F928F937E
:10330000808D1F928F9387891F928F93828D1F923A
:103310008F9385891F928F9384891F928F9389E35E
:1033200092E095CFF801818D1F928F93808D1F922F
:103330008F9387891F928F93828D1F928F93858998
:103340001F928F9384891F928F938DE392E07FCF9A
:10335000CE0189969F938F931F9284E68F93C80125
:1033600089969F938F930E94D82B0F900F900F9068
:103370000F900F900F90075D1F4FC801EC960FB68E
:10338000F894DEBF0FBECDBFDF91CF911F910F919B
:10339000FF90EF900895CF92DF92EF92FF920F93FC
:1033A0001F93CF93DF938C01C62E80919D068111D0
:1033B00004C087E996E00E94A12168E670E087E9F1
:1033C00096E00E94CE2160E070E087E996E00E94DE
:1033D000FA2287E996E00E94FC2243E150E068E689
:1033E00070E087E996E00E943623E12CF12CC0E0E2
:1033F000D0E0D12CE4C087E996E00E94D621F80104
:10340000EC0FFD1F8083C630D10509F467C098F426
:10341000C230D10509F43EC038F4209729F1C130FB
:10342000D10509F0C7C02BC0C430D10509F440C094
:1034300008F049C03AC0CA30D10509F484C048F444
:10344000282F30E0C830D10509F461C008F06DC004
:1034500050C0CC30D10509F492C008F482C0CD3000
:10346000D10509F0A7C099C0982F92959F708F70D1
:103470002AE0929F800D1124F801818F9BC0982F24
:1034800092959F708F70FAE09F9F800D1124F80134
:10349000808F90C0982F92959F708F70FAE09F9FB9
:1034A000800D1124F801878B85C0F801868B82C0BE
:1034B000982F92959F708F70FAE09F9F800D112436
:1034C000F801828F77C0982F92959F708F70FAE0E5
:1034D0009F9F800D1124F801858B6CC0982F9295C9
:1034E0009F708F70FAE09F9F800D1124F801848BEC
:1034F00061C054E0359527955A95E1F727708F7094
:10350000FAE02F9F800D1124F801838F53C044E00F
:10351000359527954A95E1F727708F70FAE02F9F30
:10352000800D1124F801848F45C094E035952795CE
:103530009A95E1F723708F70FAE02F9F800D112488
:10354000F801858F37C0282F269526952695267059
:10355000922F990F990F920F8F70980FF801968FF5
:1035600029C0282F2695269526952E70922F990FE3
:10357000990F920F8F70980FF801978F1BC0282F0B
:103580002695269526952670922F990F990F920FC2
:103590008F70980FF80190A30DC0282F26952695BF
:1035A00026952670922F990F990F920F8F70980F72
:1035B000F80191A3219603C0FFEFEF1AFF0ACC1682
:1035C000DD0658F02AE0E216F10438F487E996E0C7
:1035D0000E94D021882381F30ECFDF91CF911F91DC
:1035E0000F91FF90EF90DF90CF9008951F93CF93AE
:1035F000DF93EC01162F80919D06811104C087E9AD
:1036000096E00E94A12168E670E087E996E00E94BA
:10361000CE21612F87E996E00E94CE22C10FD11DF5
:10362000688187E996E00E94CE2287E996E0DF91E3
:10363000CF911F910C94FC22FF920F931F93CF9375
:10364000DF938C01F62E80919D06811104C087E9DD
:1036500096E00E94A12168E670E087E996E00E946A
:10366000CE216F2D87E996E00E94CE2287E996E071
:103670000E94FC2241E050E068E670E087E996E0B5
:103680000E943623CBE0D0E087E996E00E94D0216B
:10369000811102C02197C1F787E996E00E94D621E7
:1036A000F801EF0DF11D808387E996E0DF91CF915E
:1036B0001F910F91FF900C94FC22CF93DF93EC01AC
:1036C00066E00E94CB19CE01DF91CF910C94C01817
:1036D000CF92DF92EF92FF920F931F93CF93DF93DE
:1036E000CDB7DEB7C857D1090FB6F894DEBF0FBE0D
:1036F000CDBF7C016AE00E94CB198701075D1F4F97
:1037000084E6F80111928A95E9F7E6E3F3E0859102
:103710009491BC01CE018F5A9F4F0E94C62BBE01CF
:103720006F5A7F4FC8010E94CD2BF70182A18230D2
:1037300009F46AC030F4882369F0813009F00BC1C4
:1037400022C0843009F4C7C008F493C0853009F062
:1037500002C1F0C0E8E3F3E085919491BC01CE0191
:103760008F5A9F4F0E94C62BBE016F5A7F4FC801D0
:103770000E94CD2BE6E4F3E0859194916E01F9E28D
:10378000CF0ED11C18C0EAE3F3E085919491BC01FF
:10379000CE018F5A9F4F0E94C62BBE016F5A7F4F9A
:1037A000C8010E94CD2BE6E4F3E0859194916E016F
:1037B000E9E2CE0ED11CBC01C6010E94C62BF70166
:1037C000838D1F928F93848D1F928F93858D1F926F
:1037D0008F93868D1F928F93DF92CF921F9288E2F4
:1037E0008F93EE24E394F12CEC0EFD1EFF92EF92EA
:1037F0000E94D82BB701C8010E94CD2B0FB6F894B8
:10380000DEBF0FBECDBFC2C0ECE3F3E08591949163
:10381000BC01CE018F5A9F4F0E94C62BBE016F5A2A
:103820007F4FC8010E94CD2BE8E4F3E0859194918D
:103830006E01E9E2CE0ED11CBC01C6010E94C62B6E
:10384000F701838D1F928F93848D1F928F93858DA7
:103850001F928F93DF92CF921F9288E28F93EE2474
:10386000E394F12CEC0EFD1EFF92EF920E94D82BF8
:10387000C1CFEEE3F3E085919491BC01CE018F5A64
:103880009F4F0E94C62BBE016F5A7F4FC8010E94F6
:10389000CD2BEAE4F3E0859194916E01E9E2CE0E3E
:1038A000D11CBC01C6010E94C62BF701838D1F925B
:1038B0008F93848D1F928F93DF92CF921F9288E215
:1038C0008F93EE24E394F12CEC0EFD1EFF92EF9209
:1038D0000E94D82B8FCFE0E4F3E085919491BC0156
:1038E000CE018F5A9F4F0E94C62BBE016F5A7F4F49
:1038F000C8010E94CD2BECE4F3E0859194916E0118
:10390000E9E2CE0ED11CBC01C6010E94C62BF70114
:10391000838D1F928F93DF92CF921F9288E28F93B5
:10392000EE24E394F12CEC0EFD1EFF92EF920E9428
:10393000D82B60CFE2E4F3E085919491BC01CE01F5
:103940008F5A9F4F0E94C62BBE016F5A7F4FC801EE
:103950000E94CD2B1BC0E4E4F3E0859194917E019D
:10396000E1E5EE0EF11CBC01C7010E94C62BFF92DF
:10397000EF921F9284E68F931F930F930E94D82B90
:103980000F900F900F900F900F900F90C801C85894
:10399000DF4F0FB6F894DEBF0FBECDBFDF91CF91E2
:1039A0001F910F91FF90EF90DF90CF900895CF93EC
:1039B000DF93EC016EE00E941C1B8E858E7F8E874C
:1039C0006EE0CE01DF91CF910C94F61ACF93DF9386
:1039D000EC016EE00E941C1B8E858D7F8E876EE051
:1039E000CE01DF91CF910C94F61ACF93DF93EC01C7
:1039F0006FE00E941C1B8F858370DF91CF9108952B
:103A0000CF93DF93EC010E94F51C882319F0CE566A
:103A1000DF4F8883809107068C7F809307066FE0D5
:103A200088EF95E0DF91CF910C94F61ACF93DF9356
:103A3000EC0140E061E00E947218CE010E94001D7E
:103A4000CE010E94AA186DE0CE010E94CB1961E060
:103A50008BE20E94EE1460E08BE2DF91CF910C9438
:103A600007151092890610920B06089561E08EE109
:103A70000E94EE1461E08FE10E94EE1461E08DE19E
:103A80000E94EE1460E08EE10E94071560E08FE175
:103A90000E94071561E08DE10E9407158CB58061D9
:103AA0008CBD8CB580648CBD08958CB58F7B8CBD2E
:103AB0000895811103C08CB5806202C08CB58F7DE2
:103AC0008CBD08959CB5937F982B9CBD08952CB513
:103AD000982F93702C7F922B9CBD9DB580FB90F905
:103AE0009DBD0895CF93C62F61E08DE10E94EE1435
:103AF00061E082E20E94EE1461E08DE10E94071510
:103B000061E082E20E9407158091BC089091BD0897
:103B1000A091BE08B091BF08A2FF08C061E088E094
:103B20000E94EE1461E088E00E9407158091BC08B5
:103B30009091BD08A091BE08B091BF0896FF08C043
:103B400061E089E00E94EE1461E089E00E940715BF
:103B50008091BC089091BD08A091BE08B091BF08AB
:103B6000A3FF08C061E082E00E94EE1461E082E001
:103B70000E9407158091BC089091BD08A091BE08D5
:103B8000B091BF08A4FF08C061E082E20E94EE1479
:103B900061E082E20E940715C330C9F020F4C13011
:103BA00061F070F407C0C53061F1F0F0C63009F083
:103BB00067C033C060E08DE160C060E082E25DC05C
:103BC00086E996E00E945D2060E08CE256C080911C
:103BD000BC089091BD08A091BE08B091BF08A2FF9B
:103BE0004FC060E088E049C08091BC089091BD085A
:103BF000A091BE08B091BF0896FF42C060E089E086
:103C00003CC08091BC089091BD08A091BE08B091C5
:103C1000BF08A3FF35C060E02FC061E08DE10E94C6
:103C2000071561E082E20E9407158091BC0890911F
:103C3000BD08A091BE08B091BF08A2FF04C061E01A
:103C400088E00E9407158091BC089091BD08A09162
:103C5000BE08B091BF0896FF04C061E089E00E94F1
:103C600007158091BC089091BD08A091BE08B09145
:103C7000BF08A3FF05C061E082E0CF910C94071557
:103C8000CF9108958091BC089091BD08A091BE0885
:103C9000B091BF08A2FF0EC08091BC089091BD08F2
:103CA000A091BE08B091BF0881FF04C080918D062D
:103CB0008823C1F18091BC089091BD08A091BE08F5
:103CC000B091BF08A1FF0CC080918B06811108C084
:103CD00061E086E10E94EE1461E086E10E94071532
:103CE00080918C06811108C061E08BE10E94EE1486
:103CF00061E08BE10E9407158091BC089091BD089E
:103D0000A091BE08B091BF08A4FF11C08091900699
:103D100081110DC061E086E10E94EE1461E086E150
:103D20000C94071561E082E00E940715C3CF089547
:103D30008091BC089091BD08A091BE08B091BF08C9
:103D4000A2FF0EC08091BC089091BD08A091BE0852
:103D5000B091BF0881FF04C080918D068823C1F116
:103D60008091BC089091BD08A091BE08B091BF0899
:103D7000A1FF0CC080918B06811108C061E086E133
:103D80000E94EE1460E086E10E94071580918C0687
:103D9000811108C061E08BE10E94EE1460E08BE1CC
:103DA0000E9407158091BC089091BD08A091BE08A3
:103DB000B091BF08A4FF11C08091900681110DC081
:103DC00061E086E10E94EE1460E086E10C94071544
:103DD00060E082E00E940715C3CF0895CF93C82FFB
:103DE0008BE896E00E94421ECEBD0DB407FEFDCFCB
:103DF0008BE896E00E94981E8EB5CF9108951092A0
:103E00008C0610928B0610928D0610928E061092E0
:103E10008F06109290060895FC01408160E072ECDC
:103E200081E090E00E94931561E087E10E94EE142A
:103E300061E087E10E94071561E08BE00E94EE14CB
:103E400060E08BE00E94071561E08DE20E94EE14B5
:103E500060E08DE20C940715DC018091C50011969D
:103E60008C9311978091C40012968C931297E2EC78
:103E7000F0E0808113968C9313978091CA0014967A
:103E80008C93149780818F7D808380818F7E808347
:103E90008081877F80834C9160E072EC81E090E0CC
:103EA0000E94931561E087E10E94071560E08BE0B6
:103EB0000C940715CF93DF93EC014091BC0850910F
:103EC000BD086091BE087091BF0863E070E080E0BB
:103ED00090E042FF07C00E940D1461E08BE00E9459
:103EE000071502C00E940D1489818093C5008A8144
:103EF0008093C4008B818093C2008C818093CA0020
:103F0000DF91CF910895EF92FF920F931F93CF937C
:103F1000DF938C01EB010E942C1F7E0188E1E81ADF
:103F20008CEFF80AFE0121968491882339F0F8017C
:103F300060810E948D16CE15DF05A1F7C8010E9491
:103F40005A1F60E070E0CB01DF91CF911F910F917C
:103F5000FF90EF900895AF92BF92DF92EF92FF92A1
:103F60000F931F93CF93DF93EC01142FD52E7B017A
:103F700059010E942C1FA114B10429F46881812FDA
:103F80000E948D1616C08AE0A816B10439F4488143
:103F9000612F7D2DC7010E9425170BC09501442775
:103FA00037FD4095542F0881612F7D2DC7010E9458
:103FB0009A1688810E948F16CE01DF91CF911F91B2
:103FC0000F91FF90EF90DF90BF90AF900C945A1F2D
:103FD0000F931F93CF93DF93EC018B010E942C1F53
:103FE00017FF07C068818DE20E948D16119501951B
:103FF0001109B801882777FD8095982F08812AE05C
:1040000030E040E050E00E949A1688810E948F16AE
:10401000CE01DF91CF911F910F910C945A1FCF9336
:10402000DF93EC010E942C1F88810E948F16CE0125
:10403000DF91CF910C945A1FEF92FF920F931F9331
:10404000CF93DF9300D0CDB7DEB77C010E94831FF2
:104050008C01C70169837A830E940F2069817A816C
:10406000C8010F900F90DF91CF911F910F91FF909A
:10407000EF9008951092910608951F93CF93DF93C8
:104080001F92CDB7DEB7162F61E0812F49830E94C2
:10409000EE144981413011F461E003C0411108C0C0
:1040A00060E0812F0F90DF91CF911F910C94071545
:1040B0000F90DF91CF911F91089561E087E10E94F9
:1040C000EE1461E084E20E94EE1461E085E20E9459
:1040D000EE1461E087E10E94071561E084E20E942E
:1040E000071561E085E20C940715CB010C941A2E9C
:1040F0008F929F92AF92BF92CF92DF92EF92FF92F8
:104100000F931F93CF93DF93CDB7DEB7C75FD1096E
:104110000FB6F894DEBF0FBECDBF8E0100511F4F0A
:10412000580128E0A20EB11C7E0181E8E80EF11CC6
:10413000CC24C394D12CCC0EDD1E6DE0CE018F516A
:104140009F4F0E94022640E06CE086E996E00E94C4
:104150003D2040E06DE086E996E00E943D20F801B8
:10416000108211821282138261E08CE00E94EE14B0
:1041700061E08CE00E940715CE018F519F4F0E9495
:10418000E22441E06DE086E996E00E943D206AE08D
:1041900070E080E090E00E940D1440E063E3CE0107
:1041A0008F519F4F0E94B32562E370E080E090E062
:1041B0000E940D144701CE018F519F4F0E94882508
:1041C000F2E08F1A9108F4018083118261E070E0BF
:1041D00080E090E00E940D148C149D0461F7FE01B4
:1041E0007196D701C60180599F4F219131912D932E
:1041F0003D93E817F907C9F731EE832E912C8C0E09
:104200009D1E81E090E0A0E0B0E0F40132912291A7
:104210004F012130310569F4F801408151816281FB
:104220007381480F591F6A1F7B1F4083518362832C
:104230007383880F991FAA1FBB1F8E149F0429F731
:10424000F80180819181A281B3818F3F9F4FAF4F51
:10425000BF4F29F4F801108211821282138260E0AC
:104260008CE00E94071540E06CE086E996E00E9431
:104270003D2040E06DE086E996E00E943D200C5F25
:104280001F4F0A151B0509F058CFC051DF4F088199
:1042900019812A813B81C05FD040CC50DF4F88819B
:1042A0009981AA81BB81C45FD040081719072A07EA
:1042B0003B0719F000E010E09801B801C901C950AE
:1042C000DF4F0FB6F894DEBF0FBECDBFDF91CF91A9
:1042D0001F910F91FF90EF90DF90CF90BF90AF9024
:1042E0009F908F900895CF92DF92EF92FF920E945D
:1042F00078206B017C01611571058105910591F4B0
:1043000083EE90E00E94222E6A302AE07207820734
:10431000920741F06F3F2FEF72078207920711F06B
:104320006B017C01B601C701FF90EF90DF90CF9049
:1043300008958FED90E00E941A2E8F3F09F480E0DF
:104340000895CF93DF93EC0180E2E5ECF6E0DF0126
:10435000982F1D929A95E9F71092C4061092C30601
:10436000E2EAF6E0DF011D928A95E9F71092A106D4
:104370001092A0060E94691081E08E8384E090E094
:10438000DF91CF910C94371481E080939F06609366
:10439000C2061092A1061092A00608950C94C421A2
:1043A0008091C3069091C406891B08959091C4061C
:1043B0008091C306981748F4E92FF0E0EB53F94FCA
:1043C00080819F5F9093C406089580E00895CF9305
:1043D000DF93EC010E94B5101E82DF91CF9108950A
:1043E0004091BC085091BD086091BE087091BF0813
:1043F0004170FC0140834091BC085091BD08609120
:10440000BE087091BF08769567955795479541709E
:1044100041838091BC089091BD08A091BE08B091E5
:10442000BF0884FD49C08091BC089091BD08A0914F
:10443000BE08B091BF0885FD3FC08091BC08909137
:10444000BD08A091BE08B091BF0886FD35C080911F
:10445000BC089091BD08A091BE08B091BF0887FD2F
:104460002BC08091BC089091BD08A091BE08B0916E
:10447000BF0890FD21C08091BC089091BD08A0911B
:10448000BE08B091BF0891FD17C08091BC08909103
:10449000BD08A091BE08B091BF0893FD0DC008955E
:1044A00040E060E08EEF96E00E94202640E061E070
:1044B0008EEF96E00C94202680919E06882381F34F
:1044C0000895CF93DF93EC018091BC089091BD08D3
:1044D000A091BE08B091BF0884FD58C08091BC086F
:1044E0009091BD08A091BE08B091BF0885FD4EC057
:1044F0008091BC089091BD08A091BE08B091BF0802
:1045000086FD44C08091BC089091BD08A091BE0872
:10451000B091BF0887FD3AC08091BC089091BD085A
:10452000A091BE08B091BF0890FD30C04091BC087A
:104530005091BD086091BE087091BF0851FD26C022
:104540004091BC085091BD086091BE087091BF08B1
:1045500053FD1CC020C041E060E08EEF96E00E9459
:1045600020260CC08981811106C041E060E08EEFF9
:1045700096E00E942026888181110DC041E061E013
:104580008EEF96E0DF91CF910C94202680919E06CD
:104590008111E8CFE0CFDF91CF910895CF93DF93E2
:1045A0001F92CDB7DEB7698380919F06882389F07B
:1045B0008091A0068032D0F48091A106E82FF0E02F
:1045C000EE55F94F60838F5F8093A1068093A0061C
:1045D0000DC087E996E00E94F02161E0CE010196CE
:1045E0000E94961087E996E00E9461220F90DF9169
:1045F000CF9108950C94CE22CF9387E996E00E9444
:10460000F02121E04091A00662EA76E08091C206A6
:104610000E945911C82F1092A1061092A006109264
:104620009F0687E996E00E9461228C2FCF91089522
:10463000CF93DF93D62FC42F87E996E00E94F02115
:10464000C13208F0C0E24C2F65EC76E08D2F0E945D
:10465000BE11D82F1092C406C093C30687E996E016
:104660000E9461228D2FDF91CF9108950C94182321
:1046700010929E0610929706109298068AEF90E08C
:10468000A0E0B0E08093990690939A06A0939B06D1
:10469000B0939C0608951F920F920FB60F921124AB
:1046A0000BB60F922F933F934F935F936F937F932C
:1046B0008F939F93AF93BF93EF93FF938091E50602
:1046C0009091E606892B29F0E091E506F091E60647
:1046D0000995FF91EF91BF91AF919F918F917F913C
:1046E0006F915F914F913F912F910F900BBE0F9063
:1046F0000FBE0F901F9018951F920F920FB60F923A
:1047000011240BB60F922F933F934F935F936F93A8
:104710007F938F939F93AF93BF93EF93FF9380917A
:10472000E7069091E806892B29F0E091E706F091E1
:10473000E8060995FF91EF91BF91AF919F918F91FD
:104740007F916F915F914F913F912F910F900BBE91
:104750000F900FBE0F901F9018951F920F920FB6DB
:104760000F9211240BB60F922F933F934F935F93A9
:104770006F937F938F939F93AF93BF93EF93FF9329
:104780008091E9069091EA06892B29F0E091E906EB
:10479000F091EA060995FF91EF91BF91AF919F913A
:1047A0008F917F916F915F914F913F912F910F90DA
:1047B0000BBE0F900FBE0F901F9018951F920F9277
:1047C0000FB60F9211240BB60F922F933F934F9376
:1047D0005F936F937F938F939F93AF93BF93EF9369
:1047E000FF938091EB069091EC06892B29F0E091E4
:1047F000EB06F091EC060995FF91EF91BF91AF9117
:104800009F918F917F916F915F914F913F912F91E8
:104810000F900BBE0F900FBE0F901F9018951F9218
:104820000F920FB60F9211240BB60F922F933F9356
:104830004F935F936F937F938F939F93AF93BF93A8
:10484000EF93FF938091ED069091EE06892B29F06E
:10485000E091ED06F091EE060995FF91EF91BF9181
:10486000AF919F918F917F916F915F914F913F9108
:104870002F910F900BBE0F900FBE0F901F901895A9
:104880001F920F920FB60F9211240BB60F922F9317
:104890003F934F935F936F937F938F939F93AF93C8
:1048A000BF93EF93FF938091EF069091F006892BD1
:1048B00029F0E091EF06F091F0060995FF91EF9154
:1048C000BF91AF919F918F917F916F915F914F9128
:1048D0003F912F910F900BBE0F900FBE0F901F9026
:1048E00018951F920F920FB60F9211240BB60F92CC
:1048F0002F933F934F935F936F937F938F939F93E8
:10490000AF93BF93EF93FF938091F1069091F206DE
:10491000892B29F0E091F106F091F2060995FF91BB
:10492000EF91BF91AF919F918F917F916F915F9127
:104930004F913F912F910F900BBE0F900FBE0F9094
:104940001F9018951F920F920FB60F9211240BB65D
:104950000F922F933F934F935F936F937F938F9318
:104960009F93AF93BF93EF93FF938091F306909142
:10497000F406892B29F0E091F306F091F4060995ED
:10498000FF91EF91BF91AF919F918F917F916F9127
:104990005F914F913F912F910F900BBE0F900FBEE3
:1049A0000F901F9018951092FA0682E08093F606F9
:1049B0008CE18093FB0680EC91E09093FD06809360
:1049C000FC060895CF92DF92EF92FF921F93CF9350
:1049D000DF93EC0160E08E850E94EE140E94BB1311
:1049E0006B017C011EE7115089F182E090E00E948A
:1049F00037140E94BB136C157D058E059F0520F4AE
:104A00000E94BB136B017C018E850E944D15892B82
:104A1000F9F40E94BB136C197D098E099F09643F4C
:104A2000714081059105F8F213C00E94BB136B0120
:104A30007C011130C1F10E94BB136C197D098E09F4
:104A40009F09643F714081059105D0F010E02BC0B3
:104A500061E08E850E94EE1460E08E850E9407154D
:104A600084E591E00E9437140E94BB136B017C0126
:104A70008E850E944D1511E0892BD9F210E0D9CF17
:104A80008E850E944D1511E0892B09F010E089E018
:104A900090E00E9437140E94BB136C157D058E05B3
:104AA0009F0538F6C2CF812FDF91CF911F91FF90E4
:104AB000EF90DF90CF9008951F93CF93DF93FC0189
:104AC0001081C181D281912F9095F8948A81892398
:104AD0008A838981812B898360FF0BC089E090E004
:104AE0000E9437148A81812B8A8378948FE290E028
:104AF0000AC087E390E00E9437148A81812B8A8361
:104B0000789485E090E0DF91CF911F910C94371459
:104B10000F931F93CF93DF93FC011081C181D2814A
:104B2000F8948981812B89838A81012F00958023C4
:104B30008A8382E090E00E943714898180238983F0
:104B400087E090E00E943714C88178948DE290E06D
:104B50000E9437141C2381E009F480E0DF91CF919B
:104B60001F910F910895CF92DF92EF92FF920F93D2
:104B70001F93CF93DF931F92CDB7DEB76C01E62E64
:104B800008E010E0FF24F3949F2D9E2161E009F4DA
:104B900060E0C60149830E945C25FF0C01501109A9
:104BA00049810115110581F7411115C0F894D6010D
:104BB0001196ED91FC91129791818C9180958923AA
:104BC00081831196ED91FC91129792818C91809541
:104BD0008923828378940F90DF91CF911F910F9159
:104BE000FF90EF90DF90CF900895FC01138615861B
:104BF00014861286118610861782168215821482F8
:104C000013820895CF93DF93EC01862F6E8760E0C7
:104C10000E94EE148E8590E0FC01E85AFA4FE49170
:104C2000E883FC01E557FA4FE491F0E0E254FA4FD3
:104C3000E491E9831A82CE01DF91CF910C94F5259E
:104C40001F93CF93DF931F92CDB7DEB7162F61E08E
:104C50008AE149830E94EE1461E088E10E94EE142B
:104C60004981112321F0113009F048C020C04111C1
:104C70000EC061E08AE10E9407158091BC08909106
:104C8000BD08A091BE08B091BF0882602FC041301E
:104C9000A9F560E08AE10E9407158091BC08909117
:104CA000BD08A091BE08B091BF088D7F1FC0411103
:104CB0000EC061E088E10E9407158091BC089091C8
:104CC000BD08A091BE08B091BF0881600FC04130FF
:104CD000A9F460E088E10E9407158091BC089091DA
:104CE000BD08A091BE08B091BF088E7F8093BC081C
:104CF0009093BD08A093BE08B093BF080F90DF91BA
:104D0000CF911F91089561E089E20E94EE1461E065
:104D100088E20E94EE1487E996E00C94E721FC01FA
:104D2000128A118E138EDC01A356BE4F89E11196B3
:104D30008C93119714961C92DF01AE55BE4F1C92B6
:104D400012961C92E956FE4F11821082089580E05F
:104D500097E00C948F265058BB27AA270ED0A8C1E5
:104D600099D130F09ED120F031F49F3F11F41EF420
:104D70008EC10EF4E095E7FB5BC1E92FAAD180F369
:104D8000BA17620773078407950718F071F49EF548
:104D9000D9C10EF4E0950B2EBA2FA02D0B01B9014D
:104DA00090010C01CA01A0011124FF27591B99F0A1
:104DB000593F50F4503E68F11A16F040A22F232FAD
:104DC000342F4427585FF3CF469537952795A795FD
:104DD000F0405395C9F77EF41F16BA0B620B730BA4
:104DE000840BBAF09150A1F0FF0FBB1F661F771F15
:104DF000881FC2F70EC0BA0F621F731F841F48F4CA
:104E0000879577956795B795F7959E3F08F0B3CF4F
:104E10009395880F08F09927EE0F97958795089539
:104E20007AD180F09F3740F491110EF48CC160E08C
:104E300070E080E89FE3089526F01B16611D711D48
:104E4000811DFCC016C10CD033C12BD140F022D142
:104E500030F021F45F3F19F0EBC0511174C117C15C
:104E600038D198F39923C9F35523B1F3951B550B0A
:104E7000BB27AA2762177307840738F09F5F5F4F2D
:104E8000220F331F441FAA1FA9F333D00E2E3AF06E
:104E9000E0E830D091505040E695001CCAF729D088
:104EA000FE2F27D0660F771F881FBB1F26173707D7
:104EB0004807AB07B0E809F0BB0B802DBF01FF2707
:104EC00093585F4F2AF09E3F510568F0B1C03BC137
:104ED0005F3FECF3983EDCF3869577956795B79541
:104EE000F7959F5FC9F7880F911D9695879597F95C
:104EF0000895E1E0660F771F881FBB1F62177307D5
:104F00008407BA0720F0621B730B840BBA0BEE1FE9
:104F100088F7E0950895E5D088F09F5790F0B92F75
:104F20009927B751A0F0D1F0660F771F881F991FFE
:104F30001AF0BA95C9F712C0B13081F003D1B1E0CF
:104F4000089500C1672F782F8827B85F39F0B93FDF
:104F5000CCF3869577956795B395D9F73EF4909500
:104F60008095709561957F4F8F4F9F4F0895E8947E
:104F700009C097FB3EF490958095709561957F4FA1
:104F80008F4F9F4F9923A9F0F92F96E9BB2793954F
:104F9000F695879577956795B795F111F8CFFAF45F
:104FA000BB0F11F460FF1BC06F5F7F4F8F4F9F4F90
:104FB00016C0882311F096E911C0772321F09EE8EE
:104FC000872F762F05C0662371F096E8862F70E054
:104FD00060E02AF09A95660F771F881FDAF7880F2E
:104FE0009695879597F90895990F0008550FAA0B84
:104FF000E0E8FEEF16161706E807F907C0F01216EC
:105000001306E407F50798F0621B730B840B950BEE
:1050100039F40A2661F0232B242B252B21F4089543
:105020000A2609F4A140A6958FEF811D811D0895E0
:1050300097F99F6780E870E060E00895882371F435
:10504000772321F09850872B762F07C0662311F421
:1050500099270DC09051862B70E060E02AF09A9558
:10506000660F771F881FDAF7880F9695879597F94F
:1050700008959F3F31F0915020F48795779567957B
:10508000B795880F911D9695879597F908959FEF8D
:1050900080EC089500240A941616170618060906CF
:1050A000089500240A94121613061406050608959E
:1050B000092E0394000C11F4882352F0BB0F40F426
:1050C000BF2B11F460FF04C06F5F7F4F8F4F9F4F66
:1050D000089557FD9058440F551F59F05F3F71F0E8
:1050E0004795880F97FB991F61F09F3F79F087954F
:1050F0000895121613061406551FF2CF4695F1DFD8
:1051000008C0161617061806991FF1CF8695710567
:10511000610508940895E5DFA0F0BEE7B91788F4AB
:10512000BB279F3860F41616B11D672F782F88278C
:10513000985FF7CF869577956795B11D93959639CA
:10514000C8F30895E894BB2766277727CB0197F922
:1051500008954ADF08F48FEF08950BD0A9CF9ADFA6
:1051600028F09FDF18F0952309F062CF90CF11242B
:10517000EACFAFDFA0F3959FD1F3950F50E0551F15
:10518000629FF001729FBB27F00DB11D639FAA279C
:10519000F00DB11DAA1F649F6627B00DA11D661FEB
:1051A000829F2227B00DA11D621F739FB00DA11D0C
:1051B000621F839FA00D611D221F749F3327A00DC6
:1051C000611D231F849F600D211D822F762F6A2F62
:1051D00011249F5750408AF0E1F088234AF0EE0FE7
:1051E000FF1FBB1F661F771F881F91505040A9F7F4
:1051F0009E3F510570F01CCFA6CF5F3FECF3983E69
:10520000DCF3869577956795B795F795E7959F5F5A
:10521000C1F7FE2B880F911D9695879597F90895F4
:10522000FA01EE0FFF1F30962105310599F1611546
:10523000710561F48038BFE39B0749F168949038A9
:10524000810561F08038BFEF9B0741F0992342F55B
:10525000FF3FE1053105210511F1E8940894E79538
:10526000D901AA2329F4AB2FBE2FF85FD0F310C0C9
:10527000FF5F70F4A695E0F7F73950F019F0FF3AA8
:1052800038F49F779F930CD00F9007FC90580895A7
:105290003EF0FDCE60E070E080E89FE308954FE7C8
:1052A0009F775F934F933F932F939ED02F913F9182
:1052B0004F915F9152DF05C019F40EF0B9CE42CF85
:1052C000E6CE0FDFC8F39638C0F707F80F92E894E0
:1052D0002BE33AEA48EB5FE74EDF0F920F920F9213
:1052E0004DB75EB70F92C0D0ECECF0E016D04F9106
:1052F0005F91EF91FF91E595EE1FFF1F49F0FE577B
:10530000E0684427EE0F441FFA95E1F74195550BED
:1053100032D00F9007FE26C00895DF93CF931F93DE
:105320000F93FF92EF92DF927B018C01689405C08E
:10533000DA2EEF011EDFFE01E894A591259135914B
:1053400045915591AEF3EF0118DDFE019701A801DB
:10535000DA9479F7DF90EF90FF900F911F91CF9142
:10536000DF9108959B01AC0160E070E080E89FE36D
:105370006ACD5ECE7ECEB5DEE8F39923D9F3940FE5
:10538000511DBBF39150504094F059F0882332F0F6
:10539000660F771F881F91505040C1F79E3F5105FF
:1053A00044F7880F911D9695879597F908955F3F6B
:1053B000ACF0983E9CF0BB27869577956795B7959E
:1053C00008F4B1609395C1F7BB0F58F711F460FF73
:1053D000E8CF6F5F7F4F8F4F9F4FE3CFB4CE0EF07C
:1053E00048CE55CE689424CE7CDEC8F39923D1F301
:1053F000C6F3DF93CF931F930F93FF92C92FDD273F
:1054000088232AF02197660F771F881FDAF720E09C
:1054100030E040E85FEB9FE3883920F0803E30F0D9
:1054200021968F7799DCE4EFF0E003C095DCE1E2B0
:10543000F1E073DF8B01BE01EC01FB2E6F577109A8
:105440007595771F880B990B94DD28E132E741E3CE
:105450005FE38FDEAF2D9801AE01FF900F911F919A
:10546000CF91DF918ADC24CEFA01DC01AA0FBB1FA9
:105470009B01AC01BF5728F42227332744275078DB
:105480001FC0B75188F4AB2F002446953795279558
:10549000011CA395D2F3002069F0220F331F441F93
:1054A000B395DAF30DD057CC61307105A0E88A07C7
:1054B000B94630F49B01AC0166277727882790789E
:1054C000309621F020833183428353830895A29F35
:1054D000B001B39FC001A39F01D0B29F700D811D89
:1054E0001124911D08950E94672AA59F900DB49FD5
:1054F000900DA49F800D911D11240895B7FF0C9469
:10550000732A0E94732A821B930B0895AA1BBB1B4C
:1055100051E107C0AA1FBB1FA617B70710F0A61BB3
:10552000B70B881F991F5A95A9F780959095BC01D4
:10553000CD01089597FB072E16F4009407D077FD50
:1055400009D00E94862A07FC05D03EF490958195EB
:105550009F4F0895709561957F4F0895A1E21A2E8F
:10556000AA1BBB1BFD010DC0AA1FBB1FEE1FFF1F07
:10557000A217B307E407F50720F0A21BB30BE40B57
:10558000F50B661F771F881F991F1A9469F760959E
:105590007095809590959B01AC01BD01CF01089558
:1055A000052E97FB16F4009407D057FD0DD00E94EE
:1055B000AE2A07FC09D07EF4909580957095619590
:1055C0007F4F8F4F9F4F089550954095309521956F
:1055D0003F4F4F4F5F4F0895689401C0E8948F92FA
:1055E0009F92CF93DF930E94FA2ADF91CF919F90F1
:1055F0008F90089588249924F401E401B0E49F93E6
:10560000AA279A158B049C04ED05FE05CF05D0074B
:10561000A10798F4AD2FDC2FCF2FFE2FE92D982C6A
:10562000892E982F872F762F652F542F432F322FB7
:105630002227B85031F7BF9127C01B2EBF91BB273F
:10564000220F331F441F551F661F771F881F991F86
:10565000881C991CEE1FFF1FCC1FDD1FAA1FBB1F3C
:105660008A149B04EC05FD05CE05DF05A007B107F4
:1056700048F08A189B08EC09FD09CE09DF09A00B48
:10568000B10B21601A94E1F62EF49401AF01BE0132
:10569000CD01000C08950F930F7351F0220F331FAB
:1056A000441F551F661F771F881F991F0A95B1F762
:1056B0000F9108952A0D3B1D4C1D5D1D6E1D7F1D14
:1056C000801F911F08950790F691E02D09948F9205
:1056D0009F92AF92BF92CF92DF92EF92FF92CF93C1
:1056E000DF93EC01688179818A819B816115710565
:1056F0008105910521F464E279ED8BE597E02DE1D8
:1057000033EF41E050E00E94D02A49015A019B0149
:10571000AC01A7EAB1E40E94732A6B017C01ACEEF4
:10572000B4EFA50194010E94812AC60ED71EE81E7F
:10573000F91EF7FE06C081E0C81AD108E10880E82A
:10574000F80AC882D982EA82FB82E894D7F8EE246C
:10575000FF24C601DF91CF91FF90EF90DF90CF90B3
:10576000BF90AF909F908F9008950C94672B86E028
:1057700092E00C94672BA0E0B0E080930602909337
:105780000702A0930802B09309020895FB01DC010F
:1057900005900D920020E1F70895FB01DC010D90CA
:1057A0000020E9F7119701900D920020E1F708958C
:1057B0000F931F93CF93DF93CDB7DEB72E970FB61E
:1057C000F894DEBF0FBECDBF0D891E898F89988DDD
:1057D00026E02C831A83098397FF02C080E090E8BB
:1057E00001979E838D83CE014B96AC01698D7A8D96
:1057F000CE0101960E94152C4D815E8157FD0AC095
:105800002F813885421753070CF49A01F801E20FF3
:10581000F31F10822E960FB6F894DEBF0FBECDBFD9
:10582000DF91CF911F910F9108952F923F924F9248
:105830005F926F927F928F929F92AF92BF92CF9220
:10584000DF92EF92FF920F931F93CF93DF93CDB729
:10585000DEB72C970FB6F894DEBF0FBECDBF7C012C
:105860006B018A01FC0117821682838181FFC6C108
:1058700088248394912C8C0E9D1EF7019381F60150
:1058800093FD859193FF81916F01882309F4B2C143
:10589000853239F493FD859193FF81916F018532B3
:1058A00029F4B70190E00E944C2EE7CF512C312C07
:1058B00020E02032A8F48B3261F028F4803251F0DD
:1058C000833271F40BC08D3239F0803349F421609A
:1058D00028C02260246025C0286023C0206121C028
:1058E00027FD27C0382F30533A3078F426FF06C002
:1058F000FAE05F9E300D1124532E13C08AE0389ECB
:10590000300D1124332E20620CC08E3221F426FD7E
:1059100071C1206406C08C3611F4206802C088363C
:1059200041F4F60193FD859193FF81916F018111FF
:10593000C0CF982F9554933018F09052933028F49C
:105940000C5F1F4FFFE3F9830DC0833631F08337BF
:1059500071F0833509F05EC023C0F801808189832E
:105960000E5F1F4F44244394512C540115C038013D
:10597000F2E06F0E711CF801A080B18026FF03C019
:10598000652D70E002C06FEF7FEFC5012C870E948C
:10599000412E2C0183012C856FE7262E222218C070
:1059A0003801F2E06F0E711CF801A080B18026FF73
:1059B00003C0652D70E002C06FEF7FEFC5012C873B
:1059C0000E94362E2C012C8550E8252E222A830198
:1059D00023FC1CC006C0B70180E290E00E944C2E60
:1059E0003A94832D90E048165906A8F30FC0F501AC
:1059F00027FC859127FE81915F01B70190E00E940D
:105A00004C2E31103A94F1E04F1A510841145104D0
:105A100071F7EDC0843611F0893641F5F80127FFA2
:105A200007C060817181828193810C5F1F4F08C024
:105A300060817181882777FD8095982F0E5F1F4FB9
:105A40004FE6B42EB22297FF09C0909580957095CD
:105A500061957F4F8F4F9F4FF0E8BF2A2AE030E0DB
:105A6000A4010E94782EA82EA81843C0853731F4CF
:105A70003FEEB32EB2222AE030E024C099EFB92ED7
:105A8000B2228F36B9F020F4883509F0B3C00DC0CA
:105A9000803721F0883709F0ADC002C020E1B22A7A
:105AA000B4FE0BC084E0B82A08C024FF09C0E6E0B9
:105AB000BE2A06C028E030E005C020E130E002C088
:105AC00020E132E0F801B7FE07C060817181828178
:105AD00093810C5F1F4F06C06081718180E090E070
