:100000000C94DC010C94231A0C94541A0C94851A49
:100010000C94B61A0C94E71A0C94181B0C94491BF8
:100020000C947A1B0C940B020C940B020C940B0294
:100030000C9494030C940B020C940B020C94F0039C
:100040000C940B020C940B020C940B020C940B02FC
:100050000C940B020C940B020C940B020C94CB032B
:100060000C940B020C9456180C940B020C940B027B
:100070000C940B020C940B020C940B020C940B02CC
:100080000C940B020C940B020C940B020C940B02BC
:100090000C9491180C940B020C940B020C94841683
:1000A0000C940B020C940B020C940B020C940B029C
:1000B0000C940B020C940B020C940B020C940B028C
:1000C0000C940B020C940B020C940B02506F77658E
:1000D00072207465737400000008090000000000BD
:1000E0000000000000000000000000000000000010
:1000F0000000000000000000000000000000000000
:1001000000000000000000000000010208101020A4
:1001100040800408102040020204081020408001A2
:1001200002802040042001010204081020014080C8
:10013000408001020804088004100402010505053E
:100140000503030303010101040403060606060672
:10015000060606010405010501030202020202026D
:100160000102020505040403040401030407070750
:1001700000202326292C2F32002225282B2E313433
:10018000002124272A2D3033D901ED0113023A0230
:100190005A02720280029002A502BB02CC02D8026F
:1001A000DF02FC021A0330033E034E0371037703A0
:1001B00057726F6E672074696D6520666F726D612E
:1001C000742E204D757374206265202264643A6831
:1001D000683A6D6D3A73732200416C61726D204D07
:1001E0006F6465206D61746368657320005B4461B2
:1001F00079203A20686F757273203A206D696E75A8
:10020000746573203A207365636F6E64735D202D8F
:100210003E20005B44617465203A20686F757273FC
:10022000203A206D696E75746573203A207365639A
:100230006F6E64735D202D3E20005B486F75727396
:10024000203A206D696E75746573203A207365637A
:100250006F6E64735D202D3E20005B4D696E75747A
:100260006573203A207365636F6E64735D202D3E65
:1002700020005B5365636F6E64735D202D3E20002C
:100280004F6E636520706572207365636F6E6400E6
:10029000496E636F727265637420616C61726D2068
:1002A0006D6F6465005B253032753A253032753AE2
:1002B000253032753A253032755D005B2530327558
:1002C0003A253032753A253032755D005B25303283
:1002D000753A253032755D005B253032755D005B07
:1002E000446179203A20686F757273203A206D69F5
:1002F0006E75746573205D202D3E20005B44617433
:1003000065203A20686F757273203A206D696E75AA
:10031000746573205D202D3E20005B486F757273FD
:10032000203A206D696E757465735D202D3E200046
:100330005B4D696E757465735D202D3E20004F6EB8
:10034000636520706572206D696E75746500257334
:100350002C20253032752F253032752F25303275FF
:100360002C20253032753A253032753A25303275D9
:10037000006572726F720025303275256325303248
:100380007525632530327525632530327525632543
:10039000303275256325303275256325303275007E
:1003A0006364696E6F70737578585B001C08320B5C
:1003B000C21330205720672111241FBECFEFD1E296
:1003C000DEBFCDBF12E0A0E0B2E0EEE4F5E500E074
:1003D0000BBF02C007900D92AA37B107D9F719E0F9
:1003E000AAE7B2E001C01D92A53DB107E1F713E015
:1003F000C8EBD3E000E006C022970109FE010BBF65
:100400000E949923CC3AD10780E00807A9F70E94FF
:10041000C7130C94A52A0C9400008DE792E00E946B
:100420003C076CEC70E08DE792E00E94FE0740E034
:1004300060E08BE792E00E94700581ED92E00E94FF
:10044000F60F6BE072E081ED92E00C94BC10EF923D
:10045000FF920F931F93CF93DF93EC01F62EE42EC0
:10046000122F82E892E00E94570861E08DE20E941C
:10047000EF0260E08DE20E94080364E670E080E035
:1004800090E00E9467040BE00FC061E070E080E044
:1004900090E00E9467048BE792E00E94F60601500C
:1004A00019F460E272E036C08BE20E944E030197BD
:1004B00061F381ED92E00E94F60F2E2D4F2DBE01CB
:1004C00081ED92E00E94E412F090EF020091EE02C2
:1004D000D091ED02C091EC0281ED92E00E94480EB5
:1004E0008091EF02F8120CC08091EE02081308C050
:1004F0008091ED02D81304C08091EC02C817A1F0DE
:1005000081ED92E00E94B70F81ED92E00E947E0B98
:100510006FE272E08DE792E0DF91CF911F910F9132
:10052000FF90EF900C94DB0781ED92E00E947E0B30
:10053000612F8BE792E00E94F70583B7817F84608B
:1005400083BF83B7816083BF83B7816083BF889592
:1005500083B78E7F83BF83B78E7F83BF612F8BE787
:1005600092E00E94D30581ED92E00E94F60F81EDAA
:1005700092E00E94B70F81ED92E00E94E00F81EDC2
:1005800092E00E947E0B10FF16C061E08AE10E949B
:10059000EF0260E08AE10E94080361E088E10E94C6
:1005A000EF0260E088E1DF91CF911F910F91FF9002
:1005B000EF900C940803DF91CF911F910F91FF9062
:1005C000EF90089540E060E08BE792E00E947005B4
:1005D00023E040E060E089E392E00C94270290E0A1
:1005E000FC01E65FFE4F2491FC01E35CFE4FE491C9
:1005F000EE2369F0F0E0E058FE4FA491B0E08C915A
:10060000611103C02095822301C0822B8C93089531
:1006100090E0FC01E952FF4F2491FC01E65FFE4FA0
:100620003491FC01E35CFE4F84918823B1F12223D5
:1006300031F1233021F4909180009F7705C0243060
:1006400031F4909180009F7D9093800018C02130FC
:1006500019F494B59F7704C0223021F494B59F7D9E
:1006600094BD0DC0263021F49091B0009F7705C055
:10067000273029F49091B0009F7D9093B000E82F2F
:10068000F0E0E858FE4FA491B0E08C91611103C0F6
:100690003095832301C0832B8C93089590E0FC0157
:1006A000E952FF4F2491FC01E65FFE4F3491FC01BB
:1006B000E35CFE4F8491882399F1222331F12330AA
:1006C00021F4909180009F7705C0243031F49091FF
:1006D00080009F7D9093800018C0213019F494B55C
:1006E0009F7704C0223021F494B59F7D94BD0DC046
:1006F000263021F49091B0009F7705C0273029F46F
:100700009091B0009F7D9093B000E82FF0E0E05909
:10071000FE4FE491F0E08081832321E030E011F48A
:1007200020E030E0C90108951F920F920FB60F929A
:1007300011240BB60F922F933F934F935F936F93B8
:100740007F938F939F93AF93BF93EF93FF93F8940F
:1007500081E080930A02E0E6F0E080818068808397
:1007600080818F7B808360E083E00E94080378941F
:10077000FF91EF91BF91AF919F918F917F916F9179
:100780005F914F913F912F910F900BBE0F900FBE35
:100790000F901F9018951F920F920FB60F92112471
:1007A0008F939F93AF93BF938091BB059091BC05AE
:1007B000A091BD05B091BE050196A11DB11D80930C
:1007C000BB059093BC05A093BD05B093BE05BF913A
:1007D000AF919F918F910F900FBE0F901F90189522
:1007E0001F920F920FB60F9211248F939F93AF9386
:1007F000BF938091BF059091C005A091C105B091B4
:10080000C2050196A11DB11D8093BF059093C0053F
:10081000A093C105B093C205BF91AF919F918F91F5
:100820000F900FBE0F901F9018958F929F92AF92CE
:10083000BF92CF92DF92EF92FF920F931F93CF93CD
:10084000DF932FB7F8948091BB059091BC05A091E0
:10085000BD05B091BE052FBF9C01AD0160E070E009
:1008600080E090E001E00E9481234901D42FC52F50
:10087000B62FA72FF82FE92F02E00E9481235901FC
:100880006A017B018C0194014D2F5C2F6B2F7A2F15
:100890008F2F9E2F0E949023E9E0AE2EB12CC12C09
:1008A000D12CE12CF12C00E010E00E942423952FA4
:1008B000B901842FDF91CF911F910F91FF90EF909D
:1008C000DF90CF90BF90AF909F908F9008958F92C0
:1008D0009F92AF92BF92CF92DF92EF92FF924B0125
:1008E0005C0107C00E9415046C157D058E059F05EF
:1008F00020F40E9415046B017C010E9415046C1900
:100900007D098E099F09681579058A059B0550F3B5
:10091000FF90EF90DF90CF90BF90AF909F908F901F
:100920000895BC01049768F080E090E00E94A02147
:1009300026E636E646EE5FE30E942E220E947421F0
:1009400002C0660F771F6150710961F06150710933
:1009500049F0FB01EE0FFF1F31978FB7F8943197E5
:10096000F1F78FBF0895789484B7877F84BF109282
:10097000BB051092BC051092BD051092BE0584B552
:10098000826084BD84B5816084BD85B5826085BD8B
:1009900085B5816085BDEEE6F0E080818160808371
:1009A000E1E8F0E0808182608083808181608083E3
:1009B000E0E8F0E0808181608083E1EBF0E080811D
:1009C00084608083E1E9F0E0808184608083E0EBF3
:1009D000F0E0808181608083E0E9F0E080818160E7
:1009E0008083E4E6F0E080818E7F8083ECE7F0E0B6
:1009F00080818F778083808180648083EAE7F0E064
:100A0000808184608083808182608083808180682F
:100A100080831092C1001092C900089590917A02CB
:100A2000982B90937A0280FF32C0809164008E7F71
:100A30008093640080917C008F7780937C0080910C
:100A40007C00806480937C0080917A008460809335
:100A50007A0080917A00826080937A0080917A0097
:100A6000806880937A00809164008F77809364001F
:100A7000809164008B7F80936400809164008D7FFF
:100A800080936400809165008E7F80936500089557
:100A9000282F209590917A02922390937A0280FFDA
:100AA0001EC080917A008F7780937A0080916400D5
:100AB000816080936400809164008068809364000A
:100AC00080916400846080936400809164008260FF
:100AD0008093640080916500816080936500089533
:100AE0001F93CF93DF931F92CDB7DEB7162F61E030
:100AF0008AE149830E94EF0261E088E10E94EF02EF
:100B00004981112321F0113009F048C020C0411162
:100B10000EC061E08AE10E9408038091C3059091B4
:100B2000C405A091C505B091C60582602FC04130B3
:100B3000A9F560E08AE10E9408038091C3059091C5
:100B4000C405A091C505B091C6058D7F1FC0411198
:100B50000EC061E088E10E9408038091C305909176
:100B6000C405A091C505B091C60581600FC0413094
:100B7000A9F460E088E10E9408038091C305909188
:100B8000C405A091C505B091C6058E7F8093C305AD
:100B90009093C405A093C505B093C6050F90DF914F
:100BA000CF911F91089580917A00806880937A0098
:100BB00060FF10C061E08AE10E94EF0261E08AE11B
:100BC0000E94080361E088E10E94EF0261E088E191
:100BD0000C940803089561E089E20E94EF0261E04D
:100BE00088E20E94EF0283E892E00C94E1090F93FF
:100BF0001F93CF93DF93EC01162F61E081E30E94F6
:100C0000EF0260E081E30E94080361E089E20E9454
:100C1000EF0260E089E20E94080361E088E20E943E
:100C2000EF0260E088E20E94080380917A008F77EB
:100C300080937A0061E08DE10E94EF0260E08DE137
:100C40000E94080361E08BE10E94EF0260E08BE10B
:100C50000E94080361E082E20E94EF0260E082E20B
:100C60000E940803012F017010FF0EC041E060E0F8
:100C70008BE792E00E94700541E061E08BE792E033
:100C80000E94700510928A0280E00E94281811FFCD
:100C900019C061E086E10E94EF0260E086E10E94F7
:100CA00008034091C3055091C4056091C50570913A
:100CB000C6054B7F4093C3055093C4056093C5059B
:100CC0007093C60581E00E9428180023A1F080914E
:100CD000C3059091C405A091C505B091C60590FDCE
:100CE0000AC08091C3059091C405A091C505B0913B
:100CF000C60591FF72C081ED92E00E94450B61E054
:100D000080E30E94EF0260E080E30E940803CE01CE
:100D10000E94EB0561E089E10E94EF0260E089E159
:100D20000E9408034091C3055091C4056091C50518
:100D30007091C60544FF15C040E060E0CE010E94FE
:100D4000700561E08AE00E94EF0261E089E00E94A4
:100D5000EF0261E08AE00E94080361E089E00E94FE
:100D600008038091C3059091C405A091C505B09179
:100D7000C60586FF04C060E089E00E9408038091F8
:100D8000C3059091C405A091C505B091C60585FF26
:100D900018C060E084E00E94080360E082E00E94E6
:100DA000080360E087E00E94080360E08AE00E9498
:100DB000080360E086E00E94080360E08EE00E9485
:100DC000080360E08BE20E94EF0260E08BE2DF91BB
:100DD000CF911F910F910C94080361E086E00E946F
:100DE000EF0260E086E00E94080385CF61E08DE2BB
:100DF0000E94EF0260E08DE20E94080387E20E94F9
:100E00004E03892B41F081ED92E00E94F60F81EDB7
:100E100092E00E94E00F86E20E944E03019721F5C6
:100E200080EF93E00E942C208091F503823071F0D6
:100E300018F48130C9F405C0833069F08430A1F41E
:100E40000FC080EF93E00E94F91F0EC080EF93E087
:100E50000E94571F09C080EF93E00E94E91E04C062
:100E600080EF93E00E94AE1E60E08BE20E94EF02F2
:100E700060E08BE20C940803FC01408160E072ECBE
:100E800081E090E00E94B41761E087E10E94EF02E8
:100E900061E087E10E94080361E08BE00E94EF02BD
:100EA00060E08BE00E94080361E08DE20E94EF02A7
:100EB00060E08DE20C940803DC018091C50011967E
:100EC0008C9311978091C40012968C931297E2EC48
:100ED000F0E0808113968C9313978091CA0014964A
:100EE0008C93149780818F7D808380818F7E808317
:100EF0008081877F80834C9160E072EC81E090E09C
:100F00000E94B41761E087E10E94080360E08BE073
:100F10000C940803CF93DF93EC014091C3055091EB
:100F2000C4056091C5057091C60563E070E080E07E
:100F300090E042FF07C00E94670461E08BE00E94DE
:100F4000080302C00E94670489818093C5008A81DA
:100F50008093C4008B818093C2008C818093CA00EF
:100F6000DF91CF910895EF92FF920F931F93CF934C
:100F7000DF938C01EB010E945C077E0188E1E81A97
:100F80008CEFF80AFE0121968491882339F0F8014C
:100F900060810E94CC18CE15DF05A1F7C8010E9420
:100FA0008A0760E070E0CB01DF91CF911F910F9134
:100FB000FF90EF9008950F931F93CF93DF93EC0171
:100FC0008B010E945C076881C8010E94D918888142
:100FD0000E94CE18CE01DF91CF911F910F910C94FA
:100FE0008A07CF93DF93EC010E945C0788810E94FF
:100FF000CE18CE01DF91CF910C948A07EF92FF9229
:101000000F931F93CF93DF9300D0CDB7DEB77C0152
:101010000E94B3078C01C70169837A830E94F1079C
:1010200069817A81C8010F900F90DF91CF911F9154
:101030000F91FF90EF90089510927D0208951F93F5
:10104000CF93DF931F92CDB7DEB7162F61E0812FCC
:1010500049830E94EF024981413011F461E003C0ED
:10106000411108C060E0812F0F90DF91CF911F9157
:101070000C9408030F90DF91CF911F91089561E0C8
:1010800087E10E94EF0261E084E20E94EF0261E0EA
:1010900085E20E94EF0261E087E10E94080361E0BF
:1010A00084E20E94080361E085E20C94080361E099
:1010B00087E10E94EF0261E08BE00E94EF0260E0B6
:1010C00087E10E94080360E08BE00E94080360E073
:1010D00084E20E94080360E085E20C940803CB01DF
:1010E0000C9468298F929F92AF92BF92CF92DF9219
:1010F000EF92FF920F931F93CF93DF93CDB7DEB79D
:10110000C75FD1090FB6F894DEBF0FBECDBF8E0109
:1011100000511F4F580128E0A20EB11C7E0181E84A
:10112000E80EF11CCC24C394D12CCC0EDD1E6DE056
:10113000CE018F519F4F0E94F21D40E06CE082E88B
:1011400092E00E941F0840E06DE082E892E00E9479
:101150001F08F801108211821282138261E08CE074
:101160000E94EF0261E08CE00E940803CE018F51E3
:101170009F4F0E94D21C41E06DE082E892E00E9405
:101180001F086AE070E080E090E00E94670440E0A1
:1011900063E3CE018F519F4F0E94A31D62E370E075
:1011A00080E090E00E9467044701CE018F519F4F7D
:1011B0000E94781DF2E08F1A9108F4018083118259
:1011C00061E070E080E090E00E9467048C149D0470
:1011D00061F7FE017196D701C60180599F4F219199
:1011E00031912D933D93E817F907C9F731EE832E1E
:1011F000912C8C0E9D1E81E090E0A0E0B0E0F40107
:10120000329122914F012130310569F4F80140817A
:10121000518162817381480F591F6A1F7B1F408370
:10122000518362837383880F991FAA1FBB1F8E147B
:101230009F0429F7F80180819181A281B3818F3FBA
:101240009F4FAF4FBF4F29F4F801108211821282D5
:10125000138260E08CE00E94080340E06CE082E8CA
:1012600092E00E941F0840E06DE082E892E00E9458
:101270001F080C5F1F4F0A151B0509F058CFC051FE
:10128000DF4F088119812A813B81C05FD040CC505B
:10129000DF4F88819981AA81BB81C45FD040081744
:1012A00019072A073B0719F000E010E09801B80180
:1012B000C901C950DF4F0FB6F894DEBF0FBECDBFD6
:1012C000DF91CF911F910F91FF90EF90DF90CF9022
:1012D000BF90AF909F908F900895CF92DF92EF9242
:1012E000FF920E9472086B017C01611571058105F6
:1012F000910591F483EE90E00E9470296A302AE013
:1013000072078207920741F06F3F2FEF7207820743
:10131000920711F06B017C01B601C701FF90EF90BD
:10132000DF90CF9008958FED90E00E9468298F3F65
:1013300009F480E00895CF93DF93EC0180E2E1EBC4
:10134000F2E0DF01982F1D929A95E9F71092B00212
:101350001092AF02EEE8F2E0DF011D928A95E9F704
:1013600010928D0210928C020E94E31481E08E8311
:1013700084E090E0DF91CF910C94910481E0809320
:101380008B026093AE0210928D0210928C0208952F
:101390000C94BE098091AF029091B002891B089510
:1013A0009091B0028091AF02981748F4E92FF0E0D5
:1013B000EF54FD4F80819F5F9093B002089580E0CD
:1013C0000895CF93DF93EC010E942F151E82DF91C9
:1013D000CF9108954091C3055091C4056091C50512
:1013E0007091C6054170FC0140834091C305509146
:1013F000C4056091C5057091C605769567955795AA
:101400004795417041838091C3059091C405A09197
:10141000C505B091C60584FD49C08091C305909172
:10142000C405A091C505B091C60585FD3FC080915A
:10143000C3059091C405A091C505B091C60586FD70
:1014400035C08091C3059091C405A091C505B091A8
:10145000C60587FD2BC08091C3059091C405A0915E
:10146000C505B091C60590FD21C08091C30590913E
:10147000C405A091C505B091C60591FD17C0809126
:10148000C3059091C405A091C505B091C60593FD13
:101490000DC0089540E060E08BE792E00E94700587
:1014A00040E061E08BE792E00C94700580918A0245
:1014B000882381F30895CF93DF93EC018091C305D6
:1014C0009091C405A091C505B091C60584FD58C092
:1014D0008091C3059091C405A091C505B091C60542
:1014E00085FD4EC08091C3059091C405A091C505AE
:1014F000B091C60586FD44C08091C3059091C40596
:10150000A091C505B091C60587FD3AC08091C3057D
:101510009091C405A091C505B091C60590FD30C05D
:101520004091C3055091C4056091C5057091C605F1
:1015300051FD26C04091C3055091C4056091C50579
:101540007091C60553FD1CC020C041E060E08BE7F0
:1015500092E00E9470050CC08981811106C041E0B3
:1015600060E08BE792E00E947005888181110DC0D8
:1015700041E061E08BE792E0DF91CF910C94700540
:1015800080918A028111E8CFE0CFDF91CF91089559
:10159000CF93DF931F92CDB7DEB7698380918B0223
:1015A000882389F080918C028032D0F480918D0262
:1015B000E82FF0E0E257FD4F60838F5F80938D024C
:1015C00080938C020DC083E892E00E94EA0961E0FA
:1015D000CE0101960E94101583E892E00E945B0AFA
:1015E0000F90DF91CF9108950C94C80ACF9383E8B0
:1015F00092E00E94EA0921E040918C026EE872E0DC
:101600008091AE020E94D315C82F10928D021092C5
:101610008C0210928B0283E892E00E945B0A8C2F6E
:10162000CF910895CF93DF93D62FC42F83E892E014
:101630000E94EA09C13208F0C0E24C2F61EB72E06F
:101640008D2F0E943816D82F1092B002C093AF028F
:1016500083E892E00E945B0A8D2FDF91CF9108957D
:101660000C94120B10928A02109283021092840240
:101670008AEF90E0A0E0B0E080938502909386022C
:10168000A0938702B09388020895809189028823ED
:1016900041F08091F403811104C08BE792E00C9437
:1016A000EB0508950F931F93CF93DF93EC01042F65
:1016B00068A761E080E30E94EF0218A5112379F08A
:1016C000113091F461E080E30E940803013019F4C5
:1016D00082E08B8B09C0011107C01B8B05C060E045
:1016E00080E30E9408031B8A6AE070E080E090E0DB
:1016F000DF91CF911F910F910C946704CF93DF93EB
:10170000EC010E94450B40E060E0CE01DF91CF91FB
:101710000C94520BFC01148A158A168A178A108EB3
:10172000118E128E138E148E158E168E178E10A299
:1017300011A212A213A214A215A216A217A2089512
:10174000EF92FF920F931F93CF93DF93CDB7DEB746
:10175000EC970FB6F894DEBF0FBECDBF8C01EAEA5E
:10176000F1E085919491BC01EE24E394F12CEC0E10
:10177000FD1EC7010E94FC23ECEAF1E085919491E3
:10178000BC01CE0189960E94FC23F8018689843031
:1017900009F466C040F4823029F108F04BC0813072
:1017A00009F0B6C009C0863009F486C008F46EC0DE
:1017B000873009F0ADC096C0F801818D1F928F93DC
:1017C000808D1F928F9387891F928F93828D1F9296
:1017D0008F9385891F928F9384891F928F9385E4BD
:1017E00092E015C0F801818D1F928F93808D1F921A
:1017F0008F9387891F928F93828D1F928F938589F4
:101800001F928F9384891F928F9389E492E09F9314
:101810008F93FF92EF921F9284E68F93C80189966F
:101820009F938F930E9428240FB6F894DEBF0FBEBB
:10183000CDBF81C0F801818D1F928F93808D1F9243
:101840008F9387891F928F93828D1F928F938589A3
:101850001F928F9384891F928F938DE492E0D7CF4C
:10186000F801818D1F928F93808D1F928F938789AE
:101870001F928F93828D1F928F9385891F928F93D2
:1018800084891F928F9381E592E0C1CFF801818D09
:101890001F928F93808D1F928F9387891F928F93B2
:1018A000828D1F928F9385891F928F9384891F92B7
:1018B0008F9385E592E0ABCFF801818D1F928F93D6
:1018C000808D1F928F9387891F928F93828D1F9295
:1018D0008F9385891F928F9384891F928F9389E5B7
:1018E00092E095CFF801818D1F928F93808D1F928A
:1018F0008F9387891F928F93828D1F928F938589F3
:101900001F928F9384891F928F938DE592E07FCFF2
:10191000CE0189969F938F931F9284E68F93C8017F
:1019200089969F938F930E9428240F900F900F9079
:101930000F900F900F90075D1F4FC801EC960FB6E8
:10194000F894DEBF0FBECDBFDF91CF911F910F91F5
:10195000FF90EF900895CF92DF92EF92FF920F9356
:101960001F93CF93DF938C01C62E80918902811142
:1019700004C083E892E00E949B0968E670E083E877
:1019800092E00E94C80960E070E083E892E00E9463
:10199000F40A83E892E00E94F60A43E150E068E628
:1019A00070E083E892E00E94300BE12CF12CC0E063
:1019B000D0E0D12CE4C083E892E00E94D009F80185
:1019C000EC0FFD1F8083C630D10509F467C098F481
:1019D000C230D10509F43EC038F4209729F1C13056
:1019E000D10509F0C7C02BC0C430D10509F440C0EF
:1019F00008F049C03AC0CA30D10509F484C048F49F
:101A0000282F30E0C830D10509F461C008F06DC05E
:101A100050C0CC30D10509F492C008F482C0CD305A
:101A2000D10509F0A7C099C0982F92959F708F702B
:101A30002AE0929F800D1124F801818F9BC0982F7E
:101A400092959F708F70FAE09F9F800D1124F8018E
:101A5000808F90C0982F92959F708F70FAE09F9F13
:101A6000800D1124F801878B85C0F801868B82C018
:101A7000982F92959F708F70FAE09F9F800D112490
:101A8000F801828F77C0982F92959F708F70FAE03F
:101A90009F9F800D1124F801858B6CC0982F929523
:101AA0009F708F70FAE09F9F800D1124F801848B46
:101AB00061C054E0359527955A95E1F727708F70EE
:101AC000FAE02F9F800D1124F801838F53C044E06A
:101AD000359527954A95E1F727708F70FAE02F9F8B
:101AE000800D1124F801848F45C094E03595279529
:101AF0009A95E1F723708F70FAE02F9F800D1124E3
:101B0000F801858F37C0282F2695269526952670B3
:101B1000922F990F990F920F8F70980FF801968F4F
:101B200029C0282F2695269526952E70922F990F3D
:101B3000990F920F8F70980FF801978F1BC0282F65
:101B40002695269526952670922F990F990F920F1C
:101B50008F70980FF80190A30DC0282F2695269519
:101B600026952670922F990F990F920F8F70980FCC
:101B7000F80191A3219603C0FFEFEF1AFF0ACC16DC
:101B8000DD0658F02AE0E216F10438F483E892E02A
:101B90000E94CA09882381F30ECFDF91CF911F9154
:101BA0000F91FF90EF90DF90CF9008951F93CF9308
:101BB000DF93EC01162F80918902811104C083E824
:101BC00092E00E949B0968E670E083E892E00E9440
:101BD000C809612F83E892E00E94C80AC10FD11D95
:101BE000688183E892E00E94C80A83E892E0DF916E
:101BF000CF911F910C94F60AFF920F931F93CF93EE
:101C0000DF938C01F62E80918902811104C083E854
:101C100092E00E949B0968E670E083E892E00E94EF
:101C2000C8096F2D83E892E00E94C80A83E892E019
:101C30000E94F60A41E050E068E670E083E892E036
:101C40000E94300BCBE0D0E083E892E00E94CA090A
:101C5000811102C02197C1F783E892E00E94D00968
:101C6000F801EF0DF11D808383E892E0DF91CF91C1
:101C70001F910F91FF900C94F60ACF93DF93EC0124
:101C800066E00E94AB0CCE01DF91CF910C94A00BCB
:101C9000CF92DF92EF92FF920F931F93CF93DF9338
:101CA000CDB7DEB7C857D1090FB6F894DEBF0FBE67
:101CB000CDBF7C016AE00E94AB0C8701075D1F4F1E
:101CC00084E6F80111928A95E9F7E8E8F1E0859158
:101CD0009491BC01CE018F5A9F4F0E94FC23BE01FC
:101CE0006F5A7F4FC8010E940324F70182A18230FE
:101CF00009F46AC030F4882369F0813009F00BC11F
:101D000022C0843009F4C7C008F493C0853009F0BC
:101D100002C1F0C0EAE8F1E085919491BC01CE01E6
:101D20008F5A9F4F0E94FC23BE016F5A7F4FC801FC
:101D30000E940324E8E9F1E0859194916E01F9E2B3
:101D4000CF0ED11C18C0ECE8F1E085919491BC0154
:101D5000CE018F5A9F4F0E94FC23BE016F5A7F4FC6
:101D6000C8010E940324E8E9F1E0859194916E0195
:101D7000E9E2CE0ED11CBC01C6010E94FC23F70192
:101D8000838D1F928F93848D1F928F93858D1F92C9
:101D90008F93868D1F928F93DF92CF921F9288E24E
:101DA0008F93EE24E394F12CEC0EFD1EFF92EF9244
:101DB0000E942824B701C8010E9403240FB6F8949A
:101DC000DEBF0FBECDBFC2C0EEE8F1E085919491B9
:101DD000BC01CE018F5A9F4F0E94FC23BE016F5A57
:101DE0007F4FC8010E940324EAE9F1E085919491B4
:101DF0006E01E9E2CE0ED11CBC01C6010E94FC239B
:101E0000F701838D1F928F93848D1F928F93858D01
:101E10001F928F93DF92CF921F9288E28F93EE24CE
:101E2000E394F12CEC0EFD1EFF92EF920E94282409
:101E3000C1CFE0E9F1E085919491BC01CE018F5AC8
:101E40009F4F0E94FC23BE016F5A7F4FC8010E9422
:101E50000324ECE9F1E0859194916E01E9E2CE0E64
:101E6000D11CBC01C6010E94FC23F701838D1F9287
:101E70008F93848D1F928F93DF92CF921F9288E26F
:101E80008F93EE24E394F12CEC0EFD1EFF92EF9263
:101E90000E9428248FCFE2E9F1E085919491BC0162
:101EA000CE018F5A9F4F0E94FC23BE016F5A7F4F75
:101EB000C8010E940324EEE9F1E0859194916E013E
:101EC000E9E2CE0ED11CBC01C6010E94FC23F70141
:101ED000838D1F928F93DF92CF921F9288E28F9310
:101EE000EE24E394F12CEC0EFD1EFF92EF920E9483
:101EF000282460CFE4E9F1E085919491BC01CE0102
:101F00008F5A9F4F0E94FC23BE016F5A7F4FC8011A
:101F10000E9403241BC0E6E9F1E0859194917E01C3
:101F2000E1E5EE0EF11CBC01C7010E94FC23FF920B
:101F3000EF921F9284E68F931F930F930E942824A1
:101F40000F900F900F900F900F900F90C801C858EE
:101F5000DF4F0FB6F894DEBF0FBECDBFDF91CF913C
:101F60001F910F91FF90EF90DF90CF900895CF9346
:101F7000DF93EC016EE00E94FC0D8E858E7F8E87D4
:101F80006EE0CE01DF91CF910C94D60DCF93DF930D
:101F9000EC016EE00E94FC0D8E858D7F8E876EE0D9
:101FA000CE01DF91CF910C94D60DCF93DF93EC014E
:101FB0006FE00E94FC0D8F858370DF91CF910895B3
:101FC000CF93DF93EC010E94D50F882319F0CE56F2
:101FD000DF4F88838091E0028C7F8093E0026FE086
:101FE00081ED92E0DF91CF910C94D60DCF93DF93EA
:101FF000EC0140E061E00E94520BCE010E94E00F34
:10200000CE010E948A0B6DE0CE010E94AB0C61E014
:102010008BE20E94EF0260E08BE2DF91CF910C94A3
:102020000803362F862F6AE00E94B022292F832FC3
:1020300090E0821B91096AE070E00E94D022B4E037
:10204000660F771FBA95E1F7822F862B08950F93BD
:102050001F93CF93DF93EC0180918902811104C01B
:1020600083E892E00E949B0968E670E083E892E0D2
:102070000E94C80967E070E083E892E00E94F40AD9
:102080006B8DCE010E9411108F778F836C8DCE01E6
:102090000E9411108F7788876D8DCE010E941110DC
:1020A0008F7789876E8DCE010E9411108F738A877A
:1020B00000E010E0FE01E00FF11F678183E892E08D
:1020C0000E94C80A0F5F1F4F0430110599F783E87B
:1020D00092E0DF91CF911F910F910C94F60A0F932C
:1020E0001F93CF93DF93EC0180918902811104C08B
:1020F00083E892E00E949B0968E670E083E892E042
:102100000E94C80960E070E083E892E00E94F40A4F
:10211000698DCE010E9411108883688DCE010E94C6
:10212000111089836F89CE010E9411108A838E89D4
:102130008B836A8DCE010E9411108C836D89CE0134
:102140000E9411108D836C89CE010E9411108E8324
:1021500000E010E0699183E892E00E94C80A0F5FF6
:102160001F4F07301105B1F783E892E0DF91CF915F
:102170001F910F910C94F60AAF92BF92CF92DF920B
:10218000EF92FF920F931F93CF93DF93CDB7DEB7FC
:10219000ED970FB6F894DEBF0FBECDBF8C01B62E03
:1021A000A72E7E0129E2E20EF11C87E0F7011192D1
:1021B0008A95E9F7EEEAF1E085919491BC01CC248F
:1021C000C394D12CCC0EDD1EC6010E94FC23EB2D46
:1021D000FA2DDF010D900020E9F75597AE17BF07E4
:1021E00011F081E0C5C0CE01C0969F938F93CE01C0
:1021F0008E969F938F93CE01C2969F938F93CE011D
:102200008D969F938F93CE01C4969F938F93CE010B
:102210008C969F938F93CE01C6969F938F93CE01FA
:102220008B969F938F93CE01C8969F938F93CE01E9
:102230008A969F938F93CE01CA969F938F93FF9216
:10224000EF92CE01CC969F938F93DF92CF92AF9275
:10225000BF920E94652463E772E0C7010E940E24CA
:102260000FB6F894DEBF0FBECDBF892B09F4B9CFEE
:102270008CAD9DAD8436910508F0B3CFF801848B09
:102280002AAD3BADA901415051094C30510508F030
:10229000A8CF258B213061F0233051F0253041F05B
:1022A000273031F0283021F02A3011F02C3029F479
:1022B00088AD99AD809770F194CF243031F02630FD
:1022C00021F0293011F02B3029F488AD99AD4F97CA
:1022D00008F187CF2230F1F4282F2370B1F49C014C
:1022E0002053384FC90164E670E00E94D022892B48
:1022F00039F4C90160E971E00E94D022892B29F4E8
:1023000088AD99AD4E9730F06CCF88AD99AD4D97B3
:1023100008F067CF88AD99AD9C01215031092F316C
:10232000310508F05ECFF801828F8EA99FA99C012C
:10233000215031092730310508F053CF868B8CA905
:102340009DA98831910508F04CCF878B8AA99BA95C
:102350008C33910508F045CF808F88A999A98C33DB
:10236000910508F03ECF818FC8010E946F1080E078
:10237000ED960FB6F894DEBF0FBECDBFDF91CF91C3
:102380001F910F91FF90EF90DF90CF90BF90AF9093
:102390000895CF93DF93EC010E94B70FCE010E9406
:1023A000C60F62E070E080E090E00E94481CCE0121
:1023B000DF91CF910C94E00F1F93CF93DF93EC014B
:1023C000142F613009F086C08E8585608E876EE09F
:1023D000CE010E94D60D8F858C7F8F876FE0CE0156
:1023E0000E94D60D133009F44EC028F48F811130AD
:1023F00019F1C8F509C0153009F469C008F44DC0D9
:10240000163009F0D8C0CDC08F778F8367E0CE013A
:102410000E94D60D88858F77888768E0CE010E945C
:10242000D60D89858F77898769E0CE010E94D60D08
:102430008A858F77806448C08F778F8367E0CE016D
:102440000E94D60D88858F77888768E0CE010E942C
:10245000D60D89858F77898769E0CE010E94D60DD8
:102460008A858F7331C08F778F8367E0CE010E949A
:10247000D60D88858F77888768E0CE010E94D60DBB
:1024800089858F771AC08F818F778F8367E0CE0120
:102490000E94D60D88858F7709C08F818F778F83B3
:1024A00067E0CE010E94D60D88858068888768E045
:1024B000CE010E94D60D89858068898769E0CE01AA
:1024C0000E94D60D8A8580688A876AE066C08F81FF
:1024D0008068E5CF623009F06EC08E8586608E8799
:1024E0006EE0CE010E94D60D8F858C7F8F876FE0C6
:1024F000CE010E94D60D123089F130F4112359F02B
:10250000113009F058C019C01430A9F188F1153004
:1025100009F051C046C08B858F778B876BE0CE0169
:102520000E94D60D8C858F778C876CE0CE010E943F
:10253000D60D8D858F7780642EC08B858F778B87A6
:102540006BE0CE010E94D60D8C858F778C876CE076
:10255000CE010E94D60D8D858F731DC08B858F7720
:102560008B876BE0CE010E94D60D8C858F770CC0D7
:102570008B858F7702C08B8580688B876BE0CE015F
:102580000E94D60D8C8580688C876CE0CE010E94FD
:10259000D60D8D8580688D876DE0CE010E94D60DA9
:1025A0000AC08E85887F8E876EE0CE010E94D60D90
:1025B000CE010E94C91162E070E080E090E0DF91FE
:1025C000CF911F910C94AB1BCF92DF92FF920F9390
:1025D0001F93CF93DF931F92CDB7DEB76C018B01B2
:1025E000F22EDB010D900020E9F71C97A617B70724
:1025F00041F060EB71E08DE792E049830E94FE07B5
:102600004981F8018181805390819053FAE09F9F26
:10261000800D1124F601868FF80184818053938107
:102620009053FAE09F9F800D1124F601858FF801E9
:102630008781805396819053FAE09F9F800D1124EB
:10264000F601848FF8018285805391859053FAE0DA
:102650009F9F800D1124F601838F41117FC066E09A
:10266000C6010E94AB0CF601818D938D890F8C33CE
:1026700010F4838F06C08C53F601838F848D8F5F97
:10268000848FF601808D948D890F8C3310F4848FA4
:1026900006C08C53F601848F858D8F5F858FF60180
:1026A0008789958D890F883110F4858F06C08851F0
:1026B000F601858F868D8F5F868FF601968DF110DE
:1026C00009C08689890F868F883008F447C08750F3
:1026D000868F44C0F601328D390F368F858981305F
:1026E00061F0833051F0853041F0873031F088302F
:1026F00021F08A3011F08C3021F4303278F13F51E2
:102700002BC0843031F0863021F0893011F08B30CD
:1027100021F43F3118F13E511FC08230F9F4E091AD
:10272000E5028E2F8370A9F4F0E0E053F84FCF015B
:1027300064E670E00E94D022892B39F4CF0160E971
:1027400071E00E94D022892B21F43E3138F03D51B6
:1027500003C03D3118F03C51F601368FF601F2A26C
:1027600081ED92E00E9427104F2D61E081ED92E013
:102770000F90DF91CF911F910F91FF90DF90CF903D
:102780000C94DC11109262031092E40208950E94EE
:10279000B30482E892E00E949309853440F061E03E
:1027A00081E30E94EF0261E081E30E94080361E09F
:1027B00070E082E892E00E946F088130B1F480916D
:1027C000C3059091C405A091C505B091C605906858
:1027D0008093C3059093C405A093C505B093C60527
:1027E00060E081E090E00E94762987E20E944E033B
:1027F000892B59F160E070E082E892E00E946F0856
:102800008A3019F5C1C06CE3629FA001639F500D2F
:102810001124840F951F0EC02115310559F06CE36A
:10282000629FA001639F500D11249A01205F314FD8
:10283000820F931F039748F48091D2059091D3059E
:1028400080629093D3058093D20581ED92E00E943F
:10285000F60F81ED92E00E94B70F81ED92E00E94A9
:10286000C60F81ED92E00E947E0B63E070E080E095
:1028700090E00E9467048091C3059091C405A091E7
:10288000C505B091C605A1FF5EC063E070E080E0C1
:1028900090E00E94670461E086E10E94EF0263E03D
:1028A00070E080E090E00E94670461E086E10E94B1
:1028B000080363E070E080E090E00E9467040E94FB
:1028C0005B2063E070E080E090E00E94670481E0BC
:1028D0000E947E2063E070E080E090E00E94670448
:1028E00084E00E948C2063E070E080E090E00E9431
:1028F000670480E00E94872063E070E080E090E061
:102900000E9467040E947A2063E070E080E090E01B
:102910000E94670466E085EB95E00E94972063E0E3
:1029200070E080E090E00E94670461E086E10E9430
:10293000EF0260E086E10E94080363E070E080E05F
:1029400090E00E94670463E070E080E090E00E9405
:10295000670482E892E00E946D09609364037093BB
:10296000650380936603909367038091640390915D
:102970006503A0916603B09167030E94F1230E9452
:102980000D020E94E202FDCF81ED92E00E94F60F5F
:1029900081ED92E00E94480E81ED92E00E943D0E92
:1029A0008091EA0290E02091EC02821B9109209133
:1029B000E90230E04091ED02241B310912161306A2
:1029C0000CF421CF29CF10927103E4E6F0E080816E
:1029D0008F778083589A599AE9EBF0E080818E7F57
:1029E000808380818D7F808381E48093B80085E43B
:1029F0008093BC0080E2E2E7F3E0DF01982F1D92B4
:102A00009A95E9F7E2E9F3E0DF01982F1D929A9594
:102A1000E9F7E2EBF3E0DF011D928A95E9F708950B
:102A2000613298F420917103243089F460936E032D
:102A3000FC0182E993E0DC0102C021912D932A2F51
:102A4000281B2617D0F380E0089581E0089582E0E6
:102A5000089585EC8093BC001092710308955898F6
:102A600059988091B90081608093B9008091B90034
:102A700082608093B9008091BC0080688093BC0024
:102A80008091BC0080618093BC008091BC008F7BF2
:102A90008093BC008091BC008F7D8093BC008091AE
:102AA000BC00877F8093BC008091C3059091C405D2
:102AB000A091C505B091C60586FD14C08091C305DF
:102AC0009091C405A091C505B091C60590FD0AC0BE
:102AD0008091C3059091C405A091C505B091C6052C
:102AE00093FF04C08091BC008B7F03C08091BC0029
:102AF00084608093BC008091BC008E7F8093BC007A
:102B0000809164008068809364000895882349F070
:102B1000109268031092690310926A0310926B037B
:102B200013C08091680390916903A0916A03B091EA
:102B30006B030196A11DB11D8093680390936903F7
:102B4000A0936A03B0936B0380916803909169032B
:102B5000A0916A03B0916B03803A9648A140B105F9
:102B600060F0109268031092690310926A03109249
:102B70006B030E94E31481E0089580E0089585EDE1
:102B80008093BC0081E00E94861508C080E00E940E
:102B90008615882319F01092710308958091BC0066
:102BA00084FDF4CFF8CFFF920F931F93CF93DF9361
:102BB000182F062FF72EC42FD22F81E0413208F0B4
:102BC00051C00E94861515C080E00E94861588239A
:102BD00081F082E0809371038FEF80936C031092F9
:102BE0007003C093D203E02FFF2D62E773E0DB0197
:102BF00007C0809171038111E7CFEBCF81918D9355
:102C00008A2F861B8C17D0F3812F90E0880F991F95
:102C10008093D30385EE8093BC0081E00E948615EB
:102C2000D11105C080916C038F3F59F414C080917D
:102C300071038230B9F780E00E94861581110DC0C2
:102C4000F6CF80916C03803251F080916C03803319
:102C500041F483E007C080E005C085E003C082E066
:102C600001C084E0DF91CF911F910F91FF900895F3
:102C70000F931F93CF93DF93082FD62F172FC42FB7
:102C800081E04132E0F50E9486151DC080E00E947F
:102C900086158823C1F081E0809371038FEF8093C4
:102CA0006C0310927003C093D203802F90E0880FC2
:102CB000991F81608093D30385EE8093BC0081E0EF
:102CC0000E94861510C0809171038111DFCFE3CF80
:102CD00080E00E948615882331F082E793E0ED2F93
:102CE000F12FDC0107C080917103813089F3F5CFAA
:102CF0002D9121932A2F281B2C17D0F380E0DF91F0
:102D0000CF911F910F9108951F920F920FB60F92BE
:102D100011240BB60F922F933F934F935F936F93B2
:102D20007F938F939F93AF93BF93CF93EF93FF9333
:102D3000C091B900C87FC03609F49FC058F5C832A9
:102D400009F45BC090F4C03109F452C038F4CC23CC
:102D500009F4F2C0C83009F0F3C04AC0C83109F420
:102D60004CC0C03209F0ECC05DC0C03409F473C07F
:102D700038F4C03309F45BC0C83309F0E1C05AC06D
:102D8000C03509F45CC0C83509F46AC0C83409F01C
:102D9000D7C0D4C0C83909F4C5C0A8F4C83709F4ED
:102DA0006CC038F4C83609F468C0C03709F0C8C030
:102DB00064C0C83809F4B6C0C03909F464C0C0386A
:102DC00009F0BEC060C0C03B09F484C038F4C03A0A
:102DD00009F46BC0C83A09F0B3C07CC0C03C09F428
:102DE000A5C0C83C09F4A2C0C83B09F0A9C087C06F
:102DF0008091D3038093BB0013C0909170038091A6
:102E0000D203981708F09AC080917003E82FF0E081
:102E1000EE58FC4F90819093BB008F5F80937003BE
:102E200085EC81C00E94BF15C0936C0389C0C0931C
:102E30006C0384C0C0936C030E94291581C08091EB
:102E400070039091BB00E82FF0E0EE58FC4F9083A8
:102E50008F5F80937003909170038091D2035FC065
:102E6000809170039091BB00E82FF0E0EE58FC4F8A
:102E700090838F5F8093700361C083E080937103C0
:102E800010926D03CDCF80916D03803208F04AC05F
:102E900080916D039091BB00E82FF0E0EE54FC4F61
:102EA00090838F5F80936D03BBCF80916D038032E1
:102EB00030F4E0916D03F0E0EE54FC4F108260912D
:102EC0006D03E091D403F091D50370E082EB93E0C1
:102ED00009952CC084E08093710310926F031092C7
:102EE0006E03E091D603F091D703099580916E03AC
:102EF000811105C081E080936E031092920380914E
:102F00006F03E82FF0E0EE56FC4F90819093BB00EA
:102F10008F5F80936F0390916F0380916E0398177A
:102F200008F47ECF85E88093BC000AC085EC8093CE
:102F3000BC001092710304C010926C030E94BF1574
:102F4000FF91EF91CF91BF91AF919F918F917F9121
:102F50006F915F914F913F912F910F900BBE0F900A
:102F60000FBE0F901F901895CF92DF92EF92FF92B5
:102F70006B017C01411134C088E00E940E05C7013D
:102F8000B60122E030E040E050E00E940623305FCE
:102F9000414F5F4FCA01B901A70196010E94062364
:102FA000DA01C9010197A109B109892F9A2FAB2F25
:102FB000BB27A7FDBA958093C50021502093C4007C
:102FC0008091C10080618093C1008091C1008860C0
:102FD0008093C1008091C10080688093C10033C09C
:102FE00080E10E940E05C701B60122E030E040E01A
:102FF00050E00E940623305F414F5F4FCA01B90184
:10300000A70196010E940623DA01C9010197A109CF
:10301000B109892F9A2FAB2FBB27A7FDBA958093B3
:10302000CD0021502093CC008091C9008061809315
:10303000C9008091C90088608093C9008091C9004F
:1030400080688093C900FF90EF90DF90CF90089543
:1030500081110EC088E00E9448058091C1008F7EDA
:103060008093C1008091C100877F8093C100089543
:1030700080E10E9448058091C9008F7E8093C9003D
:103080008091C900877F8093C9000895611107C0AE
:103090009091C00095FFFCCF8093C6000895909159
:1030A000C80095FFFCCF8093CE0008951F920F9229
:1030B0000FB60F9211242F933F934F935F936F930B
:1030C0007F938F939F93AF93BF93EF93E091C6004D
:1030D0002091DE033091DF03C901019660E072E0C8
:1030E0000E94D0224091DC035091DD0384179507A4
:1030F00041F0D901AB52B84FEC939093DF0380932A
:10310000DE03EF91BF91AF919F918F917F916F916E
:103110005F914F913F912F910F900FBE0F901F9095
:1031200018951F920F920FB60F9211242F933F9371
:103130004F935F936F937F938F939F93AF93BF93BF
:10314000EF93E091CE002091DA033091DB03C901C7
:10315000019660E072E00E94D0224091D803509125
:10316000D9038417950741F0D901AB52BA4FEC93BC
:103170009093DB038093DA03EF91BF91AF919F911E
:103180008F917F916F915F914F913F912F910F9010
:103190000FBE0F901F9018950C944618CF93C82F10
:1031A000682F8DE00E9446186C2F8AE0CF910C9416
:1031B00046181F93CF93DF93162FEC0103C0612FA6
:1031C0000E94461889918111FACFDF91CF911F910A
:1031D0000895F8948091CF059091D00580FF18C094
:1031E00086E20E944E03892B99F08091D1058F5F72
:1031F0008093D1058091D2059091D3058160909301
:10320000D3058093D2058091C7058F5F8093C70552
:103210008091CF059091D00581FF18C087E20E9470
:103220004E03892B99F08091D1058F5F8093D10552
:103230008091D2059091D30582609093D3058093BD
:10324000D2058091C8058F5F8093C8058091CF0516
:103250009091D00583FF1CC088E00E944E03892B0B
:10326000B9F08091D1058F5F8093D10560E085E052
:103270000E9408038091D2059091D30588609093B5
:10328000D3058093D2058091CA058F5F8093CA05CC
:103290008091CF059091D00587FF18C08DE20E94E4
:1032A0004E03892B99F08091D1058F5F8093D105D2
:1032B0008091D2059091D30580689093D305809337
:1032C000D2058091CD058F5F8093CD058091CF058C
:1032D0009091D00590FF18C082E10E944E03892B87
:1032E00099F08091D1058F5F8093D1058091D205AF
:1032F0009091D30591609093D3058093D2058091EE
:10330000CE058F5F8093CE058091CF059091D0053B
:1033100084FF18C089E00E944E03892B99F48091A4
:10332000D1058F5F8093D1058091D2059091D3050F
:1033300080619093D3058093D2058091CB058F5FF8
:103340008093CB0578940895E82FF0E0EE0FFF1FEF
:10335000E052FC4F71836083823029F130F488237E
:1033600051F0813009F046C010C0833059F18430EB
:1033700009F040C036C0E898809169008C7F842BAA
:1033800080936900E09AE89A0895E998809169002D
:10339000440F551F440F551F837F842B8093690072
:1033A000E19AE99A0895EA988091690024E0440F2F
:1033B000551F2A95E1F78F7C842B80936900E29A50
:1033C000EA9A0895EB988091690096E0440F551FA2
:1033D0009A95E1F78F73842B80936900E39AEB9AB7
:1033E0000895EC9880916A008C7F842B80936A000A
:1033F000E49AEC9A0895F894883018F5833091F0A7
:1034000020F4813059F060F407C0863079F08730BD
:1034100079F0843071F408C0E8980BC0E99809C0CD
:10342000EA9807C0EB9805C0EC9803C0EE9801C07D
:10343000EF98E82FF0E0EE0FFF1FE052FC4F1182F3
:103440001082789408951F920F920FB60F92112454
:103450000BB60F922F933F934F935F936F937F938E
:103460008F939F93AF93BF93EF93FF938091E0036C
:103470009091E103892B29F0E091E003F091E103C1
:103480000995FF91EF91BF91AF919F918F917F919E
:103490006F915F914F913F912F910F900BBE0F90C5
:1034A0000FBE0F901F9018951F920F920FB60F929C
:1034B00011240BB60F922F933F934F935F936F930B
:1034C0007F938F939F93AF93BF93EF93FF938091DD
:1034D000E2039091E303892B29F0E091E203F0915C
:1034E000E3030995FF91EF91BF91AF919F918F9168
:1034F0007F916F915F914F913F912F910F900BBEF4
:103500000F900FBE0F901F9018951F920F920FB63D
:103510000F9211240BB60F922F933F934F935F930B
:103520006F937F938F939F93AF93BF93EF93FF938B
:103530008091E4039091E503892B29F0E091E40365
:10354000F091E5030995FF91EF91BF91AF919F91A4
:103550008F917F916F915F914F913F912F910F903C
:103560000BBE0F900FBE0F901F9018951F920F92D9
:103570000FB60F9211240BB60F922F933F934F93D8
:103580005F936F937F938F939F93AF93BF93EF93CB
:10359000FF938091E6039091E703892B29F0E09156
:1035A000E603F091E7030995FF91EF91BF91AF9189
:1035B0009F918F917F916F915F914F913F912F914B
:1035C0000F900BBE0F900FBE0F901F9018951F927B
:1035D0000F920FB60F9211240BB60F922F933F93B9
:1035E0004F935F936F937F938F939F93AF93BF930B
:1035F000EF93FF938091E8039091E903892B29F0E1
:10360000E091E803F091E9030995FF91EF91BF91F3
:10361000AF919F918F917F916F915F914F913F916A
:103620002F910F900BBE0F900FBE0F901F9018950B
:103630001F920F920FB60F9211240BB60F922F9379
:103640003F934F935F936F937F938F939F93AF932A
:10365000BF93EF93FF938091EA039091EB03892B43
:1036600029F0E091EA03F091EB030995FF91EF91C6
:10367000BF91AF919F918F917F916F915F914F918A
:103680003F912F910F900BBE0F900FBE0F901F9088
:1036900018951F920F920FB60F9211240BB60F922E
:1036A0002F933F934F935F936F937F938F939F934A
:1036B000AF93BF93EF93FF938091EC039091ED0351
:1036C000892B29F0E091EC03F091ED030995FF912E
:1036D000EF91BF91AF919F918F917F916F915F918A
:1036E0004F913F912F910F900BBE0F900FBE0F90F7
:1036F0001F9018951F920F920FB60F9211240BB6C0
:103700000F922F933F934F935F936F937F938F937A
:103710009F93AF93BF93EF93FF938091EE039091AC
:10372000EF03892B29F0E091EE03F091EF03099567
:10373000FF91EF91BF91AF919F918F917F916F9189
:103740005F914F913F912F910F900BBE0F900FBE45
:103750000F901F901895CF92DF92EF92FF926B011E
:103760007C018091CF059091D0058C299D29909363
:10377000D0058093CF05C0FE0FC060E08BE20E94B1
:10378000EF0260E086E20E94EF0243E050E069EE63
:1037900078E182E00E94A419C1FE0FC060E08BE2D4
:1037A0000E94EF0260E087E20E94EF0243E050E0F7
:1037B00069EE78E182E00E94A419C2FE0FC061E0C8
:1037C00083E00E94EF0261E083E00E94080342E090
:1037D00050E069E87CE184E00E94A419C3FE0FC0B8
:1037E00060E08BE20E94EF0260E088E00E94EF025E
:1037F00043E050E069EE78E182E00E94A419C4FE43
:103800000BC060E08BE20E94EF0243E050E069EE03
:1038100078E182E00E94A419C6FE0FC060E084E057
:103820000E94EF0260E08CE20E94EF0242E050E072
:1038300069E87CE183E00E94A419C7FE0FC060E044
:103840008DE20E94EF0260E08BE20E94EF0243E013
:1038500050E069EE78E182E00E94A419D0FE13C026
:1038600060E08BE20E94EF0260E082E10E94EF02E2
:1038700043E050E069EE78E182E0FF90EF90DF9066
:10388000CF900C94A419FF90EF90DF90CF90089503
:10389000CF92DF92EF92FF926B017C01F89460FF70
:1038A00003C082E00E94FB19C1FE03C082E00E94B7
:1038B000FB19C2FE03C084E00E94FB19C3FE03C0D3
:1038C00082E00E94FB19C4FE03C082E00E94FB1943
:1038D000C7FE03C082E00E94FB19D0FE03C082E055
:1038E0000E94FB19C6FE03C083E00E94FB19809171
:1038F000CF059091D005C094D094C822D922D092FF
:10390000D005C092CF057894FF90EF90DF90CF90D4
:103910000895F8948091CF059091D00586FF1EC040
:1039200084E00E944E03892BC9F48091D1058F5FFA
:103930008093D1058091D2059091D30580649093B6
:10394000D3058093D2058091CC058F5F8093CC0501
:1039500060E470E080E090E00E94481C8091CF0518
:103960009091D00582FF1CC083E00E944E03892BFA
:10397000B9F48091D1058F5F8093D1058091D205F4
:103980009091D30584609093D3058093D205809164
:10399000C9058F5F8093C90561E083E00E94080339
:1039A00078940895CF92DF92EF92FF921F93CF9376
:1039B000DF93EC0160E08E850E94EF020E94150407
:1039C0006B017C011EE7115089F182E090E00E94BA
:1039D00091040E9415046C157D058E059F0520F449
:1039E0000E9415046B017C018E850E944E03892B79
:1039F000F9F40E9415046C197D098E099F09643F32
:103A0000714081059105F8F213C00E9415046B0105
:103A10007C011130C1F10E9415046C197D098E09D9
:103A20009F09643F714081059105D0F010E02BC0E3
:103A300061E08E850E94EF0260E08E850E9408039F
:103A400084E591E00E9491040E9415046B017C01C1
:103A50008E850E944E0311E0892BD9F210E0D9CF58
:103A60008E850E944E0311E0892B09F010E089E059
:103A700090E00E9491040E9415046C157D058E054E
:103A80009F0538F6C2CF812FDF91CF911F91FF9014
:103A9000EF90DF90CF9008951F93CF93DF93FC01B9
:103AA0001081C181D281912F9095F8948A818923C8
:103AB0008A838981812B898360FF0BC089E090E034
:103AC0000E9491048A81812B8A8378948FE290E00E
:103AD0000AC087E390E00E9491048A81812B8A8347
:103AE000789485E090E0DF91CF911F910C94910440
:103AF0000F931F93CF93DF93FC011081C181D2817B
:103B0000F8948981812B89838A81012F00958023F4
:103B10008A8382E090E00E949104898180238983D6
:103B200087E090E00E949104C88178948DE290E053
:103B30000E9491041C2381E009F480E0DF91CF9181
:103B40001F910F910895CF92DF92EF92FF920F9302
:103B50001F93CF93DF931F92CDB7DEB76C01E62E94
:103B600008E010E0FF24F3949F2D9E2161E009F40A
:103B700060E0C60149830E944C1DFF0C01501109F1
:103B800049810115110581F7411115C0F894D6013D
:103B90001196ED91FC91129791818C9180958923DA
:103BA00081831196ED91FC91129792818C91809571
:103BB0008923828378940F90DF91CF911F910F9189
:103BC000FF90EF90DF90CF900895FC01138615864B
:103BD0001486128611861086178216821582148228
:103BE00013820895CF93DF93EC01862F6E8760E0F8
:103BF0000E94EF028E8590E0FC01E65FFE4FE491AB
:103C0000E883FC01E35CFE4FE491F0E0E059FE4FF5
:103C1000E491E9831A82CE01DF91CF910C94E51DE6
:103C2000FC019B018181843051F0883061F0823049
:103C300081F484E0769567958A95E1F70CC0CB0115
:103C40006FE170E003C0CB016FE370E00E94BC2223
:103C500002C086810895862F668330872783089562
:103C60001F93CF93DF93EC01162F8A818E7F8A8377
:103C700069E170E083E892E00E94C809612F83E85F
:103C800092E00E94C80A83E892E00E94F60A41E0AE
:103C900050E069E170E083E892E00E94300B83E835
:103CA00092E00E94CA09882339F083E892E00E94DA
:103CB000D009282F30E005C08A8181608A832FEFE8
:103CC0003FEFC901DF91CF911F9108950F931F938B
:103CD000CF93DF93EC01162F042F8A818D7F8A8387
:103CE00069E170E083E892E00E94C809612F83E8EF
:103CF00092E00E94C80A602F83E892E00E94C80AFE
:103D000083E892E00E94F60A612FCE010E94301EE5
:103D1000402F50E08417950729F08A8182608A83BA
:103D200080E001C081E0DF91CF911F910F91089554
:103D3000CF93DF93EC0140E062E20E94661E61E3F4
:103D4000CE010E94301E61E070E080E090E00E94B1
:103D5000481C1D828A81DF91CF910895CF93DF9314
:103D6000EC010E94981E44E062E2CE010E94661EB1
:103D700041E262E3CE010E94661E40E063E3CE01B1
:103D80000E94661E4FEF60E3CE010E94661E61E056
:103D900070E080E090E00E94AB1B84E08D838A811C
:103DA000DF91CF910895CF93DF93EC0140E062E281
:103DB0000E94661E61E3CE010E94301E61E070E049
:103DC00080E090E00E94481C1D828A81DF91CF91A3
:103DD0000895CF93DF93EC010E94D31E44E062E28A
:103DE000CE010E94661E40E362E3CE010E94661E81
:103DF00040E063E3CE010E94661E4FE760E3CE0120
:103E00000E94661E61E070E080E090E00E94AB1BC3
:103E100083E08D838A81DF91CF910895CF93DF93E3
:103E2000EC0140E062E20E94661E61E3CE010E9466
:103E3000301E61E070E080E090E00E94481C1D822E
:103E40008A81DF91CF9108950F931F93CF93DF93D2
:103E5000EC018B010E940E1F40E062E2CE010E9445
:103E6000661EB801CE010E94101E482F62E3CE01EB
:103E70000E94661E40E063E3CE010E94661E44E09D
:103E800061E2CE010E94661E4AE260E3CE010E941A
:103E9000661E61E070E080E090E00E94AB1B82E073
:103EA0008D838A81DF91CF911F910F910895FC013D
:103EB000678170850C94241FCF93DF93EC0140E061
:103EC00062E20E94661E61E3CE010E94301E61E044
:103ED00070E080E090E00E94481C1D828A81DF91A2
:103EE000CF9108951F93CF93DF93EC01162F688332
:103EF0006430E1F030F4623081F0B0F4613021F5EB
:103F000006C06630B9F0A0F06730F1F415C047E2A2
:103F100060E20E94661E1C8305C040E060E20E94D1
:103F2000661E1C8281E011C047E407C047E605C059
:103F300047E803C047EA01C047EC60E2CE010E94B7
:103F4000661E81E08C8301C080E0DF91CF911F91DC
:103F50000895CF93DF93EC0140E861E20E94661E72
:103F600061E070E080E090E00E94670440E061E280
:103F7000CE01DF91CF910C94661E0F931F93CF93C8
:103F8000DF93EC018B010E94A91F64E670E080E0E2
:103F900090E00E946704CE010E945C1F40E061E255
:103FA000CE010E94661E44E062E2CE010E94661EBF
:103FB000B801CE010E94101E482F62E3CE010E947C
:103FC000661E43E063E3CE010E94661E45E960E39E
:103FD000CE010E94661E81E08D8361E070E080E08A
:103FE00090E00E94AB1B8A81DF91CF911F910F91CE
:103FF0000895FC01678170850C94BD1F1F93CF93BA
:10400000DF93EC01162F80918902811104C083E8AF
:1040100092E00E949B0981E0888361E0CE010E94CA
:10402000721F1983143031F0183031F0123049F416
:1040300040E003C040E101C040E363E2CE010E94E2
:10404000661E61E08BE20E94EF0260E08BE2DF918E
:10405000CF911F910C940803FC0161810C94FE1F09
:104060001092F50382E08093F1038CE18093F603D4
:1040700080EC91E09093F8038093F7030895FC019E
:10408000128A118E138EDC01A356BE4F89E1119660
:104090008C93119714961C92DF01AE55BE4F1C9263
:1040A00012961C92E956FE4F11821082089589EFF4
:1040B00093E00C943F2061E08EE10E94EF0261E00A
:1040C0008FE10E94EF0261E08DE10E94EF0260E06B
:1040D0008EE10E94080360E08FE10E94080361E026
:1040E0008DE10E9408038CB580618CBD8CB5806425
:1040F0008CBD08958CB58F7B8CBD0895811103C054
:104100008CB5806202C08CB58F7D8CBD08959CB546
:10411000937F982B9CBD08952CB5982F93702C7F7E
:10412000922B9CBD9DB580FB90F99DBD0895CF93CA
:10413000C62F61E08DE10E94EF0261E082E20E9401
:10414000EF0261E08DE10E94080361E082E20E94DB
:1041500008038091C3059091C405A091C505B09155
:10416000C605A2FF08C061E088E00E94EF0261E09E
:1041700088E00E9408038091C3059091C405A09136
:10418000C505B091C60596FF08C061E089E00E94B0
:10419000EF0261E089E00E9408038091C3059091DD
:1041A000C405A091C505B091C605A3FF08C061E094
:1041B00082E00E94EF0261E082E00E9408038091A9
:1041C000C3059091C405A091C505B091C605A4FF93
:1041D00008C061E082E20E94EF0261E082E20E9498
:1041E0000803C330C9F020F4C13061F070F407C097
:1041F000C53061F1F0F0C63009F067C033C060E04F
:104200008DE160C060E082E25DC082E892E00E94E1
:104210003F0860E08CE256C08091C3059091C405D0
:10422000A091C505B091C605A2FF4FC060E088E02F
:1042300049C08091C3059091C405A091C505B09176
:10424000C60596FF42C060E089E03CC08091C3058E
:104250009091C405A091C505B091C605A3FF35C0D6
:1042600060E02FC061E08DE10E94080361E082E21E
:104270000E9408038091C3059091C405A091C505D3
:10428000B091C605A2FF04C061E088E00E94080367
:104290008091C3059091C405A091C505B091C60554
:1042A00096FF04C061E089E00E9408038091C30585
:1042B0009091C405A091C505B091C605A3FF05C0A6
:1042C00061E082E0CF910C940803CF9108951092A1
:1042D000B6051092B5051092B7051092B805109268
:1042E000B9051092BA05089598D088F09F5790F0BC
:1042F000B92F9927B751A0F0D1F0660F771F881F0B
:10430000991F1AF0BA95C9F712C0B13081F09FD049
:10431000B1E008959CC0672F782F8827B85F39F0E7
:10432000B93FCCF3869577956795B395D9F73EF469
:1043300090958095709561957F4F8F4F9F4F089511
:10434000E89409C097FB3EF490958095709561952F
:104350007F4F8F4F9F4F9923A9F0F92F96E9BB27E5
:104360009395F695879577956795B795F111F8CF61
:10437000FAF4BB0F11F460FF1BC06F5F7F4F8F4FCC
:104380009F4F16C0882311F096E911C0772321F0C2
:104390009EE8872F762F05C0662371F096E8862F5A
:1043A00070E060E02AF09A95660F771F881FDAF7B1
:1043B000880F9695879597F9089597F99F6780E8F4
:1043C00070E060E008959FEF80EC089500240A9467
:1043D0001616170618060906089500240A941216E0
:1043E0001306140605060895092E0394000C11F413
:1043F000882352F0BB0F40F4BF2B11F460FF04C0C0
:104400006F5F7F4F8F4F9F4F089557FD9058440F18
:10441000551F59F05F3F71F04795880F97FB991F23
:1044200061F09F3F79F087950895121613061406E0
:10443000551FF2CF4695F1DF08C01616170618066D
:10444000991FF1CF86957105610508940895E89448
:10445000BB2766277727CB0197F908950BD0C4CFE8
:10446000B5DF28F0BADF18F0952309F0A6CFABCF5F
:104470001124EECFCADFA0F3959FD1F3950F50E042
:10448000551F629FF001729FBB27F00DB11D639F06
:10449000AA27F00DB11DAA1F649F6627B00DA11DAC
:1044A000661F829F2227B00DA11D621F739FB00D52
:1044B000A11D621F839FA00D611D221F749F3327C2
:1044C000A00D611D231F849F600D211D822F762F5B
:1044D0006A2F11249F5750408AF0E1F088234AF058
:1044E000EE0FFF1FBB1F661F771F881F91505040A4
:1044F000A9F79E3F510570F060CFAACF5F3FECF364
:10450000983EDCF3869577956795B795F795E7958F
:104510009F5FC1F7FE2B880F911D9695879597F9A0
:104520000895A29FB001B39FC001A39F01D0B29F85
:10453000700D811D1124911D08950E949122A59F47
:10454000900DB49F900DA49F800D911D112408958E
:10455000B7FF0C949D220E949D22821B930B08950D
:10456000991B79E004C0991F961708F0961B881FC5
:104570007A95C9F780950895AA1BBB1B51E107C026
:10458000AA1FBB1FA617B70710F0A61BB70B881FE3
:10459000991F5A95A9F780959095BC01CD01089572
:1045A00097FB072E16F4009407D077FD09D00E94E0
:1045B000BC2207FC05D03EF4909581959F4F08954D
:1045C000709561957F4F0895A1E21A2EAA1BBB1B1F
:1045D000FD010DC0AA1FBB1FEE1FFF1FA217B307CF
:1045E000E407F50720F0A21BB30BE40BF50B661FE5
:1045F000771F881F991F1A9469F7609570958095A9
:1046000090959B01AC01BD01CF010895052E97FB4C
:1046100016F4009407D057FD0DD00E94E42207FC49
:1046200009D07EF490958095709561957F4F8F4F5E
:104630009F4F089550954095309521953F4F4F4F8E
:104640005F4F0895689401C0E8948F929F92CF9332
:10465000DF930E943023DF91CF919F908F90089538
:1046600088249924F401E401B0E49F93AA279A15C1
:104670008B049C04ED05FE05CF05D007A10798F437
:10468000AD2FDC2FCF2FFE2FE92D982C892E982FC0
:10469000872F762F652F542F432F322F2227B85084
:1046A00031F7BF9127C01B2EBF91BB27220F331FAD
:1046B000441F551F661F771F881F991F881C991C50
:1046C000EE1FFF1FCC1FDD1FAA1FBB1F8A149B04F8
:1046D000EC05FD05CE05DF05A007B10748F08A18F7
:1046E0009B08EC09FD09CE09DF09A00BB10B216085
:1046F0001A94E1F62EF49401AF01BE01CD01000C35
:1047000008950F930F7351F0220F331F441F551F4D
:10471000661F771F881F991F0A95B1F70F9108959B
:104720002A0D3B1D4C1D5D1D6E1D7F1D801F911FA1
:1047300008950790F691E02D09948F929F92AF9281
:10474000BF92CF92DF92EF92FF92CF93DF93EC0173
:10475000688179818A819B81611571058105910547
:1047600021F464E279ED8BE597E02DE133EF41E050
:1047700050E00E94062349015A019B01AC01A7EABF
:10478000B1E40E949D226B017C01ACEEB4EFA50167
:1047900094010E94AB22C60ED71EE81EF91EF7FE3A
:1047A00006C081E0C81AD108E10880E8F80AC8828A
:1047B000D982EA82FB82E894D7F8EE24FF24C6016E
:1047C000DF91CF91FF90EF90DF90CF90BF90AF90AF
:1047D0009F908F9008950C949D2386E092E00C9416
:1047E0009D23A0E0B0E08093060290930702A0937F
:1047F0000802B09309020895FB01DC0105900D92B7
:104800000020E1F70895FB01DC010D900020E9F79D
:10481000119701900D920020E1F70895FB0151914D
:104820005523A9F0BF01DC014D9145174111E1F776
:1048300059F4CD010190002049F04D9140154111EE
:10484000C9F3FB014111EFCF81E090E0019708959A
:104850000F931F93CF93DF93CDB7DEB72E970FB68D
:10486000F894DEBF0FBECDBF0D891E898F89988D4C
:1048700026E02C831A83098397FF02C080E090E82A
:1048800001979E838D83CE014B96AC01698D7A8D05
:10489000CE0101960E9487244D815E8157FD0AC09A
:1048A0002F813885421753070CF49A01F801E20F63
:1048B000F31F10822E960FB6F894DEBF0FBECDBF49
:1048C000DF91CF911F910F910895CF93DF93CDB7D3
:1048D000DEB72E970FB6F894DEBF0FBECDBF85E0D2
:1048E0008C838B899C899A838983CE014796AC01FE
:1048F0006D897E89CE0101960E943A282E960FB6C8
:10490000F894DEBF0FBECDBFDF91CF9108952F92F7
:104910003F924F925F926F927F928F929F92AF924F
:10492000BF92CF92DF92EF92FF920F931F93CF939C
:10493000DF93CDB7DEB72C970FB6F894DEBF0FBE6E
:10494000CDBF7C016B018A01FC0117821682838135
:1049500081FFC6C188248394912C8C0E9D1EF70183
:104960009381F60193FD859193FF81916F018823D7
:1049700009F4B2C1853239F493FD859193FF819199
:104980006F01853229F4B70190E00E94ED29E7CF4D
:10499000512C312C20E02032A8F48B3261F028F425
:1049A000803251F0833271F40BC08D3239F0803394
:1049B00049F4216028C02260246025C0286023C0FB
:1049C000206121C027FD27C0382F30533A3078F4BA
:1049D00026FF06C0FAE05F9E300D1124532E13C04F
:1049E0008AE0389E300D1124332E20620CC08E32A6
:1049F00021F426FD71C1206406C08C3611F42068B4
:104A000002C0883641F4F60193FD859193FF8191B0
:104A10006F018111C0CF982F9554933018F09052A8
:104A2000933028F40C5F1F4FFFE3F9830DC08336EA
:104A300031F0833771F0833509F05EC023C0F8018F
:104A4000808189830E5F1F4F44244394512C54016D
:104A500015C03801F2E06F0E711CF801A080B18022
:104A600026FF03C0652D70E002C06FEF7FEFC50128
:104A70002C870E94A2292C0183012C856FE7262E0A
:104A8000222218C03801F2E06F0E711CF801A080DC
:104A9000B18026FF03C0652D70E002C06FEF7FEF8D
:104AA000C5012C870E9497292C012C8550E8252EC2
:104AB000222A830123FC1CC006C0B70180E290E0DB
:104AC0000E94ED293A94832D90E048165906A8F3E8
:104AD0000FC0F50127FC859127FE81915F01B70189
:104AE00090E00E94ED2931103A94F1E04F1A5108FC
:104AF0004114510471F7EDC0843611F0893641F547
:104B0000F80127FF07C060817181828193810C5F6A
:104B10001F4F08C060817181882777FD8095982F8D
:104B20000E5F1F4F4FE6B42EB22297FF09C090953B
:104B30008095709561957F4F8F4F9F4FF0E8BF2A0A
:104B40002AE030E0A4010E94342AA82EA81843C00D
:104B5000853731F43FEEB32EB2222AE030E024C094
:104B600099EFB92EB2228F36B9F020F4883509F0CA
:104B7000B3C00DC0803721F0883709F0ADC002C046
:104B800020E1B22AB4FE0BC084E0B82A08C024FF9A
:104B900009C0E6E0BE2A06C028E030E005C020E1FA
:104BA00030E002C020E132E0F801B7FE07C06081CA
:104BB0007181828193810C5F1F4F06C0608171817A
:104BC00080E090E00E5F1F4FA4010E94342AA82EBF
:104BD000A818FFE7BF22B6FE0BC02B2D2E7FA51411
:104BE00050F4B4FE0AC0B2FC08C02B2D2E7E05C0C6
:104BF0007A2C2B2D03C07A2C01C0752C24FF0DC0FC
:104C0000FE01EA0DF11D8081803311F4297E09C077
:104C100022FF06C07394739404C0822F867809F033
:104C2000739423FD14C020FF0FC05A2C731460F43A
:104C3000530C5718732C08C0B70180E290E02C8702
:104C40000E94ED2973942C857314B0F304C073147F
:104C500010F4371801C0312C24FF12C0B70180E3D3
:104C600090E02C870E94ED292C8522FF1EC021FF99
:104C700003C088E590E002C088E790E0B7010CC06F
:104C8000822F867891F021FD02C080E201C08BE284
:104C900027FD8DE2B70190E00E94ED2906C0B70123
:104CA00080E390E00E94ED295A94A514C0F3AA94E1
:104CB000F401EA0DF11DB701808190E00E94ED2919
:104CC000A110F5CF06C0B70180E290E00E94ED2967
:104CD0003A943110F8CF43CEF7012681378102C0D4
:104CE0002FEF3FEFC9012C960FB6F894DEBF0FBE31
:104CF000CDBFDF91CF911F910F91FF90EF90DF908B
:104D0000CF90BF90AF909F908F907F906F905F906B
:104D10004F903F902F90089520FD09C0FC0123FD86
:104D200005C022FF02C073836283518340830895CC
:104D3000CF92DF92EF92FF920F931F9344FD10C02A
:104D400046FD10C0DB01FC01AA0FBB1FEE1FFF1FB9
:104D50001094D1F76A0F7B1F8E1F9F1F31E003C095
:104D600033E001C034E0660F771F881F991F315070
:104D7000D1F76B017C01C20ED11CE11CF11C970123
:104D80008601B601C9011F910F91FF90EF90DF904E
:104D9000CF9008950F931F93CF93DF938C01C80199
:104DA0000E94AD29EC0197FD08C00E948429892B3F
:104DB000B1F7B801CE010E94192ACE01DF91CF913F
:104DC0001F910F9108958F929F92AF92CF92DF9291
:104DD000EF92FF920F931F93CF93DF93EC01A62ED8
:104DE0004A01022F0E94AD29AC0155274B325105D3
:104DF00021F04D32510551F40068AA9411F480E07D
:104E000063C0CE010E94AD2997FDF9CF102F1D7F01
:104E1000302F3073E1F48033D1F4AA9409F440C008
:104E2000CE010E94AD2997FD3BC0883711F088352F
:104E300049F41264AA94A1F1CE010E94AD2997FF12
:104E400006C02EC006FF02C0126001C01261C12C54
:104E5000D12C7601282F2053283080F014FF04C075
:104E6000BE010E94192A19C02A3040F016FFF8CF5F
:104E70002F7D322F3151363098F72750412FC701FF
:104E8000B6010E9498266B017C011260AA9459F029
:104E9000CE010E94AD2997FFDDCF11FD04C0AFCF39
:104EA000C12CD12C760117FF08C0F094E094D09467
:104EB000C094C11CD11CE11CF11C212FB701A6011B
:104EC000C4010E948C2681E0DF91CF911F910F9148
:104ED000FF90EF90DF90CF90AF909F908F900895CC
:104EE0006F927F929F92AF92BF92CF92DF92EF929A
:104EF000FF920F931F93CF93DF93CDB7DEB7A197A8
:104F00000FB6F894DEBF0FBECDBF6C017A018901E8
:104F1000FE01319680E2DF011D928A95E9F7D60104
:104F200013969C9020E030E0A12CA0E0B12CCF01A2
:104F300041E050E0F80193FC759193FE71918F016F
:104F4000711103C000E010E080C07E3519F4211516
:104F5000310559F1EB2DF0E0E217F3073CF47D3514
:104F600069F17D3219F4AA2319F103C0A11101C01E
:104F7000A72EE72FE695E695E6953C016E0E711C8F
:104F8000F301A72FA7703A0102C0660C771CAA95FF
:104F9000E2F7D301B081BA2BB0837A1559F07A15B4
:104FA00010F47F5FE6CF7150E4CFBB24B39403C00D
:104FB000A1E001C0A0E02F5F3F4FBCCFAA2319F0B2
:104FC0008E8180628E83B11003C0BB24B3940BC06A
:104FD000FE013196CE018196208120952193E8171C
:104FE000F907D1F7F2CFC60169A30E94AD2969A1E3
:104FF00097FD24C0282F269526952695E1E0F0E020
:10500000EC0FFD1FE20FF11D208130E0AC01477075
:10501000552702C0359527954A95E2F720FD04C033
:10502000B6010E94192A0AC0E114F10419F0D7014F
:105030008D937D016150B12CB1F602C0B11082CFC9
:10504000E114F10411F0F7011082C801A1960FB626
:10505000F894DEBF0FBECDBFDF91CF911F910F91AE
:10506000FF90EF90DF90CF90BF90AF909F907F9098
:105070006F9008954F925F927F928F929F92AF921E
:10508000BF92CF92DF92EF92FF920F931F93CF9335
:10509000DF931F92CDB7DEB78C012B017A01FC01A3
:1050A00017821682A12CF0C08C2D90E00E948429DA
:1050B000892B21F0C8010E94CA26E6C0F5E2CF1272
:1050C0000AC0F201D3FC3591D3FE31912F01353264
:1050D00071F455E2C52EC8010E94AD2997FDDFC0CD
:1050E000C81609F4D1C0B8010E94192ADAC03A32B0
:1050F00041F4D3FC3591D3FE31912F01BB24B394FD
:1051000001C0B12C712C10C0F2E0BF2A672D70E0F5
:1051100080E090E040E20E949826762EF201D3FCD7
:105120003591D3FE31912F01232F20532A3060F384
:10513000B1FE03C0711003C0B4C077247A9438362E
:1051400019F03C3699F40AC0F201D3FC3591D3FE34
:1051500031912F01383651F4F8E0BF2A84E0B82AA3
:10516000F201D3FC3591D3FE31912F01332309F4A1
:1051700098C0632F70E080EA93E039830E948C2905
:105180003981892B09F48DC0B0FC07C0F701C080BC
:10519000D18082E0E80EF11C02C0C12CD12C3E3639
:1051A00051F4F8014681578160E070E02B2DC60173
:1051B0000E948C2669C0333691F4B1FC02C077247A
:1051C0007394C8010E94AD2997FD69C0C114D10430
:1051D00019F0F60181936F017A9499F753C03B352A
:1051E00059F49201A601672DC8010E9470272C0175
:1051F000009709F047C041C0C80139830E94CA2600
:10520000398197FD4CC03F3659F128F4343629F1E5
:10521000393649F52AC0333719F0353721F51DC025
:10522000C8010E94AD294C0197FD11C00E9484293C
:10523000892B29F0B801C4010E94192A08C0C114A1
:10524000D10419F0F60181926F017A9449F7C114E3
:10525000D104C1F0F601108215C0F0E2BF2A05C0EA
:1052600080E1B82A02C090E4B92A2B2DA601672D4F
:10527000C8010E94E326811105C0F8018381807373
:1052800071F40FC0B0FEA394F801D380F201D3FCF7
:10529000C590D3FEC1902F01C11006CF02C0AA2035
:1052A00019F02A2D30E002C02FEF3FEFC9010F9017
:1052B000DF91CF911F910F91FF90EF90DF90CF90F2
:1052C000BF90AF909F908F907F905F904F90089588
:1052D000F999FECF92BD81BDF89A992780B50895BE
:1052E000A6E1B0E044E050E00C94942A262FF9990E
:1052F000FECF1FBA92BD81BD20BD0FB6F894FA9AB9
:10530000F99A0FBE0196089591111CC1803219F0CF
:1053100089508550D0F70895FC010590061621F0BC
:105320000020D9F7C00108953197CF010895FC01FD
:105330000590615070400110D8F7809590958E0FC0
:105340009F1F0895FC016150704001900110D8F733
:10535000809590958E0F9F1F0895CF93DF93EC015A
:105360003B8130FF34C036FF0AC03F7B3B838E81D8
:105370009F8101969F838E832A8130E02AC032FF6D
:105380000FC0E881F9818081992787FD909500976A
:1053900019F430623B831BC03196F983E8830EC059
:1053A000EA85FB85099597FF09C02B81019611F4C9
:1053B00080E101C080E2822B8B8309C02E813F8176
:1053C0002F5F3F4F3F832E839C01332702C02FEF77
:1053D0003FEFC901DF91CF9108950F931F93CF93B2
:1053E000DF938C01EB018B8181FD03C00FEF1FEF79
:1053F0001AC082FF0DC02E813F818C819D812817AC
:10540000390764F4E881F9810193F983E88306C0E0
:10541000E885F985802F0995892B41F78E819F8139
:1054200001969F838E83C801DF91CF911F910F91C9
:105430000895FB01238120FF13C026FD11C08F3F7B
:105440003FEF930769F082832F7D206423832681B9
:10545000378121503109378326839C01332702C0CD
:105460002FEF3FEFC9010895FA01AA27283051F123
:10547000203181F1E8946F936E7F6E5F7F4F8F4F85
:105480009F4FAF4FB1E03ED0B4E03CD0670F781FE4
:10549000891F9A1FA11D680F791F8A1F911DA11DC9
:1054A0006A0F711D811D911DA11D20D009F4689402
:1054B0003F912AE0269F11243019305D3193DEF6AA
:1054C000CF010895462F4770405D4193B3E00FD060
:1054D000C9F7F6CF462F4F70405D4A3318F0495D4B
:1054E00031FD4052419302D0A9F7EACFB4E0A6952E
:1054F0009795879577956795BA95C9F70097610550
:10550000710508959B01AC010A2E069457954795A5
:1055100037952795BA95C9F7620F731F841F951F9A
:10552000A01D0895DC01CB01FC01F999FECF06C056
:10553000F2BDE1BDF89A319600B40D924150504051
:0E554000B8F70895992788270895F894FFCFAB
:10554E000000D5092000010000000131323A303749
:10555E003A31373A30323A31373A32353A30300022
:10556E00696E74657272757074206661696C005232
:10557E005443206661696C210030303A30303A3045
:10558E00313A30300053756E004D6F6E00547565B4
:10559E000057656400546875004672690053617463
:1055AE0000496E76616C696420474D542076616CBB
:0A55BE007565003A3A3A3A3A3A00AD
:00000001FF
