:100000000C94A6020C94E0160C9411170C94421751
:100010000C9473170C94A4170C94D5170C94061811
:100020000C9437180C94D5020C94D5020C94D5027C
:100030000C94A3040C94D5020C94D5020C94FF04E8
:100040000C94D5020C94D5020C94D5020C94D502D4
:100050000C94D5020C94D5020C94D5020C94DA04BD
:100060000C94D5020C9473190C94D5020C94D502FF
:100070000C94D5020C94D5020C94D5020C94D502A4
:100080000C94D5020C94D5020C94D5020C94D50294
:100090000C94AE190C94D5020C94D5020C94B015A6
:1000A0000C94D5020C94D5020C94D5020C94D50274
:1000B0000C94D5020C94D5020C94D5020C94D50264
:1000C0000C94D5020C94D5020C94D5022D2D2D2D17
:1000D0002D2D2D2D2D2D2D2D2D2D2D2D2D2D2D2D50
:1000E0002D2D2D2D2D2D2D2D2D2D2D2D2D2D2D2D40
:1000F000000A2D2D2D2D2D2D2D2D2D2D2D2D2D2D80
:100100002D2D2D2D2D2D2D2D2D2D2D2D2D2D2D2D1F
:100110002D2D2D2D2D2D002D2D2D2D2D2D2D2D2D3C
:100120002D2D2D2D2D2D2D2D2D2D2D2D2D2D2D2DFF
:100130002D2D2D2D2D2D2D2D2D2D2D002D2D2D2D1C
:100140002D2D2D2D2D2D2D2D2D2D2D2D2D2D2D2DDF
:100150002D2D2D2D2D2D2D2D2D2D2D2D2D2D2D2DCF
:100160000048656C6C6F20776F726C640057617328
:10017000706D6F74652069732068657265002D2D40
:100180002D2D2D2D2D2D2D2D2D2D2D2D2D2D2D2D9F
:100190002D2D2D2D2D2D2D2D2D2D2D2D2D2D2D2D8F
:1001A0002D2D002D2D2D2D2D2D2D2D2D2D2D2D2DAC
:1001B0002D2D2D2D2D2D2D2D2D2D2D2D2D2D2D2D6F
:1001C0002D2D2D2D2D2D2D005761697420666F72F8
:1001D000203130207365636F6E647320746F2072FA
:1001E00065636569766520636861722066726F6D0C
:1001F000205043007768656E20612063686172203B
:1002000069732072656365697665642C2077617314
:10021000706D6F74652073656E64732069742074EB
:100220006F2050430052656365697665643A20002B
:100230000A2D2D2D2D2D2D2D2D2D2D2D2D2D2D2D11
:100240002D2D2D2D2D2D2D2D2D2D2D2D2D2D2D2DDE
:100250002D2D2D2D2D002B2B2B2B2B2B2B2B2B2B0F
:100260002B2B2B2B2B2B2B2B2B2B2B2B2B2B2B2BDE
:100270002B2B2B2B2B2B2B2B2B2B2B2B2B2B2B2BCE
:100280002B2B2B2B2B2B2B2B2B2B2B2B2B2B2B2BBE
:100290002B2B2B2B2B2B2B2B2B2B2B2B2B2B00C73D
:1002A00002DB0201032803480360036E037E03930D
:1002B00003A903BA03C603CD03EA0308041E042CF2
:1002C000043C045F046504416C61726D204D6F64F1
:1002D00065206D61746368657320005B44617920FB
:1002E0003A20686F757273203A206D696E75746577
:1002F00073203A207365636F6E64735D202D3E201A
:10030000005B44617465203A20686F757273203A0F
:10031000206D696E75746573203A207365636F6E26
:1003200064735D202D3E20005B486F757273203A28
:10033000206D696E75746573203A207365636F6E06
:1003400064735D202D3E20005B4D696E757465738E
:10035000203A207365636F6E64735D202D3E20002C
:100360005B5365636F6E64735D202D3E20004F6E9E
:10037000636520706572207365636F6E6400496EFB
:10038000636F727265637420616C61726D206D6F52
:100390006465005B253032753A253032753A253078
:1003A00032753A253032755D005B253032753A255D
:1003B0003032753A253032755D005B253032753A42
:1003C000253032755D005B253032755D005B446120
:1003D00079203A20686F757273203A206D696E75C6
:1003E000746573205D202D3E20005B4461746520A0
:1003F0003A20686F757273203A206D696E75746566
:1004000073205D202D3E20005B486F757273203A8B
:10041000206D696E757465735D202D3E20005B4D07
:10042000696E757465735D202D3E20004F6E6365A7
:1004300020706572206D696E7574650025732C20BF
:10044000253032752F253032752F253032752C200E
:10045000253032753A253032753A253032750065CF
:1004600072726F7200253032752563253032752522
:10047000632530327525632530327525632530328A
:1004800075256325303275256325303275000000EF
:10049000080900000000000000000000000000004B
:1004A000000000000000000000000000000000004C
:1004B000000000000000000000000000000000003C
:1004C00000010208101020408004081020400202A1
:1004D0000408102040800102802040042001010215
:1004E00004081020014080408001020804088004B4
:1004F00010040201050505050303030301010104BE
:1005000004030606060606060606010405010501A3
:1005100003020202020202010202050504040304AE
:100520000401030407070700202326292C2F32008B
:100530002225282B2E3134002124272A2D30330068
:100540000C0D1D0EFE10FC13B51A891C11241FBEC4
:10055000CFEFD1E2DEBFCDBF13E0A0E0B2E0ECEB25
:10056000F6E400E00BBF02C007900D92A036B10781
:10057000D9F71AE0A0E6B3E001C01D92A13CB10793
:10058000E1F715E0CCE4D5E000E006C022970109D0
:10059000FE010BBF0E94A01FC034D10780E00807F6
:1005A000A9F70E9424070C945C230C940000089582
:1005B0000F931F9384E094E00E942A0E6EE484E07F
:1005C00094E00E94ED106DE084E094E00E94ED1054
:1005D0006AE084E094E00E94ED106CEC70E084E04E
:1005E00094E00E9477106FE172E084E094E00E9452
:1005F000DA106BE272E084E094E00E94DA1061EFBE
:1006000070E084E094E00E9477106FE172E084E093
:1006100094E00E9454106BE272E084E094E00E9447
:10062000541067E171E084E094E00E9477106EE47A
:1006300070E084E094E00E942D1022E030E04EE46F
:1006400050E060E070E084E094E00E94F00F28E069
:1006500030E04EE450E060E070E084E094E00E941E
:10066000F00F2AE030E04EE450E060E070E084E01B
:1006700094E00E94F00F20E130E04EE450E060E0B2
:1006800070E084E094E00E94F00F40E156E06EE9F3
:100690007FE384E094E00E9495106CE371E084E0D5
:1006A00094E00E94771061E671E084E094E00E949B
:1006B00077106DE671E084E094E00E9477106EE7B9
:1006C00071E084E094E00E9477108FE192E09F93C4
:1006D0008F938CE392E09F938F9304E014E01F9339
:1006E0000F930E94EB0E0E9424059F938F937F939C
:1006F0006F9380E492E09F938F931F930F930E94D8
:10070000EB0E80911D028F9380911C028F938DE4DC
:1007100092E09F938F931F930F930E94EB0E809113
:100720001D028F9380911C028F938EE592E09F9320
:100730008F931F930F930E94EB0E80911D028F9356
:1007400080911C028F938BE692E09F938F931F936F
:100750000F930E94EB0E8DB79EB780960FB6F8945C
:100760009EBF0FBE8DBF80911B028F9380911A0296
:100770008F938DE792E09F938F931F930F930E9427
:10078000EB0E809119028F93809118028F9385EA66
:1007900092E09F938F931F930F930E94EB0E809193
:1007A00017028F93809116028F938EEA92E09F93A7
:1007B0008F931F930F930E94EB0E809115028F93DE
:1007C000809114028F93809113028F938091120273
:1007D0008F9386ED92E09F938F931F930F930E94C8
:1007E000EB0E809111028F93809110028F93809174
:1007F0000F028F9380910E028F9388EE92E09F9369
:100800008F931F930F930E94EB0E8DB79EB7829626
:100810000FB6F8949EBF0FBE8DBF80910D028F93CF
:1008200080910C028F9380910B028F9380910A022A
:100830008F9387E193E09F938F931F930F930E9471
:10084000EB0E63EA71E0C8010E947710C8010E94B4
:10085000850E68EC71E0C8010E94771064EF71E0CA
:10086000C8010E94771065E272E0C8010E94260F5D
:100870000E94240560936203709363038093640372
:10088000909365038DB79EB708960FB6F8949EBFF8
:100890000FBE8DBF32C084E094E00E945E0E8823BC
:1008A00099F084E094E00E94760E90936103809327
:1008B0006003AC01662757FD6095762F20E030E09D
:1008C00084E094E00E94A0100E942405009162033D
:1008D00010916303209164033091650360177107E1
:1008E0008207930750F40E9424056093620370937B
:1008F000630380936403909365030E942405009131
:100900006203109163032091640330916503601BBF
:10091000710B820B930B603177428105910508F4CE
:10092000BACF60E372E084E094E00E94771066E55D
:1009300072E084E094E00E94771084E094E01F91DC
:100940000F910C944A0E1F920F920FB60F92112422
:100950000BB60F922F933F934F935F936F937F93B9
:100960008F939F93AF93BF93EF93FF93F89481E09E
:1009700080931E02E0E6F0E08081806880838081C1
:100980008F7B808360E083E00E9498067894FF91DB
:10099000EF91BF91AF919F918F917F916F915F91F7
:1009A0004F913F912F910F900BBE0F900FBE0F9064
:1009B0001F9018951F920F920FB60F9211248F93CC
:1009C0009F93AF93BF938091A7069091A806A091A3
:1009D000A906B091AA060196A11DB11D8093A70694
:1009E0009093A806A093A906B093AA06BF91AF91D1
:1009F0009F918F910F900FBE0F901F9018951F928F
:100A00000F920FB60F9211248F939F93AF93BF93C2
:100A10008091AB069091AC06A091AD06B091AE0668
:100A20000196A11DB11D8093AB069093AC06A093D7
:100A3000AD06B093AE06BF91AF919F918F910F908D
:100A40000FBE0F901F9018958F929F92AF92BF92FA
:100A5000CF92DF92EF92FF920F931F93CF93DF938A
:100A60002FB7F8948091A7069091A806A091A906A7
:100A7000B091AA062FBF9C01AD0160E070E080E05C
:100A800090E001E00E94881F4901D42FC52FB62FA6
:100A9000A72FF82FE92F02E00E94881F59016A0151
:100AA0007B018C0194014D2F5C2F6B2F7A2F8F2FA0
:100AB0009E2F0E94971FE9E0AE2EB12CC12CD12CA5
:100AC000E12CF12C00E010E00E942B1F952FB901C2
:100AD000842FDF91CF911F910F91FF90EF90DF90C6
:100AE000CF90BF90AF909F908F9008958F929F92DC
:100AF000AF92BF92CF92DF92EF92FF924B015C01D7
:100B000007C00E9424056C157D058E059F0520F405
:100B10000E9424056B017C010E9424056C197D094B
:100B20008E099F09681579058A059B0550F3FF908A
:100B3000EF90DF90CF90BF90AF909F908F900895EF
:100B4000BC01049768F080E090E00E948F1D26E6CB
:100B500036E646EE5FE30E94411E0E94631D02C01E
:100B6000660F771F6150710961F06150710949F09A
:100B7000FB01EE0FFF1F31978FB7F8943197F1F714
:100B80008FBF0895789484B7877F84BF1092A7069B
:100B90001092A8061092A9061092AA0684B5826047
:100BA00084BD84B5816084BD85B5826085BD85B511
:100BB000816085BDEEE6F0E0808181608083E1E8C0
:100BC000F0E0808182608083808181608083E0E8C2
:100BD000F0E0808181608083E1EBF0E080818460DF
:100BE0008083E1E9F0E0808184608083E0EBF0E0E5
:100BF000808181608083E0E9F0E080818160808392
:100C0000E4E6F0E080818E7F8083ECE7F0E0808195
:100C10008F778083808180648083EAE7F0E0808141
:100C2000846080838081826080838081806880830B
:100C30001092C1001092C900089590916603982BFC
:100C40009093660380FF32C0809164008E7F809312
:100C5000640080917C008F7780937C0080917C0081
:100C6000806480937C0080917A00846080937A0015
:100C700080917A00826080937A0080917A00806807
:100C800080937A00809164008F77809364008091D4
:100C900064008B7F80936400809164008D7F8093DB
:100CA0006400809165008E7F809365000895282FF1
:100CB00020959091660392239093660380FF1EC057
:100CC00080917A008F7780937A00809164008160B0
:100CD00080936400809164008068809364008091B8
:100CE00064008460809364008091640082608093DB
:100CF000640080916500816080936500089590E0B4
:100D0000FC01EF53FB4F2491FC01EC50FB4FE491AD
:100D1000EE2369F0F0E0E95CFA4FA491B0E08C9129
:100D2000611103C02095822301C0822B8C9308950A
:100D300090E0FC01E257FB4F2491FC01EF53FB4F85
:100D40003491FC01EC50FB4F84918823B1F12223B4
:100D500031F1233021F4909180009F7705C0243039
:100D600031F4909180009F7D9093800018C02130D5
:100D700019F494B59F7704C0223021F494B59F7D77
:100D800094BD0DC0263021F49091B0009F7705C02E
:100D9000273029F49091B0009F7D9093B000E82F08
:100DA000F0E0E15DFA4FA491B0E08C91611103C0D5
:100DB0003095832301C0832B8C93089590E0FC0130
:100DC000E257FB4F2491FC01EF53FB4F3491FC01A0
:100DD000EC50FB4F8491882399F1222331F1233089
:100DE00021F4909180009F7705C0243031F49091D8
:100DF00080009F7D9093800018C0213019F494B535
:100E00009F7704C0223021F494B59F7D94BD0DC01E
:100E1000263021F49091B0009F7705C0273029F447
:100E20009091B0009F7D9093B000E82FF0E0E95DD5
:100E3000FA4FE491F0E08081832321E030E011F467
:100E400020E030E0C90108950E94C20589E094E0E5
:100E50000E945D12853440F061E081E30E947F06CC
:100E600061E081E30E94980661E070E089E094E02F
:100E70000E9439118130B1F48091AF069091B00693
:100E8000A091B106B091B20690688093AF0690939E
:100E9000B006A093B106B093B20660E081E090E0A6
:100EA0000E949E2287E20E94DE06892B59F160E0B3
:100EB00070E089E094E00E9439118A3019F5C1C0D0
:100EC0006CE3629FA001639F500D1124840F951F56
:100ED0000EC02115310559F06CE3629FA001639F9C
:100EE000500D11249A01205F314F820F931F0397F9
:100EF00048F48091BE069091BF0680629093BF0631
:100F00008093BE068BE693E00E94F10C8BE693E0A3
:100F10000E94B20C8BE693E00E94C10C8BE693E03A
:100F20000E94790863E070E080E090E00E9476051E
:100F30008091AF069091B006A091B106B091B20633
:100F4000A1FF5EC063E070E080E090E00E94760563
:100F500061E086E10E947F0663E070E080E090E05F
:100F60000E94760561E086E10E94980663E070E0E9
:100F700080E090E00E9476050E94110D63E070E031
:100F800080E090E00E94760581E00E94340D63E0ED
:100F900070E080E090E00E94760584E00E94420DBF
:100FA00063E070E080E090E00E94760580E00E94BF
:100FB0003D0D63E070E080E090E00E9476050E94C5
:100FC000300D63E070E080E090E00E94760566E01E
:100FD0008EEF93E00E944D0D63E070E080E090E0C2
:100FE0000E94760561E086E10E947F0660E086E16E
:100FF0000E94980663E070E080E090E00E94760531
:1010000063E070E080E090E00E94760589E094E083
:101010000E9437126093670370936803809369039B
:1010200090936A038091670390916803A09169038C
:10103000B0916A030E94F81F0E94D7020E94D80252
:10104000FDCF8BE693E00E94F10C8BE693E00E94CB
:10105000430B8BE693E00E94380B8091840390E071
:1010600020918603821B91092091830330E04091F7
:101070008703241B3109121613060CF421CF29CF44
:1010800080911004882341F08091E404811104C010
:1010900089EE94E00C94651C08950F931F93CF93F1
:1010A000DF93EC01042F68A761E080E30E947F06D4
:1010B00018A5112379F0113091F461E080E30E94CA
:1010C0009806013019F482E08B8B09C0011107C02A
:1010D0001B8B05C060E080E30E9498061B8A6AE0D3
:1010E00070E080E090E0DF91CF911F910F910C9420
:1010F0007605CF93DF93EC010E94400840E060E06A
:10110000CE01DF91CF910C944D08FC01148A158A11
:10111000168A178A108E118E128E138E148E158ECB
:10112000168E178E10A211A212A213A214A215A23B
:1011300016A217A20895EF92FF920F931F93CF93D9
:10114000DF93CDB7DEB7EC970FB6F894DEBF0FBED6
:10115000CDBF8C01E1ECF2E085919491BC01EE24CD
:10116000E394F12CEC0EFD1EC7010E940320E3EC7A
:10117000F2E085919491BC01CE0189960E940320F2
:10118000F8018689843009F466C040F4823029F180
:1011900008F04BC0813009F0B6C009C0863009F4B0
:1011A00086C008F46EC0873009F0ADC096C0F80163
:1011B000818D1F928F93808D1F928F9387891F92AD
:1011C0008F93828D1F928F9385891F928F9384892D
:1011D0001F928F938BE293E015C0F801818D1F92CF
:1011E0008F93808D1F928F9387891F928F93828D0B
:1011F0001F928F9385891F928F9384891F928F935B
:101200008FE293E09F938F93FF92EF921F9284E679
:101210008F93C80189969F938F930E9415200FB6D4
:10122000F894DEBF0FBECDBF81C0F801818D1F9243
:101230008F93808D1F928F9387891F928F93828DBA
:101240001F928F9385891F928F9384891F928F930A
:1012500083E393E0D7CFF801818D1F928F93808D28
:101260001F928F9387891F928F93828D1F928F93E6
:1012700085891F928F9384891F928F9387E393E0D0
:10128000C1CFF801818D1F928F93808D1F928F9314
:1012900087891F928F93828D1F928F9385891F92CA
:1012A0008F9384891F928F938BE393E0ABCFF801E8
:1012B000818D1F928F93808D1F928F9387891F92AC
:1012C0008F93828D1F928F9385891F928F9384892C
:1012D0001F928F938FE393E095CFF801818D1F923A
:1012E0008F93808D1F928F9387891F928F93828D0A
:1012F0001F928F9385891F928F9384891F928F935A
:1013000083E493E07FCFCE0189969F938F931F92C2
:1013100084E68F93C80189969F938F930E9415202E
:101320000F900F900F900F900F900F90075D1F4F31
:10133000C801EC960FB6F894DEBF0FBECDBFDF91AB
:10134000CF911F910F91FF90EF900895CF92DF9270
:10135000EF92FF920F931F93CF93DF938C01C62ED2
:1013600080911004811104C08AE094E00E9465120B
:1013700068E670E08AE094E00E94921260E070E01B
:101380008AE094E00E94BE138AE094E00E94C013B9
:1013900043E150E068E670E08AE094E00E94FA13CE
:1013A000E12CF12CC0E0D0E0D12CE4C08AE094E044
:1013B0000E949A12F801EC0FFD1F8083C630D10500
:1013C00009F467C098F4C230D10509F43EC038F47E
:1013D000209729F1C130D10509F0C7C02BC0C43016
:1013E000D10509F440C008F049C03AC0CA30D1055F
:1013F00009F484C048F4282F30E0C830D10509F43E
:1014000061C008F06DC050C0CC30D10509F492C065
:1014100008F482C0CD30D10509F0A7C099C0982F3B
:1014200092959F708F702AE0929F800D1124F80191
:10143000818F9BC0982F92959F708F70FAE09F9F2D
:10144000800D1124F801808F90C0982F92959F7085
:101450008F70FAE09F9F800D1124F801878B85C063
:10146000F801868B82C0982F92959F708F70FAE05A
:101470009F9F800D1124F801828F77C0982F92953D
:101480009F708F70FAE09F9F800D1124F801858B6B
:101490006CC0982F92959F708F70FAE09F9F800D7F
:1014A0001124F801848B61C054E0359527955A9535
:1014B000E1F727708F70FAE02F9F800D1124F8015B
:1014C000838F53C044E0359527954A95E1F72770FF
:1014D0008F70FAE02F9F800D1124F801848F45C092
:1014E00094E0359527959A95E1F723708F70FAE08F
:1014F0002F9F800D1124F801858F37C0282F269546
:10150000269526952670922F990F990F920F8F701E
:10151000980FF801968F29C0282F26952695269595
:101520002E70922F990F990F920F8F70980FF801CC
:10153000978F1BC0282F2695269526952670922FCB
:10154000990F990F920F8F70980FF80190A30DC00B
:10155000282F2695269526952670922F990F990F5C
:10156000920F8F70980FF80191A3219603C0FFEF9F
:10157000EF1AFF0ACC16DD0658F02AE0E216F10455
:1015800038F48AE094E00E949412882381F30ECF0D
:10159000DF91CF911F910F91FF90EF90DF90CF904F
:1015A00008951F93CF93DF93EC01162F80911004C1
:1015B000811104C08AE094E00E94651268E670E040
:1015C0008AE094E00E949212612F8AE094E00E94E7
:1015D0009213C10FD11D68818AE094E00E9492139A
:1015E0008AE094E0DF91CF911F910C94C013FF9299
:1015F0000F931F93CF93DF938C01F62E80911004ED
:10160000811104C08AE094E00E94651268E670E0EF
:101610008AE094E00E9492126F2D8AE094E00E948A
:1016200092138AE094E00E94C01341E050E068E623
:1016300070E08AE094E00E94FA13CBE0D0E08AE008
:1016400094E00E949412811102C02197C1F78AE0B0
:1016500094E00E949A12F801EF0DF11D80838AE058
:1016600094E0DF91CF911F910F91FF900C94C013E4
:10167000CF93DF93EC0166E00E94A609CE01DF91D3
:10168000CF910C949B08CF92DF92EF92FF920F9331
:101690001F93CF93DF93CDB7DEB7C857D1090FB6ED
:1016A000F894DEBF0FBECDBF7C016AE00E94A609A0
:1016B0008701075D1F4F84E6F80111928A95E9F7CB
:1016C000EFE9F2E085919491BC01CE018F5A9F4FD2
:1016D0000E940320BE016F5A7F4FC8010E940A205A
:1016E000F70182A1823009F46AC030F4882369F0DE
:1016F000813009F00BC122C0843009F4C7C008F45E
:1017000093C0853009F002C1F0C0E1EAF2E08591B2
:101710009491BC01CE018F5A9F4F0E940320BE01BD
:101720006F5A7F4FC8010E940A20EFEAF2E08591CC
:1017300094916E01F9E2CF0ED11C18C0E3EAF2E0F9
:1017400085919491BC01CE018F5A9F4F0E94032036
:10175000BE016F5A7F4FC8010E940A20EFEAF2E0F3
:10176000859194916E01E9E2CE0ED11CBC01C601B7
:101770000E940320F701838D1F928F93848D1F9207
:101780008F93858D1F928F93868D1F928F93DF92FB
:10179000CF921F9288E28F93EE24E394F12CEC0E0B
:1017A000FD1EFF92EF920E941520B701C8010E9412
:1017B0000A200FB6F894DEBF0FBECDBFC2C0E5EA67
:1017C000F2E085919491BC01CE018F5A9F4F0E9407
:1017D0000320BE016F5A7F4FC8010E940A20E1EB2F
:1017E000F2E0859194916E01E9E2CE0ED11CBC012C
:1017F000C6010E940320F701838D1F928F93848D71
:101800001F928F93858D1F928F93DF92CF921F929D
:1018100088E28F93EE24E394F12CEC0EFD1EFF92F0
:10182000EF920E941520C1CFE7EAF2E085919491F2
:10183000BC01CE018F5A9F4F0E940320BE016F5AF8
:101840007F4FC8010E940A20E3EBF2E0859194915A
:101850006E01E9E2CE0ED11CBC01C6010E9403203C
:10186000F701838D1F928F93848D1F928F93DF9248
:10187000CF921F9288E28F93EE24E394F12CEC0E2A
:10188000FD1EFF92EF920E9415208FCFE9EAF2E051
:1018900085919491BC01CE018F5A9F4F0E940320E5
:1018A000BE016F5A7F4FC8010E940A20E5EBF2E0AB
:1018B000859194916E01E9E2CE0ED11CBC01C60166
:1018C0000E940320F701838D1F928F93DF92CF92A6
:1018D0001F9288E28F93EE24E394F12CEC0EFD1E10
:1018E000FF92EF920E94152060CFEBEAF2E0859123
:1018F0009491BC01CE018F5A9F4F0E940320BE01DC
:101900006F5A7F4FC8010E940A201BC0EDEAF2E027
:10191000859194917E01E1E5EE0EF11CBC01C701B9
:101920000E940320FF92EF921F9284E68F931F93F1
:101930000F930E9415200F900F900F900F900F9013
:101940000F90C801C858DF4F0FB6F894DEBF0FBE26
:10195000CDBFDF91CF911F910F91FF90EF90DF905E
:10196000CF900895CF93DF93EC016EE00E94F70AC9
:101970008E858E7F8E876EE0CE01DF91CF910C94A5
:10198000D10ACF93DF93EC016EE00E94F70A8E85B7
:101990008D7F8E876EE0CE01DF91CF910C94D10ABE
:1019A000CF93DF93EC016FE00E94F70A8F8583707D
:1019B000DF91CF910895CF93DF93EC010E94D00C7B
:1019C000882319F0CE56DF4F888380917A038C7F6D
:1019D00080937A036FE08BE693E0DF91CF910C94D4
:1019E000D10ACF93DF93EC0140E061E00E944D0803
:1019F000CE010E94DB0CCE010E9485086DE0CE0175
:101A00000E94A60961E08BE20E947F0660E08BE203
:101A1000DF91CF910C9498061092FC0310927E03F4
:101A2000089561E08EE10E947F0661E08FE10E94EF
:101A30007F0661E08DE10E947F0660E08EE10E94FA
:101A4000980660E08FE10E94980661E08DE10E94B7
:101A500098068CB580618CBD8CB580648CBD089572
:101A60008CB58F7B8CBD0895811103C08CB58062CD
:101A700002C08CB58F7D8CBD08959CB5937F982B4B
:101A80009CBD08952CB5982F93702C7F922B9CBDF4
:101A90009DB580FB90F99DBD0895CF93C62F61E061
:101AA0008DE10E947F0661E082E20E947F0661E094
:101AB0008DE10E94980661E082E20E949806809182
:101AC000AF069091B006A091B106B091B206A2FF08
:101AD00008C061E088E00E947F0661E088E00E9423
:101AE00098068091AF069091B006A091B106B09192
:101AF000B20696FF08C061E089E00E947F0661E0BF
:101B000089E00E9498068091AF069091B006A0915E
:101B1000B106B091B206A3FF08C061E082E00E9466
:101B20007F0661E082E00E9498068091AF06909166
:101B3000B006A091B106B091B206A4FF08C061E062
:101B400082E20E947F0661E082E20E949806C33032
:101B5000C9F020F4C13061F070F407C0C53061F104
:101B6000F0F0C63009F067C033C060E08DE160C0BE
:101B700060E082E25DC089E094E00E94211160E0B3
:101B80008CE256C08091AF069091B006A091B1064C
:101B9000B091B206A2FF4FC060E088E049C08091DA
:101BA000AF069091B006A091B106B091B20696FF33
:101BB00042C060E089E03CC08091AF069091B006E1
:101BC000A091B106B091B206A3FF35C060E02FC06E
:101BD00061E08DE10E94980661E082E20E94980631
:101BE0008091AF069091B006A091B106B091B20677
:101BF000A2FF04C061E088E00E9498068091AF06D1
:101C00009091B006A091B106B091B20696FF04C0C3
:101C100061E089E00E9498068091AF069091B0063D
:101C2000A091B106B091B206A3FF05C061E082E0C9
:101C3000CF910C949806CF9108951092FF031092C3
:101C4000FE031092000410920104109202041092FC
:101C500003040895FC01408160E072EC81E090E0B3
:101C60000E94681861E087E10E947F0661E087E1D9
:101C70000E94980661E08BE00E947F0660E08BE0A6
:101C80000E94980661E08DE20E947F0660E08DE28E
:101C90000C949806FC0180810E94DC1861E087E1C9
:101CA0000E94980661E08BE00E94980661E08DE258
:101CB0000E947F0660E08DE20C949806CF93DF933C
:101CC000EC01488160E072EC81E090E00E946818CD
:101CD00061E087E10E94980660E08BE00E94980630
:101CE00088810E940A19DF91CF910895CF93DF93E5
:101CF000EC01488160E072EC81E090E00E9468189D
:101D00008881DF91CF910C942619CF93DF93EC015A
:101D1000488160E072EC81E090E00E946818888160
:101D2000DF91CF910C945F19DC018091C500119671
:101D30008C9311978091C40012968C931297E2ECC9
:101D4000F0E0808113968C9313978091CA001496CB
:101D50008C93149780818F7D808380818F7E808398
:101D60008081877F80834C9160E072EC81E090E01D
:101D70000E94681861E087E10E94980660E08BE0AD
:101D80000C949806CF93DF93EC014091AF065091ED
:101D9000B0066091B1067091B20663E070E080E039
:101DA00090E042FF07C00E94760561E08BE00E9450
:101DB000980602C00E94760589818093C5008A81B9
:101DC0008093C4008B818093C2008C818093CA0071
:101DD000DF91CF9108950F931F93CF93DF93CDB7EA
:101DE000DEB7C058D1090FB6F894DEBF0FBECDBF25
:101DF000C957DF4F08811981C758D040C8010E94D8
:101E0000940ECE0185579F4F9C01C757DF4F4881E5
:101E10005981C958D04060E870E0CE0101960E9417
:101E20005220F8016081CE0101960E94F619C80186
:101E30000E94C20EC058DF4F0FB6F894DEBF0FBE2F
:101E4000CDBFDF91CF911F910F910895EF92FF9237
:101E50000F931F93CF93DF938C01EB010E94940E9D
:101E60007E0188E1E81A8CEFF80AFE012196849140
:101E7000882339F0F80160810E94E919CE15DF0549
:101E8000A1F7C8010E94C20E60E070E0CB01DF91B3
:101E9000CF911F910F91FF90EF9008958F929F9295
:101EA000AF92BF92CF92DF92EF92FF920F931F9368
:101EB000CF93DF93EC016A017B01122F0E94940EF5
:101EC00020E030E0A901C701B6010E94F21C87FFA3
:101ED00008C068818DE20E94E919F7FAF094F7F8DA
:101EE000F094B12C60E070E080E09FE307C020E058
:101EF00030E040E251E40E94F61CB394B112F7CFF7
:101F0000262F372F482F592FC701B6010E948E1C4C
:101F10004B015C01792D9B2D0E94631D6B017C019F
:101F20000E948F1D9B01AC01682D792D8A2D9B2D60
:101F30000E948D1CB62EA72E982E892E08812AE08D
:101F400030E040E050E0B601C7010E94061A1123BC
:101F5000B1F168818EE20E94E91931C020E030E0E1
:101F600040E251E4D501F4016B2F7A2D8F2F982D8B
:101F70000E94411E4B015C01792D9B2D0E945E1D2C
:101F80006B01EE24D7FCE094FE2C08812AE030E0BF
:101F900040E050E0C701B6010E94061AC701B60131
:101FA0000E94911D9B01AC01682D792D8A2D9B2DDE
:101FB0000E948D1CB62EA72E982E892E115011111D
:101FC000CDCFCE01DF91CF911F910F91FF90EF9078
:101FD000DF90CF90BF90AF909F908F900C94C20EE7
:101FE000AF92BF92DF92EF92FF920F931F93CF9326
:101FF000DF93EC01142FD52E7B0159010E94940E22
:10200000A114B10429F46881812F0E94E91916C036
:102010008AE0A816B10439F44881612F7D2DC701EB
:102020000E94911A0BC09501442737FD4095542F0B
:102030000881612F7D2DC7010E94061A88810E94A8
:10204000EB19CE01DF91CF911F910F91FF90EF908F
:10205000DF90BF90AF900C94C20E0F931F93CF935D
:10206000DF93EC018B010E94940E17FF07C068817B
:102070008DE20E94E919119501951109B80188278F
:1020800077FD8095982F08812AE030E040E050E00D
:102090000E94061A88810E94EB19CE01DF91CF9130
:1020A0001F910F910C94C20E0F931F93CF93DF9348
:1020B000EC018B010E94940E6881C8010E94F61900
:1020C00088810E94EB19CE01DF91CF911F910F9172
:1020D0000C94C20ECF93DF93EC010E94940E888182
:1020E0000E94EB19CE01DF91CF910C94C20EEF92BA
:1020F000FF920F931F93CF93DF9300D0CDB7DEB73E
:102100007C010E94260F8C01C70169837A830E949B
:102110006A1069817A81C8010F900F90DF91CF9189
:102120001F910F91FF90EF900895CF93DF93EC01F3
:102130002AE00E944E0FCE01DF91CF910C946A10DD
:10214000AF92BF92DF92EF92FF920F931F93CF93C4
:10215000DF93EC01142FD52E7B0159010E94940EC0
:10216000A114B10429F46881812F0E94E91916C0D5
:102170008AE0A816B10439F44881612F7D2DC7018A
:102180000E94911A0BC09501442737FD4095542FAA
:102190000881612F7D2DC7010E94061ACE01DF91B3
:1021A000CF911F910F91FF90EF90DF90BF90AF9074
:1021B0000C94C20E0F931F93CF93DF93EC018B010E
:1021C0000E94940E6881C8010E94F619CE01DF9129
:1021D000CF911F910F910C94C20E1F93CF93DF9359
:1021E000EC01162F0E94940E6881812F0E94E9193C
:1021F000CE01DF91CF911F910C94C20E1092040476
:1022000008951F93CF93DF931F92CDB7DEB7162F9C
:1022100061E0812F49830E947F064981413011F49A
:1022200061E003C0411108C060E0812F0F90DF9191
:10223000CF911F910C9498060F90DF91CF911F9131
:10224000089561E087E10E947F0661E084E20E94D8
:102250007F0661E085E20E947F0661E087E10E94DF
:10226000980661E084E20E94980661E085E20C94A1
:102270009806CB010C9490228F929F92AF92BF92BE
:10228000CF92DF92EF92FF920F931F93CF93DF9342
:10229000CDB7DEB7C75FD1090FB6F894DEBF0FBE6A
:1022A000CDBF8E0100511F4F580128E0A20EB11C76
:1022B0007E0181E8E80EF11CCC24C394D12CCC0E15
:1022C000DD1E6DE0CE018F519F4F0E94E41B40E068
:1022D0006CE089E094E00E94011140E06DE089E04B
:1022E00094E00E940111F80110821182128213827F
:1022F00061E08CE00E947F0661E08CE00E9498061D
:10230000CE018F519F4F0E94C41A41E06DE089E0D9
:1023100094E00E9401116AE070E080E090E00E9489
:10232000760540E063E3CE018F519F4F0E94951BDD
:1023300062E370E080E090E00E9476054701CE0104
:102340008F519F4F0E946A1BF2E08F1A9108F4018F
:102350008083118261E070E080E090E00E94760569
:102360008C149D0461F7FE017196D701C601805956
:102370009F4F219131912D933D93E817F907C9F7AC
:1023800031EE832E912C8C0E9D1E81E090E0A0E01A
:10239000B0E0F401329122914F012130310569F40E
:1023A000F8014081518162817381480F591F6A1F72
:1023B0007B1F4083518362837383880F991FAA1FF9
:1023C000BB1F8E149F0429F7F80180819181A2819F
:1023D000B3818F3F9F4FAF4FBF4F29F4F801108259
:1023E00011821282138260E08CE00E94980640E025
:1023F0006CE089E094E00E94011140E06DE089E02A
:1024000094E00E9401110C5F1F4F0A151B0509F093
:1024100058CFC051DF4F088119812A813B81C05FAD
:10242000D040CC50DF4F88819981AA81BB81C45FA5
:10243000D040081719072A073B0719F000E010E001
:102440009801B801C901C950DF4F0FB6F894DEBF3B
:102450000FBECDBFDF91CF911F910F91FF90EF90F5
:10246000DF90CF90BF90AF909F908F900895CF92C4
:10247000DF92EF92FF920E943C116B017C0161158B
:1024800071058105910591F483EE90E00E949822F8
:102490006A302AE072078207920741F06F3F2FEF00
:1024A00072078207920711F06B017C01B601C70128
:1024B000FF90EF90DF90CF9008958FED90E00E9415
:1024C00090228F3F09F480E00895CF93DF93EC01D1
:1024D00080E2E8E3F4E0DF01982F1D929A95E9F796
:1024E0001092370410923604E5E1F4E0DF011D920A
:1024F0008A95E9F710921404109213040E940F14A5
:1025000081E08E8384E090E0DF91CF910C94A00570
:1025100081E08093120460933504109214041092A9
:10252000130408950C948812809136049091370416
:10253000891B08959091370480913604981748F4C8
:10254000E92FF0E0E85CFB4F80819F5F90933704B8
:10255000089580E00895CF93DF93EC010E945B140F
:102560001E82DF91CF9108954091AF065091B00641
:102570006091B1067091B2064170FC0140834091B8
:10258000AF065091B0066091B1067091B206769593
:10259000679557954795417041838091AF0690911B
:1025A000B006A091B106B091B20684FD49C08091F9
:1025B000AF069091B006A091B106B091B20685FD2C
:1025C0003FC08091AF069091B006A091B106B09146
:1025D000B20686FD35C08091AF069091B006A091FD
:1025E000B106B091B20687FD2BC08091AF069091E5
:1025F000B006A091B106B091B20690FD21C08091C5
:10260000AF069091B006A091B106B091B20691FDCF
:1026100017C08091AF069091B006A091B106B0911D
:10262000B20693FD0DC0089540E060E089EE94E0AD
:102630000E94021C40E061E089EE94E00C94021CD0
:1026400080911104882381F30895CF93DF93EC01E7
:102650008091AF069091B006A091B106B091B206FC
:1026600084FD58C08091AF069091B006A091B1064C
:10267000B091B20685FD4EC08091AF069091B00634
:10268000A091B106B091B20686FD44C08091AF061C
:102690009091B006A091B106B091B20687FD3AC004
:1026A0008091AF069091B006A091B106B091B206AC
:1026B00090FD30C04091AF065091B0066091B106D8
:1026C0007091B20651FD26C04091AF065091B00600
:1026D0006091B1067091B20653FD1CC020C041E06C
:1026E00060E089EE94E00E94021C0CC08981811197
:1026F00006C041E060E089EE94E00E94021C8881FF
:1027000081110DC041E061E089EE94E0DF91CF914D
:102710000C94021C809111048111E8CFE0CFDF916D
:10272000CF910895CF93DF931F92CDB7DEB7698322
:1027300080911204882389F0809113048032D0F4B0
:1027400080911404E82FF0E0EB5EFB4F60838F5F15
:1027500080931404809313040DC08AE094E00E94D7
:10276000B41261E0CE0101960E943C148AE094E02C
:102770000E9425130F90DF91CF9108950C9492132E
:10278000CF938AE094E00E94B41221E040911304B8
:1027900065E174E0809135040E94FF14C82F109207
:1027A000140410921304109212048AE094E00E9420
:1027B00025138C2FCF910895CF93DF93D62FC42F5D
:1027C0008AE094E00E94B412C13208F0C0E24C2FBB
:1027D00068E374E08D2F0E946415D82F109237049F
:1027E000C09336048AE094E00E9425138D2FDF9178
:1027F000CF9108950C94DC131092110410920A04E6
:1028000010920B048AEF90E0A0E0B0E080930C04FB
:1028100090930D04A0930E04B0930F0408951092AA
:102820006104E4E6F0E080818F778083589A599ABA
:10283000E9EBF0E080818E7F808380818D7F8083D3
:1028400081E48093B80085E48093BC0080E2E2E6F6
:10285000F4E0DF01982F1D929A95E9F7E2E8F4E0A1
:10286000DF01982F1D929A95E9F7E2EAF4E0DF0183
:102870001D928A95E9F70895613298F420916104D8
:10288000243089F460935E04FC0182E894E0DC016A
:1028900002C021912D932A2F281B2617D0F380E008
:1028A000089581E0089582E0089585EC8093BC004E
:1028B000109261040895589859988091B9008160E8
:1028C0008093B9008091B90082608093B9008091B3
:1028D000BC0080688093BC008091BC0080618093C4
:1028E000BC008091BC008F7B8093BC008091BC00B9
:1028F0008F7D8093BC008091BC00877F8093BC005B
:102900008091AF069091B006A091B106B091B20649
:1029100086FD14C08091AF069091B006A091B106DB
:10292000B091B20690FD0AC08091AF069091B006BA
:10293000A091B106B091B20693FF04C08091BC0093
:102940008B7F03C08091BC0084608093BC00809129
:10295000BC008E7F8093BC0080916400806880936F
:1029600064000895882349F0109258041092590485
:1029700010925A0410925B0413C0809158049091F5
:102980005904A0915A04B0915B040196A11DB11D98
:102990008093580490935904A0935A04B0935B0415
:1029A0008091580490915904A0915A04B0915B040D
:1029B000803A9648A140B10560F0109258041092F8
:1029C000590410925A0410925B040E940F1481E083
:1029D000089580E0089585ED8093BC0081E00E9419
:1029E000B21408C080E00E94B214882319F010923B
:1029F000610408958091BC0084FDF4CFF8CFFF926C
:102A00000F931F93CF93DF93182F062FF72EC42F0A
:102A1000D22F81E0413208F051C00E94B21415C09B
:102A200080E00E94B214882381F082E080936104E8
:102A30008FEF80935C0410926004C093C204E02F77
:102A4000FF2D62E674E0DB0107C080916104811113
:102A5000E7CFEBCF81918D938A2F861B8C17D0F314
:102A6000812F90E0880F991F8093C30485EE809397
:102A7000BC0081E00E94B214D11105C080915C04B9
:102A80008F3F59F414C0809161048230B9F780E01F
:102A90000E94B21481110DC0F6CF80915C04803287
:102AA00051F080915C04803341F483E007C080E002
:102AB00005C085E003C082E001C084E0DF91CF91D2
:102AC0001F910F91FF9008950F931F93CF93DF9362
:102AD000082FD62F172FC42F81E04132E0F50E9436
:102AE000B2141DC080E00E94B2148823C1F081E0BE
:102AF000809361048FEF80935C0410926004C09314
:102B0000C204802F90E0880F991F81608093C304D6
:102B100085EE8093BC0081E00E94B21410C08091C9
:102B200061048111DFCFE3CF80E00E94B2148823DB
:102B300031F082E694E0ED2FF12FDC0107C08091A7
:102B40006104813089F3F5CF2D9121932A2F281B21
:102B50002C17D0F380E0DF91CF911F910F91089552
:102B60001F920F920FB60F9211240BB60F922F9354
:102B70003F934F935F936F937F938F939F93AF9305
:102B8000BF93CF93EF93FF93C091B900C87FC03636
:102B900009F49FC058F5C83209F45BC090F4C03105
:102BA00009F452C038F4CC2309F4F2C0C83009F05B
:102BB000F3C04AC0C83109F44CC0C03209F0ECC0BF
:102BC0005DC0C03409F473C038F4C03309F45BC08D
:102BD000C83309F0E1C05AC0C03509F45CC0C8353B
:102BE00009F46AC0C83409F0D7C0D4C0C83909F4A0
:102BF000C5C0A8F4C83709F46CC038F4C83609F465
:102C000068C0C03709F0C8C064C0C83809F4B6C08D
:102C1000C03909F464C0C03809F0BEC060C0C03B10
:102C200009F484C038F4C03A09F46BC0C83A09F01A
:102C3000B3C07CC0C03C09F4A5C0C83C09F4A2C024
:102C4000C83B09F0A9C087C08091C3048093BB0032
:102C500013C0909160048091C204981708F09AC044
:102C600080916004E82FF0E0EE59FB4F9081909343
:102C7000BB008F5F8093600485EC81C00E94EB14E1
:102C8000C0935C0489C0C0935C0484C0C0935C049E
:102C90000E94551481C0809160049091BB00E82F80
:102CA000F0E0EE59FB4F90838F5F8093600490912A
:102CB00060048091C2045FC0809160049091BB0069
:102CC000E82FF0E0EE59FB4F90838F5F8093600414
:102CD00061C083E08093610410925D04CDCF809148
:102CE0005D04803208F04AC080915D049091BB0081
:102CF000E82FF0E0EE55FB4F90838F5F80935D04EB
:102D0000BBCF80915D04803230F4E0915D04F0E04F
:102D1000EE55FB4F108260915D04E091C404F09188
:102D2000C50470E082EA94E009952CC084E08093A9
:102D3000610410925F0410925E04E091C604F09169
:102D4000C704099580915E04811105C081E08093DC
:102D50005E041092820480915F04E82FF0E0EE5749
:102D6000FB4F90819093BB008F5F80935F049091A5
:102D70005F0480915E04981708F47ECF85E8809305
:102D8000BC000AC085EC8093BC001092610404C0B2
:102D900010925C040E94EB14FF91EF91CF91BF91D0
:102DA000AF919F918F917F916F915F914F913F91E3
:102DB0002F910F900BBE0F900FBE0F901F90189584
:102DC0001F920F920FB60F9211240BB60F922F93F2
:102DD0003F934F935F936F937F938F939F93AF93A3
:102DE000BF93EF93FF938091C8049091C904892BFE
:102DF00029F0E091C804F091C9040995FF91EF9181
:102E0000BF91AF919F918F917F916F915F914F9102
:102E10003F912F910F900BBE0F900FBE0F901F9000
:102E200018951F920F920FB60F9211240BB60F92A6
:102E30002F933F934F935F936F937F938F939F93C2
:102E4000AF93BF93EF93FF938091CA049091CB040B
:102E5000892B29F0E091CA04F091CB040995FF91E8
:102E6000EF91BF91AF919F918F917F916F915F9102
:102E70004F913F912F910F900BBE0F900FBE0F906F
:102E80001F9018951F920F920FB60F9211240BB638
:102E90000F922F933F934F935F936F937F938F93F3
:102EA0009F93AF93BF93EF93FF938091CC04909146
:102EB000CD04892B29F0E091CC04F091CD04099543
:102EC000FF91EF91BF91AF919F918F917F916F9102
:102ED0005F914F913F912F910F900BBE0F900FBEBE
:102EE0000F901F9018951F920F920FB60F921124FA
:102EF0000BB60F922F933F934F935F936F937F93F4
:102F00008F939F93AF93BF93EF93FF938091CE04E2
:102F10009091CF04892B29F0E091CE04F091CF0459
:102F20000995FF91EF91BF91AF919F918F917F9103
:102F30006F915F914F913F912F910F900BBE0F902A
:102F40000FBE0F901F9018951F920F920FB60F9201
:102F500011240BB60F922F933F934F935F936F9370
:102F60007F938F939F93AF93BF93EF93FF93809142
:102F7000D0049091D104892B29F0E091D004F091F4
:102F8000D1040995FF91EF91BF91AF919F918F91DE
:102F90007F916F915F914F913F912F910F900BBE59
:102FA0000F900FBE0F901F9018951F920F920FB6A3
:102FB0000F9211240BB60F922F933F934F935F9371
:102FC0006F937F938F939F93AF93BF93EF93FF93F1
:102FD0008091D2049091D304892B29F0E091D204FE
:102FE000F091D3040995FF91EF91BF91AF919F911B
:102FF0008F917F916F915F914F913F912F910F90A2
:103000000BBE0F900FBE0F901F9018951F920F923E
:103010000FB60F9211240BB60F922F933F934F933D
:103020005F936F937F938F939F93AF93BF93EF9330
:10303000FF938091D4049091D504892B29F0E091DD
:10304000D404F091D5040995FF91EF91BF91AF9110
:103050009F918F917F916F915F914F913F912F91B0
:103060000F900BBE0F900FBE0F901F9018951F92E0
:103070000F920FB60F9211240BB60F922F933F931E
:103080004F935F936F937F938F939F93AF93BF9370
:10309000EF93FF938091D6049091D704892B29F068
:1030A000E091D604F091D7040995FF91EF91BF917B
:1030B000AF919F918F917F916F915F914F913F91D0
:1030C0002F910F900BBE0F900FBE0F901F90189571
:1030D000CF92DF92EF92FF926B017C01411134C0DD
:1030E00088E00E941D06C701B60122E030E040E002
:1030F00050E00E940D1F305F414F5F4FCA01B90180
:10310000A70196010E940D1FDA01C9010197A109CB
:10311000B109892F9A2FAB2FBB27A7FDBA958093B2
:10312000C50021502093C4008091C100806180932C
:10313000C1008091C10088608093C1008091C1006E
:1031400080688093C10033C080E10E941D06C701E2
:10315000B60122E030E040E050E00E940D1F305FF9
:10316000414F5F4FCA01B901A70196010E940D1F8F
:10317000DA01C9010197A109B109892F9A2FAB2F53
:10318000BB27A7FDBA958093CD0021502093CC009A
:103190008091C90080618093C9008091C9008860D6
:1031A0008093C9008091C90080688093C900FF9016
:1031B000EF90DF90CF90089581110EC088E00E94BB
:1031C00057068091C1008F7E8093C1008091C1001D
:1031D000877F8093C100089580E10E945706809107
:1031E000C9008F7E8093C9008091C900877F80933A
:1031F000C9000895611107C09091C00095FFFCCFF0
:103200008093C60008959091C80095FFFCCF8093ED
:10321000CE00089581110AC08091DE049091DF04F0
:103220009E5F2091DC043091DD0409C08091DA04B6
:103230009091DB049E5F2091D8043091D904821BC9
:10324000930B60E072E00E94D71E0895811119C0AF
:103250008091DC049091DD042091DE043091DF0444
:103260002817390741F1FC01EF53F74F20810196F0
:1032700060E072E00E94D71E9093DD048093DC042E
:1032800018C08091D8049091D9042091DA0430912B
:10329000DB042817390779F0FC01EF53F94F20813F
:1032A000019660E072E00E94D71E9093D90480934B
:1032B000D80430E002C02FEF3FEFC901089581111B
:1032C00009C01092DD041092DC041092DF04109209
:1032D000DE0408951092D9041092D8041092DB04F1
:1032E0001092DA0408951F920F920FB60F921124D4
:1032F0002F933F934F935F936F937F938F939F93FE
:10330000AF93BF93EF93E091C6002091DE0430911C
:10331000DF04C901019660E072E00E94D71E40916F
:10332000DC045091DD048417950741F0D901AF53B7
:10333000B74FEC939093DF048093DE04EF91BF913D
:10334000AF919F918F917F916F915F914F913F913D
:103350002F910F900FBE0F901F9018951F920F92F4
:103360000FB60F9211242F933F934F935F936F9358
:103370007F938F939F93AF93BF93EF93E091CE0092
:103380002091DA043091DB04C901019660E072E01B
:103390000E94D71E4091D8045091D90484179507F4
:1033A00041F0D901AF53B94FEC939093DB04809374
:1033B000DA04EF91BF91AF919F918F917F916F91BF
:1033C0005F914F913F912F910F900FBE0F901F90E3
:1033D00018950C94FA18CF93C82F682F8DE00E948F
:1033E000FA186C2F8AE0CF910C94FA181F93CF93A0
:1033F000DF93162FEC0103C0612F0E94FA18899108
:103400008111FACFDF91CF911F9108954F925F9272
:103410006F927F928F929F92AF92BF92CF92DF92E4
:10342000EF92FF920F93CF93DF93CDB7DEB7A097C4
:103430000FB6F894DEBF0FBECDBF29013A0161156A
:10344000710581059105C9F4602F80E3A0960FB640
:10345000F894DEBF0FBECDBFDF91CF910F91FF90EB
:10346000EF90DF90CF90BF90AF909F908F907F9024
:103470006F905F904F900C94FA18EE24E394F12C27
:10348000EC0EFD1E812C912C5401A30192010E948F
:10349000EB1EF70161937F01FFEF8F1A9F0AAF0ABE
:1034A000BF0AB901CA01611571058105910569F766
:1034B000CC24CA94DC2C7601C80CD91CEA1CFB1C59
:1034C00014C0E1E0F0E0EC0FFD1FEC0DFD1D80816C
:1034D0008A3010F4805D01C0895C602F0E94FA1868
:1034E00081E0C81AD108E108F108EFEFCE16DE0638
:1034F000EE06FE0631F7A0960FB6F894DEBF0FBEBB
:10350000CDBFDF91CF910F91FF90EF90DF90CF90E3
:10351000BF90AF909F908F907F906F905F904F90F3
:103520000895CF92DF92EF92FF920F936B017C018F
:10353000042F97FF0CC0642F8DE20E94FA18F094BC
:10354000E094D094C094C11CD11CE11CF11C2AE071
:1035500030E040E050E0C701B6010E94061A0F912A
:10356000FF90EF90DF90CF9008951092E50482E0F5
:103570008093E1048CE18093E60480EC91E09093E9
:10358000E8048093E7040895CF92DF92EF92FF92D0
:103590001F93CF93DF93EC0160E08E850E947F063E
:1035A0000E9424056B017C011EE7115089F182E025
:1035B00090E00E94A0050E9424056C157D058E05F3
:1035C0009F0520F40E9424056B017C018E850E94DA
:1035D000DE06892BF9F40E9424056C197D098E09F9
:1035E0009F09643F714081059105F8F213C00E9464
:1035F00024056B017C011130C1F10E9424056C1976
:103600007D098E099F09643F714081059105D0F0C5
:1036100010E02BC061E08E850E947F0660E08E8501
:103620000E94980684E591E00E94A0050E9424056E
:103630006B017C018E850E94DE0611E0892BD9F298
:1036400010E0D9CF8E850E94DE0611E0892B09F0AB
:1036500010E089E090E00E94A0050E9424056C150E
:103660007D058E059F0538F6C2CF812FDF91CF9162
:103670001F91FF90EF90DF90CF9008951F93CF930D
:10368000DF93FC011081C181D281912F9095F89434
:103690008A8189238A838981812B898360FF0BC07A
:1036A00089E090E00E94A0058A81812B8A8378942A
:1036B0008FE290E00AC087E390E00E94A0058A8133
:1036C000812B8A83789485E090E0DF91CF911F91E0
:1036D0000C94A0050F931F93CF93DF93FC011081EF
:1036E000C181D281F8948981812B89838A81012FBC
:1036F000009580238A8382E090E00E94A005898162
:103700008023898387E090E00E94A005C881789497
:103710008DE290E00E94A0051C2381E009F480E086
:10372000DF91CF911F910F910895CF92DF92EF9289
:10373000FF920F931F93CF93DF931F92CDB7DEB706
:103740006C01E62E08E010E0FF24F3949F2D9E21EB
:1037500061E009F460E0C60149830E943E1BFF0C52
:103760000150110949810115110581F7411115C059
:10377000F894D6011196ED91FC91129791818C915C
:103780008095892381831196ED91FC911297928106
:103790008C9180958923828378940F90DF91CF91CB
:1037A0001F910F91FF90EF90DF90CF900895FC0153
:1037B0001386158614861286118610861782168245
:1037C0001582148213820895CF93DF93EC01862F24
:1037D0006E8760E00E947F068E8590E0FC01EF53CB
:1037E000FB4FE491E883FC01EC50FB4FE491F0E0E7
:1037F000E95DFA4FE491E9831A82CE01DF91CF911E
:103800000C94D71B1F93CF93DF931F92CDB7DEB7D6
:10381000162F61E08AE149830E947F0661E088E11A
:103820000E947F064981112321F0113009F048C020
:1038300020C041110EC061E08AE10E94980680918B
:10384000AF069091B006A091B106B091B206826029
:103850002FC04130A9F560E08AE10E94980680916E
:10386000AF069091B006A091B106B091B2068D7FDF
:103870001FC041110EC061E088E10E94980680914E
:10388000AF069091B006A091B106B091B2068160EA
:103890000FC04130A9F460E088E10E949806809151
:1038A000AF069091B006A091B106B091B2068E7F9E
:1038B0008093AF069093B006A093B106B093B20682
:1038C0000F90DF91CF911F91089561E089E20E94EE
:1038D0007F0661E088E20E947F068AE094E00C9413
:1038E000AB12FC01128A118E138EDC01A356BE4F5F
:1038F00089E111968C93119714961C92DF01AE55B5
:10390000BE4F1C9212961C92E956FE4F11821082F5
:1039100008958BEE94E00C94711C5058BB27AA2795
:103920000ED075C166D130F06BD120F031F49F3FDD
:1039300011F41EF45BC10EF4E095E7FB51C1E92FD1
:1039400077D180F3BA17620773078407950718F0D9
:1039500071F49EF58FC10EF4E0950B2EBA2FA02DB9
:103960000B01B90190010C01CA01A0011124FF272C
:10397000591B99F0593F50F4503E68F11A16F04027
:10398000A22F232F342F4427585FF3CF4695379526
:103990002795A795F0405395C9F77EF41F16BA0BEB
:1039A000620B730B840BBAF09150A1F0FF0FBB1F99
:1039B000661F771F881FC2F70EC0BA0F621F731FE2
:1039C000841F48F4879577956795B795F7959E3F3F
:1039D00008F0B3CF9395880F08F09927EE0F9795CD
:1039E00087950895D9D008F481E008950CD00FC1CF
:1039F00007D140F0FED030F021F45F3F19F0F0C065
:103A0000511139C1F3C014D198F39923C9F3552347
:103A1000B1F3951B550BBB27AA27621773078407C1
:103A200038F09F5F5F4F220F331F441FAA1FA9F377
:103A300033D00E2E3AF0E0E830D091505040E69569
:103A4000001CCAF729D0FE2F27D0660F771F881FCA
:103A5000BB1F261737074807AB07B0E809F0BB0BB9
:103A6000802DBF01FF2793585F4F2AF09E3F5105DD
:103A700068F0B6C000C15F3FECF3983EDCF386957A
:103A800077956795B795F7959F5FC9F7880F911D53
:103A90009695879597F90895E1E0660F771F881F3F
:103AA000BB1F621773078407BA0720F0621B730BF2
:103AB000840BBA0BEE1F88F7E095089504D0689444
:103AC000B111D9C00895BCD088F09F5790F0B92F9C
:103AD0009927B751A0F0D1F0660F771F881F991F63
:103AE0001AF0BA95C9F712C0B13081F0C3D0B1E075
:103AF0000895C0C0672F782F8827B85F39F0B93F85
:103B0000CCF3869577956795B395D9F73EF4909564
:103B10008095709561957F4F8F4F9F4F0895E894E2
:103B200009C097FB3EF490958095709561957F4F05
:103B30008F4F9F4F9923A9F0F92F96E9BB279395B3
:103B4000F695879577956795B795F111F8CFFAF4C3
:103B5000BB0F11F460FF1BC06F5F7F4F8F4F9F4FF4
:103B600016C0882311F096E911C0772321F09EE852
:103B7000872F762F05C0662371F096E8862F70E0B8
:103B800060E02AF09A95660F771F881FDAF7880F92
:103B90009695879597F90895990F0008550FAA0BE8
:103BA000E0E8FEEF16161706E807F907C0F0121650
:103BB0001306E407F50798F0621B730B840B950B53
:103BC00039F40A2661F0232B242B252B21F40895A8
:103BD0000A2609F4A140A6958FEF811D811D089545
:103BE00097F99F6780E870E060E008959FEF80ECB0
:103BF000089500240A941616170618060906089553
:103C000000240A9412161306140605060895092EB8
:103C10000394000C11F4882352F0BB0F40F4BF2B27
:103C200011F460FF04C06F5F7F4F8F4F9F4F089567
:103C300057FD9058440F551F59F05F3F71F047955D
:103C4000880F97FB991F61F09F3F79F08795089542
:103C5000121613061406551FF2CF4695F1DF08C061
:103C6000161617061806991FF1CF8695710561057E
:103C700008940895E894BB2766277727CB0197F926
:103C800008950BD0C4CFB5DF28F0BADF18F0952324
:103C900009F0A6CFABCF1124EECFCADFA0F3959FDA
:103CA000D1F3950F50E0551F629FF001729FBB2723
:103CB000F00DB11D639FAA27F00DB11DAA1F649FCF
:103CC0006627B00DA11D661F829F2227B00DA11D82
:103CD000621F739FB00DA11D621F839FA00D611D08
:103CE000221F749F3327A00D611D231F849F600D29
:103CF000211D822F762F6A2F11249F5750408AF062
:103D0000E1F088234AF0EE0FFF1FBB1F661F771FED
:103D1000881F91505040A9F79E3F510570F060CF29
:103D2000AACF5F3FECF3983EDCF3869577956795D5
:103D3000B795F795E7959F5FC1F7FE2B880F911D0B
:103D40009695879597F90895A29FB001B39FC001FA
:103D5000A39F01D0B29F700D811D1124911D089564
:103D60000E94A41EA59F900DB49F900DA49F800D4E
:103D7000911D11240895B7FF0C94B01E0E94B01E2F
:103D8000821B930B0895AA1BBB1B51E107C0AA1FFE
:103D9000BB1FA617B70710F0A61BB70B881F991FEC
:103DA0005A95A9F780959095BC01CD01089597FB90
:103DB000072E16F4009407D077FD09D00E94C31E89
:103DC00007FC05D03EF4909581959F4F089570951E
:103DD00061957F4F0895A1E21A2EAA1BBB1BFD011E
:103DE0000DC0AA1FBB1FEE1FFF1FA217B307E407DA
:103DF000F50720F0A21BB30BE40BF50B661F771F32
:103E0000881F991F1A9469F7609570958095909511
:103E10009B01AC01BD01CF010895052E97FB16F45F
:103E2000009407D057FD0DD00E94EB1E07FC09D06F
:103E30007EF490958095709561957F4F8F4F9F4F41
:103E4000089550954095309521953F4F4F4F5F4FC6
:103E50000895689401C0E8948F929F92CF93DF9366
:103E60000E94371FDF91CF919F908F9008958824F3
:103E70009924F401E401B0E49F93AA279A158B04D6
:103E80009C04ED05FE05CF05D007A10798F4AD2FE2
:103E9000DC2FCF2FFE2FE92D982C892E982F872FDE
:103EA000762F652F542F432F322F2227B85031F70A
:103EB000BF9127C01B2EBF91BB27220F331F441F6A
:103EC000551F661F771F881F991F881C991CEE1F9E
:103ED000FF1FCC1FDD1FAA1FBB1F8A149B04EC050C
:103EE000FD05CE05DF05A007B10748F08A189B083D
:103EF000EC09FD09CE09DF09A00BB10B21601A9472
:103F0000E1F62EF49401AF01BE01CD01000C08953D
:103F10000F930F7351F0220F331F441F551F661F5D
:103F2000771F881F991F0A95B1F70F9108952A0DE1
:103F30003B1D4C1D5D1D6E1D7F1D801F911F089533
:103F40000790F691E02D09948F929F92AF92BF92C5
:103F5000CF92DF92EF92FF92CF93DF93EC016881D3
:103F600079818A819B81611571058105910521F413
:103F700064E279ED8BE597E02DE133EF41E050E02D
:103F80000E940D1F49015A019B01AC01A7EAB1E44F
:103F90000E94B01E6B017C01ACEEB4EFA501940150
:103FA0000E94BE1EC60ED71EE81EF91EF7FE06C0F2
:103FB00081E0C81AD108E10880E8F80AC882D982ED
:103FC000EA82FB82E894D7F8EE24FF24C601DF9151
:103FD000CF91FF90EF90DF90CF90BF90AF909F90E8
:103FE0008F9008950C94A41F86E092E00C94A41F77
:103FF000A0E0B0E08093060290930702A09308022D
:10400000B09309020895FB01DC0105900D92002098
:10401000E1F70895FB01DC010D900020E9F711970D
:1040200001900D920020E1F708950F931F93CF9315
:10403000DF93CDB7DEB72E970FB6F894DEBF0FBE75
:10404000CDBF0D891E898F89988D26E02C831A8318
:10405000098397FF02C080E090E801979E838D83DB
:10406000CE014B96AC01698D7A8DCE0101960E94EE
:104070008B204D815E8157FD0AC02F813885421704
:1040800053070CF49A01F801E20FF31F10822E96E9
:104090000FB6F894DEBF0FBECDBFDF91CF911F9159
:1040A0000F9108950F931F93CF93DF93CDB7DEB792
:1040B0002E970FB6F894DEBF0FBECDBF8C01CA019C
:1040C00046E04C831A83098377FF02C060E070E802
:1040D000615071097E836D83A901BC01CE010196F7
:1040E0000E948B204D815E8157FD0AC02F8138854B
:1040F000421753070CF49A01F801E20FF31F1082E4
:104100002E960FB6F894DEBF0FBECDBFDF91CF91D4
:104110001F910F9108952F923F924F925F926F924D
:104120007F928F929F92AF92BF92CF92DF92EF9247
:10413000FF920F931F93CF93DF93CDB7DEB72C97EA
:104140000FB6F894DEBF0FBECDBF7C016B018A01B4
:10415000FC0117821682838181FFC6C18824839463
:10416000912C8C0E9D1EF7019381F60193FD859194
:1041700093FF81916F01882309F4B2C1853239F42C
:1041800093FD859193FF81916F01853229F4B701E9
:1041900090E00E94C222E7CF512C312C20E0203247
:1041A000A8F48B3261F028F4803251F0833271F43C
:1041B0000BC08D3239F0803349F4216028C0226071
:1041C000246025C0286023C0206121C027FD27C0AE
:1041D000382F30533A3078F426FF06C0FAE05F9E5D
:1041E000300D1124532E13C08AE0389E300D112457
:1041F000332E20620CC08E3221F426FD71C1206462
:1042000006C08C3611F4206802C0883641F4F601ED
:1042100093FD859193FF81916F018111C0CF982FFC
:104220009554933018F09052933028F40C5F1F4F40
:10423000FFE3F9830DC0833631F0833771F08335A6
:1042400009F05EC023C0F801808189830E5F1F4F93
:1042500044244394512C540115C03801F2E06F0EF0
:10426000711CF801A080B18026FF03C0652D70E0AD
:1042700002C06FEF7FEFC5012C870E94B7222C018F
:1042800083012C856FE7262E222218C03801F2E028
:104290006F0E711CF801A080B18026FF03C0652D50
:1042A00070E002C06FEF7FEFC5012C870E94AC2247
:1042B0002C012C8550E8252E222A830123FC1CC0CA
:1042C00006C0B70180E290E00E94C2223A94832D9A
:1042D00090E048165906A8F30FC0F50127FC859118
:1042E00027FE81915F01B70190E00E94C222311048
:1042F0003A94F1E04F1A51084114510471F7EDC09E
:10430000843611F0893641F5F80127FF07C0608136
:104310007181828193810C5F1F4F08C06081718120
:10432000882777FD8095982F0E5F1F4F4FE6B42E9C
:10433000B22297FF09C090958095709561957F4F47
:104340008F4F9F4FF0E8BF2A2AE030E0A4010E947F
:10435000EE22A82EA81843C0853731F43FEEB32EC5
:10436000B2222AE030E024C099EFB92EB2228F3673
:10437000B9F020F4883509F0B3C00DC0803721F0C2
:10438000883709F0ADC002C020E1B22AB4FE0BC0EC
:1043900084E0B82A08C024FF09C0E6E0BE2A06C0AF
:1043A00028E030E005C020E130E002C020E132E04A
:1043B000F801B7FE07C060817181828193810C5F33
:1043C0001F4F06C06081718180E090E00E5F1F4F3B
:1043D000A4010E94EE22A82EA818FFE7BF22B6FE75
:1043E0000BC02B2D2E7FA51450F4B4FE0AC0B2FCD6
:1043F00008C02B2D2E7E05C07A2C2B2D03C07A2CC5
:1044000001C0752C24FF0DC0FE01EA0DF11D808155
:10441000803311F4297E09C022FF06C0739473947F
:1044200004C0822F867809F0739423FD14C020FF06
:104430000FC05A2C731460F4530C5718732C08C017
:10444000B70180E290E02C870E94C22273942C85F1
:104450007314B0F304C0731410F4371801C0312C76
:1044600024FF12C0B70180E390E02C870E94C22293
:104470002C8522FF1EC021FF03C088E590E002C00A
:1044800088E790E0B7010CC0822F867891F021FD7B
:1044900002C080E201C08BE227FD8DE2B70190E00F
:1044A0000E94C22206C0B70180E390E00E94C222AF
:1044B0005A94A514C0F3AA94F401EA0DF11DB701B2
:1044C000808190E00E94C222A110F5CF06C0B70102
:1044D00080E290E00E94C2223A943110F8CF43CE9D
:1044E000F7012681378102C02FEF3FEFC9012C96DB
:1044F0000FB6F894DEBF0FBECDBFDF91CF911F91F5
:104500000F91FF90EF90DF90CF90BF90AF909F9072
:104510008F907F906F905F904F903F902F90089575
:10452000F999FECF92BD81BDF89A992780B508957B
:10453000A6E1B0E044E050E00C944E23262FF99918
:10454000FECF1FBA92BD81BD20BD0FB6F894FA9A76
:10455000F99A0FBE01960895FC01059061507040D4
:104560000110D8F7809590958E0F9F1F0895FC013C
:104570006150704001900110D8F7809590958E0F92
:104580009F1F08950F931F93CF93DF938C01EB012F
:104590008B8181FD03C00FEF1FEF1AC082FF0DC09A
:1045A0002E813F818C819D812817390764F4E88131
:1045B000F9810193F983E88306C0E885F985802FA6
:1045C0000995892B41F78E819F8101969F838E8368
:1045D000C801DF91CF911F910F910895FA01AA2789
:1045E000283051F1203181F1E8946F936E7F6E5F36
:1045F0007F4F8F4F9F4FAF4FB1E03ED0B4E03CD0E4
:10460000670F781F891F9A1FA11D680F791F8A1FC6
:10461000911DA11D6A0F711D811D911DA11D20D02D
:1046200009F468943F912AE0269F11243019305DE7
:104630003193DEF6CF010895462F4770405D4193D8
:10464000B3E00FD0C9F7F6CF462F4F70405D4A3325
:1046500018F0495D31FD4052419302D0A9F7EACFED
:10466000B4E0A6959795879577956795BA95C9F71C
:1046700000976105710508959B01AC010A2E06940F
:104680005795479537952795BA95C9F7620F731FC8
:10469000841F951FA01D0895DC01CB01FC01F99931
:1046A000FECF06C0F2BDE1BDF89A319600B40D927E
:0C46B00041505040B8F70895F894FFCF37
:1046BC000000C10A200001000000FFFFFFFF000006
:1046CC000080FFFFFF7F0080FF7F0300CDAB014820
:1046DC00656C6C6F20776F726C6400576173706DD2
:1046EC006F746520697320686572650025730A0014
:1046FC006D696C6C69733A20256C750A0068657875
:10470C0061646563696D616C3A2025780A006465A3
:10471C0063696D616C3A2025640A00756E73696774
:10472C006E656420696E743A2025750A0049742000
:10473C006973206E6F7420706F737369626C65207F
:10474C00746F207072696E7420666C6F6174733A4A
:10475C002025660A00696E743A2025640A00273306
:10476C003237363827206F766572666C6F77732018
:10477C007369676E656420696E742072616E67651B
:10478C003A2025640A007369676E6564206C6F6E4D
:10479C00673A20256C640A002732313437343833B9
:1047AC0036343827206F766572666C6F777320739A
:1047BC0069676E6564206C6F6E672072616E6765E9
:1047CC003A20256C640A00756E7369676E65642007
:1047DC006C6F6E673A20256C750A0053756E004D30
:1047EC006F6E00547565005765640054687500461B
:1047FC0072690053617400496E76616C696420477C
:10480C004D542076616C7565003A3A3A3A3A3A0062
:00000001FF
